{
  "abi": [
    {
      "inputs": [],
      "stateMutability": "nonpayable",
      "type": "constructor"
    },
    {
      "inputs": [],
      "name": "ALEADY_MINTED",
      "type": "error"
    },
    {
      "inputs": [],
      "name": "APPROVAL_TO_CURRENT_OWNER",
      "type": "error"
    },
    {
      "inputs": [],
      "name": "APPROVE_TO_CALLER",
      "type": "error"
    },
    {
      "inputs": [],
      "name": "CALLER_NOT_OWNER_OR_APPROVED",
      "type": "error"
    },
    {
      "inputs": [],
      "name": "INCORRECT_OWNER",
      "type": "error"
    },
    {
      "inputs": [],
      "name": "INVALID_PAYMENT_EVENT",
      "type": "error"
    },
    {
      "inputs": [],
      "name": "INVALID_REDEMPTION_EVENT",
      "type": "error"
    },
    {
      "inputs": [],
      "name": "INVALID_REDEMPTION_METADATA",
      "type": "error"
    },
    {
      "inputs": [],
      "name": "INVALID_TOKEN_ID",
      "type": "error"
    },
    {
      "inputs": [],
      "name": "MINT_TO_ZERO",
      "type": "error"
    },
    {
      "inputs": [],
      "name": "NOT_AVAILABLE",
      "type": "error"
    },
    {
      "inputs": [],
      "name": "OVERSPENDING",
      "type": "error"
    },
    {
      "inputs": [
        {
          "internalType": "uint256",
          "name": "prod1",
          "type": "uint256"
        },
        {
          "internalType": "uint256",
          "name": "denominator",
          "type": "uint256"
        }
      ],
      "name": "PRBMath__MulDivOverflow",
      "type": "error"
    },
    {
      "inputs": [],
      "name": "PRICING_RESOLVER_CHANGES_PAUSED",
      "type": "error"
    },
    {
      "inputs": [],
      "name": "RESERVED_TOKEN_MINTING_PAUSED",
      "type": "error"
    },
    {
      "inputs": [],
      "name": "TRANSFERS_PAUSED",
      "type": "error"
    },
    {
      "inputs": [],
      "name": "TRANSFER_TO_NON_IMPLEMENTER",
      "type": "error"
    },
    {
      "inputs": [],
      "name": "TRANSFER_TO_ZERO_ADDRESS",
      "type": "error"
    },
    {
      "inputs": [],
      "name": "UNAUTHORIZED",
      "type": "error"
    },
    {
      "inputs": [],
      "name": "UNEXPECTED_TOKEN_REDEEMED",
      "type": "error"
    },
    {
      "anonymous": false,
      "inputs": [
        {
          "indexed": true,
          "internalType": "uint256",
          "name": "tierId",
          "type": "uint256"
        },
        {
          "components": [
            {
              "internalType": "uint80",
              "name": "contributionFloor",
              "type": "uint80"
            },
            {
              "internalType": "uint48",
              "name": "lockedUntil",
              "type": "uint48"
            },
            {
              "internalType": "uint40",
              "name": "initialQuantity",
              "type": "uint40"
            },
            {
              "internalType": "uint16",
              "name": "votingUnits",
              "type": "uint16"
            },
            {
              "internalType": "uint16",
              "name": "reservedRate",
              "type": "uint16"
            },
            {
              "internalType": "address",
              "name": "reservedTokenBeneficiary",
              "type": "address"
            },
            {
              "internalType": "bytes32",
              "name": "encodedIPFSUri",
              "type": "bytes32"
            },
            {
              "internalType": "bool",
              "name": "allowManualMint",
              "type": "bool"
            },
            {
              "internalType": "bool",
              "name": "shouldUseBeneficiaryAsDefault",
              "type": "bool"
            },
            {
              "internalType": "bool",
              "name": "transfersPausable",
              "type": "bool"
            }
          ],
          "indexed": false,
          "internalType": "struct JB721TierParams",
          "name": "data",
          "type": "tuple"
        },
        {
          "indexed": false,
          "internalType": "address",
          "name": "caller",
          "type": "address"
        }
      ],
      "name": "AddTier",
      "type": "event"
    },
    {
      "anonymous": false,
      "inputs": [
        {
          "indexed": true,
          "internalType": "address",
          "name": "owner",
          "type": "address"
        },
        {
          "indexed": true,
          "internalType": "address",
          "name": "approved",
          "type": "address"
        },
        {
          "indexed": true,
          "internalType": "uint256",
          "name": "tokenId",
          "type": "uint256"
        }
      ],
      "name": "Approval",
      "type": "event"
    },
    {
      "anonymous": false,
      "inputs": [
        {
          "indexed": true,
          "internalType": "address",
          "name": "owner",
          "type": "address"
        },
        {
          "indexed": true,
          "internalType": "address",
          "name": "operator",
          "type": "address"
        },
        {
          "indexed": false,
          "internalType": "bool",
          "name": "approved",
          "type": "bool"
        }
      ],
      "name": "ApprovalForAll",
      "type": "event"
    },
    {
      "anonymous": false,
      "inputs": [
        {
          "indexed": true,
          "internalType": "uint256",
          "name": "tokenId",
          "type": "uint256"
        },
        {
          "indexed": true,
          "internalType": "uint256",
          "name": "tierId",
          "type": "uint256"
        },
        {
          "indexed": true,
          "internalType": "address",
          "name": "beneficiary",
          "type": "address"
        },
        {
          "indexed": false,
          "internalType": "uint256",
          "name": "totalAmountContributed",
          "type": "uint256"
        },
        {
          "indexed": false,
          "internalType": "address",
          "name": "caller",
          "type": "address"
        }
      ],
      "name": "Mint",
      "type": "event"
    },
    {
      "anonymous": false,
      "inputs": [
        {
          "indexed": true,
          "internalType": "uint256",
          "name": "tokenId",
          "type": "uint256"
        },
        {
          "indexed": true,
          "internalType": "uint256",
          "name": "tierId",
          "type": "uint256"
        },
        {
          "indexed": true,
          "internalType": "address",
          "name": "beneficiary",
          "type": "address"
        },
        {
          "indexed": false,
          "internalType": "address",
          "name": "caller",
          "type": "address"
        }
      ],
      "name": "MintReservedToken",
      "type": "event"
    },
    {
      "anonymous": false,
      "inputs": [
        {
          "indexed": true,
          "internalType": "address",
          "name": "previousOwner",
          "type": "address"
        },
        {
          "indexed": true,
          "internalType": "address",
          "name": "newOwner",
          "type": "address"
        }
      ],
      "name": "OwnershipTransferred",
      "type": "event"
    },
    {
      "anonymous": false,
      "inputs": [
        {
          "indexed": true,
          "internalType": "uint256",
          "name": "tierId",
          "type": "uint256"
        },
        {
          "indexed": false,
          "internalType": "address",
          "name": "caller",
          "type": "address"
        }
      ],
      "name": "RemoveTier",
      "type": "event"
    },
    {
      "anonymous": false,
      "inputs": [
        {
          "indexed": true,
          "internalType": "string",
          "name": "baseUri",
          "type": "string"
        },
        {
          "indexed": false,
          "internalType": "address",
          "name": "caller",
          "type": "address"
        }
      ],
      "name": "SetBaseUri",
      "type": "event"
    },
    {
      "anonymous": false,
      "inputs": [
        {
          "indexed": true,
          "internalType": "string",
          "name": "contractUri",
          "type": "string"
        },
        {
          "indexed": false,
          "internalType": "address",
          "name": "caller",
          "type": "address"
        }
      ],
      "name": "SetContractUri",
      "type": "event"
    },
    {
      "anonymous": false,
      "inputs": [
        {
          "indexed": true,
          "internalType": "address",
          "name": "beneficiary",
          "type": "address"
        },
        {
          "indexed": false,
          "internalType": "address",
          "name": "caller",
          "type": "address"
        }
      ],
      "name": "SetDefaultReservedTokenBeneficiary",
      "type": "event"
    },
    {
      "anonymous": false,
      "inputs": [
        {
          "indexed": true,
          "internalType": "contract IJBTokenUriResolver",
          "name": "newResolver",
          "type": "address"
        },
        {
          "indexed": false,
          "internalType": "address",
          "name": "caller",
          "type": "address"
        }
      ],
      "name": "SetTokenUriResolver",
      "type": "event"
    },
    {
      "anonymous": false,
      "inputs": [
        {
          "indexed": true,
          "internalType": "address",
          "name": "from",
          "type": "address"
        },
        {
          "indexed": true,
          "internalType": "address",
          "name": "to",
          "type": "address"
        },
        {
          "indexed": true,
          "internalType": "uint256",
          "name": "tokenId",
          "type": "uint256"
        }
      ],
      "name": "Transfer",
      "type": "event"
    },
    {
      "inputs": [
        {
          "components": [
            {
              "internalType": "uint80",
              "name": "contributionFloor",
              "type": "uint80"
            },
            {
              "internalType": "uint48",
              "name": "lockedUntil",
              "type": "uint48"
            },
            {
              "internalType": "uint40",
              "name": "initialQuantity",
              "type": "uint40"
            },
            {
              "internalType": "uint16",
              "name": "votingUnits",
              "type": "uint16"
            },
            {
              "internalType": "uint16",
              "name": "reservedRate",
              "type": "uint16"
            },
            {
              "internalType": "address",
              "name": "reservedTokenBeneficiary",
              "type": "address"
            },
            {
              "internalType": "bytes32",
              "name": "encodedIPFSUri",
              "type": "bytes32"
            },
            {
              "internalType": "bool",
              "name": "allowManualMint",
              "type": "bool"
            },
            {
              "internalType": "bool",
              "name": "shouldUseBeneficiaryAsDefault",
              "type": "bool"
            },
            {
              "internalType": "bool",
              "name": "transfersPausable",
              "type": "bool"
            }
          ],
          "internalType": "struct JB721TierParams[]",
          "name": "_tiersToAdd",
          "type": "tuple[]"
        },
        {
          "internalType": "uint256[]",
          "name": "_tierIdsToRemove",
          "type": "uint256[]"
        }
      ],
      "name": "adjustTiers",
      "outputs": [],
      "stateMutability": "nonpayable",
      "type": "function"
    },
    {
      "inputs": [
        {
          "internalType": "address",
          "name": "to",
          "type": "address"
        },
        {
          "internalType": "uint256",
          "name": "tokenId",
          "type": "uint256"
        }
      ],
      "name": "approve",
      "outputs": [],
      "stateMutability": "nonpayable",
      "type": "function"
    },
    {
      "inputs": [
        {
          "internalType": "address",
          "name": "_owner",
          "type": "address"
        }
      ],
      "name": "balanceOf",
      "outputs": [
        {
          "internalType": "uint256",
          "name": "balance",
          "type": "uint256"
        }
      ],
      "stateMutability": "view",
      "type": "function"
    },
    {
      "inputs": [],
      "name": "codeOrigin",
      "outputs": [
        {
          "internalType": "address",
          "name": "",
          "type": "address"
        }
      ],
      "stateMutability": "view",
      "type": "function"
    },
    {
      "inputs": [],
      "name": "contractURI",
      "outputs": [
        {
          "internalType": "string",
          "name": "",
          "type": "string"
        }
      ],
      "stateMutability": "view",
      "type": "function"
    },
    {
      "inputs": [
        {
          "internalType": "address",
          "name": "",
          "type": "address"
        }
      ],
      "name": "creditsOf",
      "outputs": [
        {
          "internalType": "uint256",
          "name": "",
          "type": "uint256"
        }
      ],
      "stateMutability": "view",
      "type": "function"
    },
    {
      "inputs": [
        {
          "components": [
            {
              "internalType": "address",
              "name": "payer",
              "type": "address"
            },
            {
              "internalType": "uint256",
              "name": "projectId",
              "type": "uint256"
            },
            {
              "internalType": "uint256",
              "name": "currentFundingCycleConfiguration",
              "type": "uint256"
            },
            {
              "components": [
                {
                  "internalType": "address",
                  "name": "token",
                  "type": "address"
                },
                {
                  "internalType": "uint256",
                  "name": "value",
                  "type": "uint256"
                },
                {
                  "internalType": "uint256",
                  "name": "decimals",
                  "type": "uint256"
                },
                {
                  "internalType": "uint256",
                  "name": "currency",
                  "type": "uint256"
                }
              ],
              "internalType": "struct JBTokenAmount",
              "name": "amount",
              "type": "tuple"
            },
            {
              "components": [
                {
                  "internalType": "address",
                  "name": "token",
                  "type": "address"
                },
                {
                  "internalType": "uint256",
                  "name": "value",
                  "type": "uint256"
                },
                {
                  "internalType": "uint256",
                  "name": "decimals",
                  "type": "uint256"
                },
                {
                  "internalType": "uint256",
                  "name": "currency",
                  "type": "uint256"
                }
              ],
              "internalType": "struct JBTokenAmount",
              "name": "forwardedAmount",
              "type": "tuple"
            },
            {
              "internalType": "uint256",
              "name": "projectTokenCount",
              "type": "uint256"
            },
            {
              "internalType": "address",
              "name": "beneficiary",
              "type": "address"
            },
            {
              "internalType": "bool",
              "name": "preferClaimedTokens",
              "type": "bool"
            },
            {
              "internalType": "string",
              "name": "memo",
              "type": "string"
            },
            {
              "internalType": "bytes",
              "name": "metadata",
              "type": "bytes"
            }
          ],
          "internalType": "struct JBDidPayData",
          "name": "_data",
          "type": "tuple"
        }
      ],
      "name": "didPay",
      "outputs": [],
      "stateMutability": "payable",
      "type": "function"
    },
    {
      "inputs": [
        {
          "components": [
            {
              "internalType": "address",
              "name": "holder",
              "type": "address"
            },
            {
              "internalType": "uint256",
              "name": "projectId",
              "type": "uint256"
            },
            {
              "internalType": "uint256",
              "name": "currentFundingCycleConfiguration",
              "type": "uint256"
            },
            {
              "internalType": "uint256",
              "name": "projectTokenCount",
              "type": "uint256"
            },
            {
              "components": [
                {
                  "internalType": "address",
                  "name": "token",
                  "type": "address"
                },
                {
                  "internalType": "uint256",
                  "name": "value",
                  "type": "uint256"
                },
                {
                  "internalType": "uint256",
                  "name": "decimals",
                  "type": "uint256"
                },
                {
                  "internalType": "uint256",
                  "name": "currency",
                  "type": "uint256"
                }
              ],
              "internalType": "struct JBTokenAmount",
              "name": "reclaimedAmount",
              "type": "tuple"
            },
            {
              "components": [
                {
                  "internalType": "address",
                  "name": "token",
                  "type": "address"
                },
                {
                  "internalType": "uint256",
                  "name": "value",
                  "type": "uint256"
                },
                {
                  "internalType": "uint256",
                  "name": "decimals",
                  "type": "uint256"
                },
                {
                  "internalType": "uint256",
                  "name": "currency",
                  "type": "uint256"
                }
              ],
              "internalType": "struct JBTokenAmount",
              "name": "forwardedAmount",
              "type": "tuple"
            },
            {
              "internalType": "address payable",
              "name": "beneficiary",
              "type": "address"
            },
            {
              "internalType": "string",
              "name": "memo",
              "type": "string"
            },
            {
              "internalType": "bytes",
              "name": "metadata",
              "type": "bytes"
            }
          ],
          "internalType": "struct JBDidRedeemData",
          "name": "_data",
          "type": "tuple"
        }
      ],
      "name": "didRedeem",
      "outputs": [],
      "stateMutability": "payable",
      "type": "function"
    },
    {
      "inputs": [],
      "name": "directory",
      "outputs": [
        {
          "internalType": "contract IJBDirectory",
          "name": "",
          "type": "address"
        }
      ],
      "stateMutability": "view",
      "type": "function"
    },
    {
      "inputs": [
        {
          "internalType": "uint256",
          "name": "_tokenId",
          "type": "uint256"
        }
      ],
      "name": "firstOwnerOf",
      "outputs": [
        {
          "internalType": "address",
          "name": "",
          "type": "address"
        }
      ],
      "stateMutability": "view",
      "type": "function"
    },
    {
      "inputs": [],
      "name": "fundingCycleStore",
      "outputs": [
        {
          "internalType": "contract IJBFundingCycleStore",
          "name": "",
          "type": "address"
        }
      ],
      "stateMutability": "view",
      "type": "function"
    },
    {
      "inputs": [
        {
          "internalType": "uint256",
          "name": "tokenId",
          "type": "uint256"
        }
      ],
      "name": "getApproved",
      "outputs": [
        {
          "internalType": "address",
          "name": "",
          "type": "address"
        }
      ],
      "stateMutability": "view",
      "type": "function"
    },
    {
      "inputs": [
        {
          "internalType": "uint256",
          "name": "_projectId",
          "type": "uint256"
        },
        {
          "internalType": "contract IJBDirectory",
          "name": "_directory",
          "type": "address"
        },
        {
          "internalType": "string",
          "name": "_name",
          "type": "string"
        },
        {
          "internalType": "string",
          "name": "_symbol",
          "type": "string"
        },
        {
          "internalType": "contract IJBFundingCycleStore",
          "name": "_fundingCycleStore",
          "type": "address"
        },
        {
          "internalType": "string",
          "name": "_baseUri",
          "type": "string"
        },
        {
          "internalType": "contract IJBTokenUriResolver",
          "name": "_tokenUriResolver",
          "type": "address"
        },
        {
          "internalType": "string",
          "name": "_contractUri",
          "type": "string"
        },
        {
          "components": [
            {
              "components": [
                {
                  "internalType": "uint80",
                  "name": "contributionFloor",
                  "type": "uint80"
                },
                {
                  "internalType": "uint48",
                  "name": "lockedUntil",
                  "type": "uint48"
                },
                {
                  "internalType": "uint40",
                  "name": "initialQuantity",
                  "type": "uint40"
                },
                {
                  "internalType": "uint16",
                  "name": "votingUnits",
                  "type": "uint16"
                },
                {
                  "internalType": "uint16",
                  "name": "reservedRate",
                  "type": "uint16"
                },
                {
                  "internalType": "address",
                  "name": "reservedTokenBeneficiary",
                  "type": "address"
                },
                {
                  "internalType": "bytes32",
                  "name": "encodedIPFSUri",
                  "type": "bytes32"
                },
                {
                  "internalType": "bool",
                  "name": "allowManualMint",
                  "type": "bool"
                },
                {
                  "internalType": "bool",
                  "name": "shouldUseBeneficiaryAsDefault",
                  "type": "bool"
                },
                {
                  "internalType": "bool",
                  "name": "transfersPausable",
                  "type": "bool"
                }
              ],
              "internalType": "struct JB721TierParams[]",
              "name": "tiers",
              "type": "tuple[]"
            },
            {
              "internalType": "uint256",
              "name": "currency",
              "type": "uint256"
            },
            {
              "internalType": "uint256",
              "name": "decimals",
              "type": "uint256"
            },
            {
              "internalType": "contract IJBPrices",
              "name": "prices",
              "type": "address"
            }
          ],
          "internalType": "struct JB721PricingParams",
          "name": "_pricing",
          "type": "tuple"
        },
        {
          "internalType": "contract IJBTiered721DelegateStore",
          "name": "_store",
          "type": "address"
        },
        {
          "components": [
            {
              "internalType": "bool",
              "name": "lockReservedTokenChanges",
              "type": "bool"
            },
            {
              "internalType": "bool",
              "name": "lockVotingUnitChanges",
              "type": "bool"
            },
            {
              "internalType": "bool",
              "name": "lockManualMintingChanges",
              "type": "bool"
            }
          ],
          "internalType": "struct JBTiered721Flags",
          "name": "_flags",
          "type": "tuple"
        }
      ],
      "name": "initialize",
      "outputs": [],
      "stateMutability": "nonpayable",
      "type": "function"
    },
    {
      "inputs": [
        {
          "internalType": "address",
          "name": "owner",
          "type": "address"
        },
        {
          "internalType": "address",
          "name": "operator",
          "type": "address"
        }
      ],
      "name": "isApprovedForAll",
      "outputs": [
        {
          "internalType": "bool",
          "name": "",
          "type": "bool"
        }
      ],
      "stateMutability": "view",
      "type": "function"
    },
    {
      "inputs": [
        {
          "components": [
            {
              "internalType": "uint16[]",
              "name": "tierIds",
              "type": "uint16[]"
            },
            {
              "internalType": "address",
              "name": "beneficiary",
              "type": "address"
            }
          ],
          "internalType": "struct JBTiered721MintForTiersData[]",
          "name": "_mintForTiersData",
          "type": "tuple[]"
        }
      ],
      "name": "mintFor",
      "outputs": [],
      "stateMutability": "nonpayable",
      "type": "function"
    },
    {
      "inputs": [
        {
          "internalType": "uint16[]",
          "name": "_tierIds",
          "type": "uint16[]"
        },
        {
          "internalType": "address",
          "name": "_beneficiary",
          "type": "address"
        }
      ],
      "name": "mintFor",
      "outputs": [
        {
          "internalType": "uint256[]",
          "name": "tokenIds",
          "type": "uint256[]"
        }
      ],
      "stateMutability": "nonpayable",
      "type": "function"
    },
    {
      "inputs": [
        {
          "components": [
            {
              "internalType": "uint256",
              "name": "tierId",
              "type": "uint256"
            },
            {
              "internalType": "uint256",
              "name": "count",
              "type": "uint256"
            }
          ],
          "internalType": "struct JBTiered721MintReservesForTiersData[]",
          "name": "_mintReservesForTiersData",
          "type": "tuple[]"
        }
      ],
      "name": "mintReservesFor",
      "outputs": [],
      "stateMutability": "nonpayable",
      "type": "function"
    },
    {
      "inputs": [
        {
          "internalType": "uint256",
          "name": "_tierId",
          "type": "uint256"
        },
        {
          "internalType": "uint256",
          "name": "_count",
          "type": "uint256"
        }
      ],
      "name": "mintReservesFor",
      "outputs": [],
      "stateMutability": "nonpayable",
      "type": "function"
    },
    {
      "inputs": [],
      "name": "name",
      "outputs": [
        {
          "internalType": "string",
          "name": "",
          "type": "string"
        }
      ],
      "stateMutability": "view",
      "type": "function"
    },
    {
      "inputs": [],
      "name": "owner",
      "outputs": [
        {
          "internalType": "address",
          "name": "",
          "type": "address"
        }
      ],
      "stateMutability": "view",
      "type": "function"
    },
    {
      "inputs": [
        {
          "internalType": "uint256",
          "name": "tokenId",
          "type": "uint256"
        }
      ],
      "name": "ownerOf",
      "outputs": [
        {
          "internalType": "address",
          "name": "",
          "type": "address"
        }
      ],
      "stateMutability": "view",
      "type": "function"
    },
    {
      "inputs": [
        {
          "components": [
            {
              "internalType": "contract IJBPaymentTerminal",
              "name": "terminal",
              "type": "address"
            },
            {
              "internalType": "address",
              "name": "payer",
              "type": "address"
            },
            {
              "components": [
                {
                  "internalType": "address",
                  "name": "token",
                  "type": "address"
                },
                {
                  "internalType": "uint256",
                  "name": "value",
                  "type": "uint256"
                },
                {
                  "internalType": "uint256",
                  "name": "decimals",
                  "type": "uint256"
                },
                {
                  "internalType": "uint256",
                  "name": "currency",
                  "type": "uint256"
                }
              ],
              "internalType": "struct JBTokenAmount",
              "name": "amount",
              "type": "tuple"
            },
            {
              "internalType": "uint256",
              "name": "projectId",
              "type": "uint256"
            },
            {
              "internalType": "uint256",
              "name": "currentFundingCycleConfiguration",
              "type": "uint256"
            },
            {
              "internalType": "address",
              "name": "beneficiary",
              "type": "address"
            },
            {
              "internalType": "uint256",
              "name": "weight",
              "type": "uint256"
            },
            {
              "internalType": "uint256",
              "name": "reservedRate",
              "type": "uint256"
            },
            {
              "internalType": "string",
              "name": "memo",
              "type": "string"
            },
            {
              "internalType": "bytes",
              "name": "metadata",
              "type": "bytes"
            }
          ],
          "internalType": "struct JBPayParamsData",
          "name": "_data",
          "type": "tuple"
        }
      ],
      "name": "payParams",
      "outputs": [
        {
          "internalType": "uint256",
          "name": "weight",
          "type": "uint256"
        },
        {
          "internalType": "string",
          "name": "memo",
          "type": "string"
        },
        {
          "components": [
            {
              "internalType": "contract IJBPayDelegate",
              "name": "delegate",
              "type": "address"
            },
            {
              "internalType": "uint256",
              "name": "amount",
              "type": "uint256"
            }
          ],
          "internalType": "struct JBPayDelegateAllocation[]",
          "name": "delegateAllocations",
          "type": "tuple[]"
        }
      ],
      "stateMutability": "view",
      "type": "function"
    },
    {
      "inputs": [],
      "name": "prices",
      "outputs": [
        {
          "internalType": "contract IJBPrices",
          "name": "",
          "type": "address"
        }
      ],
      "stateMutability": "view",
      "type": "function"
    },
    {
      "inputs": [],
      "name": "pricingCurrency",
      "outputs": [
        {
          "internalType": "uint256",
          "name": "",
          "type": "uint256"
        }
      ],
      "stateMutability": "view",
      "type": "function"
    },
    {
      "inputs": [],
      "name": "pricingDecimals",
      "outputs": [
        {
          "internalType": "uint256",
          "name": "",
          "type": "uint256"
        }
      ],
      "stateMutability": "view",
      "type": "function"
    },
    {
      "inputs": [],
      "name": "projectId",
      "outputs": [
        {
          "internalType": "uint256",
          "name": "",
          "type": "uint256"
        }
      ],
      "stateMutability": "view",
      "type": "function"
    },
    {
      "inputs": [
        {
          "components": [
            {
              "internalType": "contract IJBPaymentTerminal",
              "name": "terminal",
              "type": "address"
            },
            {
              "internalType": "address",
              "name": "holder",
              "type": "address"
            },
            {
              "internalType": "uint256",
              "name": "projectId",
              "type": "uint256"
            },
            {
              "internalType": "uint256",
              "name": "currentFundingCycleConfiguration",
              "type": "uint256"
            },
            {
              "internalType": "uint256",
              "name": "tokenCount",
              "type": "uint256"
            },
            {
              "internalType": "uint256",
              "name": "totalSupply",
              "type": "uint256"
            },
            {
              "internalType": "uint256",
              "name": "overflow",
              "type": "uint256"
            },
            {
              "components": [
                {
                  "internalType": "address",
                  "name": "token",
                  "type": "address"
                },
                {
                  "internalType": "uint256",
                  "name": "value",
                  "type": "uint256"
                },
                {
                  "internalType": "uint256",
                  "name": "decimals",
                  "type": "uint256"
                },
                {
                  "internalType": "uint256",
                  "name": "currency",
                  "type": "uint256"
                }
              ],
              "internalType": "struct JBTokenAmount",
              "name": "reclaimAmount",
              "type": "tuple"
            },
            {
              "internalType": "bool",
              "name": "useTotalOverflow",
              "type": "bool"
            },
            {
              "internalType": "uint256",
              "name": "redemptionRate",
              "type": "uint256"
            },
            {
              "internalType": "string",
              "name": "memo",
              "type": "string"
            },
            {
              "internalType": "bytes",
              "name": "metadata",
              "type": "bytes"
            }
          ],
          "internalType": "struct JBRedeemParamsData",
          "name": "_data",
          "type": "tuple"
        }
      ],
      "name": "redeemParams",
      "outputs": [
        {
          "internalType": "uint256",
          "name": "reclaimAmount",
          "type": "uint256"
        },
        {
          "internalType": "string",
          "name": "memo",
          "type": "string"
        },
        {
          "components": [
            {
              "internalType": "contract IJBRedemptionDelegate",
              "name": "delegate",
              "type": "address"
            },
            {
              "internalType": "uint256",
              "name": "amount",
              "type": "uint256"
            }
          ],
          "internalType": "struct JBRedemptionDelegateAllocation[]",
          "name": "delegateAllocations",
          "type": "tuple[]"
        }
      ],
      "stateMutability": "view",
      "type": "function"
    },
    {
      "inputs": [],
      "name": "renounceOwnership",
      "outputs": [],
      "stateMutability": "nonpayable",
      "type": "function"
    },
    {
      "inputs": [
        {
          "internalType": "address",
          "name": "from",
          "type": "address"
        },
        {
          "internalType": "address",
          "name": "to",
          "type": "address"
        },
        {
          "internalType": "uint256",
          "name": "tokenId",
          "type": "uint256"
        }
      ],
      "name": "safeTransferFrom",
      "outputs": [],
      "stateMutability": "nonpayable",
      "type": "function"
    },
    {
      "inputs": [
        {
          "internalType": "address",
          "name": "from",
          "type": "address"
        },
        {
          "internalType": "address",
          "name": "to",
          "type": "address"
        },
        {
          "internalType": "uint256",
          "name": "tokenId",
          "type": "uint256"
        },
        {
          "internalType": "bytes",
          "name": "data",
          "type": "bytes"
        }
      ],
      "name": "safeTransferFrom",
      "outputs": [],
      "stateMutability": "nonpayable",
      "type": "function"
    },
    {
      "inputs": [
        {
          "internalType": "address",
          "name": "operator",
          "type": "address"
        },
        {
          "internalType": "bool",
          "name": "approved",
          "type": "bool"
        }
      ],
      "name": "setApprovalForAll",
      "outputs": [],
      "stateMutability": "nonpayable",
      "type": "function"
    },
    {
      "inputs": [
        {
          "internalType": "string",
          "name": "_baseUri",
          "type": "string"
        }
      ],
      "name": "setBaseUri",
      "outputs": [],
      "stateMutability": "nonpayable",
      "type": "function"
    },
    {
      "inputs": [
        {
          "internalType": "string",
          "name": "_contractUri",
          "type": "string"
        }
      ],
      "name": "setContractUri",
      "outputs": [],
      "stateMutability": "nonpayable",
      "type": "function"
    },
    {
      "inputs": [
        {
          "internalType": "address",
          "name": "_beneficiary",
          "type": "address"
        }
      ],
      "name": "setDefaultReservedTokenBeneficiary",
      "outputs": [],
      "stateMutability": "nonpayable",
      "type": "function"
    },
    {
      "inputs": [
        {
          "internalType": "contract IJBTokenUriResolver",
          "name": "_tokenUriResolver",
          "type": "address"
        }
      ],
      "name": "setTokenUriResolver",
      "outputs": [],
      "stateMutability": "nonpayable",
      "type": "function"
    },
    {
      "inputs": [],
      "name": "store",
      "outputs": [
        {
          "internalType": "contract IJBTiered721DelegateStore",
          "name": "",
          "type": "address"
        }
      ],
      "stateMutability": "view",
      "type": "function"
    },
    {
      "inputs": [
        {
          "internalType": "bytes4",
          "name": "_interfaceId",
          "type": "bytes4"
        }
      ],
      "name": "supportsInterface",
      "outputs": [
        {
          "internalType": "bool",
          "name": "",
          "type": "bool"
        }
      ],
      "stateMutability": "view",
      "type": "function"
    },
    {
      "inputs": [],
      "name": "symbol",
      "outputs": [
        {
          "internalType": "string",
          "name": "",
          "type": "string"
        }
      ],
      "stateMutability": "view",
      "type": "function"
    },
    {
      "inputs": [
        {
          "internalType": "uint256",
          "name": "_tokenId",
          "type": "uint256"
        }
      ],
      "name": "tokenURI",
      "outputs": [
        {
          "internalType": "string",
          "name": "",
          "type": "string"
        }
      ],
      "stateMutability": "view",
      "type": "function"
    },
    {
      "inputs": [
        {
          "internalType": "address",
          "name": "from",
          "type": "address"
        },
        {
          "internalType": "address",
          "name": "to",
          "type": "address"
        },
        {
          "internalType": "uint256",
          "name": "tokenId",
          "type": "uint256"
        }
      ],
      "name": "transferFrom",
      "outputs": [],
      "stateMutability": "nonpayable",
      "type": "function"
    },
    {
      "inputs": [
        {
          "internalType": "address",
          "name": "newOwner",
          "type": "address"
        }
      ],
      "name": "transferOwnership",
      "outputs": [],
      "stateMutability": "nonpayable",
      "type": "function"
    }
  ],
  "bytecode": {
    "object": "0x60806040523480156200001157600080fd5b506200001d3362000035565b600880546001600160a01b0319163017905562000087565b600780546001600160a01b038381166001600160a01b0319831681179093556040519116919082907f8be0079c531659141344cd1fd0a4f28419497f9722a3daafe3b4186f6b6457e090600090a35050565b6148e880620000976000396000f3fe6080604052600436106102465760003560e01c8063715018a611610139578063c41c2f24116100b6578063da9ee8b71161007a578063da9ee8b7146106d0578063df487e26146106e3578063e8a3d48514610703578063e985e9c514610718578063f2fde38b14610738578063f5a38e631461075857600080fd5b8063c41c2f2414610630578063c87b56dd14610650578063ccb4807b14610670578063d3419bf314610690578063d46cf171146106b057600080fd5b8063a22cb465116100fd578063a22cb46514610581578063a51cfd18146105a1578063aa4fb15b146105d0578063b88d4fde146105f0578063bb52b6e41461061057600080fd5b8063715018a6146104f95780638da5cb5b1461050e57806395d89b411461052c578063975057e714610541578063a0bcfc7f1461056157600080fd5b806336c1a93b116101c7578063557e71551161018b578063557e7155146104565780636352211e1461047657806364640c1e146104965780636ac6d941146104ac57806370a08231146104d957600080fd5b806336c1a93b146103ca5780633fafa127146103ea57806342842e0e146104005780634ecba6251461042057806354c6d1f51461043657600080fd5b806323b872dd1161020e57806323b872dd1461031c5780632407497e1461033c578063245a45b51461035c5780632a596e53146103975780632b13c58f146103b757600080fd5b806301ffc9a71461024b57806306fdde0314610280578063081812fc146102a2578063095ea7b3146102da5780631d153ca4146102fc575b600080fd5b34801561025757600080fd5b5061026b6102663660046130d6565b610778565b60405190151581526020015b60405180910390f35b34801561028c57600080fd5b506102956107a3565b6040516102779190613143565b3480156102ae57600080fd5b506102c26102bd366004613156565b610835565b6040516001600160a01b039091168152602001610277565b3480156102e657600080fd5b506102fa6102f5366004613194565b61085c565b005b34801561030857600080fd5b506008546102c2906001600160a01b031681565b34801561032857600080fd5b506102fa6103373660046131c0565b6108e8565b34801561034857600080fd5b506102fa610357366004613201565b61091a565b34801561036857600080fd5b50610389610377366004613201565b600e6020526000908152604090205481565b604051908152602001610277565b3480156103a357600080fd5b506102fa6103b236600461321e565b6109c3565b6102fa6103c53660046132ab565b610a1c565b3480156103d657600080fd5b506102fa6103e536600461332a565b610bf6565b3480156103f657600080fd5b5061038960055481565b34801561040c57600080fd5b506102fa61041b3660046131c0565b610c58565b34801561042c57600080fd5b50610389600d5481565b34801561044257600080fd5b506102c2610451366004613156565b610c73565b34801561046257600080fd5b50600a546102c2906001600160a01b031681565b34801561048257600080fd5b506102c2610491366004613156565b610d1f565b3480156104a257600080fd5b50610389600c5481565b3480156104b857600080fd5b506104cc6104c736600461336b565b610d55565b60405161027791906133fc565b3480156104e557600080fd5b506103896104f4366004613201565b610e9b565b34801561050557600080fd5b506102fa610f11565b34801561051a57600080fd5b506007546001600160a01b03166102c2565b34801561053857600080fd5b50610295610f25565b34801561054d57600080fd5b506009546102c2906001600160a01b031681565b34801561056d57600080fd5b506102fa61057c36600461340f565b610f34565b34801561058d57600080fd5b506102fa61059c366004613487565b610fef565b3480156105ad57600080fd5b506105c16105bc3660046132ab565b610ffe565b604051610277939291906134c0565b3480156105dc57600080fd5b506102fa6105eb366004613532565b61125d565b3480156105fc57600080fd5b506102fa61060b366004613690565b61147a565b34801561061c57600080fd5b506102fa61062b366004613991565b6114ad565b34801561063c57600080fd5b506006546102c2906001600160a01b031681565b34801561065c57600080fd5b5061029561066b366004613156565b611793565b34801561067c57600080fd5b506102fa61068b36600461340f565b6119f1565b34801561069c57600080fd5b50600b546102c2906001600160a01b031681565b3480156106bc57600080fd5b506105c16106cb366004613aca565b611aa4565b6102fa6106de366004613b05565b611b87565b3480156106ef57600080fd5b506102fa6106fe366004613201565b611c3e565b34801561070f57600080fd5b50610295611ce0565b34801561072457600080fd5b5061026b610733366004613b40565b611d56565b34801561074457600080fd5b506102fa610753366004613201565b611d84565b34801561076457600080fd5b506102fa610773366004613b6e565b611e02565b60006001600160e01b03198216631e68505960e31b148061079d575061079d82611fe5565b92915050565b6060600080546107b290613c08565b80601f01602080910402602001604051908101604052809291908181526020018280546107de90613c08565b801561082b5780601f106108005761010080835404028352916020019161082b565b820191906000526020600020905b81548152906001019060200180831161080e57829003601f168201915b5050505050905090565b60006108408261205b565b506000908152600360205260409020546001600160a01b031690565b600061086782610d1f565b9050806001600160a01b0316836001600160a01b03160361089b5760405163133f8be960e01b815260040160405180910390fd5b336001600160a01b038216148015906108bb57506108b98133611d56565b155b156108d95760405163e5fa0e3560e01b815260040160405180910390fd5b6108e38383612090565b505050565b6108f233826120fe565b61090f5760405163e5fa0e3560e01b815260040160405180910390fd5b6108e383838361215d565b610922612236565b60095460405163036129cb60e61b81526001600160a01b0383811660048301529091169063d84a72c090602401600060405180830381600087803b15801561096957600080fd5b505af115801561097d573d6000803e3d6000fd5b50506040513381526001600160a01b03841692507fe7784d93cfbfa4408e19577e6cc0436f4dbb51214b70e100905dfce9def88c1691506020015b60405180910390a250565b8060005b81811015610a165760008484838181106109e3576109e3613c3c565b9050604002018036038101906109f99190613c52565b9050610a0d8160000151826020015161125d565b506001016109c7565b50505050565b34151580610a9e5750600654600554604051636e49181f60e01b815260048101919091523360248201526001600160a01b0390911690636e49181f90604401602060405180830381865afa158015610a78573d6000803e3d6000fd5b505050506040513d601f19601f82011682018060405250810190610a9c9190613cab565b155b80610aaf5750600554816020013514155b15610acd57604051633efca5c360e11b815260040160405180910390fd5b6024610add6101c0830183613cc8565b90501080610b21575063b3bcbb7960e01b610afc6101c0830183613cc8565b610b0b91602491602091613d0e565b610b1491613d38565b6001600160e01b03191614155b15610b3f57604051632a84050f60e01b815260040160405180910390fd5b6000610b4f6101c0830183613cc8565b810190610b5c9190613d68565b925050506000815190506000805b82811015610bec57838181518110610b8457610b84613c3c565b60200260200101519150846000016020810190610ba19190613201565b6000838152600260205260409020546001600160a01b03908116911614610bdb5760405163075fd2b160e01b815260040160405180910390fd5b610be482612290565b600101610b6a565b50610a1683612311565b610bfe612236565b8060005b81811015610a165736848483818110610c1d57610c1d613c3c565b9050602002810190610c2f9190613e16565b9050610c4e610c3e8280613e36565b6104c76040850160208601613201565b5050600101610c02565b6108e38383836040518060200160405280600081525061147a565b6009546040516308ed6c0160e41b81523060048201526024810183905260009182916001600160a01b0390911690638ed6c01090604401602060405180830381865afa158015610cc7573d6000803e3d6000fd5b505050506040513d601f19601f82011682018060405250810190610ceb9190613e8a565b90506001600160a01b03811615610d025792915050565b50506000908152600260205260409020546001600160a01b031690565b6000818152600260205260408120546001600160a01b03168061079d5760405163b49aa3b560e01b815260040160405180910390fd5b6060610d5f612236565b60095460405163eaa19ab360e01b81526001600160a01b039091169063eaa19ab390610d98906000199088908890600190600401613ea7565b6000604051808303816000875af1158015610db7573d6000803e3d6000fd5b505050506040513d6000823e601f3d908101601f19168201604052610ddf9190810190613f6a565b509050826000805b82811015610e9157838181518110610e0157610e01613c3c565b60200260200101519150610e158583612376565b846001600160a01b0316878783818110610e3157610e31613c3c565b9050602002016020810190610e469190613fb0565b604080516000815233602082015261ffff929092169185917f598baf7bf150ca2f42be9e9f8f55e81d45f5715c3ff22bf46d697fabec7f31d6910160405180910390a4600101610de7565b5050509392505050565b600954604051633de222bb60e21b81523060048201526001600160a01b038381166024830152600092169063f7888aec906044015b602060405180830381865afa158015610eed573d6000803e3d6000fd5b505050506040513d601f19601f8201168201806040525081019061079d9190613fcb565b610f19612236565b610f236000612440565b565b6060600180546107b290613c08565b610f3c612236565b6009546040516331315e5960e11b81526001600160a01b0390911690636262bcb290610f6e9085908590600401613fe4565b600060405180830381600087803b158015610f8857600080fd5b505af1158015610f9c573d6000803e3d6000fd5b505050508181604051610fb0929190614013565b604051908190038120338252907f7bc9110d5de090dd59e07912d2b93a5a27ac70a60c8d8e324db4f9ee8b8b5c13906020015b60405180910390a25050565b610ffa338383612492565b5050565b6000606080608084013515611026576040516309f82f1b60e31b815260040160405180910390fd5b60246110366101c0860186613cc8565b9050108061107a575063b3bcbb7960e01b6110556101c0860186613cc8565b61106491602491602091613d0e565b61106d91613d38565b6001600160e01b03191614155b1561109857604051632a84050f60e01b815260040160405180910390fd5b60408051600180825281830190925290816020015b60408051808201909152600080825260208201528152602001906001900390816110ad5790505090506040518060400160405280306001600160a01b0316815260200160008152508160008151811061110857611108613c3c565b602090810291909101015260006111236101c0860186613cc8565b8101906111309190613d68565b9250505060006111408287612531565b9050600061114d876125a5565b905060006111608860c0013584846125d6565b9050612710886101800135036111cb578061117f6101a08a018a613cc8565b8782828080601f016020809104026020016040519081016040528093929190818152602001838380828437600092019190915250969d50919b5091995061125698505050505050505050565b611201816111ea856111e46101808d0135612710614039565b866125d6565b6111f9906101808c013561404c565b6127106125d6565b61120f6101a08a018a613cc8565b8782828080601f016020809104026020016040519081016040528093929190818152602001838380828437600092019190915250969d50919b509199505050505050505050505b9193909250565b600a546005546040516321d1336160e11b815260048101919091526000916001600160a01b0316906343a266c29060240161012060405180830381865afa1580156112ac573d6000803e3d6000fd5b505050506040513d601f19601f820116820180604052508101906112d0919061405f565b61010081015190915060f51c6001908116036112ff57604051631d2c125760e31b815260040160405180910390fd5b600954604051635d53f40760e11b815260048101859052602481018490526000916001600160a01b03169063baa7e80e906044016000604051808303816000875af1158015611352573d6000803e3d6000fd5b505050506040513d6000823e601f3d908101601f1916820160405261137a91908101906140df565b6009546040516304db994760e21b8152306004820152602481018790529192506000916001600160a01b039091169063136e651c90604401602060405180830381865afa1580156113cf573d6000803e3d6000fd5b505050506040513d601f19601f820116820180604052508101906113f39190613e8a565b90506000805b858110156114715783818151811061141357611413613c3c565b602002602001015191506114278383612376565b6040513381526001600160a01b03841690889084907f031e1988c95a91ec4d655ff63a8f87a80bc9daf28d95ae10ee08c0022cfb5c8b9060200160405180910390a46001016113f9565b50505050505050565b61148433836120fe565b6114a15760405163e5fa0e3560e01b815260040160405180910390fd5b610a16848484846126a2565b6008546001600160a01b031630036114c457600080fd5b6009546001600160a01b0316156114da57600080fd5b6114e68b8b8b8b6126d6565b600a80546001600160a01b03808a166001600160a01b031992831617909255600980548584169083161790556020850151600c556040850151600d556060850151600b805491909316911617905585511561159a576040516331315e5960e11b81526001600160a01b03831690636262bcb290611567908990600401613143565b600060405180830381600087803b15801561158157600080fd5b505af1158015611595573d6000803e3d6000fd5b505050505b8351156116005760405163d67b78fd60e01b81526001600160a01b0383169063d67b78fd906115cd908790600401613143565b600060405180830381600087803b1580156115e757600080fd5b505af11580156115fb573d6000803e3d6000fd5b505050505b6001600160a01b0385161561166b5760405163036129cb60e61b81526001600160a01b03868116600483015283169063d84a72c090602401600060405180830381600087803b15801561165257600080fd5b505af1158015611666573d6000803e3d6000fd5b505050505b825151156116e957825160405163eadd8b3760e01b81526001600160a01b0384169163eadd8b37916116a09190600401614113565b6000604051808303816000875af11580156116bf573d6000803e3d6000fd5b505050506040513d6000823e601f3d908101601f191682016040526116e791908101906140df565b505b8051806116f7575080602001515b80611703575080604001515b1561177d576040805163cdb0af6d60e01b815282511515600482015260208301511515602482015290820151151560448201526001600160a01b0383169063cdb0af6d90606401600060405180830381600087803b15801561176457600080fd5b505af1158015611778573d6000803e3d6000fd5b505050505b61178633612440565b5050505050505050505050565b6000818152600260205260409020546060906001600160a01b03166117c657505060408051602081019091526000815290565b600954604051630fab094760e01b81523060048201526000916001600160a01b031690630fab094790602401602060405180830381865afa15801561180f573d6000803e3d6000fd5b505050506040513d601f19601f820116820180604052508101906118339190613e8a565b90506001600160a01b038116156118b857604051636d02a25560e11b8152600481018490526001600160a01b0382169063da0544aa90602401600060405180830381865afa158015611889573d6000803e3d6000fd5b505050506040513d6000823e601f3d908101601f191682016040526118b191908101906141ec565b9392505050565b60095460405163f682eeaf60e01b815230600482015273__$c3160b4fb988d8ee08a6a6b6ca14c57269$__9163030cecc7916001600160a01b039091169063f682eeaf90602401600060405180830381865afa15801561191c573d6000803e3d6000fd5b505050506040513d6000823e601f3d908101601f1916820160405261194491908101906141ec565b600954604051630c8df17160e41b8152306004820152602481018890526001600160a01b039091169063c8df171090604401602060405180830381865afa158015611993573d6000803e3d6000fd5b505050506040513d601f19601f820116820180604052508101906119b79190613fcb565b6040518363ffffffff1660e01b81526004016119d4929190614262565b600060405180830381865af4158015611889573d6000803e3d6000fd5b6119f9612236565b60095460405163d67b78fd60e01b81526001600160a01b039091169063d67b78fd90611a2b9085908590600401613fe4565b600060405180830381600087803b158015611a4557600080fd5b505af1158015611a59573d6000803e3d6000fd5b505050508181604051611a6d929190614013565b604051908190038120338252907fd36dc0c1a06103fdcaf15f3f6fb797d1a97997514c78de073640c8b5005454b890602001610fe3565b610120810135606080611abb610160850185613cc8565b8080601f01602080910402602001604051908101604052809392919081815260200183838082843760009201919091525092945060019250611afb915050565b604051908082528060200260200182016040528015611b4057816020015b6040805180820190915260008082526020820152815260200190600190039081611b195790505b5090506040518060400160405280306001600160a01b03168152602001600081525081600081518110611b7557611b75613c3c565b60200260200101819052509193909250565b60055434151580611c085750600654604051636e49181f60e01b8152600481018390523360248201526001600160a01b0390911690636e49181f90604401602060405180830381865afa158015611be2573d6000803e3d6000fd5b505050506040513d601f19601f82011682018060405250810190611c069190613cab565b155b80611c17575080826020013514155b15611c35576040516331c57b1b60e21b815260040160405180910390fd5b610ffa82612709565b611c46612236565b6009546040516317161f7d60e01b81526001600160a01b038381166004830152909116906317161f7d90602401600060405180830381600087803b158015611c8d57600080fd5b505af1158015611ca1573d6000803e3d6000fd5b50506040513381526001600160a01b03841692507fab0014d4c7a642a02a31b303a318908c22b0fb2001f107278fc6076b4c671b6591506020016109b8565b600954604051630155619b60e71b81523060048201526060916001600160a01b03169063aab0cd8090602401600060405180830381865afa158015611d29573d6000803e3d6000fd5b505050506040513d6000823e601f3d908101601f19168201604052611d5191908101906141ec565b905090565b6001600160a01b03918216600090815260046020908152604080832093909416825291909152205460ff1690565b611d8c612236565b6001600160a01b038116611df65760405162461bcd60e51b815260206004820152602660248201527f4f776e61626c653a206e6577206f776e657220697320746865207a65726f206160448201526564647265737360d01b60648201526084015b60405180910390fd5b611dff81612440565b50565b611e0a612236565b82818015611eda576009546040516320512ba160e01b81526001600160a01b03909116906320512ba190611e449087908790600401614284565b600060405180830381600087803b158015611e5e57600080fd5b505af1158015611e72573d6000803e3d6000fd5b5050505060005b81811015611ed857848482818110611e9357611e93613c3c565b60405133815260209182029390930135927f832d89d991be5351d793c20faf4b7dd44f8aa9ce39e3cb160c6317de6fbba72992500160405180910390a2600101611e79565b505b8115611fdd5760095460405163eadd8b3760e01b81526000916001600160a01b03169063eadd8b3790611f13908a908a9060040161439a565b6000604051808303816000875af1158015611f32573d6000803e3d6000fd5b505050506040513d6000823e601f3d908101601f19168201604052611f5a91908101906140df565b905060005b83811015611fda57818181518110611f7957611f79613c3c565b60200260200101517f85b5b4c4e44e342c8dac3c3a5364494d455043decb9f4bb8e7e0a3020d22fed4898984818110611fb457611fb4613c3c565b9050610140020133604051611fca9291906143dd565b60405180910390a2600101611f5f565b50505b505050505050565b60006001600160e01b0319821663b3bcbb7960e01b148061201657506001600160e01b031982166371700c6960e01b145b8061203157506001600160e01b0319821663da9ee8b760e01b145b8061204c57506001600160e01b03198216632b13c58f60e01b145b8061079d575061079d826129ef565b6000818152600260205260409020546001600160a01b0316611dff5760405163b49aa3b560e01b815260040160405180910390fd5b600081815260036020526040902080546001600160a01b0319166001600160a01b03841690811790915581906120c582610d1f565b6001600160a01b03167f8c5be1e5ebec7d5bd14f71427d1e84f3dd0314c0f7b2291e5b200ac8c7c3b92560405160405180910390a45050565b60008061210a83610d1f565b9050806001600160a01b0316846001600160a01b0316148061213157506121318185611d56565b806121555750836001600160a01b031661214a84610835565b6001600160a01b0316145b949350505050565b826001600160a01b031661217082610d1f565b6001600160a01b0316146121975760405163a195bc5360e01b815260040160405180910390fd5b6001600160a01b0382166121be57604051632c95542760e01b815260040160405180910390fd5b6121c9838383612a3f565b6121d4600082612090565b60008181526002602052604080822080546001600160a01b0319166001600160a01b0386811691821790925591518493918716917fddf252ad1be2c89b69c2b068fc378daa952ba7f163c4a11628f55a4df523b3ef91a46108e3838383612c6c565b6007546001600160a01b03163314610f235760405162461bcd60e51b815260206004820181905260248201527f4f776e61626c653a2063616c6c6572206973206e6f7420746865206f776e65726044820152606401611ded565b600061229b82610d1f565b90506122a981600084612a3f565b6122b4600083612090565b60008281526002602052604080822080546001600160a01b0319169055518391906001600160a01b038416907fddf252ad1be2c89b69c2b068fc378daa952ba7f163c4a11628f55a4df523b3ef908390a4610ffa81600084612c6c565b6009546040516386bc2be360e01b81526001600160a01b03909116906386bc2be3906123419084906004016133fc565b600060405180830381600087803b15801561235b57600080fd5b505af115801561236f573d6000803e3d6000fd5b5050505050565b6001600160a01b03821661239d57604051633904578f60e11b815260040160405180910390fd5b6000818152600260205260409020546001600160a01b0316156123d357604051632eb5f0c360e21b815260040160405180910390fd5b6123df60008383612a3f565b60008181526002602052604080822080546001600160a01b0319166001600160a01b03861690811790915590518392907fddf252ad1be2c89b69c2b068fc378daa952ba7f163c4a11628f55a4df523b3ef908290a4610ffa60008383612c6c565b600780546001600160a01b038381166001600160a01b0319831681179093556040519116919082907f8be0079c531659141344cd1fd0a4f28419497f9722a3daafe3b4186f6b6457e090600090a35050565b816001600160a01b0316836001600160a01b0316036124c4576040516306f8139d60e11b815260040160405180910390fd5b6001600160a01b03838116600081815260046020908152604080832094871680845294825291829020805460ff191686151590811790915591519182527f17307eab39ab6107e8899845ad3d59bd9653f200f220920489ca2b5937696c31910160405180910390a3505050565b60095460405163051330b560e21b81526000916001600160a01b03169063144cc2d4906125649030908790600401614405565b602060405180830381865afa158015612581573d6000803e3d6000fd5b505050506040513d601f19601f820116820180604052508101906118b19190613fcb565b600954604051631572f24960e11b81523060048201526000916001600160a01b031690632ae5e49290602401610ed0565b60008080600019858709858702925082811083820303915050806000036126105783828161260657612606614429565b04925050506118b1565b83811061263a57604051631dcf306360e21b81526004810182905260248101859052604401611ded565b600084868809600260036001881981018916988990049182028318808302840302808302840302808302840302808302840302808302840302918202909203026000889003889004909101858311909403939093029303949094049190911702949350505050565b6126ad84848461215d565b6126b984848484612d59565b610a16576040516336f57c1b60e11b815260040160405180910390fd5b6126e08282612e5b565b5050600591909155600680546001600160a01b0319166001600160a01b03909216919091179055565b600c5460009060c083013503612724575060808101356127da565b600b546001600160a01b031615610ffa57600d546127d79060808401359061274d90600a614523565b600b54600c54604051635268657960e11b815260c08801356004820152602481019190915260a087013560448201526001600160a01b039091169063a4d0caf290606401602060405180830381865afa1580156127ae573d6000803e3d6000fd5b505050506040513d601f19601f820116820180604052508101906127d29190613fcb565b6125d6565b90505b6000600e816127f16101a086016101808701613201565b6001600160a01b0316815260208101919091526040016000908120549150612819828461404c565b9050600080604461282e6101e0880188613cc8565b9050118015612872575063b3bcbb7960e01b61284e6101e0880188613cc8565b61285d91604491604091613d0e565b61286691613d38565b6001600160e01b031916145b1561290f57600060606128896101e0890189613cc8565b810190612896919061452f565b9199509750909550935050831591506128e690505784600e60006128c26101a08c016101808d01613201565b6001600160a01b031681526020810191909152604001600020555050505050505050565b80511561290c5761290985826129046101a08c016101808d01613201565b612e74565b94505b50505b82156129b0576129318361292b6101a089016101808a01613201565b84612fb6565b9250821561298e57801561295857604051631b57826960e21b815260040160405180910390fd5b82600e600061296f6101a08a016101808b01613201565b6001600160a01b03168152602081019190915260400160002055611fdd565b83156129ab576000600e8161296f6101a08a016101808b01613201565b611fdd565b8315611fdd576000600e816129cd6101a08a016101808b01613201565b6001600160a01b03168152602081019190915260400160002055505050505050565b60006001600160e01b031982166380ac58cd60e01b1480612a2057506001600160e01b03198216635b5e139f60e01b145b8061079d57506301ffc9a760e01b6001600160e01b031983161461079d565b6001600160a01b038316156108e35760095460405163b67cb04760e01b8152306004820152602481018390526000916001600160a01b03169063b67cb0479060440161016060405180830381865afa158015612a9f573d6000803e3d6000fd5b505050506040513d601f19601f82011682018060405250810190612ac39190614626565b905080610140015115612b8857600a546005546040516321d1336160e11b815260048101919091526000916001600160a01b0316906343a266c29060240161012060405180830381865afa158015612b1f573d6000803e3d6000fd5b505050506040513d601f19601f82011682018060405250810190612b43919061405f565b90506001600160a01b03841615801590612b68575061010081015160f41c6001908116145b15612b86576040516318cdaf9760e01b815260040160405180910390fd5b505b6009546040516308ed6c0160e41b8152306004820152602481018490526000916001600160a01b031690638ed6c01090604401602060405180830381865afa158015612bd8573d6000803e3d6000fd5b505050506040513d601f19601f82011682018060405250810190612bfc9190613e8a565b6001600160a01b031603610a1657600954604051638cec7d3960e01b8152600481018490526001600160a01b03868116602483015290911690638cec7d3990604401600060405180830381600087803b158015612c5857600080fd5b505af1158015611fda573d6000803e3d6000fd5b60095460405163b67cb04760e01b8152306004820152602481018390526000916001600160a01b03169063b67cb0479060440161016060405180830381865afa158015612cbd573d6000803e3d6000fd5b505050506040513d601f19601f82011682018060405250810190612ce19190614626565b60095481516040516330b157e560e21b815260048101919091526001600160a01b038781166024830152868116604483015292935091169063c2c55f9490606401600060405180830381600087803b158015612d3c57600080fd5b505af1158015612d50573d6000803e3d6000fd5b50505050610a16565b60006001600160a01b0384163b15612e5057604051630a85bd0160e11b81526001600160a01b0385169063150b7a0290612d9d9033908990889088906004016146c8565b6020604051808303816000875af1925050508015612dd8575060408051601f3d908101601f19168201909252612dd591810190614705565b60015b612e36573d808015612e06576040519150601f19603f3d011682016040523d82523d6000602084013e612e0b565b606091505b508051600003612e2e576040516336f57c1b60e11b815260040160405180910390fd5b805181602001fd5b6001600160e01b031916630a85bd0160e11b149050612155565b506001949350505050565b6000612e678382614768565b5060016108e38282614768565b60095460405163eaa19ab360e01b81526000916060916001600160a01b039091169063eaa19ab390612eae90889088908790600401614827565b6000604051808303816000875af1158015612ecd573d6000803e3d6000fd5b505050506040513d6000823e601f3d908101601f19168201604052612ef59190810190613f6a565b81519093509091506000805b82811015612fab57838181518110612f1b57612f1b613c3c565b60200260200101519150612f2f8683612376565b856001600160a01b0316878281518110612f4b57612f4b613c3c565b602002602001015161ffff16837f598baf7bf150ca2f42be9e9f8f55e81d45f5715c3ff22bf46d697fabec7f31d68b33604051612f9b9291909182526001600160a01b0316602082015260400190565b60405180910390a4600101612f01565b505050509392505050565b60095460405163879791f360e01b815260048101859052600091829182916001600160a01b03169063879791f3906024016060604051808303816000875af1158015613006573d6000803e3d6000fd5b505050506040513d601f19601f8201168201806040525081019061302a9190614884565b94509092509050600082900361306057831561305957604051630e5313df60e41b815260040160405180910390fd5b50506118b1565b61306a8583612376565b6001600160a01b03851681837f598baf7bf150ca2f42be9e9f8f55e81d45f5715c3ff22bf46d697fabec7f31d66130a1878b614039565b604080519182523360208301520160405180910390a450509392505050565b6001600160e01b031981168114611dff57600080fd5b6000602082840312156130e857600080fd5b81356118b1816130c0565b60005b8381101561310e5781810151838201526020016130f6565b50506000910152565b6000815180845261312f8160208601602086016130f3565b601f01601f19169290920160200192915050565b6020815260006118b16020830184613117565b60006020828403121561316857600080fd5b5035919050565b6001600160a01b0381168114611dff57600080fd5b803561318f8161316f565b919050565b600080604083850312156131a757600080fd5b82356131b28161316f565b946020939093013593505050565b6000806000606084860312156131d557600080fd5b83356131e08161316f565b925060208401356131f08161316f565b929592945050506040919091013590565b60006020828403121561321357600080fd5b81356118b18161316f565b6000806020838503121561323157600080fd5b82356001600160401b038082111561324857600080fd5b818501915085601f83011261325c57600080fd5b81358181111561326b57600080fd5b8660208260061b850101111561328057600080fd5b60209290920196919550909350505050565b60006101e082840312156132a557600080fd5b50919050565b6000602082840312156132bd57600080fd5b81356001600160401b038111156132d357600080fd5b61215584828501613292565b60008083601f8401126132f157600080fd5b5081356001600160401b0381111561330857600080fd5b6020830191508360208260051b850101111561332357600080fd5b9250929050565b6000806020838503121561333d57600080fd5b82356001600160401b0381111561335357600080fd5b61335f858286016132df565b90969095509350505050565b60008060006040848603121561338057600080fd5b83356001600160401b0381111561339657600080fd5b6133a2868287016132df565b90945092505060208401356133b68161316f565b809150509250925092565b600081518084526020808501945080840160005b838110156133f1578151875295820195908201906001016133d5565b509495945050505050565b6020815260006118b160208301846133c1565b6000806020838503121561342257600080fd5b82356001600160401b038082111561343957600080fd5b818501915085601f83011261344d57600080fd5b81358181111561345c57600080fd5b86602082850101111561328057600080fd5b8015158114611dff57600080fd5b803561318f8161346e565b6000806040838503121561349a57600080fd5b82356134a58161316f565b915060208301356134b58161346e565b809150509250929050565b838152600060206060818401526134da6060840186613117565b83810360408581019190915285518083528387019284019060005b8181101561352357845180516001600160a01b031684528601518684015293850193918301916001016134f5565b50909998505050505050505050565b6000806040838503121561354557600080fd5b50508035926020909101359150565b634e487b7160e01b600052604160045260246000fd5b604051608081016001600160401b038111828210171561358c5761358c613554565b60405290565b60405161014081016001600160401b038111828210171561358c5761358c613554565b60405161012081016001600160401b038111828210171561358c5761358c613554565b60405161016081016001600160401b038111828210171561358c5761358c613554565b604051601f8201601f191681016001600160401b038111828210171561362357613623613554565b604052919050565b60006001600160401b0382111561364457613644613554565b50601f01601f191660200190565b60006136656136608461362b565b6135fb565b905082815283838301111561367957600080fd5b828260208301376000602084830101529392505050565b600080600080608085870312156136a657600080fd5b84356136b18161316f565b935060208501356136c18161316f565b92506040850135915060608501356001600160401b038111156136e357600080fd5b8501601f810187136136f457600080fd5b61370387823560208401613652565b91505092959194509250565b600082601f83011261372057600080fd5b6118b183833560208501613652565b60006001600160401b0382111561374857613748613554565b5060051b60200190565b803569ffffffffffffffffffff8116811461318f57600080fd5b803565ffffffffffff8116811461318f57600080fd5b803564ffffffffff8116811461318f57600080fd5b803561ffff8116811461318f57600080fd5b600060808083850312156137bc57600080fd5b6137c461356a565b915082356001600160401b038111156137dc57600080fd5b8301601f810185136137ed57600080fd5b803560206137fd6136608361372f565b828152610140928302840182019282820191908985111561381d57600080fd5b948301945b848610156138ec5780868b03121561383a5760008081fd5b613842613592565b61384b87613752565b815261385885880161376c565b858201526040613869818901613782565b90820152606061387a888201613797565b90820152613889878901613797565b8882015260a061389a818901613184565b9082015260c0878101359082015260e06138b581890161347c565b908201526101006138c788820161347c565b908201526101206138d988820161347c565b9082015283529485019491830191613822565b5086525085810135908501525050506040808301359082015261391160608301613184565b606082015292915050565b60006060828403121561392e57600080fd5b604051606081018181106001600160401b038211171561395057613950613554565b60405290508082356139618161346e565b815260208301356139718161346e565b602082015260408301356139848161346e565b6040919091015292915050565b60008060008060008060008060008060006101a08c8e0312156139b357600080fd5b8b359a506139c360208d01613184565b99506001600160401b038060408e013511156139de57600080fd5b6139ee8e60408f01358f0161370f565b99508060608e01351115613a0157600080fd5b613a118e60608f01358f0161370f565b9850613a1f60808e01613184565b97508060a08e01351115613a3257600080fd5b613a428e60a08f01358f0161370f565b9650613a5060c08e01613184565b95508060e08e01351115613a6357600080fd5b613a738e60e08f01358f0161370f565b9450806101008e01351115613a8757600080fd5b50613a998d6101008e01358e016137a9565b9250613aa86101208d01613184565b9150613ab88d6101408e0161391c565b90509295989b509295989b9093969950565b600060208284031215613adc57600080fd5b81356001600160401b03811115613af257600080fd5b82016101a081850312156118b157600080fd5b600060208284031215613b1757600080fd5b81356001600160401b03811115613b2d57600080fd5b820161020081850312156118b157600080fd5b60008060408385031215613b5357600080fd5b8235613b5e8161316f565b915060208301356134b58161316f565b60008060008060408587031215613b8457600080fd5b84356001600160401b0380821115613b9b57600080fd5b818701915087601f830112613baf57600080fd5b813581811115613bbe57600080fd5b88602061014083028501011115613bd457600080fd5b602092830196509450908601359080821115613bef57600080fd5b50613bfc878288016132df565b95989497509550505050565b600181811c90821680613c1c57607f821691505b6020821081036132a557634e487b7160e01b600052602260045260246000fd5b634e487b7160e01b600052603260045260246000fd5b600060408284031215613c6457600080fd5b604051604081018181106001600160401b0382111715613c8657613c86613554565b604052823581526020928301359281019290925250919050565b805161318f8161346e565b600060208284031215613cbd57600080fd5b81516118b18161346e565b6000808335601e19843603018112613cdf57600080fd5b8301803591506001600160401b03821115613cf957600080fd5b60200191503681900382131561332357600080fd5b60008085851115613d1e57600080fd5b83861115613d2b57600080fd5b5050820193919092039150565b6001600160e01b03198135818116916004851015613d605780818660040360031b1b83161692505b505092915050565b600080600060608486031215613d7d57600080fd5b83359250602080850135613d90816130c0565b925060408501356001600160401b03811115613dab57600080fd5b8501601f81018713613dbc57600080fd5b8035613dca6136608261372f565b81815260059190911b82018301908381019089831115613de957600080fd5b928401925b82841015613e0757833582529284019290840190613dee565b80955050505050509250925092565b60008235603e19833603018112613e2c57600080fd5b9190910192915050565b6000808335601e19843603018112613e4d57600080fd5b8301803591506001600160401b03821115613e6757600080fd5b6020019150600581901b360382131561332357600080fd5b805161318f8161316f565b600060208284031215613e9c57600080fd5b81516118b18161316f565b84815260606020808301829052908201849052600090859060808401835b87811015613eec5761ffff613ed985613797565b1682529282019290820190600101613ec5565b50809350505050821515604083015295945050505050565b600082601f830112613f1557600080fd5b81516020613f256136608361372f565b82815260059290921b84018101918181019086841115613f4457600080fd5b8286015b84811015613f5f5780518352918301918301613f48565b509695505050505050565b60008060408385031215613f7d57600080fd5b82516001600160401b03811115613f9357600080fd5b613f9f85828601613f04565b925050602083015190509250929050565b600060208284031215613fc257600080fd5b6118b182613797565b600060208284031215613fdd57600080fd5b5051919050565b60208152816020820152818360408301376000818301604090810191909152601f909201601f19160101919050565b8183823760009101908152919050565b634e487b7160e01b600052601160045260246000fd5b8181038181111561079d5761079d614023565b8082018082111561079d5761079d614023565b6000610120828403121561407257600080fd5b61407a6135b5565b825181526020830151602082015260408301516040820152606083015160608201526080830151608082015260a083015160a082015260c083015160c08201526140c660e08401613e7f565b60e0820152610100928301519281019290925250919050565b6000602082840312156140f157600080fd5b81516001600160401b0381111561410757600080fd5b61215584828501613f04565b602080825282518282018190526000919060409081850190868401855b828110156141df578151805169ffffffffffffffffffff1685528681015165ffffffffffff16878601528581015164ffffffffff168686015260608082015161ffff908116918701919091526080808301519091169086015260a0808201516001600160a01b03169086015260c0808201519086015260e08082015115159086015261010080820151151590860152610120908101511515908501526101409093019290850190600101614130565b5091979650505050505050565b6000602082840312156141fe57600080fd5b81516001600160401b0381111561421457600080fd5b8201601f8101841361422557600080fd5b80516142336136608261362b565b81815285602083850101111561424857600080fd5b6142598260208301602086016130f3565b95945050505050565b6040815260006142756040830185613117565b90508260208301529392505050565b6020808252810182905260006001600160fb1b038311156142a457600080fd5b8260051b80856040850137919091016040019392505050565b6142da826142ca83613752565b69ffffffffffffffffffff169052565b6142e66020820161376c565b65ffffffffffff1660208301526142ff60408201613782565b64ffffffffff16604083015261431760608201613797565b61ffff16606083015261432c60808201613797565b61ffff16608083015261434160a08201613184565b6001600160a01b031660a083015260c0818101359083015261436560e0820161347c565b151560e083015261010061437a82820161347c565b15159083015261012061438e82820161347c565b80151584830152610a16565b6020808252810182905260008360408301825b858110156143d3576143bf82846142bd565b6101409283019291909101906001016143ad565b5095945050505050565b61016081016143ec82856142bd565b6001600160a01b03929092166101409190910152919050565b6001600160a01b0383168152604060208201819052600090612155908301846133c1565b634e487b7160e01b600052601260045260246000fd5b600181815b8085111561447a57816000190482111561446057614460614023565b8085161561446d57918102915b93841c9390800290614444565b509250929050565b6000826144915750600161079d565b8161449e5750600061079d565b81600181146144b457600281146144be576144da565b600191505061079d565b60ff8411156144cf576144cf614023565b50506001821b61079d565b5060208310610133831016604e8410600b84101617156144fd575081810a61079d565b614507838361443f565b806000190482111561451b5761451b614023565b029392505050565b60006118b18383614482565b600080600080600080600060e0888a03121561454a57600080fd5b8735965060208089013596506040890135614564816130c0565b955060608901356145748161346e565b945060808901356145848161346e565b935060a08901356145948161346e565b925060c08901356001600160401b038111156145af57600080fd5b8901601f81018b136145c057600080fd5b80356145ce6136608261372f565b81815260059190911b8201830190838101908d8311156145ed57600080fd5b928401925b828410156146125761460384613797565b825292840192908401906145f2565b809550505050505092959891949750929550565b6000610160828403121561463957600080fd5b6146416135d8565b825181526020830151602082015260408301516040820152606083015160608201526080830151608082015260a083015160a082015260c083015160c082015261468d60e08401613e7f565b60e082015261010083810151908201526101206146ab818501613ca0565b908201526101406146bd848201613ca0565b908201529392505050565b6001600160a01b03858116825284166020820152604081018390526080606082018190526000906146fb90830184613117565b9695505050505050565b60006020828403121561471757600080fd5b81516118b1816130c0565b601f8211156108e357600081815260208120601f850160051c810160208610156147495750805b601f850160051c820191505b81811015611fdd57828155600101614755565b81516001600160401b0381111561478157614781613554565b6147958161478f8454613c08565b84614722565b602080601f8311600181146147ca57600084156147b25750858301515b600019600386901b1c1916600185901b178555611fdd565b600085815260208120601f198616915b828110156147f9578886015182559484019460019091019084016147da565b50858210156148175787850151600019600388901b60f8161c191681555b5050505050600190811b01905550565b6000606082018583526020606081850152818651808452608086019150828801935060005b8181101561486c57845161ffff168352938301939183019160010161484c565b50508093505050508215156040830152949350505050565b60008060006060848603121561489957600080fd5b835192506020840151915060408401519050925092509256fea2646970667358221220ebcf19ff4c700dc748e6dbf6225e711d9a6e635ad92dcbcbf918f417d29ad90564736f6c63430008100033",
    "linkReferences": {
      "node_modules/@jbx-protocol/juice-721-delegate/contracts/libraries/JBIpfsDecoder.sol": {
        "JBIpfsDecoder": [
          {
            "start": 6503,
            "length": 20
          }
        ]
      }
    }
  },
  "methodIdentifiers": {
    "adjustTiers((uint80,uint48,uint40,uint16,uint16,address,bytes32,bool,bool,bool)[],uint256[])": "f5a38e63",
    "approve(address,uint256)": "095ea7b3",
    "balanceOf(address)": "70a08231",
    "codeOrigin()": "1d153ca4",
    "contractURI()": "e8a3d485",
    "creditsOf(address)": "245a45b5",
    "didPay((address,uint256,uint256,(address,uint256,uint256,uint256),(address,uint256,uint256,uint256),uint256,address,bool,string,bytes))": "da9ee8b7",
    "didRedeem((address,uint256,uint256,uint256,(address,uint256,uint256,uint256),(address,uint256,uint256,uint256),address,string,bytes))": "2b13c58f",
    "directory()": "c41c2f24",
    "firstOwnerOf(uint256)": "54c6d1f5",
    "fundingCycleStore()": "557e7155",
    "getApproved(uint256)": "081812fc",
    "initialize(uint256,address,string,string,address,string,address,string,((uint80,uint48,uint40,uint16,uint16,address,bytes32,bool,bool,bool)[],uint256,uint256,address),address,(bool,bool,bool))": "bb52b6e4",
    "isApprovedForAll(address,address)": "e985e9c5",
    "mintFor((uint16[],address)[])": "36c1a93b",
    "mintFor(uint16[],address)": "6ac6d941",
    "mintReservesFor((uint256,uint256)[])": "2a596e53",
    "mintReservesFor(uint256,uint256)": "aa4fb15b",
    "name()": "06fdde03",
    "owner()": "8da5cb5b",
    "ownerOf(uint256)": "6352211e",
    "payParams((address,address,(address,uint256,uint256,uint256),uint256,uint256,address,uint256,uint256,string,bytes))": "d46cf171",
    "prices()": "d3419bf3",
    "pricingCurrency()": "64640c1e",
    "pricingDecimals()": "4ecba625",
    "projectId()": "3fafa127",
    "redeemParams((address,address,uint256,uint256,uint256,uint256,uint256,(address,uint256,uint256,uint256),bool,uint256,string,bytes))": "a51cfd18",
    "renounceOwnership()": "715018a6",
    "safeTransferFrom(address,address,uint256)": "42842e0e",
    "safeTransferFrom(address,address,uint256,bytes)": "b88d4fde",
    "setApprovalForAll(address,bool)": "a22cb465",
    "setBaseUri(string)": "a0bcfc7f",
    "setContractUri(string)": "ccb4807b",
    "setDefaultReservedTokenBeneficiary(address)": "df487e26",
    "setTokenUriResolver(address)": "2407497e",
    "store()": "975057e7",
    "supportsInterface(bytes4)": "01ffc9a7",
    "symbol()": "95d89b41",
    "tokenURI(uint256)": "c87b56dd",
    "transferFrom(address,address,uint256)": "23b872dd",
    "transferOwnership(address)": "f2fde38b"
  },
  "id": 29
}