{
  "abi": [
    {
      "inputs": [],
      "stateMutability": "nonpayable",
      "type": "constructor"
    },
    {
      "inputs": [],
      "name": "ALEADY_MINTED",
      "type": "error"
    },
    {
      "inputs": [],
      "name": "APPROVAL_TO_CURRENT_OWNER",
      "type": "error"
    },
    {
      "inputs": [],
      "name": "APPROVE_TO_CALLER",
      "type": "error"
    },
    {
      "inputs": [],
      "name": "CALLER_NOT_OWNER_OR_APPROVED",
      "type": "error"
    },
    {
      "inputs": [],
      "name": "INCORRECT_OWNER",
      "type": "error"
    },
    {
      "inputs": [],
      "name": "INVALID_PAYMENT_EVENT",
      "type": "error"
    },
    {
      "inputs": [],
      "name": "INVALID_REDEMPTION_EVENT",
      "type": "error"
    },
    {
      "inputs": [],
      "name": "INVALID_REDEMPTION_METADATA",
      "type": "error"
    },
    {
      "inputs": [],
      "name": "INVALID_TOKEN_ID",
      "type": "error"
    },
    {
      "inputs": [],
      "name": "MINT_TO_ZERO",
      "type": "error"
    },
    {
      "inputs": [],
      "name": "NOT_AVAILABLE",
      "type": "error"
    },
    {
      "inputs": [],
      "name": "OVERSPENDING",
      "type": "error"
    },
    {
      "inputs": [
        {
          "internalType": "uint256",
          "name": "prod1",
          "type": "uint256"
        },
        {
          "internalType": "uint256",
          "name": "denominator",
          "type": "uint256"
        }
      ],
      "name": "PRBMath__MulDivOverflow",
      "type": "error"
    },
    {
      "inputs": [],
      "name": "PRICING_RESOLVER_CHANGES_PAUSED",
      "type": "error"
    },
    {
      "inputs": [],
      "name": "RESERVED_TOKEN_MINTING_PAUSED",
      "type": "error"
    },
    {
      "inputs": [],
      "name": "TRANSFERS_PAUSED",
      "type": "error"
    },
    {
      "inputs": [],
      "name": "TRANSFER_TO_NON_IMPLEMENTER",
      "type": "error"
    },
    {
      "inputs": [],
      "name": "TRANSFER_TO_ZERO_ADDRESS",
      "type": "error"
    },
    {
      "inputs": [],
      "name": "UNAUTHORIZED",
      "type": "error"
    },
    {
      "inputs": [],
      "name": "UNEXPECTED_TOKEN_REDEEMED",
      "type": "error"
    },
    {
      "anonymous": false,
      "inputs": [
        {
          "indexed": true,
          "internalType": "uint256",
          "name": "tierId",
          "type": "uint256"
        },
        {
          "components": [
            {
              "internalType": "uint80",
              "name": "contributionFloor",
              "type": "uint80"
            },
            {
              "internalType": "uint48",
              "name": "lockedUntil",
              "type": "uint48"
            },
            {
              "internalType": "uint40",
              "name": "initialQuantity",
              "type": "uint40"
            },
            {
              "internalType": "uint16",
              "name": "votingUnits",
              "type": "uint16"
            },
            {
              "internalType": "uint16",
              "name": "reservedRate",
              "type": "uint16"
            },
            {
              "internalType": "address",
              "name": "reservedTokenBeneficiary",
              "type": "address"
            },
            {
              "internalType": "bytes32",
              "name": "encodedIPFSUri",
              "type": "bytes32"
            },
            {
              "internalType": "bool",
              "name": "allowManualMint",
              "type": "bool"
            },
            {
              "internalType": "bool",
              "name": "shouldUseBeneficiaryAsDefault",
              "type": "bool"
            },
            {
              "internalType": "bool",
              "name": "transfersPausable",
              "type": "bool"
            }
          ],
          "indexed": false,
          "internalType": "struct JB721TierParams",
          "name": "data",
          "type": "tuple"
        },
        {
          "indexed": false,
          "internalType": "address",
          "name": "caller",
          "type": "address"
        }
      ],
      "name": "AddTier",
      "type": "event"
    },
    {
      "anonymous": false,
      "inputs": [
        {
          "indexed": true,
          "internalType": "address",
          "name": "owner",
          "type": "address"
        },
        {
          "indexed": true,
          "internalType": "address",
          "name": "approved",
          "type": "address"
        },
        {
          "indexed": true,
          "internalType": "uint256",
          "name": "tokenId",
          "type": "uint256"
        }
      ],
      "name": "Approval",
      "type": "event"
    },
    {
      "anonymous": false,
      "inputs": [
        {
          "indexed": true,
          "internalType": "address",
          "name": "owner",
          "type": "address"
        },
        {
          "indexed": true,
          "internalType": "address",
          "name": "operator",
          "type": "address"
        },
        {
          "indexed": false,
          "internalType": "bool",
          "name": "approved",
          "type": "bool"
        }
      ],
      "name": "ApprovalForAll",
      "type": "event"
    },
    {
      "anonymous": false,
      "inputs": [
        {
          "indexed": true,
          "internalType": "uint256",
          "name": "tokenId",
          "type": "uint256"
        },
        {
          "indexed": true,
          "internalType": "uint256",
          "name": "tierId",
          "type": "uint256"
        },
        {
          "indexed": true,
          "internalType": "address",
          "name": "beneficiary",
          "type": "address"
        },
        {
          "indexed": false,
          "internalType": "uint256",
          "name": "totalAmountContributed",
          "type": "uint256"
        },
        {
          "indexed": false,
          "internalType": "address",
          "name": "caller",
          "type": "address"
        }
      ],
      "name": "Mint",
      "type": "event"
    },
    {
      "anonymous": false,
      "inputs": [
        {
          "indexed": true,
          "internalType": "uint256",
          "name": "tokenId",
          "type": "uint256"
        },
        {
          "indexed": true,
          "internalType": "uint256",
          "name": "tierId",
          "type": "uint256"
        },
        {
          "indexed": true,
          "internalType": "address",
          "name": "beneficiary",
          "type": "address"
        },
        {
          "indexed": false,
          "internalType": "address",
          "name": "caller",
          "type": "address"
        }
      ],
      "name": "MintReservedToken",
      "type": "event"
    },
    {
      "anonymous": false,
      "inputs": [
        {
          "indexed": true,
          "internalType": "address",
          "name": "previousOwner",
          "type": "address"
        },
        {
          "indexed": true,
          "internalType": "address",
          "name": "newOwner",
          "type": "address"
        }
      ],
      "name": "OwnershipTransferred",
      "type": "event"
    },
    {
      "anonymous": false,
      "inputs": [
        {
          "indexed": true,
          "internalType": "uint256",
          "name": "tierId",
          "type": "uint256"
        },
        {
          "indexed": false,
          "internalType": "address",
          "name": "caller",
          "type": "address"
        }
      ],
      "name": "RemoveTier",
      "type": "event"
    },
    {
      "anonymous": false,
      "inputs": [
        {
          "indexed": true,
          "internalType": "string",
          "name": "baseUri",
          "type": "string"
        },
        {
          "indexed": false,
          "internalType": "address",
          "name": "caller",
          "type": "address"
        }
      ],
      "name": "SetBaseUri",
      "type": "event"
    },
    {
      "anonymous": false,
      "inputs": [
        {
          "indexed": true,
          "internalType": "string",
          "name": "contractUri",
          "type": "string"
        },
        {
          "indexed": false,
          "internalType": "address",
          "name": "caller",
          "type": "address"
        }
      ],
      "name": "SetContractUri",
      "type": "event"
    },
    {
      "anonymous": false,
      "inputs": [
        {
          "indexed": true,
          "internalType": "address",
          "name": "beneficiary",
          "type": "address"
        },
        {
          "indexed": false,
          "internalType": "address",
          "name": "caller",
          "type": "address"
        }
      ],
      "name": "SetDefaultReservedTokenBeneficiary",
      "type": "event"
    },
    {
      "anonymous": false,
      "inputs": [
        {
          "indexed": true,
          "internalType": "contract IJBTokenUriResolver",
          "name": "newResolver",
          "type": "address"
        },
        {
          "indexed": false,
          "internalType": "address",
          "name": "caller",
          "type": "address"
        }
      ],
      "name": "SetTokenUriResolver",
      "type": "event"
    },
    {
      "anonymous": false,
      "inputs": [
        {
          "indexed": true,
          "internalType": "address",
          "name": "from",
          "type": "address"
        },
        {
          "indexed": true,
          "internalType": "address",
          "name": "to",
          "type": "address"
        },
        {
          "indexed": true,
          "internalType": "uint256",
          "name": "tokenId",
          "type": "uint256"
        }
      ],
      "name": "Transfer",
      "type": "event"
    },
    {
      "inputs": [
        {
          "components": [
            {
              "internalType": "uint80",
              "name": "contributionFloor",
              "type": "uint80"
            },
            {
              "internalType": "uint48",
              "name": "lockedUntil",
              "type": "uint48"
            },
            {
              "internalType": "uint40",
              "name": "initialQuantity",
              "type": "uint40"
            },
            {
              "internalType": "uint16",
              "name": "votingUnits",
              "type": "uint16"
            },
            {
              "internalType": "uint16",
              "name": "reservedRate",
              "type": "uint16"
            },
            {
              "internalType": "address",
              "name": "reservedTokenBeneficiary",
              "type": "address"
            },
            {
              "internalType": "bytes32",
              "name": "encodedIPFSUri",
              "type": "bytes32"
            },
            {
              "internalType": "bool",
              "name": "allowManualMint",
              "type": "bool"
            },
            {
              "internalType": "bool",
              "name": "shouldUseBeneficiaryAsDefault",
              "type": "bool"
            },
            {
              "internalType": "bool",
              "name": "transfersPausable",
              "type": "bool"
            }
          ],
          "internalType": "struct JB721TierParams[]",
          "name": "_tiersToAdd",
          "type": "tuple[]"
        },
        {
          "internalType": "uint256[]",
          "name": "_tierIdsToRemove",
          "type": "uint256[]"
        }
      ],
      "name": "adjustTiers",
      "outputs": [],
      "stateMutability": "nonpayable",
      "type": "function"
    },
    {
      "inputs": [
        {
          "internalType": "address",
          "name": "to",
          "type": "address"
        },
        {
          "internalType": "uint256",
          "name": "tokenId",
          "type": "uint256"
        }
      ],
      "name": "approve",
      "outputs": [],
      "stateMutability": "nonpayable",
      "type": "function"
    },
    {
      "inputs": [
        {
          "internalType": "address",
          "name": "_owner",
          "type": "address"
        }
      ],
      "name": "balanceOf",
      "outputs": [
        {
          "internalType": "uint256",
          "name": "balance",
          "type": "uint256"
        }
      ],
      "stateMutability": "view",
      "type": "function"
    },
    {
      "inputs": [],
      "name": "codeOrigin",
      "outputs": [
        {
          "internalType": "address",
          "name": "",
          "type": "address"
        }
      ],
      "stateMutability": "view",
      "type": "function"
    },
    {
      "inputs": [],
      "name": "contractURI",
      "outputs": [
        {
          "internalType": "string",
          "name": "",
          "type": "string"
        }
      ],
      "stateMutability": "view",
      "type": "function"
    },
    {
      "inputs": [
        {
          "internalType": "address",
          "name": "",
          "type": "address"
        }
      ],
      "name": "creditsOf",
      "outputs": [
        {
          "internalType": "uint256",
          "name": "",
          "type": "uint256"
        }
      ],
      "stateMutability": "view",
      "type": "function"
    },
    {
      "inputs": [
        {
          "components": [
            {
              "internalType": "address",
              "name": "payer",
              "type": "address"
            },
            {
              "internalType": "uint256",
              "name": "projectId",
              "type": "uint256"
            },
            {
              "internalType": "uint256",
              "name": "currentFundingCycleConfiguration",
              "type": "uint256"
            },
            {
              "components": [
                {
                  "internalType": "address",
                  "name": "token",
                  "type": "address"
                },
                {
                  "internalType": "uint256",
                  "name": "value",
                  "type": "uint256"
                },
                {
                  "internalType": "uint256",
                  "name": "decimals",
                  "type": "uint256"
                },
                {
                  "internalType": "uint256",
                  "name": "currency",
                  "type": "uint256"
                }
              ],
              "internalType": "struct JBTokenAmount",
              "name": "amount",
              "type": "tuple"
            },
            {
              "components": [
                {
                  "internalType": "address",
                  "name": "token",
                  "type": "address"
                },
                {
                  "internalType": "uint256",
                  "name": "value",
                  "type": "uint256"
                },
                {
                  "internalType": "uint256",
                  "name": "decimals",
                  "type": "uint256"
                },
                {
                  "internalType": "uint256",
                  "name": "currency",
                  "type": "uint256"
                }
              ],
              "internalType": "struct JBTokenAmount",
              "name": "forwardedAmount",
              "type": "tuple"
            },
            {
              "internalType": "uint256",
              "name": "projectTokenCount",
              "type": "uint256"
            },
            {
              "internalType": "address",
              "name": "beneficiary",
              "type": "address"
            },
            {
              "internalType": "bool",
              "name": "preferClaimedTokens",
              "type": "bool"
            },
            {
              "internalType": "string",
              "name": "memo",
              "type": "string"
            },
            {
              "internalType": "bytes",
              "name": "metadata",
              "type": "bytes"
            }
          ],
          "internalType": "struct JBDidPayData",
          "name": "_data",
          "type": "tuple"
        }
      ],
      "name": "didPay",
      "outputs": [],
      "stateMutability": "payable",
      "type": "function"
    },
    {
      "inputs": [
        {
          "components": [
            {
              "internalType": "address",
              "name": "holder",
              "type": "address"
            },
            {
              "internalType": "uint256",
              "name": "projectId",
              "type": "uint256"
            },
            {
              "internalType": "uint256",
              "name": "currentFundingCycleConfiguration",
              "type": "uint256"
            },
            {
              "internalType": "uint256",
              "name": "projectTokenCount",
              "type": "uint256"
            },
            {
              "components": [
                {
                  "internalType": "address",
                  "name": "token",
                  "type": "address"
                },
                {
                  "internalType": "uint256",
                  "name": "value",
                  "type": "uint256"
                },
                {
                  "internalType": "uint256",
                  "name": "decimals",
                  "type": "uint256"
                },
                {
                  "internalType": "uint256",
                  "name": "currency",
                  "type": "uint256"
                }
              ],
              "internalType": "struct JBTokenAmount",
              "name": "reclaimedAmount",
              "type": "tuple"
            },
            {
              "components": [
                {
                  "internalType": "address",
                  "name": "token",
                  "type": "address"
                },
                {
                  "internalType": "uint256",
                  "name": "value",
                  "type": "uint256"
                },
                {
                  "internalType": "uint256",
                  "name": "decimals",
                  "type": "uint256"
                },
                {
                  "internalType": "uint256",
                  "name": "currency",
                  "type": "uint256"
                }
              ],
              "internalType": "struct JBTokenAmount",
              "name": "forwardedAmount",
              "type": "tuple"
            },
            {
              "internalType": "address payable",
              "name": "beneficiary",
              "type": "address"
            },
            {
              "internalType": "string",
              "name": "memo",
              "type": "string"
            },
            {
              "internalType": "bytes",
              "name": "metadata",
              "type": "bytes"
            }
          ],
          "internalType": "struct JBDidRedeemData",
          "name": "_data",
          "type": "tuple"
        }
      ],
      "name": "didRedeem",
      "outputs": [],
      "stateMutability": "payable",
      "type": "function"
    },
    {
      "inputs": [],
      "name": "directory",
      "outputs": [
        {
          "internalType": "contract IJBDirectory",
          "name": "",
          "type": "address"
        }
      ],
      "stateMutability": "view",
      "type": "function"
    },
    {
      "inputs": [
        {
          "internalType": "uint256",
          "name": "_tokenId",
          "type": "uint256"
        }
      ],
      "name": "firstOwnerOf",
      "outputs": [
        {
          "internalType": "address",
          "name": "",
          "type": "address"
        }
      ],
      "stateMutability": "view",
      "type": "function"
    },
    {
      "inputs": [],
      "name": "fundingCycleStore",
      "outputs": [
        {
          "internalType": "contract IJBFundingCycleStore",
          "name": "",
          "type": "address"
        }
      ],
      "stateMutability": "view",
      "type": "function"
    },
    {
      "inputs": [
        {
          "internalType": "uint256",
          "name": "tokenId",
          "type": "uint256"
        }
      ],
      "name": "getApproved",
      "outputs": [
        {
          "internalType": "address",
          "name": "",
          "type": "address"
        }
      ],
      "stateMutability": "view",
      "type": "function"
    },
    {
      "inputs": [
        {
          "internalType": "uint256",
          "name": "_projectId",
          "type": "uint256"
        },
        {
          "internalType": "contract IJBDirectory",
          "name": "_directory",
          "type": "address"
        },
        {
          "internalType": "string",
          "name": "_name",
          "type": "string"
        },
        {
          "internalType": "string",
          "name": "_symbol",
          "type": "string"
        },
        {
          "internalType": "contract IJBFundingCycleStore",
          "name": "_fundingCycleStore",
          "type": "address"
        },
        {
          "internalType": "string",
          "name": "_baseUri",
          "type": "string"
        },
        {
          "internalType": "contract IJBTokenUriResolver",
          "name": "_tokenUriResolver",
          "type": "address"
        },
        {
          "internalType": "string",
          "name": "_contractUri",
          "type": "string"
        },
        {
          "components": [
            {
              "components": [
                {
                  "internalType": "uint80",
                  "name": "contributionFloor",
                  "type": "uint80"
                },
                {
                  "internalType": "uint48",
                  "name": "lockedUntil",
                  "type": "uint48"
                },
                {
                  "internalType": "uint40",
                  "name": "initialQuantity",
                  "type": "uint40"
                },
                {
                  "internalType": "uint16",
                  "name": "votingUnits",
                  "type": "uint16"
                },
                {
                  "internalType": "uint16",
                  "name": "reservedRate",
                  "type": "uint16"
                },
                {
                  "internalType": "address",
                  "name": "reservedTokenBeneficiary",
                  "type": "address"
                },
                {
                  "internalType": "bytes32",
                  "name": "encodedIPFSUri",
                  "type": "bytes32"
                },
                {
                  "internalType": "bool",
                  "name": "allowManualMint",
                  "type": "bool"
                },
                {
                  "internalType": "bool",
                  "name": "shouldUseBeneficiaryAsDefault",
                  "type": "bool"
                },
                {
                  "internalType": "bool",
                  "name": "transfersPausable",
                  "type": "bool"
                }
              ],
              "internalType": "struct JB721TierParams[]",
              "name": "tiers",
              "type": "tuple[]"
            },
            {
              "internalType": "uint256",
              "name": "currency",
              "type": "uint256"
            },
            {
              "internalType": "uint256",
              "name": "decimals",
              "type": "uint256"
            },
            {
              "internalType": "contract IJBPrices",
              "name": "prices",
              "type": "address"
            }
          ],
          "internalType": "struct JB721PricingParams",
          "name": "_pricing",
          "type": "tuple"
        },
        {
          "internalType": "contract IJBTiered721DelegateStore",
          "name": "_store",
          "type": "address"
        },
        {
          "components": [
            {
              "internalType": "bool",
              "name": "lockReservedTokenChanges",
              "type": "bool"
            },
            {
              "internalType": "bool",
              "name": "lockVotingUnitChanges",
              "type": "bool"
            },
            {
              "internalType": "bool",
              "name": "lockManualMintingChanges",
              "type": "bool"
            }
          ],
          "internalType": "struct JBTiered721Flags",
          "name": "_flags",
          "type": "tuple"
        }
      ],
      "name": "initialize",
      "outputs": [],
      "stateMutability": "nonpayable",
      "type": "function"
    },
    {
      "inputs": [
        {
          "internalType": "address",
          "name": "owner",
          "type": "address"
        },
        {
          "internalType": "address",
          "name": "operator",
          "type": "address"
        }
      ],
      "name": "isApprovedForAll",
      "outputs": [
        {
          "internalType": "bool",
          "name": "",
          "type": "bool"
        }
      ],
      "stateMutability": "view",
      "type": "function"
    },
    {
      "inputs": [
        {
          "components": [
            {
              "internalType": "uint16[]",
              "name": "tierIds",
              "type": "uint16[]"
            },
            {
              "internalType": "address",
              "name": "beneficiary",
              "type": "address"
            }
          ],
          "internalType": "struct JBTiered721MintForTiersData[]",
          "name": "_mintForTiersData",
          "type": "tuple[]"
        }
      ],
      "name": "mintFor",
      "outputs": [],
      "stateMutability": "nonpayable",
      "type": "function"
    },
    {
      "inputs": [
        {
          "internalType": "uint16[]",
          "name": "_tierIds",
          "type": "uint16[]"
        },
        {
          "internalType": "address",
          "name": "_beneficiary",
          "type": "address"
        }
      ],
      "name": "mintFor",
      "outputs": [
        {
          "internalType": "uint256[]",
          "name": "tokenIds",
          "type": "uint256[]"
        }
      ],
      "stateMutability": "nonpayable",
      "type": "function"
    },
    {
      "inputs": [
        {
          "components": [
            {
              "internalType": "uint256",
              "name": "tierId",
              "type": "uint256"
            },
            {
              "internalType": "uint256",
              "name": "count",
              "type": "uint256"
            }
          ],
          "internalType": "struct JBTiered721MintReservesForTiersData[]",
          "name": "_mintReservesForTiersData",
          "type": "tuple[]"
        }
      ],
      "name": "mintReservesFor",
      "outputs": [],
      "stateMutability": "nonpayable",
      "type": "function"
    },
    {
      "inputs": [
        {
          "internalType": "uint256",
          "name": "_tierId",
          "type": "uint256"
        },
        {
          "internalType": "uint256",
          "name": "_count",
          "type": "uint256"
        }
      ],
      "name": "mintReservesFor",
      "outputs": [],
      "stateMutability": "nonpayable",
      "type": "function"
    },
    {
      "inputs": [],
      "name": "name",
      "outputs": [
        {
          "internalType": "string",
          "name": "",
          "type": "string"
        }
      ],
      "stateMutability": "view",
      "type": "function"
    },
    {
      "inputs": [],
      "name": "owner",
      "outputs": [
        {
          "internalType": "address",
          "name": "",
          "type": "address"
        }
      ],
      "stateMutability": "view",
      "type": "function"
    },
    {
      "inputs": [
        {
          "internalType": "uint256",
          "name": "tokenId",
          "type": "uint256"
        }
      ],
      "name": "ownerOf",
      "outputs": [
        {
          "internalType": "address",
          "name": "",
          "type": "address"
        }
      ],
      "stateMutability": "view",
      "type": "function"
    },
    {
      "inputs": [
        {
          "components": [
            {
              "internalType": "contract IJBPaymentTerminal",
              "name": "terminal",
              "type": "address"
            },
            {
              "internalType": "address",
              "name": "payer",
              "type": "address"
            },
            {
              "components": [
                {
                  "internalType": "address",
                  "name": "token",
                  "type": "address"
                },
                {
                  "internalType": "uint256",
                  "name": "value",
                  "type": "uint256"
                },
                {
                  "internalType": "uint256",
                  "name": "decimals",
                  "type": "uint256"
                },
                {
                  "internalType": "uint256",
                  "name": "currency",
                  "type": "uint256"
                }
              ],
              "internalType": "struct JBTokenAmount",
              "name": "amount",
              "type": "tuple"
            },
            {
              "internalType": "uint256",
              "name": "projectId",
              "type": "uint256"
            },
            {
              "internalType": "uint256",
              "name": "currentFundingCycleConfiguration",
              "type": "uint256"
            },
            {
              "internalType": "address",
              "name": "beneficiary",
              "type": "address"
            },
            {
              "internalType": "uint256",
              "name": "weight",
              "type": "uint256"
            },
            {
              "internalType": "uint256",
              "name": "reservedRate",
              "type": "uint256"
            },
            {
              "internalType": "string",
              "name": "memo",
              "type": "string"
            },
            {
              "internalType": "bytes",
              "name": "metadata",
              "type": "bytes"
            }
          ],
          "internalType": "struct JBPayParamsData",
          "name": "_data",
          "type": "tuple"
        }
      ],
      "name": "payParams",
      "outputs": [
        {
          "internalType": "uint256",
          "name": "weight",
          "type": "uint256"
        },
        {
          "internalType": "string",
          "name": "memo",
          "type": "string"
        },
        {
          "components": [
            {
              "internalType": "contract IJBPayDelegate",
              "name": "delegate",
              "type": "address"
            },
            {
              "internalType": "uint256",
              "name": "amount",
              "type": "uint256"
            }
          ],
          "internalType": "struct JBPayDelegateAllocation[]",
          "name": "delegateAllocations",
          "type": "tuple[]"
        }
      ],
      "stateMutability": "view",
      "type": "function"
    },
    {
      "inputs": [],
      "name": "prices",
      "outputs": [
        {
          "internalType": "contract IJBPrices",
          "name": "",
          "type": "address"
        }
      ],
      "stateMutability": "view",
      "type": "function"
    },
    {
      "inputs": [],
      "name": "pricingCurrency",
      "outputs": [
        {
          "internalType": "uint256",
          "name": "",
          "type": "uint256"
        }
      ],
      "stateMutability": "view",
      "type": "function"
    },
    {
      "inputs": [],
      "name": "pricingDecimals",
      "outputs": [
        {
          "internalType": "uint256",
          "name": "",
          "type": "uint256"
        }
      ],
      "stateMutability": "view",
      "type": "function"
    },
    {
      "inputs": [],
      "name": "projectId",
      "outputs": [
        {
          "internalType": "uint256",
          "name": "",
          "type": "uint256"
        }
      ],
      "stateMutability": "view",
      "type": "function"
    },
    {
      "inputs": [
        {
          "components": [
            {
              "internalType": "contract IJBPaymentTerminal",
              "name": "terminal",
              "type": "address"
            },
            {
              "internalType": "address",
              "name": "holder",
              "type": "address"
            },
            {
              "internalType": "uint256",
              "name": "projectId",
              "type": "uint256"
            },
            {
              "internalType": "uint256",
              "name": "currentFundingCycleConfiguration",
              "type": "uint256"
            },
            {
              "internalType": "uint256",
              "name": "tokenCount",
              "type": "uint256"
            },
            {
              "internalType": "uint256",
              "name": "totalSupply",
              "type": "uint256"
            },
            {
              "internalType": "uint256",
              "name": "overflow",
              "type": "uint256"
            },
            {
              "components": [
                {
                  "internalType": "address",
                  "name": "token",
                  "type": "address"
                },
                {
                  "internalType": "uint256",
                  "name": "value",
                  "type": "uint256"
                },
                {
                  "internalType": "uint256",
                  "name": "decimals",
                  "type": "uint256"
                },
                {
                  "internalType": "uint256",
                  "name": "currency",
                  "type": "uint256"
                }
              ],
              "internalType": "struct JBTokenAmount",
              "name": "reclaimAmount",
              "type": "tuple"
            },
            {
              "internalType": "bool",
              "name": "useTotalOverflow",
              "type": "bool"
            },
            {
              "internalType": "uint256",
              "name": "redemptionRate",
              "type": "uint256"
            },
            {
              "internalType": "string",
              "name": "memo",
              "type": "string"
            },
            {
              "internalType": "bytes",
              "name": "metadata",
              "type": "bytes"
            }
          ],
          "internalType": "struct JBRedeemParamsData",
          "name": "_data",
          "type": "tuple"
        }
      ],
      "name": "redeemParams",
      "outputs": [
        {
          "internalType": "uint256",
          "name": "reclaimAmount",
          "type": "uint256"
        },
        {
          "internalType": "string",
          "name": "memo",
          "type": "string"
        },
        {
          "components": [
            {
              "internalType": "contract IJBRedemptionDelegate",
              "name": "delegate",
              "type": "address"
            },
            {
              "internalType": "uint256",
              "name": "amount",
              "type": "uint256"
            }
          ],
          "internalType": "struct JBRedemptionDelegateAllocation[]",
          "name": "delegateAllocations",
          "type": "tuple[]"
        }
      ],
      "stateMutability": "view",
      "type": "function"
    },
    {
      "inputs": [],
      "name": "renounceOwnership",
      "outputs": [],
      "stateMutability": "nonpayable",
      "type": "function"
    },
    {
      "inputs": [
        {
          "internalType": "address",
          "name": "from",
          "type": "address"
        },
        {
          "internalType": "address",
          "name": "to",
          "type": "address"
        },
        {
          "internalType": "uint256",
          "name": "tokenId",
          "type": "uint256"
        }
      ],
      "name": "safeTransferFrom",
      "outputs": [],
      "stateMutability": "nonpayable",
      "type": "function"
    },
    {
      "inputs": [
        {
          "internalType": "address",
          "name": "from",
          "type": "address"
        },
        {
          "internalType": "address",
          "name": "to",
          "type": "address"
        },
        {
          "internalType": "uint256",
          "name": "tokenId",
          "type": "uint256"
        },
        {
          "internalType": "bytes",
          "name": "data",
          "type": "bytes"
        }
      ],
      "name": "safeTransferFrom",
      "outputs": [],
      "stateMutability": "nonpayable",
      "type": "function"
    },
    {
      "inputs": [
        {
          "internalType": "address",
          "name": "operator",
          "type": "address"
        },
        {
          "internalType": "bool",
          "name": "approved",
          "type": "bool"
        }
      ],
      "name": "setApprovalForAll",
      "outputs": [],
      "stateMutability": "nonpayable",
      "type": "function"
    },
    {
      "inputs": [
        {
          "internalType": "string",
          "name": "_baseUri",
          "type": "string"
        }
      ],
      "name": "setBaseUri",
      "outputs": [],
      "stateMutability": "nonpayable",
      "type": "function"
    },
    {
      "inputs": [
        {
          "internalType": "string",
          "name": "_contractUri",
          "type": "string"
        }
      ],
      "name": "setContractUri",
      "outputs": [],
      "stateMutability": "nonpayable",
      "type": "function"
    },
    {
      "inputs": [
        {
          "internalType": "address",
          "name": "_beneficiary",
          "type": "address"
        }
      ],
      "name": "setDefaultReservedTokenBeneficiary",
      "outputs": [],
      "stateMutability": "nonpayable",
      "type": "function"
    },
    {
      "inputs": [
        {
          "internalType": "contract IJBTokenUriResolver",
          "name": "_tokenUriResolver",
          "type": "address"
        }
      ],
      "name": "setTokenUriResolver",
      "outputs": [],
      "stateMutability": "nonpayable",
      "type": "function"
    },
    {
      "inputs": [],
      "name": "store",
      "outputs": [
        {
          "internalType": "contract IJBTiered721DelegateStore",
          "name": "",
          "type": "address"
        }
      ],
      "stateMutability": "view",
      "type": "function"
    },
    {
      "inputs": [
        {
          "internalType": "bytes4",
          "name": "_interfaceId",
          "type": "bytes4"
        }
      ],
      "name": "supportsInterface",
      "outputs": [
        {
          "internalType": "bool",
          "name": "",
          "type": "bool"
        }
      ],
      "stateMutability": "view",
      "type": "function"
    },
    {
      "inputs": [],
      "name": "symbol",
      "outputs": [
        {
          "internalType": "string",
          "name": "",
          "type": "string"
        }
      ],
      "stateMutability": "view",
      "type": "function"
    },
    {
      "inputs": [
        {
          "internalType": "uint256",
          "name": "_tokenId",
          "type": "uint256"
        }
      ],
      "name": "tokenURI",
      "outputs": [
        {
          "internalType": "string",
          "name": "",
          "type": "string"
        }
      ],
      "stateMutability": "view",
      "type": "function"
    },
    {
      "inputs": [
        {
          "internalType": "address",
          "name": "from",
          "type": "address"
        },
        {
          "internalType": "address",
          "name": "to",
          "type": "address"
        },
        {
          "internalType": "uint256",
          "name": "tokenId",
          "type": "uint256"
        }
      ],
      "name": "transferFrom",
      "outputs": [],
      "stateMutability": "nonpayable",
      "type": "function"
    },
    {
      "inputs": [
        {
          "internalType": "address",
          "name": "newOwner",
          "type": "address"
        }
      ],
      "name": "transferOwnership",
      "outputs": [],
      "stateMutability": "nonpayable",
      "type": "function"
    }
  ],
  "bytecode": {
    "object": "0x60806040523480156200001157600080fd5b506200001d3362000035565b600880546001600160a01b0319163017905562000087565b600780546001600160a01b038381166001600160a01b0319831681179093556040519116919082907f8be0079c531659141344cd1fd0a4f28419497f9722a3daafe3b4186f6b6457e090600090a35050565b614d6080620000976000396000f3fe6080604052600436106102465760003560e01c8063715018a611610139578063c41c2f24116100b6578063da9ee8b71161007a578063da9ee8b7146106d0578063df487e26146106e3578063e8a3d48514610703578063e985e9c514610718578063f2fde38b14610738578063f5a38e631461075857600080fd5b8063c41c2f2414610630578063c87b56dd14610650578063ccb4807b14610670578063d3419bf314610690578063d46cf171146106b057600080fd5b8063a22cb465116100fd578063a22cb46514610581578063a51cfd18146105a1578063aa4fb15b146105d0578063b88d4fde146105f0578063bb52b6e41461061057600080fd5b8063715018a6146104f95780638da5cb5b1461050e57806395d89b411461052c578063975057e714610541578063a0bcfc7f1461056157600080fd5b806336c1a93b116101c7578063557e71551161018b578063557e7155146104565780636352211e1461047657806364640c1e146104965780636ac6d941146104ac57806370a08231146104d957600080fd5b806336c1a93b146103ca5780633fafa127146103ea57806342842e0e146104005780634ecba6251461042057806354c6d1f51461043657600080fd5b806323b872dd1161020e57806323b872dd1461031c5780632407497e1461033c578063245a45b51461035c5780632a596e53146103975780632b13c58f146103b757600080fd5b806301ffc9a71461024b57806306fdde0314610280578063081812fc146102a2578063095ea7b3146102da5780631d153ca4146102fc575b600080fd5b34801561025757600080fd5b5061026b6102663660046134e8565b610778565b60405190151581526020015b60405180910390f35b34801561028c57600080fd5b506102956107a3565b6040516102779190613555565b3480156102ae57600080fd5b506102c26102bd366004613568565b610835565b6040516001600160a01b039091168152602001610277565b3480156102e657600080fd5b506102fa6102f53660046135a6565b61085c565b005b34801561030857600080fd5b506008546102c2906001600160a01b031681565b34801561032857600080fd5b506102fa6103373660046135d2565b6108e8565b34801561034857600080fd5b506102fa610357366004613613565b61091a565b34801561036857600080fd5b50610389610377366004613613565b600e6020526000908152604090205481565b604051908152602001610277565b3480156103a357600080fd5b506102fa6103b2366004613630565b6109c3565b6102fa6103c53660046136bd565b610a1c565b3480156103d657600080fd5b506102fa6103e536600461373c565b610bf6565b3480156103f657600080fd5b5061038960055481565b34801561040c57600080fd5b506102fa61041b3660046135d2565b610c58565b34801561042c57600080fd5b50610389600d5481565b34801561044257600080fd5b506102c2610451366004613568565b610c73565b34801561046257600080fd5b50600a546102c2906001600160a01b031681565b34801561048257600080fd5b506102c2610491366004613568565b610d1f565b3480156104a257600080fd5b50610389600c5481565b3480156104b857600080fd5b506104cc6104c736600461377d565b610d55565b604051610277919061380e565b3480156104e557600080fd5b506103896104f4366004613613565b610e9b565b34801561050557600080fd5b506102fa610f11565b34801561051a57600080fd5b506007546001600160a01b03166102c2565b34801561053857600080fd5b50610295610f25565b34801561054d57600080fd5b506009546102c2906001600160a01b031681565b34801561056d57600080fd5b506102fa61057c366004613821565b610f34565b34801561058d57600080fd5b506102fa61059c366004613899565b610fef565b3480156105ad57600080fd5b506105c16105bc3660046136bd565b610ffe565b604051610277939291906138d2565b3480156105dc57600080fd5b506102fa6105eb366004613944565b61125d565b3480156105fc57600080fd5b506102fa61060b366004613aa2565b61147a565b34801561061c57600080fd5b506102fa61062b366004613da3565b6114ad565b34801561063c57600080fd5b506006546102c2906001600160a01b031681565b34801561065c57600080fd5b5061029561066b366004613568565b611793565b34801561067c57600080fd5b506102fa61068b366004613821565b6119a2565b34801561069c57600080fd5b50600b546102c2906001600160a01b031681565b3480156106bc57600080fd5b506105c16106cb366004613edc565b611a55565b6102fa6106de366004613f17565b611b38565b3480156106ef57600080fd5b506102fa6106fe366004613613565b611bef565b34801561070f57600080fd5b50610295611c91565b34801561072457600080fd5b5061026b610733366004613f52565b611d07565b34801561074457600080fd5b506102fa610753366004613613565b611d35565b34801561076457600080fd5b506102fa610773366004613f80565b611db3565b60006001600160e01b03198216631e68505960e31b148061079d575061079d82611f96565b92915050565b6060600080546107b29061401a565b80601f01602080910402602001604051908101604052809291908181526020018280546107de9061401a565b801561082b5780601f106108005761010080835404028352916020019161082b565b820191906000526020600020905b81548152906001019060200180831161080e57829003601f168201915b5050505050905090565b60006108408261200c565b506000908152600360205260409020546001600160a01b031690565b600061086782610d1f565b9050806001600160a01b0316836001600160a01b03160361089b5760405163133f8be960e01b815260040160405180910390fd5b336001600160a01b038216148015906108bb57506108b98133611d07565b155b156108d95760405163e5fa0e3560e01b815260040160405180910390fd5b6108e38383612041565b505050565b6108f233826120af565b61090f5760405163e5fa0e3560e01b815260040160405180910390fd5b6108e383838361210e565b6109226121e7565b60095460405163036129cb60e61b81526001600160a01b0383811660048301529091169063d84a72c090602401600060405180830381600087803b15801561096957600080fd5b505af115801561097d573d6000803e3d6000fd5b50506040513381526001600160a01b03841692507fe7784d93cfbfa4408e19577e6cc0436f4dbb51214b70e100905dfce9def88c1691506020015b60405180910390a250565b8060005b81811015610a165760008484838181106109e3576109e361404e565b9050604002018036038101906109f99190614064565b9050610a0d8160000151826020015161125d565b506001016109c7565b50505050565b34151580610a9e5750600654600554604051636e49181f60e01b815260048101919091523360248201526001600160a01b0390911690636e49181f90604401602060405180830381865afa158015610a78573d6000803e3d6000fd5b505050506040513d601f19601f82011682018060405250810190610a9c91906140bd565b155b80610aaf5750600554816020013514155b15610acd57604051633efca5c360e11b815260040160405180910390fd5b6024610add6101c08301836140da565b90501080610b21575063b3bcbb7960e01b610afc6101c08301836140da565b610b0b91602491602091614120565b610b149161414a565b6001600160e01b03191614155b15610b3f57604051632a84050f60e01b815260040160405180910390fd5b6000610b4f6101c08301836140da565b810190610b5c919061417a565b925050506000815190506000805b82811015610bec57838181518110610b8457610b8461404e565b60200260200101519150846000016020810190610ba19190613613565b6000838152600260205260409020546001600160a01b03908116911614610bdb5760405163075fd2b160e01b815260040160405180910390fd5b610be482612241565b600101610b6a565b50610a16836122c2565b610bfe6121e7565b8060005b81811015610a165736848483818110610c1d57610c1d61404e565b9050602002810190610c2f9190614228565b9050610c4e610c3e8280614248565b6104c76040850160208601613613565b5050600101610c02565b6108e38383836040518060200160405280600081525061147a565b6009546040516308ed6c0160e41b81523060048201526024810183905260009182916001600160a01b0390911690638ed6c01090604401602060405180830381865afa158015610cc7573d6000803e3d6000fd5b505050506040513d601f19601f82011682018060405250810190610ceb919061429c565b90506001600160a01b03811615610d025792915050565b50506000908152600260205260409020546001600160a01b031690565b6000818152600260205260408120546001600160a01b03168061079d5760405163b49aa3b560e01b815260040160405180910390fd5b6060610d5f6121e7565b60095460405163eaa19ab360e01b81526001600160a01b039091169063eaa19ab390610d989060001990889088906001906004016142b9565b6000604051808303816000875af1158015610db7573d6000803e3d6000fd5b505050506040513d6000823e601f3d908101601f19168201604052610ddf919081019061437c565b509050826000805b82811015610e9157838181518110610e0157610e0161404e565b60200260200101519150610e158583612327565b846001600160a01b0316878783818110610e3157610e3161404e565b9050602002016020810190610e4691906143c2565b604080516000815233602082015261ffff929092169185917f598baf7bf150ca2f42be9e9f8f55e81d45f5715c3ff22bf46d697fabec7f31d6910160405180910390a4600101610de7565b5050509392505050565b600954604051633de222bb60e21b81523060048201526001600160a01b038381166024830152600092169063f7888aec906044015b602060405180830381865afa158015610eed573d6000803e3d6000fd5b505050506040513d601f19601f8201168201806040525081019061079d91906143dd565b610f196121e7565b610f2360006123f1565b565b6060600180546107b29061401a565b610f3c6121e7565b6009546040516331315e5960e11b81526001600160a01b0390911690636262bcb290610f6e90859085906004016143f6565b600060405180830381600087803b158015610f8857600080fd5b505af1158015610f9c573d6000803e3d6000fd5b505050508181604051610fb0929190614425565b604051908190038120338252907f7bc9110d5de090dd59e07912d2b93a5a27ac70a60c8d8e324db4f9ee8b8b5c13906020015b60405180910390a25050565b610ffa338383612443565b5050565b6000606080608084013515611026576040516309f82f1b60e31b815260040160405180910390fd5b60246110366101c08601866140da565b9050108061107a575063b3bcbb7960e01b6110556101c08601866140da565b61106491602491602091614120565b61106d9161414a565b6001600160e01b03191614155b1561109857604051632a84050f60e01b815260040160405180910390fd5b60408051600180825281830190925290816020015b60408051808201909152600080825260208201528152602001906001900390816110ad5790505090506040518060400160405280306001600160a01b031681526020016000815250816000815181106111085761110861404e565b602090810291909101015260006111236101c08601866140da565b810190611130919061417a565b92505050600061114082876124e2565b9050600061114d87612556565b905060006111608860c001358484612587565b9050612710886101800135036111cb578061117f6101a08a018a6140da565b8782828080601f016020809104026020016040519081016040528093929190818152602001838380828437600092019190915250969d50919b5091995061125698505050505050505050565b611201816111ea856111e46101808d013561271061444b565b86612587565b6111f9906101808c013561445e565b612710612587565b61120f6101a08a018a6140da565b8782828080601f016020809104026020016040519081016040528093929190818152602001838380828437600092019190915250969d50919b509199505050505050505050505b9193909250565b600a546005546040516321d1336160e11b815260048101919091526000916001600160a01b0316906343a266c29060240161012060405180830381865afa1580156112ac573d6000803e3d6000fd5b505050506040513d601f19601f820116820180604052508101906112d09190614471565b61010081015190915060f51c6001908116036112ff57604051631d2c125760e31b815260040160405180910390fd5b600954604051635d53f40760e11b815260048101859052602481018490526000916001600160a01b03169063baa7e80e906044016000604051808303816000875af1158015611352573d6000803e3d6000fd5b505050506040513d6000823e601f3d908101601f1916820160405261137a91908101906144f1565b6009546040516304db994760e21b8152306004820152602481018790529192506000916001600160a01b039091169063136e651c90604401602060405180830381865afa1580156113cf573d6000803e3d6000fd5b505050506040513d601f19601f820116820180604052508101906113f3919061429c565b90506000805b85811015611471578381815181106114135761141361404e565b602002602001015191506114278383612327565b6040513381526001600160a01b03841690889084907f031e1988c95a91ec4d655ff63a8f87a80bc9daf28d95ae10ee08c0022cfb5c8b9060200160405180910390a46001016113f9565b50505050505050565b61148433836120af565b6114a15760405163e5fa0e3560e01b815260040160405180910390fd5b610a1684848484612653565b6008546001600160a01b031630036114c457600080fd5b6009546001600160a01b0316156114da57600080fd5b6114e68b8b8b8b612687565b600a80546001600160a01b03808a166001600160a01b031992831617909255600980548584169083161790556020850151600c556040850151600d556060850151600b805491909316911617905585511561159a576040516331315e5960e11b81526001600160a01b03831690636262bcb290611567908990600401613555565b600060405180830381600087803b15801561158157600080fd5b505af1158015611595573d6000803e3d6000fd5b505050505b8351156116005760405163d67b78fd60e01b81526001600160a01b0383169063d67b78fd906115cd908790600401613555565b600060405180830381600087803b1580156115e757600080fd5b505af11580156115fb573d6000803e3d6000fd5b505050505b6001600160a01b0385161561166b5760405163036129cb60e61b81526001600160a01b03868116600483015283169063d84a72c090602401600060405180830381600087803b15801561165257600080fd5b505af1158015611666573d6000803e3d6000fd5b505050505b825151156116e957825160405163eadd8b3760e01b81526001600160a01b0384169163eadd8b37916116a09190600401614525565b6000604051808303816000875af11580156116bf573d6000803e3d6000fd5b505050506040513d6000823e601f3d908101601f191682016040526116e791908101906144f1565b505b8051806116f7575080602001515b80611703575080604001515b1561177d576040805163cdb0af6d60e01b815282511515600482015260208301511515602482015290820151151560448201526001600160a01b0383169063cdb0af6d90606401600060405180830381600087803b15801561176457600080fd5b505af1158015611778573d6000803e3d6000fd5b505050505b611786336123f1565b5050505050505050505050565b6000818152600260205260409020546060906001600160a01b03166117c657505060408051602081019091526000815290565b600954604051630fab094760e01b81523060048201526000916001600160a01b031690630fab094790602401602060405180830381865afa15801561180f573d6000803e3d6000fd5b505050506040513d601f19601f82011682018060405250810190611833919061429c565b90506001600160a01b038116156118b857604051636d02a25560e11b8152600481018490526001600160a01b0382169063da0544aa90602401600060405180830381865afa158015611889573d6000803e3d6000fd5b505050506040513d6000823e601f3d908101601f191682016040526118b191908101906145fe565b9392505050565b60095460405163f682eeaf60e01b81523060048201526118b1916001600160a01b03169063f682eeaf90602401600060405180830381865afa158015611902573d6000803e3d6000fd5b505050506040513d6000823e601f3d908101601f1916820160405261192a91908101906145fe565b600954604051630c8df17160e41b8152306004820152602481018790526001600160a01b039091169063c8df171090604401602060405180830381865afa158015611979573d6000803e3d6000fd5b505050506040513d601f19601f8201168201806040525081019061199d91906143dd565b6126ba565b6119aa6121e7565b60095460405163d67b78fd60e01b81526001600160a01b039091169063d67b78fd906119dc90859085906004016143f6565b600060405180830381600087803b1580156119f657600080fd5b505af1158015611a0a573d6000803e3d6000fd5b505050508181604051611a1e929190614425565b604051908190038120338252907fd36dc0c1a06103fdcaf15f3f6fb797d1a97997514c78de073640c8b5005454b890602001610fe3565b610120810135606080611a6c6101608501856140da565b8080601f01602080910402602001604051908101604052809392919081815260200183838082843760009201919091525092945060019250611aac915050565b604051908082528060200260200182016040528015611af157816020015b6040805180820190915260008082526020820152815260200190600190039081611aca5790505b5090506040518060400160405280306001600160a01b03168152602001600081525081600081518110611b2657611b2661404e565b60200260200101819052509193909250565b60055434151580611bb95750600654604051636e49181f60e01b8152600481018390523360248201526001600160a01b0390911690636e49181f90604401602060405180830381865afa158015611b93573d6000803e3d6000fd5b505050506040513d601f19601f82011682018060405250810190611bb791906140bd565b155b80611bc8575080826020013514155b15611be6576040516331c57b1b60e21b815260040160405180910390fd5b610ffa82612721565b611bf76121e7565b6009546040516317161f7d60e01b81526001600160a01b038381166004830152909116906317161f7d90602401600060405180830381600087803b158015611c3e57600080fd5b505af1158015611c52573d6000803e3d6000fd5b50506040513381526001600160a01b03841692507fab0014d4c7a642a02a31b303a318908c22b0fb2001f107278fc6076b4c671b6591506020016109b8565b600954604051630155619b60e71b81523060048201526060916001600160a01b03169063aab0cd8090602401600060405180830381865afa158015611cda573d6000803e3d6000fd5b505050506040513d6000823e601f3d908101601f19168201604052611d0291908101906145fe565b905090565b6001600160a01b03918216600090815260046020908152604080832093909416825291909152205460ff1690565b611d3d6121e7565b6001600160a01b038116611da75760405162461bcd60e51b815260206004820152602660248201527f4f776e61626c653a206e6577206f776e657220697320746865207a65726f206160448201526564647265737360d01b60648201526084015b60405180910390fd5b611db0816123f1565b50565b611dbb6121e7565b82818015611e8b576009546040516320512ba160e01b81526001600160a01b03909116906320512ba190611df5908790879060040161466b565b600060405180830381600087803b158015611e0f57600080fd5b505af1158015611e23573d6000803e3d6000fd5b5050505060005b81811015611e8957848482818110611e4457611e4461404e565b60405133815260209182029390930135927f832d89d991be5351d793c20faf4b7dd44f8aa9ce39e3cb160c6317de6fbba72992500160405180910390a2600101611e2a565b505b8115611f8e5760095460405163eadd8b3760e01b81526000916001600160a01b03169063eadd8b3790611ec4908a908a90600401614781565b6000604051808303816000875af1158015611ee3573d6000803e3d6000fd5b505050506040513d6000823e601f3d908101601f19168201604052611f0b91908101906144f1565b905060005b83811015611f8b57818181518110611f2a57611f2a61404e565b60200260200101517f85b5b4c4e44e342c8dac3c3a5364494d455043decb9f4bb8e7e0a3020d22fed4898984818110611f6557611f6561404e565b9050610140020133604051611f7b9291906147c4565b60405180910390a2600101611f10565b50505b505050505050565b60006001600160e01b0319821663b3bcbb7960e01b1480611fc757506001600160e01b031982166371700c6960e01b145b80611fe257506001600160e01b0319821663da9ee8b760e01b145b80611ffd57506001600160e01b03198216632b13c58f60e01b145b8061079d575061079d82612a47565b6000818152600260205260409020546001600160a01b0316611db05760405163b49aa3b560e01b815260040160405180910390fd5b600081815260036020526040902080546001600160a01b0319166001600160a01b038416908117909155819061207682610d1f565b6001600160a01b03167f8c5be1e5ebec7d5bd14f71427d1e84f3dd0314c0f7b2291e5b200ac8c7c3b92560405160405180910390a45050565b6000806120bb83610d1f565b9050806001600160a01b0316846001600160a01b031614806120e257506120e28185611d07565b806121065750836001600160a01b03166120fb84610835565b6001600160a01b0316145b949350505050565b826001600160a01b031661212182610d1f565b6001600160a01b0316146121485760405163a195bc5360e01b815260040160405180910390fd5b6001600160a01b03821661216f57604051632c95542760e01b815260040160405180910390fd5b61217a838383612a97565b612185600082612041565b60008181526002602052604080822080546001600160a01b0319166001600160a01b0386811691821790925591518493918716917fddf252ad1be2c89b69c2b068fc378daa952ba7f163c4a11628f55a4df523b3ef91a46108e3838383612cc4565b6007546001600160a01b03163314610f235760405162461bcd60e51b815260206004820181905260248201527f4f776e61626c653a2063616c6c6572206973206e6f7420746865206f776e65726044820152606401611d9e565b600061224c82610d1f565b905061225a81600084612a97565b612265600083612041565b60008281526002602052604080822080546001600160a01b0319169055518391906001600160a01b038416907fddf252ad1be2c89b69c2b068fc378daa952ba7f163c4a11628f55a4df523b3ef908390a4610ffa81600084612cc4565b6009546040516386bc2be360e01b81526001600160a01b03909116906386bc2be3906122f290849060040161380e565b600060405180830381600087803b15801561230c57600080fd5b505af1158015612320573d6000803e3d6000fd5b5050505050565b6001600160a01b03821661234e57604051633904578f60e11b815260040160405180910390fd5b6000818152600260205260409020546001600160a01b03161561238457604051632eb5f0c360e21b815260040160405180910390fd5b61239060008383612a97565b60008181526002602052604080822080546001600160a01b0319166001600160a01b03861690811790915590518392907fddf252ad1be2c89b69c2b068fc378daa952ba7f163c4a11628f55a4df523b3ef908290a4610ffa60008383612cc4565b600780546001600160a01b038381166001600160a01b0319831681179093556040519116919082907f8be0079c531659141344cd1fd0a4f28419497f9722a3daafe3b4186f6b6457e090600090a35050565b816001600160a01b0316836001600160a01b031603612475576040516306f8139d60e11b815260040160405180910390fd5b6001600160a01b03838116600081815260046020908152604080832094871680845294825291829020805460ff191686151590811790915591519182527f17307eab39ab6107e8899845ad3d59bd9653f200f220920489ca2b5937696c31910160405180910390a3505050565b60095460405163051330b560e21b81526000916001600160a01b03169063144cc2d49061251590309087906004016147ec565b602060405180830381865afa158015612532573d6000803e3d6000fd5b505050506040513d601f19601f820116820180604052508101906118b191906143dd565b600954604051631572f24960e11b81523060048201526000916001600160a01b031690632ae5e49290602401610ed0565b60008080600019858709858702925082811083820303915050806000036125c1578382816125b7576125b7614810565b04925050506118b1565b8381106125eb57604051631dcf306360e21b81526004810182905260248101859052604401611d9e565b600084868809600260036001881981018916988990049182028318808302840302808302840302808302840302808302840302808302840302918202909203026000889003889004909101858311909403939093029303949094049190911702949350505050565b61265e84848461210e565b61266a84848484612db1565b610a16576040516336f57c1b60e11b815260040160405180910390fd5b6126918282612eb3565b5050600591909155600680546001600160a01b0319166001600160a01b03909216919091179055565b604051609160f51b602082015260228101829052606090600090604201604051602081830303815290604052905060006126f382612ecc565b90508481604051602001612708929190614826565b6040516020818303038152906040529250505092915050565b600c5460009060c08301350361273c575060808101356127f2565b600b546001600160a01b031615610ffa57600d546127ef9060808401359061276590600a614939565b600b54600c54604051635268657960e11b815260c08801356004820152602481019190915260a087013560448201526001600160a01b039091169063a4d0caf290606401602060405180830381865afa1580156127c6573d6000803e3d6000fd5b505050506040513d601f19601f820116820180604052508101906127ea91906143dd565b612587565b90505b6000600e816128096101a086016101808701613613565b6001600160a01b0316815260208101919091526040016000908120549150829061283b6101a086016101808701613613565b6001600160a01b03166128516020870187613613565b6001600160a01b031603612868579082019061286b565b50815b600080604461287e6101e08901896140da565b90501180156128c2575063b3bcbb7960e01b61289e6101e08901896140da565b6128ad91604491604091614120565b6128b69161414a565b6001600160e01b031916145b1561296257600060606128d96101e08a018a6140da565b8101906128e69190614945565b919950975090955093505083159150612939905057858501600e60006129146101a08d016101808e01613613565b6001600160a01b03168152602081019190915260400160002055505050505050505050565b80511561295f5761295c86826129576101a08d016101808e01613613565b613064565b95505b50505b8315612a06576129848461297e6101a08a016101808b01613613565b846131a6565b935083156129e35780156129ab57604051631b57826960e21b815260040160405180910390fd5b838301600e60006129c46101a08b016101808c01613613565b6001600160a01b03168152602081019190915260400160002055611471565b828514612a015782600e60006129c46101a08b016101808c01613613565b611471565b8285146114715782600e6000612a246101a08b016101808c01613613565b6001600160a01b0316815260208101919091526040016000205550505050505050565b60006001600160e01b031982166380ac58cd60e01b1480612a7857506001600160e01b03198216635b5e139f60e01b145b8061079d57506301ffc9a760e01b6001600160e01b031983161461079d565b6001600160a01b038316156108e35760095460405163b67cb04760e01b8152306004820152602481018390526000916001600160a01b03169063b67cb0479060440161016060405180830381865afa158015612af7573d6000803e3d6000fd5b505050506040513d601f19601f82011682018060405250810190612b1b9190614a3c565b905080610140015115612be057600a546005546040516321d1336160e11b815260048101919091526000916001600160a01b0316906343a266c29060240161012060405180830381865afa158015612b77573d6000803e3d6000fd5b505050506040513d601f19601f82011682018060405250810190612b9b9190614471565b90506001600160a01b03841615801590612bc0575061010081015160f41c6001908116145b15612bde576040516318cdaf9760e01b815260040160405180910390fd5b505b6009546040516308ed6c0160e41b8152306004820152602481018490526000916001600160a01b031690638ed6c01090604401602060405180830381865afa158015612c30573d6000803e3d6000fd5b505050506040513d601f19601f82011682018060405250810190612c54919061429c565b6001600160a01b031603610a1657600954604051638cec7d3960e01b8152600481018490526001600160a01b03868116602483015290911690638cec7d3990604401600060405180830381600087803b158015612cb057600080fd5b505af1158015611f8b573d6000803e3d6000fd5b60095460405163b67cb04760e01b8152306004820152602481018390526000916001600160a01b03169063b67cb0479060440161016060405180830381865afa158015612d15573d6000803e3d6000fd5b505050506040513d601f19601f82011682018060405250810190612d399190614a3c565b60095481516040516330b157e560e21b815260048101919091526001600160a01b038781166024830152868116604483015292935091169063c2c55f9490606401600060405180830381600087803b158015612d9457600080fd5b505af1158015612da8573d6000803e3d6000fd5b50505050610a16565b60006001600160a01b0384163b15612ea857604051630a85bd0160e11b81526001600160a01b0385169063150b7a0290612df5903390899088908890600401614ade565b6020604051808303816000875af1925050508015612e30575060408051601f3d908101601f19168201909252612e2d91810190614b1b565b60015b612e8e573d808015612e5e576040519150601f19603f3d011682016040523d82523d6000602084013e612e63565b606091505b508051600003612e86576040516336f57c1b60e11b815260040160405180910390fd5b805181602001fd5b6001600160e01b031916630a85bd0160e11b149050612106565b506001949350505050565b6000612ebf8382614b7e565b5060016108e38282614b7e565b60608151600003612eeb57505060408051600081526020810190915290565b60408051602e8082526105e08201909252600091602082016105c080368337019050509050600081600081518110612f2557612f2561404e565b60ff90921660209283029190910190910152825160019060005b81811015613040576000868281518110612f5b57612f5b61404e565b016020015160f81c905060005b8460ff16811015612fe5576008868281518110612f8757612f8761404e565b602002602001015160ff16901b82612f9f919061445e565b9150612fac603a83614c3d565b868281518110612fbe57612fbe61404e565b60ff90921660209283029190910190910152612fdb603a83614c51565b9150600101612f68565b505b801561303757612ff8603a82614c3d565b858560ff168151811061300d5761300d61404e565b60ff90921660209283029190910190910152600190930192613030603a82614c51565b9050612fe7565b50600101612f3f565b5061305b61305661305185856132b0565b613357565b6133f9565b95945050505050565b60095460405163eaa19ab360e01b81526000916060916001600160a01b039091169063eaa19ab39061309e90889088908790600401614c65565b6000604051808303816000875af11580156130bd573d6000803e3d6000fd5b505050506040513d6000823e601f3d908101601f191682016040526130e5919081019061437c565b81519093509091506000805b8281101561319b5783818151811061310b5761310b61404e565b6020026020010151915061311f8683612327565b856001600160a01b031687828151811061313b5761313b61404e565b602002602001015161ffff16837f598baf7bf150ca2f42be9e9f8f55e81d45f5715c3ff22bf46d697fabec7f31d68b3360405161318b9291909182526001600160a01b0316602082015260400190565b60405180910390a46001016130f1565b505050509392505050565b60095460405163879791f360e01b815260048101859052600091829182916001600160a01b03169063879791f3906024016060604051808303816000875af11580156131f6573d6000803e3d6000fd5b505050506040513d601f19601f8201168201806040525081019061321a9190614cc2565b94509092509050600082900361325057831561324957604051630e5313df60e41b815260040160405180910390fd5b50506118b1565b61325a8583612327565b6001600160a01b03851681837f598baf7bf150ca2f42be9e9f8f55e81d45f5715c3ff22bf46d697fabec7f31d6613291878b61444b565b604080519182523360208301520160405180910390a450509392505050565b606060008260ff166001600160401b038111156132cf576132cf613966565b6040519080825280602002602001820160405280156132f8578160200160208202803683370190505b50905060005b8360ff1681101561334f5784818151811061331b5761331b61404e565b60200260200101518282815181106133355761333561404e565b60ff909216602092830291909101909101526001016132fe565b509392505050565b80516060906000816001600160401b0381111561337657613376613966565b60405190808252806020026020018201604052801561339f578160200160208202803683370190505b50905060005b8281101561334f578481600187510303815181106133c5576133c561404e565b60200260200101518282815181106133df576133df61404e565b60ff909216602092830291909101909101526001016133a5565b80516060906000816001600160401b0381111561341857613418613966565b6040519080825280601f01601f191660200182016040528015613442576020820181803683370190505b50905060005b8281101561334f576040518060600160405280603a8152602001614cf1603a913985828151811061347b5761347b61404e565b602002602001015160ff16815181106134965761349661404e565b602001015160f81c60f81b8282815181106134b3576134b361404e565b60200101906001600160f81b031916908160001a905350600101613448565b6001600160e01b031981168114611db057600080fd5b6000602082840312156134fa57600080fd5b81356118b1816134d2565b60005b83811015613520578181015183820152602001613508565b50506000910152565b60008151808452613541816020860160208601613505565b601f01601f19169290920160200192915050565b6020815260006118b16020830184613529565b60006020828403121561357a57600080fd5b5035919050565b6001600160a01b0381168114611db057600080fd5b80356135a181613581565b919050565b600080604083850312156135b957600080fd5b82356135c481613581565b946020939093013593505050565b6000806000606084860312156135e757600080fd5b83356135f281613581565b9250602084013561360281613581565b929592945050506040919091013590565b60006020828403121561362557600080fd5b81356118b181613581565b6000806020838503121561364357600080fd5b82356001600160401b038082111561365a57600080fd5b818501915085601f83011261366e57600080fd5b81358181111561367d57600080fd5b8660208260061b850101111561369257600080fd5b60209290920196919550909350505050565b60006101e082840312156136b757600080fd5b50919050565b6000602082840312156136cf57600080fd5b81356001600160401b038111156136e557600080fd5b612106848285016136a4565b60008083601f84011261370357600080fd5b5081356001600160401b0381111561371a57600080fd5b6020830191508360208260051b850101111561373557600080fd5b9250929050565b6000806020838503121561374f57600080fd5b82356001600160401b0381111561376557600080fd5b613771858286016136f1565b90969095509350505050565b60008060006040848603121561379257600080fd5b83356001600160401b038111156137a857600080fd5b6137b4868287016136f1565b90945092505060208401356137c881613581565b809150509250925092565b600081518084526020808501945080840160005b83811015613803578151875295820195908201906001016137e7565b509495945050505050565b6020815260006118b160208301846137d3565b6000806020838503121561383457600080fd5b82356001600160401b038082111561384b57600080fd5b818501915085601f83011261385f57600080fd5b81358181111561386e57600080fd5b86602082850101111561369257600080fd5b8015158114611db057600080fd5b80356135a181613880565b600080604083850312156138ac57600080fd5b82356138b781613581565b915060208301356138c781613880565b809150509250929050565b838152600060206060818401526138ec6060840186613529565b83810360408581019190915285518083528387019284019060005b8181101561393557845180516001600160a01b03168452860151868401529385019391830191600101613907565b50909998505050505050505050565b6000806040838503121561395757600080fd5b50508035926020909101359150565b634e487b7160e01b600052604160045260246000fd5b604051608081016001600160401b038111828210171561399e5761399e613966565b60405290565b60405161014081016001600160401b038111828210171561399e5761399e613966565b60405161012081016001600160401b038111828210171561399e5761399e613966565b60405161016081016001600160401b038111828210171561399e5761399e613966565b604051601f8201601f191681016001600160401b0381118282101715613a3557613a35613966565b604052919050565b60006001600160401b03821115613a5657613a56613966565b50601f01601f191660200190565b6000613a77613a7284613a3d565b613a0d565b9050828152838383011115613a8b57600080fd5b828260208301376000602084830101529392505050565b60008060008060808587031215613ab857600080fd5b8435613ac381613581565b93506020850135613ad381613581565b92506040850135915060608501356001600160401b03811115613af557600080fd5b8501601f81018713613b0657600080fd5b613b1587823560208401613a64565b91505092959194509250565b600082601f830112613b3257600080fd5b6118b183833560208501613a64565b60006001600160401b03821115613b5a57613b5a613966565b5060051b60200190565b803569ffffffffffffffffffff811681146135a157600080fd5b803565ffffffffffff811681146135a157600080fd5b803564ffffffffff811681146135a157600080fd5b803561ffff811681146135a157600080fd5b60006080808385031215613bce57600080fd5b613bd661397c565b915082356001600160401b03811115613bee57600080fd5b8301601f81018513613bff57600080fd5b80356020613c0f613a7283613b41565b8281526101409283028401820192828201919089851115613c2f57600080fd5b948301945b84861015613cfe5780868b031215613c4c5760008081fd5b613c546139a4565b613c5d87613b64565b8152613c6a858801613b7e565b858201526040613c7b818901613b94565b908201526060613c8c888201613ba9565b90820152613c9b878901613ba9565b8882015260a0613cac818901613596565b9082015260c0878101359082015260e0613cc781890161388e565b90820152610100613cd988820161388e565b90820152610120613ceb88820161388e565b9082015283529485019491830191613c34565b50865250858101359085015250505060408083013590820152613d2360608301613596565b606082015292915050565b600060608284031215613d4057600080fd5b604051606081018181106001600160401b0382111715613d6257613d62613966565b6040529050808235613d7381613880565b81526020830135613d8381613880565b60208201526040830135613d9681613880565b6040919091015292915050565b60008060008060008060008060008060006101a08c8e031215613dc557600080fd5b8b359a50613dd560208d01613596565b99506001600160401b038060408e01351115613df057600080fd5b613e008e60408f01358f01613b21565b99508060608e01351115613e1357600080fd5b613e238e60608f01358f01613b21565b9850613e3160808e01613596565b97508060a08e01351115613e4457600080fd5b613e548e60a08f01358f01613b21565b9650613e6260c08e01613596565b95508060e08e01351115613e7557600080fd5b613e858e60e08f01358f01613b21565b9450806101008e01351115613e9957600080fd5b50613eab8d6101008e01358e01613bbb565b9250613eba6101208d01613596565b9150613eca8d6101408e01613d2e565b90509295989b509295989b9093969950565b600060208284031215613eee57600080fd5b81356001600160401b03811115613f0457600080fd5b82016101a081850312156118b157600080fd5b600060208284031215613f2957600080fd5b81356001600160401b03811115613f3f57600080fd5b820161020081850312156118b157600080fd5b60008060408385031215613f6557600080fd5b8235613f7081613581565b915060208301356138c781613581565b60008060008060408587031215613f9657600080fd5b84356001600160401b0380821115613fad57600080fd5b818701915087601f830112613fc157600080fd5b813581811115613fd057600080fd5b88602061014083028501011115613fe657600080fd5b60209283019650945090860135908082111561400157600080fd5b5061400e878288016136f1565b95989497509550505050565b600181811c9082168061402e57607f821691505b6020821081036136b757634e487b7160e01b600052602260045260246000fd5b634e487b7160e01b600052603260045260246000fd5b60006040828403121561407657600080fd5b604051604081018181106001600160401b038211171561409857614098613966565b604052823581526020928301359281019290925250919050565b80516135a181613880565b6000602082840312156140cf57600080fd5b81516118b181613880565b6000808335601e198436030181126140f157600080fd5b8301803591506001600160401b0382111561410b57600080fd5b60200191503681900382131561373557600080fd5b6000808585111561413057600080fd5b8386111561413d57600080fd5b5050820193919092039150565b6001600160e01b031981358181169160048510156141725780818660040360031b1b83161692505b505092915050565b60008060006060848603121561418f57600080fd5b833592506020808501356141a2816134d2565b925060408501356001600160401b038111156141bd57600080fd5b8501601f810187136141ce57600080fd5b80356141dc613a7282613b41565b81815260059190911b820183019083810190898311156141fb57600080fd5b928401925b8284101561421957833582529284019290840190614200565b80955050505050509250925092565b60008235603e1983360301811261423e57600080fd5b9190910192915050565b6000808335601e1984360301811261425f57600080fd5b8301803591506001600160401b0382111561427957600080fd5b6020019150600581901b360382131561373557600080fd5b80516135a181613581565b6000602082840312156142ae57600080fd5b81516118b181613581565b84815260606020808301829052908201849052600090859060808401835b878110156142fe5761ffff6142eb85613ba9565b16825292820192908201906001016142d7565b50809350505050821515604083015295945050505050565b600082601f83011261432757600080fd5b81516020614337613a7283613b41565b82815260059290921b8401810191818101908684111561435657600080fd5b8286015b84811015614371578051835291830191830161435a565b509695505050505050565b6000806040838503121561438f57600080fd5b82516001600160401b038111156143a557600080fd5b6143b185828601614316565b925050602083015190509250929050565b6000602082840312156143d457600080fd5b6118b182613ba9565b6000602082840312156143ef57600080fd5b5051919050565b60208152816020820152818360408301376000818301604090810191909152601f909201601f19160101919050565b8183823760009101908152919050565b634e487b7160e01b600052601160045260246000fd5b8181038181111561079d5761079d614435565b8082018082111561079d5761079d614435565b6000610120828403121561448457600080fd5b61448c6139c7565b825181526020830151602082015260408301516040820152606083015160608201526080830151608082015260a083015160a082015260c083015160c08201526144d860e08401614291565b60e0820152610100928301519281019290925250919050565b60006020828403121561450357600080fd5b81516001600160401b0381111561451957600080fd5b61210684828501614316565b602080825282518282018190526000919060409081850190868401855b828110156145f1578151805169ffffffffffffffffffff1685528681015165ffffffffffff16878601528581015164ffffffffff168686015260608082015161ffff908116918701919091526080808301519091169086015260a0808201516001600160a01b03169086015260c0808201519086015260e08082015115159086015261010080820151151590860152610120908101511515908501526101409093019290850190600101614542565b5091979650505050505050565b60006020828403121561461057600080fd5b81516001600160401b0381111561462657600080fd5b8201601f8101841361463757600080fd5b8051614645613a7282613a3d565b81815285602083850101111561465a57600080fd5b61305b826020830160208601613505565b6020808252810182905260006001600160fb1b0383111561468b57600080fd5b8260051b80856040850137919091016040019392505050565b6146c1826146b183613b64565b69ffffffffffffffffffff169052565b6146cd60208201613b7e565b65ffffffffffff1660208301526146e660408201613b94565b64ffffffffff1660408301526146fe60608201613ba9565b61ffff16606083015261471360808201613ba9565b61ffff16608083015261472860a08201613596565b6001600160a01b031660a083015260c0818101359083015261474c60e0820161388e565b151560e083015261010061476182820161388e565b15159083015261012061477582820161388e565b80151584830152610a16565b6020808252810182905260008360408301825b858110156147ba576147a682846146a4565b610140928301929190910190600101614794565b5095945050505050565b61016081016147d382856146a4565b6001600160a01b03929092166101409190910152919050565b6001600160a01b0383168152604060208201819052600090612106908301846137d3565b634e487b7160e01b600052601260045260246000fd5b60008351614838818460208801613505565b83519083019061484c818360208801613505565b01949350505050565b600181815b8085111561489057816000190482111561487657614876614435565b8085161561488357918102915b93841c939080029061485a565b509250929050565b6000826148a75750600161079d565b816148b45750600061079d565b81600181146148ca57600281146148d4576148f0565b600191505061079d565b60ff8411156148e5576148e5614435565b50506001821b61079d565b5060208310610133831016604e8410600b8410161715614913575081810a61079d565b61491d8383614855565b806000190482111561493157614931614435565b029392505050565b60006118b18383614898565b600080600080600080600060e0888a03121561496057600080fd5b873596506020808901359650604089013561497a816134d2565b9550606089013561498a81613880565b9450608089013561499a81613880565b935060a08901356149aa81613880565b925060c08901356001600160401b038111156149c557600080fd5b8901601f81018b136149d657600080fd5b80356149e4613a7282613b41565b81815260059190911b8201830190838101908d831115614a0357600080fd5b928401925b82841015614a2857614a1984613ba9565b82529284019290840190614a08565b809550505050505092959891949750929550565b60006101608284031215614a4f57600080fd5b614a576139ea565b825181526020830151602082015260408301516040820152606083015160608201526080830151608082015260a083015160a082015260c083015160c0820152614aa360e08401614291565b60e08201526101008381015190820152610120614ac18185016140b2565b90820152610140614ad38482016140b2565b908201529392505050565b6001600160a01b0385811682528416602082015260408101839052608060608201819052600090614b1190830184613529565b9695505050505050565b600060208284031215614b2d57600080fd5b81516118b1816134d2565b601f8211156108e357600081815260208120601f850160051c81016020861015614b5f5750805b601f850160051c820191505b81811015611f8e57828155600101614b6b565b81516001600160401b03811115614b9757614b97613966565b614bab81614ba5845461401a565b84614b38565b602080601f831160018114614be05760008415614bc85750858301515b600019600386901b1c1916600185901b178555611f8e565b600085815260208120601f198616915b82811015614c0f57888601518255948401946001909101908401614bf0565b5085821015614c2d5787850151600019600388901b60f8161c191681555b5050505050600190811b01905550565b600082614c4c57614c4c614810565b500690565b600082614c6057614c60614810565b500490565b6000606082018583526020606081850152818651808452608086019150828801935060005b81811015614caa57845161ffff1683529383019391830191600101614c8a565b50508093505050508215156040830152949350505050565b600080600060608486031215614cd757600080fd5b835192506020840151915060408401519050925092509256fe31323334353637383941424344454647484a4b4c4d4e505152535455565758595a6162636465666768696a6b6d6e6f707172737475767778797aa26469706673582212203c2f3ba9f93cc612281cb6669180b4e8fb4b204635fe58371cfb01eafa340b4764736f6c63430008100033",
    "linkReferences": {}
  },
  "methodIdentifiers": {
    "adjustTiers((uint80,uint48,uint40,uint16,uint16,address,bytes32,bool,bool,bool)[],uint256[])": "f5a38e63",
    "approve(address,uint256)": "095ea7b3",
    "balanceOf(address)": "70a08231",
    "codeOrigin()": "1d153ca4",
    "contractURI()": "e8a3d485",
    "creditsOf(address)": "245a45b5",
    "didPay((address,uint256,uint256,(address,uint256,uint256,uint256),(address,uint256,uint256,uint256),uint256,address,bool,string,bytes))": "da9ee8b7",
    "didRedeem((address,uint256,uint256,uint256,(address,uint256,uint256,uint256),(address,uint256,uint256,uint256),address,string,bytes))": "2b13c58f",
    "directory()": "c41c2f24",
    "firstOwnerOf(uint256)": "54c6d1f5",
    "fundingCycleStore()": "557e7155",
    "getApproved(uint256)": "081812fc",
    "initialize(uint256,address,string,string,address,string,address,string,((uint80,uint48,uint40,uint16,uint16,address,bytes32,bool,bool,bool)[],uint256,uint256,address),address,(bool,bool,bool))": "bb52b6e4",
    "isApprovedForAll(address,address)": "e985e9c5",
    "mintFor((uint16[],address)[])": "36c1a93b",
    "mintFor(uint16[],address)": "6ac6d941",
    "mintReservesFor((uint256,uint256)[])": "2a596e53",
    "mintReservesFor(uint256,uint256)": "aa4fb15b",
    "name()": "06fdde03",
    "owner()": "8da5cb5b",
    "ownerOf(uint256)": "6352211e",
    "payParams((address,address,(address,uint256,uint256,uint256),uint256,uint256,address,uint256,uint256,string,bytes))": "d46cf171",
    "prices()": "d3419bf3",
    "pricingCurrency()": "64640c1e",
    "pricingDecimals()": "4ecba625",
    "projectId()": "3fafa127",
    "redeemParams((address,address,uint256,uint256,uint256,uint256,uint256,(address,uint256,uint256,uint256),bool,uint256,string,bytes))": "a51cfd18",
    "renounceOwnership()": "715018a6",
    "safeTransferFrom(address,address,uint256)": "42842e0e",
    "safeTransferFrom(address,address,uint256,bytes)": "b88d4fde",
    "setApprovalForAll(address,bool)": "a22cb465",
    "setBaseUri(string)": "a0bcfc7f",
    "setContractUri(string)": "ccb4807b",
    "setDefaultReservedTokenBeneficiary(address)": "df487e26",
    "setTokenUriResolver(address)": "2407497e",
    "store()": "975057e7",
    "supportsInterface(bytes4)": "01ffc9a7",
    "symbol()": "95d89b41",
    "tokenURI(uint256)": "c87b56dd",
    "transferFrom(address,address,uint256)": "23b872dd",
    "transferOwnership(address)": "f2fde38b"
  },
  "id": 29
}