{
  "abi": [
    {
      "inputs": [],
      "name": "CANT_MINT_MANUALLY",
      "type": "error"
    },
    {
      "inputs": [],
      "name": "INSUFFICIENT_AMOUNT",
      "type": "error"
    },
    {
      "inputs": [],
      "name": "INSUFFICIENT_RESERVES",
      "type": "error"
    },
    {
      "inputs": [],
      "name": "INVALID_PRICE_SORT_ORDER",
      "type": "error"
    },
    {
      "inputs": [],
      "name": "INVALID_QUANTITY",
      "type": "error"
    },
    {
      "inputs": [],
      "name": "INVALID_TIER",
      "type": "error"
    },
    {
      "inputs": [],
      "name": "MANUAL_MINTING_NOT_ALLOWED",
      "type": "error"
    },
    {
      "inputs": [],
      "name": "MAX_TIERS_EXCEEDED",
      "type": "error"
    },
    {
      "inputs": [],
      "name": "NO_QUANTITY",
      "type": "error"
    },
    {
      "inputs": [],
      "name": "OUT",
      "type": "error"
    },
    {
      "inputs": [],
      "name": "PRICING_RESOLVER_CHANGES_LOCKED",
      "type": "error"
    },
    {
      "inputs": [],
      "name": "RESERVED_RATE_NOT_ALLOWED",
      "type": "error"
    },
    {
      "inputs": [],
      "name": "TIER_LOCKED",
      "type": "error"
    },
    {
      "inputs": [],
      "name": "TIER_REMOVED",
      "type": "error"
    },
    {
      "inputs": [],
      "name": "VOTING_UNITS_NOT_ALLOWED",
      "type": "error"
    },
    {
      "anonymous": false,
      "inputs": [
        {
          "indexed": true,
          "internalType": "address",
          "name": "nft",
          "type": "address"
        },
        {
          "indexed": false,
          "internalType": "address",
          "name": "caller",
          "type": "address"
        }
      ],
      "name": "CleanTiers",
      "type": "event"
    },
    {
      "inputs": [
        {
          "internalType": "address",
          "name": "_nft",
          "type": "address"
        },
        {
          "internalType": "address",
          "name": "_owner",
          "type": "address"
        }
      ],
      "name": "balanceOf",
      "outputs": [
        {
          "internalType": "uint256",
          "name": "balance",
          "type": "uint256"
        }
      ],
      "stateMutability": "view",
      "type": "function"
    },
    {
      "inputs": [
        {
          "internalType": "address",
          "name": "",
          "type": "address"
        }
      ],
      "name": "baseUriOf",
      "outputs": [
        {
          "internalType": "string",
          "name": "",
          "type": "string"
        }
      ],
      "stateMutability": "view",
      "type": "function"
    },
    {
      "inputs": [
        {
          "internalType": "address",
          "name": "_nft",
          "type": "address"
        }
      ],
      "name": "cleanTiers",
      "outputs": [],
      "stateMutability": "nonpayable",
      "type": "function"
    },
    {
      "inputs": [
        {
          "internalType": "address",
          "name": "",
          "type": "address"
        }
      ],
      "name": "contractUriOf",
      "outputs": [
        {
          "internalType": "string",
          "name": "",
          "type": "string"
        }
      ],
      "stateMutability": "view",
      "type": "function"
    },
    {
      "inputs": [
        {
          "internalType": "address",
          "name": "",
          "type": "address"
        }
      ],
      "name": "defaultReservedTokenBeneficiaryOf",
      "outputs": [
        {
          "internalType": "address",
          "name": "",
          "type": "address"
        }
      ],
      "stateMutability": "view",
      "type": "function"
    },
    {
      "inputs": [
        {
          "internalType": "address",
          "name": "",
          "type": "address"
        },
        {
          "internalType": "uint256",
          "name": "",
          "type": "uint256"
        }
      ],
      "name": "encodedIPFSUriOf",
      "outputs": [
        {
          "internalType": "bytes32",
          "name": "",
          "type": "bytes32"
        }
      ],
      "stateMutability": "view",
      "type": "function"
    },
    {
      "inputs": [
        {
          "internalType": "address",
          "name": "_nft",
          "type": "address"
        },
        {
          "internalType": "uint256",
          "name": "_tokenId",
          "type": "uint256"
        }
      ],
      "name": "encodedTierIPFSUriOf",
      "outputs": [
        {
          "internalType": "bytes32",
          "name": "",
          "type": "bytes32"
        }
      ],
      "stateMutability": "view",
      "type": "function"
    },
    {
      "inputs": [
        {
          "internalType": "address",
          "name": "",
          "type": "address"
        },
        {
          "internalType": "uint256",
          "name": "",
          "type": "uint256"
        }
      ],
      "name": "firstOwnerOf",
      "outputs": [
        {
          "internalType": "address",
          "name": "",
          "type": "address"
        }
      ],
      "stateMutability": "view",
      "type": "function"
    },
    {
      "inputs": [
        {
          "internalType": "address",
          "name": "_nft",
          "type": "address"
        }
      ],
      "name": "flagsOf",
      "outputs": [
        {
          "components": [
            {
              "internalType": "bool",
              "name": "lockReservedTokenChanges",
              "type": "bool"
            },
            {
              "internalType": "bool",
              "name": "lockVotingUnitChanges",
              "type": "bool"
            },
            {
              "internalType": "bool",
              "name": "lockManualMintingChanges",
              "type": "bool"
            }
          ],
          "internalType": "struct JBTiered721Flags",
          "name": "",
          "type": "tuple"
        }
      ],
      "stateMutability": "view",
      "type": "function"
    },
    {
      "inputs": [
        {
          "internalType": "address",
          "name": "_nft",
          "type": "address"
        },
        {
          "internalType": "uint256",
          "name": "_tierId",
          "type": "uint256"
        }
      ],
      "name": "isTierRemoved",
      "outputs": [
        {
          "internalType": "bool",
          "name": "",
          "type": "bool"
        }
      ],
      "stateMutability": "view",
      "type": "function"
    },
    {
      "inputs": [
        {
          "internalType": "address",
          "name": "",
          "type": "address"
        }
      ],
      "name": "maxTierIdOf",
      "outputs": [
        {
          "internalType": "uint256",
          "name": "",
          "type": "uint256"
        }
      ],
      "stateMutability": "view",
      "type": "function"
    },
    {
      "inputs": [
        {
          "internalType": "address",
          "name": "",
          "type": "address"
        },
        {
          "internalType": "uint256",
          "name": "",
          "type": "uint256"
        }
      ],
      "name": "numberOfBurnedFor",
      "outputs": [
        {
          "internalType": "uint256",
          "name": "",
          "type": "uint256"
        }
      ],
      "stateMutability": "view",
      "type": "function"
    },
    {
      "inputs": [
        {
          "internalType": "address",
          "name": "_nft",
          "type": "address"
        },
        {
          "internalType": "uint256",
          "name": "_tierId",
          "type": "uint256"
        }
      ],
      "name": "numberOfReservedTokensOutstandingFor",
      "outputs": [
        {
          "internalType": "uint256",
          "name": "",
          "type": "uint256"
        }
      ],
      "stateMutability": "view",
      "type": "function"
    },
    {
      "inputs": [
        {
          "internalType": "address",
          "name": "",
          "type": "address"
        },
        {
          "internalType": "uint256",
          "name": "",
          "type": "uint256"
        }
      ],
      "name": "numberOfReservesMintedFor",
      "outputs": [
        {
          "internalType": "uint256",
          "name": "",
          "type": "uint256"
        }
      ],
      "stateMutability": "view",
      "type": "function"
    },
    {
      "inputs": [
        {
          "components": [
            {
              "internalType": "uint80",
              "name": "contributionFloor",
              "type": "uint80"
            },
            {
              "internalType": "uint48",
              "name": "lockedUntil",
              "type": "uint48"
            },
            {
              "internalType": "uint40",
              "name": "initialQuantity",
              "type": "uint40"
            },
            {
              "internalType": "uint16",
              "name": "votingUnits",
              "type": "uint16"
            },
            {
              "internalType": "uint16",
              "name": "reservedRate",
              "type": "uint16"
            },
            {
              "internalType": "address",
              "name": "reservedTokenBeneficiary",
              "type": "address"
            },
            {
              "internalType": "bytes32",
              "name": "encodedIPFSUri",
              "type": "bytes32"
            },
            {
              "internalType": "bool",
              "name": "allowManualMint",
              "type": "bool"
            },
            {
              "internalType": "bool",
              "name": "shouldUseBeneficiaryAsDefault",
              "type": "bool"
            },
            {
              "internalType": "bool",
              "name": "transfersPausable",
              "type": "bool"
            }
          ],
          "internalType": "struct JB721TierParams[]",
          "name": "_tiersToAdd",
          "type": "tuple[]"
        }
      ],
      "name": "recordAddTiers",
      "outputs": [
        {
          "internalType": "uint256[]",
          "name": "tierIds",
          "type": "uint256[]"
        }
      ],
      "stateMutability": "nonpayable",
      "type": "function"
    },
    {
      "inputs": [
        {
          "internalType": "uint256[]",
          "name": "_tokenIds",
          "type": "uint256[]"
        }
      ],
      "name": "recordBurn",
      "outputs": [],
      "stateMutability": "nonpayable",
      "type": "function"
    },
    {
      "inputs": [
        {
          "components": [
            {
              "internalType": "bool",
              "name": "lockReservedTokenChanges",
              "type": "bool"
            },
            {
              "internalType": "bool",
              "name": "lockVotingUnitChanges",
              "type": "bool"
            },
            {
              "internalType": "bool",
              "name": "lockManualMintingChanges",
              "type": "bool"
            }
          ],
          "internalType": "struct JBTiered721Flags",
          "name": "_flags",
          "type": "tuple"
        }
      ],
      "name": "recordFlags",
      "outputs": [],
      "stateMutability": "nonpayable",
      "type": "function"
    },
    {
      "inputs": [
        {
          "internalType": "uint256",
          "name": "_amount",
          "type": "uint256"
        },
        {
          "internalType": "uint16[]",
          "name": "_tierIds",
          "type": "uint16[]"
        },
        {
          "internalType": "bool",
          "name": "_isManualMint",
          "type": "bool"
        }
      ],
      "name": "recordMint",
      "outputs": [
        {
          "internalType": "uint256[]",
          "name": "tokenIds",
          "type": "uint256[]"
        },
        {
          "internalType": "uint256",
          "name": "leftoverAmount",
          "type": "uint256"
        }
      ],
      "stateMutability": "nonpayable",
      "type": "function"
    },
    {
      "inputs": [
        {
          "internalType": "uint256",
          "name": "_amount",
          "type": "uint256"
        }
      ],
      "name": "recordMintBestAvailableTier",
      "outputs": [
        {
          "internalType": "uint256",
          "name": "tokenId",
          "type": "uint256"
        },
        {
          "internalType": "uint256",
          "name": "tierId",
          "type": "uint256"
        },
        {
          "internalType": "uint256",
          "name": "leftoverAmount",
          "type": "uint256"
        }
      ],
      "stateMutability": "nonpayable",
      "type": "function"
    },
    {
      "inputs": [
        {
          "internalType": "uint256",
          "name": "_tierId",
          "type": "uint256"
        },
        {
          "internalType": "uint256",
          "name": "_count",
          "type": "uint256"
        }
      ],
      "name": "recordMintReservesFor",
      "outputs": [
        {
          "internalType": "uint256[]",
          "name": "tokenIds",
          "type": "uint256[]"
        }
      ],
      "stateMutability": "nonpayable",
      "type": "function"
    },
    {
      "inputs": [
        {
          "internalType": "uint256[]",
          "name": "_tierIds",
          "type": "uint256[]"
        }
      ],
      "name": "recordRemoveTierIds",
      "outputs": [],
      "stateMutability": "nonpayable",
      "type": "function"
    },
    {
      "inputs": [
        {
          "internalType": "string",
          "name": "_uri",
          "type": "string"
        }
      ],
      "name": "recordSetBaseUri",
      "outputs": [],
      "stateMutability": "nonpayable",
      "type": "function"
    },
    {
      "inputs": [
        {
          "internalType": "string",
          "name": "_uri",
          "type": "string"
        }
      ],
      "name": "recordSetContractUri",
      "outputs": [],
      "stateMutability": "nonpayable",
      "type": "function"
    },
    {
      "inputs": [
        {
          "internalType": "address",
          "name": "_beneficiary",
          "type": "address"
        }
      ],
      "name": "recordSetDefaultReservedTokenBeneficiary",
      "outputs": [],
      "stateMutability": "nonpayable",
      "type": "function"
    },
    {
      "inputs": [
        {
          "internalType": "uint256",
          "name": "_tokenId",
          "type": "uint256"
        },
        {
          "internalType": "address",
          "name": "_owner",
          "type": "address"
        }
      ],
      "name": "recordSetFirstOwnerOf",
      "outputs": [],
      "stateMutability": "nonpayable",
      "type": "function"
    },
    {
      "inputs": [
        {
          "internalType": "contract IJBTokenUriResolver",
          "name": "_resolver",
          "type": "address"
        }
      ],
      "name": "recordSetTokenUriResolver",
      "outputs": [],
      "stateMutability": "nonpayable",
      "type": "function"
    },
    {
      "inputs": [
        {
          "internalType": "uint256",
          "name": "_tierId",
          "type": "uint256"
        },
        {
          "internalType": "address",
          "name": "_from",
          "type": "address"
        },
        {
          "internalType": "address",
          "name": "_to",
          "type": "address"
        }
      ],
      "name": "recordTransferForTier",
      "outputs": [],
      "stateMutability": "nonpayable",
      "type": "function"
    },
    {
      "inputs": [
        {
          "internalType": "address",
          "name": "_nft",
          "type": "address"
        },
        {
          "internalType": "uint256[]",
          "name": "_tokenIds",
          "type": "uint256[]"
        }
      ],
      "name": "redemptionWeightOf",
      "outputs": [
        {
          "internalType": "uint256",
          "name": "weight",
          "type": "uint256"
        }
      ],
      "stateMutability": "view",
      "type": "function"
    },
    {
      "inputs": [
        {
          "internalType": "address",
          "name": "_nft",
          "type": "address"
        },
        {
          "internalType": "uint256",
          "name": "_tierId",
          "type": "uint256"
        }
      ],
      "name": "reservedTokenBeneficiaryOf",
      "outputs": [
        {
          "internalType": "address",
          "name": "",
          "type": "address"
        }
      ],
      "stateMutability": "view",
      "type": "function"
    },
    {
      "inputs": [
        {
          "internalType": "address",
          "name": "_nft",
          "type": "address"
        },
        {
          "internalType": "uint256",
          "name": "_id",
          "type": "uint256"
        }
      ],
      "name": "tier",
      "outputs": [
        {
          "components": [
            {
              "internalType": "uint256",
              "name": "id",
              "type": "uint256"
            },
            {
              "internalType": "uint256",
              "name": "contributionFloor",
              "type": "uint256"
            },
            {
              "internalType": "uint256",
              "name": "lockedUntil",
              "type": "uint256"
            },
            {
              "internalType": "uint256",
              "name": "remainingQuantity",
              "type": "uint256"
            },
            {
              "internalType": "uint256",
              "name": "initialQuantity",
              "type": "uint256"
            },
            {
              "internalType": "uint256",
              "name": "votingUnits",
              "type": "uint256"
            },
            {
              "internalType": "uint256",
              "name": "reservedRate",
              "type": "uint256"
            },
            {
              "internalType": "address",
              "name": "reservedTokenBeneficiary",
              "type": "address"
            },
            {
              "internalType": "bytes32",
              "name": "encodedIPFSUri",
              "type": "bytes32"
            },
            {
              "internalType": "bool",
              "name": "allowManualMint",
              "type": "bool"
            },
            {
              "internalType": "bool",
              "name": "transfersPausable",
              "type": "bool"
            }
          ],
          "internalType": "struct JB721Tier",
          "name": "",
          "type": "tuple"
        }
      ],
      "stateMutability": "view",
      "type": "function"
    },
    {
      "inputs": [
        {
          "internalType": "address",
          "name": "",
          "type": "address"
        },
        {
          "internalType": "address",
          "name": "",
          "type": "address"
        },
        {
          "internalType": "uint256",
          "name": "",
          "type": "uint256"
        }
      ],
      "name": "tierBalanceOf",
      "outputs": [
        {
          "internalType": "uint256",
          "name": "",
          "type": "uint256"
        }
      ],
      "stateMutability": "view",
      "type": "function"
    },
    {
      "inputs": [
        {
          "internalType": "uint256",
          "name": "_tokenId",
          "type": "uint256"
        }
      ],
      "name": "tierIdOfToken",
      "outputs": [
        {
          "internalType": "uint256",
          "name": "",
          "type": "uint256"
        }
      ],
      "stateMutability": "pure",
      "type": "function"
    },
    {
      "inputs": [
        {
          "internalType": "address",
          "name": "_nft",
          "type": "address"
        },
        {
          "internalType": "uint256",
          "name": "_tokenId",
          "type": "uint256"
        }
      ],
      "name": "tierOfTokenId",
      "outputs": [
        {
          "components": [
            {
              "internalType": "uint256",
              "name": "id",
              "type": "uint256"
            },
            {
              "internalType": "uint256",
              "name": "contributionFloor",
              "type": "uint256"
            },
            {
              "internalType": "uint256",
              "name": "lockedUntil",
              "type": "uint256"
            },
            {
              "internalType": "uint256",
              "name": "remainingQuantity",
              "type": "uint256"
            },
            {
              "internalType": "uint256",
              "name": "initialQuantity",
              "type": "uint256"
            },
            {
              "internalType": "uint256",
              "name": "votingUnits",
              "type": "uint256"
            },
            {
              "internalType": "uint256",
              "name": "reservedRate",
              "type": "uint256"
            },
            {
              "internalType": "address",
              "name": "reservedTokenBeneficiary",
              "type": "address"
            },
            {
              "internalType": "bytes32",
              "name": "encodedIPFSUri",
              "type": "bytes32"
            },
            {
              "internalType": "bool",
              "name": "allowManualMint",
              "type": "bool"
            },
            {
              "internalType": "bool",
              "name": "transfersPausable",
              "type": "bool"
            }
          ],
          "internalType": "struct JB721Tier",
          "name": "",
          "type": "tuple"
        }
      ],
      "stateMutability": "view",
      "type": "function"
    },
    {
      "inputs": [
        {
          "internalType": "address",
          "name": "_nft",
          "type": "address"
        },
        {
          "internalType": "address",
          "name": "_account",
          "type": "address"
        },
        {
          "internalType": "uint256",
          "name": "_tierId",
          "type": "uint256"
        }
      ],
      "name": "tierVotingUnitsOf",
      "outputs": [
        {
          "internalType": "uint256",
          "name": "",
          "type": "uint256"
        }
      ],
      "stateMutability": "view",
      "type": "function"
    },
    {
      "inputs": [
        {
          "internalType": "address",
          "name": "_nft",
          "type": "address"
        },
        {
          "internalType": "uint256",
          "name": "_startingId",
          "type": "uint256"
        },
        {
          "internalType": "uint256",
          "name": "_size",
          "type": "uint256"
        }
      ],
      "name": "tiers",
      "outputs": [
        {
          "components": [
            {
              "internalType": "uint256",
              "name": "id",
              "type": "uint256"
            },
            {
              "internalType": "uint256",
              "name": "contributionFloor",
              "type": "uint256"
            },
            {
              "internalType": "uint256",
              "name": "lockedUntil",
              "type": "uint256"
            },
            {
              "internalType": "uint256",
              "name": "remainingQuantity",
              "type": "uint256"
            },
            {
              "internalType": "uint256",
              "name": "initialQuantity",
              "type": "uint256"
            },
            {
              "internalType": "uint256",
              "name": "votingUnits",
              "type": "uint256"
            },
            {
              "internalType": "uint256",
              "name": "reservedRate",
              "type": "uint256"
            },
            {
              "internalType": "address",
              "name": "reservedTokenBeneficiary",
              "type": "address"
            },
            {
              "internalType": "bytes32",
              "name": "encodedIPFSUri",
              "type": "bytes32"
            },
            {
              "internalType": "bool",
              "name": "allowManualMint",
              "type": "bool"
            },
            {
              "internalType": "bool",
              "name": "transfersPausable",
              "type": "bool"
            }
          ],
          "internalType": "struct JB721Tier[]",
          "name": "_tiers",
          "type": "tuple[]"
        }
      ],
      "stateMutability": "view",
      "type": "function"
    },
    {
      "inputs": [
        {
          "internalType": "address",
          "name": "",
          "type": "address"
        }
      ],
      "name": "tokenUriResolverOf",
      "outputs": [
        {
          "internalType": "contract IJBTokenUriResolver",
          "name": "",
          "type": "address"
        }
      ],
      "stateMutability": "view",
      "type": "function"
    },
    {
      "inputs": [
        {
          "internalType": "address",
          "name": "_nft",
          "type": "address"
        }
      ],
      "name": "totalRedemptionWeight",
      "outputs": [
        {
          "internalType": "uint256",
          "name": "weight",
          "type": "uint256"
        }
      ],
      "stateMutability": "view",
      "type": "function"
    },
    {
      "inputs": [
        {
          "internalType": "address",
          "name": "_nft",
          "type": "address"
        }
      ],
      "name": "totalSupply",
      "outputs": [
        {
          "internalType": "uint256",
          "name": "supply",
          "type": "uint256"
        }
      ],
      "stateMutability": "view",
      "type": "function"
    },
    {
      "inputs": [
        {
          "internalType": "address",
          "name": "_nft",
          "type": "address"
        },
        {
          "internalType": "address",
          "name": "_account",
          "type": "address"
        }
      ],
      "name": "votingUnitsOf",
      "outputs": [
        {
          "internalType": "uint256",
          "name": "units",
          "type": "uint256"
        }
      ],
      "stateMutability": "view",
      "type": "function"
    }
  ],
  "bytecode": {
    "object": "0x608060405234801561001057600080fd5b506137bc806100206000396000f3fe608060405234801561001057600080fd5b506004361061023d5760003560e01c8063879791f31161013b578063c8df1710116100b8578063eaa19ab31161007c578063eaa19ab314610719578063eadd8b371461073a578063f1bea54f1461074d578063f682eeaf1461076d578063f7888aec1461078057600080fd5b8063c8df171014610690578063cdb0af6d146106a3578063d67b78fd146106b6578063d84a72c0146106c9578063e4dc2aa41461070657600080fd5b8063aab0cd80116100ff578063aab0cd80146105ff578063b67cb0471461061f578063baa7e80e14610632578063bd51923c14610652578063c2c55f941461067d57600080fd5b8063879791f3146105185780638cec7d39146105465780638ed6c0101461058f578063911c80b5146105c357806393355578146105ec57600080fd5b806335314b92116101c95780636262bcb21161018d5780636262bcb21461040c5780636825bb801461041f5780637473c9a21461044a578063845104de1461046a57806386bc2be31461050557600080fd5b806335314b921461037257806337f44652146103855780633eb2556a146103b657806342f9914b146103d65780635f646611146103e957600080fd5b806317161f7d1161021057806317161f7d146102d157806320512ba11461030e5780632ae5e492146103215780632b7e6ef0146103345780632e4d0ea81461035f57600080fd5b8063086bb19a146102425780630fab094714610257578063136e651c1461029d578063144cc2d4146102b0575b600080fd5b610255610250366004612d80565b610793565b005b610280610265366004612d80565b600d602052600090815260409020546001600160a01b031681565b6040516001600160a01b0390911681526020015b60405180910390f35b6102806102ab366004612d9d565b610926565b6102c36102be366004612e15565b61097f565b604051908152602001610294565b6102556102df366004612d80565b336000908152600a6020526040902080546001600160a01b0319166001600160a01b0392909216919091179055565b61025561031c366004612e6a565b6109fd565b6102c361032f366004612d80565b610a9c565b6102c3610342366004612d9d565b600960209081526000928352604080842090915290825290205481565b6102c361036d366004612eac565b610bf4565b6102c3610380366004612d9d565b610c79565b6102c3610393366004612eac565b600760209081526000938452604080852082529284528284209052825290205481565b6103c96103c4366004612eed565b610d3d565b6040516102949190612fa3565b6102c36103e4366004612ff2565b6110be565b6103fc6103f7366004612d9d565b6110ce565b6040519015158152602001610294565b61025561041a36600461300b565b611106565b6102c361042d366004612d9d565b600860209081526000928352604080842090915290825290205481565b61045d610458366004612d9d565b611125565b604051610294919061307d565b6104dd610478366004612d80565b6040805160608082018352600080835260208084018290529284018190526001600160a01b039490941684526003825292829020825193840183525460ff80821615158552610100820481161515928501929092526201000090041615159082015290565b6040805182511515815260208084015115159082015291810151151590820152606001610294565b610255610513366004612e6a565b611367565b61052b610526366004612ff2565b61142b565b60408051938452602084019290925290820152606001610294565b61025561055436600461308c565b336000908152600b602090815260408083209483529390529190912080546001600160a01b0319166001600160a01b03909216919091179055565b61028061059d366004612d9d565b600b6020908152600092835260408084209091529082529020546001600160a01b031681565b6102806105d1366004612d80565b600a602052600090815260409020546001600160a01b031681565b6102c36105fa3660046130bc565b6116ad565b61061261060d366004612d80565b61175d565b60405161029491906130ea565b61045d61062d366004612d9d565b6117f7565b610645610640366004613138565b611a5e565b6040516102949190613195565b6102c3610660366004612d9d565b600f60209081526000928352604080842090915290825290205481565b61025561068b3660046131a8565b611c87565b6102c361069e366004612d9d565b611d1a565b6102556106b13660046131ea565b611d53565b6102556106c436600461300b565b611d6e565b6102556106d7366004612d80565b336000908152600d6020526040902080546001600160a01b0319166001600160a01b0392909216919091179055565b6102c3610714366004612d80565b611d88565b61072c61072736600461321b565b611e10565b60405161029492919061327a565b61064561074836600461329c565b612167565b6102c361075b366004612d80565b60066020526000908152604090205481565b61061261077b366004612d80565b612977565b6102c361078e3660046130bc565b612990565b600061079e826129fc565b905060006107ab83612a3d565b6001600160a01b03841660009081526004602052604081209192509081906107d39084612a6f565b90505b82156108e1576107e68184612ab5565b15610810576001600160a01b038516600090815260046020526040902061080d9084612a6f565b90505b61081a8184612acf565b6108cf57610829826001613316565b8314610881576001600160a01b038516600090815260208181526040808320858452909152902054831461087c576001600160a01b03851660009081526020818152604080832085845290915290208390555b6108cb565b6001600160a01b038516600090815260208181526040808320858452909152902054156108cb576001600160a01b0385166000908152602081815260408083208584529091528120555b8291505b6108da858486612aee565b92506107d6565b6040513381526001600160a01b038616907f4a0f854ce3c180d56f3e9eb47eb064c595bf3de0ab9af45425291e5b1bb733a89060200160405180910390a25050505050565b6001600160a01b038083166000908152600160209081526040808320858452909152812054909116801561095b579050610979565b50506001600160a01b038083166000908152600a6020526040902054165b92915050565b600081815b818110156109f4576001600160a01b0386166000908152600260205260408120906109c68787858181106109ba576109ba613329565b905060200201356110be565b81526020810191909152604001600020546109ea906001600160501b031684613316565b9250600101610984565b50509392505050565b806000805b82811015610a9557848482818110610a1c57610a1c613329565b336000908152600260209081526040808320938202959095013580835292905292909220549193505042600160501b90910465ffffffffffff1610610a7457604051636b73d51160e11b815260040160405180910390fd5b336000908152600460205260409020610a8d9083612b39565b600101610a02565b5050505050565b6001600160a01b038116600090815260066020526040812054610abd612caf565b60005b82811015610bec576001600160a01b0385166000908152600260209081526040808320600180860185529083529281902081516101008101835290546001600160501b038116825265ffffffffffff600160501b8204169382019390935264ffffffffff600160801b8404811692820192909252600160a81b8304909116606082015261ffff600160d01b830481166080830152600160e01b83041660a082015260ff600160f01b83048116151560c0830152600160f81b909204909116151560e08201529250610b9e908690610b98908490613316565b84612b72565b82604001518360600151610bb2919061333f565b64ffffffffff16610bc39190613316565b8251610bd891906001600160501b0316613364565b610be29085613316565b9350600101610ac0565b505050919050565b6001600160a01b0380841660009081526007602090815260408083209386168352928152828220848352905290812054808203610c35576000915050610c72565b6001600160a01b0385166000908152600260209081526040808320868452909152902054610c6e90600160d01b900461ffff1682613364565b9150505b9392505050565b6001600160a01b0382166000908152600260209081526040808320848452825280832081516101008101835290546001600160501b038116825265ffffffffffff600160501b8204169382019390935264ffffffffff600160801b8404811692820192909252600160a81b8304909116606082015261ffff600160d01b830481166080830152600160e01b83041660a082015260ff600160f01b83048116151560c0830152600160f81b909204909116151560e0820152610c729084908490612b72565b60606000610d4a856129fc565b90508267ffffffffffffffff811115610d6557610d65613383565b604051908082528060200260200182016040528015610d9e57816020015b610d8b612cf3565b815260200190600190039081610d835790505b50915060008085600003610dba57610db587612a3d565b610dbc565b855b9050610dc6612caf565b6001600160a01b0388166000908152600460205260408120610de89084612a6f565b90505b8215801590610df957508684105b156110a757610e088184612ab5565b15610e32576001600160a01b0389166000908152600460205260409020610e2f9084612a6f565b90505b610e3c8184612acf565b61109557600260008a6001600160a01b03166001600160a01b031681526020019081526020016000206000848152602001908152602001600020604051806101000160405290816000820160009054906101000a90046001600160501b03166001600160501b03166001600160501b0316815260200160008201600a9054906101000a900465ffffffffffff1665ffffffffffff1665ffffffffffff1681526020016000820160109054906101000a900464ffffffffff1664ffffffffff1664ffffffffff1681526020016000820160159054906101000a900464ffffffffff1664ffffffffff1664ffffffffff16815260200160008201601a9054906101000a900461ffff1661ffff1661ffff16815260200160008201601c9054906101000a900461ffff1661ffff1661ffff16815260200160008201601e9054906101000a900460ff1615151515815260200160008201601f9054906101000a900460ff161515151581525050915060405180610160016040528084815260200183600001516001600160501b03168152602001836020015165ffffffffffff168152602001836040015164ffffffffff168152602001836060015164ffffffffff168152602001836080015161ffff1681526020018360a0015161ffff1681526020016110268b86610926565b6001600160a01b0390811682528b166000908152600f60209081526040808320888452825291829020549083015260c085015115159082015260e08401511515606090910152868561107781613399565b96508151811061108957611089613329565b60200260200101819052505b6110a0898487612aee565b9250610deb565b8684146110b2578386525b50505050509392505050565b6000610979633b9aca00836133c8565b6001600160a01b038216600090815260046020526040812081906110f29084612a6f565b90506110fe8184612acf565b949350505050565b336000908152600c6020526040902061112082848361345e565b505050565b61112d612cf3565b600060026000856001600160a01b03166001600160a01b031681526020019081526020016000206000848152602001908152602001600020604051806101000160405290816000820160009054906101000a90046001600160501b03166001600160501b03166001600160501b0316815260200160008201600a9054906101000a900465ffffffffffff1665ffffffffffff1665ffffffffffff1681526020016000820160109054906101000a900464ffffffffff1664ffffffffff1664ffffffffff1681526020016000820160159054906101000a900464ffffffffff1664ffffffffff1664ffffffffff16815260200160008201601a9054906101000a900461ffff1661ffff1661ffff16815260200160008201601c9054906101000a900461ffff1661ffff1661ffff16815260200160008201601e9054906101000a900460ff1615151515815260200160008201601f9054906101000a900460ff161515151581525050905060405180610160016040528084815260200182600001516001600160501b03168152602001826020015165ffffffffffff168152602001826040015164ffffffffff168152602001826060015164ffffffffff168152602001826080015161ffff1681526020018260a0015161ffff1681526020016113158686610926565b6001600160a01b03908116825286166000908152600f60209081526040808320888452825291829020549083015260c084015115159082015260e0909201511515606090920191909152905092915050565b806000805b82811015610a955784848281811061138657611386613329565b905060200201359150600061139a836110be565b33600090815260096020908152604080832084845290915281208054929350906113c383613399565b909155505033600090815260026020908152604080832084845290915290208054600160801b900464ffffffffff169060106113fe8361351e565b91906101000a81548164ffffffffff021916908364ffffffffff160217905550508160010191505061136c565b33600090815260066020526040812054819081908103611453575060009150819050826116a6565b600061145e336129fc565b9050611468612caf565b600061147333612a3d565b3360009081526004602052604081209192509081906114929084612a6f565b90505b82156116065733600090815260026020908152604080832086845282529182902082516101008101845290546001600160501b038116825265ffffffffffff600160501b8204169282019290925264ffffffffff600160801b8304811693820193909352600160a81b8204909216606083015261ffff600160d01b820481166080840152600160e01b82041660a083015260ff600160f01b82048116151560c0840152600160f81b90910416151560e082015293506115548184612ab5565b15611575573360009081526004602052604090206115729084612a6f565b90505b83516001600160501b03168910156115905760009250611495565b61159a8184612acf565b1580156115b0575083516001600160501b031682105b80156115db57506115c2338486612b72565b846040015164ffffffffff166115d89190613542565b15155b156115f45782965083600001516001600160501b031691505b6115ff338487612aee565b9250611495565b86600003611616578895506116a0565b3360008181526002602090815260408083208b84528252808320938352600982528083208b8452909152902054815460001964ffffffffff600160801b808404821692830182160264ffffffffff60801b1990931692909217808555611690938c93600160a81b9092048216929092036001011601612c94565b985061169c838b613542565b9650505b50505050505b9193909250565b6001600160a01b03821660009081526006602052604081205481815b8015611754576001600160a01b0380871660009081526007602090815260408083209389168352928152828220848352905220549150811561174b576001600160a01b038616600090815260026020908152604080832084845290915290205461173e90600160d01b900461ffff1683613364565b6117489085613316565b93505b600019016116c9565b50505092915050565b600e6020526000908152604090208054611776906133dc565b80601f01602080910402602001604051908101604052809291908181526020018280546117a2906133dc565b80156117ef5780601f106117c4576101008083540402835291602001916117ef565b820191906000526020600020905b8154815290600101906020018083116117d257829003601f168201915b505050505081565b6117ff612cf3565b600061180a836110be565b9050600060026000866001600160a01b03166001600160a01b031681526020019081526020016000206000838152602001908152602001600020604051806101000160405290816000820160009054906101000a90046001600160501b03166001600160501b03166001600160501b0316815260200160008201600a9054906101000a900465ffffffffffff1665ffffffffffff1665ffffffffffff1681526020016000820160109054906101000a900464ffffffffff1664ffffffffff1664ffffffffff1681526020016000820160159054906101000a900464ffffffffff1664ffffffffff1664ffffffffff16815260200160008201601a9054906101000a900461ffff1661ffff1661ffff16815260200160008201601c9054906101000a900461ffff1661ffff1661ffff16815260200160008201601e9054906101000a900460ff1615151515815260200160008201601f9054906101000a900460ff161515151581525050905060405180610160016040528083815260200182600001516001600160501b03168152602001826020015165ffffffffffff168152602001826040015164ffffffffff168152602001826060015164ffffffffff168152602001826080015161ffff1681526020018260a0015161ffff1681526020016119f48785610926565b6001600160a01b03168152602001600f6000886001600160a01b03166001600160a01b0316815260200190815260200160002060008581526020019081526020016000205481526020018260c00151151581526020018260e0015115158152509250505092915050565b336000818152600260209081526040808320868452825280832081516101008101835281546001600160501b038116825265ffffffffffff600160501b8204169482019490945264ffffffffff600160801b8504811693820193909352600160a81b840490921660608381019190915261ffff600160d01b850481166080850152600160e01b85041660a084015260ff600160f01b85048116151560c0850152600160f81b909404909316151560e08301529193919291611b20918790612b72565b905080841115611b435760405163226f999960e11b815260040160405180910390fd5b33600090815260086020908152604080832088845290915281208054869290611b6d908490613316565b9091555084905067ffffffffffffffff811115611b8c57611b8c613383565b604051908082528060200260200182016040528015611bb5578160200160208202803683370190505b503360009081526009602090815260408083208984529091528120549194505b85811015611c7d57611c58878386600001601081819054906101000a900464ffffffffff16611c0390613555565b91906101000a81548164ffffffffff021916908364ffffffffff16021790558760000160159054906101000a900464ffffffffff16611c42919061333f565b64ffffffffff16611c539190613316565b612c94565b858281518110611c6a57611c6a613329565b6020908102919091010152600101611bd5565b5050505092915050565b6001600160a01b03821615611cd4573360009081526007602090815260408083206001600160a01b0386168452825280832086845290915281208054909190611ccf90613576565b909155505b6001600160a01b03811615611120573360009081526007602090815260408083206001600160a01b03851684528252808320868452909152902080546001019055505050565b6001600160a01b0382166000908152600f6020526040812081611d3c846110be565b815260200190815260200160002054905092915050565b3360009081526003602052604090208190611120828261358d565b336000908152600e6020526040902061112082848361345e565b6001600160a01b0381166000908152600660205260408120548190805b8015610bec576001600160a01b038516600090815260026020908152604080832084845290915290208054909350611df49064ffffffffff600160801b8204811691600160a81b90041661333f565b611e059064ffffffffff1685613316565b935060001901611da5565b606084836000808267ffffffffffffffff811115611e3057611e30613383565b604051908082528060200260200182016040528015611e59578160200160208202803683370190505b5094506000611ea289896000818110611e7457611e74613329565b9050602002016020810190611e89919061360f565b3360009081526004602052604090209061ffff16612a6f565b905060005b8481101561215957898982818110611ec157611ec1613329565b9050602002016020810190611ed6919061360f565b61ffff169250611ee68284612ab5565b15611f0757336000908152600460205260409020611f049084612a6f565b91505b611f118284612acf565b15611f2f5760405163d32cb5c160e01b815260040160405180910390fd5b33600090815260026020908152604080832086845290915290209350878015611f6157508354600160f01b900460ff16155b15611f7f57604051632f792d3960e11b815260040160405180910390fd5b8354600160a81b900464ffffffffff16600003611faf57604051630de5859f60e01b815260040160405180910390fd5b83546001600160501b0316861015611fda57604051632cd294cf60e01b815260040160405180910390fd5b604080516101008101825285546001600160501b038116825265ffffffffffff600160501b820416602083015264ffffffffff600160801b8204811693830193909352600160a81b8104909216606082015261ffff600160d01b830481166080830152600160e01b83041660a082015260ff600160f01b83048116151560c0830152600160f81b909204909116151560e082015261207b9033908590612b72565b84546120959190600160801b900464ffffffffff16613542565b6000036120b55760405163985a45d960e01b815260040160405180910390fd5b336000908152600960209081526040808320868452909152902054845460001964ffffffffff600160801b808404821692830182160264ffffffffff60801b199093169290921780885561211d938793600160a81b9092048216929092036001011601612c94565b87828151811061212f5761212f613329565b6020908102919091010152835461214f906001600160501b031687613542565b9550600101611ea7565b505050505094509492505050565b33600090815260066020526040902054606090829061ffff6121898383613316565b11156121a857604051631bc68c8b60e11b815260040160405180910390fd5b60006121b3336129fc565b90508267ffffffffffffffff8111156121ce576121ce613383565b6040519080825280602002602001820160405280156121f7578160200160208202803683370190505b509350600082156122105761220b33612a3d565b612213565b60005b6040805161014081018252600080825260208201819052918101829052606081018290526080810182905260a0810182905260c0810182905260e0810182905261010081018290526101208101829052919250903360009081526003602090815260408083208151606081018352905460ff8082161515835261010082048116151594830194909452620100009004909216151590820152905b8781101561294e578a8a828181106122c7576122c7613329565b905061014002018036038101906122de9190613696565b92506122ef6001633b9aca00613542565b836040015164ffffffffff16111561231a576040516349016ea360e01b815260040160405180910390fd5b801580159061237057508a8a612331600184613542565b81811061234057612340613329565b612357926020610140909202019081019150613757565b6001600160501b031683600001516001600160501b0316105b1561238e576040516325ec4a9160e21b815260040160405180910390fd5b816020015180156123a65750606083015161ffff1615155b156123c457604051630189200360e11b815260040160405180910390fd5b8151806123d257508260e001515b80156123e55750608083015161ffff1615155b156124035760405163a75b1cd560e01b815260040160405180910390fd5b8160400151801561241557508260e001515b15612433576040516330ec637f60e01b815260040160405180910390fd5b826040015164ffffffffff1660000361245f57604051631e0a863160e31b815260040160405180910390fd5b600061246b8289613316565b612476906001613316565b905060405180610100016040528085600001516001600160501b03168152602001856020015165ffffffffffff168152602001856040015164ffffffffff168152602001856040015164ffffffffff168152602001856060015161ffff168152602001856080015161ffff1681526020018560e0015115158152602001856101200151151581525060026000336001600160a01b03166001600160a01b03168152602001908152602001600020600083815260200190815260200160002060008201518160000160006101000a8154816001600160501b0302191690836001600160501b03160217905550602082015181600001600a6101000a81548165ffffffffffff021916908365ffffffffffff16021790555060408201518160000160106101000a81548164ffffffffff021916908364ffffffffff16021790555060608201518160000160156101000a81548164ffffffffff021916908364ffffffffff160217905550608082015181600001601a6101000a81548161ffff021916908361ffff16021790555060a082015181600001601c6101000a81548161ffff021916908361ffff16021790555060c082015181600001601e6101000a81548160ff02191690831515021790555060e082015181600001601f6101000a81548160ff02191690831515021790555090505060006001600160a01b03168460a001516001600160a01b03161461270357836101000151156126c65760a0840151336000908152600a6020526040902080546001600160a01b0319166001600160a01b03909216919091179055612703565b60a0840151336000908152600160209081526040808320858452909152902080546001600160a01b0319166001600160a01b039092169190911790555b60c08401511561272e5760c0840151336000908152600f602090815260408083208584529091529020555b8515612927573360009081526004602052604081208791906127509083612a6f565b905060005b8215612923576127658284612ab5565b15612786573360009081526004602052604090206127839084612a6f565b91505b61279133848c612aee565b33600090815260026020908152604080832087845290915290205488519192506001600160501b03908116911610156128a9576127cf846001613316565b83146127f1573360009081526020818152604080832087845290915290208390555b6127fc60018d613542565b851480156128195750336000908152600560205260409020548a14155b15612831573360009081526005602052604090208a90555b61283c600185613542565b881415806128615750336000908152602081815260408083208b845290915290205415155b1561289a57612871600185613542565b881461287d5783612880565b60005b336000908152602081815260408083208c84529091529020555b82985083975060009250612755565b8015806128b557508a81115b1561291a576128c5836001613316565b84146128e7573360009081526020818152604080832086845290915290208490555b3360009081526005602052604081205494995089949093501561291557336000908152600560205260408120555b612755565b91965081612755565b5050505b808a838151811061293a5761293a613329565b6020908102919091010152506001016122ad565b506129598787613316565b33600090815260066020526040902055509598975050505050505050565b600c6020526000908152604090208054611776906133dc565b6001600160a01b038216600090815260066020526040812054805b80156129f4576001600160a01b0380861660009081526007602090815260408083209388168352928152828220848352905220546129e99084613316565b9250600019016129ab565b505092915050565b6001600160a01b03811660009081526005602052604081205490819003612a3857506001600160a01b0381166000908152600660205260409020545b919050565b6001600160a01b03811660009081526020818152604080832083805290915281205490819003612a3857506001919050565b60408051808201909152600080825260208201526000612a8f8360081c90565b604080518082018252600083815260209788529190912054815294850152509192915050565b60008260200151612ac68360081c90565b14159392505050565b6000612add61010083613772565b83516001911c811614905092915050565b6000818303612aff57506000610c72565b6001600160a01b0384166000908152602081815260408083208684529091529020548015612b2e579050610c72565b610c6e846001613316565b6000612b458260081c90565b9050612b5361010083613772565b6000918252602093909352604090208054600190931b90921790915550565b60008160a0015161ffff1660001480612ba05750816040015164ffffffffff16826060015164ffffffffff16145b15612bad57506000610c72565b6001600160a01b0384166000908152600860209081526040808320868452909152908190205490830151606084015164ffffffffff91821691612bf291849116613542565b03612c01576000915050610c72565b60008184604001518560600151612c18919061333f565b64ffffffffff16612c299190613542565b905060008460a0015161ffff1682612c4191906133c8565b905060008560a0015161ffff1683612c599190613772565b1115612c6b57612c6881613399565b90505b80831115612c7f5760009350505050610c72565b612c898382613542565b979650505050505050565b600081612ca5633b9aca0085613364565b610c729190613316565b6040805161010081018252600080825260208201819052918101829052606081018290526080810182905260a0810182905260c0810182905260e081019190915290565b6040518061016001604052806000815260200160008152602001600081526020016000815260200160008152602001600081526020016000815260200160006001600160a01b03168152602001600080191681526020016000151581526020016000151581525090565b6001600160a01b0381168114612d7257600080fd5b50565b8035612a3881612d5d565b600060208284031215612d9257600080fd5b8135610c7281612d5d565b60008060408385031215612db057600080fd5b8235612dbb81612d5d565b946020939093013593505050565b60008083601f840112612ddb57600080fd5b50813567ffffffffffffffff811115612df357600080fd5b6020830191508360208260051b8501011115612e0e57600080fd5b9250929050565b600080600060408486031215612e2a57600080fd5b8335612e3581612d5d565b9250602084013567ffffffffffffffff811115612e5157600080fd5b612e5d86828701612dc9565b9497909650939450505050565b60008060208385031215612e7d57600080fd5b823567ffffffffffffffff811115612e9457600080fd5b612ea085828601612dc9565b90969095509350505050565b600080600060608486031215612ec157600080fd5b8335612ecc81612d5d565b92506020840135612edc81612d5d565b929592945050506040919091013590565b600080600060608486031215612f0257600080fd5b8335612f0d81612d5d565b95602085013595506040909401359392505050565b805182526020810151602083015260408101516040830152606081015160608301526080810151608083015260a081015160a083015260c081015160c083015260e0810151612f7c60e08401826001600160a01b03169052565b50610100818101519083015261012080820151151590830152610140908101511515910152565b6020808252825182820181905260009190848201906040850190845b81811015612fe657612fd2838551612f22565b928401926101609290920191600101612fbf565b50909695505050505050565b60006020828403121561300457600080fd5b5035919050565b6000806020838503121561301e57600080fd5b823567ffffffffffffffff8082111561303657600080fd5b818501915085601f83011261304a57600080fd5b81358181111561305957600080fd5b86602082850101111561306b57600080fd5b60209290920196919550909350505050565b61016081016109798284612f22565b6000806040838503121561309f57600080fd5b8235915060208301356130b181612d5d565b809150509250929050565b600080604083850312156130cf57600080fd5b82356130da81612d5d565b915060208301356130b181612d5d565b600060208083528351808285015260005b81811015613117578581018301518582016040015282016130fb565b506000604082860101526040601f19601f8301168501019250505092915050565b6000806040838503121561314b57600080fd5b50508035926020909101359150565b600081518084526020808501945080840160005b8381101561318a5781518752958201959082019060010161316e565b509495945050505050565b602081526000610c72602083018461315a565b6000806000606084860312156131bd57600080fd5b8335925060208401356131cf81612d5d565b915060408401356131df81612d5d565b809150509250925092565b6000606082840312156131fc57600080fd5b50919050565b8015158114612d7257600080fd5b8035612a3881613202565b6000806000806060858703121561323157600080fd5b84359350602085013567ffffffffffffffff81111561324f57600080fd5b61325b87828801612dc9565b909450925050604085013561326f81613202565b939692955090935050565b60408152600061328d604083018561315a565b90508260208301529392505050565b600080602083850312156132af57600080fd5b823567ffffffffffffffff808211156132c757600080fd5b818501915085601f8301126132db57600080fd5b8135818111156132ea57600080fd5b8660206101408302850101111561306b57600080fd5b634e487b7160e01b600052601160045260246000fd5b8082018082111561097957610979613300565b634e487b7160e01b600052603260045260246000fd5b64ffffffffff82811682821603908082111561335d5761335d613300565b5092915050565b600081600019048311821515161561337e5761337e613300565b500290565b634e487b7160e01b600052604160045260246000fd5b6000600182016133ab576133ab613300565b5060010190565b634e487b7160e01b600052601260045260246000fd5b6000826133d7576133d76133b2565b500490565b600181811c908216806133f057607f821691505b6020821081036131fc57634e487b7160e01b600052602260045260246000fd5b601f82111561112057600081815260208120601f850160051c810160208610156134375750805b601f850160051c820191505b8181101561345657828155600101613443565b505050505050565b67ffffffffffffffff83111561347657613476613383565b61348a8361348483546133dc565b83613410565b6000601f8411600181146134be57600085156134a65750838201355b600019600387901b1c1916600186901b178355610a95565b600083815260209020601f19861690835b828110156134ef57868501358255602094850194600190920191016134cf565b508682101561350c5760001960f88860031b161c19848701351681555b505060018560011b0183555050505050565b600064ffffffffff80831681810361353857613538613300565b6001019392505050565b8181038181111561097957610979613300565b600064ffffffffff82168061356c5761356c613300565b6000190192915050565b60008161358557613585613300565b506000190190565b813561359881613202565b815460ff19811691151560ff16918217835560208401356135b881613202565b61ff0090151560081b1661ffff19821683178117845560408501356135dc81613202565b62ffffff19929092169092179190911790151560101b62ff00001617905550565b803561ffff81168114612a3857600080fd5b60006020828403121561362157600080fd5b610c72826135fd565b604051610140810167ffffffffffffffff8111828210171561364e5761364e613383565b60405290565b80356001600160501b0381168114612a3857600080fd5b803565ffffffffffff81168114612a3857600080fd5b803564ffffffffff81168114612a3857600080fd5b600061014082840312156136a957600080fd5b6136b161362a565b6136ba83613654565b81526136c86020840161366b565b60208201526136d960408401613681565b60408201526136ea606084016135fd565b60608201526136fb608084016135fd565b608082015261370c60a08401612d75565b60a082015260c083013560c082015261372760e08401613210565b60e082015261010061373a818501613210565b9082015261012061374c848201613210565b908201529392505050565b60006020828403121561376957600080fd5b610c7282613654565b600082613781576137816133b2565b50069056fea26469706673582212207675c7f351bcbe938dc2ef35954eaf20f81cba64fbec1abe65295e9ea52a007964736f6c63430008100033",
    "linkReferences": {}
  },
  "methodIdentifiers": {
    "balanceOf(address,address)": "f7888aec",
    "baseUriOf(address)": "f682eeaf",
    "cleanTiers(address)": "086bb19a",
    "contractUriOf(address)": "aab0cd80",
    "defaultReservedTokenBeneficiaryOf(address)": "911c80b5",
    "encodedIPFSUriOf(address,uint256)": "bd51923c",
    "encodedTierIPFSUriOf(address,uint256)": "c8df1710",
    "firstOwnerOf(address,uint256)": "8ed6c010",
    "flagsOf(address)": "845104de",
    "isTierRemoved(address,uint256)": "5f646611",
    "maxTierIdOf(address)": "f1bea54f",
    "numberOfBurnedFor(address,uint256)": "2b7e6ef0",
    "numberOfReservedTokensOutstandingFor(address,uint256)": "35314b92",
    "numberOfReservesMintedFor(address,uint256)": "6825bb80",
    "recordAddTiers((uint80,uint48,uint40,uint16,uint16,address,bytes32,bool,bool,bool)[])": "eadd8b37",
    "recordBurn(uint256[])": "86bc2be3",
    "recordFlags((bool,bool,bool))": "cdb0af6d",
    "recordMint(uint256,uint16[],bool)": "eaa19ab3",
    "recordMintBestAvailableTier(uint256)": "879791f3",
    "recordMintReservesFor(uint256,uint256)": "baa7e80e",
    "recordRemoveTierIds(uint256[])": "20512ba1",
    "recordSetBaseUri(string)": "6262bcb2",
    "recordSetContractUri(string)": "d67b78fd",
    "recordSetDefaultReservedTokenBeneficiary(address)": "17161f7d",
    "recordSetFirstOwnerOf(uint256,address)": "8cec7d39",
    "recordSetTokenUriResolver(address)": "d84a72c0",
    "recordTransferForTier(uint256,address,address)": "c2c55f94",
    "redemptionWeightOf(address,uint256[])": "144cc2d4",
    "reservedTokenBeneficiaryOf(address,uint256)": "136e651c",
    "tier(address,uint256)": "7473c9a2",
    "tierBalanceOf(address,address,uint256)": "37f44652",
    "tierIdOfToken(uint256)": "42f9914b",
    "tierOfTokenId(address,uint256)": "b67cb047",
    "tierVotingUnitsOf(address,address,uint256)": "2e4d0ea8",
    "tiers(address,uint256,uint256)": "3eb2556a",
    "tokenUriResolverOf(address)": "0fab0947",
    "totalRedemptionWeight(address)": "2ae5e492",
    "totalSupply(address)": "e4dc2aa4",
    "votingUnitsOf(address,address)": "93355578"
  },
  "id": 30
}