{
  "abi": [
    {
      "inputs": [],
      "name": "ALEADY_MINTED",
      "type": "error"
    },
    {
      "inputs": [],
      "name": "APPROVAL_TO_CURRENT_OWNER",
      "type": "error"
    },
    {
      "inputs": [],
      "name": "APPROVE_TO_CALLER",
      "type": "error"
    },
    {
      "inputs": [],
      "name": "BLOCK_NOT_YET_MINED",
      "type": "error"
    },
    {
      "inputs": [],
      "name": "CALLER_NOT_OWNER_OR_APPROVED",
      "type": "error"
    },
    {
      "inputs": [],
      "name": "DELEGATE_ADDRESS_ZERO",
      "type": "error"
    },
    {
      "inputs": [],
      "name": "GAME_ISNT_OVER_YET",
      "type": "error"
    },
    {
      "inputs": [],
      "name": "INCORRECT_OWNER",
      "type": "error"
    },
    {
      "inputs": [],
      "name": "INVALID_PAYMENT_EVENT",
      "type": "error"
    },
    {
      "inputs": [],
      "name": "INVALID_REDEMPTION_EVENT",
      "type": "error"
    },
    {
      "inputs": [],
      "name": "INVALID_REDEMPTION_METADATA",
      "type": "error"
    },
    {
      "inputs": [],
      "name": "INVALID_REDEMPTION_WEIGHTS",
      "type": "error"
    },
    {
      "inputs": [],
      "name": "INVALID_TIER_ID",
      "type": "error"
    },
    {
      "inputs": [],
      "name": "INVALID_TOKEN_ID",
      "type": "error"
    },
    {
      "inputs": [],
      "name": "MINT_TO_ZERO",
      "type": "error"
    },
    {
      "inputs": [],
      "name": "NOTHING_TO_CLAIM",
      "type": "error"
    },
    {
      "inputs": [],
      "name": "NOT_AVAILABLE",
      "type": "error"
    },
    {
      "inputs": [],
      "name": "OVERSPENDING",
      "type": "error"
    },
    {
      "inputs": [
        {
          "internalType": "uint256",
          "name": "prod1",
          "type": "uint256"
        },
        {
          "internalType": "uint256",
          "name": "denominator",
          "type": "uint256"
        }
      ],
      "name": "PRBMath__MulDivOverflow",
      "type": "error"
    },
    {
      "inputs": [],
      "name": "PRICING_RESOLVER_CHANGES_PAUSED",
      "type": "error"
    },
    {
      "inputs": [],
      "name": "RESERVED_TOKEN_MINTING_PAUSED",
      "type": "error"
    },
    {
      "inputs": [],
      "name": "TRANSFERS_PAUSED",
      "type": "error"
    },
    {
      "inputs": [],
      "name": "TRANSFER_TO_NON_IMPLEMENTER",
      "type": "error"
    },
    {
      "inputs": [],
      "name": "TRANSFER_TO_ZERO_ADDRESS",
      "type": "error"
    },
    {
      "inputs": [],
      "name": "UNAUTHORIZED",
      "type": "error"
    },
    {
      "inputs": [],
      "name": "UNEXPECTED_TOKEN_REDEEMED",
      "type": "error"
    },
    {
      "anonymous": false,
      "inputs": [
        {
          "indexed": true,
          "internalType": "uint256",
          "name": "tierId",
          "type": "uint256"
        },
        {
          "components": [
            {
              "internalType": "uint80",
              "name": "contributionFloor",
              "type": "uint80"
            },
            {
              "internalType": "uint48",
              "name": "lockedUntil",
              "type": "uint48"
            },
            {
              "internalType": "uint40",
              "name": "initialQuantity",
              "type": "uint40"
            },
            {
              "internalType": "uint16",
              "name": "votingUnits",
              "type": "uint16"
            },
            {
              "internalType": "uint16",
              "name": "reservedRate",
              "type": "uint16"
            },
            {
              "internalType": "address",
              "name": "reservedTokenBeneficiary",
              "type": "address"
            },
            {
              "internalType": "bytes32",
              "name": "encodedIPFSUri",
              "type": "bytes32"
            },
            {
              "internalType": "bool",
              "name": "allowManualMint",
              "type": "bool"
            },
            {
              "internalType": "bool",
              "name": "shouldUseBeneficiaryAsDefault",
              "type": "bool"
            },
            {
              "internalType": "bool",
              "name": "transfersPausable",
              "type": "bool"
            }
          ],
          "indexed": false,
          "internalType": "struct JB721TierParams",
          "name": "data",
          "type": "tuple"
        },
        {
          "indexed": false,
          "internalType": "address",
          "name": "caller",
          "type": "address"
        }
      ],
      "name": "AddTier",
      "type": "event"
    },
    {
      "anonymous": false,
      "inputs": [
        {
          "indexed": true,
          "internalType": "address",
          "name": "owner",
          "type": "address"
        },
        {
          "indexed": true,
          "internalType": "address",
          "name": "approved",
          "type": "address"
        },
        {
          "indexed": true,
          "internalType": "uint256",
          "name": "tokenId",
          "type": "uint256"
        }
      ],
      "name": "Approval",
      "type": "event"
    },
    {
      "anonymous": false,
      "inputs": [
        {
          "indexed": true,
          "internalType": "address",
          "name": "owner",
          "type": "address"
        },
        {
          "indexed": true,
          "internalType": "address",
          "name": "operator",
          "type": "address"
        },
        {
          "indexed": false,
          "internalType": "bool",
          "name": "approved",
          "type": "bool"
        }
      ],
      "name": "ApprovalForAll",
      "type": "event"
    },
    {
      "anonymous": false,
      "inputs": [
        {
          "indexed": true,
          "internalType": "address",
          "name": "delegator",
          "type": "address"
        },
        {
          "indexed": true,
          "internalType": "address",
          "name": "fromDelegate",
          "type": "address"
        },
        {
          "indexed": true,
          "internalType": "address",
          "name": "toDelegate",
          "type": "address"
        }
      ],
      "name": "DelegateChanged",
      "type": "event"
    },
    {
      "anonymous": false,
      "inputs": [
        {
          "indexed": true,
          "internalType": "uint256",
          "name": "tokenId",
          "type": "uint256"
        },
        {
          "indexed": true,
          "internalType": "uint256",
          "name": "tierId",
          "type": "uint256"
        },
        {
          "indexed": true,
          "internalType": "address",
          "name": "beneficiary",
          "type": "address"
        },
        {
          "indexed": false,
          "internalType": "uint256",
          "name": "totalAmountContributed",
          "type": "uint256"
        },
        {
          "indexed": false,
          "internalType": "address",
          "name": "caller",
          "type": "address"
        }
      ],
      "name": "Mint",
      "type": "event"
    },
    {
      "anonymous": false,
      "inputs": [
        {
          "indexed": true,
          "internalType": "uint256",
          "name": "tokenId",
          "type": "uint256"
        },
        {
          "indexed": true,
          "internalType": "uint256",
          "name": "tierId",
          "type": "uint256"
        },
        {
          "indexed": true,
          "internalType": "address",
          "name": "beneficiary",
          "type": "address"
        },
        {
          "indexed": false,
          "internalType": "address",
          "name": "caller",
          "type": "address"
        }
      ],
      "name": "MintReservedToken",
      "type": "event"
    },
    {
      "anonymous": false,
      "inputs": [
        {
          "indexed": true,
          "internalType": "address",
          "name": "previousOwner",
          "type": "address"
        },
        {
          "indexed": true,
          "internalType": "address",
          "name": "newOwner",
          "type": "address"
        }
      ],
      "name": "OwnershipTransferred",
      "type": "event"
    },
    {
      "anonymous": false,
      "inputs": [
        {
          "indexed": true,
          "internalType": "uint256",
          "name": "tierId",
          "type": "uint256"
        },
        {
          "indexed": false,
          "internalType": "address",
          "name": "caller",
          "type": "address"
        }
      ],
      "name": "RemoveTier",
      "type": "event"
    },
    {
      "anonymous": false,
      "inputs": [
        {
          "indexed": true,
          "internalType": "string",
          "name": "baseUri",
          "type": "string"
        },
        {
          "indexed": false,
          "internalType": "address",
          "name": "caller",
          "type": "address"
        }
      ],
      "name": "SetBaseUri",
      "type": "event"
    },
    {
      "anonymous": false,
      "inputs": [
        {
          "indexed": true,
          "internalType": "string",
          "name": "contractUri",
          "type": "string"
        },
        {
          "indexed": false,
          "internalType": "address",
          "name": "caller",
          "type": "address"
        }
      ],
      "name": "SetContractUri",
      "type": "event"
    },
    {
      "anonymous": false,
      "inputs": [
        {
          "indexed": true,
          "internalType": "address",
          "name": "beneficiary",
          "type": "address"
        },
        {
          "indexed": false,
          "internalType": "address",
          "name": "caller",
          "type": "address"
        }
      ],
      "name": "SetDefaultReservedTokenBeneficiary",
      "type": "event"
    },
    {
      "anonymous": false,
      "inputs": [
        {
          "indexed": true,
          "internalType": "contract IJBTokenUriResolver",
          "name": "newResolver",
          "type": "address"
        },
        {
          "indexed": false,
          "internalType": "address",
          "name": "caller",
          "type": "address"
        }
      ],
      "name": "SetTokenUriResolver",
      "type": "event"
    },
    {
      "anonymous": false,
      "inputs": [
        {
          "indexed": true,
          "internalType": "address",
          "name": "delegator",
          "type": "address"
        },
        {
          "indexed": true,
          "internalType": "address",
          "name": "fromDelegate",
          "type": "address"
        },
        {
          "indexed": true,
          "internalType": "address",
          "name": "toDelegate",
          "type": "address"
        },
        {
          "indexed": false,
          "internalType": "uint256",
          "name": "tierId",
          "type": "uint256"
        },
        {
          "indexed": false,
          "internalType": "address",
          "name": "caller",
          "type": "address"
        }
      ],
      "name": "TierDelegateChanged",
      "type": "event"
    },
    {
      "anonymous": false,
      "inputs": [
        {
          "indexed": true,
          "internalType": "address",
          "name": "delegate",
          "type": "address"
        },
        {
          "indexed": true,
          "internalType": "uint256",
          "name": "tierId",
          "type": "uint256"
        },
        {
          "indexed": false,
          "internalType": "uint256",
          "name": "previousBalance",
          "type": "uint256"
        },
        {
          "indexed": false,
          "internalType": "uint256",
          "name": "newBalance",
          "type": "uint256"
        },
        {
          "indexed": false,
          "internalType": "address",
          "name": "callre",
          "type": "address"
        }
      ],
      "name": "TierDelegateVotesChanged",
      "type": "event"
    },
    {
      "anonymous": false,
      "inputs": [
        {
          "indexed": true,
          "internalType": "address",
          "name": "from",
          "type": "address"
        },
        {
          "indexed": true,
          "internalType": "address",
          "name": "to",
          "type": "address"
        },
        {
          "indexed": true,
          "internalType": "uint256",
          "name": "tokenId",
          "type": "uint256"
        }
      ],
      "name": "Transfer",
      "type": "event"
    },
    {
      "inputs": [],
      "name": "END_GAME_PHASE",
      "outputs": [
        {
          "internalType": "uint256",
          "name": "",
          "type": "uint256"
        }
      ],
      "stateMutability": "view",
      "type": "function"
    },
    {
      "inputs": [],
      "name": "MINT_GAME_PHASE",
      "outputs": [
        {
          "internalType": "uint256",
          "name": "",
          "type": "uint256"
        }
      ],
      "stateMutability": "view",
      "type": "function"
    },
    {
      "inputs": [],
      "name": "TOTAL_REDEMPTION_WEIGHT",
      "outputs": [
        {
          "internalType": "uint256",
          "name": "",
          "type": "uint256"
        }
      ],
      "stateMutability": "view",
      "type": "function"
    },
    {
      "inputs": [
        {
          "components": [
            {
              "internalType": "uint80",
              "name": "contributionFloor",
              "type": "uint80"
            },
            {
              "internalType": "uint48",
              "name": "lockedUntil",
              "type": "uint48"
            },
            {
              "internalType": "uint40",
              "name": "initialQuantity",
              "type": "uint40"
            },
            {
              "internalType": "uint16",
              "name": "votingUnits",
              "type": "uint16"
            },
            {
              "internalType": "uint16",
              "name": "reservedRate",
              "type": "uint16"
            },
            {
              "internalType": "address",
              "name": "reservedTokenBeneficiary",
              "type": "address"
            },
            {
              "internalType": "bytes32",
              "name": "encodedIPFSUri",
              "type": "bytes32"
            },
            {
              "internalType": "bool",
              "name": "allowManualMint",
              "type": "bool"
            },
            {
              "internalType": "bool",
              "name": "shouldUseBeneficiaryAsDefault",
              "type": "bool"
            },
            {
              "internalType": "bool",
              "name": "transfersPausable",
              "type": "bool"
            }
          ],
          "internalType": "struct JB721TierParams[]",
          "name": "_tiersToAdd",
          "type": "tuple[]"
        },
        {
          "internalType": "uint256[]",
          "name": "_tierIdsToRemove",
          "type": "uint256[]"
        }
      ],
      "name": "adjustTiers",
      "outputs": [],
      "stateMutability": "nonpayable",
      "type": "function"
    },
    {
      "inputs": [
        {
          "internalType": "address",
          "name": "to",
          "type": "address"
        },
        {
          "internalType": "uint256",
          "name": "tokenId",
          "type": "uint256"
        }
      ],
      "name": "approve",
      "outputs": [],
      "stateMutability": "nonpayable",
      "type": "function"
    },
    {
      "inputs": [
        {
          "internalType": "address",
          "name": "_owner",
          "type": "address"
        }
      ],
      "name": "balanceOf",
      "outputs": [
        {
          "internalType": "uint256",
          "name": "balance",
          "type": "uint256"
        }
      ],
      "stateMutability": "view",
      "type": "function"
    },
    {
      "inputs": [],
      "name": "codeOrigin",
      "outputs": [
        {
          "internalType": "address",
          "name": "",
          "type": "address"
        }
      ],
      "stateMutability": "view",
      "type": "function"
    },
    {
      "inputs": [],
      "name": "contractURI",
      "outputs": [
        {
          "internalType": "string",
          "name": "",
          "type": "string"
        }
      ],
      "stateMutability": "view",
      "type": "function"
    },
    {
      "inputs": [
        {
          "internalType": "address",
          "name": "",
          "type": "address"
        }
      ],
      "name": "creditsOf",
      "outputs": [
        {
          "internalType": "uint256",
          "name": "",
          "type": "uint256"
        }
      ],
      "stateMutability": "view",
      "type": "function"
    },
    {
      "inputs": [
        {
          "components": [
            {
              "internalType": "address",
              "name": "payer",
              "type": "address"
            },
            {
              "internalType": "uint256",
              "name": "projectId",
              "type": "uint256"
            },
            {
              "internalType": "uint256",
              "name": "currentFundingCycleConfiguration",
              "type": "uint256"
            },
            {
              "components": [
                {
                  "internalType": "address",
                  "name": "token",
                  "type": "address"
                },
                {
                  "internalType": "uint256",
                  "name": "value",
                  "type": "uint256"
                },
                {
                  "internalType": "uint256",
                  "name": "decimals",
                  "type": "uint256"
                },
                {
                  "internalType": "uint256",
                  "name": "currency",
                  "type": "uint256"
                }
              ],
              "internalType": "struct JBTokenAmount",
              "name": "amount",
              "type": "tuple"
            },
            {
              "components": [
                {
                  "internalType": "address",
                  "name": "token",
                  "type": "address"
                },
                {
                  "internalType": "uint256",
                  "name": "value",
                  "type": "uint256"
                },
                {
                  "internalType": "uint256",
                  "name": "decimals",
                  "type": "uint256"
                },
                {
                  "internalType": "uint256",
                  "name": "currency",
                  "type": "uint256"
                }
              ],
              "internalType": "struct JBTokenAmount",
              "name": "forwardedAmount",
              "type": "tuple"
            },
            {
              "internalType": "uint256",
              "name": "projectTokenCount",
              "type": "uint256"
            },
            {
              "internalType": "address",
              "name": "beneficiary",
              "type": "address"
            },
            {
              "internalType": "bool",
              "name": "preferClaimedTokens",
              "type": "bool"
            },
            {
              "internalType": "string",
              "name": "memo",
              "type": "string"
            },
            {
              "internalType": "bytes",
              "name": "metadata",
              "type": "bytes"
            }
          ],
          "internalType": "struct JBDidPayData",
          "name": "_data",
          "type": "tuple"
        }
      ],
      "name": "didPay",
      "outputs": [],
      "stateMutability": "payable",
      "type": "function"
    },
    {
      "inputs": [
        {
          "components": [
            {
              "internalType": "address",
              "name": "holder",
              "type": "address"
            },
            {
              "internalType": "uint256",
              "name": "projectId",
              "type": "uint256"
            },
            {
              "internalType": "uint256",
              "name": "currentFundingCycleConfiguration",
              "type": "uint256"
            },
            {
              "internalType": "uint256",
              "name": "projectTokenCount",
              "type": "uint256"
            },
            {
              "components": [
                {
                  "internalType": "address",
                  "name": "token",
                  "type": "address"
                },
                {
                  "internalType": "uint256",
                  "name": "value",
                  "type": "uint256"
                },
                {
                  "internalType": "uint256",
                  "name": "decimals",
                  "type": "uint256"
                },
                {
                  "internalType": "uint256",
                  "name": "currency",
                  "type": "uint256"
                }
              ],
              "internalType": "struct JBTokenAmount",
              "name": "reclaimedAmount",
              "type": "tuple"
            },
            {
              "components": [
                {
                  "internalType": "address",
                  "name": "token",
                  "type": "address"
                },
                {
                  "internalType": "uint256",
                  "name": "value",
                  "type": "uint256"
                },
                {
                  "internalType": "uint256",
                  "name": "decimals",
                  "type": "uint256"
                },
                {
                  "internalType": "uint256",
                  "name": "currency",
                  "type": "uint256"
                }
              ],
              "internalType": "struct JBTokenAmount",
              "name": "forwardedAmount",
              "type": "tuple"
            },
            {
              "internalType": "address payable",
              "name": "beneficiary",
              "type": "address"
            },
            {
              "internalType": "string",
              "name": "memo",
              "type": "string"
            },
            {
              "internalType": "bytes",
              "name": "metadata",
              "type": "bytes"
            }
          ],
          "internalType": "struct JBDidRedeemData",
          "name": "_data",
          "type": "tuple"
        }
      ],
      "name": "didRedeem",
      "outputs": [],
      "stateMutability": "payable",
      "type": "function"
    },
    {
      "inputs": [],
      "name": "directory",
      "outputs": [
        {
          "internalType": "contract IJBDirectory",
          "name": "",
          "type": "address"
        }
      ],
      "stateMutability": "view",
      "type": "function"
    },
    {
      "inputs": [
        {
          "internalType": "uint256",
          "name": "_tokenId",
          "type": "uint256"
        }
      ],
      "name": "firstOwnerOf",
      "outputs": [
        {
          "internalType": "address",
          "name": "",
          "type": "address"
        }
      ],
      "stateMutability": "view",
      "type": "function"
    },
    {
      "inputs": [],
      "name": "fundingCycleStore",
      "outputs": [
        {
          "internalType": "contract IJBFundingCycleStore",
          "name": "",
          "type": "address"
        }
      ],
      "stateMutability": "view",
      "type": "function"
    },
    {
      "inputs": [
        {
          "internalType": "uint256",
          "name": "tokenId",
          "type": "uint256"
        }
      ],
      "name": "getApproved",
      "outputs": [
        {
          "internalType": "address",
          "name": "",
          "type": "address"
        }
      ],
      "stateMutability": "view",
      "type": "function"
    },
    {
      "inputs": [
        {
          "internalType": "uint256",
          "name": "_tier",
          "type": "uint256"
        },
        {
          "internalType": "uint256",
          "name": "_blockNumber",
          "type": "uint256"
        }
      ],
      "name": "getPastTierTotalVotes",
      "outputs": [
        {
          "internalType": "uint256",
          "name": "",
          "type": "uint256"
        }
      ],
      "stateMutability": "view",
      "type": "function"
    },
    {
      "inputs": [
        {
          "internalType": "address",
          "name": "_account",
          "type": "address"
        },
        {
          "internalType": "uint256",
          "name": "_tier",
          "type": "uint256"
        },
        {
          "internalType": "uint256",
          "name": "_blockNumber",
          "type": "uint256"
        }
      ],
      "name": "getPastTierVotes",
      "outputs": [
        {
          "internalType": "uint256",
          "name": "",
          "type": "uint256"
        }
      ],
      "stateMutability": "view",
      "type": "function"
    },
    {
      "inputs": [
        {
          "internalType": "address",
          "name": "_account",
          "type": "address"
        },
        {
          "internalType": "uint256",
          "name": "_tier",
          "type": "uint256"
        }
      ],
      "name": "getTierDelegate",
      "outputs": [
        {
          "internalType": "address",
          "name": "",
          "type": "address"
        }
      ],
      "stateMutability": "view",
      "type": "function"
    },
    {
      "inputs": [
        {
          "internalType": "uint256",
          "name": "_tier",
          "type": "uint256"
        }
      ],
      "name": "getTierTotalVotes",
      "outputs": [
        {
          "internalType": "uint256",
          "name": "",
          "type": "uint256"
        }
      ],
      "stateMutability": "view",
      "type": "function"
    },
    {
      "inputs": [
        {
          "internalType": "address",
          "name": "_account",
          "type": "address"
        },
        {
          "internalType": "uint256",
          "name": "_tier",
          "type": "uint256"
        }
      ],
      "name": "getTierVotes",
      "outputs": [
        {
          "internalType": "uint256",
          "name": "",
          "type": "uint256"
        }
      ],
      "stateMutability": "view",
      "type": "function"
    },
    {
      "inputs": [
        {
          "internalType": "uint256",
          "name": "_projectId",
          "type": "uint256"
        },
        {
          "internalType": "contract IJBDirectory",
          "name": "_directory",
          "type": "address"
        },
        {
          "internalType": "string",
          "name": "_name",
          "type": "string"
        },
        {
          "internalType": "string",
          "name": "_symbol",
          "type": "string"
        },
        {
          "internalType": "contract IJBFundingCycleStore",
          "name": "_fundingCycleStore",
          "type": "address"
        },
        {
          "internalType": "string",
          "name": "_baseUri",
          "type": "string"
        },
        {
          "internalType": "contract IJBTokenUriResolver",
          "name": "_tokenUriResolver",
          "type": "address"
        },
        {
          "internalType": "string",
          "name": "_contractUri",
          "type": "string"
        },
        {
          "components": [
            {
              "components": [
                {
                  "internalType": "uint80",
                  "name": "contributionFloor",
                  "type": "uint80"
                },
                {
                  "internalType": "uint48",
                  "name": "lockedUntil",
                  "type": "uint48"
                },
                {
                  "internalType": "uint40",
                  "name": "initialQuantity",
                  "type": "uint40"
                },
                {
                  "internalType": "uint16",
                  "name": "votingUnits",
                  "type": "uint16"
                },
                {
                  "internalType": "uint16",
                  "name": "reservedRate",
                  "type": "uint16"
                },
                {
                  "internalType": "address",
                  "name": "reservedTokenBeneficiary",
                  "type": "address"
                },
                {
                  "internalType": "bytes32",
                  "name": "encodedIPFSUri",
                  "type": "bytes32"
                },
                {
                  "internalType": "bool",
                  "name": "allowManualMint",
                  "type": "bool"
                },
                {
                  "internalType": "bool",
                  "name": "shouldUseBeneficiaryAsDefault",
                  "type": "bool"
                },
                {
                  "internalType": "bool",
                  "name": "transfersPausable",
                  "type": "bool"
                }
              ],
              "internalType": "struct JB721TierParams[]",
              "name": "tiers",
              "type": "tuple[]"
            },
            {
              "internalType": "uint256",
              "name": "currency",
              "type": "uint256"
            },
            {
              "internalType": "uint256",
              "name": "decimals",
              "type": "uint256"
            },
            {
              "internalType": "contract IJBPrices",
              "name": "prices",
              "type": "address"
            }
          ],
          "internalType": "struct JB721PricingParams",
          "name": "_pricing",
          "type": "tuple"
        },
        {
          "internalType": "contract IJBTiered721DelegateStore",
          "name": "_store",
          "type": "address"
        },
        {
          "components": [
            {
              "internalType": "bool",
              "name": "lockReservedTokenChanges",
              "type": "bool"
            },
            {
              "internalType": "bool",
              "name": "lockVotingUnitChanges",
              "type": "bool"
            },
            {
              "internalType": "bool",
              "name": "lockManualMintingChanges",
              "type": "bool"
            }
          ],
          "internalType": "struct JBTiered721Flags",
          "name": "_flags",
          "type": "tuple"
        }
      ],
      "name": "initialize",
      "outputs": [],
      "stateMutability": "nonpayable",
      "type": "function"
    },
    {
      "inputs": [
        {
          "internalType": "address",
          "name": "owner",
          "type": "address"
        },
        {
          "internalType": "address",
          "name": "operator",
          "type": "address"
        }
      ],
      "name": "isApprovedForAll",
      "outputs": [
        {
          "internalType": "bool",
          "name": "",
          "type": "bool"
        }
      ],
      "stateMutability": "view",
      "type": "function"
    },
    {
      "inputs": [
        {
          "components": [
            {
              "internalType": "uint16[]",
              "name": "tierIds",
              "type": "uint16[]"
            },
            {
              "internalType": "address",
              "name": "beneficiary",
              "type": "address"
            }
          ],
          "internalType": "struct JBTiered721MintForTiersData[]",
          "name": "_mintForTiersData",
          "type": "tuple[]"
        }
      ],
      "name": "mintFor",
      "outputs": [],
      "stateMutability": "nonpayable",
      "type": "function"
    },
    {
      "inputs": [
        {
          "internalType": "uint16[]",
          "name": "_tierIds",
          "type": "uint16[]"
        },
        {
          "internalType": "address",
          "name": "_beneficiary",
          "type": "address"
        }
      ],
      "name": "mintFor",
      "outputs": [
        {
          "internalType": "uint256[]",
          "name": "tokenIds",
          "type": "uint256[]"
        }
      ],
      "stateMutability": "nonpayable",
      "type": "function"
    },
    {
      "inputs": [
        {
          "components": [
            {
              "internalType": "uint256",
              "name": "tierId",
              "type": "uint256"
            },
            {
              "internalType": "uint256",
              "name": "count",
              "type": "uint256"
            }
          ],
          "internalType": "struct JBTiered721MintReservesForTiersData[]",
          "name": "_mintReservesForTiersData",
          "type": "tuple[]"
        }
      ],
      "name": "mintReservesFor",
      "outputs": [],
      "stateMutability": "nonpayable",
      "type": "function"
    },
    {
      "inputs": [
        {
          "internalType": "uint256",
          "name": "_tierId",
          "type": "uint256"
        },
        {
          "internalType": "uint256",
          "name": "_count",
          "type": "uint256"
        }
      ],
      "name": "mintReservesFor",
      "outputs": [],
      "stateMutability": "nonpayable",
      "type": "function"
    },
    {
      "inputs": [],
      "name": "name",
      "outputs": [
        {
          "internalType": "string",
          "name": "",
          "type": "string"
        }
      ],
      "stateMutability": "view",
      "type": "function"
    },
    {
      "inputs": [],
      "name": "owner",
      "outputs": [
        {
          "internalType": "address",
          "name": "",
          "type": "address"
        }
      ],
      "stateMutability": "view",
      "type": "function"
    },
    {
      "inputs": [
        {
          "internalType": "uint256",
          "name": "tokenId",
          "type": "uint256"
        }
      ],
      "name": "ownerOf",
      "outputs": [
        {
          "internalType": "address",
          "name": "",
          "type": "address"
        }
      ],
      "stateMutability": "view",
      "type": "function"
    },
    {
      "inputs": [
        {
          "components": [
            {
              "internalType": "contract IJBPaymentTerminal",
              "name": "terminal",
              "type": "address"
            },
            {
              "internalType": "address",
              "name": "payer",
              "type": "address"
            },
            {
              "components": [
                {
                  "internalType": "address",
                  "name": "token",
                  "type": "address"
                },
                {
                  "internalType": "uint256",
                  "name": "value",
                  "type": "uint256"
                },
                {
                  "internalType": "uint256",
                  "name": "decimals",
                  "type": "uint256"
                },
                {
                  "internalType": "uint256",
                  "name": "currency",
                  "type": "uint256"
                }
              ],
              "internalType": "struct JBTokenAmount",
              "name": "amount",
              "type": "tuple"
            },
            {
              "internalType": "uint256",
              "name": "projectId",
              "type": "uint256"
            },
            {
              "internalType": "uint256",
              "name": "currentFundingCycleConfiguration",
              "type": "uint256"
            },
            {
              "internalType": "address",
              "name": "beneficiary",
              "type": "address"
            },
            {
              "internalType": "uint256",
              "name": "weight",
              "type": "uint256"
            },
            {
              "internalType": "uint256",
              "name": "reservedRate",
              "type": "uint256"
            },
            {
              "internalType": "string",
              "name": "memo",
              "type": "string"
            },
            {
              "internalType": "bytes",
              "name": "metadata",
              "type": "bytes"
            }
          ],
          "internalType": "struct JBPayParamsData",
          "name": "_data",
          "type": "tuple"
        }
      ],
      "name": "payParams",
      "outputs": [
        {
          "internalType": "uint256",
          "name": "weight",
          "type": "uint256"
        },
        {
          "internalType": "string",
          "name": "memo",
          "type": "string"
        },
        {
          "components": [
            {
              "internalType": "contract IJBPayDelegate",
              "name": "delegate",
              "type": "address"
            },
            {
              "internalType": "uint256",
              "name": "amount",
              "type": "uint256"
            }
          ],
          "internalType": "struct JBPayDelegateAllocation[]",
          "name": "delegateAllocations",
          "type": "tuple[]"
        }
      ],
      "stateMutability": "view",
      "type": "function"
    },
    {
      "inputs": [],
      "name": "prices",
      "outputs": [
        {
          "internalType": "contract IJBPrices",
          "name": "",
          "type": "address"
        }
      ],
      "stateMutability": "view",
      "type": "function"
    },
    {
      "inputs": [],
      "name": "pricingCurrency",
      "outputs": [
        {
          "internalType": "uint256",
          "name": "",
          "type": "uint256"
        }
      ],
      "stateMutability": "view",
      "type": "function"
    },
    {
      "inputs": [],
      "name": "pricingDecimals",
      "outputs": [
        {
          "internalType": "uint256",
          "name": "",
          "type": "uint256"
        }
      ],
      "stateMutability": "view",
      "type": "function"
    },
    {
      "inputs": [],
      "name": "projectId",
      "outputs": [
        {
          "internalType": "uint256",
          "name": "",
          "type": "uint256"
        }
      ],
      "stateMutability": "view",
      "type": "function"
    },
    {
      "inputs": [
        {
          "components": [
            {
              "internalType": "contract IJBPaymentTerminal",
              "name": "terminal",
              "type": "address"
            },
            {
              "internalType": "address",
              "name": "holder",
              "type": "address"
            },
            {
              "internalType": "uint256",
              "name": "projectId",
              "type": "uint256"
            },
            {
              "internalType": "uint256",
              "name": "currentFundingCycleConfiguration",
              "type": "uint256"
            },
            {
              "internalType": "uint256",
              "name": "tokenCount",
              "type": "uint256"
            },
            {
              "internalType": "uint256",
              "name": "totalSupply",
              "type": "uint256"
            },
            {
              "internalType": "uint256",
              "name": "overflow",
              "type": "uint256"
            },
            {
              "components": [
                {
                  "internalType": "address",
                  "name": "token",
                  "type": "address"
                },
                {
                  "internalType": "uint256",
                  "name": "value",
                  "type": "uint256"
                },
                {
                  "internalType": "uint256",
                  "name": "decimals",
                  "type": "uint256"
                },
                {
                  "internalType": "uint256",
                  "name": "currency",
                  "type": "uint256"
                }
              ],
              "internalType": "struct JBTokenAmount",
              "name": "reclaimAmount",
              "type": "tuple"
            },
            {
              "internalType": "bool",
              "name": "useTotalOverflow",
              "type": "bool"
            },
            {
              "internalType": "uint256",
              "name": "redemptionRate",
              "type": "uint256"
            },
            {
              "internalType": "string",
              "name": "memo",
              "type": "string"
            },
            {
              "internalType": "bytes",
              "name": "metadata",
              "type": "bytes"
            }
          ],
          "internalType": "struct JBRedeemParamsData",
          "name": "_data",
          "type": "tuple"
        }
      ],
      "name": "redeemParams",
      "outputs": [
        {
          "internalType": "uint256",
          "name": "reclaimAmount",
          "type": "uint256"
        },
        {
          "internalType": "string",
          "name": "memo",
          "type": "string"
        },
        {
          "components": [
            {
              "internalType": "contract IJBRedemptionDelegate",
              "name": "delegate",
              "type": "address"
            },
            {
              "internalType": "uint256",
              "name": "amount",
              "type": "uint256"
            }
          ],
          "internalType": "struct JBRedemptionDelegateAllocation[]",
          "name": "delegateAllocations",
          "type": "tuple[]"
        }
      ],
      "stateMutability": "view",
      "type": "function"
    },
    {
      "inputs": [],
      "name": "renounceOwnership",
      "outputs": [],
      "stateMutability": "nonpayable",
      "type": "function"
    },
    {
      "inputs": [
        {
          "internalType": "address",
          "name": "from",
          "type": "address"
        },
        {
          "internalType": "address",
          "name": "to",
          "type": "address"
        },
        {
          "internalType": "uint256",
          "name": "tokenId",
          "type": "uint256"
        }
      ],
      "name": "safeTransferFrom",
      "outputs": [],
      "stateMutability": "nonpayable",
      "type": "function"
    },
    {
      "inputs": [
        {
          "internalType": "address",
          "name": "from",
          "type": "address"
        },
        {
          "internalType": "address",
          "name": "to",
          "type": "address"
        },
        {
          "internalType": "uint256",
          "name": "tokenId",
          "type": "uint256"
        },
        {
          "internalType": "bytes",
          "name": "data",
          "type": "bytes"
        }
      ],
      "name": "safeTransferFrom",
      "outputs": [],
      "stateMutability": "nonpayable",
      "type": "function"
    },
    {
      "inputs": [
        {
          "internalType": "address",
          "name": "operator",
          "type": "address"
        },
        {
          "internalType": "bool",
          "name": "approved",
          "type": "bool"
        }
      ],
      "name": "setApprovalForAll",
      "outputs": [],
      "stateMutability": "nonpayable",
      "type": "function"
    },
    {
      "inputs": [
        {
          "internalType": "string",
          "name": "_baseUri",
          "type": "string"
        }
      ],
      "name": "setBaseUri",
      "outputs": [],
      "stateMutability": "nonpayable",
      "type": "function"
    },
    {
      "inputs": [
        {
          "internalType": "string",
          "name": "_contractUri",
          "type": "string"
        }
      ],
      "name": "setContractUri",
      "outputs": [],
      "stateMutability": "nonpayable",
      "type": "function"
    },
    {
      "inputs": [
        {
          "internalType": "address",
          "name": "_beneficiary",
          "type": "address"
        }
      ],
      "name": "setDefaultReservedTokenBeneficiary",
      "outputs": [],
      "stateMutability": "nonpayable",
      "type": "function"
    },
    {
      "inputs": [
        {
          "internalType": "address",
          "name": "_delegatee",
          "type": "address"
        },
        {
          "internalType": "uint256",
          "name": "_tierId",
          "type": "uint256"
        }
      ],
      "name": "setTierDelegate",
      "outputs": [],
      "stateMutability": "nonpayable",
      "type": "function"
    },
    {
      "inputs": [
        {
          "components": [
            {
              "internalType": "address",
              "name": "delegatee",
              "type": "address"
            },
            {
              "internalType": "uint256",
              "name": "tierId",
              "type": "uint256"
            }
          ],
          "internalType": "struct JBTiered721SetTierDelegatesData[]",
          "name": "_setTierDelegatesData",
          "type": "tuple[]"
        }
      ],
      "name": "setTierDelegates",
      "outputs": [],
      "stateMutability": "nonpayable",
      "type": "function"
    },
    {
      "inputs": [
        {
          "components": [
            {
              "internalType": "uint256",
              "name": "id",
              "type": "uint256"
            },
            {
              "internalType": "uint256",
              "name": "redemptionWeight",
              "type": "uint256"
            }
          ],
          "internalType": "struct DefifaTierRedemptionWeight[]",
          "name": "_tierWeights",
          "type": "tuple[]"
        }
      ],
      "name": "setTierRedemptionWeights",
      "outputs": [],
      "stateMutability": "nonpayable",
      "type": "function"
    },
    {
      "inputs": [
        {
          "internalType": "contract IJBTokenUriResolver",
          "name": "_tokenUriResolver",
          "type": "address"
        }
      ],
      "name": "setTokenUriResolver",
      "outputs": [],
      "stateMutability": "nonpayable",
      "type": "function"
    },
    {
      "inputs": [],
      "name": "store",
      "outputs": [
        {
          "internalType": "contract IJBTiered721DelegateStore",
          "name": "",
          "type": "address"
        }
      ],
      "stateMutability": "view",
      "type": "function"
    },
    {
      "inputs": [
        {
          "internalType": "bytes4",
          "name": "_interfaceId",
          "type": "bytes4"
        }
      ],
      "name": "supportsInterface",
      "outputs": [
        {
          "internalType": "bool",
          "name": "",
          "type": "bool"
        }
      ],
      "stateMutability": "view",
      "type": "function"
    },
    {
      "inputs": [],
      "name": "symbol",
      "outputs": [
        {
          "internalType": "string",
          "name": "",
          "type": "string"
        }
      ],
      "stateMutability": "view",
      "type": "function"
    },
    {
      "inputs": [],
      "name": "tierRedemptionWeights",
      "outputs": [
        {
          "internalType": "uint256[100]",
          "name": "",
          "type": "uint256[100]"
        }
      ],
      "stateMutability": "view",
      "type": "function"
    },
    {
      "inputs": [
        {
          "internalType": "uint256",
          "name": "_tokenId",
          "type": "uint256"
        }
      ],
      "name": "tokenURI",
      "outputs": [
        {
          "internalType": "string",
          "name": "",
          "type": "string"
        }
      ],
      "stateMutability": "view",
      "type": "function"
    },
    {
      "inputs": [
        {
          "internalType": "address",
          "name": "from",
          "type": "address"
        },
        {
          "internalType": "address",
          "name": "to",
          "type": "address"
        },
        {
          "internalType": "uint256",
          "name": "tokenId",
          "type": "uint256"
        }
      ],
      "name": "transferFrom",
      "outputs": [],
      "stateMutability": "nonpayable",
      "type": "function"
    },
    {
      "inputs": [
        {
          "internalType": "address",
          "name": "newOwner",
          "type": "address"
        }
      ],
      "name": "transferOwnership",
      "outputs": [],
      "stateMutability": "nonpayable",
      "type": "function"
    }
  ],
  "bytecode": {
    "object": "0x60806040523480156200001157600080fd5b506200001d3362000035565b600880546001600160a01b0319163017905562000087565b600780546001600160a01b038381166001600160a01b0319831681179093556040519116919082907f8be0079c531659141344cd1fd0a4f28419497f9722a3daafe3b4186f6b6457e090600090a35050565b615e8880620000976000396000f3fe60806040526004361061031a5760003560e01c806394c5c5ca116101ab578063c74b13d9116100f7578063d46cf17111610095578063e8a3d4851161006f578063e8a3d4851461095e578063e985e9c514610973578063f2fde38b146109bc578063f5a38e63146109dc57600080fd5b8063d46cf1711461090b578063da9ee8b71461092b578063df487e261461093e57600080fd5b8063ccb4807b116100d1578063ccb4807b1461088b578063d31cc52c146108ab578063d3419bf3146108cb578063d40e7146146108eb57600080fd5b8063c74b13d91461082b578063c87b56dd1461084b578063ca323efe1461086b57600080fd5b8063a51cfd1811610164578063b88d4fde1161013e578063b88d4fde146107b6578063bb52b6e4146107d6578063bd50adf0146107f6578063c41c2f241461080b57600080fd5b8063a51cfd1814610747578063aa4fb15b14610776578063ab951e391461079657600080fd5b806394c5c5ca1461069057806395d89b41146106b0578063975057e7146106c55780639df45468146106e5578063a0bcfc7f14610707578063a22cb4651461072757600080fd5b80633fafa1271161026a578063640abacd1161022357806370a08231116101fd57806370a08231146105fa578063715018a61461061a57806382732b6d1461062f5780638da5cb5b1461067257600080fd5b8063640abacd1461059f57806364640c1e146105b75780636ac6d941146105cd57600080fd5b80633fafa127146104f357806342842e0e146105095780634ecba6251461052957806354c6d1f51461053f578063557e71551461055f5780636352211e1461057f57600080fd5b806323b872dd116102d75780632a596e53116102b15780632a596e53146104805780632b13c58f146104a05780632f441500146104b357806336c1a93b146104d357600080fd5b806323b872dd146104135780632407497e14610433578063245a45b51461045357600080fd5b806301ffc9a71461031f57806306bc0c901461035457806306fdde0314610377578063081812fc14610399578063095ea7b3146103d15780631d153ca4146103f3575b600080fd5b34801561032b57600080fd5b5061033f61033a366004614470565b6109fc565b60405190151581526020015b60405180910390f35b34801561036057600080fd5b50610369600481565b60405190815260200161034b565b34801561038357600080fd5b5061038c610a27565b60405161034b91906144dd565b3480156103a557600080fd5b506103b96103b43660046144f0565b610ab9565b6040516001600160a01b03909116815260200161034b565b3480156103dd57600080fd5b506103f16103ec36600461452e565b610ae0565b005b3480156103ff57600080fd5b506008546103b9906001600160a01b031681565b34801561041f57600080fd5b506103f161042e36600461455a565b610b6c565b34801561043f57600080fd5b506103f161044e36600461459b565b610b9e565b34801561045f57600080fd5b5061036961046e36600461459b565b600e6020526000908152604090205481565b34801561048c57600080fd5b506103f161049b3660046145b8565b610c47565b6103f16104ae366004614645565b610ca0565b3480156104bf57600080fd5b506103f16104ce3660046147c5565b610e7a565b3480156104df57600080fd5b506103f16104ee3660046148a9565b6110a4565b3480156104ff57600080fd5b5061036960055481565b34801561051557600080fd5b506103f161052436600461455a565b611106565b34801561053557600080fd5b50610369600d5481565b34801561054b57600080fd5b506103b961055a3660046144f0565b611121565b34801561056b57600080fd5b50600a546103b9906001600160a01b031681565b34801561058b57600080fd5b506103b961059a3660046144f0565b6111cd565b3480156105ab57600080fd5b50610369633b9aca0081565b3480156105c357600080fd5b50610369600c5481565b3480156105d957600080fd5b506105ed6105e83660046148ea565b611203565b60405161034b9190614940565b34801561060657600080fd5b5061036961061536600461459b565b611349565b34801561062657600080fd5b506103f16113be565b34801561063b57600080fd5b506103b961064a36600461452e565b6001600160a01b039182166000908152600f6020908152604080832093835292905220541690565b34801561067e57600080fd5b506007546001600160a01b03166103b9565b34801561069c57600080fd5b506103696106ab3660046144f0565b6113d2565b3480156106bc57600080fd5b5061038c6113e9565b3480156106d157600080fd5b506009546103b9906001600160a01b031681565b3480156106f157600080fd5b506106fa6113f8565b60405161034b9190614984565b34801561071357600080fd5b506103f16107223660046149b6565b611434565b34801561073357600080fd5b506103f1610742366004614a2e565b6114ef565b34801561075357600080fd5b50610767610762366004614645565b6114fe565b60405161034b93929190614a67565b34801561078257600080fd5b506103f1610791366004614ad9565b61184e565b3480156107a257600080fd5b506103f16107b136600461452e565b611a6b565b3480156107c257600080fd5b506103f16107d1366004614b5b565b611a76565b3480156107e257600080fd5b506103f16107f1366004614e39565b611aa9565b34801561080257600080fd5b50610369600181565b34801561081757600080fd5b506006546103b9906001600160a01b031681565b34801561083757600080fd5b506103f1610846366004614f72565b611d8f565b34801561085757600080fd5b5061038c6108663660046144f0565b611e13565b34801561087757600080fd5b5061036961088636600461452e565b612022565b34801561089757600080fd5b506103f16108a63660046149b6565b61204e565b3480156108b757600080fd5b506103696108c6366004614ad9565b612101565b3480156108d757600080fd5b50600b546103b9906001600160a01b031681565b3480156108f757600080fd5b50610369610906366004615025565b612119565b34801561091757600080fd5b5061076761092636600461505a565b61214e565b6103f1610939366004615095565b612231565b34801561094a57600080fd5b506103f161095936600461459b565b6122e8565b34801561096a57600080fd5b5061038c61238a565b34801561097f57600080fd5b5061033f61098e3660046150d0565b6001600160a01b03918216600090815260046020908152604080832093909416825291909152205460ff1690565b3480156109c857600080fd5b506103f16109d736600461459b565b612400565b3480156109e857600080fd5b506103f16109f73660046150fe565b61247e565b60006001600160e01b03198216631e68505960e31b1480610a215750610a2182612661565b92915050565b606060008054610a3690615198565b80601f0160208091040260200160405190810160405280929190818152602001828054610a6290615198565b8015610aaf5780601f10610a8457610100808354040283529160200191610aaf565b820191906000526020600020905b815481529060010190602001808311610a9257829003601f168201915b5050505050905090565b6000610ac4826126d7565b506000908152600360205260409020546001600160a01b031690565b6000610aeb826111cd565b9050806001600160a01b0316836001600160a01b031603610b1f5760405163133f8be960e01b815260040160405180910390fd5b336001600160a01b03821614801590610b3f5750610b3d813361098e565b155b15610b5d5760405163e5fa0e3560e01b815260040160405180910390fd5b610b67838361270c565b505050565b610b76338261277a565b610b935760405163e5fa0e3560e01b815260040160405180910390fd5b610b678383836127f8565b610ba66128d1565b60095460405163036129cb60e61b81526001600160a01b0383811660048301529091169063d84a72c090602401600060405180830381600087803b158015610bed57600080fd5b505af1158015610c01573d6000803e3d6000fd5b50506040513381526001600160a01b03841692507fe7784d93cfbfa4408e19577e6cc0436f4dbb51214b70e100905dfce9def88c1691506020015b60405180910390a250565b8060005b81811015610c9a576000848483818110610c6757610c676151cc565b905060400201803603810190610c7d91906151e2565b9050610c918160000151826020015161184e565b50600101610c4b565b50505050565b34151580610d225750600654600554604051636e49181f60e01b815260048101919091523360248201526001600160a01b0390911690636e49181f90604401602060405180830381865afa158015610cfc573d6000803e3d6000fd5b505050506040513d601f19601f82011682018060405250810190610d209190615209565b155b80610d335750600554816020013514155b15610d5157604051633efca5c360e11b815260040160405180910390fd5b6024610d616101c0830183615226565b90501080610da5575063b3bcbb7960e01b610d806101c0830183615226565b610d8f9160249160209161526c565b610d9891615296565b6001600160e01b03191614155b15610dc357604051632a84050f60e01b815260040160405180910390fd5b6000610dd36101c0830183615226565b810190610de091906152c6565b925050506000815190506000805b82811015610e7057838181518110610e0857610e086151cc565b60200260200101519150846000016020810190610e25919061459b565b6000838152600260205260409020546001600160a01b03908116911614610e5f5760405163075fd2b160e01b815260040160405180910390fd5b610e688261292b565b600101610dee565b50610c9a836129ac565b610e826128d1565b600a546005546040516321d1336160e11b815260048101919091526000916001600160a01b0316906343a266c29060240161012060405180830381865afa158015610ed1573d6000803e3d6000fd5b505050506040513d601f19601f82011682018060405250810190610ef5919061537f565b9050600481600001511015610f1d576040516303e08a3560e61b815260040160405180910390fd5b610f2960126000614417565b60095460405163f1bea54f60e01b81523060048201526000916001600160a01b03169063f1bea54f90602401602060405180830381865afa158015610f72573d6000803e3d6000fd5b505050506040513d601f19601f82011682018060405250810190610f9691906153ff565b8351909150600090815b818110156110775783868281518110610fbb57610fbb6151cc565b6020026020010151600001511115610fe65760405163148e14dd60e21b815260040160405180910390fd5b858181518110610ff857610ff86151cc565b6020026020010151602001516012600188848151811061101a5761101a6151cc565b602002602001015160000151611030919061542e565b60648110611040576110406151cc565b01558551869082908110611056576110566151cc565b6020026020010151602001518361106d9190615441565b9250600101610fa0565b50633b9aca0082111561109d57604051636ff44e9760e01b815260040160405180910390fd5b5050505050565b6110ac6128d1565b8060005b81811015610c9a57368484838181106110cb576110cb6151cc565b90506020028101906110dd9190615454565b90506110fc6110ec8280615474565b6105e8604085016020860161459b565b50506001016110b0565b610b6783838360405180602001604052806000815250611a76565b6009546040516308ed6c0160e41b81523060048201526024810183905260009182916001600160a01b0390911690638ed6c01090604401602060405180830381865afa158015611175573d6000803e3d6000fd5b505050506040513d601f19601f8201168201806040525081019061119991906154bd565b90506001600160a01b038116156111b05792915050565b50506000908152600260205260409020546001600160a01b031690565b6000818152600260205260408120546001600160a01b031680610a215760405163b49aa3b560e01b815260040160405180910390fd5b606061120d6128d1565b60095460405163eaa19ab360e01b81526001600160a01b039091169063eaa19ab3906112469060001990889088906001906004016154da565b6000604051808303816000875af1158015611265573d6000803e3d6000fd5b505050506040513d6000823e601f3d908101601f1916820160405261128d919081019061559d565b509050826000805b8281101561133f578381815181106112af576112af6151cc565b602002602001015191506112c38583612a0a565b846001600160a01b03168787838181106112df576112df6151cc565b90506020020160208101906112f491906155e3565b604080516000815233602082015261ffff929092169185917f598baf7bf150ca2f42be9e9f8f55e81d45f5715c3ff22bf46d697fabec7f31d6910160405180910390a4600101611295565b5050509392505050565b600954604051633de222bb60e21b81523060048201526001600160a01b038381166024830152600092169063f7888aec90604401602060405180830381865afa15801561139a573d6000803e3d6000fd5b505050506040513d601f19601f82011682018060405250810190610a2191906153ff565b6113c66128d1565b6113d06000612ad4565b565b6000818152601160205260408120610a2190612b26565b606060018054610a3690615198565b611400614426565b60408051610c808101918290529060129060649082845b815481526020019060010190808311611417575050505050905090565b61143c6128d1565b6009546040516331315e5960e11b81526001600160a01b0390911690636262bcb29061146e90859085906004016155fe565b600060405180830381600087803b15801561148857600080fd5b505af115801561149c573d6000803e3d6000fd5b5050505081816040516114b092919061562d565b604051908190038120338252907f7bc9110d5de090dd59e07912d2b93a5a27ac70a60c8d8e324db4f9ee8b8b5c13906020015b60405180910390a25050565b6114fa338383612b82565b5050565b6000606080608084013515611526576040516309f82f1b60e31b815260040160405180910390fd5b60246115366101c0860186615226565b9050108061157a575063b3bcbb7960e01b6115556101c0860186615226565b6115649160249160209161526c565b61156d91615296565b6001600160e01b03191614155b1561159857604051632a84050f60e01b815260040160405180910390fd5b600a54604080516321d1336160e11b81529086013560048201526000916001600160a01b0316906343a266c29060240161012060405180830381865afa1580156115e6573d6000803e3d6000fd5b505050506040513d601f19601f8201168201806040525081019061160a919061537f565b604080516001808252818301909252919250816020015b60408051808201909152600080825260208201528152602001906001900390816116215790505091506040518060400160405280306001600160a01b0316815260200160008152508260008151811061167c5761167c6151cc565b602090810291909101015260006116976101c0870187615226565b8101906116a491906152c6565b9250505060018260000151036117d357805160005b818110156117785760095483516001600160a01b039091169063b67cb0479030908690859081106116ec576116ec6151cc565b60200260200101516040518363ffffffff1660e01b81526004016117259291906001600160a01b03929092168252602082015260400190565b61016060405180830381865afa158015611743573d6000803e3d6000fd5b505050506040513d601f19601f82011682018060405250810190611767919061563d565b6020015196909601956001016116b9565b50856117886101a0890189615226565b8682828080601f016020809104026020016040519081016040528093929190818152602001838380828437600092019190915250969c50919a50919850611847975050505050505050565b6117f48660c001356117e58389612c21565b633b9aca00612dbc565b612dbc565b6118026101a0880188615226565b8582828080601f016020809104026020016040519081016040528093929190818152602001838380828437600092019190915250969b50919950919750505050505050505b9193909250565b600a546005546040516321d1336160e11b815260048101919091526000916001600160a01b0316906343a266c29060240161012060405180830381865afa15801561189d573d6000803e3d6000fd5b505050506040513d601f19601f820116820180604052508101906118c1919061537f565b61010081015190915060f51c6001908116036118f057604051631d2c125760e31b815260040160405180910390fd5b600954604051635d53f40760e11b815260048101859052602481018490526000916001600160a01b03169063baa7e80e906044016000604051808303816000875af1158015611943573d6000803e3d6000fd5b505050506040513d6000823e601f3d908101601f1916820160405261196b91908101906156df565b6009546040516304db994760e21b8152306004820152602481018790529192506000916001600160a01b039091169063136e651c90604401602060405180830381865afa1580156119c0573d6000803e3d6000fd5b505050506040513d601f19601f820116820180604052508101906119e491906154bd565b90506000805b85811015611a6257838181518110611a0457611a046151cc565b60200260200101519150611a188383612a0a565b6040513381526001600160a01b03841690889084907f031e1988c95a91ec4d655ff63a8f87a80bc9daf28d95ae10ee08c0022cfb5c8b9060200160405180910390a46001016119ea565b50505050505050565b6114fa338383612e89565b611a80338361277a565b611a9d5760405163e5fa0e3560e01b815260040160405180910390fd5b610c9a84848484612f08565b6008546001600160a01b03163003611ac057600080fd5b6009546001600160a01b031615611ad657600080fd5b611ae28b8b8b8b612f3c565b600a80546001600160a01b03808a166001600160a01b031992831617909255600980548584169083161790556020850151600c556040850151600d556060850151600b8054919093169116179055855115611b96576040516331315e5960e11b81526001600160a01b03831690636262bcb290611b639089906004016144dd565b600060405180830381600087803b158015611b7d57600080fd5b505af1158015611b91573d6000803e3d6000fd5b505050505b835115611bfc5760405163d67b78fd60e01b81526001600160a01b0383169063d67b78fd90611bc99087906004016144dd565b600060405180830381600087803b158015611be357600080fd5b505af1158015611bf7573d6000803e3d6000fd5b505050505b6001600160a01b03851615611c675760405163036129cb60e61b81526001600160a01b03868116600483015283169063d84a72c090602401600060405180830381600087803b158015611c4e57600080fd5b505af1158015611c62573d6000803e3d6000fd5b505050505b82515115611ce557825160405163eadd8b3760e01b81526001600160a01b0384169163eadd8b3791611c9c9190600401615713565b6000604051808303816000875af1158015611cbb573d6000803e3d6000fd5b505050506040513d6000823e601f3d908101601f19168201604052611ce391908101906156df565b505b805180611cf3575080602001515b80611cff575080604001515b15611d79576040805163cdb0af6d60e01b815282511515600482015260208301511515602482015290820151151560448201526001600160a01b0383169063cdb0af6d90606401600060405180830381600087803b158015611d6057600080fd5b505af1158015611d74573d6000803e3d6000fd5b505050505b611d8233612ad4565b5050505050505050505050565b8051604080518082019091526000808252602082015260005b82811015610c9a57838181518110611dc257611dc26151cc565b602090810291909101015180519092506001600160a01b0316611df8576040516314f4c13d60e21b815260040160405180910390fd5b611e0b3383600001518460200151612e89565b600101611da8565b6000818152600260205260409020546060906001600160a01b0316611e4657505060408051602081019091526000815290565b600954604051630fab094760e01b81523060048201526000916001600160a01b031690630fab094790602401602060405180830381865afa158015611e8f573d6000803e3d6000fd5b505050506040513d601f19601f82011682018060405250810190611eb391906154bd565b90506001600160a01b03811615611f3857604051636d02a25560e11b8152600481018490526001600160a01b0382169063da0544aa90602401600060405180830381865afa158015611f09573d6000803e3d6000fd5b505050506040513d6000823e601f3d908101601f19168201604052611f3191908101906157ec565b9392505050565b60095460405163f682eeaf60e01b8152306004820152611f31916001600160a01b03169063f682eeaf90602401600060405180830381865afa158015611f82573d6000803e3d6000fd5b505050506040513d6000823e601f3d908101601f19168201604052611faa91908101906157ec565b600954604051630c8df17160e41b8152306004820152602481018790526001600160a01b039091169063c8df171090604401602060405180830381865afa158015611ff9573d6000803e3d6000fd5b505050506040513d601f19601f8201168201806040525081019061201d91906153ff565b612f6f565b6001600160a01b03821660009081526010602090815260408083208484529091528120611f3190612b26565b6120566128d1565b60095460405163d67b78fd60e01b81526001600160a01b039091169063d67b78fd9061208890859085906004016155fe565b600060405180830381600087803b1580156120a257600080fd5b505af11580156120b6573d6000803e3d6000fd5b5050505081816040516120ca92919061562d565b604051908190038120338252907fd36dc0c1a06103fdcaf15f3f6fb797d1a97997514c78de073640c8b5005454b8906020016114e3565b6000828152601160205260408120611f319083612fd6565b6001600160a01b038316600090815260106020908152604080832085845290915281206121469083612fd6565b949350505050565b610120810135606080612165610160850185615226565b8080601f016020809104026020016040519081016040528093929190818152602001838380828437600092019190915250929450600192506121a5915050565b6040519080825280602002602001820160405280156121ea57816020015b60408051808201909152600080825260208201528152602001906001900390816121c35790505b5090506040518060400160405280306001600160a01b0316815260200160008152508160008151811061221f5761221f6151cc565b60200260200101819052509193909250565b600554341515806122b25750600654604051636e49181f60e01b8152600481018390523360248201526001600160a01b0390911690636e49181f90604401602060405180830381865afa15801561228c573d6000803e3d6000fd5b505050506040513d601f19601f820116820180604052508101906122b09190615209565b155b806122c1575080826020013514155b156122df576040516331c57b1b60e21b815260040160405180910390fd5b6114fa826130e5565b6122f06128d1565b6009546040516317161f7d60e01b81526001600160a01b038381166004830152909116906317161f7d90602401600060405180830381600087803b15801561233757600080fd5b505af115801561234b573d6000803e3d6000fd5b50506040513381526001600160a01b03841692507fab0014d4c7a642a02a31b303a318908c22b0fb2001f107278fc6076b4c671b659150602001610c3c565b600954604051630155619b60e71b81523060048201526060916001600160a01b03169063aab0cd8090602401600060405180830381865afa1580156123d3573d6000803e3d6000fd5b505050506040513d6000823e601f3d908101601f191682016040526123fb91908101906157ec565b905090565b6124086128d1565b6001600160a01b0381166124725760405162461bcd60e51b815260206004820152602660248201527f4f776e61626c653a206e6577206f776e657220697320746865207a65726f206160448201526564647265737360d01b60648201526084015b60405180910390fd5b61247b81612ad4565b50565b6124866128d1565b82818015612556576009546040516320512ba160e01b81526001600160a01b03909116906320512ba1906124c09087908790600401615859565b600060405180830381600087803b1580156124da57600080fd5b505af11580156124ee573d6000803e3d6000fd5b5050505060005b818110156125545784848281811061250f5761250f6151cc565b60405133815260209182029390930135927f832d89d991be5351d793c20faf4b7dd44f8aa9ce39e3cb160c6317de6fbba72992500160405180910390a26001016124f5565b505b81156126595760095460405163eadd8b3760e01b81526000916001600160a01b03169063eadd8b379061258f908a908a9060040161596f565b6000604051808303816000875af11580156125ae573d6000803e3d6000fd5b505050506040513d6000823e601f3d908101601f191682016040526125d691908101906156df565b905060005b83811015612656578181815181106125f5576125f56151cc565b60200260200101517f85b5b4c4e44e342c8dac3c3a5364494d455043decb9f4bb8e7e0a3020d22fed4898984818110612630576126306151cc565b90506101400201336040516126469291906159b2565b60405180910390a26001016125db565b50505b505050505050565b60006001600160e01b0319821663b3bcbb7960e01b148061269257506001600160e01b031982166371700c6960e01b145b806126ad57506001600160e01b0319821663da9ee8b760e01b145b806126c857506001600160e01b03198216632b13c58f60e01b145b80610a215750610a2182613406565b6000818152600260205260409020546001600160a01b031661247b5760405163b49aa3b560e01b815260040160405180910390fd5b600081815260036020526040902080546001600160a01b0319166001600160a01b0384169081179091558190612741826111cd565b6001600160a01b03167f8c5be1e5ebec7d5bd14f71427d1e84f3dd0314c0f7b2291e5b200ac8c7c3b92560405160405180910390a45050565b600080612786836111cd565b9050806001600160a01b0316846001600160a01b031614806127cd57506001600160a01b0380821660009081526004602090815260408083209388168352929052205460ff165b806121465750836001600160a01b03166127e684610ab9565b6001600160a01b031614949350505050565b826001600160a01b031661280b826111cd565b6001600160a01b0316146128325760405163a195bc5360e01b815260040160405180910390fd5b6001600160a01b03821661285957604051632c95542760e01b815260040160405180910390fd5b612864838383613456565b61286f60008261270c565b60008181526002602052604080822080546001600160a01b0319166001600160a01b0386811691821790925591518493918716917fddf252ad1be2c89b69c2b068fc378daa952ba7f163c4a11628f55a4df523b3ef91a4610b67838383613683565b6007546001600160a01b031633146113d05760405162461bcd60e51b815260206004820181905260248201527f4f776e61626c653a2063616c6c6572206973206e6f7420746865206f776e65726044820152606401612469565b6000612936826111cd565b905061294481600084613456565b61294f60008361270c565b60008281526002602052604080822080546001600160a01b0319169055518391906001600160a01b038416907fddf252ad1be2c89b69c2b068fc378daa952ba7f163c4a11628f55a4df523b3ef908390a46114fa81600084613683565b6009546040516386bc2be360e01b81526001600160a01b03909116906386bc2be3906129dc908490600401614940565b600060405180830381600087803b1580156129f657600080fd5b505af115801561109d573d6000803e3d6000fd5b6001600160a01b038216612a3157604051633904578f60e11b815260040160405180910390fd5b6000818152600260205260409020546001600160a01b031615612a6757604051632eb5f0c360e21b815260040160405180910390fd5b612a7360008383613456565b60008181526002602052604080822080546001600160a01b0319166001600160a01b03861690811790915590518392907fddf252ad1be2c89b69c2b068fc378daa952ba7f163c4a11628f55a4df523b3ef908290a46114fa60008383613683565b600780546001600160a01b038381166001600160a01b0319831681179093556040519116919082907f8be0079c531659141344cd1fd0a4f28419497f9722a3daafe3b4186f6b6457e090600090a35050565b80546000908015612b6f5782612b3d60018361542e565b81548110612b4d57612b4d6151cc565b60009182526020909120015464010000000090046001600160e01b0316612b72565b60005b6001600160e01b03169392505050565b816001600160a01b0316836001600160a01b031603612bb4576040516306f8139d60e11b815260040160405180910390fd5b6001600160a01b03838116600081815260046020908152604080832094871680845294825291829020805460ff191686151590811790915591519182527f17307eab39ab6107e8899845ad3d59bd9653f200f220920489ca2b5937696c31910160405180910390a3505050565b8151600090815b81811015612d935760095485516000916001600160a01b0316906342f9914b90889085908110612c5a57612c5a6151cc565b60200260200101516040518263ffffffff1660e01b8152600401612c8091815260200190565b602060405180830381865afa158015612c9d573d6000803e3d6000fd5b505050506040513d601f19601f82011682018060405250810190612cc191906153ff565b600954604051633a39e4d160e11b8152306004820152602481018390529192506000916001600160a01b0390911690637473c9a29060440161016060405180830381865afa158015612d17573d6000803e3d6000fd5b505050506040513d601f19601f82011682018060405250810190612d3b919061563d565b905080606001518160800151612d51919061542e565b6012612d5e60018561542e565b60648110612d6e57612d6e6151cc565b0154612d7a91906159f0565b612d849086615441565b94508260010192505050612c28565b5081600003612db557604051637691472960e01b815260040160405180910390fd5b5092915050565b6000808060001985870985870292508281108382030391505080600003612df657838281612dec57612dec6159da565b0492505050611f31565b838110612e2057604051631dcf306360e21b81526004810182905260248101859052604401612469565b60008486880960026001871981018816978890046003810283188082028403028082028403028082028403028082028403028082028403029081029092039091026000889003889004909101858311909403939093029303949094049190911702949350505050565b6001600160a01b038381166000818152600f6020908152604080832086845290915280822080548786166001600160a01b0319821681179092559151919094169392849290917f3134e8a2e6d97e929a7e54011ea5485d7d196dd5f0ba4d4ef95803e8e3fc257f9190a4610c9a818484612f03888761377c565b6137f8565b612f138484846127f8565b612f1f8484848461394d565b610c9a576040516336f57c1b60e11b815260040160405180910390fd5b612f468282613a4f565b5050600591909155600680546001600160a01b0319166001600160a01b03909216919091179055565b604051609160f51b60208201526022810182905260609060009060420160405160208183030381529060405290506000612fa882613a68565b90508481604051602001612fbd929190615a04565b6040516020818303038152906040529250505092915050565b60004382106130275760405162461bcd60e51b815260206004820181905260248201527f436865636b706f696e74733a20626c6f636b206e6f7420796574206d696e65646044820152606401612469565b825460005b8181101561308c5760006130408284613c02565b905084866000018281548110613058576130586151cc565b60009182526020909120015463ffffffff16111561307857809250613086565b613083816001615441565b91505b5061302c565b81156130d0578461309e60018461542e565b815481106130ae576130ae6151cc565b60009182526020909120015464010000000090046001600160e01b03166130d3565b60005b6001600160e01b031695945050505050565b600c5460009060c083013503613100575060808101356131b1565b600b546001600160a01b0316156114fa57600d546131ae9060808401359061312990600a615b17565b600b54600c54604051635268657960e11b815260c08801356004820152602481019190915260a087013560448201526001600160a01b039091169063a4d0caf290606401602060405180830381865afa15801561318a573d6000803e3d6000fd5b505050506040513d601f19601f820116820180604052508101906117ef91906153ff565b90505b6000600e816131c86101a08601610180870161459b565b6001600160a01b031681526020810191909152604001600090812054915082906131fa6101a08601610180870161459b565b6001600160a01b0316613210602087018761459b565b6001600160a01b031603613227579082019061322a565b50815b600080604461323d6101e0890189615226565b9050118015613281575063b3bcbb7960e01b61325d6101e0890189615226565b61326c9160449160409161526c565b61327591615296565b6001600160e01b031916145b1561332157600060606132986101e08a018a615226565b8101906132a59190615b23565b9199509750909550935050831591506132f8905057858501600e60006132d36101a08d016101808e0161459b565b6001600160a01b03168152602081019190915260400160002055505050505050505050565b80511561331e5761331b86826133166101a08d016101808e0161459b565b613c1d565b95505b50505b83156133c5576133438461333d6101a08a016101808b0161459b565b84613d5f565b935083156133a257801561336a57604051631b57826960e21b815260040160405180910390fd5b838301600e60006133836101a08b016101808c0161459b565b6001600160a01b03168152602081019190915260400160002055611a62565b8285146133c05782600e60006133836101a08b016101808c0161459b565b611a62565b828514611a625782600e60006133e36101a08b016101808c0161459b565b6001600160a01b0316815260208101919091526040016000205550505050505050565b60006001600160e01b031982166380ac58cd60e01b148061343757506001600160e01b03198216635b5e139f60e01b145b80610a2157506301ffc9a760e01b6001600160e01b0319831614610a21565b6001600160a01b03831615610b675760095460405163b67cb04760e01b8152306004820152602481018390526000916001600160a01b03169063b67cb0479060440161016060405180830381865afa1580156134b6573d6000803e3d6000fd5b505050506040513d601f19601f820116820180604052508101906134da919061563d565b90508061014001511561359f57600a546005546040516321d1336160e11b815260048101919091526000916001600160a01b0316906343a266c29060240161012060405180830381865afa158015613536573d6000803e3d6000fd5b505050506040513d601f19601f8201168201806040525081019061355a919061537f565b90506001600160a01b0384161580159061357f575061010081015160f41c6001908116145b1561359d576040516318cdaf9760e01b815260040160405180910390fd5b505b6009546040516308ed6c0160e41b8152306004820152602481018490526000916001600160a01b031690638ed6c01090604401602060405180830381865afa1580156135ef573d6000803e3d6000fd5b505050506040513d601f19601f8201168201806040525081019061361391906154bd565b6001600160a01b031603610c9a57600954604051638cec7d3960e01b8152600481018490526001600160a01b03868116602483015290911690638cec7d3990604401600060405180830381600087803b15801561366f57600080fd5b505af1158015612656573d6000803e3d6000fd5b60095460405163b67cb04760e01b8152306004820152602481018390526000916001600160a01b03169063b67cb0479060440161016060405180830381865afa1580156136d4573d6000803e3d6000fd5b505050506040513d601f19601f820116820180604052508101906136f8919061563d565b60095481516040516330b157e560e21b815260048101919091526001600160a01b038781166024830152868116604483015292935091169063c2c55f9490606401600060405180830381600087803b15801561375357600080fd5b505af1158015613767573d6000803e3d6000fd5b5050505061377784848484613e69565b610c9a565b6009546040516305c9a1d560e31b81523060048201526001600160a01b038481166024830152604482018490526000921690632e4d0ea890606401602060405180830381865afa1580156137d4573d6000803e3d6000fd5b505050506040513d601f19601f82011682018060405250810190611f3191906153ff565b826001600160a01b0316846001600160a01b03161480613816575080155b610c9a576001600160a01b038416156138b1576001600160a01b03841660009081526010602090815260408083208584529091528120819061385b90613f1085613f1c565b60408051838152602081018390523381830152905192945090925085916001600160a01b038916917fed0c1e94c302bdbbd8bbd6a4fb7c3ed335c2292407cd816eadd075d019d0ce04919081900360600190a350505b6001600160a01b03831615610c9a576001600160a01b0383166000908152601060209081526040808320858452909152812081906138f290613f4a85613f1c565b60408051838152602081018390523381830152905192945090925085916001600160a01b038816917fed0c1e94c302bdbbd8bbd6a4fb7c3ed335c2292407cd816eadd075d019d0ce04919081900360600190a3505050505050565b60006001600160a01b0384163b15613a4457604051630a85bd0160e11b81526001600160a01b0385169063150b7a0290613991903390899088908890600401615c1a565b6020604051808303816000875af19250505080156139cc575060408051601f3d908101601f191682019092526139c991810190615c57565b60015b613a2a573d8080156139fa576040519150601f19603f3d011682016040523d82523d6000602084013e6139ff565b606091505b508051600003613a22576040516336f57c1b60e11b815260040160405180910390fd5b805181602001fd5b6001600160e01b031916630a85bd0160e11b149050612146565b506001949350505050565b6000613a5b8382615cba565b506001610b678282615cba565b60608151600003613a89576040805160008082526020820190925290612db5565b60408051602e8082526105e08201909252600091602082016105c080368337019050509050600081600081518110613ac357613ac36151cc565b60ff90921660209283029190910190910152825160019060005b81811015613bde576000868281518110613af957613af96151cc565b016020015160f81c905060005b8460ff16811015613b83576008868281518110613b2557613b256151cc565b602002602001015160ff16901b82613b3d9190615441565b9150613b4a603a83615d79565b868281518110613b5c57613b5c6151cc565b60ff90921660209283029190910190910152613b79603a836159f0565b9150600101613b06565b505b8015613bd557613b96603a82615d79565b858560ff1681518110613bab57613bab6151cc565b60ff90921660209283029190910190910152600190930192613bce603a826159f0565b9050613b85565b50600101613add565b50613bf9613bf4613bef8585613f56565b613ffd565b61409f565b95945050505050565b6000613c1160028484186159f0565b611f3190848416615441565b60095460405163eaa19ab360e01b81526000916060916001600160a01b039091169063eaa19ab390613c5790889088908790600401615d8d565b6000604051808303816000875af1158015613c76573d6000803e3d6000fd5b505050506040513d6000823e601f3d908101601f19168201604052613c9e919081019061559d565b81519093509091506000805b82811015613d5457838181518110613cc457613cc46151cc565b60200260200101519150613cd88683612a0a565b856001600160a01b0316878281518110613cf457613cf46151cc565b602002602001015161ffff16837f598baf7bf150ca2f42be9e9f8f55e81d45f5715c3ff22bf46d697fabec7f31d68b33604051613d449291909182526001600160a01b0316602082015260400190565b60405180910390a4600101613caa565b505050509392505050565b60095460405163879791f360e01b815260048101859052600091829182916001600160a01b03169063879791f3906024016060604051808303816000875af1158015613daf573d6000803e3d6000fd5b505050506040513d601f19601f82011682018060405250810190613dd39190615dea565b945090925090506000829003613e09578315613e0257604051630e5313df60e41b815260040160405180910390fd5b5050611f31565b613e138583612a0a565b6001600160a01b03851681837f598baf7bf150ca2f42be9e9f8f55e81d45f5715c3ff22bf46d697fabec7f31d6613e4a878b61542e565b604080519182523360208301520160405180910390a450509392505050565b60a081015115610c9a576001600160a01b038381166000908152600f602090815260408083208551845290915290205416613efc576001600160a01b0383166000818152600f602090815260408083208551845290915280822080546001600160a01b031916841790555182907f3134e8a2e6d97e929a7e54011ea5485d7d196dd5f0ba4d4ef95803e8e3fc257f908390a45b610c9a848483600001518460a00151614178565b6000611f31828461542e565b600080613f3e85613f39613f2f88612b26565b868863ffffffff16565b61421a565b91509150935093915050565b6000611f318284615441565b606060008260ff166001600160401b03811115613f7557613f75614679565b604051908082528060200260200182016040528015613f9e578160200160208202803683370190505b50905060005b8360ff16811015613ff557848181518110613fc157613fc16151cc565b6020026020010151828281518110613fdb57613fdb6151cc565b60ff90921660209283029190910190910152600101613fa4565b509392505050565b80516060906000816001600160401b0381111561401c5761401c614679565b604051908082528060200260200182016040528015614045578160200160208202803683370190505b50905060005b82811015613ff55784816001875103038151811061406b5761406b6151cc565b6020026020010151828281518110614085576140856151cc565b60ff9092166020928302919091019091015260010161404b565b80516060906000816001600160401b038111156140be576140be614679565b6040519080825280601f01601f1916602001820160405280156140e8576020820181803683370190505b50905060005b82811015613ff5576040518060600160405280603a8152602001615e19603a9139858281518110614121576141216151cc565b602002602001015160ff168151811061413c5761413c6151cc565b602001015160f81c60f81b828281518110614159576141596151cc565b60200101906001600160f81b031916908160001a9053506001016140ee565b6001600160a01b0384166141a45760008281526011602052604090206141a190613f4a83613f1c565b50505b6001600160a01b0383166141d05760008281526011602052604090206141cd90613f1083613f1c565b50505b6001600160a01b038085166000908152600f60208181526040808420878552825280842054888616855292825280842087855290915290912054610c9a92918216911684846137f8565b815460009081908161422b86612b26565b90506000821180156142695750438661424560018561542e565b81548110614255576142556151cc565b60009182526020909120015463ffffffff16145b156142c95761427785614345565b8661428360018561542e565b81548110614293576142936151cc565b9060005260206000200160000160046101000a8154816001600160e01b0302191690836001600160e01b03160217905550614337565b8560000160405180604001604052806142e1436143b2565b63ffffffff1681526020016142f588614345565b6001600160e01b0390811690915282546001810184556000938452602093849020835194909301519091166401000000000263ffffffff909316929092179101555b9250839150505b9250929050565b60006001600160e01b038211156143ae5760405162461bcd60e51b815260206004820152602760248201527f53616665436173743a2076616c756520646f65736e27742066697420696e20326044820152663234206269747360c81b6064820152608401612469565b5090565b600063ffffffff8211156143ae5760405162461bcd60e51b815260206004820152602660248201527f53616665436173743a2076616c756520646f65736e27742066697420696e203360448201526532206269747360d01b6064820152608401612469565b5061247b906064810190614445565b60405180610c8001604052806064906020820280368337509192915050565b5b808211156143ae5760008155600101614446565b6001600160e01b03198116811461247b57600080fd5b60006020828403121561448257600080fd5b8135611f318161445a565b60005b838110156144a8578181015183820152602001614490565b50506000910152565b600081518084526144c981602086016020860161448d565b601f01601f19169290920160200192915050565b602081526000611f3160208301846144b1565b60006020828403121561450257600080fd5b5035919050565b6001600160a01b038116811461247b57600080fd5b803561452981614509565b919050565b6000806040838503121561454157600080fd5b823561454c81614509565b946020939093013593505050565b60008060006060848603121561456f57600080fd5b833561457a81614509565b9250602084013561458a81614509565b929592945050506040919091013590565b6000602082840312156145ad57600080fd5b8135611f3181614509565b600080602083850312156145cb57600080fd5b82356001600160401b03808211156145e257600080fd5b818501915085601f8301126145f657600080fd5b81358181111561460557600080fd5b8660208260061b850101111561461a57600080fd5b60209290920196919550909350505050565b60006101e0828403121561463f57600080fd5b50919050565b60006020828403121561465757600080fd5b81356001600160401b0381111561466d57600080fd5b6121468482850161462c565b634e487b7160e01b600052604160045260246000fd5b604080519081016001600160401b03811182821017156146b1576146b1614679565b60405290565b604051608081016001600160401b03811182821017156146b1576146b1614679565b60405161014081016001600160401b03811182821017156146b1576146b1614679565b60405161012081016001600160401b03811182821017156146b1576146b1614679565b60405161016081016001600160401b03811182821017156146b1576146b1614679565b604051601f8201601f191681016001600160401b038111828210171561476a5761476a614679565b604052919050565b60006001600160401b0382111561478b5761478b614679565b5060051b60200190565b6000604082840312156147a757600080fd5b6147af61468f565b9050813581526020820135602082015292915050565b600060208083850312156147d857600080fd5b82356001600160401b038111156147ee57600080fd5b8301601f810185136147ff57600080fd5b803561481261480d82614772565b614742565b81815260069190911b8201830190838101908783111561483157600080fd5b928401925b8284101561485a576148488885614795565b82528482019150604084019350614836565b979650505050505050565b60008083601f84011261487757600080fd5b5081356001600160401b0381111561488e57600080fd5b6020830191508360208260051b850101111561433e57600080fd5b600080602083850312156148bc57600080fd5b82356001600160401b038111156148d257600080fd5b6148de85828601614865565b90969095509350505050565b6000806000604084860312156148ff57600080fd5b83356001600160401b0381111561491557600080fd5b61492186828701614865565b909450925050602084013561493581614509565b809150509250925092565b6020808252825182820181905260009190848201906040850190845b818110156149785783518352928401929184019160010161495c565b50909695505050505050565b610c808101818360005b60648110156149ad57815183526020928301929091019060010161498e565b50505092915050565b600080602083850312156149c957600080fd5b82356001600160401b03808211156149e057600080fd5b818501915085601f8301126149f457600080fd5b813581811115614a0357600080fd5b86602082850101111561461a57600080fd5b801515811461247b57600080fd5b803561452981614a15565b60008060408385031215614a4157600080fd5b8235614a4c81614509565b91506020830135614a5c81614a15565b809150509250929050565b83815260006020606081840152614a8160608401866144b1565b83810360408581019190915285518083528387019284019060005b81811015614aca57845180516001600160a01b03168452860151868401529385019391830191600101614a9c565b50909998505050505050505050565b60008060408385031215614aec57600080fd5b50508035926020909101359150565b60006001600160401b03821115614b1457614b14614679565b50601f01601f191660200190565b6000614b3061480d84614afb565b9050828152838383011115614b4457600080fd5b828260208301376000602084830101529392505050565b60008060008060808587031215614b7157600080fd5b8435614b7c81614509565b93506020850135614b8c81614509565b92506040850135915060608501356001600160401b03811115614bae57600080fd5b8501601f81018713614bbf57600080fd5b614bce87823560208401614b22565b91505092959194509250565b600082601f830112614beb57600080fd5b611f3183833560208501614b22565b803569ffffffffffffffffffff8116811461452957600080fd5b803565ffffffffffff8116811461452957600080fd5b803564ffffffffff8116811461452957600080fd5b803561ffff8116811461452957600080fd5b60006080808385031215614c6457600080fd5b614c6c6146b7565b915082356001600160401b03811115614c8457600080fd5b8301601f81018513614c9557600080fd5b80356020614ca561480d83614772565b8281526101409283028401820192828201919089851115614cc557600080fd5b948301945b84861015614d945780868b031215614ce25760008081fd5b614cea6146d9565b614cf387614bfa565b8152614d00858801614c14565b858201526040614d11818901614c2a565b908201526060614d22888201614c3f565b90820152614d31878901614c3f565b8882015260a0614d4281890161451e565b9082015260c0878101359082015260e0614d5d818901614a23565b90820152610100614d6f888201614a23565b90820152610120614d81888201614a23565b9082015283529485019491830191614cca565b50865250858101359085015250505060408083013590820152614db96060830161451e565b606082015292915050565b600060608284031215614dd657600080fd5b604051606081018181106001600160401b0382111715614df857614df8614679565b6040529050808235614e0981614a15565b81526020830135614e1981614a15565b60208201526040830135614e2c81614a15565b6040919091015292915050565b60008060008060008060008060008060006101a08c8e031215614e5b57600080fd5b8b359a50614e6b60208d0161451e565b99506001600160401b038060408e01351115614e8657600080fd5b614e968e60408f01358f01614bda565b99508060608e01351115614ea957600080fd5b614eb98e60608f01358f01614bda565b9850614ec760808e0161451e565b97508060a08e01351115614eda57600080fd5b614eea8e60a08f01358f01614bda565b9650614ef860c08e0161451e565b95508060e08e01351115614f0b57600080fd5b614f1b8e60e08f01358f01614bda565b9450806101008e01351115614f2f57600080fd5b50614f418d6101008e01358e01614c51565b9250614f506101208d0161451e565b9150614f608d6101408e01614dc4565b90509295989b509295989b9093969950565b60006020808385031215614f8557600080fd5b82356001600160401b03811115614f9b57600080fd5b8301601f81018513614fac57600080fd5b8035614fba61480d82614772565b81815260069190911b82018301908381019087831115614fd957600080fd5b928401925b8284101561485a5760408489031215614ff75760008081fd5b614fff61468f565b843561500a81614509565b81528486013586820152825260409093019290840190614fde565b60008060006060848603121561503a57600080fd5b833561504581614509565b95602085013595506040909401359392505050565b60006020828403121561506c57600080fd5b81356001600160401b0381111561508257600080fd5b82016101a08185031215611f3157600080fd5b6000602082840312156150a757600080fd5b81356001600160401b038111156150bd57600080fd5b82016102008185031215611f3157600080fd5b600080604083850312156150e357600080fd5b82356150ee81614509565b91506020830135614a5c81614509565b6000806000806040858703121561511457600080fd5b84356001600160401b038082111561512b57600080fd5b818701915087601f83011261513f57600080fd5b81358181111561514e57600080fd5b8860206101408302850101111561516457600080fd5b60209283019650945090860135908082111561517f57600080fd5b5061518c87828801614865565b95989497509550505050565b600181811c908216806151ac57607f821691505b60208210810361463f57634e487b7160e01b600052602260045260246000fd5b634e487b7160e01b600052603260045260246000fd5b6000604082840312156151f457600080fd5b611f318383614795565b805161452981614a15565b60006020828403121561521b57600080fd5b8151611f3181614a15565b6000808335601e1984360301811261523d57600080fd5b8301803591506001600160401b0382111561525757600080fd5b60200191503681900382131561433e57600080fd5b6000808585111561527c57600080fd5b8386111561528957600080fd5b5050820193919092039150565b6001600160e01b031981358181169160048510156152be5780818660040360031b1b83161692505b505092915050565b6000806000606084860312156152db57600080fd5b833592506020808501356152ee8161445a565b925060408501356001600160401b0381111561530957600080fd5b8501601f8101871361531a57600080fd5b803561532861480d82614772565b81815260059190911b8201830190838101908983111561534757600080fd5b928401925b828410156153655783358252928401929084019061534c565b80955050505050509250925092565b805161452981614509565b6000610120828403121561539257600080fd5b61539a6146fc565b825181526020830151602082015260408301516040820152606083015160608201526080830151608082015260a083015160a082015260c083015160c08201526153e660e08401615374565b60e0820152610100928301519281019290925250919050565b60006020828403121561541157600080fd5b5051919050565b634e487b7160e01b600052601160045260246000fd5b81810381811115610a2157610a21615418565b80820180821115610a2157610a21615418565b60008235603e1983360301811261546a57600080fd5b9190910192915050565b6000808335601e1984360301811261548b57600080fd5b8301803591506001600160401b038211156154a557600080fd5b6020019150600581901b360382131561433e57600080fd5b6000602082840312156154cf57600080fd5b8151611f3181614509565b84815260606020808301829052908201849052600090859060808401835b8781101561551f5761ffff61550c85614c3f565b16825292820192908201906001016154f8565b50809350505050821515604083015295945050505050565b600082601f83011261554857600080fd5b8151602061555861480d83614772565b82815260059290921b8401810191818101908684111561557757600080fd5b8286015b84811015615592578051835291830191830161557b565b509695505050505050565b600080604083850312156155b057600080fd5b82516001600160401b038111156155c657600080fd5b6155d285828601615537565b925050602083015190509250929050565b6000602082840312156155f557600080fd5b611f3182614c3f565b60208152816020820152818360408301376000818301604090810191909152601f909201601f19160101919050565b8183823760009101908152919050565b6000610160828403121561565057600080fd5b61565861471f565b825181526020830151602082015260408301516040820152606083015160608201526080830151608082015260a083015160a082015260c083015160c08201526156a460e08401615374565b60e082015261010083810151908201526101206156c28185016151fe565b908201526101406156d48482016151fe565b908201529392505050565b6000602082840312156156f157600080fd5b81516001600160401b0381111561570757600080fd5b61214684828501615537565b602080825282518282018190526000919060409081850190868401855b828110156157df578151805169ffffffffffffffffffff1685528681015165ffffffffffff16878601528581015164ffffffffff168686015260608082015161ffff908116918701919091526080808301519091169086015260a0808201516001600160a01b03169086015260c0808201519086015260e08082015115159086015261010080820151151590860152610120908101511515908501526101409093019290850190600101615730565b5091979650505050505050565b6000602082840312156157fe57600080fd5b81516001600160401b0381111561581457600080fd5b8201601f8101841361582557600080fd5b805161583361480d82614afb565b81815285602083850101111561584857600080fd5b613bf982602083016020860161448d565b6020808252810182905260006001600160fb1b0383111561587957600080fd5b8260051b80856040850137919091016040019392505050565b6158af8261589f83614bfa565b69ffffffffffffffffffff169052565b6158bb60208201614c14565b65ffffffffffff1660208301526158d460408201614c2a565b64ffffffffff1660408301526158ec60608201614c3f565b61ffff16606083015261590160808201614c3f565b61ffff16608083015261591660a0820161451e565b6001600160a01b031660a083015260c0818101359083015261593a60e08201614a23565b151560e083015261010061594f828201614a23565b151590830152610120615963828201614a23565b80151584830152610c9a565b6020808252810182905260008360408301825b858110156159a8576159948284615892565b610140928301929190910190600101615982565b5095945050505050565b61016081016159c18285615892565b6001600160a01b03929092166101409190910152919050565b634e487b7160e01b600052601260045260246000fd5b6000826159ff576159ff6159da565b500490565b60008351615a1681846020880161448d565b835190830190615a2a81836020880161448d565b01949350505050565b600181815b80851115615a6e578160001904821115615a5457615a54615418565b80851615615a6157918102915b93841c9390800290615a38565b509250929050565b600082615a8557506001610a21565b81615a9257506000610a21565b8160018114615aa85760028114615ab257615ace565b6001915050610a21565b60ff841115615ac357615ac3615418565b50506001821b610a21565b5060208310610133831016604e8410600b8410161715615af1575081810a610a21565b615afb8383615a33565b8060001904821115615b0f57615b0f615418565b029392505050565b6000611f318383615a76565b600080600080600080600060e0888a031215615b3e57600080fd5b8735965060208089013596506040890135615b588161445a565b95506060890135615b6881614a15565b94506080890135615b7881614a15565b935060a0890135615b8881614a15565b925060c08901356001600160401b03811115615ba357600080fd5b8901601f81018b13615bb457600080fd5b8035615bc261480d82614772565b81815260059190911b8201830190838101908d831115615be157600080fd5b928401925b82841015615c0657615bf784614c3f565b82529284019290840190615be6565b809550505050505092959891949750929550565b6001600160a01b0385811682528416602082015260408101839052608060608201819052600090615c4d908301846144b1565b9695505050505050565b600060208284031215615c6957600080fd5b8151611f318161445a565b601f821115610b6757600081815260208120601f850160051c81016020861015615c9b5750805b601f850160051c820191505b8181101561265957828155600101615ca7565b81516001600160401b03811115615cd357615cd3614679565b615ce781615ce18454615198565b84615c74565b602080601f831160018114615d1c5760008415615d045750858301515b600019600386901b1c1916600185901b178555612659565b600085815260208120601f198616915b82811015615d4b57888601518255948401946001909101908401615d2c565b5085821015615d695787850151600019600388901b60f8161c191681555b5050505050600190811b01905550565b600082615d8857615d886159da565b500690565b6000606082018583526020606081850152818651808452608086019150828801935060005b81811015615dd257845161ffff1683529383019391830191600101615db2565b50508093505050508215156040830152949350505050565b600080600060608486031215615dff57600080fd5b835192506020840151915060408401519050925092509256fe31323334353637383941424344454647484a4b4c4d4e505152535455565758595a6162636465666768696a6b6d6e6f707172737475767778797aa264697066735822122052e7c84f9f10fd8942b329f53000a6183c6909f0a802835f0ad22ba88c45df5e64736f6c63430008110033",
    "linkReferences": {}
  },
  "methodIdentifiers": {
    "END_GAME_PHASE()": "06bc0c90",
    "MINT_GAME_PHASE()": "bd50adf0",
    "TOTAL_REDEMPTION_WEIGHT()": "640abacd",
    "adjustTiers((uint80,uint48,uint40,uint16,uint16,address,bytes32,bool,bool,bool)[],uint256[])": "f5a38e63",
    "approve(address,uint256)": "095ea7b3",
    "balanceOf(address)": "70a08231",
    "codeOrigin()": "1d153ca4",
    "contractURI()": "e8a3d485",
    "creditsOf(address)": "245a45b5",
    "didPay((address,uint256,uint256,(address,uint256,uint256,uint256),(address,uint256,uint256,uint256),uint256,address,bool,string,bytes))": "da9ee8b7",
    "didRedeem((address,uint256,uint256,uint256,(address,uint256,uint256,uint256),(address,uint256,uint256,uint256),address,string,bytes))": "2b13c58f",
    "directory()": "c41c2f24",
    "firstOwnerOf(uint256)": "54c6d1f5",
    "fundingCycleStore()": "557e7155",
    "getApproved(uint256)": "081812fc",
    "getPastTierTotalVotes(uint256,uint256)": "d31cc52c",
    "getPastTierVotes(address,uint256,uint256)": "d40e7146",
    "getTierDelegate(address,uint256)": "82732b6d",
    "getTierTotalVotes(uint256)": "94c5c5ca",
    "getTierVotes(address,uint256)": "ca323efe",
    "initialize(uint256,address,string,string,address,string,address,string,((uint80,uint48,uint40,uint16,uint16,address,bytes32,bool,bool,bool)[],uint256,uint256,address),address,(bool,bool,bool))": "bb52b6e4",
    "isApprovedForAll(address,address)": "e985e9c5",
    "mintFor((uint16[],address)[])": "36c1a93b",
    "mintFor(uint16[],address)": "6ac6d941",
    "mintReservesFor((uint256,uint256)[])": "2a596e53",
    "mintReservesFor(uint256,uint256)": "aa4fb15b",
    "name()": "06fdde03",
    "owner()": "8da5cb5b",
    "ownerOf(uint256)": "6352211e",
    "payParams((address,address,(address,uint256,uint256,uint256),uint256,uint256,address,uint256,uint256,string,bytes))": "d46cf171",
    "prices()": "d3419bf3",
    "pricingCurrency()": "64640c1e",
    "pricingDecimals()": "4ecba625",
    "projectId()": "3fafa127",
    "redeemParams((address,address,uint256,uint256,uint256,uint256,uint256,(address,uint256,uint256,uint256),bool,uint256,string,bytes))": "a51cfd18",
    "renounceOwnership()": "715018a6",
    "safeTransferFrom(address,address,uint256)": "42842e0e",
    "safeTransferFrom(address,address,uint256,bytes)": "b88d4fde",
    "setApprovalForAll(address,bool)": "a22cb465",
    "setBaseUri(string)": "a0bcfc7f",
    "setContractUri(string)": "ccb4807b",
    "setDefaultReservedTokenBeneficiary(address)": "df487e26",
    "setTierDelegate(address,uint256)": "ab951e39",
    "setTierDelegates((address,uint256)[])": "c74b13d9",
    "setTierRedemptionWeights((uint256,uint256)[])": "2f441500",
    "setTokenUriResolver(address)": "2407497e",
    "store()": "975057e7",
    "supportsInterface(bytes4)": "01ffc9a7",
    "symbol()": "95d89b41",
    "tierRedemptionWeights()": "9df45468",
    "tokenURI(uint256)": "c87b56dd",
    "transferFrom(address,address,uint256)": "23b872dd",
    "transferOwnership(address)": "f2fde38b"
  },
  "id": 0
}