{
  "abi": [
    {
      "inputs": [],
      "name": "ALEADY_MINTED",
      "type": "error"
    },
    {
      "inputs": [],
      "name": "APPROVAL_TO_CURRENT_OWNER",
      "type": "error"
    },
    {
      "inputs": [],
      "name": "APPROVE_TO_CALLER",
      "type": "error"
    },
    {
      "inputs": [],
      "name": "BLOCK_NOT_YET_MINED",
      "type": "error"
    },
    {
      "inputs": [],
      "name": "CALLER_NOT_OWNER_OR_APPROVED",
      "type": "error"
    },
    {
      "inputs": [],
      "name": "DELEGATE_ADDRESS_ZERO",
      "type": "error"
    },
    {
      "inputs": [],
      "name": "GAME_ISNT_OVER_YET",
      "type": "error"
    },
    {
      "inputs": [],
      "name": "INCORRECT_OWNER",
      "type": "error"
    },
    {
      "inputs": [],
      "name": "INVALID_PAYMENT_EVENT",
      "type": "error"
    },
    {
      "inputs": [],
      "name": "INVALID_REDEMPTION_EVENT",
      "type": "error"
    },
    {
      "inputs": [],
      "name": "INVALID_REDEMPTION_METADATA",
      "type": "error"
    },
    {
      "inputs": [],
      "name": "INVALID_REDEMPTION_WEIGHTS",
      "type": "error"
    },
    {
      "inputs": [],
      "name": "INVALID_TOKEN_ID",
      "type": "error"
    },
    {
      "inputs": [],
      "name": "MINT_TO_ZERO",
      "type": "error"
    },
    {
      "inputs": [],
      "name": "NOTHING_TO_CLAIM",
      "type": "error"
    },
    {
      "inputs": [],
      "name": "NOT_AVAILABLE",
      "type": "error"
    },
    {
      "inputs": [],
      "name": "OVERSPENDING",
      "type": "error"
    },
    {
      "inputs": [
        {
          "internalType": "uint256",
          "name": "prod1",
          "type": "uint256"
        },
        {
          "internalType": "uint256",
          "name": "denominator",
          "type": "uint256"
        }
      ],
      "name": "PRBMath__MulDivOverflow",
      "type": "error"
    },
    {
      "inputs": [],
      "name": "PRICING_RESOLVER_CHANGES_PAUSED",
      "type": "error"
    },
    {
      "inputs": [],
      "name": "RESERVED_TOKEN_MINTING_PAUSED",
      "type": "error"
    },
    {
      "inputs": [],
      "name": "TRANSFERS_PAUSED",
      "type": "error"
    },
    {
      "inputs": [],
      "name": "TRANSFER_TO_NON_IMPLEMENTER",
      "type": "error"
    },
    {
      "inputs": [],
      "name": "TRANSFER_TO_ZERO_ADDRESS",
      "type": "error"
    },
    {
      "inputs": [],
      "name": "UNAUTHORIZED",
      "type": "error"
    },
    {
      "inputs": [],
      "name": "UNEXPECTED",
      "type": "error"
    },
    {
      "inputs": [],
      "name": "UNEXPECTED_TOKEN_REDEEMED",
      "type": "error"
    },
    {
      "anonymous": false,
      "inputs": [
        {
          "indexed": true,
          "internalType": "uint256",
          "name": "tierId",
          "type": "uint256"
        },
        {
          "components": [
            {
              "internalType": "uint80",
              "name": "contributionFloor",
              "type": "uint80"
            },
            {
              "internalType": "uint48",
              "name": "lockedUntil",
              "type": "uint48"
            },
            {
              "internalType": "uint40",
              "name": "initialQuantity",
              "type": "uint40"
            },
            {
              "internalType": "uint16",
              "name": "votingUnits",
              "type": "uint16"
            },
            {
              "internalType": "uint16",
              "name": "reservedRate",
              "type": "uint16"
            },
            {
              "internalType": "address",
              "name": "reservedTokenBeneficiary",
              "type": "address"
            },
            {
              "internalType": "bytes32",
              "name": "encodedIPFSUri",
              "type": "bytes32"
            },
            {
              "internalType": "bool",
              "name": "allowManualMint",
              "type": "bool"
            },
            {
              "internalType": "bool",
              "name": "shouldUseBeneficiaryAsDefault",
              "type": "bool"
            },
            {
              "internalType": "bool",
              "name": "transfersPausable",
              "type": "bool"
            }
          ],
          "indexed": false,
          "internalType": "struct JB721TierParams",
          "name": "data",
          "type": "tuple"
        },
        {
          "indexed": false,
          "internalType": "address",
          "name": "caller",
          "type": "address"
        }
      ],
      "name": "AddTier",
      "type": "event"
    },
    {
      "anonymous": false,
      "inputs": [
        {
          "indexed": true,
          "internalType": "address",
          "name": "owner",
          "type": "address"
        },
        {
          "indexed": true,
          "internalType": "address",
          "name": "approved",
          "type": "address"
        },
        {
          "indexed": true,
          "internalType": "uint256",
          "name": "tokenId",
          "type": "uint256"
        }
      ],
      "name": "Approval",
      "type": "event"
    },
    {
      "anonymous": false,
      "inputs": [
        {
          "indexed": true,
          "internalType": "address",
          "name": "owner",
          "type": "address"
        },
        {
          "indexed": true,
          "internalType": "address",
          "name": "operator",
          "type": "address"
        },
        {
          "indexed": false,
          "internalType": "bool",
          "name": "approved",
          "type": "bool"
        }
      ],
      "name": "ApprovalForAll",
      "type": "event"
    },
    {
      "anonymous": false,
      "inputs": [
        {
          "indexed": true,
          "internalType": "address",
          "name": "delegator",
          "type": "address"
        },
        {
          "indexed": true,
          "internalType": "address",
          "name": "fromDelegate",
          "type": "address"
        },
        {
          "indexed": true,
          "internalType": "address",
          "name": "toDelegate",
          "type": "address"
        }
      ],
      "name": "DelegateChanged",
      "type": "event"
    },
    {
      "anonymous": false,
      "inputs": [
        {
          "indexed": true,
          "internalType": "uint256",
          "name": "tokenId",
          "type": "uint256"
        },
        {
          "indexed": true,
          "internalType": "uint256",
          "name": "tierId",
          "type": "uint256"
        },
        {
          "indexed": true,
          "internalType": "address",
          "name": "beneficiary",
          "type": "address"
        },
        {
          "indexed": false,
          "internalType": "uint256",
          "name": "totalAmountContributed",
          "type": "uint256"
        },
        {
          "indexed": false,
          "internalType": "address",
          "name": "caller",
          "type": "address"
        }
      ],
      "name": "Mint",
      "type": "event"
    },
    {
      "anonymous": false,
      "inputs": [
        {
          "indexed": true,
          "internalType": "uint256",
          "name": "tokenId",
          "type": "uint256"
        },
        {
          "indexed": true,
          "internalType": "uint256",
          "name": "tierId",
          "type": "uint256"
        },
        {
          "indexed": true,
          "internalType": "address",
          "name": "beneficiary",
          "type": "address"
        },
        {
          "indexed": false,
          "internalType": "address",
          "name": "caller",
          "type": "address"
        }
      ],
      "name": "MintReservedToken",
      "type": "event"
    },
    {
      "anonymous": false,
      "inputs": [
        {
          "indexed": true,
          "internalType": "address",
          "name": "previousOwner",
          "type": "address"
        },
        {
          "indexed": true,
          "internalType": "address",
          "name": "newOwner",
          "type": "address"
        }
      ],
      "name": "OwnershipTransferred",
      "type": "event"
    },
    {
      "anonymous": false,
      "inputs": [
        {
          "indexed": true,
          "internalType": "uint256",
          "name": "tierId",
          "type": "uint256"
        },
        {
          "indexed": false,
          "internalType": "address",
          "name": "caller",
          "type": "address"
        }
      ],
      "name": "RemoveTier",
      "type": "event"
    },
    {
      "anonymous": false,
      "inputs": [
        {
          "indexed": true,
          "internalType": "string",
          "name": "baseUri",
          "type": "string"
        },
        {
          "indexed": false,
          "internalType": "address",
          "name": "caller",
          "type": "address"
        }
      ],
      "name": "SetBaseUri",
      "type": "event"
    },
    {
      "anonymous": false,
      "inputs": [
        {
          "indexed": true,
          "internalType": "string",
          "name": "contractUri",
          "type": "string"
        },
        {
          "indexed": false,
          "internalType": "address",
          "name": "caller",
          "type": "address"
        }
      ],
      "name": "SetContractUri",
      "type": "event"
    },
    {
      "anonymous": false,
      "inputs": [
        {
          "indexed": true,
          "internalType": "address",
          "name": "beneficiary",
          "type": "address"
        },
        {
          "indexed": false,
          "internalType": "address",
          "name": "caller",
          "type": "address"
        }
      ],
      "name": "SetDefaultReservedTokenBeneficiary",
      "type": "event"
    },
    {
      "anonymous": false,
      "inputs": [
        {
          "indexed": true,
          "internalType": "contract IJBTokenUriResolver",
          "name": "newResolver",
          "type": "address"
        },
        {
          "indexed": false,
          "internalType": "address",
          "name": "caller",
          "type": "address"
        }
      ],
      "name": "SetTokenUriResolver",
      "type": "event"
    },
    {
      "anonymous": false,
      "inputs": [
        {
          "indexed": true,
          "internalType": "address",
          "name": "delegator",
          "type": "address"
        },
        {
          "indexed": true,
          "internalType": "address",
          "name": "fromDelegate",
          "type": "address"
        },
        {
          "indexed": true,
          "internalType": "address",
          "name": "toDelegate",
          "type": "address"
        },
        {
          "indexed": false,
          "internalType": "uint256",
          "name": "tierId",
          "type": "uint256"
        },
        {
          "indexed": false,
          "internalType": "address",
          "name": "caller",
          "type": "address"
        }
      ],
      "name": "TierDelegateChanged",
      "type": "event"
    },
    {
      "anonymous": false,
      "inputs": [
        {
          "indexed": true,
          "internalType": "address",
          "name": "delegate",
          "type": "address"
        },
        {
          "indexed": true,
          "internalType": "uint256",
          "name": "tierId",
          "type": "uint256"
        },
        {
          "indexed": false,
          "internalType": "uint256",
          "name": "previousBalance",
          "type": "uint256"
        },
        {
          "indexed": false,
          "internalType": "uint256",
          "name": "newBalance",
          "type": "uint256"
        },
        {
          "indexed": false,
          "internalType": "address",
          "name": "callre",
          "type": "address"
        }
      ],
      "name": "TierDelegateVotesChanged",
      "type": "event"
    },
    {
      "anonymous": false,
      "inputs": [
        {
          "indexed": true,
          "internalType": "address",
          "name": "from",
          "type": "address"
        },
        {
          "indexed": true,
          "internalType": "address",
          "name": "to",
          "type": "address"
        },
        {
          "indexed": true,
          "internalType": "uint256",
          "name": "tokenId",
          "type": "uint256"
        }
      ],
      "name": "Transfer",
      "type": "event"
    },
    {
      "inputs": [],
      "name": "END_GAME_PHASE",
      "outputs": [
        {
          "internalType": "uint256",
          "name": "",
          "type": "uint256"
        }
      ],
      "stateMutability": "view",
      "type": "function"
    },
    {
      "inputs": [],
      "name": "MINT_GAME_PHASE",
      "outputs": [
        {
          "internalType": "uint256",
          "name": "",
          "type": "uint256"
        }
      ],
      "stateMutability": "view",
      "type": "function"
    },
    {
      "inputs": [],
      "name": "TOTAL_REDEMPTION_WEIGHT",
      "outputs": [
        {
          "internalType": "uint256",
          "name": "",
          "type": "uint256"
        }
      ],
      "stateMutability": "view",
      "type": "function"
    },
    {
      "inputs": [
        {
          "components": [
            {
              "internalType": "uint80",
              "name": "contributionFloor",
              "type": "uint80"
            },
            {
              "internalType": "uint48",
              "name": "lockedUntil",
              "type": "uint48"
            },
            {
              "internalType": "uint40",
              "name": "initialQuantity",
              "type": "uint40"
            },
            {
              "internalType": "uint16",
              "name": "votingUnits",
              "type": "uint16"
            },
            {
              "internalType": "uint16",
              "name": "reservedRate",
              "type": "uint16"
            },
            {
              "internalType": "address",
              "name": "reservedTokenBeneficiary",
              "type": "address"
            },
            {
              "internalType": "bytes32",
              "name": "encodedIPFSUri",
              "type": "bytes32"
            },
            {
              "internalType": "bool",
              "name": "allowManualMint",
              "type": "bool"
            },
            {
              "internalType": "bool",
              "name": "shouldUseBeneficiaryAsDefault",
              "type": "bool"
            },
            {
              "internalType": "bool",
              "name": "transfersPausable",
              "type": "bool"
            }
          ],
          "internalType": "struct JB721TierParams[]",
          "name": "_tiersToAdd",
          "type": "tuple[]"
        },
        {
          "internalType": "uint256[]",
          "name": "_tierIdsToRemove",
          "type": "uint256[]"
        }
      ],
      "name": "adjustTiers",
      "outputs": [],
      "stateMutability": "nonpayable",
      "type": "function"
    },
    {
      "inputs": [
        {
          "internalType": "address",
          "name": "to",
          "type": "address"
        },
        {
          "internalType": "uint256",
          "name": "tokenId",
          "type": "uint256"
        }
      ],
      "name": "approve",
      "outputs": [],
      "stateMutability": "nonpayable",
      "type": "function"
    },
    {
      "inputs": [
        {
          "internalType": "address",
          "name": "_owner",
          "type": "address"
        }
      ],
      "name": "balanceOf",
      "outputs": [
        {
          "internalType": "uint256",
          "name": "balance",
          "type": "uint256"
        }
      ],
      "stateMutability": "view",
      "type": "function"
    },
    {
      "inputs": [],
      "name": "codeOrigin",
      "outputs": [
        {
          "internalType": "address",
          "name": "",
          "type": "address"
        }
      ],
      "stateMutability": "view",
      "type": "function"
    },
    {
      "inputs": [],
      "name": "contractURI",
      "outputs": [
        {
          "internalType": "string",
          "name": "",
          "type": "string"
        }
      ],
      "stateMutability": "view",
      "type": "function"
    },
    {
      "inputs": [
        {
          "internalType": "address",
          "name": "",
          "type": "address"
        }
      ],
      "name": "creditsOf",
      "outputs": [
        {
          "internalType": "uint256",
          "name": "",
          "type": "uint256"
        }
      ],
      "stateMutability": "view",
      "type": "function"
    },
    {
      "inputs": [
        {
          "components": [
            {
              "internalType": "address",
              "name": "payer",
              "type": "address"
            },
            {
              "internalType": "uint256",
              "name": "projectId",
              "type": "uint256"
            },
            {
              "internalType": "uint256",
              "name": "currentFundingCycleConfiguration",
              "type": "uint256"
            },
            {
              "components": [
                {
                  "internalType": "address",
                  "name": "token",
                  "type": "address"
                },
                {
                  "internalType": "uint256",
                  "name": "value",
                  "type": "uint256"
                },
                {
                  "internalType": "uint256",
                  "name": "decimals",
                  "type": "uint256"
                },
                {
                  "internalType": "uint256",
                  "name": "currency",
                  "type": "uint256"
                }
              ],
              "internalType": "struct JBTokenAmount",
              "name": "amount",
              "type": "tuple"
            },
            {
              "components": [
                {
                  "internalType": "address",
                  "name": "token",
                  "type": "address"
                },
                {
                  "internalType": "uint256",
                  "name": "value",
                  "type": "uint256"
                },
                {
                  "internalType": "uint256",
                  "name": "decimals",
                  "type": "uint256"
                },
                {
                  "internalType": "uint256",
                  "name": "currency",
                  "type": "uint256"
                }
              ],
              "internalType": "struct JBTokenAmount",
              "name": "forwardedAmount",
              "type": "tuple"
            },
            {
              "internalType": "uint256",
              "name": "projectTokenCount",
              "type": "uint256"
            },
            {
              "internalType": "address",
              "name": "beneficiary",
              "type": "address"
            },
            {
              "internalType": "bool",
              "name": "preferClaimedTokens",
              "type": "bool"
            },
            {
              "internalType": "string",
              "name": "memo",
              "type": "string"
            },
            {
              "internalType": "bytes",
              "name": "metadata",
              "type": "bytes"
            }
          ],
          "internalType": "struct JBDidPayData",
          "name": "_data",
          "type": "tuple"
        }
      ],
      "name": "didPay",
      "outputs": [],
      "stateMutability": "payable",
      "type": "function"
    },
    {
      "inputs": [
        {
          "components": [
            {
              "internalType": "address",
              "name": "holder",
              "type": "address"
            },
            {
              "internalType": "uint256",
              "name": "projectId",
              "type": "uint256"
            },
            {
              "internalType": "uint256",
              "name": "currentFundingCycleConfiguration",
              "type": "uint256"
            },
            {
              "internalType": "uint256",
              "name": "projectTokenCount",
              "type": "uint256"
            },
            {
              "components": [
                {
                  "internalType": "address",
                  "name": "token",
                  "type": "address"
                },
                {
                  "internalType": "uint256",
                  "name": "value",
                  "type": "uint256"
                },
                {
                  "internalType": "uint256",
                  "name": "decimals",
                  "type": "uint256"
                },
                {
                  "internalType": "uint256",
                  "name": "currency",
                  "type": "uint256"
                }
              ],
              "internalType": "struct JBTokenAmount",
              "name": "reclaimedAmount",
              "type": "tuple"
            },
            {
              "components": [
                {
                  "internalType": "address",
                  "name": "token",
                  "type": "address"
                },
                {
                  "internalType": "uint256",
                  "name": "value",
                  "type": "uint256"
                },
                {
                  "internalType": "uint256",
                  "name": "decimals",
                  "type": "uint256"
                },
                {
                  "internalType": "uint256",
                  "name": "currency",
                  "type": "uint256"
                }
              ],
              "internalType": "struct JBTokenAmount",
              "name": "forwardedAmount",
              "type": "tuple"
            },
            {
              "internalType": "address payable",
              "name": "beneficiary",
              "type": "address"
            },
            {
              "internalType": "string",
              "name": "memo",
              "type": "string"
            },
            {
              "internalType": "bytes",
              "name": "metadata",
              "type": "bytes"
            }
          ],
          "internalType": "struct JBDidRedeemData",
          "name": "_data",
          "type": "tuple"
        }
      ],
      "name": "didRedeem",
      "outputs": [],
      "stateMutability": "payable",
      "type": "function"
    },
    {
      "inputs": [],
      "name": "directory",
      "outputs": [
        {
          "internalType": "contract IJBDirectory",
          "name": "",
          "type": "address"
        }
      ],
      "stateMutability": "view",
      "type": "function"
    },
    {
      "inputs": [
        {
          "internalType": "uint256",
          "name": "_tokenId",
          "type": "uint256"
        }
      ],
      "name": "firstOwnerOf",
      "outputs": [
        {
          "internalType": "address",
          "name": "",
          "type": "address"
        }
      ],
      "stateMutability": "view",
      "type": "function"
    },
    {
      "inputs": [],
      "name": "fundingCycleStore",
      "outputs": [
        {
          "internalType": "contract IJBFundingCycleStore",
          "name": "",
          "type": "address"
        }
      ],
      "stateMutability": "view",
      "type": "function"
    },
    {
      "inputs": [
        {
          "internalType": "uint256",
          "name": "tokenId",
          "type": "uint256"
        }
      ],
      "name": "getApproved",
      "outputs": [
        {
          "internalType": "address",
          "name": "",
          "type": "address"
        }
      ],
      "stateMutability": "view",
      "type": "function"
    },
    {
      "inputs": [
        {
          "internalType": "uint256",
          "name": "_tier",
          "type": "uint256"
        },
        {
          "internalType": "uint256",
          "name": "_blockNumber",
          "type": "uint256"
        }
      ],
      "name": "getPastTierTotalVotes",
      "outputs": [
        {
          "internalType": "uint256",
          "name": "",
          "type": "uint256"
        }
      ],
      "stateMutability": "view",
      "type": "function"
    },
    {
      "inputs": [
        {
          "internalType": "address",
          "name": "_account",
          "type": "address"
        },
        {
          "internalType": "uint256",
          "name": "_tier",
          "type": "uint256"
        },
        {
          "internalType": "uint256",
          "name": "_blockNumber",
          "type": "uint256"
        }
      ],
      "name": "getPastTierVotes",
      "outputs": [
        {
          "internalType": "uint256",
          "name": "",
          "type": "uint256"
        }
      ],
      "stateMutability": "view",
      "type": "function"
    },
    {
      "inputs": [
        {
          "internalType": "address",
          "name": "_account",
          "type": "address"
        },
        {
          "internalType": "uint256",
          "name": "_tier",
          "type": "uint256"
        }
      ],
      "name": "getTierDelegate",
      "outputs": [
        {
          "internalType": "address",
          "name": "",
          "type": "address"
        }
      ],
      "stateMutability": "view",
      "type": "function"
    },
    {
      "inputs": [
        {
          "internalType": "uint256",
          "name": "_tier",
          "type": "uint256"
        }
      ],
      "name": "getTierTotalVotes",
      "outputs": [
        {
          "internalType": "uint256",
          "name": "",
          "type": "uint256"
        }
      ],
      "stateMutability": "view",
      "type": "function"
    },
    {
      "inputs": [
        {
          "internalType": "address",
          "name": "_account",
          "type": "address"
        },
        {
          "internalType": "uint256",
          "name": "_tier",
          "type": "uint256"
        }
      ],
      "name": "getTierVotes",
      "outputs": [
        {
          "internalType": "uint256",
          "name": "",
          "type": "uint256"
        }
      ],
      "stateMutability": "view",
      "type": "function"
    },
    {
      "inputs": [
        {
          "internalType": "uint256",
          "name": "_projectId",
          "type": "uint256"
        },
        {
          "internalType": "contract IJBDirectory",
          "name": "_directory",
          "type": "address"
        },
        {
          "internalType": "string",
          "name": "_name",
          "type": "string"
        },
        {
          "internalType": "string",
          "name": "_symbol",
          "type": "string"
        },
        {
          "internalType": "contract IJBFundingCycleStore",
          "name": "_fundingCycleStore",
          "type": "address"
        },
        {
          "internalType": "string",
          "name": "_baseUri",
          "type": "string"
        },
        {
          "internalType": "contract IJBTokenUriResolver",
          "name": "_tokenUriResolver",
          "type": "address"
        },
        {
          "internalType": "string",
          "name": "_contractUri",
          "type": "string"
        },
        {
          "components": [
            {
              "components": [
                {
                  "internalType": "uint80",
                  "name": "contributionFloor",
                  "type": "uint80"
                },
                {
                  "internalType": "uint48",
                  "name": "lockedUntil",
                  "type": "uint48"
                },
                {
                  "internalType": "uint40",
                  "name": "initialQuantity",
                  "type": "uint40"
                },
                {
                  "internalType": "uint16",
                  "name": "votingUnits",
                  "type": "uint16"
                },
                {
                  "internalType": "uint16",
                  "name": "reservedRate",
                  "type": "uint16"
                },
                {
                  "internalType": "address",
                  "name": "reservedTokenBeneficiary",
                  "type": "address"
                },
                {
                  "internalType": "bytes32",
                  "name": "encodedIPFSUri",
                  "type": "bytes32"
                },
                {
                  "internalType": "bool",
                  "name": "allowManualMint",
                  "type": "bool"
                },
                {
                  "internalType": "bool",
                  "name": "shouldUseBeneficiaryAsDefault",
                  "type": "bool"
                },
                {
                  "internalType": "bool",
                  "name": "transfersPausable",
                  "type": "bool"
                }
              ],
              "internalType": "struct JB721TierParams[]",
              "name": "tiers",
              "type": "tuple[]"
            },
            {
              "internalType": "uint256",
              "name": "currency",
              "type": "uint256"
            },
            {
              "internalType": "uint256",
              "name": "decimals",
              "type": "uint256"
            },
            {
              "internalType": "contract IJBPrices",
              "name": "prices",
              "type": "address"
            }
          ],
          "internalType": "struct JB721PricingParams",
          "name": "_pricing",
          "type": "tuple"
        },
        {
          "internalType": "contract IJBTiered721DelegateStore",
          "name": "_store",
          "type": "address"
        },
        {
          "components": [
            {
              "internalType": "bool",
              "name": "lockReservedTokenChanges",
              "type": "bool"
            },
            {
              "internalType": "bool",
              "name": "lockVotingUnitChanges",
              "type": "bool"
            },
            {
              "internalType": "bool",
              "name": "lockManualMintingChanges",
              "type": "bool"
            }
          ],
          "internalType": "struct JBTiered721Flags",
          "name": "_flags",
          "type": "tuple"
        }
      ],
      "name": "initialize",
      "outputs": [],
      "stateMutability": "nonpayable",
      "type": "function"
    },
    {
      "inputs": [
        {
          "internalType": "address",
          "name": "owner",
          "type": "address"
        },
        {
          "internalType": "address",
          "name": "operator",
          "type": "address"
        }
      ],
      "name": "isApprovedForAll",
      "outputs": [
        {
          "internalType": "bool",
          "name": "",
          "type": "bool"
        }
      ],
      "stateMutability": "view",
      "type": "function"
    },
    {
      "inputs": [
        {
          "components": [
            {
              "internalType": "uint16[]",
              "name": "tierIds",
              "type": "uint16[]"
            },
            {
              "internalType": "address",
              "name": "beneficiary",
              "type": "address"
            }
          ],
          "internalType": "struct JBTiered721MintForTiersData[]",
          "name": "_mintForTiersData",
          "type": "tuple[]"
        }
      ],
      "name": "mintFor",
      "outputs": [],
      "stateMutability": "nonpayable",
      "type": "function"
    },
    {
      "inputs": [
        {
          "internalType": "uint16[]",
          "name": "_tierIds",
          "type": "uint16[]"
        },
        {
          "internalType": "address",
          "name": "_beneficiary",
          "type": "address"
        }
      ],
      "name": "mintFor",
      "outputs": [
        {
          "internalType": "uint256[]",
          "name": "tokenIds",
          "type": "uint256[]"
        }
      ],
      "stateMutability": "nonpayable",
      "type": "function"
    },
    {
      "inputs": [
        {
          "components": [
            {
              "internalType": "uint256",
              "name": "tierId",
              "type": "uint256"
            },
            {
              "internalType": "uint256",
              "name": "count",
              "type": "uint256"
            }
          ],
          "internalType": "struct JBTiered721MintReservesForTiersData[]",
          "name": "_mintReservesForTiersData",
          "type": "tuple[]"
        }
      ],
      "name": "mintReservesFor",
      "outputs": [],
      "stateMutability": "nonpayable",
      "type": "function"
    },
    {
      "inputs": [
        {
          "internalType": "uint256",
          "name": "_tierId",
          "type": "uint256"
        },
        {
          "internalType": "uint256",
          "name": "_count",
          "type": "uint256"
        }
      ],
      "name": "mintReservesFor",
      "outputs": [],
      "stateMutability": "nonpayable",
      "type": "function"
    },
    {
      "inputs": [],
      "name": "name",
      "outputs": [
        {
          "internalType": "string",
          "name": "",
          "type": "string"
        }
      ],
      "stateMutability": "view",
      "type": "function"
    },
    {
      "inputs": [],
      "name": "owner",
      "outputs": [
        {
          "internalType": "address",
          "name": "",
          "type": "address"
        }
      ],
      "stateMutability": "view",
      "type": "function"
    },
    {
      "inputs": [
        {
          "internalType": "uint256",
          "name": "tokenId",
          "type": "uint256"
        }
      ],
      "name": "ownerOf",
      "outputs": [
        {
          "internalType": "address",
          "name": "",
          "type": "address"
        }
      ],
      "stateMutability": "view",
      "type": "function"
    },
    {
      "inputs": [
        {
          "components": [
            {
              "internalType": "contract IJBPaymentTerminal",
              "name": "terminal",
              "type": "address"
            },
            {
              "internalType": "address",
              "name": "payer",
              "type": "address"
            },
            {
              "components": [
                {
                  "internalType": "address",
                  "name": "token",
                  "type": "address"
                },
                {
                  "internalType": "uint256",
                  "name": "value",
                  "type": "uint256"
                },
                {
                  "internalType": "uint256",
                  "name": "decimals",
                  "type": "uint256"
                },
                {
                  "internalType": "uint256",
                  "name": "currency",
                  "type": "uint256"
                }
              ],
              "internalType": "struct JBTokenAmount",
              "name": "amount",
              "type": "tuple"
            },
            {
              "internalType": "uint256",
              "name": "projectId",
              "type": "uint256"
            },
            {
              "internalType": "uint256",
              "name": "currentFundingCycleConfiguration",
              "type": "uint256"
            },
            {
              "internalType": "address",
              "name": "beneficiary",
              "type": "address"
            },
            {
              "internalType": "uint256",
              "name": "weight",
              "type": "uint256"
            },
            {
              "internalType": "uint256",
              "name": "reservedRate",
              "type": "uint256"
            },
            {
              "internalType": "string",
              "name": "memo",
              "type": "string"
            },
            {
              "internalType": "bytes",
              "name": "metadata",
              "type": "bytes"
            }
          ],
          "internalType": "struct JBPayParamsData",
          "name": "_data",
          "type": "tuple"
        }
      ],
      "name": "payParams",
      "outputs": [
        {
          "internalType": "uint256",
          "name": "weight",
          "type": "uint256"
        },
        {
          "internalType": "string",
          "name": "memo",
          "type": "string"
        },
        {
          "components": [
            {
              "internalType": "contract IJBPayDelegate",
              "name": "delegate",
              "type": "address"
            },
            {
              "internalType": "uint256",
              "name": "amount",
              "type": "uint256"
            }
          ],
          "internalType": "struct JBPayDelegateAllocation[]",
          "name": "delegateAllocations",
          "type": "tuple[]"
        }
      ],
      "stateMutability": "view",
      "type": "function"
    },
    {
      "inputs": [],
      "name": "prices",
      "outputs": [
        {
          "internalType": "contract IJBPrices",
          "name": "",
          "type": "address"
        }
      ],
      "stateMutability": "view",
      "type": "function"
    },
    {
      "inputs": [],
      "name": "pricingCurrency",
      "outputs": [
        {
          "internalType": "uint256",
          "name": "",
          "type": "uint256"
        }
      ],
      "stateMutability": "view",
      "type": "function"
    },
    {
      "inputs": [],
      "name": "pricingDecimals",
      "outputs": [
        {
          "internalType": "uint256",
          "name": "",
          "type": "uint256"
        }
      ],
      "stateMutability": "view",
      "type": "function"
    },
    {
      "inputs": [],
      "name": "projectId",
      "outputs": [
        {
          "internalType": "uint256",
          "name": "",
          "type": "uint256"
        }
      ],
      "stateMutability": "view",
      "type": "function"
    },
    {
      "inputs": [
        {
          "components": [
            {
              "internalType": "contract IJBPaymentTerminal",
              "name": "terminal",
              "type": "address"
            },
            {
              "internalType": "address",
              "name": "holder",
              "type": "address"
            },
            {
              "internalType": "uint256",
              "name": "projectId",
              "type": "uint256"
            },
            {
              "internalType": "uint256",
              "name": "currentFundingCycleConfiguration",
              "type": "uint256"
            },
            {
              "internalType": "uint256",
              "name": "tokenCount",
              "type": "uint256"
            },
            {
              "internalType": "uint256",
              "name": "totalSupply",
              "type": "uint256"
            },
            {
              "internalType": "uint256",
              "name": "overflow",
              "type": "uint256"
            },
            {
              "components": [
                {
                  "internalType": "address",
                  "name": "token",
                  "type": "address"
                },
                {
                  "internalType": "uint256",
                  "name": "value",
                  "type": "uint256"
                },
                {
                  "internalType": "uint256",
                  "name": "decimals",
                  "type": "uint256"
                },
                {
                  "internalType": "uint256",
                  "name": "currency",
                  "type": "uint256"
                }
              ],
              "internalType": "struct JBTokenAmount",
              "name": "reclaimAmount",
              "type": "tuple"
            },
            {
              "internalType": "bool",
              "name": "useTotalOverflow",
              "type": "bool"
            },
            {
              "internalType": "uint256",
              "name": "redemptionRate",
              "type": "uint256"
            },
            {
              "internalType": "string",
              "name": "memo",
              "type": "string"
            },
            {
              "internalType": "bytes",
              "name": "metadata",
              "type": "bytes"
            }
          ],
          "internalType": "struct JBRedeemParamsData",
          "name": "_data",
          "type": "tuple"
        }
      ],
      "name": "redeemParams",
      "outputs": [
        {
          "internalType": "uint256",
          "name": "reclaimAmount",
          "type": "uint256"
        },
        {
          "internalType": "string",
          "name": "memo",
          "type": "string"
        },
        {
          "components": [
            {
              "internalType": "contract IJBRedemptionDelegate",
              "name": "delegate",
              "type": "address"
            },
            {
              "internalType": "uint256",
              "name": "amount",
              "type": "uint256"
            }
          ],
          "internalType": "struct JBRedemptionDelegateAllocation[]",
          "name": "delegateAllocations",
          "type": "tuple[]"
        }
      ],
      "stateMutability": "view",
      "type": "function"
    },
    {
      "inputs": [],
      "name": "renounceOwnership",
      "outputs": [],
      "stateMutability": "nonpayable",
      "type": "function"
    },
    {
      "inputs": [
        {
          "internalType": "address",
          "name": "from",
          "type": "address"
        },
        {
          "internalType": "address",
          "name": "to",
          "type": "address"
        },
        {
          "internalType": "uint256",
          "name": "tokenId",
          "type": "uint256"
        }
      ],
      "name": "safeTransferFrom",
      "outputs": [],
      "stateMutability": "nonpayable",
      "type": "function"
    },
    {
      "inputs": [
        {
          "internalType": "address",
          "name": "from",
          "type": "address"
        },
        {
          "internalType": "address",
          "name": "to",
          "type": "address"
        },
        {
          "internalType": "uint256",
          "name": "tokenId",
          "type": "uint256"
        },
        {
          "internalType": "bytes",
          "name": "data",
          "type": "bytes"
        }
      ],
      "name": "safeTransferFrom",
      "outputs": [],
      "stateMutability": "nonpayable",
      "type": "function"
    },
    {
      "inputs": [
        {
          "internalType": "address",
          "name": "operator",
          "type": "address"
        },
        {
          "internalType": "bool",
          "name": "approved",
          "type": "bool"
        }
      ],
      "name": "setApprovalForAll",
      "outputs": [],
      "stateMutability": "nonpayable",
      "type": "function"
    },
    {
      "inputs": [
        {
          "internalType": "string",
          "name": "_baseUri",
          "type": "string"
        }
      ],
      "name": "setBaseUri",
      "outputs": [],
      "stateMutability": "nonpayable",
      "type": "function"
    },
    {
      "inputs": [
        {
          "internalType": "string",
          "name": "_contractUri",
          "type": "string"
        }
      ],
      "name": "setContractUri",
      "outputs": [],
      "stateMutability": "nonpayable",
      "type": "function"
    },
    {
      "inputs": [
        {
          "internalType": "address",
          "name": "_beneficiary",
          "type": "address"
        }
      ],
      "name": "setDefaultReservedTokenBeneficiary",
      "outputs": [],
      "stateMutability": "nonpayable",
      "type": "function"
    },
    {
      "inputs": [
        {
          "internalType": "address",
          "name": "_delegatee",
          "type": "address"
        },
        {
          "internalType": "uint256",
          "name": "_tierId",
          "type": "uint256"
        }
      ],
      "name": "setTierDelegate",
      "outputs": [],
      "stateMutability": "nonpayable",
      "type": "function"
    },
    {
      "inputs": [
        {
          "components": [
            {
              "internalType": "address",
              "name": "delegatee",
              "type": "address"
            },
            {
              "internalType": "uint256",
              "name": "tierId",
              "type": "uint256"
            }
          ],
          "internalType": "struct JBTiered721SetTierDelegatesData[]",
          "name": "_setTierDelegatesData",
          "type": "tuple[]"
        }
      ],
      "name": "setTierDelegates",
      "outputs": [],
      "stateMutability": "nonpayable",
      "type": "function"
    },
    {
      "inputs": [
        {
          "components": [
            {
              "internalType": "uint256",
              "name": "id",
              "type": "uint256"
            },
            {
              "internalType": "uint256",
              "name": "redemptionWeight",
              "type": "uint256"
            }
          ],
          "internalType": "struct DefifaTierRedemptionWeight[]",
          "name": "_tierWeights",
          "type": "tuple[]"
        }
      ],
      "name": "setTierRedemptionWeights",
      "outputs": [],
      "stateMutability": "nonpayable",
      "type": "function"
    },
    {
      "inputs": [
        {
          "internalType": "contract IJBTokenUriResolver",
          "name": "_tokenUriResolver",
          "type": "address"
        }
      ],
      "name": "setTokenUriResolver",
      "outputs": [],
      "stateMutability": "nonpayable",
      "type": "function"
    },
    {
      "inputs": [],
      "name": "store",
      "outputs": [
        {
          "internalType": "contract IJBTiered721DelegateStore",
          "name": "",
          "type": "address"
        }
      ],
      "stateMutability": "view",
      "type": "function"
    },
    {
      "inputs": [
        {
          "internalType": "bytes4",
          "name": "_interfaceId",
          "type": "bytes4"
        }
      ],
      "name": "supportsInterface",
      "outputs": [
        {
          "internalType": "bool",
          "name": "",
          "type": "bool"
        }
      ],
      "stateMutability": "view",
      "type": "function"
    },
    {
      "inputs": [],
      "name": "symbol",
      "outputs": [
        {
          "internalType": "string",
          "name": "",
          "type": "string"
        }
      ],
      "stateMutability": "view",
      "type": "function"
    },
    {
      "inputs": [],
      "name": "tierRedemptionWeights",
      "outputs": [
        {
          "internalType": "uint256[100]",
          "name": "",
          "type": "uint256[100]"
        }
      ],
      "stateMutability": "view",
      "type": "function"
    },
    {
      "inputs": [
        {
          "internalType": "uint256",
          "name": "_tokenId",
          "type": "uint256"
        }
      ],
      "name": "tokenURI",
      "outputs": [
        {
          "internalType": "string",
          "name": "",
          "type": "string"
        }
      ],
      "stateMutability": "view",
      "type": "function"
    },
    {
      "inputs": [
        {
          "internalType": "address",
          "name": "from",
          "type": "address"
        },
        {
          "internalType": "address",
          "name": "to",
          "type": "address"
        },
        {
          "internalType": "uint256",
          "name": "tokenId",
          "type": "uint256"
        }
      ],
      "name": "transferFrom",
      "outputs": [],
      "stateMutability": "nonpayable",
      "type": "function"
    },
    {
      "inputs": [
        {
          "internalType": "address",
          "name": "newOwner",
          "type": "address"
        }
      ],
      "name": "transferOwnership",
      "outputs": [],
      "stateMutability": "nonpayable",
      "type": "function"
    }
  ],
  "bytecode": {
    "object": "0x60806040523480156200001157600080fd5b506200001d3362000035565b600880546001600160a01b0319163017905562000087565b600780546001600160a01b038381166001600160a01b0319831681179093556040519116919082907f8be0079c531659141344cd1fd0a4f28419497f9722a3daafe3b4186f6b6457e090600090a35050565b6158f980620000976000396000f3fe60806040526004361061031a5760003560e01c806394c5c5ca116101ab578063c74b13d9116100f7578063d46cf17111610095578063e8a3d4851161006f578063e8a3d4851461095e578063e985e9c514610973578063f2fde38b146109bc578063f5a38e63146109dc57600080fd5b8063d46cf1711461090b578063da9ee8b71461092b578063df487e261461093e57600080fd5b8063ccb4807b116100d1578063ccb4807b1461088b578063d31cc52c146108ab578063d3419bf3146108cb578063d40e7146146108eb57600080fd5b8063c74b13d91461082b578063c87b56dd1461084b578063ca323efe1461086b57600080fd5b8063a51cfd1811610164578063b88d4fde1161013e578063b88d4fde146107b6578063bb52b6e4146107d6578063bd50adf0146107f6578063c41c2f241461080b57600080fd5b8063a51cfd1814610747578063aa4fb15b14610776578063ab951e391461079657600080fd5b806394c5c5ca1461069057806395d89b41146106b0578063975057e7146106c55780639df45468146106e5578063a0bcfc7f14610707578063a22cb4651461072757600080fd5b80633fafa1271161026a578063640abacd1161022357806370a08231116101fd57806370a08231146105fa578063715018a61461061a57806382732b6d1461062f5780638da5cb5b1461067257600080fd5b8063640abacd1461059f57806364640c1e146105b75780636ac6d941146105cd57600080fd5b80633fafa127146104f357806342842e0e146105095780634ecba6251461052957806354c6d1f51461053f578063557e71551461055f5780636352211e1461057f57600080fd5b806323b872dd116102d75780632a596e53116102b15780632a596e53146104805780632b13c58f146104a05780632f441500146104b357806336c1a93b146104d357600080fd5b806323b872dd146104135780632407497e14610433578063245a45b51461045357600080fd5b806301ffc9a71461031f57806306bc0c901461035457806306fdde0314610377578063081812fc14610399578063095ea7b3146103d15780631d153ca4146103f3575b600080fd5b34801561032b57600080fd5b5061033f61033a366004613f25565b6109fc565b60405190151581526020015b60405180910390f35b34801561036057600080fd5b50610369600481565b60405190815260200161034b565b34801561038357600080fd5b5061038c610a27565b60405161034b9190613f92565b3480156103a557600080fd5b506103b96103b4366004613fa5565b610ab9565b6040516001600160a01b03909116815260200161034b565b3480156103dd57600080fd5b506103f16103ec366004613fe3565b610ae0565b005b3480156103ff57600080fd5b506008546103b9906001600160a01b031681565b34801561041f57600080fd5b506103f161042e36600461400f565b610b6c565b34801561043f57600080fd5b506103f161044e366004614050565b610b9e565b34801561045f57600080fd5b5061036961046e366004614050565b600e6020526000908152604090205481565b34801561048c57600080fd5b506103f161049b36600461406d565b610c47565b6103f16104ae3660046140fa565b610ca0565b3480156104bf57600080fd5b506103f16104ce36600461427a565b610e7a565b3480156104df57600080fd5b506103f16104ee36600461435e565b610fef565b3480156104ff57600080fd5b5061036960055481565b34801561051557600080fd5b506103f161052436600461400f565b611051565b34801561053557600080fd5b50610369600d5481565b34801561054b57600080fd5b506103b961055a366004613fa5565b61106c565b34801561056b57600080fd5b50600a546103b9906001600160a01b031681565b34801561058b57600080fd5b506103b961059a366004613fa5565b611118565b3480156105ab57600080fd5b50610369633b9aca0081565b3480156105c357600080fd5b50610369600c5481565b3480156105d957600080fd5b506105ed6105e836600461439f565b61114e565b60405161034b91906143f5565b34801561060657600080fd5b50610369610615366004614050565b611294565b34801561062657600080fd5b506103f1611309565b34801561063b57600080fd5b506103b961064a366004613fe3565b6001600160a01b039182166000908152600f6020908152604080832093835292905220541690565b34801561067e57600080fd5b506007546001600160a01b03166103b9565b34801561069c57600080fd5b506103696106ab366004613fa5565b61131d565b3480156106bc57600080fd5b5061038c611334565b3480156106d157600080fd5b506009546103b9906001600160a01b031681565b3480156106f157600080fd5b506106fa611343565b60405161034b9190614439565b34801561071357600080fd5b506103f161072236600461446b565b61137f565b34801561073357600080fd5b506103f16107423660046144e3565b61143a565b34801561075357600080fd5b506107676107623660046140fa565b611449565b60405161034b9392919061451c565b34801561078257600080fd5b506103f161079136600461458e565b611799565b3480156107a257600080fd5b506103f16107b1366004613fe3565b6119b6565b3480156107c257600080fd5b506103f16107d1366004614610565b6119c1565b3480156107e257600080fd5b506103f16107f13660046148ee565b6119f4565b34801561080257600080fd5b50610369600181565b34801561081757600080fd5b506006546103b9906001600160a01b031681565b34801561083757600080fd5b506103f1610846366004614a27565b611cda565b34801561085757600080fd5b5061038c610866366004613fa5565b611d5e565b34801561087757600080fd5b50610369610886366004613fe3565b611fbc565b34801561089757600080fd5b506103f16108a636600461446b565b611fe8565b3480156108b757600080fd5b506103696108c636600461458e565b61209b565b3480156108d757600080fd5b50600b546103b9906001600160a01b031681565b3480156108f757600080fd5b50610369610906366004614ada565b6120b3565b34801561091757600080fd5b50610767610926366004614b0f565b6120e8565b6103f1610939366004614b4a565b6121cb565b34801561094a57600080fd5b506103f1610959366004614050565b612282565b34801561096a57600080fd5b5061038c612324565b34801561097f57600080fd5b5061033f61098e366004614b85565b6001600160a01b03918216600090815260046020908152604080832093909416825291909152205460ff1690565b3480156109c857600080fd5b506103f16109d7366004614050565b61239a565b3480156109e857600080fd5b506103f16109f7366004614bb3565b612418565b60006001600160e01b03198216631e68505960e31b1480610a215750610a21826125fb565b92915050565b606060008054610a3690614c4d565b80601f0160208091040260200160405190810160405280929190818152602001828054610a6290614c4d565b8015610aaf5780601f10610a8457610100808354040283529160200191610aaf565b820191906000526020600020905b815481529060010190602001808311610a9257829003601f168201915b5050505050905090565b6000610ac482612671565b506000908152600360205260409020546001600160a01b031690565b6000610aeb82611118565b9050806001600160a01b0316836001600160a01b031603610b1f5760405163133f8be960e01b815260040160405180910390fd5b336001600160a01b03821614801590610b3f5750610b3d813361098e565b155b15610b5d5760405163e5fa0e3560e01b815260040160405180910390fd5b610b6783836126a6565b505050565b610b763382612714565b610b935760405163e5fa0e3560e01b815260040160405180910390fd5b610b67838383612792565b610ba661286b565b60095460405163036129cb60e61b81526001600160a01b0383811660048301529091169063d84a72c090602401600060405180830381600087803b158015610bed57600080fd5b505af1158015610c01573d6000803e3d6000fd5b50506040513381526001600160a01b03841692507fe7784d93cfbfa4408e19577e6cc0436f4dbb51214b70e100905dfce9def88c1691506020015b60405180910390a250565b8060005b81811015610c9a576000848483818110610c6757610c67614c81565b905060400201803603810190610c7d9190614c97565b9050610c9181600001518260200151611799565b50600101610c4b565b50505050565b34151580610d225750600654600554604051636e49181f60e01b815260048101919091523360248201526001600160a01b0390911690636e49181f90604401602060405180830381865afa158015610cfc573d6000803e3d6000fd5b505050506040513d601f19601f82011682018060405250810190610d209190614cbe565b155b80610d335750600554816020013514155b15610d5157604051633efca5c360e11b815260040160405180910390fd5b6024610d616101c0830183614cdb565b90501080610da5575063b3bcbb7960e01b610d806101c0830183614cdb565b610d8f91602491602091614d21565b610d9891614d4b565b6001600160e01b03191614155b15610dc357604051632a84050f60e01b815260040160405180910390fd5b6000610dd36101c0830183614cdb565b810190610de09190614d7b565b925050506000815190506000805b82811015610e7057838181518110610e0857610e08614c81565b60200260200101519150846000016020810190610e259190614050565b6000838152600260205260409020546001600160a01b03908116911614610e5f5760405163075fd2b160e01b815260040160405180910390fd5b610e68826128c5565b600101610dee565b50610c9a83612946565b610e8261286b565b600a546005546040516321d1336160e11b815260048101919091526000916001600160a01b0316906343a266c29060240161012060405180830381865afa158015610ed1573d6000803e3d6000fd5b505050506040513d601f19601f82011682018060405250810190610ef59190614e34565b9050600481600001511015610f1d576040516303e08a3560e61b815260040160405180910390fd5b610f2960126000613ecc565b8151600090815b81811015610fc957848181518110610f4a57610f4a614c81565b60200260200101516020015160126001878481518110610f6c57610f6c614c81565b602002602001015160000151610f829190614eca565b60648110610f9257610f92614c81565b01558451859082908110610fa857610fa8614c81565b60200260200101516020015183610fbf9190614edd565b9250600101610f30565b50633b9aca00821115610c9a57604051636ff44e9760e01b815260040160405180910390fd5b610ff761286b565b8060005b81811015610c9a573684848381811061101657611016614c81565b90506020028101906110289190614ef0565b90506110476110378280614f10565b6105e86040850160208601614050565b5050600101610ffb565b610b67838383604051806020016040528060008152506119c1565b6009546040516308ed6c0160e41b81523060048201526024810183905260009182916001600160a01b0390911690638ed6c01090604401602060405180830381865afa1580156110c0573d6000803e3d6000fd5b505050506040513d601f19601f820116820180604052508101906110e49190614f59565b90506001600160a01b038116156110fb5792915050565b50506000908152600260205260409020546001600160a01b031690565b6000818152600260205260408120546001600160a01b031680610a215760405163b49aa3b560e01b815260040160405180910390fd5b606061115861286b565b60095460405163eaa19ab360e01b81526001600160a01b039091169063eaa19ab390611191906000199088908890600190600401614f76565b6000604051808303816000875af11580156111b0573d6000803e3d6000fd5b505050506040513d6000823e601f3d908101601f191682016040526111d89190810190615039565b509050826000805b8281101561128a578381815181106111fa576111fa614c81565b6020026020010151915061120e85836129ab565b846001600160a01b031687878381811061122a5761122a614c81565b905060200201602081019061123f919061507f565b604080516000815233602082015261ffff929092169185917f598baf7bf150ca2f42be9e9f8f55e81d45f5715c3ff22bf46d697fabec7f31d6910160405180910390a46001016111e0565b5050509392505050565b600954604051633de222bb60e21b81523060048201526001600160a01b038381166024830152600092169063f7888aec90604401602060405180830381865afa1580156112e5573d6000803e3d6000fd5b505050506040513d601f19601f82011682018060405250810190610a21919061509a565b61131161286b565b61131b6000612a75565b565b6000818152601160205260408120610a2190612ac7565b606060018054610a3690614c4d565b61134b613edb565b60408051610c808101918290529060129060649082845b815481526020019060010190808311611362575050505050905090565b61138761286b565b6009546040516331315e5960e11b81526001600160a01b0390911690636262bcb2906113b990859085906004016150b3565b600060405180830381600087803b1580156113d357600080fd5b505af11580156113e7573d6000803e3d6000fd5b5050505081816040516113fb9291906150e2565b604051908190038120338252907f7bc9110d5de090dd59e07912d2b93a5a27ac70a60c8d8e324db4f9ee8b8b5c13906020015b60405180910390a25050565b611445338383612b23565b5050565b6000606080608084013515611471576040516309f82f1b60e31b815260040160405180910390fd5b60246114816101c0860186614cdb565b905010806114c5575063b3bcbb7960e01b6114a06101c0860186614cdb565b6114af91602491602091614d21565b6114b891614d4b565b6001600160e01b03191614155b156114e357604051632a84050f60e01b815260040160405180910390fd5b600a54604080516321d1336160e11b81529086013560048201526000916001600160a01b0316906343a266c29060240161012060405180830381865afa158015611531573d6000803e3d6000fd5b505050506040513d601f19601f820116820180604052508101906115559190614e34565b604080516001808252818301909252919250816020015b604080518082019091526000808252602082015281526020019060019003908161156c5790505091506040518060400160405280306001600160a01b031681526020016000815250826000815181106115c7576115c7614c81565b602090810291909101015260006115e26101c0870187614cdb565b8101906115ef9190614d7b565b92505050600182600001510361171e57805160005b818110156116c35760095483516001600160a01b039091169063b67cb04790309086908590811061163757611637614c81565b60200260200101516040518363ffffffff1660e01b81526004016116709291906001600160a01b03929092168252602082015260400190565b61016060405180830381865afa15801561168e573d6000803e3d6000fd5b505050506040513d601f19601f820116820180604052508101906116b291906150f2565b602001519690960195600101611604565b50856116d36101a0890189614cdb565b8682828080601f016020809104026020016040519081016040528093929190818152602001838380828437600092019190915250969c50919a50919850611792975050505050505050565b61173f8660c001356117308389612bc2565b633b9aca00612d5d565b612d5d565b61174d6101a0880188614cdb565b8582828080601f016020809104026020016040519081016040528093929190818152602001838380828437600092019190915250969b50919950919750505050505050505b9193909250565b600a546005546040516321d1336160e11b815260048101919091526000916001600160a01b0316906343a266c29060240161012060405180830381865afa1580156117e8573d6000803e3d6000fd5b505050506040513d601f19601f8201168201806040525081019061180c9190614e34565b61010081015190915060f51c60019081160361183b57604051631d2c125760e31b815260040160405180910390fd5b600954604051635d53f40760e11b815260048101859052602481018490526000916001600160a01b03169063baa7e80e906044016000604051808303816000875af115801561188e573d6000803e3d6000fd5b505050506040513d6000823e601f3d908101601f191682016040526118b69190810190615194565b6009546040516304db994760e21b8152306004820152602481018790529192506000916001600160a01b039091169063136e651c90604401602060405180830381865afa15801561190b573d6000803e3d6000fd5b505050506040513d601f19601f8201168201806040525081019061192f9190614f59565b90506000805b858110156119ad5783818151811061194f5761194f614c81565b6020026020010151915061196383836129ab565b6040513381526001600160a01b03841690889084907f031e1988c95a91ec4d655ff63a8f87a80bc9daf28d95ae10ee08c0022cfb5c8b9060200160405180910390a4600101611935565b50505050505050565b611445338383612e2a565b6119cb3383612714565b6119e85760405163e5fa0e3560e01b815260040160405180910390fd5b610c9a84848484612ea9565b6008546001600160a01b03163003611a0b57600080fd5b6009546001600160a01b031615611a2157600080fd5b611a2d8b8b8b8b612edd565b600a80546001600160a01b03808a166001600160a01b031992831617909255600980548584169083161790556020850151600c556040850151600d556060850151600b8054919093169116179055855115611ae1576040516331315e5960e11b81526001600160a01b03831690636262bcb290611aae908990600401613f92565b600060405180830381600087803b158015611ac857600080fd5b505af1158015611adc573d6000803e3d6000fd5b505050505b835115611b475760405163d67b78fd60e01b81526001600160a01b0383169063d67b78fd90611b14908790600401613f92565b600060405180830381600087803b158015611b2e57600080fd5b505af1158015611b42573d6000803e3d6000fd5b505050505b6001600160a01b03851615611bb25760405163036129cb60e61b81526001600160a01b03868116600483015283169063d84a72c090602401600060405180830381600087803b158015611b9957600080fd5b505af1158015611bad573d6000803e3d6000fd5b505050505b82515115611c3057825160405163eadd8b3760e01b81526001600160a01b0384169163eadd8b3791611be791906004016151c8565b6000604051808303816000875af1158015611c06573d6000803e3d6000fd5b505050506040513d6000823e601f3d908101601f19168201604052611c2e9190810190615194565b505b805180611c3e575080602001515b80611c4a575080604001515b15611cc4576040805163cdb0af6d60e01b815282511515600482015260208301511515602482015290820151151560448201526001600160a01b0383169063cdb0af6d90606401600060405180830381600087803b158015611cab57600080fd5b505af1158015611cbf573d6000803e3d6000fd5b505050505b611ccd33612a75565b5050505050505050505050565b8051604080518082019091526000808252602082015260005b82811015610c9a57838181518110611d0d57611d0d614c81565b602090810291909101015180519092506001600160a01b0316611d43576040516314f4c13d60e21b815260040160405180910390fd5b611d563383600001518460200151612e2a565b600101611cf3565b6000818152600260205260409020546060906001600160a01b0316611d9157505060408051602081019091526000815290565b600954604051630fab094760e01b81523060048201526000916001600160a01b031690630fab094790602401602060405180830381865afa158015611dda573d6000803e3d6000fd5b505050506040513d601f19601f82011682018060405250810190611dfe9190614f59565b90506001600160a01b03811615611e8357604051636d02a25560e11b8152600481018490526001600160a01b0382169063da0544aa90602401600060405180830381865afa158015611e54573d6000803e3d6000fd5b505050506040513d6000823e601f3d908101601f19168201604052611e7c91908101906152a1565b9392505050565b60095460405163f682eeaf60e01b815230600482015273__$c3160b4fb988d8ee08a6a6b6ca14c57269$__9163030cecc7916001600160a01b039091169063f682eeaf90602401600060405180830381865afa158015611ee7573d6000803e3d6000fd5b505050506040513d6000823e601f3d908101601f19168201604052611f0f91908101906152a1565b600954604051630c8df17160e41b8152306004820152602481018890526001600160a01b039091169063c8df171090604401602060405180830381865afa158015611f5e573d6000803e3d6000fd5b505050506040513d601f19601f82011682018060405250810190611f82919061509a565b6040518363ffffffff1660e01b8152600401611f9f929190615317565b600060405180830381865af4158015611e54573d6000803e3d6000fd5b6001600160a01b03821660009081526010602090815260408083208484529091528120611e7c90612ac7565b611ff061286b565b60095460405163d67b78fd60e01b81526001600160a01b039091169063d67b78fd9061202290859085906004016150b3565b600060405180830381600087803b15801561203c57600080fd5b505af1158015612050573d6000803e3d6000fd5b5050505081816040516120649291906150e2565b604051908190038120338252907fd36dc0c1a06103fdcaf15f3f6fb797d1a97997514c78de073640c8b5005454b89060200161142e565b6000828152601160205260408120611e7c9083612f10565b6001600160a01b038316600090815260106020908152604080832085845290915281206120e09083612f10565b949350505050565b6101208101356060806120ff610160850185614cdb565b8080601f0160208091040260200160405190810160405280939291908181526020018383808284376000920191909152509294506001925061213f915050565b60405190808252806020026020018201604052801561218457816020015b604080518082019091526000808252602082015281526020019060019003908161215d5790505b5090506040518060400160405280306001600160a01b031681526020016000815250816000815181106121b9576121b9614c81565b60200260200101819052509193909250565b6005543415158061224c5750600654604051636e49181f60e01b8152600481018390523360248201526001600160a01b0390911690636e49181f90604401602060405180830381865afa158015612226573d6000803e3d6000fd5b505050506040513d601f19601f8201168201806040525081019061224a9190614cbe565b155b8061225b575080826020013514155b15612279576040516331c57b1b60e21b815260040160405180910390fd5b6114458261301f565b61228a61286b565b6009546040516317161f7d60e01b81526001600160a01b038381166004830152909116906317161f7d90602401600060405180830381600087803b1580156122d157600080fd5b505af11580156122e5573d6000803e3d6000fd5b50506040513381526001600160a01b03841692507fab0014d4c7a642a02a31b303a318908c22b0fb2001f107278fc6076b4c671b659150602001610c3c565b600954604051630155619b60e71b81523060048201526060916001600160a01b03169063aab0cd8090602401600060405180830381865afa15801561236d573d6000803e3d6000fd5b505050506040513d6000823e601f3d908101601f1916820160405261239591908101906152a1565b905090565b6123a261286b565b6001600160a01b03811661240c5760405162461bcd60e51b815260206004820152602660248201527f4f776e61626c653a206e6577206f776e657220697320746865207a65726f206160448201526564647265737360d01b60648201526084015b60405180910390fd5b61241581612a75565b50565b61242061286b565b828180156124f0576009546040516320512ba160e01b81526001600160a01b03909116906320512ba19061245a9087908790600401615339565b600060405180830381600087803b15801561247457600080fd5b505af1158015612488573d6000803e3d6000fd5b5050505060005b818110156124ee578484828181106124a9576124a9614c81565b60405133815260209182029390930135927f832d89d991be5351d793c20faf4b7dd44f8aa9ce39e3cb160c6317de6fbba72992500160405180910390a260010161248f565b505b81156125f35760095460405163eadd8b3760e01b81526000916001600160a01b03169063eadd8b3790612529908a908a9060040161544f565b6000604051808303816000875af1158015612548573d6000803e3d6000fd5b505050506040513d6000823e601f3d908101601f191682016040526125709190810190615194565b905060005b838110156125f05781818151811061258f5761258f614c81565b60200260200101517f85b5b4c4e44e342c8dac3c3a5364494d455043decb9f4bb8e7e0a3020d22fed48989848181106125ca576125ca614c81565b90506101400201336040516125e0929190615492565b60405180910390a2600101612575565b50505b505050505050565b60006001600160e01b0319821663b3bcbb7960e01b148061262c57506001600160e01b031982166371700c6960e01b145b8061264757506001600160e01b0319821663da9ee8b760e01b145b8061266257506001600160e01b03198216632b13c58f60e01b145b80610a215750610a2182613300565b6000818152600260205260409020546001600160a01b03166124155760405163b49aa3b560e01b815260040160405180910390fd5b600081815260036020526040902080546001600160a01b0319166001600160a01b03841690811790915581906126db82611118565b6001600160a01b03167f8c5be1e5ebec7d5bd14f71427d1e84f3dd0314c0f7b2291e5b200ac8c7c3b92560405160405180910390a45050565b60008061272083611118565b9050806001600160a01b0316846001600160a01b0316148061276757506001600160a01b0380821660009081526004602090815260408083209388168352929052205460ff165b806120e05750836001600160a01b031661278084610ab9565b6001600160a01b031614949350505050565b826001600160a01b03166127a582611118565b6001600160a01b0316146127cc5760405163a195bc5360e01b815260040160405180910390fd5b6001600160a01b0382166127f357604051632c95542760e01b815260040160405180910390fd5b6127fe838383613350565b6128096000826126a6565b60008181526002602052604080822080546001600160a01b0319166001600160a01b0386811691821790925591518493918716917fddf252ad1be2c89b69c2b068fc378daa952ba7f163c4a11628f55a4df523b3ef91a4610b6783838361357d565b6007546001600160a01b0316331461131b5760405162461bcd60e51b815260206004820181905260248201527f4f776e61626c653a2063616c6c6572206973206e6f7420746865206f776e65726044820152606401612403565b60006128d082611118565b90506128de81600084613350565b6128e96000836126a6565b60008281526002602052604080822080546001600160a01b0319169055518391906001600160a01b038416907fddf252ad1be2c89b69c2b068fc378daa952ba7f163c4a11628f55a4df523b3ef908390a46114458160008461357d565b6009546040516386bc2be360e01b81526001600160a01b03909116906386bc2be3906129769084906004016143f5565b600060405180830381600087803b15801561299057600080fd5b505af11580156129a4573d6000803e3d6000fd5b5050505050565b6001600160a01b0382166129d257604051633904578f60e11b815260040160405180910390fd5b6000818152600260205260409020546001600160a01b031615612a0857604051632eb5f0c360e21b815260040160405180910390fd5b612a1460008383613350565b60008181526002602052604080822080546001600160a01b0319166001600160a01b03861690811790915590518392907fddf252ad1be2c89b69c2b068fc378daa952ba7f163c4a11628f55a4df523b3ef908290a46114456000838361357d565b600780546001600160a01b038381166001600160a01b0319831681179093556040519116919082907f8be0079c531659141344cd1fd0a4f28419497f9722a3daafe3b4186f6b6457e090600090a35050565b80546000908015612b105782612ade600183614eca565b81548110612aee57612aee614c81565b60009182526020909120015464010000000090046001600160e01b0316612b13565b60005b6001600160e01b03169392505050565b816001600160a01b0316836001600160a01b031603612b55576040516306f8139d60e11b815260040160405180910390fd5b6001600160a01b03838116600081815260046020908152604080832094871680845294825291829020805460ff191686151590811790915591519182527f17307eab39ab6107e8899845ad3d59bd9653f200f220920489ca2b5937696c31910160405180910390a3505050565b8151600090815b81811015612d345760095485516000916001600160a01b0316906342f9914b90889085908110612bfb57612bfb614c81565b60200260200101516040518263ffffffff1660e01b8152600401612c2191815260200190565b602060405180830381865afa158015612c3e573d6000803e3d6000fd5b505050506040513d601f19601f82011682018060405250810190612c62919061509a565b600954604051633a39e4d160e11b8152306004820152602481018390529192506000916001600160a01b0390911690637473c9a29060440161016060405180830381865afa158015612cb8573d6000803e3d6000fd5b505050506040513d601f19601f82011682018060405250810190612cdc91906150f2565b905080606001518160800151612cf29190614eca565b6012612cff600185614eca565b60648110612d0f57612d0f614c81565b0154612d1b91906154d0565b612d259086614edd565b94508260010192505050612bc9565b5081600003612d5657604051637691472960e01b815260040160405180910390fd5b5092915050565b6000808060001985870985870292508281108382030391505080600003612d9757838281612d8d57612d8d6154ba565b0492505050611e7c565b838110612dc157604051631dcf306360e21b81526004810182905260248101859052604401612403565b60008486880960026001871981018816978890046003810283188082028403028082028403028082028403028082028403028082028403029081029092039091026000889003889004909101858311909403939093029303949094049190911702949350505050565b6001600160a01b038381166000818152600f6020908152604080832086845290915280822080548786166001600160a01b0319821681179092559151919094169392849290917f3134e8a2e6d97e929a7e54011ea5485d7d196dd5f0ba4d4ef95803e8e3fc257f9190a4610c9a818484612ea48887613676565b6136f2565b612eb4848484612792565b612ec084848484613847565b610c9a576040516336f57c1b60e11b815260040160405180910390fd5b612ee78282613949565b5050600591909155600680546001600160a01b0319166001600160a01b03909216919091179055565b6000438210612f615760405162461bcd60e51b815260206004820181905260248201527f436865636b706f696e74733a20626c6f636b206e6f7420796574206d696e65646044820152606401612403565b825460005b81811015612fc6576000612f7a8284613962565b905084866000018281548110612f9257612f92614c81565b60009182526020909120015463ffffffff161115612fb257809250612fc0565b612fbd816001614edd565b91505b50612f66565b811561300a5784612fd8600184614eca565b81548110612fe857612fe8614c81565b60009182526020909120015464010000000090046001600160e01b031661300d565b60005b6001600160e01b031695945050505050565b600c5460009060c08301350361303a575060808101356130eb565b600b546001600160a01b03161561144557600d546130e89060808401359061306390600a6155d6565b600b54600c54604051635268657960e11b815260c08801356004820152602481019190915260a087013560448201526001600160a01b039091169063a4d0caf290606401602060405180830381865afa1580156130c4573d6000803e3d6000fd5b505050506040513d601f19601f8201168201806040525081019061173a919061509a565b90505b6000600e816131026101a086016101808701614050565b6001600160a01b031681526020810191909152604001600090812054915061312a8284614edd565b9050600080604461313f6101e0880188614cdb565b9050118015613183575063b3bcbb7960e01b61315f6101e0880188614cdb565b61316e91604491604091614d21565b61317791614d4b565b6001600160e01b031916145b15613220576000606061319a6101e0890189614cdb565b8101906131a791906155e2565b9199509750909550935050831591506131f790505784600e60006131d36101a08c016101808d01614050565b6001600160a01b031681526020810191909152604001600020555050505050505050565b80511561321d5761321a85826132156101a08c016101808d01614050565b61397d565b94505b50505b82156132c1576132428361323c6101a089016101808a01614050565b84613abf565b9250821561329f57801561326957604051631b57826960e21b815260040160405180910390fd5b82600e60006132806101a08a016101808b01614050565b6001600160a01b031681526020810191909152604001600020556125f3565b83156132bc576000600e816132806101a08a016101808b01614050565b6125f3565b83156125f3576000600e816132de6101a08a016101808b01614050565b6001600160a01b03168152602081019190915260400160002055505050505050565b60006001600160e01b031982166380ac58cd60e01b148061333157506001600160e01b03198216635b5e139f60e01b145b80610a2157506301ffc9a760e01b6001600160e01b0319831614610a21565b6001600160a01b03831615610b675760095460405163b67cb04760e01b8152306004820152602481018390526000916001600160a01b03169063b67cb0479060440161016060405180830381865afa1580156133b0573d6000803e3d6000fd5b505050506040513d601f19601f820116820180604052508101906133d491906150f2565b90508061014001511561349957600a546005546040516321d1336160e11b815260048101919091526000916001600160a01b0316906343a266c29060240161012060405180830381865afa158015613430573d6000803e3d6000fd5b505050506040513d601f19601f820116820180604052508101906134549190614e34565b90506001600160a01b03841615801590613479575061010081015160f41c6001908116145b15613497576040516318cdaf9760e01b815260040160405180910390fd5b505b6009546040516308ed6c0160e41b8152306004820152602481018490526000916001600160a01b031690638ed6c01090604401602060405180830381865afa1580156134e9573d6000803e3d6000fd5b505050506040513d601f19601f8201168201806040525081019061350d9190614f59565b6001600160a01b031603610c9a57600954604051638cec7d3960e01b8152600481018490526001600160a01b03868116602483015290911690638cec7d3990604401600060405180830381600087803b15801561356957600080fd5b505af11580156125f0573d6000803e3d6000fd5b60095460405163b67cb04760e01b8152306004820152602481018390526000916001600160a01b03169063b67cb0479060440161016060405180830381865afa1580156135ce573d6000803e3d6000fd5b505050506040513d601f19601f820116820180604052508101906135f291906150f2565b60095481516040516330b157e560e21b815260048101919091526001600160a01b038781166024830152868116604483015292935091169063c2c55f9490606401600060405180830381600087803b15801561364d57600080fd5b505af1158015613661573d6000803e3d6000fd5b5050505061367184848484613bc9565b610c9a565b6009546040516305c9a1d560e31b81523060048201526001600160a01b038481166024830152604482018490526000921690632e4d0ea890606401602060405180830381865afa1580156136ce573d6000803e3d6000fd5b505050506040513d601f19601f82011682018060405250810190611e7c919061509a565b826001600160a01b0316846001600160a01b03161480613710575080155b610c9a576001600160a01b038416156137ab576001600160a01b03841660009081526010602090815260408083208584529091528120819061375590613be785613bf3565b60408051838152602081018390523381830152905192945090925085916001600160a01b038916917fed0c1e94c302bdbbd8bbd6a4fb7c3ed335c2292407cd816eadd075d019d0ce04919081900360600190a350505b6001600160a01b03831615610c9a576001600160a01b0383166000908152601060209081526040808320858452909152812081906137ec90613c2185613bf3565b60408051838152602081018390523381830152905192945090925085916001600160a01b038816917fed0c1e94c302bdbbd8bbd6a4fb7c3ed335c2292407cd816eadd075d019d0ce04919081900360600190a3505050505050565b60006001600160a01b0384163b1561393e57604051630a85bd0160e11b81526001600160a01b0385169063150b7a029061388b9033908990889088906004016156d9565b6020604051808303816000875af19250505080156138c6575060408051601f3d908101601f191682019092526138c391810190615716565b60015b613924573d8080156138f4576040519150601f19603f3d011682016040523d82523d6000602084013e6138f9565b606091505b50805160000361391c576040516336f57c1b60e11b815260040160405180910390fd5b805181602001fd5b6001600160e01b031916630a85bd0160e11b1490506120e0565b506001949350505050565b60006139558382615779565b506001610b678282615779565b600061397160028484186154d0565b611e7c90848416614edd565b60095460405163eaa19ab360e01b81526000916060916001600160a01b039091169063eaa19ab3906139b790889088908790600401615838565b6000604051808303816000875af11580156139d6573d6000803e3d6000fd5b505050506040513d6000823e601f3d908101601f191682016040526139fe9190810190615039565b81519093509091506000805b82811015613ab457838181518110613a2457613a24614c81565b60200260200101519150613a3886836129ab565b856001600160a01b0316878281518110613a5457613a54614c81565b602002602001015161ffff16837f598baf7bf150ca2f42be9e9f8f55e81d45f5715c3ff22bf46d697fabec7f31d68b33604051613aa49291909182526001600160a01b0316602082015260400190565b60405180910390a4600101613a0a565b505050509392505050565b60095460405163879791f360e01b815260048101859052600091829182916001600160a01b03169063879791f3906024016060604051808303816000875af1158015613b0f573d6000803e3d6000fd5b505050506040513d601f19601f82011682018060405250810190613b339190615895565b945090925090506000829003613b69578315613b6257604051630e5313df60e41b815260040160405180910390fd5b5050611e7c565b613b7385836129ab565b6001600160a01b03851681837f598baf7bf150ca2f42be9e9f8f55e81d45f5715c3ff22bf46d697fabec7f31d6613baa878b614eca565b604080519182523360208301520160405180910390a450509392505050565b60a081015115610c9a57610c9a848483600001518460a00151613c2d565b6000611e7c8284614eca565b600080613c1585613c10613c0688612ac7565b868863ffffffff16565b613ccf565b91509150935093915050565b6000611e7c8284614edd565b6001600160a01b038416613c59576000828152601160205260409020613c5690613c2183613bf3565b50505b6001600160a01b038316613c85576000828152601160205260409020613c8290613be783613bf3565b50505b6001600160a01b038085166000908152600f60208181526040808420878552825280842054888616855292825280842087855290915290912054610c9a92918216911684846136f2565b8154600090819081613ce086612ac7565b9050600082118015613d1e57504386613cfa600185614eca565b81548110613d0a57613d0a614c81565b60009182526020909120015463ffffffff16145b15613d7e57613d2c85613dfa565b86613d38600185614eca565b81548110613d4857613d48614c81565b9060005260206000200160000160046101000a8154816001600160e01b0302191690836001600160e01b03160217905550613dec565b856000016040518060400160405280613d9643613e67565b63ffffffff168152602001613daa88613dfa565b6001600160e01b0390811690915282546001810184556000938452602093849020835194909301519091166401000000000263ffffffff909316929092179101555b9250839150505b9250929050565b60006001600160e01b03821115613e635760405162461bcd60e51b815260206004820152602760248201527f53616665436173743a2076616c756520646f65736e27742066697420696e20326044820152663234206269747360c81b6064820152608401612403565b5090565b600063ffffffff821115613e635760405162461bcd60e51b815260206004820152602660248201527f53616665436173743a2076616c756520646f65736e27742066697420696e203360448201526532206269747360d01b6064820152608401612403565b50612415906064810190613efa565b60405180610c8001604052806064906020820280368337509192915050565b5b80821115613e635760008155600101613efb565b6001600160e01b03198116811461241557600080fd5b600060208284031215613f3757600080fd5b8135611e7c81613f0f565b60005b83811015613f5d578181015183820152602001613f45565b50506000910152565b60008151808452613f7e816020860160208601613f42565b601f01601f19169290920160200192915050565b602081526000611e7c6020830184613f66565b600060208284031215613fb757600080fd5b5035919050565b6001600160a01b038116811461241557600080fd5b8035613fde81613fbe565b919050565b60008060408385031215613ff657600080fd5b823561400181613fbe565b946020939093013593505050565b60008060006060848603121561402457600080fd5b833561402f81613fbe565b9250602084013561403f81613fbe565b929592945050506040919091013590565b60006020828403121561406257600080fd5b8135611e7c81613fbe565b6000806020838503121561408057600080fd5b82356001600160401b038082111561409757600080fd5b818501915085601f8301126140ab57600080fd5b8135818111156140ba57600080fd5b8660208260061b85010111156140cf57600080fd5b60209290920196919550909350505050565b60006101e082840312156140f457600080fd5b50919050565b60006020828403121561410c57600080fd5b81356001600160401b0381111561412257600080fd5b6120e0848285016140e1565b634e487b7160e01b600052604160045260246000fd5b604080519081016001600160401b03811182821017156141665761416661412e565b60405290565b604051608081016001600160401b03811182821017156141665761416661412e565b60405161014081016001600160401b03811182821017156141665761416661412e565b60405161012081016001600160401b03811182821017156141665761416661412e565b60405161016081016001600160401b03811182821017156141665761416661412e565b604051601f8201601f191681016001600160401b038111828210171561421f5761421f61412e565b604052919050565b60006001600160401b038211156142405761424061412e565b5060051b60200190565b60006040828403121561425c57600080fd5b614264614144565b9050813581526020820135602082015292915050565b6000602080838503121561428d57600080fd5b82356001600160401b038111156142a357600080fd5b8301601f810185136142b457600080fd5b80356142c76142c282614227565b6141f7565b81815260069190911b820183019083810190878311156142e657600080fd5b928401925b8284101561430f576142fd888561424a565b825284820191506040840193506142eb565b979650505050505050565b60008083601f84011261432c57600080fd5b5081356001600160401b0381111561434357600080fd5b6020830191508360208260051b8501011115613df357600080fd5b6000806020838503121561437157600080fd5b82356001600160401b0381111561438757600080fd5b6143938582860161431a565b90969095509350505050565b6000806000604084860312156143b457600080fd5b83356001600160401b038111156143ca57600080fd5b6143d68682870161431a565b90945092505060208401356143ea81613fbe565b809150509250925092565b6020808252825182820181905260009190848201906040850190845b8181101561442d57835183529284019291840191600101614411565b50909695505050505050565b610c808101818360005b6064811015614462578151835260209283019290910190600101614443565b50505092915050565b6000806020838503121561447e57600080fd5b82356001600160401b038082111561449557600080fd5b818501915085601f8301126144a957600080fd5b8135818111156144b857600080fd5b8660208285010111156140cf57600080fd5b801515811461241557600080fd5b8035613fde816144ca565b600080604083850312156144f657600080fd5b823561450181613fbe565b91506020830135614511816144ca565b809150509250929050565b838152600060206060818401526145366060840186613f66565b83810360408581019190915285518083528387019284019060005b8181101561457f57845180516001600160a01b03168452860151868401529385019391830191600101614551565b50909998505050505050505050565b600080604083850312156145a157600080fd5b50508035926020909101359150565b60006001600160401b038211156145c9576145c961412e565b50601f01601f191660200190565b60006145e56142c2846145b0565b90508281528383830111156145f957600080fd5b828260208301376000602084830101529392505050565b6000806000806080858703121561462657600080fd5b843561463181613fbe565b9350602085013561464181613fbe565b92506040850135915060608501356001600160401b0381111561466357600080fd5b8501601f8101871361467457600080fd5b614683878235602084016145d7565b91505092959194509250565b600082601f8301126146a057600080fd5b611e7c838335602085016145d7565b803569ffffffffffffffffffff81168114613fde57600080fd5b803565ffffffffffff81168114613fde57600080fd5b803564ffffffffff81168114613fde57600080fd5b803561ffff81168114613fde57600080fd5b6000608080838503121561471957600080fd5b61472161416c565b915082356001600160401b0381111561473957600080fd5b8301601f8101851361474a57600080fd5b8035602061475a6142c283614227565b828152610140928302840182019282820191908985111561477a57600080fd5b948301945b848610156148495780868b0312156147975760008081fd5b61479f61418e565b6147a8876146af565b81526147b58588016146c9565b8582015260406147c68189016146df565b9082015260606147d78882016146f4565b908201526147e68789016146f4565b8882015260a06147f7818901613fd3565b9082015260c0878101359082015260e06148128189016144d8565b908201526101006148248882016144d8565b908201526101206148368882016144d8565b908201528352948501949183019161477f565b5086525085810135908501525050506040808301359082015261486e60608301613fd3565b606082015292915050565b60006060828403121561488b57600080fd5b604051606081018181106001600160401b03821117156148ad576148ad61412e565b60405290508082356148be816144ca565b815260208301356148ce816144ca565b602082015260408301356148e1816144ca565b6040919091015292915050565b60008060008060008060008060008060006101a08c8e03121561491057600080fd5b8b359a5061492060208d01613fd3565b99506001600160401b038060408e0135111561493b57600080fd5b61494b8e60408f01358f0161468f565b99508060608e0135111561495e57600080fd5b61496e8e60608f01358f0161468f565b985061497c60808e01613fd3565b97508060a08e0135111561498f57600080fd5b61499f8e60a08f01358f0161468f565b96506149ad60c08e01613fd3565b95508060e08e013511156149c057600080fd5b6149d08e60e08f01358f0161468f565b9450806101008e013511156149e457600080fd5b506149f68d6101008e01358e01614706565b9250614a056101208d01613fd3565b9150614a158d6101408e01614879565b90509295989b509295989b9093969950565b60006020808385031215614a3a57600080fd5b82356001600160401b03811115614a5057600080fd5b8301601f81018513614a6157600080fd5b8035614a6f6142c282614227565b81815260069190911b82018301908381019087831115614a8e57600080fd5b928401925b8284101561430f5760408489031215614aac5760008081fd5b614ab4614144565b8435614abf81613fbe565b81528486013586820152825260409093019290840190614a93565b600080600060608486031215614aef57600080fd5b8335614afa81613fbe565b95602085013595506040909401359392505050565b600060208284031215614b2157600080fd5b81356001600160401b03811115614b3757600080fd5b82016101a08185031215611e7c57600080fd5b600060208284031215614b5c57600080fd5b81356001600160401b03811115614b7257600080fd5b82016102008185031215611e7c57600080fd5b60008060408385031215614b9857600080fd5b8235614ba381613fbe565b9150602083013561451181613fbe565b60008060008060408587031215614bc957600080fd5b84356001600160401b0380821115614be057600080fd5b818701915087601f830112614bf457600080fd5b813581811115614c0357600080fd5b88602061014083028501011115614c1957600080fd5b602092830196509450908601359080821115614c3457600080fd5b50614c418782880161431a565b95989497509550505050565b600181811c90821680614c6157607f821691505b6020821081036140f457634e487b7160e01b600052602260045260246000fd5b634e487b7160e01b600052603260045260246000fd5b600060408284031215614ca957600080fd5b611e7c838361424a565b8051613fde816144ca565b600060208284031215614cd057600080fd5b8151611e7c816144ca565b6000808335601e19843603018112614cf257600080fd5b8301803591506001600160401b03821115614d0c57600080fd5b602001915036819003821315613df357600080fd5b60008085851115614d3157600080fd5b83861115614d3e57600080fd5b5050820193919092039150565b6001600160e01b03198135818116916004851015614d735780818660040360031b1b83161692505b505092915050565b600080600060608486031215614d9057600080fd5b83359250602080850135614da381613f0f565b925060408501356001600160401b03811115614dbe57600080fd5b8501601f81018713614dcf57600080fd5b8035614ddd6142c282614227565b81815260059190911b82018301908381019089831115614dfc57600080fd5b928401925b82841015614e1a57833582529284019290840190614e01565b80955050505050509250925092565b8051613fde81613fbe565b60006101208284031215614e4757600080fd5b614e4f6141b1565b825181526020830151602082015260408301516040820152606083015160608201526080830151608082015260a083015160a082015260c083015160c0820152614e9b60e08401614e29565b60e0820152610100928301519281019290925250919050565b634e487b7160e01b600052601160045260246000fd5b81810381811115610a2157610a21614eb4565b80820180821115610a2157610a21614eb4565b60008235603e19833603018112614f0657600080fd5b9190910192915050565b6000808335601e19843603018112614f2757600080fd5b8301803591506001600160401b03821115614f4157600080fd5b6020019150600581901b3603821315613df357600080fd5b600060208284031215614f6b57600080fd5b8151611e7c81613fbe565b84815260606020808301829052908201849052600090859060808401835b87811015614fbb5761ffff614fa8856146f4565b1682529282019290820190600101614f94565b50809350505050821515604083015295945050505050565b600082601f830112614fe457600080fd5b81516020614ff46142c283614227565b82815260059290921b8401810191818101908684111561501357600080fd5b8286015b8481101561502e5780518352918301918301615017565b509695505050505050565b6000806040838503121561504c57600080fd5b82516001600160401b0381111561506257600080fd5b61506e85828601614fd3565b925050602083015190509250929050565b60006020828403121561509157600080fd5b611e7c826146f4565b6000602082840312156150ac57600080fd5b5051919050565b60208152816020820152818360408301376000818301604090810191909152601f909201601f19160101919050565b8183823760009101908152919050565b6000610160828403121561510557600080fd5b61510d6141d4565b825181526020830151602082015260408301516040820152606083015160608201526080830151608082015260a083015160a082015260c083015160c082015261515960e08401614e29565b60e08201526101008381015190820152610120615177818501614cb3565b90820152610140615189848201614cb3565b908201529392505050565b6000602082840312156151a657600080fd5b81516001600160401b038111156151bc57600080fd5b6120e084828501614fd3565b602080825282518282018190526000919060409081850190868401855b82811015615294578151805169ffffffffffffffffffff1685528681015165ffffffffffff16878601528581015164ffffffffff168686015260608082015161ffff908116918701919091526080808301519091169086015260a0808201516001600160a01b03169086015260c0808201519086015260e080820151151590860152610100808201511515908601526101209081015115159085015261014090930192908501906001016151e5565b5091979650505050505050565b6000602082840312156152b357600080fd5b81516001600160401b038111156152c957600080fd5b8201601f810184136152da57600080fd5b80516152e86142c2826145b0565b8181528560208385010111156152fd57600080fd5b61530e826020830160208601613f42565b95945050505050565b60408152600061532a6040830185613f66565b90508260208301529392505050565b6020808252810182905260006001600160fb1b0383111561535957600080fd5b8260051b80856040850137919091016040019392505050565b61538f8261537f836146af565b69ffffffffffffffffffff169052565b61539b602082016146c9565b65ffffffffffff1660208301526153b4604082016146df565b64ffffffffff1660408301526153cc606082016146f4565b61ffff1660608301526153e1608082016146f4565b61ffff1660808301526153f660a08201613fd3565b6001600160a01b031660a083015260c0818101359083015261541a60e082016144d8565b151560e083015261010061542f8282016144d8565b1515908301526101206154438282016144d8565b80151584830152610c9a565b6020808252810182905260008360408301825b85811015615488576154748284615372565b610140928301929190910190600101615462565b5095945050505050565b61016081016154a18285615372565b6001600160a01b03929092166101409190910152919050565b634e487b7160e01b600052601260045260246000fd5b6000826154ed57634e487b7160e01b600052601260045260246000fd5b500490565b600181815b8085111561552d57816000190482111561551357615513614eb4565b8085161561552057918102915b93841c93908002906154f7565b509250929050565b60008261554457506001610a21565b8161555157506000610a21565b816001811461556757600281146155715761558d565b6001915050610a21565b60ff84111561558257615582614eb4565b50506001821b610a21565b5060208310610133831016604e8410600b84101617156155b0575081810a610a21565b6155ba83836154f2565b80600019048211156155ce576155ce614eb4565b029392505050565b6000611e7c8383615535565b600080600080600080600060e0888a0312156155fd57600080fd5b873596506020808901359650604089013561561781613f0f565b95506060890135615627816144ca565b94506080890135615637816144ca565b935060a0890135615647816144ca565b925060c08901356001600160401b0381111561566257600080fd5b8901601f81018b1361567357600080fd5b80356156816142c282614227565b81815260059190911b8201830190838101908d8311156156a057600080fd5b928401925b828410156156c5576156b6846146f4565b825292840192908401906156a5565b809550505050505092959891949750929550565b6001600160a01b038581168252841660208201526040810183905260806060820181905260009061570c90830184613f66565b9695505050505050565b60006020828403121561572857600080fd5b8151611e7c81613f0f565b601f821115610b6757600081815260208120601f850160051c8101602086101561575a5750805b601f850160051c820191505b818110156125f357828155600101615766565b81516001600160401b038111156157925761579261412e565b6157a6816157a08454614c4d565b84615733565b602080601f8311600181146157db57600084156157c35750858301515b600019600386901b1c1916600185901b1785556125f3565b600085815260208120601f198616915b8281101561580a578886015182559484019460019091019084016157eb565b50858210156158285787850151600019600388901b60f8161c191681555b5050505050600190811b01905550565b6000606082018583526020606081850152818651808452608086019150828801935060005b8181101561587d57845161ffff168352938301939183019160010161585d565b50508093505050508215156040830152949350505050565b6000806000606084860312156158aa57600080fd5b835192506020840151915060408401519050925092509256fea2646970667358221220f5892e856a4fbabff0e7704ec0c1ec8f5395c0fd76a6894e01a15ac01e01173864736f6c63430008100033",
    "linkReferences": {
      "node_modules/@jbx-protocol/juice-721-delegate/contracts/libraries/JBIpfsDecoder.sol": {
        "JBIpfsDecoder": [
          {
            "start": 7986,
            "length": 20
          }
        ]
      }
    }
  },
  "methodIdentifiers": {
    "END_GAME_PHASE()": "06bc0c90",
    "MINT_GAME_PHASE()": "bd50adf0",
    "TOTAL_REDEMPTION_WEIGHT()": "640abacd",
    "adjustTiers((uint80,uint48,uint40,uint16,uint16,address,bytes32,bool,bool,bool)[],uint256[])": "f5a38e63",
    "approve(address,uint256)": "095ea7b3",
    "balanceOf(address)": "70a08231",
    "codeOrigin()": "1d153ca4",
    "contractURI()": "e8a3d485",
    "creditsOf(address)": "245a45b5",
    "didPay((address,uint256,uint256,(address,uint256,uint256,uint256),(address,uint256,uint256,uint256),uint256,address,bool,string,bytes))": "da9ee8b7",
    "didRedeem((address,uint256,uint256,uint256,(address,uint256,uint256,uint256),(address,uint256,uint256,uint256),address,string,bytes))": "2b13c58f",
    "directory()": "c41c2f24",
    "firstOwnerOf(uint256)": "54c6d1f5",
    "fundingCycleStore()": "557e7155",
    "getApproved(uint256)": "081812fc",
    "getPastTierTotalVotes(uint256,uint256)": "d31cc52c",
    "getPastTierVotes(address,uint256,uint256)": "d40e7146",
    "getTierDelegate(address,uint256)": "82732b6d",
    "getTierTotalVotes(uint256)": "94c5c5ca",
    "getTierVotes(address,uint256)": "ca323efe",
    "initialize(uint256,address,string,string,address,string,address,string,((uint80,uint48,uint40,uint16,uint16,address,bytes32,bool,bool,bool)[],uint256,uint256,address),address,(bool,bool,bool))": "bb52b6e4",
    "isApprovedForAll(address,address)": "e985e9c5",
    "mintFor((uint16[],address)[])": "36c1a93b",
    "mintFor(uint16[],address)": "6ac6d941",
    "mintReservesFor((uint256,uint256)[])": "2a596e53",
    "mintReservesFor(uint256,uint256)": "aa4fb15b",
    "name()": "06fdde03",
    "owner()": "8da5cb5b",
    "ownerOf(uint256)": "6352211e",
    "payParams((address,address,(address,uint256,uint256,uint256),uint256,uint256,address,uint256,uint256,string,bytes))": "d46cf171",
    "prices()": "d3419bf3",
    "pricingCurrency()": "64640c1e",
    "pricingDecimals()": "4ecba625",
    "projectId()": "3fafa127",
    "redeemParams((address,address,uint256,uint256,uint256,uint256,uint256,(address,uint256,uint256,uint256),bool,uint256,string,bytes))": "a51cfd18",
    "renounceOwnership()": "715018a6",
    "safeTransferFrom(address,address,uint256)": "42842e0e",
    "safeTransferFrom(address,address,uint256,bytes)": "b88d4fde",
    "setApprovalForAll(address,bool)": "a22cb465",
    "setBaseUri(string)": "a0bcfc7f",
    "setContractUri(string)": "ccb4807b",
    "setDefaultReservedTokenBeneficiary(address)": "df487e26",
    "setTierDelegate(address,uint256)": "ab951e39",
    "setTierDelegates((address,uint256)[])": "c74b13d9",
    "setTierRedemptionWeights((uint256,uint256)[])": "2f441500",
    "setTokenUriResolver(address)": "2407497e",
    "store()": "975057e7",
    "supportsInterface(bytes4)": "01ffc9a7",
    "symbol()": "95d89b41",
    "tierRedemptionWeights()": "9df45468",
    "tokenURI(uint256)": "c87b56dd",
    "transferFrom(address,address,uint256)": "23b872dd",
    "transferOwnership(address)": "f2fde38b"
  },
  "id": 0
}