{
  "abi": [
    {
      "inputs": [],
      "name": "ALEADY_MINTED",
      "type": "error"
    },
    {
      "inputs": [],
      "name": "APPROVAL_TO_CURRENT_OWNER",
      "type": "error"
    },
    {
      "inputs": [],
      "name": "APPROVE_TO_CALLER",
      "type": "error"
    },
    {
      "inputs": [],
      "name": "BLOCK_NOT_YET_MINED",
      "type": "error"
    },
    {
      "inputs": [],
      "name": "CALLER_NOT_OWNER_OR_APPROVED",
      "type": "error"
    },
    {
      "inputs": [],
      "name": "DELEGATE_ADDRESS_ZERO",
      "type": "error"
    },
    {
      "inputs": [],
      "name": "GAME_ISNT_OVER_YET",
      "type": "error"
    },
    {
      "inputs": [],
      "name": "INCORRECT_OWNER",
      "type": "error"
    },
    {
      "inputs": [],
      "name": "INVALID_PAYMENT_EVENT",
      "type": "error"
    },
    {
      "inputs": [],
      "name": "INVALID_REDEMPTION_EVENT",
      "type": "error"
    },
    {
      "inputs": [],
      "name": "INVALID_REDEMPTION_METADATA",
      "type": "error"
    },
    {
      "inputs": [],
      "name": "INVALID_REDEMPTION_WEIGHTS",
      "type": "error"
    },
    {
      "inputs": [],
      "name": "INVALID_TIER_ID",
      "type": "error"
    },
    {
      "inputs": [],
      "name": "INVALID_TOKEN_ID",
      "type": "error"
    },
    {
      "inputs": [],
      "name": "MINT_TO_ZERO",
      "type": "error"
    },
    {
      "inputs": [],
      "name": "NOTHING_TO_CLAIM",
      "type": "error"
    },
    {
      "inputs": [],
      "name": "NOT_AVAILABLE",
      "type": "error"
    },
    {
      "inputs": [],
      "name": "OVERSPENDING",
      "type": "error"
    },
    {
      "inputs": [
        {
          "internalType": "uint256",
          "name": "prod1",
          "type": "uint256"
        },
        {
          "internalType": "uint256",
          "name": "denominator",
          "type": "uint256"
        }
      ],
      "name": "PRBMath__MulDivOverflow",
      "type": "error"
    },
    {
      "inputs": [],
      "name": "PRICING_RESOLVER_CHANGES_PAUSED",
      "type": "error"
    },
    {
      "inputs": [],
      "name": "RESERVED_TOKEN_MINTING_PAUSED",
      "type": "error"
    },
    {
      "inputs": [],
      "name": "TRANSFERS_PAUSED",
      "type": "error"
    },
    {
      "inputs": [],
      "name": "TRANSFER_TO_NON_IMPLEMENTER",
      "type": "error"
    },
    {
      "inputs": [],
      "name": "TRANSFER_TO_ZERO_ADDRESS",
      "type": "error"
    },
    {
      "inputs": [],
      "name": "UNAUTHORIZED",
      "type": "error"
    },
    {
      "inputs": [],
      "name": "UNEXPECTED_TOKEN_REDEEMED",
      "type": "error"
    },
    {
      "anonymous": false,
      "inputs": [
        {
          "indexed": true,
          "internalType": "uint256",
          "name": "tierId",
          "type": "uint256"
        },
        {
          "components": [
            {
              "internalType": "uint80",
              "name": "contributionFloor",
              "type": "uint80"
            },
            {
              "internalType": "uint48",
              "name": "lockedUntil",
              "type": "uint48"
            },
            {
              "internalType": "uint40",
              "name": "initialQuantity",
              "type": "uint40"
            },
            {
              "internalType": "uint16",
              "name": "votingUnits",
              "type": "uint16"
            },
            {
              "internalType": "uint16",
              "name": "reservedRate",
              "type": "uint16"
            },
            {
              "internalType": "address",
              "name": "reservedTokenBeneficiary",
              "type": "address"
            },
            {
              "internalType": "bytes32",
              "name": "encodedIPFSUri",
              "type": "bytes32"
            },
            {
              "internalType": "bool",
              "name": "allowManualMint",
              "type": "bool"
            },
            {
              "internalType": "bool",
              "name": "shouldUseBeneficiaryAsDefault",
              "type": "bool"
            },
            {
              "internalType": "bool",
              "name": "transfersPausable",
              "type": "bool"
            }
          ],
          "indexed": false,
          "internalType": "struct JB721TierParams",
          "name": "data",
          "type": "tuple"
        },
        {
          "indexed": false,
          "internalType": "address",
          "name": "caller",
          "type": "address"
        }
      ],
      "name": "AddTier",
      "type": "event"
    },
    {
      "anonymous": false,
      "inputs": [
        {
          "indexed": true,
          "internalType": "address",
          "name": "owner",
          "type": "address"
        },
        {
          "indexed": true,
          "internalType": "address",
          "name": "approved",
          "type": "address"
        },
        {
          "indexed": true,
          "internalType": "uint256",
          "name": "tokenId",
          "type": "uint256"
        }
      ],
      "name": "Approval",
      "type": "event"
    },
    {
      "anonymous": false,
      "inputs": [
        {
          "indexed": true,
          "internalType": "address",
          "name": "owner",
          "type": "address"
        },
        {
          "indexed": true,
          "internalType": "address",
          "name": "operator",
          "type": "address"
        },
        {
          "indexed": false,
          "internalType": "bool",
          "name": "approved",
          "type": "bool"
        }
      ],
      "name": "ApprovalForAll",
      "type": "event"
    },
    {
      "anonymous": false,
      "inputs": [
        {
          "indexed": true,
          "internalType": "address",
          "name": "delegator",
          "type": "address"
        },
        {
          "indexed": true,
          "internalType": "address",
          "name": "fromDelegate",
          "type": "address"
        },
        {
          "indexed": true,
          "internalType": "address",
          "name": "toDelegate",
          "type": "address"
        }
      ],
      "name": "DelegateChanged",
      "type": "event"
    },
    {
      "anonymous": false,
      "inputs": [
        {
          "indexed": true,
          "internalType": "uint256",
          "name": "tokenId",
          "type": "uint256"
        },
        {
          "indexed": true,
          "internalType": "uint256",
          "name": "tierId",
          "type": "uint256"
        },
        {
          "indexed": true,
          "internalType": "address",
          "name": "beneficiary",
          "type": "address"
        },
        {
          "indexed": false,
          "internalType": "uint256",
          "name": "totalAmountContributed",
          "type": "uint256"
        },
        {
          "indexed": false,
          "internalType": "address",
          "name": "caller",
          "type": "address"
        }
      ],
      "name": "Mint",
      "type": "event"
    },
    {
      "anonymous": false,
      "inputs": [
        {
          "indexed": true,
          "internalType": "uint256",
          "name": "tokenId",
          "type": "uint256"
        },
        {
          "indexed": true,
          "internalType": "uint256",
          "name": "tierId",
          "type": "uint256"
        },
        {
          "indexed": true,
          "internalType": "address",
          "name": "beneficiary",
          "type": "address"
        },
        {
          "indexed": false,
          "internalType": "address",
          "name": "caller",
          "type": "address"
        }
      ],
      "name": "MintReservedToken",
      "type": "event"
    },
    {
      "anonymous": false,
      "inputs": [
        {
          "indexed": true,
          "internalType": "address",
          "name": "previousOwner",
          "type": "address"
        },
        {
          "indexed": true,
          "internalType": "address",
          "name": "newOwner",
          "type": "address"
        }
      ],
      "name": "OwnershipTransferred",
      "type": "event"
    },
    {
      "anonymous": false,
      "inputs": [
        {
          "indexed": true,
          "internalType": "uint256",
          "name": "tierId",
          "type": "uint256"
        },
        {
          "indexed": false,
          "internalType": "address",
          "name": "caller",
          "type": "address"
        }
      ],
      "name": "RemoveTier",
      "type": "event"
    },
    {
      "anonymous": false,
      "inputs": [
        {
          "indexed": true,
          "internalType": "string",
          "name": "baseUri",
          "type": "string"
        },
        {
          "indexed": false,
          "internalType": "address",
          "name": "caller",
          "type": "address"
        }
      ],
      "name": "SetBaseUri",
      "type": "event"
    },
    {
      "anonymous": false,
      "inputs": [
        {
          "indexed": true,
          "internalType": "string",
          "name": "contractUri",
          "type": "string"
        },
        {
          "indexed": false,
          "internalType": "address",
          "name": "caller",
          "type": "address"
        }
      ],
      "name": "SetContractUri",
      "type": "event"
    },
    {
      "anonymous": false,
      "inputs": [
        {
          "indexed": true,
          "internalType": "address",
          "name": "beneficiary",
          "type": "address"
        },
        {
          "indexed": false,
          "internalType": "address",
          "name": "caller",
          "type": "address"
        }
      ],
      "name": "SetDefaultReservedTokenBeneficiary",
      "type": "event"
    },
    {
      "anonymous": false,
      "inputs": [
        {
          "indexed": true,
          "internalType": "contract IJBTokenUriResolver",
          "name": "newResolver",
          "type": "address"
        },
        {
          "indexed": false,
          "internalType": "address",
          "name": "caller",
          "type": "address"
        }
      ],
      "name": "SetTokenUriResolver",
      "type": "event"
    },
    {
      "anonymous": false,
      "inputs": [
        {
          "indexed": true,
          "internalType": "address",
          "name": "delegator",
          "type": "address"
        },
        {
          "indexed": true,
          "internalType": "address",
          "name": "fromDelegate",
          "type": "address"
        },
        {
          "indexed": true,
          "internalType": "address",
          "name": "toDelegate",
          "type": "address"
        },
        {
          "indexed": false,
          "internalType": "uint256",
          "name": "tierId",
          "type": "uint256"
        },
        {
          "indexed": false,
          "internalType": "address",
          "name": "caller",
          "type": "address"
        }
      ],
      "name": "TierDelegateChanged",
      "type": "event"
    },
    {
      "anonymous": false,
      "inputs": [
        {
          "indexed": true,
          "internalType": "address",
          "name": "delegate",
          "type": "address"
        },
        {
          "indexed": true,
          "internalType": "uint256",
          "name": "tierId",
          "type": "uint256"
        },
        {
          "indexed": false,
          "internalType": "uint256",
          "name": "previousBalance",
          "type": "uint256"
        },
        {
          "indexed": false,
          "internalType": "uint256",
          "name": "newBalance",
          "type": "uint256"
        },
        {
          "indexed": false,
          "internalType": "address",
          "name": "callre",
          "type": "address"
        }
      ],
      "name": "TierDelegateVotesChanged",
      "type": "event"
    },
    {
      "anonymous": false,
      "inputs": [
        {
          "indexed": true,
          "internalType": "address",
          "name": "from",
          "type": "address"
        },
        {
          "indexed": true,
          "internalType": "address",
          "name": "to",
          "type": "address"
        },
        {
          "indexed": true,
          "internalType": "uint256",
          "name": "tokenId",
          "type": "uint256"
        }
      ],
      "name": "Transfer",
      "type": "event"
    },
    {
      "inputs": [],
      "name": "END_GAME_PHASE",
      "outputs": [
        {
          "internalType": "uint256",
          "name": "",
          "type": "uint256"
        }
      ],
      "stateMutability": "view",
      "type": "function"
    },
    {
      "inputs": [],
      "name": "MINT_GAME_PHASE",
      "outputs": [
        {
          "internalType": "uint256",
          "name": "",
          "type": "uint256"
        }
      ],
      "stateMutability": "view",
      "type": "function"
    },
    {
      "inputs": [],
      "name": "TOTAL_REDEMPTION_WEIGHT",
      "outputs": [
        {
          "internalType": "uint256",
          "name": "",
          "type": "uint256"
        }
      ],
      "stateMutability": "view",
      "type": "function"
    },
    {
      "inputs": [
        {
          "components": [
            {
              "internalType": "uint80",
              "name": "contributionFloor",
              "type": "uint80"
            },
            {
              "internalType": "uint48",
              "name": "lockedUntil",
              "type": "uint48"
            },
            {
              "internalType": "uint40",
              "name": "initialQuantity",
              "type": "uint40"
            },
            {
              "internalType": "uint16",
              "name": "votingUnits",
              "type": "uint16"
            },
            {
              "internalType": "uint16",
              "name": "reservedRate",
              "type": "uint16"
            },
            {
              "internalType": "address",
              "name": "reservedTokenBeneficiary",
              "type": "address"
            },
            {
              "internalType": "bytes32",
              "name": "encodedIPFSUri",
              "type": "bytes32"
            },
            {
              "internalType": "bool",
              "name": "allowManualMint",
              "type": "bool"
            },
            {
              "internalType": "bool",
              "name": "shouldUseBeneficiaryAsDefault",
              "type": "bool"
            },
            {
              "internalType": "bool",
              "name": "transfersPausable",
              "type": "bool"
            }
          ],
          "internalType": "struct JB721TierParams[]",
          "name": "_tiersToAdd",
          "type": "tuple[]"
        },
        {
          "internalType": "uint256[]",
          "name": "_tierIdsToRemove",
          "type": "uint256[]"
        }
      ],
      "name": "adjustTiers",
      "outputs": [],
      "stateMutability": "nonpayable",
      "type": "function"
    },
    {
      "inputs": [],
      "name": "amountRedeemed",
      "outputs": [
        {
          "internalType": "uint256",
          "name": "",
          "type": "uint256"
        }
      ],
      "stateMutability": "view",
      "type": "function"
    },
    {
      "inputs": [
        {
          "internalType": "address",
          "name": "to",
          "type": "address"
        },
        {
          "internalType": "uint256",
          "name": "tokenId",
          "type": "uint256"
        }
      ],
      "name": "approve",
      "outputs": [],
      "stateMutability": "nonpayable",
      "type": "function"
    },
    {
      "inputs": [
        {
          "internalType": "address",
          "name": "_owner",
          "type": "address"
        }
      ],
      "name": "balanceOf",
      "outputs": [
        {
          "internalType": "uint256",
          "name": "balance",
          "type": "uint256"
        }
      ],
      "stateMutability": "view",
      "type": "function"
    },
    {
      "inputs": [],
      "name": "codeOrigin",
      "outputs": [
        {
          "internalType": "address",
          "name": "",
          "type": "address"
        }
      ],
      "stateMutability": "view",
      "type": "function"
    },
    {
      "inputs": [],
      "name": "contractURI",
      "outputs": [
        {
          "internalType": "string",
          "name": "",
          "type": "string"
        }
      ],
      "stateMutability": "view",
      "type": "function"
    },
    {
      "inputs": [
        {
          "internalType": "address",
          "name": "",
          "type": "address"
        }
      ],
      "name": "creditsOf",
      "outputs": [
        {
          "internalType": "uint256",
          "name": "",
          "type": "uint256"
        }
      ],
      "stateMutability": "view",
      "type": "function"
    },
    {
      "inputs": [
        {
          "components": [
            {
              "internalType": "address",
              "name": "payer",
              "type": "address"
            },
            {
              "internalType": "uint256",
              "name": "projectId",
              "type": "uint256"
            },
            {
              "internalType": "uint256",
              "name": "currentFundingCycleConfiguration",
              "type": "uint256"
            },
            {
              "components": [
                {
                  "internalType": "address",
                  "name": "token",
                  "type": "address"
                },
                {
                  "internalType": "uint256",
                  "name": "value",
                  "type": "uint256"
                },
                {
                  "internalType": "uint256",
                  "name": "decimals",
                  "type": "uint256"
                },
                {
                  "internalType": "uint256",
                  "name": "currency",
                  "type": "uint256"
                }
              ],
              "internalType": "struct JBTokenAmount",
              "name": "amount",
              "type": "tuple"
            },
            {
              "components": [
                {
                  "internalType": "address",
                  "name": "token",
                  "type": "address"
                },
                {
                  "internalType": "uint256",
                  "name": "value",
                  "type": "uint256"
                },
                {
                  "internalType": "uint256",
                  "name": "decimals",
                  "type": "uint256"
                },
                {
                  "internalType": "uint256",
                  "name": "currency",
                  "type": "uint256"
                }
              ],
              "internalType": "struct JBTokenAmount",
              "name": "forwardedAmount",
              "type": "tuple"
            },
            {
              "internalType": "uint256",
              "name": "projectTokenCount",
              "type": "uint256"
            },
            {
              "internalType": "address",
              "name": "beneficiary",
              "type": "address"
            },
            {
              "internalType": "bool",
              "name": "preferClaimedTokens",
              "type": "bool"
            },
            {
              "internalType": "string",
              "name": "memo",
              "type": "string"
            },
            {
              "internalType": "bytes",
              "name": "metadata",
              "type": "bytes"
            }
          ],
          "internalType": "struct JBDidPayData",
          "name": "_data",
          "type": "tuple"
        }
      ],
      "name": "didPay",
      "outputs": [],
      "stateMutability": "payable",
      "type": "function"
    },
    {
      "inputs": [
        {
          "components": [
            {
              "internalType": "address",
              "name": "holder",
              "type": "address"
            },
            {
              "internalType": "uint256",
              "name": "projectId",
              "type": "uint256"
            },
            {
              "internalType": "uint256",
              "name": "currentFundingCycleConfiguration",
              "type": "uint256"
            },
            {
              "internalType": "uint256",
              "name": "projectTokenCount",
              "type": "uint256"
            },
            {
              "components": [
                {
                  "internalType": "address",
                  "name": "token",
                  "type": "address"
                },
                {
                  "internalType": "uint256",
                  "name": "value",
                  "type": "uint256"
                },
                {
                  "internalType": "uint256",
                  "name": "decimals",
                  "type": "uint256"
                },
                {
                  "internalType": "uint256",
                  "name": "currency",
                  "type": "uint256"
                }
              ],
              "internalType": "struct JBTokenAmount",
              "name": "reclaimedAmount",
              "type": "tuple"
            },
            {
              "components": [
                {
                  "internalType": "address",
                  "name": "token",
                  "type": "address"
                },
                {
                  "internalType": "uint256",
                  "name": "value",
                  "type": "uint256"
                },
                {
                  "internalType": "uint256",
                  "name": "decimals",
                  "type": "uint256"
                },
                {
                  "internalType": "uint256",
                  "name": "currency",
                  "type": "uint256"
                }
              ],
              "internalType": "struct JBTokenAmount",
              "name": "forwardedAmount",
              "type": "tuple"
            },
            {
              "internalType": "address payable",
              "name": "beneficiary",
              "type": "address"
            },
            {
              "internalType": "string",
              "name": "memo",
              "type": "string"
            },
            {
              "internalType": "bytes",
              "name": "metadata",
              "type": "bytes"
            }
          ],
          "internalType": "struct JBDidRedeemData",
          "name": "_data",
          "type": "tuple"
        }
      ],
      "name": "didRedeem",
      "outputs": [],
      "stateMutability": "payable",
      "type": "function"
    },
    {
      "inputs": [],
      "name": "directory",
      "outputs": [
        {
          "internalType": "contract IJBDirectory",
          "name": "",
          "type": "address"
        }
      ],
      "stateMutability": "view",
      "type": "function"
    },
    {
      "inputs": [
        {
          "internalType": "uint256",
          "name": "_tokenId",
          "type": "uint256"
        }
      ],
      "name": "firstOwnerOf",
      "outputs": [
        {
          "internalType": "address",
          "name": "",
          "type": "address"
        }
      ],
      "stateMutability": "view",
      "type": "function"
    },
    {
      "inputs": [],
      "name": "fundingCycleStore",
      "outputs": [
        {
          "internalType": "contract IJBFundingCycleStore",
          "name": "",
          "type": "address"
        }
      ],
      "stateMutability": "view",
      "type": "function"
    },
    {
      "inputs": [
        {
          "internalType": "uint256",
          "name": "tokenId",
          "type": "uint256"
        }
      ],
      "name": "getApproved",
      "outputs": [
        {
          "internalType": "address",
          "name": "",
          "type": "address"
        }
      ],
      "stateMutability": "view",
      "type": "function"
    },
    {
      "inputs": [
        {
          "internalType": "uint256",
          "name": "_tier",
          "type": "uint256"
        },
        {
          "internalType": "uint256",
          "name": "_blockNumber",
          "type": "uint256"
        }
      ],
      "name": "getPastTierTotalVotes",
      "outputs": [
        {
          "internalType": "uint256",
          "name": "",
          "type": "uint256"
        }
      ],
      "stateMutability": "view",
      "type": "function"
    },
    {
      "inputs": [
        {
          "internalType": "address",
          "name": "_account",
          "type": "address"
        },
        {
          "internalType": "uint256",
          "name": "_tier",
          "type": "uint256"
        },
        {
          "internalType": "uint256",
          "name": "_blockNumber",
          "type": "uint256"
        }
      ],
      "name": "getPastTierVotes",
      "outputs": [
        {
          "internalType": "uint256",
          "name": "",
          "type": "uint256"
        }
      ],
      "stateMutability": "view",
      "type": "function"
    },
    {
      "inputs": [
        {
          "internalType": "address",
          "name": "_account",
          "type": "address"
        },
        {
          "internalType": "uint256",
          "name": "_tier",
          "type": "uint256"
        }
      ],
      "name": "getTierDelegate",
      "outputs": [
        {
          "internalType": "address",
          "name": "",
          "type": "address"
        }
      ],
      "stateMutability": "view",
      "type": "function"
    },
    {
      "inputs": [
        {
          "internalType": "uint256",
          "name": "_tier",
          "type": "uint256"
        }
      ],
      "name": "getTierTotalVotes",
      "outputs": [
        {
          "internalType": "uint256",
          "name": "",
          "type": "uint256"
        }
      ],
      "stateMutability": "view",
      "type": "function"
    },
    {
      "inputs": [
        {
          "internalType": "address",
          "name": "_account",
          "type": "address"
        },
        {
          "internalType": "uint256",
          "name": "_tier",
          "type": "uint256"
        }
      ],
      "name": "getTierVotes",
      "outputs": [
        {
          "internalType": "uint256",
          "name": "",
          "type": "uint256"
        }
      ],
      "stateMutability": "view",
      "type": "function"
    },
    {
      "inputs": [
        {
          "internalType": "uint256",
          "name": "_projectId",
          "type": "uint256"
        },
        {
          "internalType": "contract IJBDirectory",
          "name": "_directory",
          "type": "address"
        },
        {
          "internalType": "string",
          "name": "_name",
          "type": "string"
        },
        {
          "internalType": "string",
          "name": "_symbol",
          "type": "string"
        },
        {
          "internalType": "contract IJBFundingCycleStore",
          "name": "_fundingCycleStore",
          "type": "address"
        },
        {
          "internalType": "string",
          "name": "_baseUri",
          "type": "string"
        },
        {
          "internalType": "contract IJBTokenUriResolver",
          "name": "_tokenUriResolver",
          "type": "address"
        },
        {
          "internalType": "string",
          "name": "_contractUri",
          "type": "string"
        },
        {
          "components": [
            {
              "components": [
                {
                  "internalType": "uint80",
                  "name": "contributionFloor",
                  "type": "uint80"
                },
                {
                  "internalType": "uint48",
                  "name": "lockedUntil",
                  "type": "uint48"
                },
                {
                  "internalType": "uint40",
                  "name": "initialQuantity",
                  "type": "uint40"
                },
                {
                  "internalType": "uint16",
                  "name": "votingUnits",
                  "type": "uint16"
                },
                {
                  "internalType": "uint16",
                  "name": "reservedRate",
                  "type": "uint16"
                },
                {
                  "internalType": "address",
                  "name": "reservedTokenBeneficiary",
                  "type": "address"
                },
                {
                  "internalType": "bytes32",
                  "name": "encodedIPFSUri",
                  "type": "bytes32"
                },
                {
                  "internalType": "bool",
                  "name": "allowManualMint",
                  "type": "bool"
                },
                {
                  "internalType": "bool",
                  "name": "shouldUseBeneficiaryAsDefault",
                  "type": "bool"
                },
                {
                  "internalType": "bool",
                  "name": "transfersPausable",
                  "type": "bool"
                }
              ],
              "internalType": "struct JB721TierParams[]",
              "name": "tiers",
              "type": "tuple[]"
            },
            {
              "internalType": "uint256",
              "name": "currency",
              "type": "uint256"
            },
            {
              "internalType": "uint256",
              "name": "decimals",
              "type": "uint256"
            },
            {
              "internalType": "contract IJBPrices",
              "name": "prices",
              "type": "address"
            }
          ],
          "internalType": "struct JB721PricingParams",
          "name": "_pricing",
          "type": "tuple"
        },
        {
          "internalType": "contract IJBTiered721DelegateStore",
          "name": "_store",
          "type": "address"
        },
        {
          "components": [
            {
              "internalType": "bool",
              "name": "lockReservedTokenChanges",
              "type": "bool"
            },
            {
              "internalType": "bool",
              "name": "lockVotingUnitChanges",
              "type": "bool"
            },
            {
              "internalType": "bool",
              "name": "lockManualMintingChanges",
              "type": "bool"
            }
          ],
          "internalType": "struct JBTiered721Flags",
          "name": "_flags",
          "type": "tuple"
        }
      ],
      "name": "initialize",
      "outputs": [],
      "stateMutability": "nonpayable",
      "type": "function"
    },
    {
      "inputs": [
        {
          "internalType": "address",
          "name": "owner",
          "type": "address"
        },
        {
          "internalType": "address",
          "name": "operator",
          "type": "address"
        }
      ],
      "name": "isApprovedForAll",
      "outputs": [
        {
          "internalType": "bool",
          "name": "",
          "type": "bool"
        }
      ],
      "stateMutability": "view",
      "type": "function"
    },
    {
      "inputs": [
        {
          "components": [
            {
              "internalType": "uint16[]",
              "name": "tierIds",
              "type": "uint16[]"
            },
            {
              "internalType": "address",
              "name": "beneficiary",
              "type": "address"
            }
          ],
          "internalType": "struct JBTiered721MintForTiersData[]",
          "name": "_mintForTiersData",
          "type": "tuple[]"
        }
      ],
      "name": "mintFor",
      "outputs": [],
      "stateMutability": "nonpayable",
      "type": "function"
    },
    {
      "inputs": [
        {
          "internalType": "uint16[]",
          "name": "_tierIds",
          "type": "uint16[]"
        },
        {
          "internalType": "address",
          "name": "_beneficiary",
          "type": "address"
        }
      ],
      "name": "mintFor",
      "outputs": [
        {
          "internalType": "uint256[]",
          "name": "tokenIds",
          "type": "uint256[]"
        }
      ],
      "stateMutability": "nonpayable",
      "type": "function"
    },
    {
      "inputs": [
        {
          "components": [
            {
              "internalType": "uint256",
              "name": "tierId",
              "type": "uint256"
            },
            {
              "internalType": "uint256",
              "name": "count",
              "type": "uint256"
            }
          ],
          "internalType": "struct JBTiered721MintReservesForTiersData[]",
          "name": "_mintReservesForTiersData",
          "type": "tuple[]"
        }
      ],
      "name": "mintReservesFor",
      "outputs": [],
      "stateMutability": "nonpayable",
      "type": "function"
    },
    {
      "inputs": [
        {
          "internalType": "uint256",
          "name": "_tierId",
          "type": "uint256"
        },
        {
          "internalType": "uint256",
          "name": "_count",
          "type": "uint256"
        }
      ],
      "name": "mintReservesFor",
      "outputs": [],
      "stateMutability": "nonpayable",
      "type": "function"
    },
    {
      "inputs": [],
      "name": "name",
      "outputs": [
        {
          "internalType": "string",
          "name": "",
          "type": "string"
        }
      ],
      "stateMutability": "view",
      "type": "function"
    },
    {
      "inputs": [],
      "name": "owner",
      "outputs": [
        {
          "internalType": "address",
          "name": "",
          "type": "address"
        }
      ],
      "stateMutability": "view",
      "type": "function"
    },
    {
      "inputs": [
        {
          "internalType": "uint256",
          "name": "tokenId",
          "type": "uint256"
        }
      ],
      "name": "ownerOf",
      "outputs": [
        {
          "internalType": "address",
          "name": "",
          "type": "address"
        }
      ],
      "stateMutability": "view",
      "type": "function"
    },
    {
      "inputs": [
        {
          "components": [
            {
              "internalType": "contract IJBPaymentTerminal",
              "name": "terminal",
              "type": "address"
            },
            {
              "internalType": "address",
              "name": "payer",
              "type": "address"
            },
            {
              "components": [
                {
                  "internalType": "address",
                  "name": "token",
                  "type": "address"
                },
                {
                  "internalType": "uint256",
                  "name": "value",
                  "type": "uint256"
                },
                {
                  "internalType": "uint256",
                  "name": "decimals",
                  "type": "uint256"
                },
                {
                  "internalType": "uint256",
                  "name": "currency",
                  "type": "uint256"
                }
              ],
              "internalType": "struct JBTokenAmount",
              "name": "amount",
              "type": "tuple"
            },
            {
              "internalType": "uint256",
              "name": "projectId",
              "type": "uint256"
            },
            {
              "internalType": "uint256",
              "name": "currentFundingCycleConfiguration",
              "type": "uint256"
            },
            {
              "internalType": "address",
              "name": "beneficiary",
              "type": "address"
            },
            {
              "internalType": "uint256",
              "name": "weight",
              "type": "uint256"
            },
            {
              "internalType": "uint256",
              "name": "reservedRate",
              "type": "uint256"
            },
            {
              "internalType": "string",
              "name": "memo",
              "type": "string"
            },
            {
              "internalType": "bytes",
              "name": "metadata",
              "type": "bytes"
            }
          ],
          "internalType": "struct JBPayParamsData",
          "name": "_data",
          "type": "tuple"
        }
      ],
      "name": "payParams",
      "outputs": [
        {
          "internalType": "uint256",
          "name": "weight",
          "type": "uint256"
        },
        {
          "internalType": "string",
          "name": "memo",
          "type": "string"
        },
        {
          "components": [
            {
              "internalType": "contract IJBPayDelegate",
              "name": "delegate",
              "type": "address"
            },
            {
              "internalType": "uint256",
              "name": "amount",
              "type": "uint256"
            }
          ],
          "internalType": "struct JBPayDelegateAllocation[]",
          "name": "delegateAllocations",
          "type": "tuple[]"
        }
      ],
      "stateMutability": "view",
      "type": "function"
    },
    {
      "inputs": [],
      "name": "prices",
      "outputs": [
        {
          "internalType": "contract IJBPrices",
          "name": "",
          "type": "address"
        }
      ],
      "stateMutability": "view",
      "type": "function"
    },
    {
      "inputs": [],
      "name": "pricingCurrency",
      "outputs": [
        {
          "internalType": "uint256",
          "name": "",
          "type": "uint256"
        }
      ],
      "stateMutability": "view",
      "type": "function"
    },
    {
      "inputs": [],
      "name": "pricingDecimals",
      "outputs": [
        {
          "internalType": "uint256",
          "name": "",
          "type": "uint256"
        }
      ],
      "stateMutability": "view",
      "type": "function"
    },
    {
      "inputs": [],
      "name": "projectId",
      "outputs": [
        {
          "internalType": "uint256",
          "name": "",
          "type": "uint256"
        }
      ],
      "stateMutability": "view",
      "type": "function"
    },
    {
      "inputs": [
        {
          "components": [
            {
              "internalType": "contract IJBPaymentTerminal",
              "name": "terminal",
              "type": "address"
            },
            {
              "internalType": "address",
              "name": "holder",
              "type": "address"
            },
            {
              "internalType": "uint256",
              "name": "projectId",
              "type": "uint256"
            },
            {
              "internalType": "uint256",
              "name": "currentFundingCycleConfiguration",
              "type": "uint256"
            },
            {
              "internalType": "uint256",
              "name": "tokenCount",
              "type": "uint256"
            },
            {
              "internalType": "uint256",
              "name": "totalSupply",
              "type": "uint256"
            },
            {
              "internalType": "uint256",
              "name": "overflow",
              "type": "uint256"
            },
            {
              "components": [
                {
                  "internalType": "address",
                  "name": "token",
                  "type": "address"
                },
                {
                  "internalType": "uint256",
                  "name": "value",
                  "type": "uint256"
                },
                {
                  "internalType": "uint256",
                  "name": "decimals",
                  "type": "uint256"
                },
                {
                  "internalType": "uint256",
                  "name": "currency",
                  "type": "uint256"
                }
              ],
              "internalType": "struct JBTokenAmount",
              "name": "reclaimAmount",
              "type": "tuple"
            },
            {
              "internalType": "bool",
              "name": "useTotalOverflow",
              "type": "bool"
            },
            {
              "internalType": "uint256",
              "name": "redemptionRate",
              "type": "uint256"
            },
            {
              "internalType": "string",
              "name": "memo",
              "type": "string"
            },
            {
              "internalType": "bytes",
              "name": "metadata",
              "type": "bytes"
            }
          ],
          "internalType": "struct JBRedeemParamsData",
          "name": "_data",
          "type": "tuple"
        }
      ],
      "name": "redeemParams",
      "outputs": [
        {
          "internalType": "uint256",
          "name": "reclaimAmount",
          "type": "uint256"
        },
        {
          "internalType": "string",
          "name": "memo",
          "type": "string"
        },
        {
          "components": [
            {
              "internalType": "contract IJBRedemptionDelegate",
              "name": "delegate",
              "type": "address"
            },
            {
              "internalType": "uint256",
              "name": "amount",
              "type": "uint256"
            }
          ],
          "internalType": "struct JBRedemptionDelegateAllocation[]",
          "name": "delegateAllocations",
          "type": "tuple[]"
        }
      ],
      "stateMutability": "view",
      "type": "function"
    },
    {
      "inputs": [
        {
          "internalType": "uint256",
          "name": "",
          "type": "uint256"
        }
      ],
      "name": "redeemedFromTier",
      "outputs": [
        {
          "internalType": "uint256",
          "name": "",
          "type": "uint256"
        }
      ],
      "stateMutability": "view",
      "type": "function"
    },
    {
      "inputs": [],
      "name": "renounceOwnership",
      "outputs": [],
      "stateMutability": "nonpayable",
      "type": "function"
    },
    {
      "inputs": [
        {
          "internalType": "address",
          "name": "from",
          "type": "address"
        },
        {
          "internalType": "address",
          "name": "to",
          "type": "address"
        },
        {
          "internalType": "uint256",
          "name": "tokenId",
          "type": "uint256"
        }
      ],
      "name": "safeTransferFrom",
      "outputs": [],
      "stateMutability": "nonpayable",
      "type": "function"
    },
    {
      "inputs": [
        {
          "internalType": "address",
          "name": "from",
          "type": "address"
        },
        {
          "internalType": "address",
          "name": "to",
          "type": "address"
        },
        {
          "internalType": "uint256",
          "name": "tokenId",
          "type": "uint256"
        },
        {
          "internalType": "bytes",
          "name": "data",
          "type": "bytes"
        }
      ],
      "name": "safeTransferFrom",
      "outputs": [],
      "stateMutability": "nonpayable",
      "type": "function"
    },
    {
      "inputs": [
        {
          "internalType": "address",
          "name": "operator",
          "type": "address"
        },
        {
          "internalType": "bool",
          "name": "approved",
          "type": "bool"
        }
      ],
      "name": "setApprovalForAll",
      "outputs": [],
      "stateMutability": "nonpayable",
      "type": "function"
    },
    {
      "inputs": [
        {
          "internalType": "string",
          "name": "_baseUri",
          "type": "string"
        }
      ],
      "name": "setBaseUri",
      "outputs": [],
      "stateMutability": "nonpayable",
      "type": "function"
    },
    {
      "inputs": [
        {
          "internalType": "string",
          "name": "_contractUri",
          "type": "string"
        }
      ],
      "name": "setContractUri",
      "outputs": [],
      "stateMutability": "nonpayable",
      "type": "function"
    },
    {
      "inputs": [
        {
          "internalType": "address",
          "name": "_beneficiary",
          "type": "address"
        }
      ],
      "name": "setDefaultReservedTokenBeneficiary",
      "outputs": [],
      "stateMutability": "nonpayable",
      "type": "function"
    },
    {
      "inputs": [
        {
          "internalType": "address",
          "name": "_delegatee",
          "type": "address"
        },
        {
          "internalType": "uint256",
          "name": "_tierId",
          "type": "uint256"
        }
      ],
      "name": "setTierDelegate",
      "outputs": [],
      "stateMutability": "nonpayable",
      "type": "function"
    },
    {
      "inputs": [
        {
          "components": [
            {
              "internalType": "address",
              "name": "delegatee",
              "type": "address"
            },
            {
              "internalType": "uint256",
              "name": "tierId",
              "type": "uint256"
            }
          ],
          "internalType": "struct JBTiered721SetTierDelegatesData[]",
          "name": "_setTierDelegatesData",
          "type": "tuple[]"
        }
      ],
      "name": "setTierDelegates",
      "outputs": [],
      "stateMutability": "nonpayable",
      "type": "function"
    },
    {
      "inputs": [
        {
          "components": [
            {
              "internalType": "uint256",
              "name": "id",
              "type": "uint256"
            },
            {
              "internalType": "uint256",
              "name": "redemptionWeight",
              "type": "uint256"
            }
          ],
          "internalType": "struct DefifaTierRedemptionWeight[]",
          "name": "_tierWeights",
          "type": "tuple[]"
        }
      ],
      "name": "setTierRedemptionWeights",
      "outputs": [],
      "stateMutability": "nonpayable",
      "type": "function"
    },
    {
      "inputs": [
        {
          "internalType": "contract IJBTokenUriResolver",
          "name": "_tokenUriResolver",
          "type": "address"
        }
      ],
      "name": "setTokenUriResolver",
      "outputs": [],
      "stateMutability": "nonpayable",
      "type": "function"
    },
    {
      "inputs": [],
      "name": "store",
      "outputs": [
        {
          "internalType": "contract IJBTiered721DelegateStore",
          "name": "",
          "type": "address"
        }
      ],
      "stateMutability": "view",
      "type": "function"
    },
    {
      "inputs": [
        {
          "internalType": "bytes4",
          "name": "_interfaceId",
          "type": "bytes4"
        }
      ],
      "name": "supportsInterface",
      "outputs": [
        {
          "internalType": "bool",
          "name": "",
          "type": "bool"
        }
      ],
      "stateMutability": "view",
      "type": "function"
    },
    {
      "inputs": [],
      "name": "symbol",
      "outputs": [
        {
          "internalType": "string",
          "name": "",
          "type": "string"
        }
      ],
      "stateMutability": "view",
      "type": "function"
    },
    {
      "inputs": [],
      "name": "tierRedemptionWeights",
      "outputs": [
        {
          "internalType": "uint256[128]",
          "name": "",
          "type": "uint256[128]"
        }
      ],
      "stateMutability": "view",
      "type": "function"
    },
    {
      "inputs": [
        {
          "internalType": "uint256",
          "name": "_tokenId",
          "type": "uint256"
        }
      ],
      "name": "tokenURI",
      "outputs": [
        {
          "internalType": "string",
          "name": "",
          "type": "string"
        }
      ],
      "stateMutability": "view",
      "type": "function"
    },
    {
      "inputs": [
        {
          "internalType": "address",
          "name": "from",
          "type": "address"
        },
        {
          "internalType": "address",
          "name": "to",
          "type": "address"
        },
        {
          "internalType": "uint256",
          "name": "tokenId",
          "type": "uint256"
        }
      ],
      "name": "transferFrom",
      "outputs": [],
      "stateMutability": "nonpayable",
      "type": "function"
    },
    {
      "inputs": [
        {
          "internalType": "address",
          "name": "newOwner",
          "type": "address"
        }
      ],
      "name": "transferOwnership",
      "outputs": [],
      "stateMutability": "nonpayable",
      "type": "function"
    }
  ],
  "bytecode": {
    "object": "0x60806040523480156200001157600080fd5b506200001d3362000035565b600880546001600160a01b0319163017905562000087565b600780546001600160a01b038381166001600160a01b0319831681179093556040519116919082907f8be0079c531659141344cd1fd0a4f28419497f9722a3daafe3b4186f6b6457e090600090a35050565b61606480620000976000396000f3fe6080604052600436106103505760003560e01c8063943abfee116101c6578063c74b13d9116100f7578063d46cf17111610095578063e8a3d4851161006f578063e8a3d485146109d7578063e985e9c5146109ec578063f2fde38b14610a35578063f5a38e6314610a5557600080fd5b8063d46cf17114610984578063da9ee8b7146109a4578063df487e26146109b757600080fd5b8063ccb4807b116100d1578063ccb4807b14610904578063d31cc52c14610924578063d3419bf314610944578063d40e71461461096457600080fd5b8063c74b13d9146108a4578063c87b56dd146108c4578063ca323efe146108e457600080fd5b8063a51cfd1811610164578063b88d4fde1161013e578063b88d4fde1461082f578063bb52b6e41461084f578063bd50adf01461086f578063c41c2f241461088457600080fd5b8063a51cfd18146107c0578063aa4fb15b146107ef578063ab951e391461080f57600080fd5b8063975057e7116101a0578063975057e71461073e5780639df454681461075e578063a0bcfc7f14610780578063a22cb465146107a057600080fd5b8063943abfee146106dc57806394c5c5ca1461070957806395d89b411461072957600080fd5b806336c1a93b116102a0578063640abacd1161023e57806370a082311161021857806370a0823114610646578063715018a61461066657806382732b6d1461067b5780638da5cb5b146106be57600080fd5b8063640abacd146105eb57806364640c1e146106035780636ac6d9411461061957600080fd5b80634ecba6251161027a5780634ecba6251461057557806354c6d1f51461058b578063557e7155146105ab5780636352211e146105cb57600080fd5b806336c1a93b1461051f5780633fafa1271461053f57806342842e0e1461055557600080fd5b806323b872dd1161030d57806327f6e979116102e757806327f6e979146104b65780632a596e53146104cc5780632b13c58f146104ec5780632f441500146104ff57600080fd5b806323b872dd146104495780632407497e14610469578063245a45b51461048957600080fd5b806301ffc9a71461035557806306bc0c901461038a57806306fdde03146103ad578063081812fc146103cf578063095ea7b3146104075780631d153ca414610429575b600080fd5b34801561036157600080fd5b5061037561037036600461464c565b610a75565b60405190151581526020015b60405180910390f35b34801561039657600080fd5b5061039f600481565b604051908152602001610381565b3480156103b957600080fd5b506103c2610aa0565b60405161038191906146b9565b3480156103db57600080fd5b506103ef6103ea3660046146cc565b610b32565b6040516001600160a01b039091168152602001610381565b34801561041357600080fd5b5061042761042236600461470a565b610b59565b005b34801561043557600080fd5b506008546103ef906001600160a01b031681565b34801561045557600080fd5b50610427610464366004614736565b610be5565b34801561047557600080fd5b50610427610484366004614777565b610c17565b34801561049557600080fd5b5061039f6104a4366004614777565b600e6020526000908152604090205481565b3480156104c257600080fd5b5061039f60925481565b3480156104d857600080fd5b506104276104e7366004614794565b610cc0565b6104276104fa366004614821565b610d19565b34801561050b57600080fd5b5061042761051a3660046149a1565b61102e565b34801561052b57600080fd5b5061042761053a366004614a85565b611258565b34801561054b57600080fd5b5061039f60055481565b34801561056157600080fd5b50610427610570366004614736565b6112ba565b34801561058157600080fd5b5061039f600d5481565b34801561059757600080fd5b506103ef6105a63660046146cc565b6112d5565b3480156105b757600080fd5b50600a546103ef906001600160a01b031681565b3480156105d757600080fd5b506103ef6105e63660046146cc565b611381565b3480156105f757600080fd5b5061039f633b9aca0081565b34801561060f57600080fd5b5061039f600c5481565b34801561062557600080fd5b50610639610634366004614ac6565b6113b7565b6040516103819190614b1c565b34801561065257600080fd5b5061039f610661366004614777565b6114fd565b34801561067257600080fd5b50610427611572565b34801561068757600080fd5b506103ef61069636600461470a565b6001600160a01b039182166000908152600f6020908152604080832093835292905220541690565b3480156106ca57600080fd5b506007546001600160a01b03166103ef565b3480156106e857600080fd5b5061039f6106f73660046146cc565b60936020526000908152604090205481565b34801561071557600080fd5b5061039f6107243660046146cc565b611586565b34801561073557600080fd5b506103c261159d565b34801561074a57600080fd5b506009546103ef906001600160a01b031681565b34801561076a57600080fd5b506107736115ac565b6040516103819190614b60565b34801561078c57600080fd5b5061042761079b366004614b92565b6115e8565b3480156107ac57600080fd5b506104276107bb366004614c0a565b6116a3565b3480156107cc57600080fd5b506107e06107db366004614821565b6116b2565b60405161038193929190614c43565b3480156107fb57600080fd5b5061042761080a366004614cb5565b611a0f565b34801561081b57600080fd5b5061042761082a36600461470a565b611c2c565b34801561083b57600080fd5b5061042761084a366004614d37565b611c37565b34801561085b57600080fd5b5061042761086a366004615015565b611c6a565b34801561087b57600080fd5b5061039f600181565b34801561089057600080fd5b506006546103ef906001600160a01b031681565b3480156108b057600080fd5b506104276108bf36600461514e565b611f50565b3480156108d057600080fd5b506103c26108df3660046146cc565b611fd4565b3480156108f057600080fd5b5061039f6108ff36600461470a565b6121e3565b34801561091057600080fd5b5061042761091f366004614b92565b61220f565b34801561093057600080fd5b5061039f61093f366004614cb5565b6122c2565b34801561095057600080fd5b50600b546103ef906001600160a01b031681565b34801561097057600080fd5b5061039f61097f366004615201565b6122da565b34801561099057600080fd5b506107e061099f366004615236565b61230f565b6104276109b2366004615271565b6123f2565b3480156109c357600080fd5b506104276109d2366004614777565b6124a9565b3480156109e357600080fd5b506103c261254b565b3480156109f857600080fd5b50610375610a073660046152ac565b6001600160a01b03918216600090815260046020908152604080832093909416825291909152205460ff1690565b348015610a4157600080fd5b50610427610a50366004614777565b6125c1565b348015610a6157600080fd5b50610427610a703660046152da565b61263f565b60006001600160e01b03198216631e68505960e31b1480610a9a5750610a9a82612821565b92915050565b606060008054610aaf90615374565b80601f0160208091040260200160405190810160405280929190818152602001828054610adb90615374565b8015610b285780601f10610afd57610100808354040283529160200191610b28565b820191906000526020600020905b815481529060010190602001808311610b0b57829003601f168201915b5050505050905090565b6000610b3d82612897565b506000908152600360205260409020546001600160a01b031690565b6000610b6482611381565b9050806001600160a01b0316836001600160a01b031603610b985760405163133f8be960e01b815260040160405180910390fd5b336001600160a01b03821614801590610bb85750610bb68133610a07565b155b15610bd65760405163e5fa0e3560e01b815260040160405180910390fd5b610be083836128cc565b505050565b610bef338261293a565b610c0c5760405163e5fa0e3560e01b815260040160405180910390fd5b610be08383836129b8565b610c1f612a91565b60095460405163036129cb60e61b81526001600160a01b0383811660048301529091169063d84a72c090602401600060405180830381600087803b158015610c6657600080fd5b505af1158015610c7a573d6000803e3d6000fd5b50506040513381526001600160a01b03841692507fe7784d93cfbfa4408e19577e6cc0436f4dbb51214b70e100905dfce9def88c1691506020015b60405180910390a250565b8060005b81811015610d13576000848483818110610ce057610ce06153a8565b905060400201803603810190610cf691906153be565b9050610d0a81600001518260200151611a0f565b50600101610cc4565b50505050565b34151580610d9b5750600654600554604051636e49181f60e01b815260048101919091523360248201526001600160a01b0390911690636e49181f90604401602060405180830381865afa158015610d75573d6000803e3d6000fd5b505050506040513d601f19601f82011682018060405250810190610d9991906153e5565b155b80610dac5750600554816020013514155b15610dca57604051633efca5c360e11b815260040160405180910390fd5b6024610dda6101c0830183615402565b90501080610e1e575063b3bcbb7960e01b610df96101c0830183615402565b610e0891602491602091615448565b610e1191615472565b6001600160e01b03191614155b15610e3c57604051632a84050f60e01b815260040160405180910390fd5b6000610e4c6101c0830183615402565b810190610e5991906154a2565b8051600a546005546040516321d1336160e11b815260048101919091529295509093506000925082916001600160a01b03909116906343a266c29060240161012060405180830381865afa158015610eb5573d6000803e3d6000fd5b505050506040513d601f19601f82011682018060405250810190610ed9919061555b565b805190915060041460005b84811015610ff757858181518110610efe57610efe6153a8565b60200260200101519350866000016020810190610f1b9190614777565b6000858152600260205260409020546001600160a01b03908116911614610f555760405163075fd2b160e01b815260040160405180910390fd5b610f5e84612aeb565b8115610fef576009546040516342f9914b60e01b8152600481018690526093916000916001600160a01b03909116906342f9914b90602401602060405180830381865afa158015610fb3573d6000803e3d6000fd5b505050506040513d601f19601f82011682018060405250810190610fd791906155db565b81526020810191909152604001600020805460010190555b600101610ee4565b5061100185612b6c565b801561102657856080016020013560926000828254611020919061560a565b90915550505b505050505050565b611036612a91565b600a546005546040516321d1336160e11b815260048101919091526000916001600160a01b0316906343a266c29060240161012060405180830381865afa158015611085573d6000803e3d6000fd5b505050506040513d601f19601f820116820180604052508101906110a9919061555b565b90506004816000015110156110d1576040516303e08a3560e61b815260040160405180910390fd5b6110dd601260006145f3565b60095460405163f1bea54f60e01b81523060048201526000916001600160a01b03169063f1bea54f90602401602060405180830381865afa158015611126573d6000803e3d6000fd5b505050506040513d601f19601f8201168201806040525081019061114a91906155db565b8351909150600090815b8181101561122b578386828151811061116f5761116f6153a8565b602002602001015160000151111561119a5760405163148e14dd60e21b815260040160405180910390fd5b8581815181106111ac576111ac6153a8565b602002602001015160200151601260018884815181106111ce576111ce6153a8565b6020026020010151600001516111e4919061561d565b608081106111f4576111f46153a8565b0155855186908290811061120a5761120a6153a8565b60200260200101516020015183611221919061560a565b9250600101611154565b50633b9aca0082111561125157604051636ff44e9760e01b815260040160405180910390fd5b5050505050565b611260612a91565b8060005b81811015610d13573684848381811061127f5761127f6153a8565b90506020028101906112919190615630565b90506112b06112a08280615650565b6106346040850160208601614777565b5050600101611264565b610be083838360405180602001604052806000815250611c37565b6009546040516308ed6c0160e41b81523060048201526024810183905260009182916001600160a01b0390911690638ed6c01090604401602060405180830381865afa158015611329573d6000803e3d6000fd5b505050506040513d601f19601f8201168201806040525081019061134d9190615699565b90506001600160a01b038116156113645792915050565b50506000908152600260205260409020546001600160a01b031690565b6000818152600260205260408120546001600160a01b031680610a9a5760405163b49aa3b560e01b815260040160405180910390fd5b60606113c1612a91565b60095460405163eaa19ab360e01b81526001600160a01b039091169063eaa19ab3906113fa9060001990889088906001906004016156b6565b6000604051808303816000875af1158015611419573d6000803e3d6000fd5b505050506040513d6000823e601f3d908101601f191682016040526114419190810190615779565b509050826000805b828110156114f357838181518110611463576114636153a8565b602002602001015191506114778583612bca565b846001600160a01b0316878783818110611493576114936153a8565b90506020020160208101906114a891906157bf565b604080516000815233602082015261ffff929092169185917f598baf7bf150ca2f42be9e9f8f55e81d45f5715c3ff22bf46d697fabec7f31d6910160405180910390a4600101611449565b5050509392505050565b600954604051633de222bb60e21b81523060048201526001600160a01b038381166024830152600092169063f7888aec90604401602060405180830381865afa15801561154e573d6000803e3d6000fd5b505050506040513d601f19601f82011682018060405250810190610a9a91906155db565b61157a612a91565b6115846000612c94565b565b6000818152601160205260408120610a9a90612ce6565b606060018054610aaf90615374565b6115b4614602565b604080516110008101918290529060129060809082845b8154815260200190600101908083116115cb575050505050905090565b6115f0612a91565b6009546040516331315e5960e11b81526001600160a01b0390911690636262bcb29061162290859085906004016157da565b600060405180830381600087803b15801561163c57600080fd5b505af1158015611650573d6000803e3d6000fd5b505050508181604051611664929190615809565b604051908190038120338252907f7bc9110d5de090dd59e07912d2b93a5a27ac70a60c8d8e324db4f9ee8b8b5c13906020015b60405180910390a25050565b6116ae338383612d42565b5050565b60006060806080840135156116da576040516309f82f1b60e31b815260040160405180910390fd5b60246116ea6101c0860186615402565b9050108061172e575063b3bcbb7960e01b6117096101c0860186615402565b61171891602491602091615448565b61172191615472565b6001600160e01b03191614155b1561174c57604051632a84050f60e01b815260040160405180910390fd5b600a54604080516321d1336160e11b81529086013560048201526000916001600160a01b0316906343a266c29060240161012060405180830381865afa15801561179a573d6000803e3d6000fd5b505050506040513d601f19601f820116820180604052508101906117be919061555b565b604080516001808252818301909252919250816020015b60408051808201909152600080825260208201528152602001906001900390816117d55790505091506040518060400160405280306001600160a01b03168152602001600081525082600081518110611830576118306153a8565b6020908102919091010152600061184b6101c0870187615402565b81019061185891906154a2565b92505050600182600001510361198757805160005b8181101561192c5760095483516001600160a01b039091169063b67cb0479030908690859081106118a0576118a06153a8565b60200260200101516040518363ffffffff1660e01b81526004016118d99291906001600160a01b03929092168252602082015260400190565b61016060405180830381865afa1580156118f7573d6000803e3d6000fd5b505050506040513d601f19601f8201168201806040525081019061191b9190615819565b60200151969096019560010161186d565b508561193c6101a0890189615402565b8682828080601f016020809104026020016040519081016040528093929190818152602001838380828437600092019190915250969c50919a50919850611a08975050505050505050565b6119b56092548760c0013561199c919061560a565b6119a68389612de1565b633b9aca00612f98565b612f98565b6119c36101a0880188615402565b8582828080601f016020809104026020016040519081016040528093929190818152602001838380828437600092019190915250969b50919950919750505050505050505b9193909250565b600a546005546040516321d1336160e11b815260048101919091526000916001600160a01b0316906343a266c29060240161012060405180830381865afa158015611a5e573d6000803e3d6000fd5b505050506040513d601f19601f82011682018060405250810190611a82919061555b565b61010081015190915060f51c600190811603611ab157604051631d2c125760e31b815260040160405180910390fd5b600954604051635d53f40760e11b815260048101859052602481018490526000916001600160a01b03169063baa7e80e906044016000604051808303816000875af1158015611b04573d6000803e3d6000fd5b505050506040513d6000823e601f3d908101601f19168201604052611b2c91908101906158bb565b6009546040516304db994760e21b8152306004820152602481018790529192506000916001600160a01b039091169063136e651c90604401602060405180830381865afa158015611b81573d6000803e3d6000fd5b505050506040513d601f19601f82011682018060405250810190611ba59190615699565b90506000805b85811015611c2357838181518110611bc557611bc56153a8565b60200260200101519150611bd98383612bca565b6040513381526001600160a01b03841690889084907f031e1988c95a91ec4d655ff63a8f87a80bc9daf28d95ae10ee08c0022cfb5c8b9060200160405180910390a4600101611bab565b50505050505050565b6116ae338383613065565b611c41338361293a565b611c5e5760405163e5fa0e3560e01b815260040160405180910390fd5b610d13848484846130e4565b6008546001600160a01b03163003611c8157600080fd5b6009546001600160a01b031615611c9757600080fd5b611ca38b8b8b8b613118565b600a80546001600160a01b03808a166001600160a01b031992831617909255600980548584169083161790556020850151600c556040850151600d556060850151600b8054919093169116179055855115611d57576040516331315e5960e11b81526001600160a01b03831690636262bcb290611d249089906004016146b9565b600060405180830381600087803b158015611d3e57600080fd5b505af1158015611d52573d6000803e3d6000fd5b505050505b835115611dbd5760405163d67b78fd60e01b81526001600160a01b0383169063d67b78fd90611d8a9087906004016146b9565b600060405180830381600087803b158015611da457600080fd5b505af1158015611db8573d6000803e3d6000fd5b505050505b6001600160a01b03851615611e285760405163036129cb60e61b81526001600160a01b03868116600483015283169063d84a72c090602401600060405180830381600087803b158015611e0f57600080fd5b505af1158015611e23573d6000803e3d6000fd5b505050505b82515115611ea657825160405163eadd8b3760e01b81526001600160a01b0384169163eadd8b3791611e5d91906004016158ef565b6000604051808303816000875af1158015611e7c573d6000803e3d6000fd5b505050506040513d6000823e601f3d908101601f19168201604052611ea491908101906158bb565b505b805180611eb4575080602001515b80611ec0575080604001515b15611f3a576040805163cdb0af6d60e01b815282511515600482015260208301511515602482015290820151151560448201526001600160a01b0383169063cdb0af6d90606401600060405180830381600087803b158015611f2157600080fd5b505af1158015611f35573d6000803e3d6000fd5b505050505b611f4333612c94565b5050505050505050505050565b8051604080518082019091526000808252602082015260005b82811015610d1357838181518110611f8357611f836153a8565b602090810291909101015180519092506001600160a01b0316611fb9576040516314f4c13d60e21b815260040160405180910390fd5b611fcc3383600001518460200151613065565b600101611f69565b6000818152600260205260409020546060906001600160a01b031661200757505060408051602081019091526000815290565b600954604051630fab094760e01b81523060048201526000916001600160a01b031690630fab094790602401602060405180830381865afa158015612050573d6000803e3d6000fd5b505050506040513d601f19601f820116820180604052508101906120749190615699565b90506001600160a01b038116156120f957604051636d02a25560e11b8152600481018490526001600160a01b0382169063da0544aa90602401600060405180830381865afa1580156120ca573d6000803e3d6000fd5b505050506040513d6000823e601f3d908101601f191682016040526120f291908101906159c8565b9392505050565b60095460405163f682eeaf60e01b81523060048201526120f2916001600160a01b03169063f682eeaf90602401600060405180830381865afa158015612143573d6000803e3d6000fd5b505050506040513d6000823e601f3d908101601f1916820160405261216b91908101906159c8565b600954604051630c8df17160e41b8152306004820152602481018790526001600160a01b039091169063c8df171090604401602060405180830381865afa1580156121ba573d6000803e3d6000fd5b505050506040513d601f19601f820116820180604052508101906121de91906155db565b61314b565b6001600160a01b038216600090815260106020908152604080832084845290915281206120f290612ce6565b612217612a91565b60095460405163d67b78fd60e01b81526001600160a01b039091169063d67b78fd9061224990859085906004016157da565b600060405180830381600087803b15801561226357600080fd5b505af1158015612277573d6000803e3d6000fd5b50505050818160405161228b929190615809565b604051908190038120338252907fd36dc0c1a06103fdcaf15f3f6fb797d1a97997514c78de073640c8b5005454b890602001611697565b60008281526011602052604081206120f290836131b2565b6001600160a01b0383166000908152601060209081526040808320858452909152812061230790836131b2565b949350505050565b610120810135606080612326610160850185615402565b8080601f01602080910402602001604051908101604052809392919081815260200183838082843760009201919091525092945060019250612366915050565b6040519080825280602002602001820160405280156123ab57816020015b60408051808201909152600080825260208201528152602001906001900390816123845790505b5090506040518060400160405280306001600160a01b031681526020016000815250816000815181106123e0576123e06153a8565b60200260200101819052509193909250565b600554341515806124735750600654604051636e49181f60e01b8152600481018390523360248201526001600160a01b0390911690636e49181f90604401602060405180830381865afa15801561244d573d6000803e3d6000fd5b505050506040513d601f19601f8201168201806040525081019061247191906153e5565b155b80612482575080826020013514155b156124a0576040516331c57b1b60e21b815260040160405180910390fd5b6116ae826132c1565b6124b1612a91565b6009546040516317161f7d60e01b81526001600160a01b038381166004830152909116906317161f7d90602401600060405180830381600087803b1580156124f857600080fd5b505af115801561250c573d6000803e3d6000fd5b50506040513381526001600160a01b03841692507fab0014d4c7a642a02a31b303a318908c22b0fb2001f107278fc6076b4c671b659150602001610cb5565b600954604051630155619b60e71b81523060048201526060916001600160a01b03169063aab0cd8090602401600060405180830381865afa158015612594573d6000803e3d6000fd5b505050506040513d6000823e601f3d908101601f191682016040526125bc91908101906159c8565b905090565b6125c9612a91565b6001600160a01b0381166126335760405162461bcd60e51b815260206004820152602660248201527f4f776e61626c653a206e6577206f776e657220697320746865207a65726f206160448201526564647265737360d01b60648201526084015b60405180910390fd5b61263c81612c94565b50565b612647612a91565b82818015612717576009546040516320512ba160e01b81526001600160a01b03909116906320512ba1906126819087908790600401615a35565b600060405180830381600087803b15801561269b57600080fd5b505af11580156126af573d6000803e3d6000fd5b5050505060005b81811015612715578484828181106126d0576126d06153a8565b60405133815260209182029390930135927f832d89d991be5351d793c20faf4b7dd44f8aa9ce39e3cb160c6317de6fbba72992500160405180910390a26001016126b6565b505b81156110265760095460405163eadd8b3760e01b81526000916001600160a01b03169063eadd8b3790612750908a908a90600401615b4b565b6000604051808303816000875af115801561276f573d6000803e3d6000fd5b505050506040513d6000823e601f3d908101601f1916820160405261279791908101906158bb565b905060005b83811015612817578181815181106127b6576127b66153a8565b60200260200101517f85b5b4c4e44e342c8dac3c3a5364494d455043decb9f4bb8e7e0a3020d22fed48989848181106127f1576127f16153a8565b9050610140020133604051612807929190615b8e565b60405180910390a260010161279c565b5050505050505050565b60006001600160e01b0319821663b3bcbb7960e01b148061285257506001600160e01b031982166371700c6960e01b145b8061286d57506001600160e01b0319821663da9ee8b760e01b145b8061288857506001600160e01b03198216632b13c58f60e01b145b80610a9a5750610a9a826135e2565b6000818152600260205260409020546001600160a01b031661263c5760405163b49aa3b560e01b815260040160405180910390fd5b600081815260036020526040902080546001600160a01b0319166001600160a01b038416908117909155819061290182611381565b6001600160a01b03167f8c5be1e5ebec7d5bd14f71427d1e84f3dd0314c0f7b2291e5b200ac8c7c3b92560405160405180910390a45050565b60008061294683611381565b9050806001600160a01b0316846001600160a01b0316148061298d57506001600160a01b0380821660009081526004602090815260408083209388168352929052205460ff165b806123075750836001600160a01b03166129a684610b32565b6001600160a01b031614949350505050565b826001600160a01b03166129cb82611381565b6001600160a01b0316146129f25760405163a195bc5360e01b815260040160405180910390fd5b6001600160a01b038216612a1957604051632c95542760e01b815260040160405180910390fd5b612a24838383613632565b612a2f6000826128cc565b60008181526002602052604080822080546001600160a01b0319166001600160a01b0386811691821790925591518493918716917fddf252ad1be2c89b69c2b068fc378daa952ba7f163c4a11628f55a4df523b3ef91a4610be083838361385f565b6007546001600160a01b031633146115845760405162461bcd60e51b815260206004820181905260248201527f4f776e61626c653a2063616c6c6572206973206e6f7420746865206f776e6572604482015260640161262a565b6000612af682611381565b9050612b0481600084613632565b612b0f6000836128cc565b60008281526002602052604080822080546001600160a01b0319169055518391906001600160a01b038416907fddf252ad1be2c89b69c2b068fc378daa952ba7f163c4a11628f55a4df523b3ef908390a46116ae8160008461385f565b6009546040516386bc2be360e01b81526001600160a01b03909116906386bc2be390612b9c908490600401614b1c565b600060405180830381600087803b158015612bb657600080fd5b505af1158015611251573d6000803e3d6000fd5b6001600160a01b038216612bf157604051633904578f60e11b815260040160405180910390fd5b6000818152600260205260409020546001600160a01b031615612c2757604051632eb5f0c360e21b815260040160405180910390fd5b612c3360008383613632565b60008181526002602052604080822080546001600160a01b0319166001600160a01b03861690811790915590518392907fddf252ad1be2c89b69c2b068fc378daa952ba7f163c4a11628f55a4df523b3ef908290a46116ae6000838361385f565b600780546001600160a01b038381166001600160a01b0319831681179093556040519116919082907f8be0079c531659141344cd1fd0a4f28419497f9722a3daafe3b4186f6b6457e090600090a35050565b80546000908015612d2f5782612cfd60018361561d565b81548110612d0d57612d0d6153a8565b60009182526020909120015464010000000090046001600160e01b0316612d32565b60005b6001600160e01b03169392505050565b816001600160a01b0316836001600160a01b031603612d74576040516306f8139d60e11b815260040160405180910390fd5b6001600160a01b03838116600081815260046020908152604080832094871680845294825291829020805460ff191686151590811790915591519182527f17307eab39ab6107e8899845ad3d59bd9653f200f220920489ca2b5937696c31910160405180910390a3505050565b8151600090815b81811015612f6f5760095485516000916001600160a01b0316906342f9914b90889085908110612e1a57612e1a6153a8565b60200260200101516040518263ffffffff1660e01b8152600401612e4091815260200190565b602060405180830381865afa158015612e5d573d6000803e3d6000fd5b505050506040513d601f19601f82011682018060405250810190612e8191906155db565b600954604051633a39e4d160e11b8152306004820152602481018390529192506000916001600160a01b0390911690637473c9a29060440161016060405180830381865afa158015612ed7573d6000803e3d6000fd5b505050506040513d601f19601f82011682018060405250810190612efb9190615819565b600083815260936020526040902054606082015160808301519293509091612f23919061561d565b612f2d919061560a565b6012612f3a60018561561d565b60808110612f4a57612f4a6153a8565b0154612f569190615bcc565b612f60908661560a565b94508260010192505050612de8565b5081600003612f9157604051637691472960e01b815260040160405180910390fd5b5092915050565b6000808060001985870985870292508281108382030391505080600003612fd257838281612fc857612fc8615bb6565b04925050506120f2565b838110612ffc57604051631dcf306360e21b8152600481018290526024810185905260440161262a565b60008486880960026001871981018816978890046003810283188082028403028082028403028082028403028082028403028082028403029081029092039091026000889003889004909101858311909403939093029303949094049190911702949350505050565b6001600160a01b038381166000818152600f6020908152604080832086845290915280822080548786166001600160a01b0319821681179092559151919094169392849290917f3134e8a2e6d97e929a7e54011ea5485d7d196dd5f0ba4d4ef95803e8e3fc257f9190a4610d138184846130df8887613958565b6139d4565b6130ef8484846129b8565b6130fb84848484613b29565b610d13576040516336f57c1b60e11b815260040160405180910390fd5b6131228282613c2b565b5050600591909155600680546001600160a01b0319166001600160a01b03909216919091179055565b604051609160f51b6020820152602281018290526060906000906042016040516020818303038152906040529050600061318482613c44565b90508481604051602001613199929190615be0565b6040516020818303038152906040529250505092915050565b60004382106132035760405162461bcd60e51b815260206004820181905260248201527f436865636b706f696e74733a20626c6f636b206e6f7420796574206d696e6564604482015260640161262a565b825460005b8181101561326857600061321c8284613dde565b905084866000018281548110613234576132346153a8565b60009182526020909120015463ffffffff16111561325457809250613262565b61325f81600161560a565b91505b50613208565b81156132ac578461327a60018461561d565b8154811061328a5761328a6153a8565b60009182526020909120015464010000000090046001600160e01b03166132af565b60005b6001600160e01b031695945050505050565b600c5460009060c0830135036132dc5750608081013561338d565b600b546001600160a01b0316156116ae57600d5461338a9060808401359061330590600a615cf3565b600b54600c54604051635268657960e11b815260c08801356004820152602481019190915260a087013560448201526001600160a01b039091169063a4d0caf290606401602060405180830381865afa158015613366573d6000803e3d6000fd5b505050506040513d601f19601f820116820180604052508101906119b091906155db565b90505b6000600e816133a46101a086016101808701614777565b6001600160a01b031681526020810191909152604001600090812054915082906133d66101a086016101808701614777565b6001600160a01b03166133ec6020870187614777565b6001600160a01b0316036134035790820190613406565b50815b60008060446134196101e0890189615402565b905011801561345d575063b3bcbb7960e01b6134396101e0890189615402565b61344891604491604091615448565b61345191615472565b6001600160e01b031916145b156134fd57600060606134746101e08a018a615402565b8101906134819190615cff565b9199509750909550935050831591506134d4905057858501600e60006134af6101a08d016101808e01614777565b6001600160a01b03168152602081019190915260400160002055505050505050505050565b8051156134fa576134f786826134f26101a08d016101808e01614777565b613df9565b95505b50505b83156135a15761351f846135196101a08a016101808b01614777565b84613f3b565b9350831561357e57801561354657604051631b57826960e21b815260040160405180910390fd5b838301600e600061355f6101a08b016101808c01614777565b6001600160a01b03168152602081019190915260400160002055611c23565b82851461359c5782600e600061355f6101a08b016101808c01614777565b611c23565b828514611c235782600e60006135bf6101a08b016101808c01614777565b6001600160a01b0316815260208101919091526040016000205550505050505050565b60006001600160e01b031982166380ac58cd60e01b148061361357506001600160e01b03198216635b5e139f60e01b145b80610a9a57506301ffc9a760e01b6001600160e01b0319831614610a9a565b6001600160a01b03831615610be05760095460405163b67cb04760e01b8152306004820152602481018390526000916001600160a01b03169063b67cb0479060440161016060405180830381865afa158015613692573d6000803e3d6000fd5b505050506040513d601f19601f820116820180604052508101906136b69190615819565b90508061014001511561377b57600a546005546040516321d1336160e11b815260048101919091526000916001600160a01b0316906343a266c29060240161012060405180830381865afa158015613712573d6000803e3d6000fd5b505050506040513d601f19601f82011682018060405250810190613736919061555b565b90506001600160a01b0384161580159061375b575061010081015160f41c6001908116145b15613779576040516318cdaf9760e01b815260040160405180910390fd5b505b6009546040516308ed6c0160e41b8152306004820152602481018490526000916001600160a01b031690638ed6c01090604401602060405180830381865afa1580156137cb573d6000803e3d6000fd5b505050506040513d601f19601f820116820180604052508101906137ef9190615699565b6001600160a01b031603610d1357600954604051638cec7d3960e01b8152600481018490526001600160a01b03868116602483015290911690638cec7d3990604401600060405180830381600087803b15801561384b57600080fd5b505af1158015612817573d6000803e3d6000fd5b60095460405163b67cb04760e01b8152306004820152602481018390526000916001600160a01b03169063b67cb0479060440161016060405180830381865afa1580156138b0573d6000803e3d6000fd5b505050506040513d601f19601f820116820180604052508101906138d49190615819565b60095481516040516330b157e560e21b815260048101919091526001600160a01b038781166024830152868116604483015292935091169063c2c55f9490606401600060405180830381600087803b15801561392f57600080fd5b505af1158015613943573d6000803e3d6000fd5b5050505061395384848484614045565b610d13565b6009546040516305c9a1d560e31b81523060048201526001600160a01b038481166024830152604482018490526000921690632e4d0ea890606401602060405180830381865afa1580156139b0573d6000803e3d6000fd5b505050506040513d601f19601f820116820180604052508101906120f291906155db565b826001600160a01b0316846001600160a01b031614806139f2575080155b610d13576001600160a01b03841615613a8d576001600160a01b038416600090815260106020908152604080832085845290915281208190613a37906140ec856140f8565b60408051838152602081018390523381830152905192945090925085916001600160a01b038916917fed0c1e94c302bdbbd8bbd6a4fb7c3ed335c2292407cd816eadd075d019d0ce04919081900360600190a350505b6001600160a01b03831615610d13576001600160a01b038316600090815260106020908152604080832085845290915281208190613ace90614126856140f8565b60408051838152602081018390523381830152905192945090925085916001600160a01b038816917fed0c1e94c302bdbbd8bbd6a4fb7c3ed335c2292407cd816eadd075d019d0ce04919081900360600190a3505050505050565b60006001600160a01b0384163b15613c2057604051630a85bd0160e11b81526001600160a01b0385169063150b7a0290613b6d903390899088908890600401615df6565b6020604051808303816000875af1925050508015613ba8575060408051601f3d908101601f19168201909252613ba591810190615e33565b60015b613c06573d808015613bd6576040519150601f19603f3d011682016040523d82523d6000602084013e613bdb565b606091505b508051600003613bfe576040516336f57c1b60e11b815260040160405180910390fd5b805181602001fd5b6001600160e01b031916630a85bd0160e11b149050612307565b506001949350505050565b6000613c378382615e96565b506001610be08282615e96565b60608151600003613c65576040805160008082526020820190925290612f91565b60408051602e8082526105e08201909252600091602082016105c080368337019050509050600081600081518110613c9f57613c9f6153a8565b60ff90921660209283029190910190910152825160019060005b81811015613dba576000868281518110613cd557613cd56153a8565b016020015160f81c905060005b8460ff16811015613d5f576008868281518110613d0157613d016153a8565b602002602001015160ff16901b82613d19919061560a565b9150613d26603a83615f55565b868281518110613d3857613d386153a8565b60ff90921660209283029190910190910152613d55603a83615bcc565b9150600101613ce2565b505b8015613db157613d72603a82615f55565b858560ff1681518110613d8757613d876153a8565b60ff90921660209283029190910190910152600190930192613daa603a82615bcc565b9050613d61565b50600101613cb9565b50613dd5613dd0613dcb8585614132565b6141d9565b61427b565b95945050505050565b6000613ded6002848418615bcc565b6120f29084841661560a565b60095460405163eaa19ab360e01b81526000916060916001600160a01b039091169063eaa19ab390613e3390889088908790600401615f69565b6000604051808303816000875af1158015613e52573d6000803e3d6000fd5b505050506040513d6000823e601f3d908101601f19168201604052613e7a9190810190615779565b81519093509091506000805b82811015613f3057838181518110613ea057613ea06153a8565b60200260200101519150613eb48683612bca565b856001600160a01b0316878281518110613ed057613ed06153a8565b602002602001015161ffff16837f598baf7bf150ca2f42be9e9f8f55e81d45f5715c3ff22bf46d697fabec7f31d68b33604051613f209291909182526001600160a01b0316602082015260400190565b60405180910390a4600101613e86565b505050509392505050565b60095460405163879791f360e01b815260048101859052600091829182916001600160a01b03169063879791f3906024016060604051808303816000875af1158015613f8b573d6000803e3d6000fd5b505050506040513d601f19601f82011682018060405250810190613faf9190615fc6565b945090925090506000829003613fe5578315613fde57604051630e5313df60e41b815260040160405180910390fd5b50506120f2565b613fef8583612bca565b6001600160a01b03851681837f598baf7bf150ca2f42be9e9f8f55e81d45f5715c3ff22bf46d697fabec7f31d6614026878b61561d565b604080519182523360208301520160405180910390a450509392505050565b60a081015115610d13576001600160a01b038381166000908152600f6020908152604080832085518452909152902054166140d8576001600160a01b0383166000818152600f602090815260408083208551845290915280822080546001600160a01b031916841790555182907f3134e8a2e6d97e929a7e54011ea5485d7d196dd5f0ba4d4ef95803e8e3fc257f908390a45b610d13848483600001518460a00151614354565b60006120f2828461561d565b60008061411a8561411561410b88612ce6565b868863ffffffff16565b6143f6565b91509150935093915050565b60006120f2828461560a565b606060008260ff166001600160401b0381111561415157614151614855565b60405190808252806020026020018201604052801561417a578160200160208202803683370190505b50905060005b8360ff168110156141d15784818151811061419d5761419d6153a8565b60200260200101518282815181106141b7576141b76153a8565b60ff90921660209283029190910190910152600101614180565b509392505050565b80516060906000816001600160401b038111156141f8576141f8614855565b604051908082528060200260200182016040528015614221578160200160208202803683370190505b50905060005b828110156141d157848160018751030381518110614247576142476153a8565b6020026020010151828281518110614261576142616153a8565b60ff90921660209283029190910190910152600101614227565b80516060906000816001600160401b0381111561429a5761429a614855565b6040519080825280601f01601f1916602001820160405280156142c4576020820181803683370190505b50905060005b828110156141d1576040518060600160405280603a8152602001615ff5603a91398582815181106142fd576142fd6153a8565b602002602001015160ff1681518110614318576143186153a8565b602001015160f81c60f81b828281518110614335576143356153a8565b60200101906001600160f81b031916908160001a9053506001016142ca565b6001600160a01b03841661438057600082815260116020526040902061437d90614126836140f8565b50505b6001600160a01b0383166143ac5760008281526011602052604090206143a9906140ec836140f8565b50505b6001600160a01b038085166000908152600f60208181526040808420878552825280842054888616855292825280842087855290915290912054610d1392918216911684846139d4565b815460009081908161440786612ce6565b90506000821180156144455750438661442160018561561d565b81548110614431576144316153a8565b60009182526020909120015463ffffffff16145b156144a55761445385614521565b8661445f60018561561d565b8154811061446f5761446f6153a8565b9060005260206000200160000160046101000a8154816001600160e01b0302191690836001600160e01b03160217905550614513565b8560000160405180604001604052806144bd4361458e565b63ffffffff1681526020016144d188614521565b6001600160e01b0390811690915282546001810184556000938452602093849020835194909301519091166401000000000263ffffffff909316929092179101555b9250839150505b9250929050565b60006001600160e01b0382111561458a5760405162461bcd60e51b815260206004820152602760248201527f53616665436173743a2076616c756520646f65736e27742066697420696e20326044820152663234206269747360c81b606482015260840161262a565b5090565b600063ffffffff82111561458a5760405162461bcd60e51b815260206004820152602660248201527f53616665436173743a2076616c756520646f65736e27742066697420696e203360448201526532206269747360d01b606482015260840161262a565b5061263c906080810190614621565b6040518061100001604052806080906020820280368337509192915050565b5b8082111561458a5760008155600101614622565b6001600160e01b03198116811461263c57600080fd5b60006020828403121561465e57600080fd5b81356120f281614636565b60005b8381101561468457818101518382015260200161466c565b50506000910152565b600081518084526146a5816020860160208601614669565b601f01601f19169290920160200192915050565b6020815260006120f2602083018461468d565b6000602082840312156146de57600080fd5b5035919050565b6001600160a01b038116811461263c57600080fd5b8035614705816146e5565b919050565b6000806040838503121561471d57600080fd5b8235614728816146e5565b946020939093013593505050565b60008060006060848603121561474b57600080fd5b8335614756816146e5565b92506020840135614766816146e5565b929592945050506040919091013590565b60006020828403121561478957600080fd5b81356120f2816146e5565b600080602083850312156147a757600080fd5b82356001600160401b03808211156147be57600080fd5b818501915085601f8301126147d257600080fd5b8135818111156147e157600080fd5b8660208260061b85010111156147f657600080fd5b60209290920196919550909350505050565b60006101e0828403121561481b57600080fd5b50919050565b60006020828403121561483357600080fd5b81356001600160401b0381111561484957600080fd5b61230784828501614808565b634e487b7160e01b600052604160045260246000fd5b604080519081016001600160401b038111828210171561488d5761488d614855565b60405290565b604051608081016001600160401b038111828210171561488d5761488d614855565b60405161014081016001600160401b038111828210171561488d5761488d614855565b60405161012081016001600160401b038111828210171561488d5761488d614855565b60405161016081016001600160401b038111828210171561488d5761488d614855565b604051601f8201601f191681016001600160401b038111828210171561494657614946614855565b604052919050565b60006001600160401b0382111561496757614967614855565b5060051b60200190565b60006040828403121561498357600080fd5b61498b61486b565b9050813581526020820135602082015292915050565b600060208083850312156149b457600080fd5b82356001600160401b038111156149ca57600080fd5b8301601f810185136149db57600080fd5b80356149ee6149e98261494e565b61491e565b81815260069190911b82018301908381019087831115614a0d57600080fd5b928401925b82841015614a3657614a248885614971565b82528482019150604084019350614a12565b979650505050505050565b60008083601f840112614a5357600080fd5b5081356001600160401b03811115614a6a57600080fd5b6020830191508360208260051b850101111561451a57600080fd5b60008060208385031215614a9857600080fd5b82356001600160401b03811115614aae57600080fd5b614aba85828601614a41565b90969095509350505050565b600080600060408486031215614adb57600080fd5b83356001600160401b03811115614af157600080fd5b614afd86828701614a41565b9094509250506020840135614b11816146e5565b809150509250925092565b6020808252825182820181905260009190848201906040850190845b81811015614b5457835183529284019291840191600101614b38565b50909695505050505050565b6110008101818360005b6080811015614b89578151835260209283019290910190600101614b6a565b50505092915050565b60008060208385031215614ba557600080fd5b82356001600160401b0380821115614bbc57600080fd5b818501915085601f830112614bd057600080fd5b813581811115614bdf57600080fd5b8660208285010111156147f657600080fd5b801515811461263c57600080fd5b803561470581614bf1565b60008060408385031215614c1d57600080fd5b8235614c28816146e5565b91506020830135614c3881614bf1565b809150509250929050565b83815260006020606081840152614c5d606084018661468d565b83810360408581019190915285518083528387019284019060005b81811015614ca657845180516001600160a01b03168452860151868401529385019391830191600101614c78565b50909998505050505050505050565b60008060408385031215614cc857600080fd5b50508035926020909101359150565b60006001600160401b03821115614cf057614cf0614855565b50601f01601f191660200190565b6000614d0c6149e984614cd7565b9050828152838383011115614d2057600080fd5b828260208301376000602084830101529392505050565b60008060008060808587031215614d4d57600080fd5b8435614d58816146e5565b93506020850135614d68816146e5565b92506040850135915060608501356001600160401b03811115614d8a57600080fd5b8501601f81018713614d9b57600080fd5b614daa87823560208401614cfe565b91505092959194509250565b600082601f830112614dc757600080fd5b6120f283833560208501614cfe565b803569ffffffffffffffffffff8116811461470557600080fd5b803565ffffffffffff8116811461470557600080fd5b803564ffffffffff8116811461470557600080fd5b803561ffff8116811461470557600080fd5b60006080808385031215614e4057600080fd5b614e48614893565b915082356001600160401b03811115614e6057600080fd5b8301601f81018513614e7157600080fd5b80356020614e816149e98361494e565b8281526101409283028401820192828201919089851115614ea157600080fd5b948301945b84861015614f705780868b031215614ebe5760008081fd5b614ec66148b5565b614ecf87614dd6565b8152614edc858801614df0565b858201526040614eed818901614e06565b908201526060614efe888201614e1b565b90820152614f0d878901614e1b565b8882015260a0614f1e8189016146fa565b9082015260c0878101359082015260e0614f39818901614bff565b90820152610100614f4b888201614bff565b90820152610120614f5d888201614bff565b9082015283529485019491830191614ea6565b50865250858101359085015250505060408083013590820152614f95606083016146fa565b606082015292915050565b600060608284031215614fb257600080fd5b604051606081018181106001600160401b0382111715614fd457614fd4614855565b6040529050808235614fe581614bf1565b81526020830135614ff581614bf1565b6020820152604083013561500881614bf1565b6040919091015292915050565b60008060008060008060008060008060006101a08c8e03121561503757600080fd5b8b359a5061504760208d016146fa565b99506001600160401b038060408e0135111561506257600080fd5b6150728e60408f01358f01614db6565b99508060608e0135111561508557600080fd5b6150958e60608f01358f01614db6565b98506150a360808e016146fa565b97508060a08e013511156150b657600080fd5b6150c68e60a08f01358f01614db6565b96506150d460c08e016146fa565b95508060e08e013511156150e757600080fd5b6150f78e60e08f01358f01614db6565b9450806101008e0135111561510b57600080fd5b5061511d8d6101008e01358e01614e2d565b925061512c6101208d016146fa565b915061513c8d6101408e01614fa0565b90509295989b509295989b9093969950565b6000602080838503121561516157600080fd5b82356001600160401b0381111561517757600080fd5b8301601f8101851361518857600080fd5b80356151966149e98261494e565b81815260069190911b820183019083810190878311156151b557600080fd5b928401925b82841015614a3657604084890312156151d35760008081fd5b6151db61486b565b84356151e6816146e5565b815284860135868201528252604090930192908401906151ba565b60008060006060848603121561521657600080fd5b8335615221816146e5565b95602085013595506040909401359392505050565b60006020828403121561524857600080fd5b81356001600160401b0381111561525e57600080fd5b82016101a081850312156120f257600080fd5b60006020828403121561528357600080fd5b81356001600160401b0381111561529957600080fd5b820161020081850312156120f257600080fd5b600080604083850312156152bf57600080fd5b82356152ca816146e5565b91506020830135614c38816146e5565b600080600080604085870312156152f057600080fd5b84356001600160401b038082111561530757600080fd5b818701915087601f83011261531b57600080fd5b81358181111561532a57600080fd5b8860206101408302850101111561534057600080fd5b60209283019650945090860135908082111561535b57600080fd5b5061536887828801614a41565b95989497509550505050565b600181811c9082168061538857607f821691505b60208210810361481b57634e487b7160e01b600052602260045260246000fd5b634e487b7160e01b600052603260045260246000fd5b6000604082840312156153d057600080fd5b6120f28383614971565b805161470581614bf1565b6000602082840312156153f757600080fd5b81516120f281614bf1565b6000808335601e1984360301811261541957600080fd5b8301803591506001600160401b0382111561543357600080fd5b60200191503681900382131561451a57600080fd5b6000808585111561545857600080fd5b8386111561546557600080fd5b5050820193919092039150565b6001600160e01b0319813581811691600485101561549a5780818660040360031b1b83161692505b505092915050565b6000806000606084860312156154b757600080fd5b833592506020808501356154ca81614636565b925060408501356001600160401b038111156154e557600080fd5b8501601f810187136154f657600080fd5b80356155046149e98261494e565b81815260059190911b8201830190838101908983111561552357600080fd5b928401925b8284101561554157833582529284019290840190615528565b80955050505050509250925092565b8051614705816146e5565b6000610120828403121561556e57600080fd5b6155766148d8565b825181526020830151602082015260408301516040820152606083015160608201526080830151608082015260a083015160a082015260c083015160c08201526155c260e08401615550565b60e0820152610100928301519281019290925250919050565b6000602082840312156155ed57600080fd5b5051919050565b634e487b7160e01b600052601160045260246000fd5b80820180821115610a9a57610a9a6155f4565b81810381811115610a9a57610a9a6155f4565b60008235603e1983360301811261564657600080fd5b9190910192915050565b6000808335601e1984360301811261566757600080fd5b8301803591506001600160401b0382111561568157600080fd5b6020019150600581901b360382131561451a57600080fd5b6000602082840312156156ab57600080fd5b81516120f2816146e5565b84815260606020808301829052908201849052600090859060808401835b878110156156fb5761ffff6156e885614e1b565b16825292820192908201906001016156d4565b50809350505050821515604083015295945050505050565b600082601f83011261572457600080fd5b815160206157346149e98361494e565b82815260059290921b8401810191818101908684111561575357600080fd5b8286015b8481101561576e5780518352918301918301615757565b509695505050505050565b6000806040838503121561578c57600080fd5b82516001600160401b038111156157a257600080fd5b6157ae85828601615713565b925050602083015190509250929050565b6000602082840312156157d157600080fd5b6120f282614e1b565b60208152816020820152818360408301376000818301604090810191909152601f909201601f19160101919050565b8183823760009101908152919050565b6000610160828403121561582c57600080fd5b6158346148fb565b825181526020830151602082015260408301516040820152606083015160608201526080830151608082015260a083015160a082015260c083015160c082015261588060e08401615550565b60e0820152610100838101519082015261012061589e8185016153da565b908201526101406158b08482016153da565b908201529392505050565b6000602082840312156158cd57600080fd5b81516001600160401b038111156158e357600080fd5b61230784828501615713565b602080825282518282018190526000919060409081850190868401855b828110156159bb578151805169ffffffffffffffffffff1685528681015165ffffffffffff16878601528581015164ffffffffff168686015260608082015161ffff908116918701919091526080808301519091169086015260a0808201516001600160a01b03169086015260c0808201519086015260e0808201511515908601526101008082015115159086015261012090810151151590850152610140909301929085019060010161590c565b5091979650505050505050565b6000602082840312156159da57600080fd5b81516001600160401b038111156159f057600080fd5b8201601f81018413615a0157600080fd5b8051615a0f6149e982614cd7565b818152856020838501011115615a2457600080fd5b613dd5826020830160208601614669565b6020808252810182905260006001600160fb1b03831115615a5557600080fd5b8260051b80856040850137919091016040019392505050565b615a8b82615a7b83614dd6565b69ffffffffffffffffffff169052565b615a9760208201614df0565b65ffffffffffff166020830152615ab060408201614e06565b64ffffffffff166040830152615ac860608201614e1b565b61ffff166060830152615add60808201614e1b565b61ffff166080830152615af260a082016146fa565b6001600160a01b031660a083015260c08181013590830152615b1660e08201614bff565b151560e0830152610100615b2b828201614bff565b151590830152610120615b3f828201614bff565b80151584830152610d13565b6020808252810182905260008360408301825b85811015615b8457615b708284615a6e565b610140928301929190910190600101615b5e565b5095945050505050565b6101608101615b9d8285615a6e565b6001600160a01b03929092166101409190910152919050565b634e487b7160e01b600052601260045260246000fd5b600082615bdb57615bdb615bb6565b500490565b60008351615bf2818460208801614669565b835190830190615c06818360208801614669565b01949350505050565b600181815b80851115615c4a578160001904821115615c3057615c306155f4565b80851615615c3d57918102915b93841c9390800290615c14565b509250929050565b600082615c6157506001610a9a565b81615c6e57506000610a9a565b8160018114615c845760028114615c8e57615caa565b6001915050610a9a565b60ff841115615c9f57615c9f6155f4565b50506001821b610a9a565b5060208310610133831016604e8410600b8410161715615ccd575081810a610a9a565b615cd78383615c0f565b8060001904821115615ceb57615ceb6155f4565b029392505050565b60006120f28383615c52565b600080600080600080600060e0888a031215615d1a57600080fd5b8735965060208089013596506040890135615d3481614636565b95506060890135615d4481614bf1565b94506080890135615d5481614bf1565b935060a0890135615d6481614bf1565b925060c08901356001600160401b03811115615d7f57600080fd5b8901601f81018b13615d9057600080fd5b8035615d9e6149e98261494e565b81815260059190911b8201830190838101908d831115615dbd57600080fd5b928401925b82841015615de257615dd384614e1b565b82529284019290840190615dc2565b809550505050505092959891949750929550565b6001600160a01b0385811682528416602082015260408101839052608060608201819052600090615e299083018461468d565b9695505050505050565b600060208284031215615e4557600080fd5b81516120f281614636565b601f821115610be057600081815260208120601f850160051c81016020861015615e775750805b601f850160051c820191505b8181101561102657828155600101615e83565b81516001600160401b03811115615eaf57615eaf614855565b615ec381615ebd8454615374565b84615e50565b602080601f831160018114615ef85760008415615ee05750858301515b600019600386901b1c1916600185901b178555611026565b600085815260208120601f198616915b82811015615f2757888601518255948401946001909101908401615f08565b5085821015615f455787850151600019600388901b60f8161c191681555b5050505050600190811b01905550565b600082615f6457615f64615bb6565b500690565b6000606082018583526020606081850152818651808452608086019150828801935060005b81811015615fae57845161ffff1683529383019391830191600101615f8e565b50508093505050508215156040830152949350505050565b600080600060608486031215615fdb57600080fd5b835192506020840151915060408401519050925092509256fe31323334353637383941424344454647484a4b4c4d4e505152535455565758595a6162636465666768696a6b6d6e6f707172737475767778797aa2646970667358221220a4ea3c5347b9a65ecc734b6508c524ef44ffa5f684b80499ee9d9fd2bcabb11b64736f6c63430008100033",
    "linkReferences": {}
  },
  "methodIdentifiers": {
    "END_GAME_PHASE()": "06bc0c90",
    "MINT_GAME_PHASE()": "bd50adf0",
    "TOTAL_REDEMPTION_WEIGHT()": "640abacd",
    "adjustTiers((uint80,uint48,uint40,uint16,uint16,address,bytes32,bool,bool,bool)[],uint256[])": "f5a38e63",
    "amountRedeemed()": "27f6e979",
    "approve(address,uint256)": "095ea7b3",
    "balanceOf(address)": "70a08231",
    "codeOrigin()": "1d153ca4",
    "contractURI()": "e8a3d485",
    "creditsOf(address)": "245a45b5",
    "didPay((address,uint256,uint256,(address,uint256,uint256,uint256),(address,uint256,uint256,uint256),uint256,address,bool,string,bytes))": "da9ee8b7",
    "didRedeem((address,uint256,uint256,uint256,(address,uint256,uint256,uint256),(address,uint256,uint256,uint256),address,string,bytes))": "2b13c58f",
    "directory()": "c41c2f24",
    "firstOwnerOf(uint256)": "54c6d1f5",
    "fundingCycleStore()": "557e7155",
    "getApproved(uint256)": "081812fc",
    "getPastTierTotalVotes(uint256,uint256)": "d31cc52c",
    "getPastTierVotes(address,uint256,uint256)": "d40e7146",
    "getTierDelegate(address,uint256)": "82732b6d",
    "getTierTotalVotes(uint256)": "94c5c5ca",
    "getTierVotes(address,uint256)": "ca323efe",
    "initialize(uint256,address,string,string,address,string,address,string,((uint80,uint48,uint40,uint16,uint16,address,bytes32,bool,bool,bool)[],uint256,uint256,address),address,(bool,bool,bool))": "bb52b6e4",
    "isApprovedForAll(address,address)": "e985e9c5",
    "mintFor((uint16[],address)[])": "36c1a93b",
    "mintFor(uint16[],address)": "6ac6d941",
    "mintReservesFor((uint256,uint256)[])": "2a596e53",
    "mintReservesFor(uint256,uint256)": "aa4fb15b",
    "name()": "06fdde03",
    "owner()": "8da5cb5b",
    "ownerOf(uint256)": "6352211e",
    "payParams((address,address,(address,uint256,uint256,uint256),uint256,uint256,address,uint256,uint256,string,bytes))": "d46cf171",
    "prices()": "d3419bf3",
    "pricingCurrency()": "64640c1e",
    "pricingDecimals()": "4ecba625",
    "projectId()": "3fafa127",
    "redeemParams((address,address,uint256,uint256,uint256,uint256,uint256,(address,uint256,uint256,uint256),bool,uint256,string,bytes))": "a51cfd18",
    "redeemedFromTier(uint256)": "943abfee",
    "renounceOwnership()": "715018a6",
    "safeTransferFrom(address,address,uint256)": "42842e0e",
    "safeTransferFrom(address,address,uint256,bytes)": "b88d4fde",
    "setApprovalForAll(address,bool)": "a22cb465",
    "setBaseUri(string)": "a0bcfc7f",
    "setContractUri(string)": "ccb4807b",
    "setDefaultReservedTokenBeneficiary(address)": "df487e26",
    "setTierDelegate(address,uint256)": "ab951e39",
    "setTierDelegates((address,uint256)[])": "c74b13d9",
    "setTierRedemptionWeights((uint256,uint256)[])": "2f441500",
    "setTokenUriResolver(address)": "2407497e",
    "store()": "975057e7",
    "supportsInterface(bytes4)": "01ffc9a7",
    "symbol()": "95d89b41",
    "tierRedemptionWeights()": "9df45468",
    "tokenURI(uint256)": "c87b56dd",
    "transferFrom(address,address,uint256)": "23b872dd",
    "transferOwnership(address)": "f2fde38b"
  },
  "id": 0
}