{
  "abi": [
    {
      "inputs": [],
      "name": "ALEADY_MINTED",
      "type": "error"
    },
    {
      "inputs": [],
      "name": "APPROVAL_TO_CURRENT_OWNER",
      "type": "error"
    },
    {
      "inputs": [],
      "name": "APPROVE_TO_CALLER",
      "type": "error"
    },
    {
      "inputs": [],
      "name": "BLOCK_NOT_YET_MINED",
      "type": "error"
    },
    {
      "inputs": [],
      "name": "CALLER_NOT_OWNER_OR_APPROVED",
      "type": "error"
    },
    {
      "inputs": [],
      "name": "DELEGATE_ADDRESS_ZERO",
      "type": "error"
    },
    {
      "inputs": [],
      "name": "GAME_ISNT_OVER_YET",
      "type": "error"
    },
    {
      "inputs": [],
      "name": "INCORRECT_OWNER",
      "type": "error"
    },
    {
      "inputs": [],
      "name": "INVALID_PAYMENT_EVENT",
      "type": "error"
    },
    {
      "inputs": [],
      "name": "INVALID_REDEMPTION_EVENT",
      "type": "error"
    },
    {
      "inputs": [],
      "name": "INVALID_REDEMPTION_METADATA",
      "type": "error"
    },
    {
      "inputs": [],
      "name": "INVALID_REDEMPTION_WEIGHTS",
      "type": "error"
    },
    {
      "inputs": [],
      "name": "INVALID_TIER_ID",
      "type": "error"
    },
    {
      "inputs": [],
      "name": "INVALID_TOKEN_ID",
      "type": "error"
    },
    {
      "inputs": [],
      "name": "MINT_TO_ZERO",
      "type": "error"
    },
    {
      "inputs": [],
      "name": "NOTHING_TO_CLAIM",
      "type": "error"
    },
    {
      "inputs": [],
      "name": "NOT_AVAILABLE",
      "type": "error"
    },
    {
      "inputs": [],
      "name": "OVERSPENDING",
      "type": "error"
    },
    {
      "inputs": [
        {
          "internalType": "uint256",
          "name": "prod1",
          "type": "uint256"
        },
        {
          "internalType": "uint256",
          "name": "denominator",
          "type": "uint256"
        }
      ],
      "name": "PRBMath__MulDivOverflow",
      "type": "error"
    },
    {
      "inputs": [],
      "name": "PRICING_RESOLVER_CHANGES_PAUSED",
      "type": "error"
    },
    {
      "inputs": [],
      "name": "RESERVED_TOKEN_MINTING_PAUSED",
      "type": "error"
    },
    {
      "inputs": [],
      "name": "TRANSFERS_PAUSED",
      "type": "error"
    },
    {
      "inputs": [],
      "name": "TRANSFER_TO_NON_IMPLEMENTER",
      "type": "error"
    },
    {
      "inputs": [],
      "name": "TRANSFER_TO_ZERO_ADDRESS",
      "type": "error"
    },
    {
      "inputs": [],
      "name": "UNAUTHORIZED",
      "type": "error"
    },
    {
      "inputs": [],
      "name": "UNEXPECTED_TOKEN_REDEEMED",
      "type": "error"
    },
    {
      "anonymous": false,
      "inputs": [
        {
          "indexed": true,
          "internalType": "uint256",
          "name": "tierId",
          "type": "uint256"
        },
        {
          "components": [
            {
              "internalType": "uint80",
              "name": "contributionFloor",
              "type": "uint80"
            },
            {
              "internalType": "uint48",
              "name": "lockedUntil",
              "type": "uint48"
            },
            {
              "internalType": "uint40",
              "name": "initialQuantity",
              "type": "uint40"
            },
            {
              "internalType": "uint16",
              "name": "votingUnits",
              "type": "uint16"
            },
            {
              "internalType": "uint16",
              "name": "reservedRate",
              "type": "uint16"
            },
            {
              "internalType": "address",
              "name": "reservedTokenBeneficiary",
              "type": "address"
            },
            {
              "internalType": "bytes32",
              "name": "encodedIPFSUri",
              "type": "bytes32"
            },
            {
              "internalType": "bool",
              "name": "allowManualMint",
              "type": "bool"
            },
            {
              "internalType": "bool",
              "name": "shouldUseBeneficiaryAsDefault",
              "type": "bool"
            },
            {
              "internalType": "bool",
              "name": "transfersPausable",
              "type": "bool"
            }
          ],
          "indexed": false,
          "internalType": "struct JB721TierParams",
          "name": "data",
          "type": "tuple"
        },
        {
          "indexed": false,
          "internalType": "address",
          "name": "caller",
          "type": "address"
        }
      ],
      "name": "AddTier",
      "type": "event"
    },
    {
      "anonymous": false,
      "inputs": [
        {
          "indexed": true,
          "internalType": "address",
          "name": "owner",
          "type": "address"
        },
        {
          "indexed": true,
          "internalType": "address",
          "name": "approved",
          "type": "address"
        },
        {
          "indexed": true,
          "internalType": "uint256",
          "name": "tokenId",
          "type": "uint256"
        }
      ],
      "name": "Approval",
      "type": "event"
    },
    {
      "anonymous": false,
      "inputs": [
        {
          "indexed": true,
          "internalType": "address",
          "name": "owner",
          "type": "address"
        },
        {
          "indexed": true,
          "internalType": "address",
          "name": "operator",
          "type": "address"
        },
        {
          "indexed": false,
          "internalType": "bool",
          "name": "approved",
          "type": "bool"
        }
      ],
      "name": "ApprovalForAll",
      "type": "event"
    },
    {
      "anonymous": false,
      "inputs": [
        {
          "indexed": true,
          "internalType": "address",
          "name": "delegator",
          "type": "address"
        },
        {
          "indexed": true,
          "internalType": "address",
          "name": "fromDelegate",
          "type": "address"
        },
        {
          "indexed": true,
          "internalType": "address",
          "name": "toDelegate",
          "type": "address"
        }
      ],
      "name": "DelegateChanged",
      "type": "event"
    },
    {
      "anonymous": false,
      "inputs": [
        {
          "indexed": true,
          "internalType": "uint256",
          "name": "tokenId",
          "type": "uint256"
        },
        {
          "indexed": true,
          "internalType": "uint256",
          "name": "tierId",
          "type": "uint256"
        },
        {
          "indexed": true,
          "internalType": "address",
          "name": "beneficiary",
          "type": "address"
        },
        {
          "indexed": false,
          "internalType": "uint256",
          "name": "totalAmountContributed",
          "type": "uint256"
        },
        {
          "indexed": false,
          "internalType": "address",
          "name": "caller",
          "type": "address"
        }
      ],
      "name": "Mint",
      "type": "event"
    },
    {
      "anonymous": false,
      "inputs": [
        {
          "indexed": true,
          "internalType": "uint256",
          "name": "tokenId",
          "type": "uint256"
        },
        {
          "indexed": true,
          "internalType": "uint256",
          "name": "tierId",
          "type": "uint256"
        },
        {
          "indexed": true,
          "internalType": "address",
          "name": "beneficiary",
          "type": "address"
        },
        {
          "indexed": false,
          "internalType": "address",
          "name": "caller",
          "type": "address"
        }
      ],
      "name": "MintReservedToken",
      "type": "event"
    },
    {
      "anonymous": false,
      "inputs": [
        {
          "indexed": true,
          "internalType": "address",
          "name": "previousOwner",
          "type": "address"
        },
        {
          "indexed": true,
          "internalType": "address",
          "name": "newOwner",
          "type": "address"
        }
      ],
      "name": "OwnershipTransferred",
      "type": "event"
    },
    {
      "anonymous": false,
      "inputs": [
        {
          "indexed": true,
          "internalType": "uint256",
          "name": "tierId",
          "type": "uint256"
        },
        {
          "indexed": false,
          "internalType": "address",
          "name": "caller",
          "type": "address"
        }
      ],
      "name": "RemoveTier",
      "type": "event"
    },
    {
      "anonymous": false,
      "inputs": [
        {
          "indexed": true,
          "internalType": "string",
          "name": "baseUri",
          "type": "string"
        },
        {
          "indexed": false,
          "internalType": "address",
          "name": "caller",
          "type": "address"
        }
      ],
      "name": "SetBaseUri",
      "type": "event"
    },
    {
      "anonymous": false,
      "inputs": [
        {
          "indexed": true,
          "internalType": "string",
          "name": "contractUri",
          "type": "string"
        },
        {
          "indexed": false,
          "internalType": "address",
          "name": "caller",
          "type": "address"
        }
      ],
      "name": "SetContractUri",
      "type": "event"
    },
    {
      "anonymous": false,
      "inputs": [
        {
          "indexed": true,
          "internalType": "address",
          "name": "beneficiary",
          "type": "address"
        },
        {
          "indexed": false,
          "internalType": "address",
          "name": "caller",
          "type": "address"
        }
      ],
      "name": "SetDefaultReservedTokenBeneficiary",
      "type": "event"
    },
    {
      "anonymous": false,
      "inputs": [
        {
          "indexed": true,
          "internalType": "contract IJBTokenUriResolver",
          "name": "newResolver",
          "type": "address"
        },
        {
          "indexed": false,
          "internalType": "address",
          "name": "caller",
          "type": "address"
        }
      ],
      "name": "SetTokenUriResolver",
      "type": "event"
    },
    {
      "anonymous": false,
      "inputs": [
        {
          "indexed": true,
          "internalType": "address",
          "name": "delegator",
          "type": "address"
        },
        {
          "indexed": true,
          "internalType": "address",
          "name": "fromDelegate",
          "type": "address"
        },
        {
          "indexed": true,
          "internalType": "address",
          "name": "toDelegate",
          "type": "address"
        },
        {
          "indexed": false,
          "internalType": "uint256",
          "name": "tierId",
          "type": "uint256"
        },
        {
          "indexed": false,
          "internalType": "address",
          "name": "caller",
          "type": "address"
        }
      ],
      "name": "TierDelegateChanged",
      "type": "event"
    },
    {
      "anonymous": false,
      "inputs": [
        {
          "indexed": true,
          "internalType": "address",
          "name": "delegate",
          "type": "address"
        },
        {
          "indexed": true,
          "internalType": "uint256",
          "name": "tierId",
          "type": "uint256"
        },
        {
          "indexed": false,
          "internalType": "uint256",
          "name": "previousBalance",
          "type": "uint256"
        },
        {
          "indexed": false,
          "internalType": "uint256",
          "name": "newBalance",
          "type": "uint256"
        },
        {
          "indexed": false,
          "internalType": "address",
          "name": "callre",
          "type": "address"
        }
      ],
      "name": "TierDelegateVotesChanged",
      "type": "event"
    },
    {
      "anonymous": false,
      "inputs": [
        {
          "indexed": true,
          "internalType": "address",
          "name": "from",
          "type": "address"
        },
        {
          "indexed": true,
          "internalType": "address",
          "name": "to",
          "type": "address"
        },
        {
          "indexed": true,
          "internalType": "uint256",
          "name": "tokenId",
          "type": "uint256"
        }
      ],
      "name": "Transfer",
      "type": "event"
    },
    {
      "inputs": [],
      "name": "END_GAME_PHASE",
      "outputs": [
        {
          "internalType": "uint256",
          "name": "",
          "type": "uint256"
        }
      ],
      "stateMutability": "view",
      "type": "function"
    },
    {
      "inputs": [],
      "name": "MINT_GAME_PHASE",
      "outputs": [
        {
          "internalType": "uint256",
          "name": "",
          "type": "uint256"
        }
      ],
      "stateMutability": "view",
      "type": "function"
    },
    {
      "inputs": [],
      "name": "TOTAL_REDEMPTION_WEIGHT",
      "outputs": [
        {
          "internalType": "uint256",
          "name": "",
          "type": "uint256"
        }
      ],
      "stateMutability": "view",
      "type": "function"
    },
    {
      "inputs": [
        {
          "components": [
            {
              "internalType": "uint80",
              "name": "contributionFloor",
              "type": "uint80"
            },
            {
              "internalType": "uint48",
              "name": "lockedUntil",
              "type": "uint48"
            },
            {
              "internalType": "uint40",
              "name": "initialQuantity",
              "type": "uint40"
            },
            {
              "internalType": "uint16",
              "name": "votingUnits",
              "type": "uint16"
            },
            {
              "internalType": "uint16",
              "name": "reservedRate",
              "type": "uint16"
            },
            {
              "internalType": "address",
              "name": "reservedTokenBeneficiary",
              "type": "address"
            },
            {
              "internalType": "bytes32",
              "name": "encodedIPFSUri",
              "type": "bytes32"
            },
            {
              "internalType": "bool",
              "name": "allowManualMint",
              "type": "bool"
            },
            {
              "internalType": "bool",
              "name": "shouldUseBeneficiaryAsDefault",
              "type": "bool"
            },
            {
              "internalType": "bool",
              "name": "transfersPausable",
              "type": "bool"
            }
          ],
          "internalType": "struct JB721TierParams[]",
          "name": "_tiersToAdd",
          "type": "tuple[]"
        },
        {
          "internalType": "uint256[]",
          "name": "_tierIdsToRemove",
          "type": "uint256[]"
        }
      ],
      "name": "adjustTiers",
      "outputs": [],
      "stateMutability": "nonpayable",
      "type": "function"
    },
    {
      "inputs": [],
      "name": "amountRedeemed",
      "outputs": [
        {
          "internalType": "uint256",
          "name": "",
          "type": "uint256"
        }
      ],
      "stateMutability": "view",
      "type": "function"
    },
    {
      "inputs": [
        {
          "internalType": "address",
          "name": "to",
          "type": "address"
        },
        {
          "internalType": "uint256",
          "name": "tokenId",
          "type": "uint256"
        }
      ],
      "name": "approve",
      "outputs": [],
      "stateMutability": "nonpayable",
      "type": "function"
    },
    {
      "inputs": [
        {
          "internalType": "address",
          "name": "_owner",
          "type": "address"
        }
      ],
      "name": "balanceOf",
      "outputs": [
        {
          "internalType": "uint256",
          "name": "balance",
          "type": "uint256"
        }
      ],
      "stateMutability": "view",
      "type": "function"
    },
    {
      "inputs": [],
      "name": "codeOrigin",
      "outputs": [
        {
          "internalType": "address",
          "name": "",
          "type": "address"
        }
      ],
      "stateMutability": "view",
      "type": "function"
    },
    {
      "inputs": [],
      "name": "contractURI",
      "outputs": [
        {
          "internalType": "string",
          "name": "",
          "type": "string"
        }
      ],
      "stateMutability": "view",
      "type": "function"
    },
    {
      "inputs": [
        {
          "internalType": "address",
          "name": "",
          "type": "address"
        }
      ],
      "name": "creditsOf",
      "outputs": [
        {
          "internalType": "uint256",
          "name": "",
          "type": "uint256"
        }
      ],
      "stateMutability": "view",
      "type": "function"
    },
    {
      "inputs": [
        {
          "components": [
            {
              "internalType": "address",
              "name": "payer",
              "type": "address"
            },
            {
              "internalType": "uint256",
              "name": "projectId",
              "type": "uint256"
            },
            {
              "internalType": "uint256",
              "name": "currentFundingCycleConfiguration",
              "type": "uint256"
            },
            {
              "components": [
                {
                  "internalType": "address",
                  "name": "token",
                  "type": "address"
                },
                {
                  "internalType": "uint256",
                  "name": "value",
                  "type": "uint256"
                },
                {
                  "internalType": "uint256",
                  "name": "decimals",
                  "type": "uint256"
                },
                {
                  "internalType": "uint256",
                  "name": "currency",
                  "type": "uint256"
                }
              ],
              "internalType": "struct JBTokenAmount",
              "name": "amount",
              "type": "tuple"
            },
            {
              "components": [
                {
                  "internalType": "address",
                  "name": "token",
                  "type": "address"
                },
                {
                  "internalType": "uint256",
                  "name": "value",
                  "type": "uint256"
                },
                {
                  "internalType": "uint256",
                  "name": "decimals",
                  "type": "uint256"
                },
                {
                  "internalType": "uint256",
                  "name": "currency",
                  "type": "uint256"
                }
              ],
              "internalType": "struct JBTokenAmount",
              "name": "forwardedAmount",
              "type": "tuple"
            },
            {
              "internalType": "uint256",
              "name": "projectTokenCount",
              "type": "uint256"
            },
            {
              "internalType": "address",
              "name": "beneficiary",
              "type": "address"
            },
            {
              "internalType": "bool",
              "name": "preferClaimedTokens",
              "type": "bool"
            },
            {
              "internalType": "string",
              "name": "memo",
              "type": "string"
            },
            {
              "internalType": "bytes",
              "name": "metadata",
              "type": "bytes"
            }
          ],
          "internalType": "struct JBDidPayData",
          "name": "_data",
          "type": "tuple"
        }
      ],
      "name": "didPay",
      "outputs": [],
      "stateMutability": "payable",
      "type": "function"
    },
    {
      "inputs": [
        {
          "components": [
            {
              "internalType": "address",
              "name": "holder",
              "type": "address"
            },
            {
              "internalType": "uint256",
              "name": "projectId",
              "type": "uint256"
            },
            {
              "internalType": "uint256",
              "name": "currentFundingCycleConfiguration",
              "type": "uint256"
            },
            {
              "internalType": "uint256",
              "name": "projectTokenCount",
              "type": "uint256"
            },
            {
              "components": [
                {
                  "internalType": "address",
                  "name": "token",
                  "type": "address"
                },
                {
                  "internalType": "uint256",
                  "name": "value",
                  "type": "uint256"
                },
                {
                  "internalType": "uint256",
                  "name": "decimals",
                  "type": "uint256"
                },
                {
                  "internalType": "uint256",
                  "name": "currency",
                  "type": "uint256"
                }
              ],
              "internalType": "struct JBTokenAmount",
              "name": "reclaimedAmount",
              "type": "tuple"
            },
            {
              "components": [
                {
                  "internalType": "address",
                  "name": "token",
                  "type": "address"
                },
                {
                  "internalType": "uint256",
                  "name": "value",
                  "type": "uint256"
                },
                {
                  "internalType": "uint256",
                  "name": "decimals",
                  "type": "uint256"
                },
                {
                  "internalType": "uint256",
                  "name": "currency",
                  "type": "uint256"
                }
              ],
              "internalType": "struct JBTokenAmount",
              "name": "forwardedAmount",
              "type": "tuple"
            },
            {
              "internalType": "address payable",
              "name": "beneficiary",
              "type": "address"
            },
            {
              "internalType": "string",
              "name": "memo",
              "type": "string"
            },
            {
              "internalType": "bytes",
              "name": "metadata",
              "type": "bytes"
            }
          ],
          "internalType": "struct JBDidRedeemData",
          "name": "_data",
          "type": "tuple"
        }
      ],
      "name": "didRedeem",
      "outputs": [],
      "stateMutability": "payable",
      "type": "function"
    },
    {
      "inputs": [],
      "name": "directory",
      "outputs": [
        {
          "internalType": "contract IJBDirectory",
          "name": "",
          "type": "address"
        }
      ],
      "stateMutability": "view",
      "type": "function"
    },
    {
      "inputs": [
        {
          "internalType": "uint256",
          "name": "_tokenId",
          "type": "uint256"
        }
      ],
      "name": "firstOwnerOf",
      "outputs": [
        {
          "internalType": "address",
          "name": "",
          "type": "address"
        }
      ],
      "stateMutability": "view",
      "type": "function"
    },
    {
      "inputs": [],
      "name": "fundingCycleStore",
      "outputs": [
        {
          "internalType": "contract IJBFundingCycleStore",
          "name": "",
          "type": "address"
        }
      ],
      "stateMutability": "view",
      "type": "function"
    },
    {
      "inputs": [
        {
          "internalType": "uint256",
          "name": "tokenId",
          "type": "uint256"
        }
      ],
      "name": "getApproved",
      "outputs": [
        {
          "internalType": "address",
          "name": "",
          "type": "address"
        }
      ],
      "stateMutability": "view",
      "type": "function"
    },
    {
      "inputs": [
        {
          "internalType": "uint256",
          "name": "_tier",
          "type": "uint256"
        },
        {
          "internalType": "uint256",
          "name": "_blockNumber",
          "type": "uint256"
        }
      ],
      "name": "getPastTierTotalVotes",
      "outputs": [
        {
          "internalType": "uint256",
          "name": "",
          "type": "uint256"
        }
      ],
      "stateMutability": "view",
      "type": "function"
    },
    {
      "inputs": [
        {
          "internalType": "address",
          "name": "_account",
          "type": "address"
        },
        {
          "internalType": "uint256",
          "name": "_tier",
          "type": "uint256"
        },
        {
          "internalType": "uint256",
          "name": "_blockNumber",
          "type": "uint256"
        }
      ],
      "name": "getPastTierVotes",
      "outputs": [
        {
          "internalType": "uint256",
          "name": "",
          "type": "uint256"
        }
      ],
      "stateMutability": "view",
      "type": "function"
    },
    {
      "inputs": [
        {
          "internalType": "address",
          "name": "_account",
          "type": "address"
        },
        {
          "internalType": "uint256",
          "name": "_tier",
          "type": "uint256"
        }
      ],
      "name": "getTierDelegate",
      "outputs": [
        {
          "internalType": "address",
          "name": "",
          "type": "address"
        }
      ],
      "stateMutability": "view",
      "type": "function"
    },
    {
      "inputs": [
        {
          "internalType": "uint256",
          "name": "_tier",
          "type": "uint256"
        }
      ],
      "name": "getTierTotalVotes",
      "outputs": [
        {
          "internalType": "uint256",
          "name": "",
          "type": "uint256"
        }
      ],
      "stateMutability": "view",
      "type": "function"
    },
    {
      "inputs": [
        {
          "internalType": "address",
          "name": "_account",
          "type": "address"
        },
        {
          "internalType": "uint256",
          "name": "_tier",
          "type": "uint256"
        }
      ],
      "name": "getTierVotes",
      "outputs": [
        {
          "internalType": "uint256",
          "name": "",
          "type": "uint256"
        }
      ],
      "stateMutability": "view",
      "type": "function"
    },
    {
      "inputs": [
        {
          "internalType": "uint256",
          "name": "_projectId",
          "type": "uint256"
        },
        {
          "internalType": "contract IJBDirectory",
          "name": "_directory",
          "type": "address"
        },
        {
          "internalType": "string",
          "name": "_name",
          "type": "string"
        },
        {
          "internalType": "string",
          "name": "_symbol",
          "type": "string"
        },
        {
          "internalType": "contract IJBFundingCycleStore",
          "name": "_fundingCycleStore",
          "type": "address"
        },
        {
          "internalType": "string",
          "name": "_baseUri",
          "type": "string"
        },
        {
          "internalType": "contract IJBTokenUriResolver",
          "name": "_tokenUriResolver",
          "type": "address"
        },
        {
          "internalType": "string",
          "name": "_contractUri",
          "type": "string"
        },
        {
          "components": [
            {
              "components": [
                {
                  "internalType": "uint80",
                  "name": "contributionFloor",
                  "type": "uint80"
                },
                {
                  "internalType": "uint48",
                  "name": "lockedUntil",
                  "type": "uint48"
                },
                {
                  "internalType": "uint40",
                  "name": "initialQuantity",
                  "type": "uint40"
                },
                {
                  "internalType": "uint16",
                  "name": "votingUnits",
                  "type": "uint16"
                },
                {
                  "internalType": "uint16",
                  "name": "reservedRate",
                  "type": "uint16"
                },
                {
                  "internalType": "address",
                  "name": "reservedTokenBeneficiary",
                  "type": "address"
                },
                {
                  "internalType": "bytes32",
                  "name": "encodedIPFSUri",
                  "type": "bytes32"
                },
                {
                  "internalType": "bool",
                  "name": "allowManualMint",
                  "type": "bool"
                },
                {
                  "internalType": "bool",
                  "name": "shouldUseBeneficiaryAsDefault",
                  "type": "bool"
                },
                {
                  "internalType": "bool",
                  "name": "transfersPausable",
                  "type": "bool"
                }
              ],
              "internalType": "struct JB721TierParams[]",
              "name": "tiers",
              "type": "tuple[]"
            },
            {
              "internalType": "uint256",
              "name": "currency",
              "type": "uint256"
            },
            {
              "internalType": "uint256",
              "name": "decimals",
              "type": "uint256"
            },
            {
              "internalType": "contract IJBPrices",
              "name": "prices",
              "type": "address"
            }
          ],
          "internalType": "struct JB721PricingParams",
          "name": "_pricing",
          "type": "tuple"
        },
        {
          "internalType": "contract IJBTiered721DelegateStore",
          "name": "_store",
          "type": "address"
        },
        {
          "components": [
            {
              "internalType": "bool",
              "name": "lockReservedTokenChanges",
              "type": "bool"
            },
            {
              "internalType": "bool",
              "name": "lockVotingUnitChanges",
              "type": "bool"
            },
            {
              "internalType": "bool",
              "name": "lockManualMintingChanges",
              "type": "bool"
            }
          ],
          "internalType": "struct JBTiered721Flags",
          "name": "_flags",
          "type": "tuple"
        }
      ],
      "name": "initialize",
      "outputs": [],
      "stateMutability": "nonpayable",
      "type": "function"
    },
    {
      "inputs": [
        {
          "internalType": "address",
          "name": "owner",
          "type": "address"
        },
        {
          "internalType": "address",
          "name": "operator",
          "type": "address"
        }
      ],
      "name": "isApprovedForAll",
      "outputs": [
        {
          "internalType": "bool",
          "name": "",
          "type": "bool"
        }
      ],
      "stateMutability": "view",
      "type": "function"
    },
    {
      "inputs": [
        {
          "components": [
            {
              "internalType": "uint16[]",
              "name": "tierIds",
              "type": "uint16[]"
            },
            {
              "internalType": "address",
              "name": "beneficiary",
              "type": "address"
            }
          ],
          "internalType": "struct JBTiered721MintForTiersData[]",
          "name": "_mintForTiersData",
          "type": "tuple[]"
        }
      ],
      "name": "mintFor",
      "outputs": [],
      "stateMutability": "nonpayable",
      "type": "function"
    },
    {
      "inputs": [
        {
          "internalType": "uint16[]",
          "name": "_tierIds",
          "type": "uint16[]"
        },
        {
          "internalType": "address",
          "name": "_beneficiary",
          "type": "address"
        }
      ],
      "name": "mintFor",
      "outputs": [
        {
          "internalType": "uint256[]",
          "name": "tokenIds",
          "type": "uint256[]"
        }
      ],
      "stateMutability": "nonpayable",
      "type": "function"
    },
    {
      "inputs": [
        {
          "components": [
            {
              "internalType": "uint256",
              "name": "tierId",
              "type": "uint256"
            },
            {
              "internalType": "uint256",
              "name": "count",
              "type": "uint256"
            }
          ],
          "internalType": "struct JBTiered721MintReservesForTiersData[]",
          "name": "_mintReservesForTiersData",
          "type": "tuple[]"
        }
      ],
      "name": "mintReservesFor",
      "outputs": [],
      "stateMutability": "nonpayable",
      "type": "function"
    },
    {
      "inputs": [
        {
          "internalType": "uint256",
          "name": "_tierId",
          "type": "uint256"
        },
        {
          "internalType": "uint256",
          "name": "_count",
          "type": "uint256"
        }
      ],
      "name": "mintReservesFor",
      "outputs": [],
      "stateMutability": "nonpayable",
      "type": "function"
    },
    {
      "inputs": [],
      "name": "name",
      "outputs": [
        {
          "internalType": "string",
          "name": "",
          "type": "string"
        }
      ],
      "stateMutability": "view",
      "type": "function"
    },
    {
      "inputs": [],
      "name": "owner",
      "outputs": [
        {
          "internalType": "address",
          "name": "",
          "type": "address"
        }
      ],
      "stateMutability": "view",
      "type": "function"
    },
    {
      "inputs": [
        {
          "internalType": "uint256",
          "name": "tokenId",
          "type": "uint256"
        }
      ],
      "name": "ownerOf",
      "outputs": [
        {
          "internalType": "address",
          "name": "",
          "type": "address"
        }
      ],
      "stateMutability": "view",
      "type": "function"
    },
    {
      "inputs": [
        {
          "components": [
            {
              "internalType": "contract IJBPaymentTerminal",
              "name": "terminal",
              "type": "address"
            },
            {
              "internalType": "address",
              "name": "payer",
              "type": "address"
            },
            {
              "components": [
                {
                  "internalType": "address",
                  "name": "token",
                  "type": "address"
                },
                {
                  "internalType": "uint256",
                  "name": "value",
                  "type": "uint256"
                },
                {
                  "internalType": "uint256",
                  "name": "decimals",
                  "type": "uint256"
                },
                {
                  "internalType": "uint256",
                  "name": "currency",
                  "type": "uint256"
                }
              ],
              "internalType": "struct JBTokenAmount",
              "name": "amount",
              "type": "tuple"
            },
            {
              "internalType": "uint256",
              "name": "projectId",
              "type": "uint256"
            },
            {
              "internalType": "uint256",
              "name": "currentFundingCycleConfiguration",
              "type": "uint256"
            },
            {
              "internalType": "address",
              "name": "beneficiary",
              "type": "address"
            },
            {
              "internalType": "uint256",
              "name": "weight",
              "type": "uint256"
            },
            {
              "internalType": "uint256",
              "name": "reservedRate",
              "type": "uint256"
            },
            {
              "internalType": "string",
              "name": "memo",
              "type": "string"
            },
            {
              "internalType": "bytes",
              "name": "metadata",
              "type": "bytes"
            }
          ],
          "internalType": "struct JBPayParamsData",
          "name": "_data",
          "type": "tuple"
        }
      ],
      "name": "payParams",
      "outputs": [
        {
          "internalType": "uint256",
          "name": "weight",
          "type": "uint256"
        },
        {
          "internalType": "string",
          "name": "memo",
          "type": "string"
        },
        {
          "components": [
            {
              "internalType": "contract IJBPayDelegate",
              "name": "delegate",
              "type": "address"
            },
            {
              "internalType": "uint256",
              "name": "amount",
              "type": "uint256"
            }
          ],
          "internalType": "struct JBPayDelegateAllocation[]",
          "name": "delegateAllocations",
          "type": "tuple[]"
        }
      ],
      "stateMutability": "view",
      "type": "function"
    },
    {
      "inputs": [],
      "name": "prices",
      "outputs": [
        {
          "internalType": "contract IJBPrices",
          "name": "",
          "type": "address"
        }
      ],
      "stateMutability": "view",
      "type": "function"
    },
    {
      "inputs": [],
      "name": "pricingCurrency",
      "outputs": [
        {
          "internalType": "uint256",
          "name": "",
          "type": "uint256"
        }
      ],
      "stateMutability": "view",
      "type": "function"
    },
    {
      "inputs": [],
      "name": "pricingDecimals",
      "outputs": [
        {
          "internalType": "uint256",
          "name": "",
          "type": "uint256"
        }
      ],
      "stateMutability": "view",
      "type": "function"
    },
    {
      "inputs": [],
      "name": "projectId",
      "outputs": [
        {
          "internalType": "uint256",
          "name": "",
          "type": "uint256"
        }
      ],
      "stateMutability": "view",
      "type": "function"
    },
    {
      "inputs": [
        {
          "components": [
            {
              "internalType": "contract IJBPaymentTerminal",
              "name": "terminal",
              "type": "address"
            },
            {
              "internalType": "address",
              "name": "holder",
              "type": "address"
            },
            {
              "internalType": "uint256",
              "name": "projectId",
              "type": "uint256"
            },
            {
              "internalType": "uint256",
              "name": "currentFundingCycleConfiguration",
              "type": "uint256"
            },
            {
              "internalType": "uint256",
              "name": "tokenCount",
              "type": "uint256"
            },
            {
              "internalType": "uint256",
              "name": "totalSupply",
              "type": "uint256"
            },
            {
              "internalType": "uint256",
              "name": "overflow",
              "type": "uint256"
            },
            {
              "components": [
                {
                  "internalType": "address",
                  "name": "token",
                  "type": "address"
                },
                {
                  "internalType": "uint256",
                  "name": "value",
                  "type": "uint256"
                },
                {
                  "internalType": "uint256",
                  "name": "decimals",
                  "type": "uint256"
                },
                {
                  "internalType": "uint256",
                  "name": "currency",
                  "type": "uint256"
                }
              ],
              "internalType": "struct JBTokenAmount",
              "name": "reclaimAmount",
              "type": "tuple"
            },
            {
              "internalType": "bool",
              "name": "useTotalOverflow",
              "type": "bool"
            },
            {
              "internalType": "uint256",
              "name": "redemptionRate",
              "type": "uint256"
            },
            {
              "internalType": "string",
              "name": "memo",
              "type": "string"
            },
            {
              "internalType": "bytes",
              "name": "metadata",
              "type": "bytes"
            }
          ],
          "internalType": "struct JBRedeemParamsData",
          "name": "_data",
          "type": "tuple"
        }
      ],
      "name": "redeemParams",
      "outputs": [
        {
          "internalType": "uint256",
          "name": "reclaimAmount",
          "type": "uint256"
        },
        {
          "internalType": "string",
          "name": "memo",
          "type": "string"
        },
        {
          "components": [
            {
              "internalType": "contract IJBRedemptionDelegate",
              "name": "delegate",
              "type": "address"
            },
            {
              "internalType": "uint256",
              "name": "amount",
              "type": "uint256"
            }
          ],
          "internalType": "struct JBRedemptionDelegateAllocation[]",
          "name": "delegateAllocations",
          "type": "tuple[]"
        }
      ],
      "stateMutability": "view",
      "type": "function"
    },
    {
      "inputs": [
        {
          "internalType": "uint256",
          "name": "",
          "type": "uint256"
        }
      ],
      "name": "redeemedFromTier",
      "outputs": [
        {
          "internalType": "uint256",
          "name": "",
          "type": "uint256"
        }
      ],
      "stateMutability": "view",
      "type": "function"
    },
    {
      "inputs": [],
      "name": "renounceOwnership",
      "outputs": [],
      "stateMutability": "nonpayable",
      "type": "function"
    },
    {
      "inputs": [
        {
          "internalType": "address",
          "name": "from",
          "type": "address"
        },
        {
          "internalType": "address",
          "name": "to",
          "type": "address"
        },
        {
          "internalType": "uint256",
          "name": "tokenId",
          "type": "uint256"
        }
      ],
      "name": "safeTransferFrom",
      "outputs": [],
      "stateMutability": "nonpayable",
      "type": "function"
    },
    {
      "inputs": [
        {
          "internalType": "address",
          "name": "from",
          "type": "address"
        },
        {
          "internalType": "address",
          "name": "to",
          "type": "address"
        },
        {
          "internalType": "uint256",
          "name": "tokenId",
          "type": "uint256"
        },
        {
          "internalType": "bytes",
          "name": "data",
          "type": "bytes"
        }
      ],
      "name": "safeTransferFrom",
      "outputs": [],
      "stateMutability": "nonpayable",
      "type": "function"
    },
    {
      "inputs": [
        {
          "internalType": "address",
          "name": "operator",
          "type": "address"
        },
        {
          "internalType": "bool",
          "name": "approved",
          "type": "bool"
        }
      ],
      "name": "setApprovalForAll",
      "outputs": [],
      "stateMutability": "nonpayable",
      "type": "function"
    },
    {
      "inputs": [
        {
          "internalType": "string",
          "name": "_baseUri",
          "type": "string"
        }
      ],
      "name": "setBaseUri",
      "outputs": [],
      "stateMutability": "nonpayable",
      "type": "function"
    },
    {
      "inputs": [
        {
          "internalType": "string",
          "name": "_contractUri",
          "type": "string"
        }
      ],
      "name": "setContractUri",
      "outputs": [],
      "stateMutability": "nonpayable",
      "type": "function"
    },
    {
      "inputs": [
        {
          "internalType": "address",
          "name": "_beneficiary",
          "type": "address"
        }
      ],
      "name": "setDefaultReservedTokenBeneficiary",
      "outputs": [],
      "stateMutability": "nonpayable",
      "type": "function"
    },
    {
      "inputs": [
        {
          "internalType": "address",
          "name": "_delegatee",
          "type": "address"
        },
        {
          "internalType": "uint256",
          "name": "_tierId",
          "type": "uint256"
        }
      ],
      "name": "setTierDelegate",
      "outputs": [],
      "stateMutability": "nonpayable",
      "type": "function"
    },
    {
      "inputs": [
        {
          "components": [
            {
              "internalType": "address",
              "name": "delegatee",
              "type": "address"
            },
            {
              "internalType": "uint256",
              "name": "tierId",
              "type": "uint256"
            }
          ],
          "internalType": "struct JBTiered721SetTierDelegatesData[]",
          "name": "_setTierDelegatesData",
          "type": "tuple[]"
        }
      ],
      "name": "setTierDelegates",
      "outputs": [],
      "stateMutability": "nonpayable",
      "type": "function"
    },
    {
      "inputs": [
        {
          "components": [
            {
              "internalType": "uint256",
              "name": "id",
              "type": "uint256"
            },
            {
              "internalType": "uint256",
              "name": "redemptionWeight",
              "type": "uint256"
            }
          ],
          "internalType": "struct DefifaTierRedemptionWeight[]",
          "name": "_tierWeights",
          "type": "tuple[]"
        }
      ],
      "name": "setTierRedemptionWeights",
      "outputs": [],
      "stateMutability": "nonpayable",
      "type": "function"
    },
    {
      "inputs": [
        {
          "internalType": "contract IJBTokenUriResolver",
          "name": "_tokenUriResolver",
          "type": "address"
        }
      ],
      "name": "setTokenUriResolver",
      "outputs": [],
      "stateMutability": "nonpayable",
      "type": "function"
    },
    {
      "inputs": [],
      "name": "store",
      "outputs": [
        {
          "internalType": "contract IJBTiered721DelegateStore",
          "name": "",
          "type": "address"
        }
      ],
      "stateMutability": "view",
      "type": "function"
    },
    {
      "inputs": [
        {
          "internalType": "bytes4",
          "name": "_interfaceId",
          "type": "bytes4"
        }
      ],
      "name": "supportsInterface",
      "outputs": [
        {
          "internalType": "bool",
          "name": "",
          "type": "bool"
        }
      ],
      "stateMutability": "view",
      "type": "function"
    },
    {
      "inputs": [],
      "name": "symbol",
      "outputs": [
        {
          "internalType": "string",
          "name": "",
          "type": "string"
        }
      ],
      "stateMutability": "view",
      "type": "function"
    },
    {
      "inputs": [],
      "name": "tierRedemptionWeights",
      "outputs": [
        {
          "internalType": "uint256[128]",
          "name": "",
          "type": "uint256[128]"
        }
      ],
      "stateMutability": "view",
      "type": "function"
    },
    {
      "inputs": [
        {
          "internalType": "uint256",
          "name": "_tokenId",
          "type": "uint256"
        }
      ],
      "name": "tokenURI",
      "outputs": [
        {
          "internalType": "string",
          "name": "",
          "type": "string"
        }
      ],
      "stateMutability": "view",
      "type": "function"
    },
    {
      "inputs": [
        {
          "internalType": "address",
          "name": "from",
          "type": "address"
        },
        {
          "internalType": "address",
          "name": "to",
          "type": "address"
        },
        {
          "internalType": "uint256",
          "name": "tokenId",
          "type": "uint256"
        }
      ],
      "name": "transferFrom",
      "outputs": [],
      "stateMutability": "nonpayable",
      "type": "function"
    },
    {
      "inputs": [
        {
          "internalType": "address",
          "name": "newOwner",
          "type": "address"
        }
      ],
      "name": "transferOwnership",
      "outputs": [],
      "stateMutability": "nonpayable",
      "type": "function"
    }
  ],
  "bytecode": {
    "object": "0x60806040523480156200001157600080fd5b506200001d3362000035565b600880546001600160a01b0319163017905562000087565b600780546001600160a01b038381166001600160a01b0319831681179093556040519116919082907f8be0079c531659141344cd1fd0a4f28419497f9722a3daafe3b4186f6b6457e090600090a35050565b61609f80620000976000396000f3fe6080604052600436106103505760003560e01c8063943abfee116101c6578063c74b13d9116100f7578063d46cf17111610095578063e8a3d4851161006f578063e8a3d485146109d7578063e985e9c5146109ec578063f2fde38b14610a35578063f5a38e6314610a5557600080fd5b8063d46cf17114610984578063da9ee8b7146109a4578063df487e26146109b757600080fd5b8063ccb4807b116100d1578063ccb4807b14610904578063d31cc52c14610924578063d3419bf314610944578063d40e71461461096457600080fd5b8063c74b13d9146108a4578063c87b56dd146108c4578063ca323efe146108e457600080fd5b8063a51cfd1811610164578063b88d4fde1161013e578063b88d4fde1461082f578063bb52b6e41461084f578063bd50adf01461086f578063c41c2f241461088457600080fd5b8063a51cfd18146107c0578063aa4fb15b146107ef578063ab951e391461080f57600080fd5b8063975057e7116101a0578063975057e71461073e5780639df454681461075e578063a0bcfc7f14610780578063a22cb465146107a057600080fd5b8063943abfee146106dc57806394c5c5ca1461070957806395d89b411461072957600080fd5b806336c1a93b116102a0578063640abacd1161023e57806370a082311161021857806370a0823114610646578063715018a61461066657806382732b6d1461067b5780638da5cb5b146106be57600080fd5b8063640abacd146105eb57806364640c1e146106035780636ac6d9411461061957600080fd5b80634ecba6251161027a5780634ecba6251461057557806354c6d1f51461058b578063557e7155146105ab5780636352211e146105cb57600080fd5b806336c1a93b1461051f5780633fafa1271461053f57806342842e0e1461055557600080fd5b806323b872dd1161030d57806327f6e979116102e757806327f6e979146104b65780632a596e53146104cc5780632b13c58f146104ec5780632f441500146104ff57600080fd5b806323b872dd146104495780632407497e14610469578063245a45b51461048957600080fd5b806301ffc9a71461035557806306bc0c901461038a57806306fdde03146103ad578063081812fc146103cf578063095ea7b3146104075780631d153ca414610429575b600080fd5b34801561036157600080fd5b50610375610370366004614687565b610a75565b60405190151581526020015b60405180910390f35b34801561039657600080fd5b5061039f600481565b604051908152602001610381565b3480156103b957600080fd5b506103c2610aa0565b60405161038191906146f4565b3480156103db57600080fd5b506103ef6103ea366004614707565b610b32565b6040516001600160a01b039091168152602001610381565b34801561041357600080fd5b50610427610422366004614745565b610b59565b005b34801561043557600080fd5b506008546103ef906001600160a01b031681565b34801561045557600080fd5b50610427610464366004614771565b610be5565b34801561047557600080fd5b506104276104843660046147b2565b610c17565b34801561049557600080fd5b5061039f6104a43660046147b2565b600e6020526000908152604090205481565b3480156104c257600080fd5b5061039f60765481565b3480156104d857600080fd5b506104276104e73660046147cf565b610cc0565b6104276104fa36600461485c565b610d19565b34801561050b57600080fd5b5061042761051a3660046149dc565b610f17565b34801561052b57600080fd5b5061042761053a366004614ac0565b611141565b34801561054b57600080fd5b5061039f60055481565b34801561056157600080fd5b50610427610570366004614771565b6111a3565b34801561058157600080fd5b5061039f600d5481565b34801561059757600080fd5b506103ef6105a6366004614707565b6111be565b3480156105b757600080fd5b50600a546103ef906001600160a01b031681565b3480156105d757600080fd5b506103ef6105e6366004614707565b61126a565b3480156105f757600080fd5b5061039f633b9aca0081565b34801561060f57600080fd5b5061039f600c5481565b34801561062557600080fd5b50610639610634366004614b01565b6112a0565b6040516103819190614b57565b34801561065257600080fd5b5061039f6106613660046147b2565b6113e6565b34801561067257600080fd5b5061042761145b565b34801561068757600080fd5b506103ef610696366004614745565b6001600160a01b039182166000908152600f6020908152604080832093835292905220541690565b3480156106ca57600080fd5b506007546001600160a01b03166103ef565b3480156106e857600080fd5b5061039f6106f7366004614707565b60776020526000908152604090205481565b34801561071557600080fd5b5061039f610724366004614707565b61146f565b34801561073557600080fd5b506103c2611486565b34801561074a57600080fd5b506009546103ef906001600160a01b031681565b34801561076a57600080fd5b50610773611495565b6040516103819190614b9b565b34801561078c57600080fd5b5061042761079b366004614bcd565b6114d1565b3480156107ac57600080fd5b506104276107bb366004614c45565b61158c565b3480156107cc57600080fd5b506107e06107db36600461485c565b61159b565b60405161038193929190614c7e565b3480156107fb57600080fd5b5061042761080a366004614cf0565b6118f8565b34801561081b57600080fd5b5061042761082a366004614745565b611b15565b34801561083b57600080fd5b5061042761084a366004614d72565b611b20565b34801561085b57600080fd5b5061042761086a366004615050565b611b53565b34801561087b57600080fd5b5061039f600181565b34801561089057600080fd5b506006546103ef906001600160a01b031681565b3480156108b057600080fd5b506104276108bf366004615189565b611e39565b3480156108d057600080fd5b506103c26108df366004614707565b611ebd565b3480156108f057600080fd5b5061039f6108ff366004614745565b6120cc565b34801561091057600080fd5b5061042761091f366004614bcd565b6120f8565b34801561093057600080fd5b5061039f61093f366004614cf0565b6121ab565b34801561095057600080fd5b50600b546103ef906001600160a01b031681565b34801561097057600080fd5b5061039f61097f36600461523c565b6121c3565b34801561099057600080fd5b506107e061099f366004615271565b6121f8565b6104276109b23660046152ac565b6122db565b3480156109c357600080fd5b506104276109d23660046147b2565b612392565b3480156109e357600080fd5b506103c2612434565b3480156109f857600080fd5b50610375610a073660046152e7565b6001600160a01b03918216600090815260046020908152604080832093909416825291909152205460ff1690565b348015610a4157600080fd5b50610427610a503660046147b2565b6124aa565b348015610a6157600080fd5b50610427610a70366004615315565b612528565b60006001600160e01b03198216631e68505960e31b1480610a9a5750610a9a8261270b565b92915050565b606060008054610aaf906153af565b80601f0160208091040260200160405190810160405280929190818152602001828054610adb906153af565b8015610b285780601f10610afd57610100808354040283529160200191610b28565b820191906000526020600020905b815481529060010190602001808311610b0b57829003601f168201915b5050505050905090565b6000610b3d82612781565b506000908152600360205260409020546001600160a01b031690565b6000610b648261126a565b9050806001600160a01b0316836001600160a01b031603610b985760405163133f8be960e01b815260040160405180910390fd5b336001600160a01b03821614801590610bb85750610bb68133610a07565b155b15610bd65760405163e5fa0e3560e01b815260040160405180910390fd5b610be083836127b6565b505050565b610bef3382612824565b610c0c5760405163e5fa0e3560e01b815260040160405180910390fd5b610be08383836128a2565b610c1f61297b565b60095460405163036129cb60e61b81526001600160a01b0383811660048301529091169063d84a72c090602401600060405180830381600087803b158015610c6657600080fd5b505af1158015610c7a573d6000803e3d6000fd5b50506040513381526001600160a01b03841692507fe7784d93cfbfa4408e19577e6cc0436f4dbb51214b70e100905dfce9def88c1691506020015b60405180910390a250565b8060005b81811015610d13576000848483818110610ce057610ce06153e3565b905060400201803603810190610cf691906153f9565b9050610d0a816000015182602001516118f8565b50600101610cc4565b50505050565b34151580610d9b5750600654600554604051636e49181f60e01b815260048101919091523360248201526001600160a01b0390911690636e49181f90604401602060405180830381865afa158015610d75573d6000803e3d6000fd5b505050506040513d601f19601f82011682018060405250810190610d999190615420565b155b80610dac5750600554816020013514155b15610dca57604051633efca5c360e11b815260040160405180910390fd5b6024610dda6101c083018361543d565b90501080610e1e575063b3bcbb7960e01b610df96101c083018361543d565b610e0891602491602091615483565b610e11916154ad565b6001600160e01b03191614155b15610e3c57604051632a84050f60e01b815260040160405180910390fd5b6000610e4c6101c083018361543d565b810190610e5991906154dd565b925050506000815190506000805b82811015610ee957838181518110610e8157610e816153e3565b60200260200101519150846000016020810190610e9e91906147b2565b6000838152600260205260409020546001600160a01b03908116911614610ed85760405163075fd2b160e01b815260040160405180910390fd5b610ee1826129d5565b600101610e67565b50610ef383612a56565b836080016020013560766000828254610f0c91906155a1565b909155505050505050565b610f1f61297b565b600a546005546040516321d1336160e11b815260048101919091526000916001600160a01b0316906343a266c29060240161012060405180830381865afa158015610f6e573d6000803e3d6000fd5b505050506040513d601f19601f82011682018060405250810190610f9291906155bf565b9050600481600001511015610fba576040516303e08a3560e61b815260040160405180910390fd5b610fc66012600061462e565b60095460405163f1bea54f60e01b81523060048201526000916001600160a01b03169063f1bea54f90602401602060405180830381865afa15801561100f573d6000803e3d6000fd5b505050506040513d601f19601f82011682018060405250810190611033919061563f565b8351909150600090815b818110156111145783868281518110611058576110586153e3565b60200260200101516000015111156110835760405163148e14dd60e21b815260040160405180910390fd5b858181518110611095576110956153e3565b602002602001015160200151601260018884815181106110b7576110b76153e3565b6020026020010151600001516110cd9190615658565b606481106110dd576110dd6153e3565b015585518690829081106110f3576110f36153e3565b6020026020010151602001518361110a91906155a1565b925060010161103d565b50633b9aca0082111561113a57604051636ff44e9760e01b815260040160405180910390fd5b5050505050565b61114961297b565b8060005b81811015610d135736848483818110611168576111686153e3565b905060200281019061117a919061566b565b9050611199611189828061568b565b61063460408501602086016147b2565b505060010161114d565b610be083838360405180602001604052806000815250611b20565b6009546040516308ed6c0160e41b81523060048201526024810183905260009182916001600160a01b0390911690638ed6c01090604401602060405180830381865afa158015611212573d6000803e3d6000fd5b505050506040513d601f19601f8201168201806040525081019061123691906156d4565b90506001600160a01b0381161561124d5792915050565b50506000908152600260205260409020546001600160a01b031690565b6000818152600260205260408120546001600160a01b031680610a9a5760405163b49aa3b560e01b815260040160405180910390fd5b60606112aa61297b565b60095460405163eaa19ab360e01b81526001600160a01b039091169063eaa19ab3906112e39060001990889088906001906004016156f1565b6000604051808303816000875af1158015611302573d6000803e3d6000fd5b505050506040513d6000823e601f3d908101601f1916820160405261132a91908101906157b4565b509050826000805b828110156113dc5783818151811061134c5761134c6153e3565b602002602001015191506113608583612ba7565b846001600160a01b031687878381811061137c5761137c6153e3565b905060200201602081019061139191906157fa565b604080516000815233602082015261ffff929092169185917f598baf7bf150ca2f42be9e9f8f55e81d45f5715c3ff22bf46d697fabec7f31d6910160405180910390a4600101611332565b5050509392505050565b600954604051633de222bb60e21b81523060048201526001600160a01b038381166024830152600092169063f7888aec90604401602060405180830381865afa158015611437573d6000803e3d6000fd5b505050506040513d601f19601f82011682018060405250810190610a9a919061563f565b61146361297b565b61146d6000612c71565b565b6000818152601160205260408120610a9a90612cc3565b606060018054610aaf906153af565b61149d61463d565b60408051610c808101918290529060129060649082845b8154815260200190600101908083116114b4575050505050905090565b6114d961297b565b6009546040516331315e5960e11b81526001600160a01b0390911690636262bcb29061150b9085908590600401615815565b600060405180830381600087803b15801561152557600080fd5b505af1158015611539573d6000803e3d6000fd5b50505050818160405161154d929190615844565b604051908190038120338252907f7bc9110d5de090dd59e07912d2b93a5a27ac70a60c8d8e324db4f9ee8b8b5c13906020015b60405180910390a25050565b611597338383612d1f565b5050565b60006060806080840135156115c3576040516309f82f1b60e31b815260040160405180910390fd5b60246115d36101c086018661543d565b90501080611617575063b3bcbb7960e01b6115f26101c086018661543d565b61160191602491602091615483565b61160a916154ad565b6001600160e01b03191614155b1561163557604051632a84050f60e01b815260040160405180910390fd5b600a54604080516321d1336160e11b81529086013560048201526000916001600160a01b0316906343a266c29060240161012060405180830381865afa158015611683573d6000803e3d6000fd5b505050506040513d601f19601f820116820180604052508101906116a791906155bf565b604080516001808252818301909252919250816020015b60408051808201909152600080825260208201528152602001906001900390816116be5790505091506040518060400160405280306001600160a01b03168152602001600081525082600081518110611719576117196153e3565b602090810291909101015260006117346101c087018761543d565b81019061174191906154dd565b92505050600182600001510361187057805160005b818110156118155760095483516001600160a01b039091169063b67cb047903090869085908110611789576117896153e3565b60200260200101516040518363ffffffff1660e01b81526004016117c29291906001600160a01b03929092168252602082015260400190565b61016060405180830381865afa1580156117e0573d6000803e3d6000fd5b505050506040513d601f19601f820116820180604052508101906118049190615854565b602001519690960195600101611756565b50856118256101a089018961543d565b8682828080601f016020809104026020016040519081016040528093929190818152602001838380828437600092019190915250969c50919a509198506118f1975050505050505050565b61189e6076548760c0013561188591906155a1565b61188f8389612dbe565b633b9aca00612f75565b612f75565b6118ac6101a088018861543d565b8582828080601f016020809104026020016040519081016040528093929190818152602001838380828437600092019190915250969b50919950919750505050505050505b9193909250565b600a546005546040516321d1336160e11b815260048101919091526000916001600160a01b0316906343a266c29060240161012060405180830381865afa158015611947573d6000803e3d6000fd5b505050506040513d601f19601f8201168201806040525081019061196b91906155bf565b61010081015190915060f51c60019081160361199a57604051631d2c125760e31b815260040160405180910390fd5b600954604051635d53f40760e11b815260048101859052602481018490526000916001600160a01b03169063baa7e80e906044016000604051808303816000875af11580156119ed573d6000803e3d6000fd5b505050506040513d6000823e601f3d908101601f19168201604052611a1591908101906158f6565b6009546040516304db994760e21b8152306004820152602481018790529192506000916001600160a01b039091169063136e651c90604401602060405180830381865afa158015611a6a573d6000803e3d6000fd5b505050506040513d601f19601f82011682018060405250810190611a8e91906156d4565b90506000805b85811015611b0c57838181518110611aae57611aae6153e3565b60200260200101519150611ac28383612ba7565b6040513381526001600160a01b03841690889084907f031e1988c95a91ec4d655ff63a8f87a80bc9daf28d95ae10ee08c0022cfb5c8b9060200160405180910390a4600101611a94565b50505050505050565b611597338383613042565b611b2a3383612824565b611b475760405163e5fa0e3560e01b815260040160405180910390fd5b610d13848484846130c1565b6008546001600160a01b03163003611b6a57600080fd5b6009546001600160a01b031615611b8057600080fd5b611b8c8b8b8b8b6130f5565b600a80546001600160a01b03808a166001600160a01b031992831617909255600980548584169083161790556020850151600c556040850151600d556060850151600b8054919093169116179055855115611c40576040516331315e5960e11b81526001600160a01b03831690636262bcb290611c0d9089906004016146f4565b600060405180830381600087803b158015611c2757600080fd5b505af1158015611c3b573d6000803e3d6000fd5b505050505b835115611ca65760405163d67b78fd60e01b81526001600160a01b0383169063d67b78fd90611c739087906004016146f4565b600060405180830381600087803b158015611c8d57600080fd5b505af1158015611ca1573d6000803e3d6000fd5b505050505b6001600160a01b03851615611d115760405163036129cb60e61b81526001600160a01b03868116600483015283169063d84a72c090602401600060405180830381600087803b158015611cf857600080fd5b505af1158015611d0c573d6000803e3d6000fd5b505050505b82515115611d8f57825160405163eadd8b3760e01b81526001600160a01b0384169163eadd8b3791611d46919060040161592a565b6000604051808303816000875af1158015611d65573d6000803e3d6000fd5b505050506040513d6000823e601f3d908101601f19168201604052611d8d91908101906158f6565b505b805180611d9d575080602001515b80611da9575080604001515b15611e23576040805163cdb0af6d60e01b815282511515600482015260208301511515602482015290820151151560448201526001600160a01b0383169063cdb0af6d90606401600060405180830381600087803b158015611e0a57600080fd5b505af1158015611e1e573d6000803e3d6000fd5b505050505b611e2c33612c71565b5050505050505050505050565b8051604080518082019091526000808252602082015260005b82811015610d1357838181518110611e6c57611e6c6153e3565b602090810291909101015180519092506001600160a01b0316611ea2576040516314f4c13d60e21b815260040160405180910390fd5b611eb53383600001518460200151613042565b600101611e52565b6000818152600260205260409020546060906001600160a01b0316611ef057505060408051602081019091526000815290565b600954604051630fab094760e01b81523060048201526000916001600160a01b031690630fab094790602401602060405180830381865afa158015611f39573d6000803e3d6000fd5b505050506040513d601f19601f82011682018060405250810190611f5d91906156d4565b90506001600160a01b03811615611fe257604051636d02a25560e11b8152600481018490526001600160a01b0382169063da0544aa90602401600060405180830381865afa158015611fb3573d6000803e3d6000fd5b505050506040513d6000823e601f3d908101601f19168201604052611fdb9190810190615a03565b9392505050565b60095460405163f682eeaf60e01b8152306004820152611fdb916001600160a01b03169063f682eeaf90602401600060405180830381865afa15801561202c573d6000803e3d6000fd5b505050506040513d6000823e601f3d908101601f191682016040526120549190810190615a03565b600954604051630c8df17160e41b8152306004820152602481018790526001600160a01b039091169063c8df171090604401602060405180830381865afa1580156120a3573d6000803e3d6000fd5b505050506040513d601f19601f820116820180604052508101906120c7919061563f565b613128565b6001600160a01b03821660009081526010602090815260408083208484529091528120611fdb90612cc3565b61210061297b565b60095460405163d67b78fd60e01b81526001600160a01b039091169063d67b78fd906121329085908590600401615815565b600060405180830381600087803b15801561214c57600080fd5b505af1158015612160573d6000803e3d6000fd5b505050508181604051612174929190615844565b604051908190038120338252907fd36dc0c1a06103fdcaf15f3f6fb797d1a97997514c78de073640c8b5005454b890602001611580565b6000828152601160205260408120611fdb908361318f565b6001600160a01b038316600090815260106020908152604080832085845290915281206121f0908361318f565b949350505050565b61012081013560608061220f61016085018561543d565b8080601f0160208091040260200160405190810160405280939291908181526020018383808284376000920191909152509294506001925061224f915050565b60405190808252806020026020018201604052801561229457816020015b604080518082019091526000808252602082015281526020019060019003908161226d5790505b5090506040518060400160405280306001600160a01b031681526020016000815250816000815181106122c9576122c96153e3565b60200260200101819052509193909250565b6005543415158061235c5750600654604051636e49181f60e01b8152600481018390523360248201526001600160a01b0390911690636e49181f90604401602060405180830381865afa158015612336573d6000803e3d6000fd5b505050506040513d601f19601f8201168201806040525081019061235a9190615420565b155b8061236b575080826020013514155b15612389576040516331c57b1b60e21b815260040160405180910390fd5b6115978261329e565b61239a61297b565b6009546040516317161f7d60e01b81526001600160a01b038381166004830152909116906317161f7d90602401600060405180830381600087803b1580156123e157600080fd5b505af11580156123f5573d6000803e3d6000fd5b50506040513381526001600160a01b03841692507fab0014d4c7a642a02a31b303a318908c22b0fb2001f107278fc6076b4c671b659150602001610cb5565b600954604051630155619b60e71b81523060048201526060916001600160a01b03169063aab0cd8090602401600060405180830381865afa15801561247d573d6000803e3d6000fd5b505050506040513d6000823e601f3d908101601f191682016040526124a59190810190615a03565b905090565b6124b261297b565b6001600160a01b03811661251c5760405162461bcd60e51b815260206004820152602660248201527f4f776e61626c653a206e6577206f776e657220697320746865207a65726f206160448201526564647265737360d01b60648201526084015b60405180910390fd5b61252581612c71565b50565b61253061297b565b82818015612600576009546040516320512ba160e01b81526001600160a01b03909116906320512ba19061256a9087908790600401615a70565b600060405180830381600087803b15801561258457600080fd5b505af1158015612598573d6000803e3d6000fd5b5050505060005b818110156125fe578484828181106125b9576125b96153e3565b60405133815260209182029390930135927f832d89d991be5351d793c20faf4b7dd44f8aa9ce39e3cb160c6317de6fbba72992500160405180910390a260010161259f565b505b81156127035760095460405163eadd8b3760e01b81526000916001600160a01b03169063eadd8b3790612639908a908a90600401615b86565b6000604051808303816000875af1158015612658573d6000803e3d6000fd5b505050506040513d6000823e601f3d908101601f1916820160405261268091908101906158f6565b905060005b838110156127005781818151811061269f5761269f6153e3565b60200260200101517f85b5b4c4e44e342c8dac3c3a5364494d455043decb9f4bb8e7e0a3020d22fed48989848181106126da576126da6153e3565b90506101400201336040516126f0929190615bc9565b60405180910390a2600101612685565b50505b505050505050565b60006001600160e01b0319821663b3bcbb7960e01b148061273c57506001600160e01b031982166371700c6960e01b145b8061275757506001600160e01b0319821663da9ee8b760e01b145b8061277257506001600160e01b03198216632b13c58f60e01b145b80610a9a5750610a9a826135bf565b6000818152600260205260409020546001600160a01b03166125255760405163b49aa3b560e01b815260040160405180910390fd5b600081815260036020526040902080546001600160a01b0319166001600160a01b03841690811790915581906127eb8261126a565b6001600160a01b03167f8c5be1e5ebec7d5bd14f71427d1e84f3dd0314c0f7b2291e5b200ac8c7c3b92560405160405180910390a45050565b6000806128308361126a565b9050806001600160a01b0316846001600160a01b0316148061287757506001600160a01b0380821660009081526004602090815260408083209388168352929052205460ff165b806121f05750836001600160a01b031661289084610b32565b6001600160a01b031614949350505050565b826001600160a01b03166128b58261126a565b6001600160a01b0316146128dc5760405163a195bc5360e01b815260040160405180910390fd5b6001600160a01b03821661290357604051632c95542760e01b815260040160405180910390fd5b61290e83838361360f565b6129196000826127b6565b60008181526002602052604080822080546001600160a01b0319166001600160a01b0386811691821790925591518493918716917fddf252ad1be2c89b69c2b068fc378daa952ba7f163c4a11628f55a4df523b3ef91a4610be083838361383c565b6007546001600160a01b0316331461146d5760405162461bcd60e51b815260206004820181905260248201527f4f776e61626c653a2063616c6c6572206973206e6f7420746865206f776e65726044820152606401612513565b60006129e08261126a565b90506129ee8160008461360f565b6129f96000836127b6565b60008281526002602052604080822080546001600160a01b0319169055518391906001600160a01b038416907fddf252ad1be2c89b69c2b068fc378daa952ba7f163c4a11628f55a4df523b3ef908390a46115978160008461383c565b612a5f81613935565b600a546005546040516321d1336160e11b815260048101919091526000916001600160a01b0316906343a266c29060240161012060405180830381865afa158015612aae573d6000803e3d6000fd5b505050506040513d601f19601f82011682018060405250810190612ad291906155bf565b9050600481600001511015612ae5575050565b60005b8251811015610be05760095483516077916000916001600160a01b03909116906342f9914b90879086908110612b2057612b206153e3565b60200260200101516040518263ffffffff1660e01b8152600401612b4691815260200190565b602060405180830381865afa158015612b63573d6000803e3d6000fd5b505050506040513d601f19601f82011682018060405250810190612b87919061563f565b815260208101919091526040016000208054600190810190915501612ae8565b6001600160a01b038216612bce57604051633904578f60e11b815260040160405180910390fd5b6000818152600260205260409020546001600160a01b031615612c0457604051632eb5f0c360e21b815260040160405180910390fd5b612c106000838361360f565b60008181526002602052604080822080546001600160a01b0319166001600160a01b03861690811790915590518392907fddf252ad1be2c89b69c2b068fc378daa952ba7f163c4a11628f55a4df523b3ef908290a46115976000838361383c565b600780546001600160a01b038381166001600160a01b0319831681179093556040519116919082907f8be0079c531659141344cd1fd0a4f28419497f9722a3daafe3b4186f6b6457e090600090a35050565b80546000908015612d0c5782612cda600183615658565b81548110612cea57612cea6153e3565b60009182526020909120015464010000000090046001600160e01b0316612d0f565b60005b6001600160e01b03169392505050565b816001600160a01b0316836001600160a01b031603612d51576040516306f8139d60e11b815260040160405180910390fd5b6001600160a01b03838116600081815260046020908152604080832094871680845294825291829020805460ff191686151590811790915591519182527f17307eab39ab6107e8899845ad3d59bd9653f200f220920489ca2b5937696c31910160405180910390a3505050565b8151600090815b81811015612f4c5760095485516000916001600160a01b0316906342f9914b90889085908110612df757612df76153e3565b60200260200101516040518263ffffffff1660e01b8152600401612e1d91815260200190565b602060405180830381865afa158015612e3a573d6000803e3d6000fd5b505050506040513d601f19601f82011682018060405250810190612e5e919061563f565b600954604051633a39e4d160e11b8152306004820152602481018390529192506000916001600160a01b0390911690637473c9a29060440161016060405180830381865afa158015612eb4573d6000803e3d6000fd5b505050506040513d601f19601f82011682018060405250810190612ed89190615854565b600083815260776020526040902054606082015160808301519293509091612f009190615658565b612f0a91906155a1565b6012612f17600185615658565b60648110612f2757612f276153e3565b0154612f339190615c07565b612f3d90866155a1565b94508260010192505050612dc5565b5081600003612f6e57604051637691472960e01b815260040160405180910390fd5b5092915050565b6000808060001985870985870292508281108382030391505080600003612faf57838281612fa557612fa5615bf1565b0492505050611fdb565b838110612fd957604051631dcf306360e21b81526004810182905260248101859052604401612513565b60008486880960026001871981018816978890046003810283188082028403028082028403028082028403028082028403028082028403029081029092039091026000889003889004909101858311909403939093029303949094049190911702949350505050565b6001600160a01b038381166000818152600f6020908152604080832086845290915280822080548786166001600160a01b0319821681179092559151919094169392849290917f3134e8a2e6d97e929a7e54011ea5485d7d196dd5f0ba4d4ef95803e8e3fc257f9190a4610d138184846130bc8887613993565b613a0f565b6130cc8484846128a2565b6130d884848484613b64565b610d13576040516336f57c1b60e11b815260040160405180910390fd5b6130ff8282613c66565b5050600591909155600680546001600160a01b0319166001600160a01b03909216919091179055565b604051609160f51b6020820152602281018290526060906000906042016040516020818303038152906040529050600061316182613c7f565b90508481604051602001613176929190615c1b565b6040516020818303038152906040529250505092915050565b60004382106131e05760405162461bcd60e51b815260206004820181905260248201527f436865636b706f696e74733a20626c6f636b206e6f7420796574206d696e65646044820152606401612513565b825460005b818110156132455760006131f98284613e19565b905084866000018281548110613211576132116153e3565b60009182526020909120015463ffffffff1611156132315780925061323f565b61323c8160016155a1565b91505b506131e5565b81156132895784613257600184615658565b81548110613267576132676153e3565b60009182526020909120015464010000000090046001600160e01b031661328c565b60005b6001600160e01b031695945050505050565b600c5460009060c0830135036132b95750608081013561336a565b600b546001600160a01b03161561159757600d54613367906080840135906132e290600a615d2e565b600b54600c54604051635268657960e11b815260c08801356004820152602481019190915260a087013560448201526001600160a01b039091169063a4d0caf290606401602060405180830381865afa158015613343573d6000803e3d6000fd5b505050506040513d601f19601f82011682018060405250810190611899919061563f565b90505b6000600e816133816101a0860161018087016147b2565b6001600160a01b031681526020810191909152604001600090812054915082906133b36101a0860161018087016147b2565b6001600160a01b03166133c960208701876147b2565b6001600160a01b0316036133e057908201906133e3565b50815b60008060446133f66101e089018961543d565b905011801561343a575063b3bcbb7960e01b6134166101e089018961543d565b61342591604491604091615483565b61342e916154ad565b6001600160e01b031916145b156134da57600060606134516101e08a018a61543d565b81019061345e9190615d3a565b9199509750909550935050831591506134b1905057858501600e600061348c6101a08d016101808e016147b2565b6001600160a01b03168152602081019190915260400160002055505050505050505050565b8051156134d7576134d486826134cf6101a08d016101808e016147b2565b613e34565b95505b50505b831561357e576134fc846134f66101a08a016101808b016147b2565b84613f76565b9350831561355b57801561352357604051631b57826960e21b815260040160405180910390fd5b838301600e600061353c6101a08b016101808c016147b2565b6001600160a01b03168152602081019190915260400160002055611b0c565b8285146135795782600e600061353c6101a08b016101808c016147b2565b611b0c565b828514611b0c5782600e600061359c6101a08b016101808c016147b2565b6001600160a01b0316815260208101919091526040016000205550505050505050565b60006001600160e01b031982166380ac58cd60e01b14806135f057506001600160e01b03198216635b5e139f60e01b145b80610a9a57506301ffc9a760e01b6001600160e01b0319831614610a9a565b6001600160a01b03831615610be05760095460405163b67cb04760e01b8152306004820152602481018390526000916001600160a01b03169063b67cb0479060440161016060405180830381865afa15801561366f573d6000803e3d6000fd5b505050506040513d601f19601f820116820180604052508101906136939190615854565b90508061014001511561375857600a546005546040516321d1336160e11b815260048101919091526000916001600160a01b0316906343a266c29060240161012060405180830381865afa1580156136ef573d6000803e3d6000fd5b505050506040513d601f19601f8201168201806040525081019061371391906155bf565b90506001600160a01b03841615801590613738575061010081015160f41c6001908116145b15613756576040516318cdaf9760e01b815260040160405180910390fd5b505b6009546040516308ed6c0160e41b8152306004820152602481018490526000916001600160a01b031690638ed6c01090604401602060405180830381865afa1580156137a8573d6000803e3d6000fd5b505050506040513d601f19601f820116820180604052508101906137cc91906156d4565b6001600160a01b031603610d1357600954604051638cec7d3960e01b8152600481018490526001600160a01b03868116602483015290911690638cec7d3990604401600060405180830381600087803b15801561382857600080fd5b505af1158015612700573d6000803e3d6000fd5b60095460405163b67cb04760e01b8152306004820152602481018390526000916001600160a01b03169063b67cb0479060440161016060405180830381865afa15801561388d573d6000803e3d6000fd5b505050506040513d601f19601f820116820180604052508101906138b19190615854565b60095481516040516330b157e560e21b815260048101919091526001600160a01b038781166024830152868116604483015292935091169063c2c55f9490606401600060405180830381600087803b15801561390c57600080fd5b505af1158015613920573d6000803e3d6000fd5b5050505061393084848484614080565b610d13565b6009546040516386bc2be360e01b81526001600160a01b03909116906386bc2be390613965908490600401614b57565b600060405180830381600087803b15801561397f57600080fd5b505af115801561113a573d6000803e3d6000fd5b6009546040516305c9a1d560e31b81523060048201526001600160a01b038481166024830152604482018490526000921690632e4d0ea890606401602060405180830381865afa1580156139eb573d6000803e3d6000fd5b505050506040513d601f19601f82011682018060405250810190611fdb919061563f565b826001600160a01b0316846001600160a01b03161480613a2d575080155b610d13576001600160a01b03841615613ac8576001600160a01b038416600090815260106020908152604080832085845290915281208190613a729061412785614133565b60408051838152602081018390523381830152905192945090925085916001600160a01b038916917fed0c1e94c302bdbbd8bbd6a4fb7c3ed335c2292407cd816eadd075d019d0ce04919081900360600190a350505b6001600160a01b03831615610d13576001600160a01b038316600090815260106020908152604080832085845290915281208190613b099061416185614133565b60408051838152602081018390523381830152905192945090925085916001600160a01b038816917fed0c1e94c302bdbbd8bbd6a4fb7c3ed335c2292407cd816eadd075d019d0ce04919081900360600190a3505050505050565b60006001600160a01b0384163b15613c5b57604051630a85bd0160e11b81526001600160a01b0385169063150b7a0290613ba8903390899088908890600401615e31565b6020604051808303816000875af1925050508015613be3575060408051601f3d908101601f19168201909252613be091810190615e6e565b60015b613c41573d808015613c11576040519150601f19603f3d011682016040523d82523d6000602084013e613c16565b606091505b508051600003613c39576040516336f57c1b60e11b815260040160405180910390fd5b805181602001fd5b6001600160e01b031916630a85bd0160e11b1490506121f0565b506001949350505050565b6000613c728382615ed1565b506001610be08282615ed1565b60608151600003613ca0576040805160008082526020820190925290612f6e565b60408051602e8082526105e08201909252600091602082016105c080368337019050509050600081600081518110613cda57613cda6153e3565b60ff90921660209283029190910190910152825160019060005b81811015613df5576000868281518110613d1057613d106153e3565b016020015160f81c905060005b8460ff16811015613d9a576008868281518110613d3c57613d3c6153e3565b602002602001015160ff16901b82613d5491906155a1565b9150613d61603a83615f90565b868281518110613d7357613d736153e3565b60ff90921660209283029190910190910152613d90603a83615c07565b9150600101613d1d565b505b8015613dec57613dad603a82615f90565b858560ff1681518110613dc257613dc26153e3565b60ff90921660209283029190910190910152600190930192613de5603a82615c07565b9050613d9c565b50600101613cf4565b50613e10613e0b613e06858561416d565b614214565b6142b6565b95945050505050565b6000613e286002848418615c07565b611fdb908484166155a1565b60095460405163eaa19ab360e01b81526000916060916001600160a01b039091169063eaa19ab390613e6e90889088908790600401615fa4565b6000604051808303816000875af1158015613e8d573d6000803e3d6000fd5b505050506040513d6000823e601f3d908101601f19168201604052613eb591908101906157b4565b81519093509091506000805b82811015613f6b57838181518110613edb57613edb6153e3565b60200260200101519150613eef8683612ba7565b856001600160a01b0316878281518110613f0b57613f0b6153e3565b602002602001015161ffff16837f598baf7bf150ca2f42be9e9f8f55e81d45f5715c3ff22bf46d697fabec7f31d68b33604051613f5b9291909182526001600160a01b0316602082015260400190565b60405180910390a4600101613ec1565b505050509392505050565b60095460405163879791f360e01b815260048101859052600091829182916001600160a01b03169063879791f3906024016060604051808303816000875af1158015613fc6573d6000803e3d6000fd5b505050506040513d601f19601f82011682018060405250810190613fea9190616001565b94509092509050600082900361402057831561401957604051630e5313df60e41b815260040160405180910390fd5b5050611fdb565b61402a8583612ba7565b6001600160a01b03851681837f598baf7bf150ca2f42be9e9f8f55e81d45f5715c3ff22bf46d697fabec7f31d6614061878b615658565b604080519182523360208301520160405180910390a450509392505050565b60a081015115610d13576001600160a01b038381166000908152600f602090815260408083208551845290915290205416614113576001600160a01b0383166000818152600f602090815260408083208551845290915280822080546001600160a01b031916841790555182907f3134e8a2e6d97e929a7e54011ea5485d7d196dd5f0ba4d4ef95803e8e3fc257f908390a45b610d13848483600001518460a0015161438f565b6000611fdb8284615658565b6000806141558561415061414688612cc3565b868863ffffffff16565b614431565b91509150935093915050565b6000611fdb82846155a1565b606060008260ff166001600160401b0381111561418c5761418c614890565b6040519080825280602002602001820160405280156141b5578160200160208202803683370190505b50905060005b8360ff1681101561420c578481815181106141d8576141d86153e3565b60200260200101518282815181106141f2576141f26153e3565b60ff909216602092830291909101909101526001016141bb565b509392505050565b80516060906000816001600160401b0381111561423357614233614890565b60405190808252806020026020018201604052801561425c578160200160208202803683370190505b50905060005b8281101561420c57848160018751030381518110614282576142826153e3565b602002602001015182828151811061429c5761429c6153e3565b60ff90921660209283029190910190910152600101614262565b80516060906000816001600160401b038111156142d5576142d5614890565b6040519080825280601f01601f1916602001820160405280156142ff576020820181803683370190505b50905060005b8281101561420c576040518060600160405280603a8152602001616030603a9139858281518110614338576143386153e3565b602002602001015160ff1681518110614353576143536153e3565b602001015160f81c60f81b828281518110614370576143706153e3565b60200101906001600160f81b031916908160001a905350600101614305565b6001600160a01b0384166143bb5760008281526011602052604090206143b89061416183614133565b50505b6001600160a01b0383166143e75760008281526011602052604090206143e49061412783614133565b50505b6001600160a01b038085166000908152600f60208181526040808420878552825280842054888616855292825280842087855290915290912054610d139291821691168484613a0f565b815460009081908161444286612cc3565b90506000821180156144805750438661445c600185615658565b8154811061446c5761446c6153e3565b60009182526020909120015463ffffffff16145b156144e05761448e8561455c565b8661449a600185615658565b815481106144aa576144aa6153e3565b9060005260206000200160000160046101000a8154816001600160e01b0302191690836001600160e01b0316021790555061454e565b8560000160405180604001604052806144f8436145c9565b63ffffffff16815260200161450c8861455c565b6001600160e01b0390811690915282546001810184556000938452602093849020835194909301519091166401000000000263ffffffff909316929092179101555b9250839150505b9250929050565b60006001600160e01b038211156145c55760405162461bcd60e51b815260206004820152602760248201527f53616665436173743a2076616c756520646f65736e27742066697420696e20326044820152663234206269747360c81b6064820152608401612513565b5090565b600063ffffffff8211156145c55760405162461bcd60e51b815260206004820152602660248201527f53616665436173743a2076616c756520646f65736e27742066697420696e203360448201526532206269747360d01b6064820152608401612513565b5061252590606481019061465c565b60405180610c8001604052806064906020820280368337509192915050565b5b808211156145c5576000815560010161465d565b6001600160e01b03198116811461252557600080fd5b60006020828403121561469957600080fd5b8135611fdb81614671565b60005b838110156146bf5781810151838201526020016146a7565b50506000910152565b600081518084526146e08160208601602086016146a4565b601f01601f19169290920160200192915050565b602081526000611fdb60208301846146c8565b60006020828403121561471957600080fd5b5035919050565b6001600160a01b038116811461252557600080fd5b803561474081614720565b919050565b6000806040838503121561475857600080fd5b823561476381614720565b946020939093013593505050565b60008060006060848603121561478657600080fd5b833561479181614720565b925060208401356147a181614720565b929592945050506040919091013590565b6000602082840312156147c457600080fd5b8135611fdb81614720565b600080602083850312156147e257600080fd5b82356001600160401b03808211156147f957600080fd5b818501915085601f83011261480d57600080fd5b81358181111561481c57600080fd5b8660208260061b850101111561483157600080fd5b60209290920196919550909350505050565b60006101e0828403121561485657600080fd5b50919050565b60006020828403121561486e57600080fd5b81356001600160401b0381111561488457600080fd5b6121f084828501614843565b634e487b7160e01b600052604160045260246000fd5b604080519081016001600160401b03811182821017156148c8576148c8614890565b60405290565b604051608081016001600160401b03811182821017156148c8576148c8614890565b60405161014081016001600160401b03811182821017156148c8576148c8614890565b60405161012081016001600160401b03811182821017156148c8576148c8614890565b60405161016081016001600160401b03811182821017156148c8576148c8614890565b604051601f8201601f191681016001600160401b038111828210171561498157614981614890565b604052919050565b60006001600160401b038211156149a2576149a2614890565b5060051b60200190565b6000604082840312156149be57600080fd5b6149c66148a6565b9050813581526020820135602082015292915050565b600060208083850312156149ef57600080fd5b82356001600160401b03811115614a0557600080fd5b8301601f81018513614a1657600080fd5b8035614a29614a2482614989565b614959565b81815260069190911b82018301908381019087831115614a4857600080fd5b928401925b82841015614a7157614a5f88856149ac565b82528482019150604084019350614a4d565b979650505050505050565b60008083601f840112614a8e57600080fd5b5081356001600160401b03811115614aa557600080fd5b6020830191508360208260051b850101111561455557600080fd5b60008060208385031215614ad357600080fd5b82356001600160401b03811115614ae957600080fd5b614af585828601614a7c565b90969095509350505050565b600080600060408486031215614b1657600080fd5b83356001600160401b03811115614b2c57600080fd5b614b3886828701614a7c565b9094509250506020840135614b4c81614720565b809150509250925092565b6020808252825182820181905260009190848201906040850190845b81811015614b8f57835183529284019291840191600101614b73565b50909695505050505050565b610c808101818360005b6064811015614bc4578151835260209283019290910190600101614ba5565b50505092915050565b60008060208385031215614be057600080fd5b82356001600160401b0380821115614bf757600080fd5b818501915085601f830112614c0b57600080fd5b813581811115614c1a57600080fd5b86602082850101111561483157600080fd5b801515811461252557600080fd5b803561474081614c2c565b60008060408385031215614c5857600080fd5b8235614c6381614720565b91506020830135614c7381614c2c565b809150509250929050565b83815260006020606081840152614c9860608401866146c8565b83810360408581019190915285518083528387019284019060005b81811015614ce157845180516001600160a01b03168452860151868401529385019391830191600101614cb3565b50909998505050505050505050565b60008060408385031215614d0357600080fd5b50508035926020909101359150565b60006001600160401b03821115614d2b57614d2b614890565b50601f01601f191660200190565b6000614d47614a2484614d12565b9050828152838383011115614d5b57600080fd5b828260208301376000602084830101529392505050565b60008060008060808587031215614d8857600080fd5b8435614d9381614720565b93506020850135614da381614720565b92506040850135915060608501356001600160401b03811115614dc557600080fd5b8501601f81018713614dd657600080fd5b614de587823560208401614d39565b91505092959194509250565b600082601f830112614e0257600080fd5b611fdb83833560208501614d39565b803569ffffffffffffffffffff8116811461474057600080fd5b803565ffffffffffff8116811461474057600080fd5b803564ffffffffff8116811461474057600080fd5b803561ffff8116811461474057600080fd5b60006080808385031215614e7b57600080fd5b614e836148ce565b915082356001600160401b03811115614e9b57600080fd5b8301601f81018513614eac57600080fd5b80356020614ebc614a2483614989565b8281526101409283028401820192828201919089851115614edc57600080fd5b948301945b84861015614fab5780868b031215614ef95760008081fd5b614f016148f0565b614f0a87614e11565b8152614f17858801614e2b565b858201526040614f28818901614e41565b908201526060614f39888201614e56565b90820152614f48878901614e56565b8882015260a0614f59818901614735565b9082015260c0878101359082015260e0614f74818901614c3a565b90820152610100614f86888201614c3a565b90820152610120614f98888201614c3a565b9082015283529485019491830191614ee1565b50865250858101359085015250505060408083013590820152614fd060608301614735565b606082015292915050565b600060608284031215614fed57600080fd5b604051606081018181106001600160401b038211171561500f5761500f614890565b604052905080823561502081614c2c565b8152602083013561503081614c2c565b6020820152604083013561504381614c2c565b6040919091015292915050565b60008060008060008060008060008060006101a08c8e03121561507257600080fd5b8b359a5061508260208d01614735565b99506001600160401b038060408e0135111561509d57600080fd5b6150ad8e60408f01358f01614df1565b99508060608e013511156150c057600080fd5b6150d08e60608f01358f01614df1565b98506150de60808e01614735565b97508060a08e013511156150f157600080fd5b6151018e60a08f01358f01614df1565b965061510f60c08e01614735565b95508060e08e0135111561512257600080fd5b6151328e60e08f01358f01614df1565b9450806101008e0135111561514657600080fd5b506151588d6101008e01358e01614e68565b92506151676101208d01614735565b91506151778d6101408e01614fdb565b90509295989b509295989b9093969950565b6000602080838503121561519c57600080fd5b82356001600160401b038111156151b257600080fd5b8301601f810185136151c357600080fd5b80356151d1614a2482614989565b81815260069190911b820183019083810190878311156151f057600080fd5b928401925b82841015614a71576040848903121561520e5760008081fd5b6152166148a6565b843561522181614720565b815284860135868201528252604090930192908401906151f5565b60008060006060848603121561525157600080fd5b833561525c81614720565b95602085013595506040909401359392505050565b60006020828403121561528357600080fd5b81356001600160401b0381111561529957600080fd5b82016101a08185031215611fdb57600080fd5b6000602082840312156152be57600080fd5b81356001600160401b038111156152d457600080fd5b82016102008185031215611fdb57600080fd5b600080604083850312156152fa57600080fd5b823561530581614720565b91506020830135614c7381614720565b6000806000806040858703121561532b57600080fd5b84356001600160401b038082111561534257600080fd5b818701915087601f83011261535657600080fd5b81358181111561536557600080fd5b8860206101408302850101111561537b57600080fd5b60209283019650945090860135908082111561539657600080fd5b506153a387828801614a7c565b95989497509550505050565b600181811c908216806153c357607f821691505b60208210810361485657634e487b7160e01b600052602260045260246000fd5b634e487b7160e01b600052603260045260246000fd5b60006040828403121561540b57600080fd5b611fdb83836149ac565b805161474081614c2c565b60006020828403121561543257600080fd5b8151611fdb81614c2c565b6000808335601e1984360301811261545457600080fd5b8301803591506001600160401b0382111561546e57600080fd5b60200191503681900382131561455557600080fd5b6000808585111561549357600080fd5b838611156154a057600080fd5b5050820193919092039150565b6001600160e01b031981358181169160048510156154d55780818660040360031b1b83161692505b505092915050565b6000806000606084860312156154f257600080fd5b8335925060208085013561550581614671565b925060408501356001600160401b0381111561552057600080fd5b8501601f8101871361553157600080fd5b803561553f614a2482614989565b81815260059190911b8201830190838101908983111561555e57600080fd5b928401925b8284101561557c57833582529284019290840190615563565b80955050505050509250925092565b634e487b7160e01b600052601160045260246000fd5b80820180821115610a9a57610a9a61558b565b805161474081614720565b600061012082840312156155d257600080fd5b6155da614913565b825181526020830151602082015260408301516040820152606083015160608201526080830151608082015260a083015160a082015260c083015160c082015261562660e084016155b4565b60e0820152610100928301519281019290925250919050565b60006020828403121561565157600080fd5b5051919050565b81810381811115610a9a57610a9a61558b565b60008235603e1983360301811261568157600080fd5b9190910192915050565b6000808335601e198436030181126156a257600080fd5b8301803591506001600160401b038211156156bc57600080fd5b6020019150600581901b360382131561455557600080fd5b6000602082840312156156e657600080fd5b8151611fdb81614720565b84815260606020808301829052908201849052600090859060808401835b878110156157365761ffff61572385614e56565b168252928201929082019060010161570f565b50809350505050821515604083015295945050505050565b600082601f83011261575f57600080fd5b8151602061576f614a2483614989565b82815260059290921b8401810191818101908684111561578e57600080fd5b8286015b848110156157a95780518352918301918301615792565b509695505050505050565b600080604083850312156157c757600080fd5b82516001600160401b038111156157dd57600080fd5b6157e98582860161574e565b925050602083015190509250929050565b60006020828403121561580c57600080fd5b611fdb82614e56565b60208152816020820152818360408301376000818301604090810191909152601f909201601f19160101919050565b8183823760009101908152919050565b6000610160828403121561586757600080fd5b61586f614936565b825181526020830151602082015260408301516040820152606083015160608201526080830151608082015260a083015160a082015260c083015160c08201526158bb60e084016155b4565b60e082015261010083810151908201526101206158d9818501615415565b908201526101406158eb848201615415565b908201529392505050565b60006020828403121561590857600080fd5b81516001600160401b0381111561591e57600080fd5b6121f08482850161574e565b602080825282518282018190526000919060409081850190868401855b828110156159f6578151805169ffffffffffffffffffff1685528681015165ffffffffffff16878601528581015164ffffffffff168686015260608082015161ffff908116918701919091526080808301519091169086015260a0808201516001600160a01b03169086015260c0808201519086015260e08082015115159086015261010080820151151590860152610120908101511515908501526101409093019290850190600101615947565b5091979650505050505050565b600060208284031215615a1557600080fd5b81516001600160401b03811115615a2b57600080fd5b8201601f81018413615a3c57600080fd5b8051615a4a614a2482614d12565b818152856020838501011115615a5f57600080fd5b613e108260208301602086016146a4565b6020808252810182905260006001600160fb1b03831115615a9057600080fd5b8260051b80856040850137919091016040019392505050565b615ac682615ab683614e11565b69ffffffffffffffffffff169052565b615ad260208201614e2b565b65ffffffffffff166020830152615aeb60408201614e41565b64ffffffffff166040830152615b0360608201614e56565b61ffff166060830152615b1860808201614e56565b61ffff166080830152615b2d60a08201614735565b6001600160a01b031660a083015260c08181013590830152615b5160e08201614c3a565b151560e0830152610100615b66828201614c3a565b151590830152610120615b7a828201614c3a565b80151584830152610d13565b6020808252810182905260008360408301825b85811015615bbf57615bab8284615aa9565b610140928301929190910190600101615b99565b5095945050505050565b6101608101615bd88285615aa9565b6001600160a01b03929092166101409190910152919050565b634e487b7160e01b600052601260045260246000fd5b600082615c1657615c16615bf1565b500490565b60008351615c2d8184602088016146a4565b835190830190615c418183602088016146a4565b01949350505050565b600181815b80851115615c85578160001904821115615c6b57615c6b61558b565b80851615615c7857918102915b93841c9390800290615c4f565b509250929050565b600082615c9c57506001610a9a565b81615ca957506000610a9a565b8160018114615cbf5760028114615cc957615ce5565b6001915050610a9a565b60ff841115615cda57615cda61558b565b50506001821b610a9a565b5060208310610133831016604e8410600b8410161715615d08575081810a610a9a565b615d128383615c4a565b8060001904821115615d2657615d2661558b565b029392505050565b6000611fdb8383615c8d565b600080600080600080600060e0888a031215615d5557600080fd5b8735965060208089013596506040890135615d6f81614671565b95506060890135615d7f81614c2c565b94506080890135615d8f81614c2c565b935060a0890135615d9f81614c2c565b925060c08901356001600160401b03811115615dba57600080fd5b8901601f81018b13615dcb57600080fd5b8035615dd9614a2482614989565b81815260059190911b8201830190838101908d831115615df857600080fd5b928401925b82841015615e1d57615e0e84614e56565b82529284019290840190615dfd565b809550505050505092959891949750929550565b6001600160a01b0385811682528416602082015260408101839052608060608201819052600090615e64908301846146c8565b9695505050505050565b600060208284031215615e8057600080fd5b8151611fdb81614671565b601f821115610be057600081815260208120601f850160051c81016020861015615eb25750805b601f850160051c820191505b8181101561270357828155600101615ebe565b81516001600160401b03811115615eea57615eea614890565b615efe81615ef884546153af565b84615e8b565b602080601f831160018114615f335760008415615f1b5750858301515b600019600386901b1c1916600185901b178555612703565b600085815260208120601f198616915b82811015615f6257888601518255948401946001909101908401615f43565b5085821015615f805787850151600019600388901b60f8161c191681555b5050505050600190811b01905550565b600082615f9f57615f9f615bf1565b500690565b6000606082018583526020606081850152818651808452608086019150828801935060005b81811015615fe957845161ffff1683529383019391830191600101615fc9565b50508093505050508215156040830152949350505050565b60008060006060848603121561601657600080fd5b835192506020840151915060408401519050925092509256fe31323334353637383941424344454647484a4b4c4d4e505152535455565758595a6162636465666768696a6b6d6e6f707172737475767778797aa264697066735822122066d0c9ef72a023df3e0934a613e426abf5e1183f709388cfd01bd666e45e88e864736f6c63430008100033",
    "linkReferences": {}
  },
  "methodIdentifiers": {
    "END_GAME_PHASE()": "06bc0c90",
    "MINT_GAME_PHASE()": "bd50adf0",
    "TOTAL_REDEMPTION_WEIGHT()": "640abacd",
    "adjustTiers((uint80,uint48,uint40,uint16,uint16,address,bytes32,bool,bool,bool)[],uint256[])": "f5a38e63",
    "amountRedeemed()": "27f6e979",
    "approve(address,uint256)": "095ea7b3",
    "balanceOf(address)": "70a08231",
    "codeOrigin()": "1d153ca4",
    "contractURI()": "e8a3d485",
    "creditsOf(address)": "245a45b5",
    "didPay((address,uint256,uint256,(address,uint256,uint256,uint256),(address,uint256,uint256,uint256),uint256,address,bool,string,bytes))": "da9ee8b7",
    "didRedeem((address,uint256,uint256,uint256,(address,uint256,uint256,uint256),(address,uint256,uint256,uint256),address,string,bytes))": "2b13c58f",
    "directory()": "c41c2f24",
    "firstOwnerOf(uint256)": "54c6d1f5",
    "fundingCycleStore()": "557e7155",
    "getApproved(uint256)": "081812fc",
    "getPastTierTotalVotes(uint256,uint256)": "d31cc52c",
    "getPastTierVotes(address,uint256,uint256)": "d40e7146",
    "getTierDelegate(address,uint256)": "82732b6d",
    "getTierTotalVotes(uint256)": "94c5c5ca",
    "getTierVotes(address,uint256)": "ca323efe",
    "initialize(uint256,address,string,string,address,string,address,string,((uint80,uint48,uint40,uint16,uint16,address,bytes32,bool,bool,bool)[],uint256,uint256,address),address,(bool,bool,bool))": "bb52b6e4",
    "isApprovedForAll(address,address)": "e985e9c5",
    "mintFor((uint16[],address)[])": "36c1a93b",
    "mintFor(uint16[],address)": "6ac6d941",
    "mintReservesFor((uint256,uint256)[])": "2a596e53",
    "mintReservesFor(uint256,uint256)": "aa4fb15b",
    "name()": "06fdde03",
    "owner()": "8da5cb5b",
    "ownerOf(uint256)": "6352211e",
    "payParams((address,address,(address,uint256,uint256,uint256),uint256,uint256,address,uint256,uint256,string,bytes))": "d46cf171",
    "prices()": "d3419bf3",
    "pricingCurrency()": "64640c1e",
    "pricingDecimals()": "4ecba625",
    "projectId()": "3fafa127",
    "redeemParams((address,address,uint256,uint256,uint256,uint256,uint256,(address,uint256,uint256,uint256),bool,uint256,string,bytes))": "a51cfd18",
    "redeemedFromTier(uint256)": "943abfee",
    "renounceOwnership()": "715018a6",
    "safeTransferFrom(address,address,uint256)": "42842e0e",
    "safeTransferFrom(address,address,uint256,bytes)": "b88d4fde",
    "setApprovalForAll(address,bool)": "a22cb465",
    "setBaseUri(string)": "a0bcfc7f",
    "setContractUri(string)": "ccb4807b",
    "setDefaultReservedTokenBeneficiary(address)": "df487e26",
    "setTierDelegate(address,uint256)": "ab951e39",
    "setTierDelegates((address,uint256)[])": "c74b13d9",
    "setTierRedemptionWeights((uint256,uint256)[])": "2f441500",
    "setTokenUriResolver(address)": "2407497e",
    "store()": "975057e7",
    "supportsInterface(bytes4)": "01ffc9a7",
    "symbol()": "95d89b41",
    "tierRedemptionWeights()": "9df45468",
    "tokenURI(uint256)": "c87b56dd",
    "transferFrom(address,address,uint256)": "23b872dd",
    "transferOwnership(address)": "f2fde38b"
  },
  "id": 0
}