{
  "abi": [
    {
      "inputs": [],
      "name": "ALEADY_MINTED",
      "type": "error"
    },
    {
      "inputs": [],
      "name": "APPROVAL_TO_CURRENT_OWNER",
      "type": "error"
    },
    {
      "inputs": [],
      "name": "APPROVE_TO_CALLER",
      "type": "error"
    },
    {
      "inputs": [],
      "name": "BLOCK_NOT_YET_MINED",
      "type": "error"
    },
    {
      "inputs": [],
      "name": "CALLER_NOT_OWNER_OR_APPROVED",
      "type": "error"
    },
    {
      "inputs": [],
      "name": "DELEGATE_ADDRESS_ZERO",
      "type": "error"
    },
    {
      "inputs": [],
      "name": "GAME_ISNT_OVER_YET",
      "type": "error"
    },
    {
      "inputs": [],
      "name": "INCORRECT_OWNER",
      "type": "error"
    },
    {
      "inputs": [],
      "name": "INVALID_PAYMENT_EVENT",
      "type": "error"
    },
    {
      "inputs": [],
      "name": "INVALID_REDEMPTION_EVENT",
      "type": "error"
    },
    {
      "inputs": [],
      "name": "INVALID_REDEMPTION_METADATA",
      "type": "error"
    },
    {
      "inputs": [],
      "name": "INVALID_REDEMPTION_WEIGHTS",
      "type": "error"
    },
    {
      "inputs": [],
      "name": "INVALID_TIER_ID",
      "type": "error"
    },
    {
      "inputs": [],
      "name": "INVALID_TOKEN_ID",
      "type": "error"
    },
    {
      "inputs": [],
      "name": "MINT_TO_ZERO",
      "type": "error"
    },
    {
      "inputs": [],
      "name": "NOTHING_TO_CLAIM",
      "type": "error"
    },
    {
      "inputs": [],
      "name": "NOT_AVAILABLE",
      "type": "error"
    },
    {
      "inputs": [],
      "name": "OVERSPENDING",
      "type": "error"
    },
    {
      "inputs": [
        {
          "internalType": "uint256",
          "name": "prod1",
          "type": "uint256"
        },
        {
          "internalType": "uint256",
          "name": "denominator",
          "type": "uint256"
        }
      ],
      "name": "PRBMath__MulDivOverflow",
      "type": "error"
    },
    {
      "inputs": [],
      "name": "PRICING_RESOLVER_CHANGES_PAUSED",
      "type": "error"
    },
    {
      "inputs": [],
      "name": "RESERVED_TOKEN_MINTING_PAUSED",
      "type": "error"
    },
    {
      "inputs": [],
      "name": "TRANSFERS_PAUSED",
      "type": "error"
    },
    {
      "inputs": [],
      "name": "TRANSFER_TO_NON_IMPLEMENTER",
      "type": "error"
    },
    {
      "inputs": [],
      "name": "TRANSFER_TO_ZERO_ADDRESS",
      "type": "error"
    },
    {
      "inputs": [],
      "name": "UNAUTHORIZED",
      "type": "error"
    },
    {
      "inputs": [],
      "name": "UNEXPECTED_TOKEN_REDEEMED",
      "type": "error"
    },
    {
      "anonymous": false,
      "inputs": [
        {
          "indexed": true,
          "internalType": "uint256",
          "name": "tierId",
          "type": "uint256"
        },
        {
          "components": [
            {
              "internalType": "uint80",
              "name": "contributionFloor",
              "type": "uint80"
            },
            {
              "internalType": "uint48",
              "name": "lockedUntil",
              "type": "uint48"
            },
            {
              "internalType": "uint40",
              "name": "initialQuantity",
              "type": "uint40"
            },
            {
              "internalType": "uint16",
              "name": "votingUnits",
              "type": "uint16"
            },
            {
              "internalType": "uint16",
              "name": "reservedRate",
              "type": "uint16"
            },
            {
              "internalType": "address",
              "name": "reservedTokenBeneficiary",
              "type": "address"
            },
            {
              "internalType": "bytes32",
              "name": "encodedIPFSUri",
              "type": "bytes32"
            },
            {
              "internalType": "bool",
              "name": "allowManualMint",
              "type": "bool"
            },
            {
              "internalType": "bool",
              "name": "shouldUseBeneficiaryAsDefault",
              "type": "bool"
            },
            {
              "internalType": "bool",
              "name": "transfersPausable",
              "type": "bool"
            }
          ],
          "indexed": false,
          "internalType": "struct JB721TierParams",
          "name": "data",
          "type": "tuple"
        },
        {
          "indexed": false,
          "internalType": "address",
          "name": "caller",
          "type": "address"
        }
      ],
      "name": "AddTier",
      "type": "event"
    },
    {
      "anonymous": false,
      "inputs": [
        {
          "indexed": true,
          "internalType": "address",
          "name": "owner",
          "type": "address"
        },
        {
          "indexed": true,
          "internalType": "address",
          "name": "approved",
          "type": "address"
        },
        {
          "indexed": true,
          "internalType": "uint256",
          "name": "tokenId",
          "type": "uint256"
        }
      ],
      "name": "Approval",
      "type": "event"
    },
    {
      "anonymous": false,
      "inputs": [
        {
          "indexed": true,
          "internalType": "address",
          "name": "owner",
          "type": "address"
        },
        {
          "indexed": true,
          "internalType": "address",
          "name": "operator",
          "type": "address"
        },
        {
          "indexed": false,
          "internalType": "bool",
          "name": "approved",
          "type": "bool"
        }
      ],
      "name": "ApprovalForAll",
      "type": "event"
    },
    {
      "anonymous": false,
      "inputs": [
        {
          "indexed": true,
          "internalType": "address",
          "name": "delegator",
          "type": "address"
        },
        {
          "indexed": true,
          "internalType": "address",
          "name": "fromDelegate",
          "type": "address"
        },
        {
          "indexed": true,
          "internalType": "address",
          "name": "toDelegate",
          "type": "address"
        }
      ],
      "name": "DelegateChanged",
      "type": "event"
    },
    {
      "anonymous": false,
      "inputs": [
        {
          "indexed": true,
          "internalType": "uint256",
          "name": "tokenId",
          "type": "uint256"
        },
        {
          "indexed": true,
          "internalType": "uint256",
          "name": "tierId",
          "type": "uint256"
        },
        {
          "indexed": true,
          "internalType": "address",
          "name": "beneficiary",
          "type": "address"
        },
        {
          "indexed": false,
          "internalType": "uint256",
          "name": "totalAmountContributed",
          "type": "uint256"
        },
        {
          "indexed": false,
          "internalType": "address",
          "name": "caller",
          "type": "address"
        }
      ],
      "name": "Mint",
      "type": "event"
    },
    {
      "anonymous": false,
      "inputs": [
        {
          "indexed": true,
          "internalType": "uint256",
          "name": "tokenId",
          "type": "uint256"
        },
        {
          "indexed": true,
          "internalType": "uint256",
          "name": "tierId",
          "type": "uint256"
        },
        {
          "indexed": true,
          "internalType": "address",
          "name": "beneficiary",
          "type": "address"
        },
        {
          "indexed": false,
          "internalType": "address",
          "name": "caller",
          "type": "address"
        }
      ],
      "name": "MintReservedToken",
      "type": "event"
    },
    {
      "anonymous": false,
      "inputs": [
        {
          "indexed": true,
          "internalType": "address",
          "name": "previousOwner",
          "type": "address"
        },
        {
          "indexed": true,
          "internalType": "address",
          "name": "newOwner",
          "type": "address"
        }
      ],
      "name": "OwnershipTransferred",
      "type": "event"
    },
    {
      "anonymous": false,
      "inputs": [
        {
          "indexed": true,
          "internalType": "uint256",
          "name": "tierId",
          "type": "uint256"
        },
        {
          "indexed": false,
          "internalType": "address",
          "name": "caller",
          "type": "address"
        }
      ],
      "name": "RemoveTier",
      "type": "event"
    },
    {
      "anonymous": false,
      "inputs": [
        {
          "indexed": true,
          "internalType": "string",
          "name": "baseUri",
          "type": "string"
        },
        {
          "indexed": false,
          "internalType": "address",
          "name": "caller",
          "type": "address"
        }
      ],
      "name": "SetBaseUri",
      "type": "event"
    },
    {
      "anonymous": false,
      "inputs": [
        {
          "indexed": true,
          "internalType": "string",
          "name": "contractUri",
          "type": "string"
        },
        {
          "indexed": false,
          "internalType": "address",
          "name": "caller",
          "type": "address"
        }
      ],
      "name": "SetContractUri",
      "type": "event"
    },
    {
      "anonymous": false,
      "inputs": [
        {
          "indexed": true,
          "internalType": "address",
          "name": "beneficiary",
          "type": "address"
        },
        {
          "indexed": false,
          "internalType": "address",
          "name": "caller",
          "type": "address"
        }
      ],
      "name": "SetDefaultReservedTokenBeneficiary",
      "type": "event"
    },
    {
      "anonymous": false,
      "inputs": [
        {
          "indexed": true,
          "internalType": "contract IJBTokenUriResolver",
          "name": "newResolver",
          "type": "address"
        },
        {
          "indexed": false,
          "internalType": "address",
          "name": "caller",
          "type": "address"
        }
      ],
      "name": "SetTokenUriResolver",
      "type": "event"
    },
    {
      "anonymous": false,
      "inputs": [
        {
          "indexed": true,
          "internalType": "address",
          "name": "delegator",
          "type": "address"
        },
        {
          "indexed": true,
          "internalType": "address",
          "name": "fromDelegate",
          "type": "address"
        },
        {
          "indexed": true,
          "internalType": "address",
          "name": "toDelegate",
          "type": "address"
        },
        {
          "indexed": false,
          "internalType": "uint256",
          "name": "tierId",
          "type": "uint256"
        },
        {
          "indexed": false,
          "internalType": "address",
          "name": "caller",
          "type": "address"
        }
      ],
      "name": "TierDelegateChanged",
      "type": "event"
    },
    {
      "anonymous": false,
      "inputs": [
        {
          "indexed": true,
          "internalType": "address",
          "name": "delegate",
          "type": "address"
        },
        {
          "indexed": true,
          "internalType": "uint256",
          "name": "tierId",
          "type": "uint256"
        },
        {
          "indexed": false,
          "internalType": "uint256",
          "name": "previousBalance",
          "type": "uint256"
        },
        {
          "indexed": false,
          "internalType": "uint256",
          "name": "newBalance",
          "type": "uint256"
        },
        {
          "indexed": false,
          "internalType": "address",
          "name": "callre",
          "type": "address"
        }
      ],
      "name": "TierDelegateVotesChanged",
      "type": "event"
    },
    {
      "anonymous": false,
      "inputs": [
        {
          "indexed": true,
          "internalType": "address",
          "name": "from",
          "type": "address"
        },
        {
          "indexed": true,
          "internalType": "address",
          "name": "to",
          "type": "address"
        },
        {
          "indexed": true,
          "internalType": "uint256",
          "name": "tokenId",
          "type": "uint256"
        }
      ],
      "name": "Transfer",
      "type": "event"
    },
    {
      "inputs": [],
      "name": "TOTAL_REDEMPTION_WEIGHT",
      "outputs": [
        {
          "internalType": "uint256",
          "name": "",
          "type": "uint256"
        }
      ],
      "stateMutability": "view",
      "type": "function"
    },
    {
      "inputs": [
        {
          "components": [
            {
              "internalType": "uint80",
              "name": "contributionFloor",
              "type": "uint80"
            },
            {
              "internalType": "uint48",
              "name": "lockedUntil",
              "type": "uint48"
            },
            {
              "internalType": "uint40",
              "name": "initialQuantity",
              "type": "uint40"
            },
            {
              "internalType": "uint16",
              "name": "votingUnits",
              "type": "uint16"
            },
            {
              "internalType": "uint16",
              "name": "reservedRate",
              "type": "uint16"
            },
            {
              "internalType": "address",
              "name": "reservedTokenBeneficiary",
              "type": "address"
            },
            {
              "internalType": "bytes32",
              "name": "encodedIPFSUri",
              "type": "bytes32"
            },
            {
              "internalType": "bool",
              "name": "allowManualMint",
              "type": "bool"
            },
            {
              "internalType": "bool",
              "name": "shouldUseBeneficiaryAsDefault",
              "type": "bool"
            },
            {
              "internalType": "bool",
              "name": "transfersPausable",
              "type": "bool"
            }
          ],
          "internalType": "struct JB721TierParams[]",
          "name": "_tiersToAdd",
          "type": "tuple[]"
        },
        {
          "internalType": "uint256[]",
          "name": "_tierIdsToRemove",
          "type": "uint256[]"
        }
      ],
      "name": "adjustTiers",
      "outputs": [],
      "stateMutability": "nonpayable",
      "type": "function"
    },
    {
      "inputs": [
        {
          "internalType": "address",
          "name": "to",
          "type": "address"
        },
        {
          "internalType": "uint256",
          "name": "tokenId",
          "type": "uint256"
        }
      ],
      "name": "approve",
      "outputs": [],
      "stateMutability": "nonpayable",
      "type": "function"
    },
    {
      "inputs": [
        {
          "internalType": "address",
          "name": "_owner",
          "type": "address"
        }
      ],
      "name": "balanceOf",
      "outputs": [
        {
          "internalType": "uint256",
          "name": "balance",
          "type": "uint256"
        }
      ],
      "stateMutability": "view",
      "type": "function"
    },
    {
      "inputs": [],
      "name": "codeOrigin",
      "outputs": [
        {
          "internalType": "address",
          "name": "",
          "type": "address"
        }
      ],
      "stateMutability": "view",
      "type": "function"
    },
    {
      "inputs": [],
      "name": "contractURI",
      "outputs": [
        {
          "internalType": "string",
          "name": "",
          "type": "string"
        }
      ],
      "stateMutability": "view",
      "type": "function"
    },
    {
      "inputs": [
        {
          "internalType": "address",
          "name": "",
          "type": "address"
        }
      ],
      "name": "creditsOf",
      "outputs": [
        {
          "internalType": "uint256",
          "name": "",
          "type": "uint256"
        }
      ],
      "stateMutability": "view",
      "type": "function"
    },
    {
      "inputs": [
        {
          "components": [
            {
              "internalType": "address",
              "name": "payer",
              "type": "address"
            },
            {
              "internalType": "uint256",
              "name": "projectId",
              "type": "uint256"
            },
            {
              "internalType": "uint256",
              "name": "currentFundingCycleConfiguration",
              "type": "uint256"
            },
            {
              "components": [
                {
                  "internalType": "address",
                  "name": "token",
                  "type": "address"
                },
                {
                  "internalType": "uint256",
                  "name": "value",
                  "type": "uint256"
                },
                {
                  "internalType": "uint256",
                  "name": "decimals",
                  "type": "uint256"
                },
                {
                  "internalType": "uint256",
                  "name": "currency",
                  "type": "uint256"
                }
              ],
              "internalType": "struct JBTokenAmount",
              "name": "amount",
              "type": "tuple"
            },
            {
              "components": [
                {
                  "internalType": "address",
                  "name": "token",
                  "type": "address"
                },
                {
                  "internalType": "uint256",
                  "name": "value",
                  "type": "uint256"
                },
                {
                  "internalType": "uint256",
                  "name": "decimals",
                  "type": "uint256"
                },
                {
                  "internalType": "uint256",
                  "name": "currency",
                  "type": "uint256"
                }
              ],
              "internalType": "struct JBTokenAmount",
              "name": "forwardedAmount",
              "type": "tuple"
            },
            {
              "internalType": "uint256",
              "name": "projectTokenCount",
              "type": "uint256"
            },
            {
              "internalType": "address",
              "name": "beneficiary",
              "type": "address"
            },
            {
              "internalType": "bool",
              "name": "preferClaimedTokens",
              "type": "bool"
            },
            {
              "internalType": "string",
              "name": "memo",
              "type": "string"
            },
            {
              "internalType": "bytes",
              "name": "metadata",
              "type": "bytes"
            }
          ],
          "internalType": "struct JBDidPayData",
          "name": "_data",
          "type": "tuple"
        }
      ],
      "name": "didPay",
      "outputs": [],
      "stateMutability": "payable",
      "type": "function"
    },
    {
      "inputs": [
        {
          "components": [
            {
              "internalType": "address",
              "name": "holder",
              "type": "address"
            },
            {
              "internalType": "uint256",
              "name": "projectId",
              "type": "uint256"
            },
            {
              "internalType": "uint256",
              "name": "currentFundingCycleConfiguration",
              "type": "uint256"
            },
            {
              "internalType": "uint256",
              "name": "projectTokenCount",
              "type": "uint256"
            },
            {
              "components": [
                {
                  "internalType": "address",
                  "name": "token",
                  "type": "address"
                },
                {
                  "internalType": "uint256",
                  "name": "value",
                  "type": "uint256"
                },
                {
                  "internalType": "uint256",
                  "name": "decimals",
                  "type": "uint256"
                },
                {
                  "internalType": "uint256",
                  "name": "currency",
                  "type": "uint256"
                }
              ],
              "internalType": "struct JBTokenAmount",
              "name": "reclaimedAmount",
              "type": "tuple"
            },
            {
              "components": [
                {
                  "internalType": "address",
                  "name": "token",
                  "type": "address"
                },
                {
                  "internalType": "uint256",
                  "name": "value",
                  "type": "uint256"
                },
                {
                  "internalType": "uint256",
                  "name": "decimals",
                  "type": "uint256"
                },
                {
                  "internalType": "uint256",
                  "name": "currency",
                  "type": "uint256"
                }
              ],
              "internalType": "struct JBTokenAmount",
              "name": "forwardedAmount",
              "type": "tuple"
            },
            {
              "internalType": "address payable",
              "name": "beneficiary",
              "type": "address"
            },
            {
              "internalType": "string",
              "name": "memo",
              "type": "string"
            },
            {
              "internalType": "bytes",
              "name": "metadata",
              "type": "bytes"
            }
          ],
          "internalType": "struct JBDidRedeemData",
          "name": "_data",
          "type": "tuple"
        }
      ],
      "name": "didRedeem",
      "outputs": [],
      "stateMutability": "payable",
      "type": "function"
    },
    {
      "inputs": [],
      "name": "directory",
      "outputs": [
        {
          "internalType": "contract IJBDirectory",
          "name": "",
          "type": "address"
        }
      ],
      "stateMutability": "view",
      "type": "function"
    },
    {
      "inputs": [
        {
          "internalType": "uint256",
          "name": "_tokenId",
          "type": "uint256"
        }
      ],
      "name": "firstOwnerOf",
      "outputs": [
        {
          "internalType": "address",
          "name": "",
          "type": "address"
        }
      ],
      "stateMutability": "view",
      "type": "function"
    },
    {
      "inputs": [],
      "name": "fundingCycleStore",
      "outputs": [
        {
          "internalType": "contract IJBFundingCycleStore",
          "name": "",
          "type": "address"
        }
      ],
      "stateMutability": "view",
      "type": "function"
    },
    {
      "inputs": [
        {
          "internalType": "uint256",
          "name": "tokenId",
          "type": "uint256"
        }
      ],
      "name": "getApproved",
      "outputs": [
        {
          "internalType": "address",
          "name": "",
          "type": "address"
        }
      ],
      "stateMutability": "view",
      "type": "function"
    },
    {
      "inputs": [
        {
          "internalType": "uint256",
          "name": "_tier",
          "type": "uint256"
        },
        {
          "internalType": "uint256",
          "name": "_blockNumber",
          "type": "uint256"
        }
      ],
      "name": "getPastTierTotalVotes",
      "outputs": [
        {
          "internalType": "uint256",
          "name": "",
          "type": "uint256"
        }
      ],
      "stateMutability": "view",
      "type": "function"
    },
    {
      "inputs": [
        {
          "internalType": "address",
          "name": "_account",
          "type": "address"
        },
        {
          "internalType": "uint256",
          "name": "_tier",
          "type": "uint256"
        },
        {
          "internalType": "uint256",
          "name": "_blockNumber",
          "type": "uint256"
        }
      ],
      "name": "getPastTierVotes",
      "outputs": [
        {
          "internalType": "uint256",
          "name": "",
          "type": "uint256"
        }
      ],
      "stateMutability": "view",
      "type": "function"
    },
    {
      "inputs": [
        {
          "internalType": "address",
          "name": "_account",
          "type": "address"
        },
        {
          "internalType": "uint256",
          "name": "_tier",
          "type": "uint256"
        }
      ],
      "name": "getTierDelegate",
      "outputs": [
        {
          "internalType": "address",
          "name": "",
          "type": "address"
        }
      ],
      "stateMutability": "view",
      "type": "function"
    },
    {
      "inputs": [
        {
          "internalType": "uint256",
          "name": "_tier",
          "type": "uint256"
        }
      ],
      "name": "getTierTotalVotes",
      "outputs": [
        {
          "internalType": "uint256",
          "name": "",
          "type": "uint256"
        }
      ],
      "stateMutability": "view",
      "type": "function"
    },
    {
      "inputs": [
        {
          "internalType": "address",
          "name": "_account",
          "type": "address"
        },
        {
          "internalType": "uint256",
          "name": "_tier",
          "type": "uint256"
        }
      ],
      "name": "getTierVotes",
      "outputs": [
        {
          "internalType": "uint256",
          "name": "",
          "type": "uint256"
        }
      ],
      "stateMutability": "view",
      "type": "function"
    },
    {
      "inputs": [
        {
          "internalType": "uint256",
          "name": "_projectId",
          "type": "uint256"
        },
        {
          "internalType": "contract IJBDirectory",
          "name": "_directory",
          "type": "address"
        },
        {
          "internalType": "string",
          "name": "_name",
          "type": "string"
        },
        {
          "internalType": "string",
          "name": "_symbol",
          "type": "string"
        },
        {
          "internalType": "contract IJBFundingCycleStore",
          "name": "_fundingCycleStore",
          "type": "address"
        },
        {
          "internalType": "string",
          "name": "_baseUri",
          "type": "string"
        },
        {
          "internalType": "contract IJBTokenUriResolver",
          "name": "_tokenUriResolver",
          "type": "address"
        },
        {
          "internalType": "string",
          "name": "_contractUri",
          "type": "string"
        },
        {
          "components": [
            {
              "components": [
                {
                  "internalType": "uint80",
                  "name": "contributionFloor",
                  "type": "uint80"
                },
                {
                  "internalType": "uint48",
                  "name": "lockedUntil",
                  "type": "uint48"
                },
                {
                  "internalType": "uint40",
                  "name": "initialQuantity",
                  "type": "uint40"
                },
                {
                  "internalType": "uint16",
                  "name": "votingUnits",
                  "type": "uint16"
                },
                {
                  "internalType": "uint16",
                  "name": "reservedRate",
                  "type": "uint16"
                },
                {
                  "internalType": "address",
                  "name": "reservedTokenBeneficiary",
                  "type": "address"
                },
                {
                  "internalType": "bytes32",
                  "name": "encodedIPFSUri",
                  "type": "bytes32"
                },
                {
                  "internalType": "bool",
                  "name": "allowManualMint",
                  "type": "bool"
                },
                {
                  "internalType": "bool",
                  "name": "shouldUseBeneficiaryAsDefault",
                  "type": "bool"
                },
                {
                  "internalType": "bool",
                  "name": "transfersPausable",
                  "type": "bool"
                }
              ],
              "internalType": "struct JB721TierParams[]",
              "name": "tiers",
              "type": "tuple[]"
            },
            {
              "internalType": "uint256",
              "name": "currency",
              "type": "uint256"
            },
            {
              "internalType": "uint256",
              "name": "decimals",
              "type": "uint256"
            },
            {
              "internalType": "contract IJBPrices",
              "name": "prices",
              "type": "address"
            }
          ],
          "internalType": "struct JB721PricingParams",
          "name": "_pricing",
          "type": "tuple"
        },
        {
          "internalType": "contract IJBTiered721DelegateStore",
          "name": "_store",
          "type": "address"
        },
        {
          "components": [
            {
              "internalType": "bool",
              "name": "lockReservedTokenChanges",
              "type": "bool"
            },
            {
              "internalType": "bool",
              "name": "lockVotingUnitChanges",
              "type": "bool"
            },
            {
              "internalType": "bool",
              "name": "lockManualMintingChanges",
              "type": "bool"
            }
          ],
          "internalType": "struct JBTiered721Flags",
          "name": "_flags",
          "type": "tuple"
        }
      ],
      "name": "initialize",
      "outputs": [],
      "stateMutability": "nonpayable",
      "type": "function"
    },
    {
      "inputs": [
        {
          "internalType": "address",
          "name": "owner",
          "type": "address"
        },
        {
          "internalType": "address",
          "name": "operator",
          "type": "address"
        }
      ],
      "name": "isApprovedForAll",
      "outputs": [
        {
          "internalType": "bool",
          "name": "",
          "type": "bool"
        }
      ],
      "stateMutability": "view",
      "type": "function"
    },
    {
      "inputs": [
        {
          "components": [
            {
              "internalType": "uint16[]",
              "name": "tierIds",
              "type": "uint16[]"
            },
            {
              "internalType": "address",
              "name": "beneficiary",
              "type": "address"
            }
          ],
          "internalType": "struct JBTiered721MintForTiersData[]",
          "name": "_mintForTiersData",
          "type": "tuple[]"
        }
      ],
      "name": "mintFor",
      "outputs": [],
      "stateMutability": "nonpayable",
      "type": "function"
    },
    {
      "inputs": [
        {
          "internalType": "uint16[]",
          "name": "_tierIds",
          "type": "uint16[]"
        },
        {
          "internalType": "address",
          "name": "_beneficiary",
          "type": "address"
        }
      ],
      "name": "mintFor",
      "outputs": [
        {
          "internalType": "uint256[]",
          "name": "tokenIds",
          "type": "uint256[]"
        }
      ],
      "stateMutability": "nonpayable",
      "type": "function"
    },
    {
      "inputs": [
        {
          "components": [
            {
              "internalType": "uint256",
              "name": "tierId",
              "type": "uint256"
            },
            {
              "internalType": "uint256",
              "name": "count",
              "type": "uint256"
            }
          ],
          "internalType": "struct JBTiered721MintReservesForTiersData[]",
          "name": "_mintReservesForTiersData",
          "type": "tuple[]"
        }
      ],
      "name": "mintReservesFor",
      "outputs": [],
      "stateMutability": "nonpayable",
      "type": "function"
    },
    {
      "inputs": [
        {
          "internalType": "uint256",
          "name": "_tierId",
          "type": "uint256"
        },
        {
          "internalType": "uint256",
          "name": "_count",
          "type": "uint256"
        }
      ],
      "name": "mintReservesFor",
      "outputs": [],
      "stateMutability": "nonpayable",
      "type": "function"
    },
    {
      "inputs": [],
      "name": "name",
      "outputs": [
        {
          "internalType": "string",
          "name": "",
          "type": "string"
        }
      ],
      "stateMutability": "view",
      "type": "function"
    },
    {
      "inputs": [],
      "name": "owner",
      "outputs": [
        {
          "internalType": "address",
          "name": "",
          "type": "address"
        }
      ],
      "stateMutability": "view",
      "type": "function"
    },
    {
      "inputs": [
        {
          "internalType": "uint256",
          "name": "tokenId",
          "type": "uint256"
        }
      ],
      "name": "ownerOf",
      "outputs": [
        {
          "internalType": "address",
          "name": "",
          "type": "address"
        }
      ],
      "stateMutability": "view",
      "type": "function"
    },
    {
      "inputs": [
        {
          "components": [
            {
              "internalType": "contract IJBPaymentTerminal",
              "name": "terminal",
              "type": "address"
            },
            {
              "internalType": "address",
              "name": "payer",
              "type": "address"
            },
            {
              "components": [
                {
                  "internalType": "address",
                  "name": "token",
                  "type": "address"
                },
                {
                  "internalType": "uint256",
                  "name": "value",
                  "type": "uint256"
                },
                {
                  "internalType": "uint256",
                  "name": "decimals",
                  "type": "uint256"
                },
                {
                  "internalType": "uint256",
                  "name": "currency",
                  "type": "uint256"
                }
              ],
              "internalType": "struct JBTokenAmount",
              "name": "amount",
              "type": "tuple"
            },
            {
              "internalType": "uint256",
              "name": "projectId",
              "type": "uint256"
            },
            {
              "internalType": "uint256",
              "name": "currentFundingCycleConfiguration",
              "type": "uint256"
            },
            {
              "internalType": "address",
              "name": "beneficiary",
              "type": "address"
            },
            {
              "internalType": "uint256",
              "name": "weight",
              "type": "uint256"
            },
            {
              "internalType": "uint256",
              "name": "reservedRate",
              "type": "uint256"
            },
            {
              "internalType": "string",
              "name": "memo",
              "type": "string"
            },
            {
              "internalType": "bytes",
              "name": "metadata",
              "type": "bytes"
            }
          ],
          "internalType": "struct JBPayParamsData",
          "name": "_data",
          "type": "tuple"
        }
      ],
      "name": "payParams",
      "outputs": [
        {
          "internalType": "uint256",
          "name": "weight",
          "type": "uint256"
        },
        {
          "internalType": "string",
          "name": "memo",
          "type": "string"
        },
        {
          "components": [
            {
              "internalType": "contract IJBPayDelegate",
              "name": "delegate",
              "type": "address"
            },
            {
              "internalType": "uint256",
              "name": "amount",
              "type": "uint256"
            }
          ],
          "internalType": "struct JBPayDelegateAllocation[]",
          "name": "delegateAllocations",
          "type": "tuple[]"
        }
      ],
      "stateMutability": "view",
      "type": "function"
    },
    {
      "inputs": [],
      "name": "prices",
      "outputs": [
        {
          "internalType": "contract IJBPrices",
          "name": "",
          "type": "address"
        }
      ],
      "stateMutability": "view",
      "type": "function"
    },
    {
      "inputs": [],
      "name": "pricingCurrency",
      "outputs": [
        {
          "internalType": "uint256",
          "name": "",
          "type": "uint256"
        }
      ],
      "stateMutability": "view",
      "type": "function"
    },
    {
      "inputs": [],
      "name": "pricingDecimals",
      "outputs": [
        {
          "internalType": "uint256",
          "name": "",
          "type": "uint256"
        }
      ],
      "stateMutability": "view",
      "type": "function"
    },
    {
      "inputs": [],
      "name": "projectId",
      "outputs": [
        {
          "internalType": "uint256",
          "name": "",
          "type": "uint256"
        }
      ],
      "stateMutability": "view",
      "type": "function"
    },
    {
      "inputs": [
        {
          "components": [
            {
              "internalType": "contract IJBPaymentTerminal",
              "name": "terminal",
              "type": "address"
            },
            {
              "internalType": "address",
              "name": "holder",
              "type": "address"
            },
            {
              "internalType": "uint256",
              "name": "projectId",
              "type": "uint256"
            },
            {
              "internalType": "uint256",
              "name": "currentFundingCycleConfiguration",
              "type": "uint256"
            },
            {
              "internalType": "uint256",
              "name": "tokenCount",
              "type": "uint256"
            },
            {
              "internalType": "uint256",
              "name": "totalSupply",
              "type": "uint256"
            },
            {
              "internalType": "uint256",
              "name": "overflow",
              "type": "uint256"
            },
            {
              "components": [
                {
                  "internalType": "address",
                  "name": "token",
                  "type": "address"
                },
                {
                  "internalType": "uint256",
                  "name": "value",
                  "type": "uint256"
                },
                {
                  "internalType": "uint256",
                  "name": "decimals",
                  "type": "uint256"
                },
                {
                  "internalType": "uint256",
                  "name": "currency",
                  "type": "uint256"
                }
              ],
              "internalType": "struct JBTokenAmount",
              "name": "reclaimAmount",
              "type": "tuple"
            },
            {
              "internalType": "bool",
              "name": "useTotalOverflow",
              "type": "bool"
            },
            {
              "internalType": "uint256",
              "name": "redemptionRate",
              "type": "uint256"
            },
            {
              "internalType": "string",
              "name": "memo",
              "type": "string"
            },
            {
              "internalType": "bytes",
              "name": "metadata",
              "type": "bytes"
            }
          ],
          "internalType": "struct JBRedeemParamsData",
          "name": "_data",
          "type": "tuple"
        }
      ],
      "name": "redeemParams",
      "outputs": [
        {
          "internalType": "uint256",
          "name": "reclaimAmount",
          "type": "uint256"
        },
        {
          "internalType": "string",
          "name": "memo",
          "type": "string"
        },
        {
          "components": [
            {
              "internalType": "contract IJBRedemptionDelegate",
              "name": "delegate",
              "type": "address"
            },
            {
              "internalType": "uint256",
              "name": "amount",
              "type": "uint256"
            }
          ],
          "internalType": "struct JBRedemptionDelegateAllocation[]",
          "name": "delegateAllocations",
          "type": "tuple[]"
        }
      ],
      "stateMutability": "view",
      "type": "function"
    },
    {
      "inputs": [],
      "name": "renounceOwnership",
      "outputs": [],
      "stateMutability": "nonpayable",
      "type": "function"
    },
    {
      "inputs": [
        {
          "internalType": "address",
          "name": "from",
          "type": "address"
        },
        {
          "internalType": "address",
          "name": "to",
          "type": "address"
        },
        {
          "internalType": "uint256",
          "name": "tokenId",
          "type": "uint256"
        }
      ],
      "name": "safeTransferFrom",
      "outputs": [],
      "stateMutability": "nonpayable",
      "type": "function"
    },
    {
      "inputs": [
        {
          "internalType": "address",
          "name": "from",
          "type": "address"
        },
        {
          "internalType": "address",
          "name": "to",
          "type": "address"
        },
        {
          "internalType": "uint256",
          "name": "tokenId",
          "type": "uint256"
        },
        {
          "internalType": "bytes",
          "name": "data",
          "type": "bytes"
        }
      ],
      "name": "safeTransferFrom",
      "outputs": [],
      "stateMutability": "nonpayable",
      "type": "function"
    },
    {
      "inputs": [
        {
          "internalType": "address",
          "name": "operator",
          "type": "address"
        },
        {
          "internalType": "bool",
          "name": "approved",
          "type": "bool"
        }
      ],
      "name": "setApprovalForAll",
      "outputs": [],
      "stateMutability": "nonpayable",
      "type": "function"
    },
    {
      "inputs": [
        {
          "internalType": "string",
          "name": "_baseUri",
          "type": "string"
        }
      ],
      "name": "setBaseUri",
      "outputs": [],
      "stateMutability": "nonpayable",
      "type": "function"
    },
    {
      "inputs": [
        {
          "internalType": "string",
          "name": "_contractUri",
          "type": "string"
        }
      ],
      "name": "setContractUri",
      "outputs": [],
      "stateMutability": "nonpayable",
      "type": "function"
    },
    {
      "inputs": [
        {
          "internalType": "address",
          "name": "_beneficiary",
          "type": "address"
        }
      ],
      "name": "setDefaultReservedTokenBeneficiary",
      "outputs": [],
      "stateMutability": "nonpayable",
      "type": "function"
    },
    {
      "inputs": [
        {
          "internalType": "address",
          "name": "_delegatee",
          "type": "address"
        },
        {
          "internalType": "uint256",
          "name": "_tierId",
          "type": "uint256"
        }
      ],
      "name": "setTierDelegate",
      "outputs": [],
      "stateMutability": "nonpayable",
      "type": "function"
    },
    {
      "inputs": [
        {
          "components": [
            {
              "internalType": "address",
              "name": "delegatee",
              "type": "address"
            },
            {
              "internalType": "uint256",
              "name": "tierId",
              "type": "uint256"
            }
          ],
          "internalType": "struct JBTiered721SetTierDelegatesData[]",
          "name": "_setTierDelegatesData",
          "type": "tuple[]"
        }
      ],
      "name": "setTierDelegates",
      "outputs": [],
      "stateMutability": "nonpayable",
      "type": "function"
    },
    {
      "inputs": [
        {
          "components": [
            {
              "internalType": "uint256",
              "name": "id",
              "type": "uint256"
            },
            {
              "internalType": "uint256",
              "name": "redemptionWeight",
              "type": "uint256"
            }
          ],
          "internalType": "struct DefifaTierRedemptionWeight[]",
          "name": "_tierWeights",
          "type": "tuple[]"
        }
      ],
      "name": "setTierRedemptionWeights",
      "outputs": [],
      "stateMutability": "nonpayable",
      "type": "function"
    },
    {
      "inputs": [
        {
          "internalType": "contract IJBTokenUriResolver",
          "name": "_tokenUriResolver",
          "type": "address"
        }
      ],
      "name": "setTokenUriResolver",
      "outputs": [],
      "stateMutability": "nonpayable",
      "type": "function"
    },
    {
      "inputs": [],
      "name": "store",
      "outputs": [
        {
          "internalType": "contract IJBTiered721DelegateStore",
          "name": "",
          "type": "address"
        }
      ],
      "stateMutability": "view",
      "type": "function"
    },
    {
      "inputs": [
        {
          "internalType": "bytes4",
          "name": "_interfaceId",
          "type": "bytes4"
        }
      ],
      "name": "supportsInterface",
      "outputs": [
        {
          "internalType": "bool",
          "name": "",
          "type": "bool"
        }
      ],
      "stateMutability": "view",
      "type": "function"
    },
    {
      "inputs": [],
      "name": "symbol",
      "outputs": [
        {
          "internalType": "string",
          "name": "",
          "type": "string"
        }
      ],
      "stateMutability": "view",
      "type": "function"
    },
    {
      "inputs": [],
      "name": "tierRedemptionWeights",
      "outputs": [
        {
          "internalType": "uint256[128]",
          "name": "",
          "type": "uint256[128]"
        }
      ],
      "stateMutability": "view",
      "type": "function"
    },
    {
      "inputs": [
        {
          "internalType": "uint256",
          "name": "_tokenId",
          "type": "uint256"
        }
      ],
      "name": "tokenURI",
      "outputs": [
        {
          "internalType": "string",
          "name": "",
          "type": "string"
        }
      ],
      "stateMutability": "view",
      "type": "function"
    },
    {
      "inputs": [
        {
          "internalType": "address",
          "name": "from",
          "type": "address"
        },
        {
          "internalType": "address",
          "name": "to",
          "type": "address"
        },
        {
          "internalType": "uint256",
          "name": "tokenId",
          "type": "uint256"
        }
      ],
      "name": "transferFrom",
      "outputs": [],
      "stateMutability": "nonpayable",
      "type": "function"
    },
    {
      "inputs": [
        {
          "internalType": "address",
          "name": "newOwner",
          "type": "address"
        }
      ],
      "name": "transferOwnership",
      "outputs": [],
      "stateMutability": "nonpayable",
      "type": "function"
    }
  ],
  "bytecode": {
    "object": "0x60806040523480156200001157600080fd5b506200001d3362000035565b600880546001600160a01b0319163017905562000087565b600780546001600160a01b038381166001600160a01b0319831681179093556040519116919082907f8be0079c531659141344cd1fd0a4f28419497f9722a3daafe3b4186f6b6457e090600090a35050565b615f7f80620000976000396000f3fe6080604052600436106102e45760003560e01c806394c5c5ca11610190578063c87b56dd116100dc578063d46cf17111610095578063e8a3d4851161006f578063e8a3d485146108fe578063e985e9c514610913578063f2fde38b1461095c578063f5a38e631461097c57600080fd5b8063d46cf171146108ab578063da9ee8b7146108cb578063df487e26146108de57600080fd5b8063c87b56dd146107eb578063ca323efe1461080b578063ccb4807b1461082b578063d31cc52c1461084b578063d3419bf31461086b578063d40e71461461088b57600080fd5b8063a51cfd1811610149578063b88d4fde11610123578063b88d4fde1461076b578063bb52b6e41461078b578063c41c2f24146107ab578063c74b13d9146107cb57600080fd5b8063a51cfd18146106fc578063aa4fb15b1461072b578063ab951e391461074b57600080fd5b806394c5c5ca1461064557806395d89b4114610665578063975057e71461067a5780639df454681461069a578063a0bcfc7f146106bc578063a22cb465146106dc57600080fd5b80633fafa1271161024f578063640abacd1161020857806370a08231116101e257806370a08231146105af578063715018a6146105cf57806382732b6d146105e45780638da5cb5b1461062757600080fd5b8063640abacd1461055457806364640c1e1461056c5780636ac6d9411461058257600080fd5b80633fafa127146104a857806342842e0e146104be5780634ecba625146104de57806354c6d1f5146104f4578063557e7155146105145780636352211e1461053457600080fd5b80632407497e116102a15780632407497e146103da578063245a45b5146103fa5780632a596e53146104355780632b13c58f146104555780632f4415001461046857806336c1a93b1461048857600080fd5b806301ffc9a7146102e957806306fdde031461031e578063081812fc14610340578063095ea7b3146103785780631d153ca41461039a57806323b872dd146103ba575b600080fd5b3480156102f557600080fd5b50610309610304366004614567565b61099c565b60405190151581526020015b60405180910390f35b34801561032a57600080fd5b506103336109c7565b60405161031591906145d4565b34801561034c57600080fd5b5061036061035b3660046145e7565b610a59565b6040516001600160a01b039091168152602001610315565b34801561038457600080fd5b50610398610393366004614625565b610a80565b005b3480156103a657600080fd5b50600854610360906001600160a01b031681565b3480156103c657600080fd5b506103986103d5366004614651565b610b0c565b3480156103e657600080fd5b506103986103f5366004614692565b610b3e565b34801561040657600080fd5b50610427610415366004614692565b600e6020526000908152604090205481565b604051908152602001610315565b34801561044157600080fd5b506103986104503660046146af565b610be7565b61039861046336600461473c565b610c40565b34801561047457600080fd5b506103986104833660046148bc565b610f55565b34801561049457600080fd5b506103986104a33660046149a0565b611175565b3480156104b457600080fd5b5061042760055481565b3480156104ca57600080fd5b506103986104d9366004614651565b6111d7565b3480156104ea57600080fd5b50610427600d5481565b34801561050057600080fd5b5061036061050f3660046145e7565b6111f2565b34801561052057600080fd5b50600a54610360906001600160a01b031681565b34801561054057600080fd5b5061036061054f3660046145e7565b61129e565b34801561056057600080fd5b50610427633b9aca0081565b34801561057857600080fd5b50610427600c5481565b34801561058e57600080fd5b506105a261059d3660046149e1565b6112d4565b6040516103159190614a37565b3480156105bb57600080fd5b506104276105ca366004614692565b61141a565b3480156105db57600080fd5b5061039861148f565b3480156105f057600080fd5b506103606105ff366004614625565b6001600160a01b039182166000908152600f6020908152604080832093835292905220541690565b34801561063357600080fd5b506007546001600160a01b0316610360565b34801561065157600080fd5b506104276106603660046145e7565b6114a3565b34801561067157600080fd5b506103336114ba565b34801561068657600080fd5b50600954610360906001600160a01b031681565b3480156106a657600080fd5b506106af6114c9565b6040516103159190614a7b565b3480156106c857600080fd5b506103986106d7366004614aad565b611505565b3480156106e857600080fd5b506103986106f7366004614b25565b6115c0565b34801561070857600080fd5b5061071c61071736600461473c565b6115cf565b60405161031593929190614b5e565b34801561073757600080fd5b50610398610746366004614bd0565b611923565b34801561075757600080fd5b50610398610766366004614625565b611b40565b34801561077757600080fd5b50610398610786366004614c52565b611b4b565b34801561079757600080fd5b506103986107a6366004614f30565b611b7e565b3480156107b757600080fd5b50600654610360906001600160a01b031681565b3480156107d757600080fd5b506103986107e6366004615069565b611e64565b3480156107f757600080fd5b506103336108063660046145e7565b611ee8565b34801561081757600080fd5b50610427610826366004614625565b6120f7565b34801561083757600080fd5b50610398610846366004614aad565b612123565b34801561085757600080fd5b50610427610866366004614bd0565b6121d6565b34801561087757600080fd5b50600b54610360906001600160a01b031681565b34801561089757600080fd5b506104276108a636600461511c565b6121ee565b3480156108b757600080fd5b5061071c6108c6366004615151565b612223565b6103986108d936600461518c565b612306565b3480156108ea57600080fd5b506103986108f9366004614692565b6123bd565b34801561090a57600080fd5b5061033361245f565b34801561091f57600080fd5b5061030961092e3660046151c7565b6001600160a01b03918216600090815260046020908152604080832093909416825291909152205460ff1690565b34801561096857600080fd5b50610398610977366004614692565b6124d5565b34801561098857600080fd5b506103986109973660046151f5565b612553565b60006001600160e01b03198216631e68505960e31b14806109c157506109c182612735565b92915050565b6060600080546109d69061528f565b80601f0160208091040260200160405190810160405280929190818152602001828054610a029061528f565b8015610a4f5780601f10610a2457610100808354040283529160200191610a4f565b820191906000526020600020905b815481529060010190602001808311610a3257829003601f168201915b5050505050905090565b6000610a64826127ab565b506000908152600360205260409020546001600160a01b031690565b6000610a8b8261129e565b9050806001600160a01b0316836001600160a01b031603610abf5760405163133f8be960e01b815260040160405180910390fd5b336001600160a01b03821614801590610adf5750610add813361092e565b155b15610afd5760405163e5fa0e3560e01b815260040160405180910390fd5b610b0783836127e0565b505050565b610b16338261284e565b610b335760405163e5fa0e3560e01b815260040160405180910390fd5b610b078383836128cc565b610b466129a5565b60095460405163036129cb60e61b81526001600160a01b0383811660048301529091169063d84a72c090602401600060405180830381600087803b158015610b8d57600080fd5b505af1158015610ba1573d6000803e3d6000fd5b50506040513381526001600160a01b03841692507fe7784d93cfbfa4408e19577e6cc0436f4dbb51214b70e100905dfce9def88c1691506020015b60405180910390a250565b8060005b81811015610c3a576000848483818110610c0757610c076152c3565b905060400201803603810190610c1d91906152d9565b9050610c3181600001518260200151611923565b50600101610beb565b50505050565b34151580610cc25750600654600554604051636e49181f60e01b815260048101919091523360248201526001600160a01b0390911690636e49181f90604401602060405180830381865afa158015610c9c573d6000803e3d6000fd5b505050506040513d601f19601f82011682018060405250810190610cc09190615300565b155b80610cd35750600554816020013514155b15610cf157604051633efca5c360e11b815260040160405180910390fd5b6024610d016101c083018361531d565b90501080610d45575063b3bcbb7960e01b610d206101c083018361531d565b610d2f91602491602091615363565b610d389161538d565b6001600160e01b03191614155b15610d6357604051632a84050f60e01b815260040160405180910390fd5b6000610d736101c083018361531d565b810190610d8091906153bd565b8051600a546005546040516321d1336160e11b815260048101919091529295509093506000925082916001600160a01b03909116906343a266c29060240161012060405180830381865afa158015610ddc573d6000803e3d6000fd5b505050506040513d601f19601f82011682018060405250810190610e009190615476565b805190915060041460005b84811015610f1e57858181518110610e2557610e256152c3565b60200260200101519350866000016020810190610e429190614692565b6000858152600260205260409020546001600160a01b03908116911614610e7c5760405163075fd2b160e01b815260040160405180910390fd5b610e85846129ff565b8115610f16576009546040516342f9914b60e01b8152600481018690526093916000916001600160a01b03909116906342f9914b90602401602060405180830381865afa158015610eda573d6000803e3d6000fd5b505050506040513d601f19601f82011682018060405250810190610efe91906154f6565b81526020810191909152604001600020805460010190555b600101610e0b565b50610f2885612a80565b8015610f4d57856080016020013560926000828254610f479190615525565b90915550505b505050505050565b610f5d6129a5565b600a546005546040516321d1336160e11b81526004926001600160a01b0316916343a266c291610f939190850190815260200190565b61012060405180830381865afa158015610fb1573d6000803e3d6000fd5b505050506040513d601f19601f82011682018060405250810190610fd59190615476565b511015610ff5576040516303e08a3560e61b815260040160405180910390fd5b6110016012600061450e565b60095460405163f1bea54f60e01b81523060048201526000916001600160a01b03169063f1bea54f90602401602060405180830381865afa15801561104a573d6000803e3d6000fd5b505050506040513d601f19601f8201168201806040525081019061106e91906154f6565b8251909150600090815b8181101561114f5783858281518110611093576110936152c3565b60200260200101516000015111156110be5760405163148e14dd60e21b815260040160405180910390fd5b8481815181106110d0576110d06152c3565b602002602001015160200151601260018784815181106110f2576110f26152c3565b6020026020010151600001516111089190615538565b60808110611118576111186152c3565b0155845185908290811061112e5761112e6152c3565b602002602001015160200151836111459190615525565b9250600101611078565b50633b9aca00821115610c3a57604051636ff44e9760e01b815260040160405180910390fd5b61117d6129a5565b8060005b81811015610c3a573684848381811061119c5761119c6152c3565b90506020028101906111ae919061554b565b90506111cd6111bd828061556b565b61059d6040850160208601614692565b5050600101611181565b610b0783838360405180602001604052806000815250611b4b565b6009546040516308ed6c0160e41b81523060048201526024810183905260009182916001600160a01b0390911690638ed6c01090604401602060405180830381865afa158015611246573d6000803e3d6000fd5b505050506040513d601f19601f8201168201806040525081019061126a91906155b4565b90506001600160a01b038116156112815792915050565b50506000908152600260205260409020546001600160a01b031690565b6000818152600260205260408120546001600160a01b0316806109c15760405163b49aa3b560e01b815260040160405180910390fd5b60606112de6129a5565b60095460405163eaa19ab360e01b81526001600160a01b039091169063eaa19ab3906113179060001990889088906001906004016155d1565b6000604051808303816000875af1158015611336573d6000803e3d6000fd5b505050506040513d6000823e601f3d908101601f1916820160405261135e9190810190615694565b509050826000805b8281101561141057838181518110611380576113806152c3565b602002602001015191506113948583612ae5565b846001600160a01b03168787838181106113b0576113b06152c3565b90506020020160208101906113c591906156da565b604080516000815233602082015261ffff929092169185917f598baf7bf150ca2f42be9e9f8f55e81d45f5715c3ff22bf46d697fabec7f31d6910160405180910390a4600101611366565b5050509392505050565b600954604051633de222bb60e21b81523060048201526001600160a01b038381166024830152600092169063f7888aec90604401602060405180830381865afa15801561146b573d6000803e3d6000fd5b505050506040513d601f19601f820116820180604052508101906109c191906154f6565b6114976129a5565b6114a16000612baf565b565b60008181526011602052604081206109c190612c01565b6060600180546109d69061528f565b6114d161451d565b604080516110008101918290529060129060809082845b8154815260200190600101908083116114e8575050505050905090565b61150d6129a5565b6009546040516331315e5960e11b81526001600160a01b0390911690636262bcb29061153f90859085906004016156f5565b600060405180830381600087803b15801561155957600080fd5b505af115801561156d573d6000803e3d6000fd5b505050508181604051611581929190615724565b604051908190038120338252907f7bc9110d5de090dd59e07912d2b93a5a27ac70a60c8d8e324db4f9ee8b8b5c13906020015b60405180910390a25050565b6115cb338383612c5d565b5050565b60006060806080840135156115f7576040516309f82f1b60e31b815260040160405180910390fd5b60246116076101c086018661531d565b9050108061164b575063b3bcbb7960e01b6116266101c086018661531d565b61163591602491602091615363565b61163e9161538d565b6001600160e01b03191614155b1561166957604051632a84050f60e01b815260040160405180910390fd5b60408051600180825281830190925290816020015b604080518082019091526000808252602082015281526020019060019003908161167e5790505090506040518060400160405280306001600160a01b031681526020016000815250816000815181106116d9576116d96152c3565b602090810291909101015260006116f46101c086018661531d565b81019061170191906153bd565b600a54604080516321d1336160e11b8152908a01356004820152919450600193506001600160a01b031691506343a266c29060240161012060405180830381865afa158015611754573d6000803e3d6000fd5b505050506040513d601f19601f820116820180604052508101906117789190615476565b510361189c57805160005b818110156118425760095483516001600160a01b039091169063b67cb0479030908690859081106117b6576117b66152c3565b60200260200101516040518363ffffffff1660e01b81526004016117ef9291906001600160a01b03929092168252602082015260400190565b61016060405180830381865afa15801561180d573d6000803e3d6000fd5b505050506040513d601f19601f820116820180604052508101906118319190615734565b602001519590950194600101611783565b50846118526101a088018861531d565b8582828080601f016020809104026020016040519081016040528093929190818152602001838380828437600092019190915250969b5091995091975061191c9650505050505050565b6118ca6092548660c001356118b19190615525565b6118bb8388612cfc565b633b9aca00612eb3565b612eb3565b6118d86101a087018761531d565b8482828080601f016020809104026020016040519081016040528093929190818152602001838380828437600092019190915250969a509198509196505050505050505b9193909250565b600a546005546040516321d1336160e11b815260048101919091526000916001600160a01b0316906343a266c29060240161012060405180830381865afa158015611972573d6000803e3d6000fd5b505050506040513d601f19601f820116820180604052508101906119969190615476565b61010081015190915060f51c6001908116036119c557604051631d2c125760e31b815260040160405180910390fd5b600954604051635d53f40760e11b815260048101859052602481018490526000916001600160a01b03169063baa7e80e906044016000604051808303816000875af1158015611a18573d6000803e3d6000fd5b505050506040513d6000823e601f3d908101601f19168201604052611a4091908101906157d6565b6009546040516304db994760e21b8152306004820152602481018790529192506000916001600160a01b039091169063136e651c90604401602060405180830381865afa158015611a95573d6000803e3d6000fd5b505050506040513d601f19601f82011682018060405250810190611ab991906155b4565b90506000805b85811015611b3757838181518110611ad957611ad96152c3565b60200260200101519150611aed8383612ae5565b6040513381526001600160a01b03841690889084907f031e1988c95a91ec4d655ff63a8f87a80bc9daf28d95ae10ee08c0022cfb5c8b9060200160405180910390a4600101611abf565b50505050505050565b6115cb338383612f80565b611b55338361284e565b611b725760405163e5fa0e3560e01b815260040160405180910390fd5b610c3a84848484612fff565b6008546001600160a01b03163003611b9557600080fd5b6009546001600160a01b031615611bab57600080fd5b611bb78b8b8b8b613033565b600a80546001600160a01b03808a166001600160a01b031992831617909255600980548584169083161790556020850151600c556040850151600d556060850151600b8054919093169116179055855115611c6b576040516331315e5960e11b81526001600160a01b03831690636262bcb290611c389089906004016145d4565b600060405180830381600087803b158015611c5257600080fd5b505af1158015611c66573d6000803e3d6000fd5b505050505b835115611cd15760405163d67b78fd60e01b81526001600160a01b0383169063d67b78fd90611c9e9087906004016145d4565b600060405180830381600087803b158015611cb857600080fd5b505af1158015611ccc573d6000803e3d6000fd5b505050505b6001600160a01b03851615611d3c5760405163036129cb60e61b81526001600160a01b03868116600483015283169063d84a72c090602401600060405180830381600087803b158015611d2357600080fd5b505af1158015611d37573d6000803e3d6000fd5b505050505b82515115611dba57825160405163eadd8b3760e01b81526001600160a01b0384169163eadd8b3791611d71919060040161580a565b6000604051808303816000875af1158015611d90573d6000803e3d6000fd5b505050506040513d6000823e601f3d908101601f19168201604052611db891908101906157d6565b505b805180611dc8575080602001515b80611dd4575080604001515b15611e4e576040805163cdb0af6d60e01b815282511515600482015260208301511515602482015290820151151560448201526001600160a01b0383169063cdb0af6d90606401600060405180830381600087803b158015611e3557600080fd5b505af1158015611e49573d6000803e3d6000fd5b505050505b611e5733612baf565b5050505050505050505050565b8051604080518082019091526000808252602082015260005b82811015610c3a57838181518110611e9757611e976152c3565b602090810291909101015180519092506001600160a01b0316611ecd576040516314f4c13d60e21b815260040160405180910390fd5b611ee03383600001518460200151612f80565b600101611e7d565b6000818152600260205260409020546060906001600160a01b0316611f1b57505060408051602081019091526000815290565b600954604051630fab094760e01b81523060048201526000916001600160a01b031690630fab094790602401602060405180830381865afa158015611f64573d6000803e3d6000fd5b505050506040513d601f19601f82011682018060405250810190611f8891906155b4565b90506001600160a01b0381161561200d57604051636d02a25560e11b8152600481018490526001600160a01b0382169063da0544aa90602401600060405180830381865afa158015611fde573d6000803e3d6000fd5b505050506040513d6000823e601f3d908101601f1916820160405261200691908101906158e3565b9392505050565b60095460405163f682eeaf60e01b8152306004820152612006916001600160a01b03169063f682eeaf90602401600060405180830381865afa158015612057573d6000803e3d6000fd5b505050506040513d6000823e601f3d908101601f1916820160405261207f91908101906158e3565b600954604051630c8df17160e41b8152306004820152602481018790526001600160a01b039091169063c8df171090604401602060405180830381865afa1580156120ce573d6000803e3d6000fd5b505050506040513d601f19601f820116820180604052508101906120f291906154f6565b613066565b6001600160a01b0382166000908152601060209081526040808320848452909152812061200690612c01565b61212b6129a5565b60095460405163d67b78fd60e01b81526001600160a01b039091169063d67b78fd9061215d90859085906004016156f5565b600060405180830381600087803b15801561217757600080fd5b505af115801561218b573d6000803e3d6000fd5b50505050818160405161219f929190615724565b604051908190038120338252907fd36dc0c1a06103fdcaf15f3f6fb797d1a97997514c78de073640c8b5005454b8906020016115b4565b600082815260116020526040812061200690836130cd565b6001600160a01b0383166000908152601060209081526040808320858452909152812061221b90836130cd565b949350505050565b61012081013560608061223a61016085018561531d565b8080601f0160208091040260200160405190810160405280939291908181526020018383808284376000920191909152509294506001925061227a915050565b6040519080825280602002602001820160405280156122bf57816020015b60408051808201909152600080825260208201528152602001906001900390816122985790505b5090506040518060400160405280306001600160a01b031681526020016000815250816000815181106122f4576122f46152c3565b60200260200101819052509193909250565b600554341515806123875750600654604051636e49181f60e01b8152600481018390523360248201526001600160a01b0390911690636e49181f90604401602060405180830381865afa158015612361573d6000803e3d6000fd5b505050506040513d601f19601f820116820180604052508101906123859190615300565b155b80612396575080826020013514155b156123b4576040516331c57b1b60e21b815260040160405180910390fd5b6115cb826131dc565b6123c56129a5565b6009546040516317161f7d60e01b81526001600160a01b038381166004830152909116906317161f7d90602401600060405180830381600087803b15801561240c57600080fd5b505af1158015612420573d6000803e3d6000fd5b50506040513381526001600160a01b03841692507fab0014d4c7a642a02a31b303a318908c22b0fb2001f107278fc6076b4c671b659150602001610bdc565b600954604051630155619b60e71b81523060048201526060916001600160a01b03169063aab0cd8090602401600060405180830381865afa1580156124a8573d6000803e3d6000fd5b505050506040513d6000823e601f3d908101601f191682016040526124d091908101906158e3565b905090565b6124dd6129a5565b6001600160a01b0381166125475760405162461bcd60e51b815260206004820152602660248201527f4f776e61626c653a206e6577206f776e657220697320746865207a65726f206160448201526564647265737360d01b60648201526084015b60405180910390fd5b61255081612baf565b50565b61255b6129a5565b8281801561262b576009546040516320512ba160e01b81526001600160a01b03909116906320512ba1906125959087908790600401615950565b600060405180830381600087803b1580156125af57600080fd5b505af11580156125c3573d6000803e3d6000fd5b5050505060005b81811015612629578484828181106125e4576125e46152c3565b60405133815260209182029390930135927f832d89d991be5351d793c20faf4b7dd44f8aa9ce39e3cb160c6317de6fbba72992500160405180910390a26001016125ca565b505b8115610f4d5760095460405163eadd8b3760e01b81526000916001600160a01b03169063eadd8b3790612664908a908a90600401615a66565b6000604051808303816000875af1158015612683573d6000803e3d6000fd5b505050506040513d6000823e601f3d908101601f191682016040526126ab91908101906157d6565b905060005b8381101561272b578181815181106126ca576126ca6152c3565b60200260200101517f85b5b4c4e44e342c8dac3c3a5364494d455043decb9f4bb8e7e0a3020d22fed4898984818110612705576127056152c3565b905061014002013360405161271b929190615aa9565b60405180910390a26001016126b0565b5050505050505050565b60006001600160e01b0319821663b3bcbb7960e01b148061276657506001600160e01b031982166371700c6960e01b145b8061278157506001600160e01b0319821663da9ee8b760e01b145b8061279c57506001600160e01b03198216632b13c58f60e01b145b806109c157506109c1826134fd565b6000818152600260205260409020546001600160a01b03166125505760405163b49aa3b560e01b815260040160405180910390fd5b600081815260036020526040902080546001600160a01b0319166001600160a01b03841690811790915581906128158261129e565b6001600160a01b03167f8c5be1e5ebec7d5bd14f71427d1e84f3dd0314c0f7b2291e5b200ac8c7c3b92560405160405180910390a45050565b60008061285a8361129e565b9050806001600160a01b0316846001600160a01b031614806128a157506001600160a01b0380821660009081526004602090815260408083209388168352929052205460ff165b8061221b5750836001600160a01b03166128ba84610a59565b6001600160a01b031614949350505050565b826001600160a01b03166128df8261129e565b6001600160a01b0316146129065760405163a195bc5360e01b815260040160405180910390fd5b6001600160a01b03821661292d57604051632c95542760e01b815260040160405180910390fd5b61293883838361354d565b6129436000826127e0565b60008181526002602052604080822080546001600160a01b0319166001600160a01b0386811691821790925591518493918716917fddf252ad1be2c89b69c2b068fc378daa952ba7f163c4a11628f55a4df523b3ef91a4610b0783838361377a565b6007546001600160a01b031633146114a15760405162461bcd60e51b815260206004820181905260248201527f4f776e61626c653a2063616c6c6572206973206e6f7420746865206f776e6572604482015260640161253e565b6000612a0a8261129e565b9050612a188160008461354d565b612a236000836127e0565b60008281526002602052604080822080546001600160a01b0319169055518391906001600160a01b038416907fddf252ad1be2c89b69c2b068fc378daa952ba7f163c4a11628f55a4df523b3ef908390a46115cb8160008461377a565b6009546040516386bc2be360e01b81526001600160a01b03909116906386bc2be390612ab0908490600401614a37565b600060405180830381600087803b158015612aca57600080fd5b505af1158015612ade573d6000803e3d6000fd5b5050505050565b6001600160a01b038216612b0c57604051633904578f60e11b815260040160405180910390fd5b6000818152600260205260409020546001600160a01b031615612b4257604051632eb5f0c360e21b815260040160405180910390fd5b612b4e6000838361354d565b60008181526002602052604080822080546001600160a01b0319166001600160a01b03861690811790915590518392907fddf252ad1be2c89b69c2b068fc378daa952ba7f163c4a11628f55a4df523b3ef908290a46115cb6000838361377a565b600780546001600160a01b038381166001600160a01b0319831681179093556040519116919082907f8be0079c531659141344cd1fd0a4f28419497f9722a3daafe3b4186f6b6457e090600090a35050565b80546000908015612c4a5782612c18600183615538565b81548110612c2857612c286152c3565b60009182526020909120015464010000000090046001600160e01b0316612c4d565b60005b6001600160e01b03169392505050565b816001600160a01b0316836001600160a01b031603612c8f576040516306f8139d60e11b815260040160405180910390fd5b6001600160a01b03838116600081815260046020908152604080832094871680845294825291829020805460ff191686151590811790915591519182527f17307eab39ab6107e8899845ad3d59bd9653f200f220920489ca2b5937696c31910160405180910390a3505050565b8151600090815b81811015612e8a5760095485516000916001600160a01b0316906342f9914b90889085908110612d3557612d356152c3565b60200260200101516040518263ffffffff1660e01b8152600401612d5b91815260200190565b602060405180830381865afa158015612d78573d6000803e3d6000fd5b505050506040513d601f19601f82011682018060405250810190612d9c91906154f6565b600954604051633a39e4d160e11b8152306004820152602481018390529192506000916001600160a01b0390911690637473c9a29060440161016060405180830381865afa158015612df2573d6000803e3d6000fd5b505050506040513d601f19601f82011682018060405250810190612e169190615734565b600083815260936020526040902054606082015160808301519293509091612e3e9190615538565b612e489190615525565b6012612e55600185615538565b60808110612e6557612e656152c3565b0154612e719190615ae7565b612e7b9086615525565b94508260010192505050612d03565b5081600003612eac57604051637691472960e01b815260040160405180910390fd5b5092915050565b6000808060001985870985870292508281108382030391505080600003612eed57838281612ee357612ee3615ad1565b0492505050612006565b838110612f1757604051631dcf306360e21b8152600481018290526024810185905260440161253e565b60008486880960026001871981018816978890046003810283188082028403028082028403028082028403028082028403028082028403029081029092039091026000889003889004909101858311909403939093029303949094049190911702949350505050565b6001600160a01b038381166000818152600f6020908152604080832086845290915280822080548786166001600160a01b0319821681179092559151919094169392849290917f3134e8a2e6d97e929a7e54011ea5485d7d196dd5f0ba4d4ef95803e8e3fc257f9190a4610c3a818484612ffa8887613873565b6138ef565b61300a8484846128cc565b61301684848484613a44565b610c3a576040516336f57c1b60e11b815260040160405180910390fd5b61303d8282613b46565b5050600591909155600680546001600160a01b0319166001600160a01b03909216919091179055565b604051609160f51b6020820152602281018290526060906000906042016040516020818303038152906040529050600061309f82613b5f565b905084816040516020016130b4929190615afb565b6040516020818303038152906040529250505092915050565b600043821061311e5760405162461bcd60e51b815260206004820181905260248201527f436865636b706f696e74733a20626c6f636b206e6f7420796574206d696e6564604482015260640161253e565b825460005b818110156131835760006131378284613cf9565b90508486600001828154811061314f5761314f6152c3565b60009182526020909120015463ffffffff16111561316f5780925061317d565b61317a816001615525565b91505b50613123565b81156131c75784613195600184615538565b815481106131a5576131a56152c3565b60009182526020909120015464010000000090046001600160e01b03166131ca565b60005b6001600160e01b031695945050505050565b600c5460009060c0830135036131f7575060808101356132a8565b600b546001600160a01b0316156115cb57600d546132a59060808401359061322090600a615c0e565b600b54600c54604051635268657960e11b815260c08801356004820152602481019190915260a087013560448201526001600160a01b039091169063a4d0caf290606401602060405180830381865afa158015613281573d6000803e3d6000fd5b505050506040513d601f19601f820116820180604052508101906118c591906154f6565b90505b6000600e816132bf6101a086016101808701614692565b6001600160a01b031681526020810191909152604001600090812054915082906132f16101a086016101808701614692565b6001600160a01b03166133076020870187614692565b6001600160a01b03160361331e5790820190613321565b50815b60008060446133346101e089018961531d565b9050118015613378575063b3bcbb7960e01b6133546101e089018961531d565b61336391604491604091615363565b61336c9161538d565b6001600160e01b031916145b15613418576000606061338f6101e08a018a61531d565b81019061339c9190615c1a565b9199509750909550935050831591506133ef905057858501600e60006133ca6101a08d016101808e01614692565b6001600160a01b03168152602081019190915260400160002055505050505050505050565b80511561341557613412868261340d6101a08d016101808e01614692565b613d14565b95505b50505b83156134bc5761343a846134346101a08a016101808b01614692565b84613e56565b9350831561349957801561346157604051631b57826960e21b815260040160405180910390fd5b838301600e600061347a6101a08b016101808c01614692565b6001600160a01b03168152602081019190915260400160002055611b37565b8285146134b75782600e600061347a6101a08b016101808c01614692565b611b37565b828514611b375782600e60006134da6101a08b016101808c01614692565b6001600160a01b0316815260208101919091526040016000205550505050505050565b60006001600160e01b031982166380ac58cd60e01b148061352e57506001600160e01b03198216635b5e139f60e01b145b806109c157506301ffc9a760e01b6001600160e01b03198316146109c1565b6001600160a01b03831615610b075760095460405163b67cb04760e01b8152306004820152602481018390526000916001600160a01b03169063b67cb0479060440161016060405180830381865afa1580156135ad573d6000803e3d6000fd5b505050506040513d601f19601f820116820180604052508101906135d19190615734565b90508061014001511561369657600a546005546040516321d1336160e11b815260048101919091526000916001600160a01b0316906343a266c29060240161012060405180830381865afa15801561362d573d6000803e3d6000fd5b505050506040513d601f19601f820116820180604052508101906136519190615476565b90506001600160a01b03841615801590613676575061010081015160f41c6001908116145b15613694576040516318cdaf9760e01b815260040160405180910390fd5b505b6009546040516308ed6c0160e41b8152306004820152602481018490526000916001600160a01b031690638ed6c01090604401602060405180830381865afa1580156136e6573d6000803e3d6000fd5b505050506040513d601f19601f8201168201806040525081019061370a91906155b4565b6001600160a01b031603610c3a57600954604051638cec7d3960e01b8152600481018490526001600160a01b03868116602483015290911690638cec7d3990604401600060405180830381600087803b15801561376657600080fd5b505af115801561272b573d6000803e3d6000fd5b60095460405163b67cb04760e01b8152306004820152602481018390526000916001600160a01b03169063b67cb0479060440161016060405180830381865afa1580156137cb573d6000803e3d6000fd5b505050506040513d601f19601f820116820180604052508101906137ef9190615734565b60095481516040516330b157e560e21b815260048101919091526001600160a01b038781166024830152868116604483015292935091169063c2c55f9490606401600060405180830381600087803b15801561384a57600080fd5b505af115801561385e573d6000803e3d6000fd5b5050505061386e84848484613f60565b610c3a565b6009546040516305c9a1d560e31b81523060048201526001600160a01b038481166024830152604482018490526000921690632e4d0ea890606401602060405180830381865afa1580156138cb573d6000803e3d6000fd5b505050506040513d601f19601f8201168201806040525081019061200691906154f6565b826001600160a01b0316846001600160a01b0316148061390d575080155b610c3a576001600160a01b038416156139a8576001600160a01b0384166000908152601060209081526040808320858452909152812081906139529061400785614013565b60408051838152602081018390523381830152905192945090925085916001600160a01b038916917fed0c1e94c302bdbbd8bbd6a4fb7c3ed335c2292407cd816eadd075d019d0ce04919081900360600190a350505b6001600160a01b03831615610c3a576001600160a01b0383166000908152601060209081526040808320858452909152812081906139e99061404185614013565b60408051838152602081018390523381830152905192945090925085916001600160a01b038816917fed0c1e94c302bdbbd8bbd6a4fb7c3ed335c2292407cd816eadd075d019d0ce04919081900360600190a3505050505050565b60006001600160a01b0384163b15613b3b57604051630a85bd0160e11b81526001600160a01b0385169063150b7a0290613a88903390899088908890600401615d11565b6020604051808303816000875af1925050508015613ac3575060408051601f3d908101601f19168201909252613ac091810190615d4e565b60015b613b21573d808015613af1576040519150601f19603f3d011682016040523d82523d6000602084013e613af6565b606091505b508051600003613b19576040516336f57c1b60e11b815260040160405180910390fd5b805181602001fd5b6001600160e01b031916630a85bd0160e11b14905061221b565b506001949350505050565b6000613b528382615db1565b506001610b078282615db1565b60608151600003613b80576040805160008082526020820190925290612eac565b60408051602e8082526105e08201909252600091602082016105c080368337019050509050600081600081518110613bba57613bba6152c3565b60ff90921660209283029190910190910152825160019060005b81811015613cd5576000868281518110613bf057613bf06152c3565b016020015160f81c905060005b8460ff16811015613c7a576008868281518110613c1c57613c1c6152c3565b602002602001015160ff16901b82613c349190615525565b9150613c41603a83615e70565b868281518110613c5357613c536152c3565b60ff90921660209283029190910190910152613c70603a83615ae7565b9150600101613bfd565b505b8015613ccc57613c8d603a82615e70565b858560ff1681518110613ca257613ca26152c3565b60ff90921660209283029190910190910152600190930192613cc5603a82615ae7565b9050613c7c565b50600101613bd4565b50613cf0613ceb613ce6858561404d565b6140f4565b614196565b95945050505050565b6000613d086002848418615ae7565b61200690848416615525565b60095460405163eaa19ab360e01b81526000916060916001600160a01b039091169063eaa19ab390613d4e90889088908790600401615e84565b6000604051808303816000875af1158015613d6d573d6000803e3d6000fd5b505050506040513d6000823e601f3d908101601f19168201604052613d959190810190615694565b81519093509091506000805b82811015613e4b57838181518110613dbb57613dbb6152c3565b60200260200101519150613dcf8683612ae5565b856001600160a01b0316878281518110613deb57613deb6152c3565b602002602001015161ffff16837f598baf7bf150ca2f42be9e9f8f55e81d45f5715c3ff22bf46d697fabec7f31d68b33604051613e3b9291909182526001600160a01b0316602082015260400190565b60405180910390a4600101613da1565b505050509392505050565b60095460405163879791f360e01b815260048101859052600091829182916001600160a01b03169063879791f3906024016060604051808303816000875af1158015613ea6573d6000803e3d6000fd5b505050506040513d601f19601f82011682018060405250810190613eca9190615ee1565b945090925090506000829003613f00578315613ef957604051630e5313df60e41b815260040160405180910390fd5b5050612006565b613f0a8583612ae5565b6001600160a01b03851681837f598baf7bf150ca2f42be9e9f8f55e81d45f5715c3ff22bf46d697fabec7f31d6613f41878b615538565b604080519182523360208301520160405180910390a450509392505050565b60a081015115610c3a576001600160a01b038381166000908152600f602090815260408083208551845290915290205416613ff3576001600160a01b0383166000818152600f602090815260408083208551845290915280822080546001600160a01b031916841790555182907f3134e8a2e6d97e929a7e54011ea5485d7d196dd5f0ba4d4ef95803e8e3fc257f908390a45b610c3a848483600001518460a0015161426f565b60006120068284615538565b6000806140358561403061402688612c01565b868863ffffffff16565b614311565b91509150935093915050565b60006120068284615525565b606060008260ff166001600160401b0381111561406c5761406c614770565b604051908082528060200260200182016040528015614095578160200160208202803683370190505b50905060005b8360ff168110156140ec578481815181106140b8576140b86152c3565b60200260200101518282815181106140d2576140d26152c3565b60ff9092166020928302919091019091015260010161409b565b509392505050565b80516060906000816001600160401b0381111561411357614113614770565b60405190808252806020026020018201604052801561413c578160200160208202803683370190505b50905060005b828110156140ec57848160018751030381518110614162576141626152c3565b602002602001015182828151811061417c5761417c6152c3565b60ff90921660209283029190910190910152600101614142565b80516060906000816001600160401b038111156141b5576141b5614770565b6040519080825280601f01601f1916602001820160405280156141df576020820181803683370190505b50905060005b828110156140ec576040518060600160405280603a8152602001615f10603a9139858281518110614218576142186152c3565b602002602001015160ff1681518110614233576142336152c3565b602001015160f81c60f81b828281518110614250576142506152c3565b60200101906001600160f81b031916908160001a9053506001016141e5565b6001600160a01b03841661429b5760008281526011602052604090206142989061404183614013565b50505b6001600160a01b0383166142c75760008281526011602052604090206142c49061400783614013565b50505b6001600160a01b038085166000908152600f60208181526040808420878552825280842054888616855292825280842087855290915290912054610c3a92918216911684846138ef565b815460009081908161432286612c01565b90506000821180156143605750438661433c600185615538565b8154811061434c5761434c6152c3565b60009182526020909120015463ffffffff16145b156143c05761436e8561443c565b8661437a600185615538565b8154811061438a5761438a6152c3565b9060005260206000200160000160046101000a8154816001600160e01b0302191690836001600160e01b0316021790555061442e565b8560000160405180604001604052806143d8436144a9565b63ffffffff1681526020016143ec8861443c565b6001600160e01b0390811690915282546001810184556000938452602093849020835194909301519091166401000000000263ffffffff909316929092179101555b9250839150505b9250929050565b60006001600160e01b038211156144a55760405162461bcd60e51b815260206004820152602760248201527f53616665436173743a2076616c756520646f65736e27742066697420696e20326044820152663234206269747360c81b606482015260840161253e565b5090565b600063ffffffff8211156144a55760405162461bcd60e51b815260206004820152602660248201527f53616665436173743a2076616c756520646f65736e27742066697420696e203360448201526532206269747360d01b606482015260840161253e565b5061255090608081019061453c565b6040518061100001604052806080906020820280368337509192915050565b5b808211156144a5576000815560010161453d565b6001600160e01b03198116811461255057600080fd5b60006020828403121561457957600080fd5b813561200681614551565b60005b8381101561459f578181015183820152602001614587565b50506000910152565b600081518084526145c0816020860160208601614584565b601f01601f19169290920160200192915050565b60208152600061200660208301846145a8565b6000602082840312156145f957600080fd5b5035919050565b6001600160a01b038116811461255057600080fd5b803561462081614600565b919050565b6000806040838503121561463857600080fd5b823561464381614600565b946020939093013593505050565b60008060006060848603121561466657600080fd5b833561467181614600565b9250602084013561468181614600565b929592945050506040919091013590565b6000602082840312156146a457600080fd5b813561200681614600565b600080602083850312156146c257600080fd5b82356001600160401b03808211156146d957600080fd5b818501915085601f8301126146ed57600080fd5b8135818111156146fc57600080fd5b8660208260061b850101111561471157600080fd5b60209290920196919550909350505050565b60006101e0828403121561473657600080fd5b50919050565b60006020828403121561474e57600080fd5b81356001600160401b0381111561476457600080fd5b61221b84828501614723565b634e487b7160e01b600052604160045260246000fd5b604080519081016001600160401b03811182821017156147a8576147a8614770565b60405290565b604051608081016001600160401b03811182821017156147a8576147a8614770565b60405161014081016001600160401b03811182821017156147a8576147a8614770565b60405161012081016001600160401b03811182821017156147a8576147a8614770565b60405161016081016001600160401b03811182821017156147a8576147a8614770565b604051601f8201601f191681016001600160401b038111828210171561486157614861614770565b604052919050565b60006001600160401b0382111561488257614882614770565b5060051b60200190565b60006040828403121561489e57600080fd5b6148a6614786565b9050813581526020820135602082015292915050565b600060208083850312156148cf57600080fd5b82356001600160401b038111156148e557600080fd5b8301601f810185136148f657600080fd5b803561490961490482614869565b614839565b81815260069190911b8201830190838101908783111561492857600080fd5b928401925b828410156149515761493f888561488c565b8252848201915060408401935061492d565b979650505050505050565b60008083601f84011261496e57600080fd5b5081356001600160401b0381111561498557600080fd5b6020830191508360208260051b850101111561443557600080fd5b600080602083850312156149b357600080fd5b82356001600160401b038111156149c957600080fd5b6149d58582860161495c565b90969095509350505050565b6000806000604084860312156149f657600080fd5b83356001600160401b03811115614a0c57600080fd5b614a188682870161495c565b9094509250506020840135614a2c81614600565b809150509250925092565b6020808252825182820181905260009190848201906040850190845b81811015614a6f57835183529284019291840191600101614a53565b50909695505050505050565b6110008101818360005b6080811015614aa4578151835260209283019290910190600101614a85565b50505092915050565b60008060208385031215614ac057600080fd5b82356001600160401b0380821115614ad757600080fd5b818501915085601f830112614aeb57600080fd5b813581811115614afa57600080fd5b86602082850101111561471157600080fd5b801515811461255057600080fd5b803561462081614b0c565b60008060408385031215614b3857600080fd5b8235614b4381614600565b91506020830135614b5381614b0c565b809150509250929050565b83815260006020606081840152614b7860608401866145a8565b83810360408581019190915285518083528387019284019060005b81811015614bc157845180516001600160a01b03168452860151868401529385019391830191600101614b93565b50909998505050505050505050565b60008060408385031215614be357600080fd5b50508035926020909101359150565b60006001600160401b03821115614c0b57614c0b614770565b50601f01601f191660200190565b6000614c2761490484614bf2565b9050828152838383011115614c3b57600080fd5b828260208301376000602084830101529392505050565b60008060008060808587031215614c6857600080fd5b8435614c7381614600565b93506020850135614c8381614600565b92506040850135915060608501356001600160401b03811115614ca557600080fd5b8501601f81018713614cb657600080fd5b614cc587823560208401614c19565b91505092959194509250565b600082601f830112614ce257600080fd5b61200683833560208501614c19565b803569ffffffffffffffffffff8116811461462057600080fd5b803565ffffffffffff8116811461462057600080fd5b803564ffffffffff8116811461462057600080fd5b803561ffff8116811461462057600080fd5b60006080808385031215614d5b57600080fd5b614d636147ae565b915082356001600160401b03811115614d7b57600080fd5b8301601f81018513614d8c57600080fd5b80356020614d9c61490483614869565b8281526101409283028401820192828201919089851115614dbc57600080fd5b948301945b84861015614e8b5780868b031215614dd95760008081fd5b614de16147d0565b614dea87614cf1565b8152614df7858801614d0b565b858201526040614e08818901614d21565b908201526060614e19888201614d36565b90820152614e28878901614d36565b8882015260a0614e39818901614615565b9082015260c0878101359082015260e0614e54818901614b1a565b90820152610100614e66888201614b1a565b90820152610120614e78888201614b1a565b9082015283529485019491830191614dc1565b50865250858101359085015250505060408083013590820152614eb060608301614615565b606082015292915050565b600060608284031215614ecd57600080fd5b604051606081018181106001600160401b0382111715614eef57614eef614770565b6040529050808235614f0081614b0c565b81526020830135614f1081614b0c565b60208201526040830135614f2381614b0c565b6040919091015292915050565b60008060008060008060008060008060006101a08c8e031215614f5257600080fd5b8b359a50614f6260208d01614615565b99506001600160401b038060408e01351115614f7d57600080fd5b614f8d8e60408f01358f01614cd1565b99508060608e01351115614fa057600080fd5b614fb08e60608f01358f01614cd1565b9850614fbe60808e01614615565b97508060a08e01351115614fd157600080fd5b614fe18e60a08f01358f01614cd1565b9650614fef60c08e01614615565b95508060e08e0135111561500257600080fd5b6150128e60e08f01358f01614cd1565b9450806101008e0135111561502657600080fd5b506150388d6101008e01358e01614d48565b92506150476101208d01614615565b91506150578d6101408e01614ebb565b90509295989b509295989b9093969950565b6000602080838503121561507c57600080fd5b82356001600160401b0381111561509257600080fd5b8301601f810185136150a357600080fd5b80356150b161490482614869565b81815260069190911b820183019083810190878311156150d057600080fd5b928401925b8284101561495157604084890312156150ee5760008081fd5b6150f6614786565b843561510181614600565b815284860135868201528252604090930192908401906150d5565b60008060006060848603121561513157600080fd5b833561513c81614600565b95602085013595506040909401359392505050565b60006020828403121561516357600080fd5b81356001600160401b0381111561517957600080fd5b82016101a0818503121561200657600080fd5b60006020828403121561519e57600080fd5b81356001600160401b038111156151b457600080fd5b8201610200818503121561200657600080fd5b600080604083850312156151da57600080fd5b82356151e581614600565b91506020830135614b5381614600565b6000806000806040858703121561520b57600080fd5b84356001600160401b038082111561522257600080fd5b818701915087601f83011261523657600080fd5b81358181111561524557600080fd5b8860206101408302850101111561525b57600080fd5b60209283019650945090860135908082111561527657600080fd5b506152838782880161495c565b95989497509550505050565b600181811c908216806152a357607f821691505b60208210810361473657634e487b7160e01b600052602260045260246000fd5b634e487b7160e01b600052603260045260246000fd5b6000604082840312156152eb57600080fd5b612006838361488c565b805161462081614b0c565b60006020828403121561531257600080fd5b815161200681614b0c565b6000808335601e1984360301811261533457600080fd5b8301803591506001600160401b0382111561534e57600080fd5b60200191503681900382131561443557600080fd5b6000808585111561537357600080fd5b8386111561538057600080fd5b5050820193919092039150565b6001600160e01b031981358181169160048510156153b55780818660040360031b1b83161692505b505092915050565b6000806000606084860312156153d257600080fd5b833592506020808501356153e581614551565b925060408501356001600160401b0381111561540057600080fd5b8501601f8101871361541157600080fd5b803561541f61490482614869565b81815260059190911b8201830190838101908983111561543e57600080fd5b928401925b8284101561545c57833582529284019290840190615443565b80955050505050509250925092565b805161462081614600565b6000610120828403121561548957600080fd5b6154916147f3565b825181526020830151602082015260408301516040820152606083015160608201526080830151608082015260a083015160a082015260c083015160c08201526154dd60e0840161546b565b60e0820152610100928301519281019290925250919050565b60006020828403121561550857600080fd5b5051919050565b634e487b7160e01b600052601160045260246000fd5b808201808211156109c1576109c161550f565b818103818111156109c1576109c161550f565b60008235603e1983360301811261556157600080fd5b9190910192915050565b6000808335601e1984360301811261558257600080fd5b8301803591506001600160401b0382111561559c57600080fd5b6020019150600581901b360382131561443557600080fd5b6000602082840312156155c657600080fd5b815161200681614600565b84815260606020808301829052908201849052600090859060808401835b878110156156165761ffff61560385614d36565b16825292820192908201906001016155ef565b50809350505050821515604083015295945050505050565b600082601f83011261563f57600080fd5b8151602061564f61490483614869565b82815260059290921b8401810191818101908684111561566e57600080fd5b8286015b848110156156895780518352918301918301615672565b509695505050505050565b600080604083850312156156a757600080fd5b82516001600160401b038111156156bd57600080fd5b6156c98582860161562e565b925050602083015190509250929050565b6000602082840312156156ec57600080fd5b61200682614d36565b60208152816020820152818360408301376000818301604090810191909152601f909201601f19160101919050565b8183823760009101908152919050565b6000610160828403121561574757600080fd5b61574f614816565b825181526020830151602082015260408301516040820152606083015160608201526080830151608082015260a083015160a082015260c083015160c082015261579b60e0840161546b565b60e082015261010083810151908201526101206157b98185016152f5565b908201526101406157cb8482016152f5565b908201529392505050565b6000602082840312156157e857600080fd5b81516001600160401b038111156157fe57600080fd5b61221b8482850161562e565b602080825282518282018190526000919060409081850190868401855b828110156158d6578151805169ffffffffffffffffffff1685528681015165ffffffffffff16878601528581015164ffffffffff168686015260608082015161ffff908116918701919091526080808301519091169086015260a0808201516001600160a01b03169086015260c0808201519086015260e08082015115159086015261010080820151151590860152610120908101511515908501526101409093019290850190600101615827565b5091979650505050505050565b6000602082840312156158f557600080fd5b81516001600160401b0381111561590b57600080fd5b8201601f8101841361591c57600080fd5b805161592a61490482614bf2565b81815285602083850101111561593f57600080fd5b613cf0826020830160208601614584565b6020808252810182905260006001600160fb1b0383111561597057600080fd5b8260051b80856040850137919091016040019392505050565b6159a68261599683614cf1565b69ffffffffffffffffffff169052565b6159b260208201614d0b565b65ffffffffffff1660208301526159cb60408201614d21565b64ffffffffff1660408301526159e360608201614d36565b61ffff1660608301526159f860808201614d36565b61ffff166080830152615a0d60a08201614615565b6001600160a01b031660a083015260c08181013590830152615a3160e08201614b1a565b151560e0830152610100615a46828201614b1a565b151590830152610120615a5a828201614b1a565b80151584830152610c3a565b6020808252810182905260008360408301825b85811015615a9f57615a8b8284615989565b610140928301929190910190600101615a79565b5095945050505050565b6101608101615ab88285615989565b6001600160a01b03929092166101409190910152919050565b634e487b7160e01b600052601260045260246000fd5b600082615af657615af6615ad1565b500490565b60008351615b0d818460208801614584565b835190830190615b21818360208801614584565b01949350505050565b600181815b80851115615b65578160001904821115615b4b57615b4b61550f565b80851615615b5857918102915b93841c9390800290615b2f565b509250929050565b600082615b7c575060016109c1565b81615b89575060006109c1565b8160018114615b9f5760028114615ba957615bc5565b60019150506109c1565b60ff841115615bba57615bba61550f565b50506001821b6109c1565b5060208310610133831016604e8410600b8410161715615be8575081810a6109c1565b615bf28383615b2a565b8060001904821115615c0657615c0661550f565b029392505050565b60006120068383615b6d565b600080600080600080600060e0888a031215615c3557600080fd5b8735965060208089013596506040890135615c4f81614551565b95506060890135615c5f81614b0c565b94506080890135615c6f81614b0c565b935060a0890135615c7f81614b0c565b925060c08901356001600160401b03811115615c9a57600080fd5b8901601f81018b13615cab57600080fd5b8035615cb961490482614869565b81815260059190911b8201830190838101908d831115615cd857600080fd5b928401925b82841015615cfd57615cee84614d36565b82529284019290840190615cdd565b809550505050505092959891949750929550565b6001600160a01b0385811682528416602082015260408101839052608060608201819052600090615d44908301846145a8565b9695505050505050565b600060208284031215615d6057600080fd5b815161200681614551565b601f821115610b0757600081815260208120601f850160051c81016020861015615d925750805b601f850160051c820191505b81811015610f4d57828155600101615d9e565b81516001600160401b03811115615dca57615dca614770565b615dde81615dd8845461528f565b84615d6b565b602080601f831160018114615e135760008415615dfb5750858301515b600019600386901b1c1916600185901b178555610f4d565b600085815260208120601f198616915b82811015615e4257888601518255948401946001909101908401615e23565b5085821015615e605787850151600019600388901b60f8161c191681555b5050505050600190811b01905550565b600082615e7f57615e7f615ad1565b500690565b6000606082018583526020606081850152818651808452608086019150828801935060005b81811015615ec957845161ffff1683529383019391830191600101615ea9565b50508093505050508215156040830152949350505050565b600080600060608486031215615ef657600080fd5b835192506020840151915060408401519050925092509256fe31323334353637383941424344454647484a4b4c4d4e505152535455565758595a6162636465666768696a6b6d6e6f707172737475767778797aa264697066735822122070caf1c3312609b0c57252f124566922bae2602aec7a0dda67631f4ad8c7119f64736f6c63430008100033",
    "linkReferences": {}
  },
  "methodIdentifiers": {
    "TOTAL_REDEMPTION_WEIGHT()": "640abacd",
    "adjustTiers((uint80,uint48,uint40,uint16,uint16,address,bytes32,bool,bool,bool)[],uint256[])": "f5a38e63",
    "approve(address,uint256)": "095ea7b3",
    "balanceOf(address)": "70a08231",
    "codeOrigin()": "1d153ca4",
    "contractURI()": "e8a3d485",
    "creditsOf(address)": "245a45b5",
    "didPay((address,uint256,uint256,(address,uint256,uint256,uint256),(address,uint256,uint256,uint256),uint256,address,bool,string,bytes))": "da9ee8b7",
    "didRedeem((address,uint256,uint256,uint256,(address,uint256,uint256,uint256),(address,uint256,uint256,uint256),address,string,bytes))": "2b13c58f",
    "directory()": "c41c2f24",
    "firstOwnerOf(uint256)": "54c6d1f5",
    "fundingCycleStore()": "557e7155",
    "getApproved(uint256)": "081812fc",
    "getPastTierTotalVotes(uint256,uint256)": "d31cc52c",
    "getPastTierVotes(address,uint256,uint256)": "d40e7146",
    "getTierDelegate(address,uint256)": "82732b6d",
    "getTierTotalVotes(uint256)": "94c5c5ca",
    "getTierVotes(address,uint256)": "ca323efe",
    "initialize(uint256,address,string,string,address,string,address,string,((uint80,uint48,uint40,uint16,uint16,address,bytes32,bool,bool,bool)[],uint256,uint256,address),address,(bool,bool,bool))": "bb52b6e4",
    "isApprovedForAll(address,address)": "e985e9c5",
    "mintFor((uint16[],address)[])": "36c1a93b",
    "mintFor(uint16[],address)": "6ac6d941",
    "mintReservesFor((uint256,uint256)[])": "2a596e53",
    "mintReservesFor(uint256,uint256)": "aa4fb15b",
    "name()": "06fdde03",
    "owner()": "8da5cb5b",
    "ownerOf(uint256)": "6352211e",
    "payParams((address,address,(address,uint256,uint256,uint256),uint256,uint256,address,uint256,uint256,string,bytes))": "d46cf171",
    "prices()": "d3419bf3",
    "pricingCurrency()": "64640c1e",
    "pricingDecimals()": "4ecba625",
    "projectId()": "3fafa127",
    "redeemParams((address,address,uint256,uint256,uint256,uint256,uint256,(address,uint256,uint256,uint256),bool,uint256,string,bytes))": "a51cfd18",
    "renounceOwnership()": "715018a6",
    "safeTransferFrom(address,address,uint256)": "42842e0e",
    "safeTransferFrom(address,address,uint256,bytes)": "b88d4fde",
    "setApprovalForAll(address,bool)": "a22cb465",
    "setBaseUri(string)": "a0bcfc7f",
    "setContractUri(string)": "ccb4807b",
    "setDefaultReservedTokenBeneficiary(address)": "df487e26",
    "setTierDelegate(address,uint256)": "ab951e39",
    "setTierDelegates((address,uint256)[])": "c74b13d9",
    "setTierRedemptionWeights((uint256,uint256)[])": "2f441500",
    "setTokenUriResolver(address)": "2407497e",
    "store()": "975057e7",
    "supportsInterface(bytes4)": "01ffc9a7",
    "symbol()": "95d89b41",
    "tierRedemptionWeights()": "9df45468",
    "tokenURI(uint256)": "c87b56dd",
    "transferFrom(address,address,uint256)": "23b872dd",
    "transferOwnership(address)": "f2fde38b"
  },
  "id": 0
}