{
  "abi": [
    {
      "inputs": [
        {
          "internalType": "contract IDefifaDelegate",
          "name": "_defifaDelegate",
          "type": "address"
        },
        {
          "internalType": "uint256",
          "name": "_votingStartTime",
          "type": "uint256"
        }
      ],
      "stateMutability": "nonpayable",
      "type": "constructor"
    },
    {
      "inputs": [],
      "name": "Empty",
      "type": "error"
    },
    {
      "inputs": [],
      "name": "INCORRECT_TIER_ORDER",
      "type": "error"
    },
    {
      "inputs": [
        {
          "internalType": "uint256",
          "name": "prod1",
          "type": "uint256"
        },
        {
          "internalType": "uint256",
          "name": "denominator",
          "type": "uint256"
        }
      ],
      "name": "PRBMath__MulDivOverflow",
      "type": "error"
    },
    {
      "anonymous": false,
      "inputs": [
        {
          "indexed": false,
          "internalType": "uint256",
          "name": "proposalId",
          "type": "uint256"
        }
      ],
      "name": "ProposalCanceled",
      "type": "event"
    },
    {
      "anonymous": false,
      "inputs": [
        {
          "indexed": false,
          "internalType": "uint256",
          "name": "proposalId",
          "type": "uint256"
        },
        {
          "indexed": false,
          "internalType": "address",
          "name": "proposer",
          "type": "address"
        },
        {
          "indexed": false,
          "internalType": "address[]",
          "name": "targets",
          "type": "address[]"
        },
        {
          "indexed": false,
          "internalType": "uint256[]",
          "name": "values",
          "type": "uint256[]"
        },
        {
          "indexed": false,
          "internalType": "string[]",
          "name": "signatures",
          "type": "string[]"
        },
        {
          "indexed": false,
          "internalType": "bytes[]",
          "name": "calldatas",
          "type": "bytes[]"
        },
        {
          "indexed": false,
          "internalType": "uint256",
          "name": "startBlock",
          "type": "uint256"
        },
        {
          "indexed": false,
          "internalType": "uint256",
          "name": "endBlock",
          "type": "uint256"
        },
        {
          "indexed": false,
          "internalType": "string",
          "name": "description",
          "type": "string"
        }
      ],
      "name": "ProposalCreated",
      "type": "event"
    },
    {
      "anonymous": false,
      "inputs": [
        {
          "indexed": false,
          "internalType": "uint256",
          "name": "proposalId",
          "type": "uint256"
        }
      ],
      "name": "ProposalExecuted",
      "type": "event"
    },
    {
      "anonymous": false,
      "inputs": [
        {
          "indexed": true,
          "internalType": "address",
          "name": "voter",
          "type": "address"
        },
        {
          "indexed": false,
          "internalType": "uint256",
          "name": "proposalId",
          "type": "uint256"
        },
        {
          "indexed": false,
          "internalType": "uint8",
          "name": "support",
          "type": "uint8"
        },
        {
          "indexed": false,
          "internalType": "uint256",
          "name": "weight",
          "type": "uint256"
        },
        {
          "indexed": false,
          "internalType": "string",
          "name": "reason",
          "type": "string"
        }
      ],
      "name": "VoteCast",
      "type": "event"
    },
    {
      "anonymous": false,
      "inputs": [
        {
          "indexed": true,
          "internalType": "address",
          "name": "voter",
          "type": "address"
        },
        {
          "indexed": false,
          "internalType": "uint256",
          "name": "proposalId",
          "type": "uint256"
        },
        {
          "indexed": false,
          "internalType": "uint8",
          "name": "support",
          "type": "uint8"
        },
        {
          "indexed": false,
          "internalType": "uint256",
          "name": "weight",
          "type": "uint256"
        },
        {
          "indexed": false,
          "internalType": "string",
          "name": "reason",
          "type": "string"
        },
        {
          "indexed": false,
          "internalType": "bytes",
          "name": "params",
          "type": "bytes"
        }
      ],
      "name": "VoteCastWithParams",
      "type": "event"
    },
    {
      "inputs": [],
      "name": "BALLOT_TYPEHASH",
      "outputs": [
        {
          "internalType": "bytes32",
          "name": "",
          "type": "bytes32"
        }
      ],
      "stateMutability": "view",
      "type": "function"
    },
    {
      "inputs": [],
      "name": "COUNTING_MODE",
      "outputs": [
        {
          "internalType": "string",
          "name": "",
          "type": "string"
        }
      ],
      "stateMutability": "pure",
      "type": "function"
    },
    {
      "inputs": [],
      "name": "EXTENDED_BALLOT_TYPEHASH",
      "outputs": [
        {
          "internalType": "bytes32",
          "name": "",
          "type": "bytes32"
        }
      ],
      "stateMutability": "view",
      "type": "function"
    },
    {
      "inputs": [],
      "name": "MAX_VOTING_POWER_TIER",
      "outputs": [
        {
          "internalType": "uint256",
          "name": "",
          "type": "uint256"
        }
      ],
      "stateMutability": "view",
      "type": "function"
    },
    {
      "inputs": [
        {
          "internalType": "uint256",
          "name": "proposalId",
          "type": "uint256"
        },
        {
          "internalType": "uint8",
          "name": "support",
          "type": "uint8"
        }
      ],
      "name": "castVote",
      "outputs": [
        {
          "internalType": "uint256",
          "name": "",
          "type": "uint256"
        }
      ],
      "stateMutability": "nonpayable",
      "type": "function"
    },
    {
      "inputs": [
        {
          "internalType": "uint256",
          "name": "proposalId",
          "type": "uint256"
        },
        {
          "internalType": "uint8",
          "name": "support",
          "type": "uint8"
        },
        {
          "internalType": "uint8",
          "name": "v",
          "type": "uint8"
        },
        {
          "internalType": "bytes32",
          "name": "r",
          "type": "bytes32"
        },
        {
          "internalType": "bytes32",
          "name": "s",
          "type": "bytes32"
        }
      ],
      "name": "castVoteBySig",
      "outputs": [
        {
          "internalType": "uint256",
          "name": "",
          "type": "uint256"
        }
      ],
      "stateMutability": "nonpayable",
      "type": "function"
    },
    {
      "inputs": [
        {
          "internalType": "uint256",
          "name": "proposalId",
          "type": "uint256"
        },
        {
          "internalType": "uint8",
          "name": "support",
          "type": "uint8"
        },
        {
          "internalType": "string",
          "name": "reason",
          "type": "string"
        }
      ],
      "name": "castVoteWithReason",
      "outputs": [
        {
          "internalType": "uint256",
          "name": "",
          "type": "uint256"
        }
      ],
      "stateMutability": "nonpayable",
      "type": "function"
    },
    {
      "inputs": [
        {
          "internalType": "uint256",
          "name": "proposalId",
          "type": "uint256"
        },
        {
          "internalType": "uint8",
          "name": "support",
          "type": "uint8"
        },
        {
          "internalType": "string",
          "name": "reason",
          "type": "string"
        },
        {
          "internalType": "bytes",
          "name": "params",
          "type": "bytes"
        }
      ],
      "name": "castVoteWithReasonAndParams",
      "outputs": [
        {
          "internalType": "uint256",
          "name": "",
          "type": "uint256"
        }
      ],
      "stateMutability": "nonpayable",
      "type": "function"
    },
    {
      "inputs": [
        {
          "internalType": "uint256",
          "name": "proposalId",
          "type": "uint256"
        },
        {
          "internalType": "uint8",
          "name": "support",
          "type": "uint8"
        },
        {
          "internalType": "string",
          "name": "reason",
          "type": "string"
        },
        {
          "internalType": "bytes",
          "name": "params",
          "type": "bytes"
        },
        {
          "internalType": "uint8",
          "name": "v",
          "type": "uint8"
        },
        {
          "internalType": "bytes32",
          "name": "r",
          "type": "bytes32"
        },
        {
          "internalType": "bytes32",
          "name": "s",
          "type": "bytes32"
        }
      ],
      "name": "castVoteWithReasonAndParamsBySig",
      "outputs": [
        {
          "internalType": "uint256",
          "name": "",
          "type": "uint256"
        }
      ],
      "stateMutability": "nonpayable",
      "type": "function"
    },
    {
      "inputs": [],
      "name": "defifaDelegate",
      "outputs": [
        {
          "internalType": "contract IDefifaDelegate",
          "name": "",
          "type": "address"
        }
      ],
      "stateMutability": "view",
      "type": "function"
    },
    {
      "inputs": [
        {
          "internalType": "address[]",
          "name": "targets",
          "type": "address[]"
        },
        {
          "internalType": "uint256[]",
          "name": "values",
          "type": "uint256[]"
        },
        {
          "internalType": "bytes[]",
          "name": "calldatas",
          "type": "bytes[]"
        },
        {
          "internalType": "bytes32",
          "name": "descriptionHash",
          "type": "bytes32"
        }
      ],
      "name": "execute",
      "outputs": [
        {
          "internalType": "uint256",
          "name": "",
          "type": "uint256"
        }
      ],
      "stateMutability": "payable",
      "type": "function"
    },
    {
      "inputs": [
        {
          "internalType": "address",
          "name": "account",
          "type": "address"
        },
        {
          "internalType": "uint256",
          "name": "blockNumber",
          "type": "uint256"
        }
      ],
      "name": "getVotes",
      "outputs": [
        {
          "internalType": "uint256",
          "name": "",
          "type": "uint256"
        }
      ],
      "stateMutability": "view",
      "type": "function"
    },
    {
      "inputs": [
        {
          "internalType": "address",
          "name": "account",
          "type": "address"
        },
        {
          "internalType": "uint256",
          "name": "blockNumber",
          "type": "uint256"
        },
        {
          "internalType": "bytes",
          "name": "params",
          "type": "bytes"
        }
      ],
      "name": "getVotesWithParams",
      "outputs": [
        {
          "internalType": "uint256",
          "name": "",
          "type": "uint256"
        }
      ],
      "stateMutability": "view",
      "type": "function"
    },
    {
      "inputs": [
        {
          "internalType": "uint256",
          "name": "proposalId",
          "type": "uint256"
        },
        {
          "internalType": "address",
          "name": "account",
          "type": "address"
        }
      ],
      "name": "hasVoted",
      "outputs": [
        {
          "internalType": "bool",
          "name": "",
          "type": "bool"
        }
      ],
      "stateMutability": "view",
      "type": "function"
    },
    {
      "inputs": [
        {
          "internalType": "address[]",
          "name": "targets",
          "type": "address[]"
        },
        {
          "internalType": "uint256[]",
          "name": "values",
          "type": "uint256[]"
        },
        {
          "internalType": "bytes[]",
          "name": "calldatas",
          "type": "bytes[]"
        },
        {
          "internalType": "bytes32",
          "name": "descriptionHash",
          "type": "bytes32"
        }
      ],
      "name": "hashProposal",
      "outputs": [
        {
          "internalType": "uint256",
          "name": "",
          "type": "uint256"
        }
      ],
      "stateMutability": "pure",
      "type": "function"
    },
    {
      "inputs": [],
      "name": "name",
      "outputs": [
        {
          "internalType": "string",
          "name": "",
          "type": "string"
        }
      ],
      "stateMutability": "view",
      "type": "function"
    },
    {
      "inputs": [
        {
          "internalType": "address",
          "name": "",
          "type": "address"
        },
        {
          "internalType": "address",
          "name": "",
          "type": "address"
        },
        {
          "internalType": "uint256[]",
          "name": "",
          "type": "uint256[]"
        },
        {
          "internalType": "uint256[]",
          "name": "",
          "type": "uint256[]"
        },
        {
          "internalType": "bytes",
          "name": "",
          "type": "bytes"
        }
      ],
      "name": "onERC1155BatchReceived",
      "outputs": [
        {
          "internalType": "bytes4",
          "name": "",
          "type": "bytes4"
        }
      ],
      "stateMutability": "nonpayable",
      "type": "function"
    },
    {
      "inputs": [
        {
          "internalType": "address",
          "name": "",
          "type": "address"
        },
        {
          "internalType": "address",
          "name": "",
          "type": "address"
        },
        {
          "internalType": "uint256",
          "name": "",
          "type": "uint256"
        },
        {
          "internalType": "uint256",
          "name": "",
          "type": "uint256"
        },
        {
          "internalType": "bytes",
          "name": "",
          "type": "bytes"
        }
      ],
      "name": "onERC1155Received",
      "outputs": [
        {
          "internalType": "bytes4",
          "name": "",
          "type": "bytes4"
        }
      ],
      "stateMutability": "nonpayable",
      "type": "function"
    },
    {
      "inputs": [
        {
          "internalType": "address",
          "name": "",
          "type": "address"
        },
        {
          "internalType": "address",
          "name": "",
          "type": "address"
        },
        {
          "internalType": "uint256",
          "name": "",
          "type": "uint256"
        },
        {
          "internalType": "bytes",
          "name": "",
          "type": "bytes"
        }
      ],
      "name": "onERC721Received",
      "outputs": [
        {
          "internalType": "bytes4",
          "name": "",
          "type": "bytes4"
        }
      ],
      "stateMutability": "nonpayable",
      "type": "function"
    },
    {
      "inputs": [
        {
          "internalType": "uint256",
          "name": "proposalId",
          "type": "uint256"
        }
      ],
      "name": "proposalDeadline",
      "outputs": [
        {
          "internalType": "uint256",
          "name": "",
          "type": "uint256"
        }
      ],
      "stateMutability": "view",
      "type": "function"
    },
    {
      "inputs": [
        {
          "internalType": "uint256",
          "name": "proposalId",
          "type": "uint256"
        }
      ],
      "name": "proposalSnapshot",
      "outputs": [
        {
          "internalType": "uint256",
          "name": "",
          "type": "uint256"
        }
      ],
      "stateMutability": "view",
      "type": "function"
    },
    {
      "inputs": [],
      "name": "proposalThreshold",
      "outputs": [
        {
          "internalType": "uint256",
          "name": "",
          "type": "uint256"
        }
      ],
      "stateMutability": "pure",
      "type": "function"
    },
    {
      "inputs": [
        {
          "internalType": "uint256",
          "name": "proposalId",
          "type": "uint256"
        }
      ],
      "name": "proposalVotes",
      "outputs": [
        {
          "internalType": "uint256",
          "name": "againstVotes",
          "type": "uint256"
        },
        {
          "internalType": "uint256",
          "name": "forVotes",
          "type": "uint256"
        },
        {
          "internalType": "uint256",
          "name": "abstainVotes",
          "type": "uint256"
        }
      ],
      "stateMutability": "view",
      "type": "function"
    },
    {
      "inputs": [
        {
          "internalType": "address[]",
          "name": "targets",
          "type": "address[]"
        },
        {
          "internalType": "uint256[]",
          "name": "values",
          "type": "uint256[]"
        },
        {
          "internalType": "bytes[]",
          "name": "calldatas",
          "type": "bytes[]"
        },
        {
          "internalType": "string",
          "name": "description",
          "type": "string"
        }
      ],
      "name": "propose",
      "outputs": [
        {
          "internalType": "uint256",
          "name": "",
          "type": "uint256"
        }
      ],
      "stateMutability": "nonpayable",
      "type": "function"
    },
    {
      "inputs": [
        {
          "internalType": "uint256",
          "name": "",
          "type": "uint256"
        }
      ],
      "name": "quorum",
      "outputs": [
        {
          "internalType": "uint256",
          "name": "",
          "type": "uint256"
        }
      ],
      "stateMutability": "view",
      "type": "function"
    },
    {
      "inputs": [
        {
          "components": [
            {
              "internalType": "uint256",
              "name": "id",
              "type": "uint256"
            },
            {
              "internalType": "uint256",
              "name": "redemptionWeight",
              "type": "uint256"
            }
          ],
          "internalType": "struct DefifaTierRedemptionWeight[]",
          "name": "_tierWeights",
          "type": "tuple[]"
        }
      ],
      "name": "ratifyScorecard",
      "outputs": [
        {
          "internalType": "uint256",
          "name": "",
          "type": "uint256"
        }
      ],
      "stateMutability": "nonpayable",
      "type": "function"
    },
    {
      "inputs": [
        {
          "internalType": "address",
          "name": "target",
          "type": "address"
        },
        {
          "internalType": "uint256",
          "name": "value",
          "type": "uint256"
        },
        {
          "internalType": "bytes",
          "name": "data",
          "type": "bytes"
        }
      ],
      "name": "relay",
      "outputs": [],
      "stateMutability": "nonpayable",
      "type": "function"
    },
    {
      "inputs": [
        {
          "internalType": "uint256",
          "name": "proposalId",
          "type": "uint256"
        }
      ],
      "name": "state",
      "outputs": [
        {
          "internalType": "enum IGovernor.ProposalState",
          "name": "",
          "type": "uint8"
        }
      ],
      "stateMutability": "view",
      "type": "function"
    },
    {
      "inputs": [
        {
          "components": [
            {
              "internalType": "uint256",
              "name": "id",
              "type": "uint256"
            },
            {
              "internalType": "uint256",
              "name": "redemptionWeight",
              "type": "uint256"
            }
          ],
          "internalType": "struct DefifaTierRedemptionWeight[]",
          "name": "_tierWeights",
          "type": "tuple[]"
        }
      ],
      "name": "submitScorecards",
      "outputs": [
        {
          "internalType": "uint256",
          "name": "",
          "type": "uint256"
        }
      ],
      "stateMutability": "nonpayable",
      "type": "function"
    },
    {
      "inputs": [
        {
          "internalType": "bytes4",
          "name": "interfaceId",
          "type": "bytes4"
        }
      ],
      "name": "supportsInterface",
      "outputs": [
        {
          "internalType": "bool",
          "name": "",
          "type": "bool"
        }
      ],
      "stateMutability": "view",
      "type": "function"
    },
    {
      "inputs": [],
      "name": "version",
      "outputs": [
        {
          "internalType": "string",
          "name": "",
          "type": "string"
        }
      ],
      "stateMutability": "view",
      "type": "function"
    },
    {
      "inputs": [],
      "name": "votingDelay",
      "outputs": [
        {
          "internalType": "uint256",
          "name": "",
          "type": "uint256"
        }
      ],
      "stateMutability": "view",
      "type": "function"
    },
    {
      "inputs": [],
      "name": "votingPeriod",
      "outputs": [
        {
          "internalType": "uint256",
          "name": "",
          "type": "uint256"
        }
      ],
      "stateMutability": "pure",
      "type": "function"
    },
    {
      "inputs": [],
      "name": "votingStartTime",
      "outputs": [
        {
          "internalType": "uint256",
          "name": "",
          "type": "uint256"
        }
      ],
      "stateMutability": "view",
      "type": "function"
    },
    {
      "stateMutability": "payable",
      "type": "receive"
    }
  ],
  "bytecode": {
    "object": "0x6101806040523480156200001257600080fd5b506040516200374f3803806200374f833981016040819052620000359162000132565b60408051808201909152600e81526d2232b334b330a3b7bb32b93737b960911b6020820152806200007a6040805180820190915260018152603160f81b602082015290565b815160209283012081519183019190912060e08290526101008190524660a0818152604080517f8b73c3c69bb8fe3d512ecc4cf759cc79239f7b179b0ffacaa9a75d522b39400f818801819052818301969096526060810194909452608080850193909352308483018190528151808603909301835260c09485019091528151919095012090529190915261012052600062000117828262000213565b50506001600160a01b039091166101405261016052620002df565b600080604083850312156200014657600080fd5b82516001600160a01b03811681146200015e57600080fd5b6020939093015192949293505050565b634e487b7160e01b600052604160045260246000fd5b600181811c908216806200019957607f821691505b602082108103620001ba57634e487b7160e01b600052602260045260246000fd5b50919050565b601f8211156200020e57600081815260208120601f850160051c81016020861015620001e95750805b601f850160051c820191505b818110156200020a57828155600101620001f5565b5050505b505050565b81516001600160401b038111156200022f576200022f6200016e565b620002478162000240845462000184565b84620001c0565b602080601f8311600181146200027f5760008415620002665750858301515b600019600386901b1c1916600185901b1785556200020a565b600085815260208120601f198616915b82811015620002b0578886015182559484019460019091019084016200028f565b5085821015620002cf5787850151600019600388901b60f8161c191681555b5050505050600190811b01905550565b60805160a05160c05160e051610100516101205161014051610160516133cb62000384600039600081816102f701528181610a7d0152610aaa0152600081816104f501528181610dfc01528181610e9301528181611342015281816117b301528181611859015281816119960152611a2d01526000611bd701526000611c2601526000611c0101526000611b5a01526000611b8401526000611bae01526133cb6000f3fe6080604052600436106101fd5760003560e01c806358d5ac0a1161010d578063bc197c81116100a0578063dd4e2ba51161006f578063dd4e2ba51461068f578063deaaa7cc146106d5578063eb9019d414610709578063f23a6e6114610729578063f8ce560a1461075557600080fd5b8063bc197c8114610603578063c01f9e371461062f578063c28bc2fa1461064f578063c59057e41461066f57600080fd5b80637b3c71d3116100dc5780637b3c71d31461058f5780637d5e81e2146105af5780639a802a6d146105cf578063b58131b0146105ef57600080fd5b806358d5ac0a146104e357806359f397bd1461052f5780635f398a141461054f57806364d87a611461056f57600080fd5b80632fe3e26111610190578063438596321161015f57806343859632146103e25780634b501fbd1461042c578063544ffc9c1461044457806354fd4d501461049957806356781388146104c357600080fd5b80632fe3e2611461034c5780633932abb1146103805780633bccf4fd146103955780633e4f49e6146103b557600080fd5b8063150b7a02116101cc578063150b7a02146102a15780632019a608146102e55780632656227d146103195780632d63f6931461032c57600080fd5b806301ffc9a71461020b57806302a251a314610240578063034201811461025f57806306fdde031461027f57600080fd5b3661020657005b005b600080fd5b34801561021757600080fd5b5061022b61022636600461249a565b61077a565b60405190151581526020015b60405180910390f35b34801561024c57600080fd5b5061b2fa5b604051908152602001610237565b34801561026b57600080fd5b5061025161027a3660046125df565b61078b565b34801561028b57600080fd5b50610294610883565b60405161023791906126d5565b3480156102ad57600080fd5b506102cc6102bc3660046126fd565b630a85bd0160e11b949350505050565b6040516001600160e01b03199091168152602001610237565b3480156102f157600080fd5b506102517f000000000000000000000000000000000000000000000000000000000000000081565b6102516103273660046128d9565b610915565b34801561033857600080fd5b50610251610347366004612968565b610a41565b34801561035857600080fd5b506102517fb3b3f3b703cd84ce352197dcff232b1b5d3cfb2025ce47cf04742d0651f1af8881565b34801561038c57600080fd5b50610251610a78565b3480156103a157600080fd5b506102516103b0366004612981565b610ade565b3480156103c157600080fd5b506103d56103d0366004612968565b610b54565b60405161023791906129e5565b3480156103ee57600080fd5b5061022b6103fd366004612a0d565b60008281526004602090815260408083206001600160a01b038516845260030190915290205460ff1692915050565b34801561043857600080fd5b50610251633b9aca0081565b34801561045057600080fd5b5061047e61045f366004612968565b6000908152600460205260409020805460018201546002909201549092565b60408051938452602084019290925290820152606001610237565b3480156104a557600080fd5b506040805180820190915260018152603160f81b6020820152610294565b3480156104cf57600080fd5b506102516104de366004612a3d565b610b5f565b3480156104ef57600080fd5b506105177f000000000000000000000000000000000000000000000000000000000000000081565b6040516001600160a01b039091168152602001610237565b34801561053b57600080fd5b5061025161054a366004612a69565b610b88565b34801561055b57600080fd5b5061025161056a366004612add565b610bc3565b34801561057b57600080fd5b5061025161058a366004612a69565b610c0d565b34801561059b57600080fd5b506102516105aa366004612b60565b610c4f565b3480156105bb57600080fd5b506102516105ca366004612bb9565b610c97565b3480156105db57600080fd5b506102516105ea366004612c6d565b610cae565b3480156105fb57600080fd5b506000610251565b34801561060f57600080fd5b506102cc61061e366004612cc5565b63bc197c8160e01b95945050505050565b34801561063b57600080fd5b5061025161064a366004612968565b610cc5565b34801561065b57600080fd5b5061020461066a366004612d58565b610cf4565b34801561067b57600080fd5b5061025161068a3660046128d9565b610da3565b34801561069b57600080fd5b506040805180820190915260208082527f737570706f72743d627261766f2671756f72756d3d666f722c6162737461696e90820152610294565b3480156106e157600080fd5b506102517f150214d74d59b7d1e90c73fc22ef3d991dd0a76b046543d4d80ab92d2a50328f81565b34801561071557600080fd5b50610251610724366004612d9b565b610ddd565b34801561073557600080fd5b506102cc610744366004612dc7565b63f23a6e6160e01b95945050505050565b34801561076157600080fd5b50610251610770366004612968565b610df1565b905090565b600061078582610f1c565b92915050565b60008061082f6108277fb3b3f3b703cd84ce352197dcff232b1b5d3cfb2025ce47cf04742d0651f1af888c8c8c8c6040516107c7929190612e2f565b60405180910390208b8051906020012060405160200161080c959493929190948552602085019390935260ff9190911660408401526060830152608082015260a00190565b60405160208183030381529060405280519060200120610f87565b868686610fd5565b90506108758a828b8b8b8080601f0160208091040260200160405190810160405280939291908181526020018383808284376000920191909152508d9250610ff3915050565b9a9950505050505050505050565b60606000805461089290612e3f565b80601f01602080910402602001604051908101604052809291908181526020018280546108be90612e3f565b801561090b5780601f106108e05761010080835404028352916020019161090b565b820191906000526020600020905b8154815290600101906020018083116108ee57829003601f168201915b5050505050905090565b60008061092486868686610da3565b9050600061093182610b54565b90506004816007811115610947576109476129cf565b148061096457506005816007811115610962576109626129cf565b145b6109bf5760405162461bcd60e51b815260206004820152602160248201527f476f7665726e6f723a2070726f706f73616c206e6f74207375636365737366756044820152601b60fa1b60648201526084015b60405180910390fd5b600082815260016020818152604092839020600201805460ff191690921790915590518381527f712ae1383f79ac853f8d882153778e0260ef8f03b504e2866e0593e04d2b291f910160405180910390a1610a1d8288888888611158565b610a2a82888888886111e4565b610a378288888888611158565b5095945050505050565b60008181526001602090815260408083208151928301909152546001600160401b0316908190525b6001600160401b031692915050565b6000427f00000000000000000000000000000000000000000000000000000000000000001115610ad857600c610ace427f0000000000000000000000000000000000000000000000000000000000000000612e8f565b6107759190612eb8565b50600090565b604080517f150214d74d59b7d1e90c73fc22ef3d991dd0a76b046543d4d80ab92d2a50328f602082015290810186905260ff851660608201526000908190610b2c906108279060800161080c565b9050610b49878288604051806020016040528060008152506111f1565b979650505050505050565b600061078582611207565b600080339050610b80848285604051806020016040528060008152506111f1565b949350505050565b600080600080610b988686611316565b925092509250610bb983838360405180602001604052806000815250610c97565b9695505050505050565b600080339050610b4987828888888080601f0160208091040260200160405190810160405280939291908181526020018383808284376000920191909152508a9250610ff3915050565b600080600080610c1d8686611316565b925092509250610bb98383837fc5d2460186f7233c927e7db2dcc703c0e500b653ca82273b7bfad8045d85a470610915565b600080339050610bb986828787878080601f0160208091040260200160405190810160405280939291908181526020018383808284376000920191909152506111f192505050565b6000610ca58585858561145d565b95945050505050565b6000610cbb848484611719565b90505b9392505050565b60008181526001602081815260408084208151928301909152909101546001600160401b031690819052610a69565b333014610d435760405162461bcd60e51b815260206004820152601860248201527f476f7665726e6f723a206f6e6c79476f7665726e616e6365000000000000000060448201526064016109b6565b610d5a565b80610d5360026118eb565b03610d4857505b610d9c8483838080601f01602080910402602001604051908101604052809392919081815260200183838082843760009201919091525088925061196a915050565b5050505050565b600084848484604051602001610dbc9493929190612fa3565b60408051601f19818403018152919052805160209091012095945050505050565b6000610cbe8383610dec611990565b611719565b6000633b9aca0060027f00000000000000000000000000000000000000000000000000000000000000006001600160a01b031663975057e76040518163ffffffff1660e01b8152600401602060405180830381865afa158015610e58573d6000803e3d6000fd5b505050506040513d601f19601f82011682018060405250810190610e7c9190612fee565b60405163f1bea54f60e01b81526001600160a01b037f000000000000000000000000000000000000000000000000000000000000000081166004830152919091169063f1bea54f90602401602060405180830381865afa158015610ee4573d6000803e3d6000fd5b505050506040513d601f19601f82011682018060405250810190610f08919061300b565b610f129190612eb8565b6107859190613024565b60006001600160e01b0319821663bf26d89760e01b1480610f4d57506001600160e01b031982166379dd796f60e01b145b80610f6857506001600160e01b03198216630271189760e51b145b8061078557506301ffc9a760e01b6001600160e01b0319831614610785565b6000610785610f94611b4d565b8360405161190160f01b6020820152602281018390526042810182905260009060620160405160208183030381529060405280519060200120905092915050565b6000806000610fe687878787611c74565b91509150610a3781611d61565b600085815260016020819052604082209061100d88610b54565b600781111561101e5761101e6129cf565b146110775760405162461bcd60e51b815260206004820152602360248201527f476f7665726e6f723a20766f7465206e6f742063757272656e746c792061637460448201526269766560e81b60648201526084016109b6565b604080516020810190915281546001600160401b0316908190526000906110a090889086611719565b90506110af8888888488611f1a565b835160000361110457866001600160a01b03167fb8e138887d0aa13bab447e82de9d5c1777041ecd21ca36ba824ff1e6c07ddda4898884896040516110f79493929190613043565b60405180910390a2610b49565b866001600160a01b03167fe2babfbac5889a709b63bb7f598b324e08bc5a4fb9ec647fb3cbc9ec07eb8712898884898960405161114595949392919061306b565b60405180910390a2979650505050505050565b610d9c565b84518110156111dc57306001600160a01b0316858281518110611182576111826130b1565b60200260200101516001600160a01b0316036111cc576111cc8382815181106111ad576111ad6130b1565b602002602001015180519060200120600261209490919063ffffffff16565b6111d5816130c7565b905061115d565b505050505050565b610d9c85858585856120d0565b6000610ca585858585611202611990565b610ff3565b6000818152600160205260408120600281015460ff161561122b5750600792915050565b6002810154610100900460ff16156112465750600292915050565b600061125184610a41565b9050806000036112a35760405162461bcd60e51b815260206004820152601d60248201527f476f7665726e6f723a20756e6b6e6f776e2070726f706f73616c20696400000060448201526064016109b6565b4381106112b4575060009392505050565b60006112bf85610cc5565b90504381106112d357506001949350505050565b6112dc856121cf565b80156112fb575060008581526004602052604090208054600190910154115b1561130b57506004949350505050565b506003949350505050565b6040805160018082528183019092526060918291829160009190602080830190803683370190505090507f000000000000000000000000000000000000000000000000000000000000000081600081518110611374576113746130b1565b6001600160a01b0392909216602092830291909101909101526040805160018082528183019092526000918160200160208202803683370190505090506000632f44150060e01b88886040516024016113ce9291906130e0565b60408051601f19818403018152918152602080830180516001600160e01b03166001600160e01b031995909516949094179093528051600180825281830190925291935060009282015b60608152602001906001900390816114185790505090508181600081518110611443576114436130b1565b602090810291909101015292989197509195509350505050565b60008061146f33610724600143612e8f565b10156114d75760405162461bcd60e51b815260206004820152603160248201527f476f7665726e6f723a2070726f706f73657220766f7465732062656c6f7720706044820152701c9bdc1bdcd85b081d1a1c995cda1bdb19607a1b60648201526084016109b6565b60006114ec8686868680519060200120610da3565b9050845186511461150f5760405162461bcd60e51b81526004016109b690613127565b83518651146115305760405162461bcd60e51b81526004016109b690613127565b60008651116115815760405162461bcd60e51b815260206004820152601860248201527f476f7665726e6f723a20656d7074792070726f706f73616c000000000000000060448201526064016109b6565b600081815260016020908152604091829020825191820190925281546001600160401b031690819052156116015760405162461bcd60e51b815260206004820152602160248201527f476f7665726e6f723a2070726f706f73616c20616c72656164792065786973746044820152607360f81b60648201526084016109b6565b600061161361160e610a78565b612206565b61161c43612206565b6116269190613168565b9050600061163561b2fa612206565b61163f9083613168565b835467ffffffffffffffff19166001600160401b038416178455905060018301805467ffffffffffffffff19166001600160401b0383161790557f7d84a6263ae0d98d3329bd7b46bb4e8d6f98cd35a7adb45c274c8b7fd5ebd5e084338b8b8d516001600160401b038111156116b7576116b7612522565b6040519080825280602002602001820160405280156116ea57816020015b60608152602001906001900390816116d55790505b508c88888e6040516117049998979695949392919061318f565b60405180910390a15091979650505050505050565b60008082806020019051810190611730919061327e565b8051909150600080805b838110156118df57848181518110611754576117546130b1565b6020026020010151915082821161177e576040516305ede6cb60e11b815260040160405180910390fd5b604051636a0738a360e11b81526001600160a01b038a8116600483015260248201849052604482018a905292935083926000917f00000000000000000000000000000000000000000000000000000000000000009091169063d40e714690606401602060405180830381865afa1580156117fc573d6000803e3d6000fd5b505050506040513d601f19601f82011682018060405250810190611820919061300b565b905080156118ce576040516334c7314b60e21b815260048101849052602481018a90526118c990633b9aca009083906001600160a01b037f0000000000000000000000000000000000000000000000000000000000000000169063d31cc52c90604401602060405180830381865afa1580156118a0573d6000803e3d6000fd5b505050506040513d601f19601f820116820180604052508101906118c4919061300b565b612272565b870196505b6118d7826130c7565b91505061173a565b50505050509392505050565b60006119068254600f81810b600160801b909204900b131590565b1561192457604051631ed9509560e11b815260040160405180910390fd5b508054600f0b6000818152600180840160205260408220805492905583546fffffffffffffffffffffffffffffffff191692016001600160801b03169190911790915590565b6060610cbb84848460405180606001604052806029815260200161336d6029913961233f565b606060007f00000000000000000000000000000000000000000000000000000000000000006001600160a01b031663975057e76040518163ffffffff1660e01b8152600401602060405180830381865afa1580156119f2573d6000803e3d6000fd5b505050506040513d601f19601f82011682018060405250810190611a169190612fee565b60405163f1bea54f60e01b81526001600160a01b037f000000000000000000000000000000000000000000000000000000000000000081166004830152919091169063f1bea54f90602401602060405180830381865afa158015611a7e573d6000803e3d6000fd5b505050506040513d601f19601f82011682018060405250810190611aa2919061300b565b90506000816001600160401b03811115611abe57611abe612522565b604051908082528060200260200182016040528015611ae7578160200160208202803683370190505b50905060005b82811015611b2557611b00816001613303565b828281518110611b1257611b126130b1565b6020908102919091010152600101611aed565b5080604051602001611b379190613316565b6040516020818303038152906040529250505090565b6000306001600160a01b037f000000000000000000000000000000000000000000000000000000000000000016148015611ba657507f000000000000000000000000000000000000000000000000000000000000000046145b15611bd057507f000000000000000000000000000000000000000000000000000000000000000090565b50604080517f00000000000000000000000000000000000000000000000000000000000000006020808301919091527f0000000000000000000000000000000000000000000000000000000000000000828401527f000000000000000000000000000000000000000000000000000000000000000060608301524660808301523060a0808401919091528351808403909101815260c0909201909252805191012090565b6000807f7fffffffffffffffffffffffffffffff5d576e7357a4501ddfe92f46681b20a0831115611cab5750600090506003611d58565b8460ff16601b14158015611cc357508460ff16601c14155b15611cd45750600090506004611d58565b6040805160008082526020820180845289905260ff881692820192909252606081018690526080810185905260019060a0016020604051602081039080840390855afa158015611d28573d6000803e3d6000fd5b5050604051601f1901519150506001600160a01b038116611d5157600060019250925050611d58565b9150600090505b94509492505050565b6000816004811115611d7557611d756129cf565b03611d7d5750565b6001816004811115611d9157611d916129cf565b03611dde5760405162461bcd60e51b815260206004820152601860248201527f45434453413a20696e76616c6964207369676e6174757265000000000000000060448201526064016109b6565b6002816004811115611df257611df26129cf565b03611e3f5760405162461bcd60e51b815260206004820152601f60248201527f45434453413a20696e76616c6964207369676e6174757265206c656e6774680060448201526064016109b6565b6003816004811115611e5357611e536129cf565b03611eab5760405162461bcd60e51b815260206004820152602260248201527f45434453413a20696e76616c6964207369676e6174757265202773272076616c604482015261756560f01b60648201526084016109b6565b6004816004811115611ebf57611ebf6129cf565b03611f175760405162461bcd60e51b815260206004820152602260248201527f45434453413a20696e76616c6964207369676e6174757265202776272076616c604482015261756560f01b60648201526084016109b6565b50565b60008581526004602090815260408083206001600160a01b0388168452600381019092529091205460ff1615611fa25760405162461bcd60e51b815260206004820152602760248201527f476f7665726e6f72566f74696e6753696d706c653a20766f746520616c726561604482015266191e4818d85cdd60ca1b60648201526084016109b6565b6001600160a01b03851660009081526003820160205260409020805460ff1916600117905560ff8416611fee5782816000016000828254611fe39190613303565b909155506111dc9050565b60001960ff85160161200e5782816001016000828254611fe39190613303565b60011960ff85160161202e5782816002016000828254611fe39190613303565b60405162461bcd60e51b815260206004820152603560248201527f476f7665726e6f72566f74696e6753696d706c653a20696e76616c69642076616044820152746c756520666f7220656e756d20566f74655479706560581b60648201526084016109b6565b8154600160801b90819004600f0b6000818152600180860160205260409091209390935583546001600160801b03908116939091011602179055565b600060405180606001604052806027815260200161334660279139905060005b85518110156121c65760008087838151811061210e5761210e6130b1565b60200260200101516001600160a01b0316878481518110612131576121316130b1565b602002602001015187858151811061214b5761214b6130b1565b60200260200101516040516121609190613329565b60006040518083038185875af1925050503d806000811461219d576040519150601f19603f3d011682016040523d82523d6000602084013e6121a2565b606091505b50915091506121b2828286612461565b505050806121bf906130c7565b90506120f0565b50505050505050565b6000818152600460205260408120600281015460018201546121f19190613303565b6121fd61077085610a41565b11159392505050565b60006001600160401b0382111561226e5760405162461bcd60e51b815260206004820152602660248201527f53616665436173743a2076616c756520646f65736e27742066697420696e203660448201526534206269747360d01b60648201526084016109b6565b5090565b60008080600019858709858702925082811083820303915050806000036122ac578382816122a2576122a2612ea2565b0492505050610cbe565b8381106122d657604051631dcf306360e21b815260048101829052602481018590526044016109b6565b60008486880960026001871981018816978890046003810283188082028403028082028403028082028403028082028403028082028403029081029092039091026000889003889004909101858311909403939093029303949094049190911702949350505050565b6060824710156123a05760405162461bcd60e51b815260206004820152602660248201527f416464726573733a20696e73756666696369656e742062616c616e636520666f6044820152651c8818d85b1b60d21b60648201526084016109b6565b6001600160a01b0385163b6123f75760405162461bcd60e51b815260206004820152601d60248201527f416464726573733a2063616c6c20746f206e6f6e2d636f6e747261637400000060448201526064016109b6565b600080866001600160a01b031685876040516124139190613329565b60006040518083038185875af1925050503d8060008114612450576040519150601f19603f3d011682016040523d82523d6000602084013e612455565b606091505b5091509150610b498282865b60608315612470575081610cbe565b8251156124805782518084602001fd5b8160405162461bcd60e51b81526004016109b691906126d5565b6000602082840312156124ac57600080fd5b81356001600160e01b031981168114610cbe57600080fd5b803560ff811681146124d557600080fd5b919050565b60008083601f8401126124ec57600080fd5b5081356001600160401b0381111561250357600080fd5b60208301915083602082850101111561251b57600080fd5b9250929050565b634e487b7160e01b600052604160045260246000fd5b604051601f8201601f191681016001600160401b038111828210171561256057612560612522565b604052919050565b60006001600160401b0383111561258157612581612522565b612594601f8401601f1916602001612538565b90508281528383830111156125a857600080fd5b828260208301376000602084830101529392505050565b600082601f8301126125d057600080fd5b610cbe83833560208501612568565b60008060008060008060008060e0898b0312156125fb57600080fd5b8835975061260b60208a016124c4565b965060408901356001600160401b038082111561262757600080fd5b6126338c838d016124da565b909850965060608b013591508082111561264c57600080fd5b506126598b828c016125bf565b94505061266860808a016124c4565b925060a0890135915060c089013590509295985092959890939650565b60005b838110156126a0578181015183820152602001612688565b50506000910152565b600081518084526126c1816020860160208601612685565b601f01601f19169290920160200192915050565b602081526000610cbe60208301846126a9565b6001600160a01b0381168114611f1757600080fd5b6000806000806080858703121561271357600080fd5b843561271e816126e8565b9350602085013561272e816126e8565b92506040850135915060608501356001600160401b0381111561275057600080fd5b61275c878288016125bf565b91505092959194509250565b60006001600160401b0382111561278157612781612522565b5060051b60200190565b600082601f83011261279c57600080fd5b813560206127b16127ac83612768565b612538565b82815260059290921b840181019181810190868411156127d057600080fd5b8286015b848110156127f45780356127e7816126e8565b83529183019183016127d4565b509695505050505050565b600082601f83011261281057600080fd5b813560206128206127ac83612768565b82815260059290921b8401810191818101908684111561283f57600080fd5b8286015b848110156127f45780358352918301918301612843565b600082601f83011261286b57600080fd5b8135602061287b6127ac83612768565b82815260059290921b8401810191818101908684111561289a57600080fd5b8286015b848110156127f45780356001600160401b038111156128bd5760008081fd5b6128cb8986838b01016125bf565b84525091830191830161289e565b600080600080608085870312156128ef57600080fd5b84356001600160401b038082111561290657600080fd5b6129128883890161278b565b9550602087013591508082111561292857600080fd5b612934888389016127ff565b9450604087013591508082111561294a57600080fd5b506129578782880161285a565b949793965093946060013593505050565b60006020828403121561297a57600080fd5b5035919050565b600080600080600060a0868803121561299957600080fd5b853594506129a9602087016124c4565b93506129b7604087016124c4565b94979396509394606081013594506080013592915050565b634e487b7160e01b600052602160045260246000fd5b6020810160088310612a0757634e487b7160e01b600052602160045260246000fd5b91905290565b60008060408385031215612a2057600080fd5b823591506020830135612a32816126e8565b809150509250929050565b60008060408385031215612a5057600080fd5b82359150612a60602084016124c4565b90509250929050565b60008060208385031215612a7c57600080fd5b82356001600160401b0380821115612a9357600080fd5b818501915085601f830112612aa757600080fd5b813581811115612ab657600080fd5b8660208260061b8501011115612acb57600080fd5b60209290920196919550909350505050565b600080600080600060808688031215612af557600080fd5b85359450612b05602087016124c4565b935060408601356001600160401b0380821115612b2157600080fd5b612b2d89838a016124da565b90955093506060880135915080821115612b4657600080fd5b50612b53888289016125bf565b9150509295509295909350565b60008060008060608587031215612b7657600080fd5b84359350612b86602086016124c4565b925060408501356001600160401b03811115612ba157600080fd5b612bad878288016124da565b95989497509550505050565b60008060008060808587031215612bcf57600080fd5b84356001600160401b0380821115612be657600080fd5b612bf28883890161278b565b95506020870135915080821115612c0857600080fd5b612c14888389016127ff565b94506040870135915080821115612c2a57600080fd5b612c368883890161285a565b93506060870135915080821115612c4c57600080fd5b508501601f81018713612c5e57600080fd5b61275c87823560208401612568565b600080600060608486031215612c8257600080fd5b8335612c8d816126e8565b92506020840135915060408401356001600160401b03811115612caf57600080fd5b612cbb868287016125bf565b9150509250925092565b600080600080600060a08688031215612cdd57600080fd5b8535612ce8816126e8565b94506020860135612cf8816126e8565b935060408601356001600160401b0380821115612d1457600080fd5b612d2089838a016127ff565b94506060880135915080821115612d3657600080fd5b612d4289838a016127ff565b93506080880135915080821115612b4657600080fd5b60008060008060608587031215612d6e57600080fd5b8435612d79816126e8565b93506020850135925060408501356001600160401b03811115612ba157600080fd5b60008060408385031215612dae57600080fd5b8235612db9816126e8565b946020939093013593505050565b600080600080600060a08688031215612ddf57600080fd5b8535612dea816126e8565b94506020860135612dfa816126e8565b9350604086013592506060860135915060808601356001600160401b03811115612e2357600080fd5b612b53888289016125bf565b8183823760009101908152919050565b600181811c90821680612e5357607f821691505b602082108103612e7357634e487b7160e01b600052602260045260246000fd5b50919050565b634e487b7160e01b600052601160045260246000fd5b8181038181111561078557610785612e79565b634e487b7160e01b600052601260045260246000fd5b600082612ed557634e487b7160e01b600052601260045260246000fd5b500490565b600081518084526020808501945080840160005b83811015612f135781516001600160a01b031687529582019590820190600101612eee565b509495945050505050565b600081518084526020808501945080840160005b83811015612f1357815187529582019590820190600101612f32565b600081518084526020808501808196508360051b8101915082860160005b85811015612f96578284038952612f848483516126a9565b98850198935090840190600101612f6c565b5091979650505050505050565b608081526000612fb66080830187612eda565b8281036020840152612fc88187612f1e565b90508281036040840152612fdc8186612f4e565b91505082606083015295945050505050565b60006020828403121561300057600080fd5b8151610cbe816126e8565b60006020828403121561301d57600080fd5b5051919050565b600081600019048311821515161561303e5761303e612e79565b500290565b84815260ff84166020820152826040820152608060608201526000610bb960808301846126a9565b85815260ff8516602082015283604082015260a06060820152600061309360a08301856126a9565b82810360808401526130a581856126a9565b98975050505050505050565b634e487b7160e01b600052603260045260246000fd5b6000600182016130d9576130d9612e79565b5060010190565b6020808252818101839052600090604080840186845b8781101561311a5781358352848201358584015291830191908301906001016130f6565b5090979650505050505050565b60208082526021908201527f476f7665726e6f723a20696e76616c69642070726f706f73616c206c656e67746040820152600d60fb1b606082015260800190565b6001600160401b0381811683821601908082111561318857613188612e79565b5092915050565b60006101208b8352602060018060a01b038c16818501528160408501526131b88285018c612eda565b915083820360608501526131cc828b612f1e565b915083820360808501528189518084528284019150828160051b850101838c0160005b8381101561321d57601f1987840301855261320b8383516126a9565b948601949250908501906001016131ef565b505086810360a0880152613231818c612f4e565b94505050505061324c60c08401876001600160401b03169052565b6001600160401b03851660e084015282810361010084015261326e81856126a9565b9c9b505050505050505050505050565b6000602080838503121561329157600080fd5b82516001600160401b038111156132a757600080fd5b8301601f810185136132b857600080fd5b80516132c66127ac82612768565b81815260059190911b820183019083810190878311156132e557600080fd5b928401925b82841015610b49578351825292840192908401906132ea565b8082018082111561078557610785612e79565b602081526000610cbe6020830184612f1e565b6000825161333b818460208701612685565b919091019291505056fe476f7665726e6f723a2063616c6c20726576657274656420776974686f7574206d657373616765416464726573733a206c6f772d6c6576656c2063616c6c20776974682076616c7565206661696c6564a2646970667358221220dec9edc777db1ad2079d5a3f72dee94fb34b33a5f367ee08db7c12e99b8a04d964736f6c63430008100033",
    "linkReferences": {}
  },
  "methodIdentifiers": {
    "BALLOT_TYPEHASH()": "deaaa7cc",
    "COUNTING_MODE()": "dd4e2ba5",
    "EXTENDED_BALLOT_TYPEHASH()": "2fe3e261",
    "MAX_VOTING_POWER_TIER()": "4b501fbd",
    "castVote(uint256,uint8)": "56781388",
    "castVoteBySig(uint256,uint8,uint8,bytes32,bytes32)": "3bccf4fd",
    "castVoteWithReason(uint256,uint8,string)": "7b3c71d3",
    "castVoteWithReasonAndParams(uint256,uint8,string,bytes)": "5f398a14",
    "castVoteWithReasonAndParamsBySig(uint256,uint8,string,bytes,uint8,bytes32,bytes32)": "03420181",
    "defifaDelegate()": "58d5ac0a",
    "execute(address[],uint256[],bytes[],bytes32)": "2656227d",
    "getVotes(address,uint256)": "eb9019d4",
    "getVotesWithParams(address,uint256,bytes)": "9a802a6d",
    "hasVoted(uint256,address)": "43859632",
    "hashProposal(address[],uint256[],bytes[],bytes32)": "c59057e4",
    "name()": "06fdde03",
    "onERC1155BatchReceived(address,address,uint256[],uint256[],bytes)": "bc197c81",
    "onERC1155Received(address,address,uint256,uint256,bytes)": "f23a6e61",
    "onERC721Received(address,address,uint256,bytes)": "150b7a02",
    "proposalDeadline(uint256)": "c01f9e37",
    "proposalSnapshot(uint256)": "2d63f693",
    "proposalThreshold()": "b58131b0",
    "proposalVotes(uint256)": "544ffc9c",
    "propose(address[],uint256[],bytes[],string)": "7d5e81e2",
    "quorum(uint256)": "f8ce560a",
    "ratifyScorecard((uint256,uint256)[])": "64d87a61",
    "relay(address,uint256,bytes)": "c28bc2fa",
    "state(uint256)": "3e4f49e6",
    "submitScorecards((uint256,uint256)[])": "59f397bd",
    "supportsInterface(bytes4)": "01ffc9a7",
    "version()": "54fd4d50",
    "votingDelay()": "3932abb1",
    "votingPeriod()": "02a251a3",
    "votingStartTime()": "2019a608"
  },
  "id": 2
}