{
  "abi": [
    {
      "inputs": [
        {
          "internalType": "address",
          "name": "_owner",
          "type": "address"
        }
      ],
      "stateMutability": "nonpayable",
      "type": "constructor"
    },
    {
      "inputs": [
        {
          "internalType": "uint256",
          "name": "prod1",
          "type": "uint256"
        },
        {
          "internalType": "uint256",
          "name": "denominator",
          "type": "uint256"
        }
      ],
      "name": "PRBMath__MulDivOverflow",
      "type": "error"
    },
    {
      "inputs": [],
      "name": "PRICE_FEED_ALREADY_EXISTS",
      "type": "error"
    },
    {
      "inputs": [],
      "name": "PRICE_FEED_NOT_FOUND",
      "type": "error"
    },
    {
      "anonymous": false,
      "inputs": [
        {
          "indexed": true,
          "internalType": "uint256",
          "name": "currency",
          "type": "uint256"
        },
        {
          "indexed": true,
          "internalType": "uint256",
          "name": "base",
          "type": "uint256"
        },
        {
          "indexed": false,
          "internalType": "contract IJBPriceFeed",
          "name": "feed",
          "type": "address"
        }
      ],
      "name": "AddFeed",
      "type": "event"
    },
    {
      "anonymous": false,
      "inputs": [
        {
          "indexed": true,
          "internalType": "address",
          "name": "previousOwner",
          "type": "address"
        },
        {
          "indexed": true,
          "internalType": "address",
          "name": "newOwner",
          "type": "address"
        }
      ],
      "name": "OwnershipTransferred",
      "type": "event"
    },
    {
      "inputs": [
        {
          "internalType": "uint256",
          "name": "_currency",
          "type": "uint256"
        },
        {
          "internalType": "uint256",
          "name": "_base",
          "type": "uint256"
        },
        {
          "internalType": "contract IJBPriceFeed",
          "name": "_feed",
          "type": "address"
        }
      ],
      "name": "addFeedFor",
      "outputs": [],
      "stateMutability": "nonpayable",
      "type": "function"
    },
    {
      "inputs": [
        {
          "internalType": "uint256",
          "name": "",
          "type": "uint256"
        },
        {
          "internalType": "uint256",
          "name": "",
          "type": "uint256"
        }
      ],
      "name": "feedFor",
      "outputs": [
        {
          "internalType": "contract IJBPriceFeed",
          "name": "",
          "type": "address"
        }
      ],
      "stateMutability": "view",
      "type": "function"
    },
    {
      "inputs": [],
      "name": "owner",
      "outputs": [
        {
          "internalType": "address",
          "name": "",
          "type": "address"
        }
      ],
      "stateMutability": "view",
      "type": "function"
    },
    {
      "inputs": [
        {
          "internalType": "uint256",
          "name": "_currency",
          "type": "uint256"
        },
        {
          "internalType": "uint256",
          "name": "_base",
          "type": "uint256"
        },
        {
          "internalType": "uint256",
          "name": "_decimals",
          "type": "uint256"
        }
      ],
      "name": "priceFor",
      "outputs": [
        {
          "internalType": "uint256",
          "name": "",
          "type": "uint256"
        }
      ],
      "stateMutability": "view",
      "type": "function"
    },
    {
      "inputs": [],
      "name": "renounceOwnership",
      "outputs": [],
      "stateMutability": "nonpayable",
      "type": "function"
    },
    {
      "inputs": [
        {
          "internalType": "address",
          "name": "newOwner",
          "type": "address"
        }
      ],
      "name": "transferOwnership",
      "outputs": [],
      "stateMutability": "nonpayable",
      "type": "function"
    }
  ],
  "bytecode": {
    "object": "0x608060405234801561001057600080fd5b5060405161096538038061096583398101604081905261002f91610171565b61003833610047565b61004181610097565b506101a1565b600080546001600160a01b038381166001600160a01b0319831681178455604051919092169283917f8be0079c531659141344cd1fd0a4f28419497f9722a3daafe3b4186f6b6457e09190a35050565b61009f610115565b6001600160a01b0381166101095760405162461bcd60e51b815260206004820152602660248201527f4f776e61626c653a206e6577206f776e657220697320746865207a65726f206160448201526564647265737360d01b60648201526084015b60405180910390fd5b61011281610047565b50565b6000546001600160a01b0316331461016f5760405162461bcd60e51b815260206004820181905260248201527f4f776e61626c653a2063616c6c6572206973206e6f7420746865206f776e65726044820152606401610100565b565b60006020828403121561018357600080fd5b81516001600160a01b038116811461019a57600080fd5b9392505050565b6107b5806101b06000396000f3fe608060405234801561001057600080fd5b50600436106100625760003560e01c806315d63a9114610067578063715018a6146100b85780638da5cb5b146100c257806396364e6d146100d3578063a4d0caf2146100e6578063f2fde38b14610107575b600080fd5b61009b61007536600461058f565b60016020908152600092835260408084209091529082529020546001600160a01b031681565b6040516001600160a01b0390911681526020015b60405180910390f35b6100c061011a565b005b6000546001600160a01b031661009b565b6100c06100e13660046105c6565b61012e565b6100f96100f43660046105ff565b610214565b6040519081526020016100af565b6100c061011536600461062b565b61039a565b610122610418565b61012c6000610472565b565b610136610418565b60008381526001602090815260408083208584529091529020546001600160a01b0316151580610187575060008281526001602090815260408083208684529091529020546001600160a01b031615155b156101a55760405163d28d564f60e01b815260040160405180910390fd5b600083815260016020908152604080832085845282529182902080546001600160a01b0319166001600160a01b0385169081179091559151918252839185917f2809ef679fa4c20b88a6467f2660840ad173b5205fef76c270c5d7ba44cb7057910160405180910390a3505050565b600082840361022f5761022882600a610744565b9050610393565b60008481526001602090815260408083208684529091529020546001600160a01b031680156102c957604051637a3c4c1760e01b8152600481018490526001600160a01b03821690637a3c4c1790602401602060405180830381865afa15801561029d573d6000803e3d6000fd5b505050506040513d601f19601f820116820180604052508101906102c19190610750565b915050610393565b5060008381526001602090815260408083208784529091529020546001600160a01b0316801561037a576102c161030184600a610744565b61030c85600a610744565b604051637a3c4c1760e01b8152600481018790526001600160a01b03851690637a3c4c1790602401602060405180830381865afa158015610351573d6000803e3d6000fd5b505050506040513d601f19601f820116820180604052508101906103759190610750565b6104c2565b604051633ae4eae560e11b815260040160405180910390fd5b9392505050565b6103a2610418565b6001600160a01b03811661040c5760405162461bcd60e51b815260206004820152602660248201527f4f776e61626c653a206e6577206f776e657220697320746865207a65726f206160448201526564647265737360d01b60648201526084015b60405180910390fd5b61041581610472565b50565b6000546001600160a01b0316331461012c5760405162461bcd60e51b815260206004820181905260248201527f4f776e61626c653a2063616c6c6572206973206e6f7420746865206f776e65726044820152606401610403565b600080546001600160a01b038381166001600160a01b0319831681178455604051919092169283917f8be0079c531659141344cd1fd0a4f28419497f9722a3daafe3b4186f6b6457e09190a35050565b60008080600019858709858702925082811083820303915050806000036104fc578382816104f2576104f2610769565b0492505050610393565b83811061052657604051631dcf306360e21b81526004810182905260248101859052604401610403565b60008486880960026001871981018816978890046003810283188082028403028082028403028082028403028082028403028082028403029081029092039091026000889003889004909101858311909403939093029303949094049190911702949350505050565b600080604083850312156105a257600080fd5b50508035926020909101359150565b6001600160a01b038116811461041557600080fd5b6000806000606084860312156105db57600080fd5b833592506020840135915060408401356105f4816105b1565b809150509250925092565b60008060006060848603121561061457600080fd5b505081359360208301359350604090920135919050565b60006020828403121561063d57600080fd5b8135610393816105b1565b634e487b7160e01b600052601160045260246000fd5b600181815b8085111561069957816000190482111561067f5761067f610648565b8085161561068c57918102915b93841c9390800290610663565b509250929050565b6000826106b05750600161073e565b816106bd5750600061073e565b81600181146106d357600281146106dd576106f9565b600191505061073e565b60ff8411156106ee576106ee610648565b50506001821b61073e565b5060208310610133831016604e8410600b841016171561071c575081810a61073e565b610726838361065e565b806000190482111561073a5761073a610648565b0290505b92915050565b600061039383836106a1565b60006020828403121561076257600080fd5b5051919050565b634e487b7160e01b600052601260045260246000fdfea2646970667358221220d767c0b443bcf2ed232e72ed6e3fc4e1041ffee17f83c9e2452ffce14debcc1d64736f6c63430008100033",
    "linkReferences": {}
  },
  "methodIdentifiers": {
    "addFeedFor(uint256,uint256,address)": "96364e6d",
    "feedFor(uint256,uint256)": "15d63a91",
    "owner()": "8da5cb5b",
    "priceFor(uint256,uint256,uint256)": "a4d0caf2",
    "renounceOwnership()": "715018a6",
    "transferOwnership(address)": "f2fde38b"
  },
  "id": 63
}