{
  "abi": [
    {
      "inputs": [],
      "name": "ALEADY_MINTED",
      "type": "error"
    },
    {
      "inputs": [],
      "name": "APPROVAL_TO_CURRENT_OWNER",
      "type": "error"
    },
    {
      "inputs": [],
      "name": "APPROVE_TO_CALLER",
      "type": "error"
    },
    {
      "inputs": [],
      "name": "BLOCK_NOT_YET_MINED",
      "type": "error"
    },
    {
      "inputs": [],
      "name": "CALLER_NOT_OWNER_OR_APPROVED",
      "type": "error"
    },
    {
      "inputs": [],
      "name": "DELEGATE_ADDRESS_ZERO",
      "type": "error"
    },
    {
      "inputs": [],
      "name": "INCORRECT_OWNER",
      "type": "error"
    },
    {
      "inputs": [],
      "name": "INVALID_PAYMENT_EVENT",
      "type": "error"
    },
    {
      "inputs": [],
      "name": "INVALID_REDEMPTION_EVENT",
      "type": "error"
    },
    {
      "inputs": [],
      "name": "INVALID_REDEMPTION_METADATA",
      "type": "error"
    },
    {
      "inputs": [],
      "name": "INVALID_TOKEN_ID",
      "type": "error"
    },
    {
      "inputs": [],
      "name": "MINT_TO_ZERO",
      "type": "error"
    },
    {
      "inputs": [],
      "name": "NOT_AVAILABLE",
      "type": "error"
    },
    {
      "inputs": [],
      "name": "OVERSPENDING",
      "type": "error"
    },
    {
      "inputs": [
        {
          "internalType": "uint256",
          "name": "prod1",
          "type": "uint256"
        },
        {
          "internalType": "uint256",
          "name": "denominator",
          "type": "uint256"
        }
      ],
      "name": "PRBMath__MulDivOverflow",
      "type": "error"
    },
    {
      "inputs": [],
      "name": "PRICING_RESOLVER_CHANGES_PAUSED",
      "type": "error"
    },
    {
      "inputs": [],
      "name": "RESERVED_TOKEN_MINTING_PAUSED",
      "type": "error"
    },
    {
      "inputs": [],
      "name": "TRANSFERS_PAUSED",
      "type": "error"
    },
    {
      "inputs": [],
      "name": "TRANSFER_TO_NON_IMPLEMENTER",
      "type": "error"
    },
    {
      "inputs": [],
      "name": "TRANSFER_TO_ZERO_ADDRESS",
      "type": "error"
    },
    {
      "inputs": [],
      "name": "UNAUTHORIZED",
      "type": "error"
    },
    {
      "inputs": [],
      "name": "UNEXPECTED_TOKEN_REDEEMED",
      "type": "error"
    },
    {
      "anonymous": false,
      "inputs": [
        {
          "indexed": true,
          "internalType": "uint256",
          "name": "tierId",
          "type": "uint256"
        },
        {
          "components": [
            {
              "internalType": "uint80",
              "name": "contributionFloor",
              "type": "uint80"
            },
            {
              "internalType": "uint48",
              "name": "lockedUntil",
              "type": "uint48"
            },
            {
              "internalType": "uint40",
              "name": "initialQuantity",
              "type": "uint40"
            },
            {
              "internalType": "uint16",
              "name": "votingUnits",
              "type": "uint16"
            },
            {
              "internalType": "uint16",
              "name": "reservedRate",
              "type": "uint16"
            },
            {
              "internalType": "address",
              "name": "reservedTokenBeneficiary",
              "type": "address"
            },
            {
              "internalType": "bytes32",
              "name": "encodedIPFSUri",
              "type": "bytes32"
            },
            {
              "internalType": "bool",
              "name": "allowManualMint",
              "type": "bool"
            },
            {
              "internalType": "bool",
              "name": "shouldUseBeneficiaryAsDefault",
              "type": "bool"
            },
            {
              "internalType": "bool",
              "name": "transfersPausable",
              "type": "bool"
            }
          ],
          "indexed": false,
          "internalType": "struct JB721TierParams",
          "name": "data",
          "type": "tuple"
        },
        {
          "indexed": false,
          "internalType": "address",
          "name": "caller",
          "type": "address"
        }
      ],
      "name": "AddTier",
      "type": "event"
    },
    {
      "anonymous": false,
      "inputs": [
        {
          "indexed": true,
          "internalType": "address",
          "name": "owner",
          "type": "address"
        },
        {
          "indexed": true,
          "internalType": "address",
          "name": "approved",
          "type": "address"
        },
        {
          "indexed": true,
          "internalType": "uint256",
          "name": "tokenId",
          "type": "uint256"
        }
      ],
      "name": "Approval",
      "type": "event"
    },
    {
      "anonymous": false,
      "inputs": [
        {
          "indexed": true,
          "internalType": "address",
          "name": "owner",
          "type": "address"
        },
        {
          "indexed": true,
          "internalType": "address",
          "name": "operator",
          "type": "address"
        },
        {
          "indexed": false,
          "internalType": "bool",
          "name": "approved",
          "type": "bool"
        }
      ],
      "name": "ApprovalForAll",
      "type": "event"
    },
    {
      "anonymous": false,
      "inputs": [
        {
          "indexed": true,
          "internalType": "address",
          "name": "delegator",
          "type": "address"
        },
        {
          "indexed": true,
          "internalType": "address",
          "name": "fromDelegate",
          "type": "address"
        },
        {
          "indexed": true,
          "internalType": "address",
          "name": "toDelegate",
          "type": "address"
        }
      ],
      "name": "DelegateChanged",
      "type": "event"
    },
    {
      "anonymous": false,
      "inputs": [
        {
          "indexed": true,
          "internalType": "uint256",
          "name": "tokenId",
          "type": "uint256"
        },
        {
          "indexed": true,
          "internalType": "uint256",
          "name": "tierId",
          "type": "uint256"
        },
        {
          "indexed": true,
          "internalType": "address",
          "name": "beneficiary",
          "type": "address"
        },
        {
          "indexed": false,
          "internalType": "uint256",
          "name": "totalAmountContributed",
          "type": "uint256"
        },
        {
          "indexed": false,
          "internalType": "address",
          "name": "caller",
          "type": "address"
        }
      ],
      "name": "Mint",
      "type": "event"
    },
    {
      "anonymous": false,
      "inputs": [
        {
          "indexed": true,
          "internalType": "uint256",
          "name": "tokenId",
          "type": "uint256"
        },
        {
          "indexed": true,
          "internalType": "uint256",
          "name": "tierId",
          "type": "uint256"
        },
        {
          "indexed": true,
          "internalType": "address",
          "name": "beneficiary",
          "type": "address"
        },
        {
          "indexed": false,
          "internalType": "address",
          "name": "caller",
          "type": "address"
        }
      ],
      "name": "MintReservedToken",
      "type": "event"
    },
    {
      "anonymous": false,
      "inputs": [
        {
          "indexed": true,
          "internalType": "address",
          "name": "previousOwner",
          "type": "address"
        },
        {
          "indexed": true,
          "internalType": "address",
          "name": "newOwner",
          "type": "address"
        }
      ],
      "name": "OwnershipTransferred",
      "type": "event"
    },
    {
      "anonymous": false,
      "inputs": [
        {
          "indexed": true,
          "internalType": "uint256",
          "name": "tierId",
          "type": "uint256"
        },
        {
          "indexed": false,
          "internalType": "address",
          "name": "caller",
          "type": "address"
        }
      ],
      "name": "RemoveTier",
      "type": "event"
    },
    {
      "anonymous": false,
      "inputs": [
        {
          "indexed": true,
          "internalType": "string",
          "name": "baseUri",
          "type": "string"
        },
        {
          "indexed": false,
          "internalType": "address",
          "name": "caller",
          "type": "address"
        }
      ],
      "name": "SetBaseUri",
      "type": "event"
    },
    {
      "anonymous": false,
      "inputs": [
        {
          "indexed": true,
          "internalType": "string",
          "name": "contractUri",
          "type": "string"
        },
        {
          "indexed": false,
          "internalType": "address",
          "name": "caller",
          "type": "address"
        }
      ],
      "name": "SetContractUri",
      "type": "event"
    },
    {
      "anonymous": false,
      "inputs": [
        {
          "indexed": true,
          "internalType": "address",
          "name": "beneficiary",
          "type": "address"
        },
        {
          "indexed": false,
          "internalType": "address",
          "name": "caller",
          "type": "address"
        }
      ],
      "name": "SetDefaultReservedTokenBeneficiary",
      "type": "event"
    },
    {
      "anonymous": false,
      "inputs": [
        {
          "indexed": true,
          "internalType": "contract IJBTokenUriResolver",
          "name": "newResolver",
          "type": "address"
        },
        {
          "indexed": false,
          "internalType": "address",
          "name": "caller",
          "type": "address"
        }
      ],
      "name": "SetTokenUriResolver",
      "type": "event"
    },
    {
      "anonymous": false,
      "inputs": [
        {
          "indexed": true,
          "internalType": "address",
          "name": "delegator",
          "type": "address"
        },
        {
          "indexed": true,
          "internalType": "address",
          "name": "fromDelegate",
          "type": "address"
        },
        {
          "indexed": true,
          "internalType": "address",
          "name": "toDelegate",
          "type": "address"
        },
        {
          "indexed": false,
          "internalType": "uint256",
          "name": "tierId",
          "type": "uint256"
        },
        {
          "indexed": false,
          "internalType": "address",
          "name": "caller",
          "type": "address"
        }
      ],
      "name": "TierDelegateChanged",
      "type": "event"
    },
    {
      "anonymous": false,
      "inputs": [
        {
          "indexed": true,
          "internalType": "address",
          "name": "delegate",
          "type": "address"
        },
        {
          "indexed": true,
          "internalType": "uint256",
          "name": "tierId",
          "type": "uint256"
        },
        {
          "indexed": false,
          "internalType": "uint256",
          "name": "previousBalance",
          "type": "uint256"
        },
        {
          "indexed": false,
          "internalType": "uint256",
          "name": "newBalance",
          "type": "uint256"
        },
        {
          "indexed": false,
          "internalType": "address",
          "name": "callre",
          "type": "address"
        }
      ],
      "name": "TierDelegateVotesChanged",
      "type": "event"
    },
    {
      "anonymous": false,
      "inputs": [
        {
          "indexed": true,
          "internalType": "address",
          "name": "from",
          "type": "address"
        },
        {
          "indexed": true,
          "internalType": "address",
          "name": "to",
          "type": "address"
        },
        {
          "indexed": true,
          "internalType": "uint256",
          "name": "tokenId",
          "type": "uint256"
        }
      ],
      "name": "Transfer",
      "type": "event"
    },
    {
      "inputs": [
        {
          "components": [
            {
              "internalType": "uint80",
              "name": "contributionFloor",
              "type": "uint80"
            },
            {
              "internalType": "uint48",
              "name": "lockedUntil",
              "type": "uint48"
            },
            {
              "internalType": "uint40",
              "name": "initialQuantity",
              "type": "uint40"
            },
            {
              "internalType": "uint16",
              "name": "votingUnits",
              "type": "uint16"
            },
            {
              "internalType": "uint16",
              "name": "reservedRate",
              "type": "uint16"
            },
            {
              "internalType": "address",
              "name": "reservedTokenBeneficiary",
              "type": "address"
            },
            {
              "internalType": "bytes32",
              "name": "encodedIPFSUri",
              "type": "bytes32"
            },
            {
              "internalType": "bool",
              "name": "allowManualMint",
              "type": "bool"
            },
            {
              "internalType": "bool",
              "name": "shouldUseBeneficiaryAsDefault",
              "type": "bool"
            },
            {
              "internalType": "bool",
              "name": "transfersPausable",
              "type": "bool"
            }
          ],
          "internalType": "struct JB721TierParams[]",
          "name": "_tiersToAdd",
          "type": "tuple[]"
        },
        {
          "internalType": "uint256[]",
          "name": "_tierIdsToRemove",
          "type": "uint256[]"
        }
      ],
      "name": "adjustTiers",
      "outputs": [],
      "stateMutability": "nonpayable",
      "type": "function"
    },
    {
      "inputs": [
        {
          "internalType": "address",
          "name": "to",
          "type": "address"
        },
        {
          "internalType": "uint256",
          "name": "tokenId",
          "type": "uint256"
        }
      ],
      "name": "approve",
      "outputs": [],
      "stateMutability": "nonpayable",
      "type": "function"
    },
    {
      "inputs": [
        {
          "internalType": "address",
          "name": "_owner",
          "type": "address"
        }
      ],
      "name": "balanceOf",
      "outputs": [
        {
          "internalType": "uint256",
          "name": "balance",
          "type": "uint256"
        }
      ],
      "stateMutability": "view",
      "type": "function"
    },
    {
      "inputs": [],
      "name": "codeOrigin",
      "outputs": [
        {
          "internalType": "address",
          "name": "",
          "type": "address"
        }
      ],
      "stateMutability": "view",
      "type": "function"
    },
    {
      "inputs": [],
      "name": "contractURI",
      "outputs": [
        {
          "internalType": "string",
          "name": "",
          "type": "string"
        }
      ],
      "stateMutability": "view",
      "type": "function"
    },
    {
      "inputs": [
        {
          "internalType": "address",
          "name": "",
          "type": "address"
        }
      ],
      "name": "creditsOf",
      "outputs": [
        {
          "internalType": "uint256",
          "name": "",
          "type": "uint256"
        }
      ],
      "stateMutability": "view",
      "type": "function"
    },
    {
      "inputs": [
        {
          "components": [
            {
              "internalType": "address",
              "name": "payer",
              "type": "address"
            },
            {
              "internalType": "uint256",
              "name": "projectId",
              "type": "uint256"
            },
            {
              "internalType": "uint256",
              "name": "currentFundingCycleConfiguration",
              "type": "uint256"
            },
            {
              "components": [
                {
                  "internalType": "address",
                  "name": "token",
                  "type": "address"
                },
                {
                  "internalType": "uint256",
                  "name": "value",
                  "type": "uint256"
                },
                {
                  "internalType": "uint256",
                  "name": "decimals",
                  "type": "uint256"
                },
                {
                  "internalType": "uint256",
                  "name": "currency",
                  "type": "uint256"
                }
              ],
              "internalType": "struct JBTokenAmount",
              "name": "amount",
              "type": "tuple"
            },
            {
              "components": [
                {
                  "internalType": "address",
                  "name": "token",
                  "type": "address"
                },
                {
                  "internalType": "uint256",
                  "name": "value",
                  "type": "uint256"
                },
                {
                  "internalType": "uint256",
                  "name": "decimals",
                  "type": "uint256"
                },
                {
                  "internalType": "uint256",
                  "name": "currency",
                  "type": "uint256"
                }
              ],
              "internalType": "struct JBTokenAmount",
              "name": "forwardedAmount",
              "type": "tuple"
            },
            {
              "internalType": "uint256",
              "name": "projectTokenCount",
              "type": "uint256"
            },
            {
              "internalType": "address",
              "name": "beneficiary",
              "type": "address"
            },
            {
              "internalType": "bool",
              "name": "preferClaimedTokens",
              "type": "bool"
            },
            {
              "internalType": "string",
              "name": "memo",
              "type": "string"
            },
            {
              "internalType": "bytes",
              "name": "metadata",
              "type": "bytes"
            }
          ],
          "internalType": "struct JBDidPayData",
          "name": "_data",
          "type": "tuple"
        }
      ],
      "name": "didPay",
      "outputs": [],
      "stateMutability": "payable",
      "type": "function"
    },
    {
      "inputs": [
        {
          "components": [
            {
              "internalType": "address",
              "name": "holder",
              "type": "address"
            },
            {
              "internalType": "uint256",
              "name": "projectId",
              "type": "uint256"
            },
            {
              "internalType": "uint256",
              "name": "currentFundingCycleConfiguration",
              "type": "uint256"
            },
            {
              "internalType": "uint256",
              "name": "projectTokenCount",
              "type": "uint256"
            },
            {
              "components": [
                {
                  "internalType": "address",
                  "name": "token",
                  "type": "address"
                },
                {
                  "internalType": "uint256",
                  "name": "value",
                  "type": "uint256"
                },
                {
                  "internalType": "uint256",
                  "name": "decimals",
                  "type": "uint256"
                },
                {
                  "internalType": "uint256",
                  "name": "currency",
                  "type": "uint256"
                }
              ],
              "internalType": "struct JBTokenAmount",
              "name": "reclaimedAmount",
              "type": "tuple"
            },
            {
              "components": [
                {
                  "internalType": "address",
                  "name": "token",
                  "type": "address"
                },
                {
                  "internalType": "uint256",
                  "name": "value",
                  "type": "uint256"
                },
                {
                  "internalType": "uint256",
                  "name": "decimals",
                  "type": "uint256"
                },
                {
                  "internalType": "uint256",
                  "name": "currency",
                  "type": "uint256"
                }
              ],
              "internalType": "struct JBTokenAmount",
              "name": "forwardedAmount",
              "type": "tuple"
            },
            {
              "internalType": "address payable",
              "name": "beneficiary",
              "type": "address"
            },
            {
              "internalType": "string",
              "name": "memo",
              "type": "string"
            },
            {
              "internalType": "bytes",
              "name": "metadata",
              "type": "bytes"
            }
          ],
          "internalType": "struct JBDidRedeemData",
          "name": "_data",
          "type": "tuple"
        }
      ],
      "name": "didRedeem",
      "outputs": [],
      "stateMutability": "payable",
      "type": "function"
    },
    {
      "inputs": [],
      "name": "directory",
      "outputs": [
        {
          "internalType": "contract IJBDirectory",
          "name": "",
          "type": "address"
        }
      ],
      "stateMutability": "view",
      "type": "function"
    },
    {
      "inputs": [
        {
          "internalType": "uint256",
          "name": "_tokenId",
          "type": "uint256"
        }
      ],
      "name": "firstOwnerOf",
      "outputs": [
        {
          "internalType": "address",
          "name": "",
          "type": "address"
        }
      ],
      "stateMutability": "view",
      "type": "function"
    },
    {
      "inputs": [],
      "name": "fundingCycleStore",
      "outputs": [
        {
          "internalType": "contract IJBFundingCycleStore",
          "name": "",
          "type": "address"
        }
      ],
      "stateMutability": "view",
      "type": "function"
    },
    {
      "inputs": [
        {
          "internalType": "uint256",
          "name": "tokenId",
          "type": "uint256"
        }
      ],
      "name": "getApproved",
      "outputs": [
        {
          "internalType": "address",
          "name": "",
          "type": "address"
        }
      ],
      "stateMutability": "view",
      "type": "function"
    },
    {
      "inputs": [
        {
          "internalType": "uint256",
          "name": "_tier",
          "type": "uint256"
        },
        {
          "internalType": "uint256",
          "name": "_blockNumber",
          "type": "uint256"
        }
      ],
      "name": "getPastTierTotalVotes",
      "outputs": [
        {
          "internalType": "uint256",
          "name": "",
          "type": "uint256"
        }
      ],
      "stateMutability": "view",
      "type": "function"
    },
    {
      "inputs": [
        {
          "internalType": "address",
          "name": "_account",
          "type": "address"
        },
        {
          "internalType": "uint256",
          "name": "_tier",
          "type": "uint256"
        },
        {
          "internalType": "uint256",
          "name": "_blockNumber",
          "type": "uint256"
        }
      ],
      "name": "getPastTierVotes",
      "outputs": [
        {
          "internalType": "uint256",
          "name": "",
          "type": "uint256"
        }
      ],
      "stateMutability": "view",
      "type": "function"
    },
    {
      "inputs": [
        {
          "internalType": "address",
          "name": "_account",
          "type": "address"
        },
        {
          "internalType": "uint256",
          "name": "_tier",
          "type": "uint256"
        }
      ],
      "name": "getTierDelegate",
      "outputs": [
        {
          "internalType": "address",
          "name": "",
          "type": "address"
        }
      ],
      "stateMutability": "view",
      "type": "function"
    },
    {
      "inputs": [
        {
          "internalType": "uint256",
          "name": "_tier",
          "type": "uint256"
        }
      ],
      "name": "getTierTotalVotes",
      "outputs": [
        {
          "internalType": "uint256",
          "name": "",
          "type": "uint256"
        }
      ],
      "stateMutability": "view",
      "type": "function"
    },
    {
      "inputs": [
        {
          "internalType": "address",
          "name": "_account",
          "type": "address"
        },
        {
          "internalType": "uint256",
          "name": "_tier",
          "type": "uint256"
        }
      ],
      "name": "getTierVotes",
      "outputs": [
        {
          "internalType": "uint256",
          "name": "",
          "type": "uint256"
        }
      ],
      "stateMutability": "view",
      "type": "function"
    },
    {
      "inputs": [
        {
          "internalType": "uint256",
          "name": "_projectId",
          "type": "uint256"
        },
        {
          "internalType": "contract IJBDirectory",
          "name": "_directory",
          "type": "address"
        },
        {
          "internalType": "string",
          "name": "_name",
          "type": "string"
        },
        {
          "internalType": "string",
          "name": "_symbol",
          "type": "string"
        },
        {
          "internalType": "contract IJBFundingCycleStore",
          "name": "_fundingCycleStore",
          "type": "address"
        },
        {
          "internalType": "string",
          "name": "_baseUri",
          "type": "string"
        },
        {
          "internalType": "contract IJBTokenUriResolver",
          "name": "_tokenUriResolver",
          "type": "address"
        },
        {
          "internalType": "string",
          "name": "_contractUri",
          "type": "string"
        },
        {
          "components": [
            {
              "components": [
                {
                  "internalType": "uint80",
                  "name": "contributionFloor",
                  "type": "uint80"
                },
                {
                  "internalType": "uint48",
                  "name": "lockedUntil",
                  "type": "uint48"
                },
                {
                  "internalType": "uint40",
                  "name": "initialQuantity",
                  "type": "uint40"
                },
                {
                  "internalType": "uint16",
                  "name": "votingUnits",
                  "type": "uint16"
                },
                {
                  "internalType": "uint16",
                  "name": "reservedRate",
                  "type": "uint16"
                },
                {
                  "internalType": "address",
                  "name": "reservedTokenBeneficiary",
                  "type": "address"
                },
                {
                  "internalType": "bytes32",
                  "name": "encodedIPFSUri",
                  "type": "bytes32"
                },
                {
                  "internalType": "bool",
                  "name": "allowManualMint",
                  "type": "bool"
                },
                {
                  "internalType": "bool",
                  "name": "shouldUseBeneficiaryAsDefault",
                  "type": "bool"
                },
                {
                  "internalType": "bool",
                  "name": "transfersPausable",
                  "type": "bool"
                }
              ],
              "internalType": "struct JB721TierParams[]",
              "name": "tiers",
              "type": "tuple[]"
            },
            {
              "internalType": "uint256",
              "name": "currency",
              "type": "uint256"
            },
            {
              "internalType": "uint256",
              "name": "decimals",
              "type": "uint256"
            },
            {
              "internalType": "contract IJBPrices",
              "name": "prices",
              "type": "address"
            }
          ],
          "internalType": "struct JB721PricingParams",
          "name": "_pricing",
          "type": "tuple"
        },
        {
          "internalType": "contract IJBTiered721DelegateStore",
          "name": "_store",
          "type": "address"
        },
        {
          "components": [
            {
              "internalType": "bool",
              "name": "lockReservedTokenChanges",
              "type": "bool"
            },
            {
              "internalType": "bool",
              "name": "lockVotingUnitChanges",
              "type": "bool"
            },
            {
              "internalType": "bool",
              "name": "lockManualMintingChanges",
              "type": "bool"
            }
          ],
          "internalType": "struct JBTiered721Flags",
          "name": "_flags",
          "type": "tuple"
        }
      ],
      "name": "initialize",
      "outputs": [],
      "stateMutability": "nonpayable",
      "type": "function"
    },
    {
      "inputs": [
        {
          "internalType": "address",
          "name": "owner",
          "type": "address"
        },
        {
          "internalType": "address",
          "name": "operator",
          "type": "address"
        }
      ],
      "name": "isApprovedForAll",
      "outputs": [
        {
          "internalType": "bool",
          "name": "",
          "type": "bool"
        }
      ],
      "stateMutability": "view",
      "type": "function"
    },
    {
      "inputs": [
        {
          "components": [
            {
              "internalType": "uint16[]",
              "name": "tierIds",
              "type": "uint16[]"
            },
            {
              "internalType": "address",
              "name": "beneficiary",
              "type": "address"
            }
          ],
          "internalType": "struct JBTiered721MintForTiersData[]",
          "name": "_mintForTiersData",
          "type": "tuple[]"
        }
      ],
      "name": "mintFor",
      "outputs": [],
      "stateMutability": "nonpayable",
      "type": "function"
    },
    {
      "inputs": [
        {
          "internalType": "uint16[]",
          "name": "_tierIds",
          "type": "uint16[]"
        },
        {
          "internalType": "address",
          "name": "_beneficiary",
          "type": "address"
        }
      ],
      "name": "mintFor",
      "outputs": [
        {
          "internalType": "uint256[]",
          "name": "tokenIds",
          "type": "uint256[]"
        }
      ],
      "stateMutability": "nonpayable",
      "type": "function"
    },
    {
      "inputs": [
        {
          "components": [
            {
              "internalType": "uint256",
              "name": "tierId",
              "type": "uint256"
            },
            {
              "internalType": "uint256",
              "name": "count",
              "type": "uint256"
            }
          ],
          "internalType": "struct JBTiered721MintReservesForTiersData[]",
          "name": "_mintReservesForTiersData",
          "type": "tuple[]"
        }
      ],
      "name": "mintReservesFor",
      "outputs": [],
      "stateMutability": "nonpayable",
      "type": "function"
    },
    {
      "inputs": [
        {
          "internalType": "uint256",
          "name": "_tierId",
          "type": "uint256"
        },
        {
          "internalType": "uint256",
          "name": "_count",
          "type": "uint256"
        }
      ],
      "name": "mintReservesFor",
      "outputs": [],
      "stateMutability": "nonpayable",
      "type": "function"
    },
    {
      "inputs": [],
      "name": "name",
      "outputs": [
        {
          "internalType": "string",
          "name": "",
          "type": "string"
        }
      ],
      "stateMutability": "view",
      "type": "function"
    },
    {
      "inputs": [],
      "name": "owner",
      "outputs": [
        {
          "internalType": "address",
          "name": "",
          "type": "address"
        }
      ],
      "stateMutability": "view",
      "type": "function"
    },
    {
      "inputs": [
        {
          "internalType": "uint256",
          "name": "tokenId",
          "type": "uint256"
        }
      ],
      "name": "ownerOf",
      "outputs": [
        {
          "internalType": "address",
          "name": "",
          "type": "address"
        }
      ],
      "stateMutability": "view",
      "type": "function"
    },
    {
      "inputs": [
        {
          "components": [
            {
              "internalType": "contract IJBPaymentTerminal",
              "name": "terminal",
              "type": "address"
            },
            {
              "internalType": "address",
              "name": "payer",
              "type": "address"
            },
            {
              "components": [
                {
                  "internalType": "address",
                  "name": "token",
                  "type": "address"
                },
                {
                  "internalType": "uint256",
                  "name": "value",
                  "type": "uint256"
                },
                {
                  "internalType": "uint256",
                  "name": "decimals",
                  "type": "uint256"
                },
                {
                  "internalType": "uint256",
                  "name": "currency",
                  "type": "uint256"
                }
              ],
              "internalType": "struct JBTokenAmount",
              "name": "amount",
              "type": "tuple"
            },
            {
              "internalType": "uint256",
              "name": "projectId",
              "type": "uint256"
            },
            {
              "internalType": "uint256",
              "name": "currentFundingCycleConfiguration",
              "type": "uint256"
            },
            {
              "internalType": "address",
              "name": "beneficiary",
              "type": "address"
            },
            {
              "internalType": "uint256",
              "name": "weight",
              "type": "uint256"
            },
            {
              "internalType": "uint256",
              "name": "reservedRate",
              "type": "uint256"
            },
            {
              "internalType": "string",
              "name": "memo",
              "type": "string"
            },
            {
              "internalType": "bytes",
              "name": "metadata",
              "type": "bytes"
            }
          ],
          "internalType": "struct JBPayParamsData",
          "name": "_data",
          "type": "tuple"
        }
      ],
      "name": "payParams",
      "outputs": [
        {
          "internalType": "uint256",
          "name": "weight",
          "type": "uint256"
        },
        {
          "internalType": "string",
          "name": "memo",
          "type": "string"
        },
        {
          "components": [
            {
              "internalType": "contract IJBPayDelegate",
              "name": "delegate",
              "type": "address"
            },
            {
              "internalType": "uint256",
              "name": "amount",
              "type": "uint256"
            }
          ],
          "internalType": "struct JBPayDelegateAllocation[]",
          "name": "delegateAllocations",
          "type": "tuple[]"
        }
      ],
      "stateMutability": "view",
      "type": "function"
    },
    {
      "inputs": [],
      "name": "prices",
      "outputs": [
        {
          "internalType": "contract IJBPrices",
          "name": "",
          "type": "address"
        }
      ],
      "stateMutability": "view",
      "type": "function"
    },
    {
      "inputs": [],
      "name": "pricingCurrency",
      "outputs": [
        {
          "internalType": "uint256",
          "name": "",
          "type": "uint256"
        }
      ],
      "stateMutability": "view",
      "type": "function"
    },
    {
      "inputs": [],
      "name": "pricingDecimals",
      "outputs": [
        {
          "internalType": "uint256",
          "name": "",
          "type": "uint256"
        }
      ],
      "stateMutability": "view",
      "type": "function"
    },
    {
      "inputs": [],
      "name": "projectId",
      "outputs": [
        {
          "internalType": "uint256",
          "name": "",
          "type": "uint256"
        }
      ],
      "stateMutability": "view",
      "type": "function"
    },
    {
      "inputs": [
        {
          "components": [
            {
              "internalType": "contract IJBPaymentTerminal",
              "name": "terminal",
              "type": "address"
            },
            {
              "internalType": "address",
              "name": "holder",
              "type": "address"
            },
            {
              "internalType": "uint256",
              "name": "projectId",
              "type": "uint256"
            },
            {
              "internalType": "uint256",
              "name": "currentFundingCycleConfiguration",
              "type": "uint256"
            },
            {
              "internalType": "uint256",
              "name": "tokenCount",
              "type": "uint256"
            },
            {
              "internalType": "uint256",
              "name": "totalSupply",
              "type": "uint256"
            },
            {
              "internalType": "uint256",
              "name": "overflow",
              "type": "uint256"
            },
            {
              "components": [
                {
                  "internalType": "address",
                  "name": "token",
                  "type": "address"
                },
                {
                  "internalType": "uint256",
                  "name": "value",
                  "type": "uint256"
                },
                {
                  "internalType": "uint256",
                  "name": "decimals",
                  "type": "uint256"
                },
                {
                  "internalType": "uint256",
                  "name": "currency",
                  "type": "uint256"
                }
              ],
              "internalType": "struct JBTokenAmount",
              "name": "reclaimAmount",
              "type": "tuple"
            },
            {
              "internalType": "bool",
              "name": "useTotalOverflow",
              "type": "bool"
            },
            {
              "internalType": "uint256",
              "name": "redemptionRate",
              "type": "uint256"
            },
            {
              "internalType": "string",
              "name": "memo",
              "type": "string"
            },
            {
              "internalType": "bytes",
              "name": "metadata",
              "type": "bytes"
            }
          ],
          "internalType": "struct JBRedeemParamsData",
          "name": "_data",
          "type": "tuple"
        }
      ],
      "name": "redeemParams",
      "outputs": [
        {
          "internalType": "uint256",
          "name": "reclaimAmount",
          "type": "uint256"
        },
        {
          "internalType": "string",
          "name": "memo",
          "type": "string"
        },
        {
          "components": [
            {
              "internalType": "contract IJBRedemptionDelegate",
              "name": "delegate",
              "type": "address"
            },
            {
              "internalType": "uint256",
              "name": "amount",
              "type": "uint256"
            }
          ],
          "internalType": "struct JBRedemptionDelegateAllocation[]",
          "name": "delegateAllocations",
          "type": "tuple[]"
        }
      ],
      "stateMutability": "view",
      "type": "function"
    },
    {
      "inputs": [],
      "name": "renounceOwnership",
      "outputs": [],
      "stateMutability": "nonpayable",
      "type": "function"
    },
    {
      "inputs": [
        {
          "internalType": "address",
          "name": "from",
          "type": "address"
        },
        {
          "internalType": "address",
          "name": "to",
          "type": "address"
        },
        {
          "internalType": "uint256",
          "name": "tokenId",
          "type": "uint256"
        }
      ],
      "name": "safeTransferFrom",
      "outputs": [],
      "stateMutability": "nonpayable",
      "type": "function"
    },
    {
      "inputs": [
        {
          "internalType": "address",
          "name": "from",
          "type": "address"
        },
        {
          "internalType": "address",
          "name": "to",
          "type": "address"
        },
        {
          "internalType": "uint256",
          "name": "tokenId",
          "type": "uint256"
        },
        {
          "internalType": "bytes",
          "name": "data",
          "type": "bytes"
        }
      ],
      "name": "safeTransferFrom",
      "outputs": [],
      "stateMutability": "nonpayable",
      "type": "function"
    },
    {
      "inputs": [
        {
          "internalType": "address",
          "name": "operator",
          "type": "address"
        },
        {
          "internalType": "bool",
          "name": "approved",
          "type": "bool"
        }
      ],
      "name": "setApprovalForAll",
      "outputs": [],
      "stateMutability": "nonpayable",
      "type": "function"
    },
    {
      "inputs": [
        {
          "internalType": "string",
          "name": "_baseUri",
          "type": "string"
        }
      ],
      "name": "setBaseUri",
      "outputs": [],
      "stateMutability": "nonpayable",
      "type": "function"
    },
    {
      "inputs": [
        {
          "internalType": "string",
          "name": "_contractUri",
          "type": "string"
        }
      ],
      "name": "setContractUri",
      "outputs": [],
      "stateMutability": "nonpayable",
      "type": "function"
    },
    {
      "inputs": [
        {
          "internalType": "address",
          "name": "_beneficiary",
          "type": "address"
        }
      ],
      "name": "setDefaultReservedTokenBeneficiary",
      "outputs": [],
      "stateMutability": "nonpayable",
      "type": "function"
    },
    {
      "inputs": [
        {
          "internalType": "address",
          "name": "_delegatee",
          "type": "address"
        },
        {
          "internalType": "uint256",
          "name": "_tierId",
          "type": "uint256"
        }
      ],
      "name": "setTierDelegate",
      "outputs": [],
      "stateMutability": "nonpayable",
      "type": "function"
    },
    {
      "inputs": [
        {
          "components": [
            {
              "internalType": "address",
              "name": "delegatee",
              "type": "address"
            },
            {
              "internalType": "uint256",
              "name": "tierId",
              "type": "uint256"
            }
          ],
          "internalType": "struct JBTiered721SetTierDelegatesData[]",
          "name": "_setTierDelegatesData",
          "type": "tuple[]"
        }
      ],
      "name": "setTierDelegates",
      "outputs": [],
      "stateMutability": "nonpayable",
      "type": "function"
    },
    {
      "inputs": [
        {
          "internalType": "contract IJBTokenUriResolver",
          "name": "_tokenUriResolver",
          "type": "address"
        }
      ],
      "name": "setTokenUriResolver",
      "outputs": [],
      "stateMutability": "nonpayable",
      "type": "function"
    },
    {
      "inputs": [],
      "name": "store",
      "outputs": [
        {
          "internalType": "contract IJBTiered721DelegateStore",
          "name": "",
          "type": "address"
        }
      ],
      "stateMutability": "view",
      "type": "function"
    },
    {
      "inputs": [
        {
          "internalType": "bytes4",
          "name": "_interfaceId",
          "type": "bytes4"
        }
      ],
      "name": "supportsInterface",
      "outputs": [
        {
          "internalType": "bool",
          "name": "",
          "type": "bool"
        }
      ],
      "stateMutability": "view",
      "type": "function"
    },
    {
      "inputs": [],
      "name": "symbol",
      "outputs": [
        {
          "internalType": "string",
          "name": "",
          "type": "string"
        }
      ],
      "stateMutability": "view",
      "type": "function"
    },
    {
      "inputs": [
        {
          "internalType": "uint256",
          "name": "_tokenId",
          "type": "uint256"
        }
      ],
      "name": "tokenURI",
      "outputs": [
        {
          "internalType": "string",
          "name": "",
          "type": "string"
        }
      ],
      "stateMutability": "view",
      "type": "function"
    },
    {
      "inputs": [
        {
          "internalType": "address",
          "name": "from",
          "type": "address"
        },
        {
          "internalType": "address",
          "name": "to",
          "type": "address"
        },
        {
          "internalType": "uint256",
          "name": "tokenId",
          "type": "uint256"
        }
      ],
      "name": "transferFrom",
      "outputs": [],
      "stateMutability": "nonpayable",
      "type": "function"
    },
    {
      "inputs": [
        {
          "internalType": "address",
          "name": "newOwner",
          "type": "address"
        }
      ],
      "name": "transferOwnership",
      "outputs": [],
      "stateMutability": "nonpayable",
      "type": "function"
    }
  ],
  "bytecode": {
    "object": "0x60806040523480156200001157600080fd5b506200001d3362000035565b600880546001600160a01b0319163017905562000087565b600780546001600160a01b038381166001600160a01b0319831681179093556040519116919082907f8be0079c531659141344cd1fd0a4f28419497f9722a3daafe3b4186f6b6457e090600090a35050565b6157a180620000976000396000f3fe6080604052600436106102935760003560e01c806395d89b411161015a578063ca323efe116100c1578063da9ee8b71161007a578063da9ee8b714610820578063df487e2614610833578063e8a3d48514610853578063e985e9c514610868578063f2fde38b146108b1578063f5a38e63146108d157600080fd5b8063ca323efe14610760578063ccb4807b14610780578063d31cc52c146107a0578063d3419bf3146107c0578063d40e7146146107e0578063d46cf1711461080057600080fd5b8063ab951e3911610113578063ab951e39146106a0578063b88d4fde146106c0578063bb52b6e4146106e0578063c41c2f2414610700578063c74b13d914610720578063c87b56dd1461074057600080fd5b806395d89b41146105dc578063975057e7146105f1578063a0bcfc7f14610611578063a22cb46514610631578063a51cfd1814610651578063aa4fb15b1461068057600080fd5b806342842e0e116101fe5780636ac6d941116101b75780636ac6d941146104f957806370a0823114610526578063715018a61461054657806382732b6d1461055b5780638da5cb5b1461059e57806394c5c5ca146105bc57600080fd5b806342842e0e1461044d5780634ecba6251461046d57806354c6d1f514610483578063557e7155146104a35780636352211e146104c357806364640c1e146104e357600080fd5b80632407497e116102505780632407497e14610389578063245a45b5146103a95780632a596e53146103e45780632b13c58f1461040457806336c1a93b146104175780633fafa1271461043757600080fd5b806301ffc9a71461029857806306fdde03146102cd578063081812fc146102ef578063095ea7b3146103275780631d153ca41461034957806323b872dd14610369575b600080fd5b3480156102a457600080fd5b506102b86102b3366004613e1b565b6108f1565b60405190151581526020015b60405180910390f35b3480156102d957600080fd5b506102e261091c565b6040516102c49190613e88565b3480156102fb57600080fd5b5061030f61030a366004613e9b565b6109ae565b6040516001600160a01b0390911681526020016102c4565b34801561033357600080fd5b50610347610342366004613ed9565b6109d5565b005b34801561035557600080fd5b5060085461030f906001600160a01b031681565b34801561037557600080fd5b50610347610384366004613f05565b610a61565b34801561039557600080fd5b506103476103a4366004613f46565b610a93565b3480156103b557600080fd5b506103d66103c4366004613f46565b600e6020526000908152604090205481565b6040519081526020016102c4565b3480156103f057600080fd5b506103476103ff366004613f63565b610b3c565b610347610412366004613ff0565b610b95565b34801561042357600080fd5b50610347610432366004614068565b610d6f565b34801561044357600080fd5b506103d660055481565b34801561045957600080fd5b50610347610468366004613f05565b610dd1565b34801561047957600080fd5b506103d6600d5481565b34801561048f57600080fd5b5061030f61049e366004613e9b565b610dec565b3480156104af57600080fd5b50600a5461030f906001600160a01b031681565b3480156104cf57600080fd5b5061030f6104de366004613e9b565b610e98565b3480156104ef57600080fd5b506103d6600c5481565b34801561050557600080fd5b506105196105143660046140a9565b610ece565b6040516102c4919061413a565b34801561053257600080fd5b506103d6610541366004613f46565b611014565b34801561055257600080fd5b5061034761108a565b34801561056757600080fd5b5061030f610576366004613ed9565b6001600160a01b039182166000908152600f6020908152604080832093835292905220541690565b3480156105aa57600080fd5b506007546001600160a01b031661030f565b3480156105c857600080fd5b506103d66105d7366004613e9b565b61109e565b3480156105e857600080fd5b506102e26110b5565b3480156105fd57600080fd5b5060095461030f906001600160a01b031681565b34801561061d57600080fd5b5061034761062c36600461414d565b6110c4565b34801561063d57600080fd5b5061034761064c3660046141c5565b61117f565b34801561065d57600080fd5b5061067161066c366004613ff0565b61118e565b6040516102c4939291906141fe565b34801561068c57600080fd5b5061034761069b366004614270565b6113ed565b3480156106ac57600080fd5b506103476106bb366004613ed9565b61160a565b3480156106cc57600080fd5b506103476106db3660046143f0565b611615565b3480156106ec57600080fd5b506103476106fb3660046146f1565b611648565b34801561070c57600080fd5b5060065461030f906001600160a01b031681565b34801561072c57600080fd5b5061034761073b36600461482a565b61192e565b34801561074c57600080fd5b506102e261075b366004613e9b565b6119b2565b34801561076c57600080fd5b506103d661077b366004613ed9565b611bc1565b34801561078c57600080fd5b5061034761079b36600461414d565b611bed565b3480156107ac57600080fd5b506103d66107bb366004614270565b611ca0565b3480156107cc57600080fd5b50600b5461030f906001600160a01b031681565b3480156107ec57600080fd5b506103d66107fb3660046148e8565b611cb8565b34801561080c57600080fd5b5061067161081b36600461491d565b611ced565b61034761082e366004614958565b611dd0565b34801561083f57600080fd5b5061034761084e366004613f46565b611e87565b34801561085f57600080fd5b506102e2611f29565b34801561087457600080fd5b506102b8610883366004614993565b6001600160a01b03918216600090815260046020908152604080832093909416825291909152205460ff1690565b3480156108bd57600080fd5b506103476108cc366004613f46565b611f9f565b3480156108dd57600080fd5b506103476108ec3660046149c1565b61201d565b60006001600160e01b03198216631e68505960e31b1480610916575061091682612200565b92915050565b60606000805461092b90614a5b565b80601f016020809104026020016040519081016040528092919081815260200182805461095790614a5b565b80156109a45780601f10610979576101008083540402835291602001916109a4565b820191906000526020600020905b81548152906001019060200180831161098757829003601f168201915b5050505050905090565b60006109b982612276565b506000908152600360205260409020546001600160a01b031690565b60006109e082610e98565b9050806001600160a01b0316836001600160a01b031603610a145760405163133f8be960e01b815260040160405180910390fd5b336001600160a01b03821614801590610a345750610a328133610883565b155b15610a525760405163e5fa0e3560e01b815260040160405180910390fd5b610a5c83836122ab565b505050565b610a6b3382612319565b610a885760405163e5fa0e3560e01b815260040160405180910390fd5b610a5c838383612397565b610a9b612470565b60095460405163036129cb60e61b81526001600160a01b0383811660048301529091169063d84a72c090602401600060405180830381600087803b158015610ae257600080fd5b505af1158015610af6573d6000803e3d6000fd5b50506040513381526001600160a01b03841692507fe7784d93cfbfa4408e19577e6cc0436f4dbb51214b70e100905dfce9def88c1691506020015b60405180910390a250565b8060005b81811015610b8f576000848483818110610b5c57610b5c614a8f565b905060400201803603810190610b729190614aa5565b9050610b86816000015182602001516113ed565b50600101610b40565b50505050565b34151580610c175750600654600554604051636e49181f60e01b815260048101919091523360248201526001600160a01b0390911690636e49181f90604401602060405180830381865afa158015610bf1573d6000803e3d6000fd5b505050506040513d601f19601f82011682018060405250810190610c159190614afe565b155b80610c285750600554816020013514155b15610c4657604051633efca5c360e11b815260040160405180910390fd5b6024610c566101c0830183614b1b565b90501080610c9a575063b3bcbb7960e01b610c756101c0830183614b1b565b610c8491602491602091614b61565b610c8d91614b8b565b6001600160e01b03191614155b15610cb857604051632a84050f60e01b815260040160405180910390fd5b6000610cc86101c0830183614b1b565b810190610cd59190614bbb565b925050506000815190506000805b82811015610d6557838181518110610cfd57610cfd614a8f565b60200260200101519150846000016020810190610d1a9190613f46565b6000838152600260205260409020546001600160a01b03908116911614610d545760405163075fd2b160e01b815260040160405180910390fd5b610d5d826124ca565b600101610ce3565b50610b8f8361254b565b610d77612470565b8060005b81811015610b8f5736848483818110610d9657610d96614a8f565b9050602002810190610da89190614c69565b9050610dc7610db78280614c89565b6105146040850160208601613f46565b5050600101610d7b565b610a5c83838360405180602001604052806000815250611615565b6009546040516308ed6c0160e41b81523060048201526024810183905260009182916001600160a01b0390911690638ed6c01090604401602060405180830381865afa158015610e40573d6000803e3d6000fd5b505050506040513d601f19601f82011682018060405250810190610e649190614cdd565b90506001600160a01b03811615610e7b5792915050565b50506000908152600260205260409020546001600160a01b031690565b6000818152600260205260408120546001600160a01b0316806109165760405163b49aa3b560e01b815260040160405180910390fd5b6060610ed8612470565b60095460405163eaa19ab360e01b81526001600160a01b039091169063eaa19ab390610f11906000199088908890600190600401614cfa565b6000604051808303816000875af1158015610f30573d6000803e3d6000fd5b505050506040513d6000823e601f3d908101601f19168201604052610f589190810190614dbd565b509050826000805b8281101561100a57838181518110610f7a57610f7a614a8f565b60200260200101519150610f8e85836125b0565b846001600160a01b0316878783818110610faa57610faa614a8f565b9050602002016020810190610fbf9190614e03565b604080516000815233602082015261ffff929092169185917f598baf7bf150ca2f42be9e9f8f55e81d45f5715c3ff22bf46d697fabec7f31d6910160405180910390a4600101610f60565b5050509392505050565b600954604051633de222bb60e21b81523060048201526001600160a01b038381166024830152600092169063f7888aec906044015b602060405180830381865afa158015611066573d6000803e3d6000fd5b505050506040513d601f19601f820116820180604052508101906109169190614e1e565b611092612470565b61109c600061267a565b565b6000818152601160205260408120610916906126cc565b60606001805461092b90614a5b565b6110cc612470565b6009546040516331315e5960e11b81526001600160a01b0390911690636262bcb2906110fe9085908590600401614e37565b600060405180830381600087803b15801561111857600080fd5b505af115801561112c573d6000803e3d6000fd5b505050508181604051611140929190614e66565b604051908190038120338252907f7bc9110d5de090dd59e07912d2b93a5a27ac70a60c8d8e324db4f9ee8b8b5c13906020015b60405180910390a25050565b61118a338383612728565b5050565b60006060806080840135156111b6576040516309f82f1b60e31b815260040160405180910390fd5b60246111c66101c0860186614b1b565b9050108061120a575063b3bcbb7960e01b6111e56101c0860186614b1b565b6111f491602491602091614b61565b6111fd91614b8b565b6001600160e01b03191614155b1561122857604051632a84050f60e01b815260040160405180910390fd5b60408051600180825281830190925290816020015b604080518082019091526000808252602082015281526020019060019003908161123d5790505090506040518060400160405280306001600160a01b0316815260200160008152508160008151811061129857611298614a8f565b602090810291909101015260006112b36101c0860186614b1b565b8101906112c09190614bbb565b9250505060006112d082876127c7565b905060006112dd8761283b565b905060006112f08860c00135848461286c565b90506127108861018001350361135b578061130f6101a08a018a614b1b565b8782828080601f016020809104026020016040519081016040528093929190818152602001838380828437600092019190915250969d50919b509199506113e698505050505050505050565b6113918161137a856113746101808d0135612710614e8c565b8661286c565b611389906101808c0135614e9f565b61271061286c565b61139f6101a08a018a614b1b565b8782828080601f016020809104026020016040519081016040528093929190818152602001838380828437600092019190915250969d50919b509199505050505050505050505b9193909250565b600a546005546040516321d1336160e11b815260048101919091526000916001600160a01b0316906343a266c29060240161012060405180830381865afa15801561143c573d6000803e3d6000fd5b505050506040513d601f19601f820116820180604052508101906114609190614eb2565b61010081015190915060f51c60019081160361148f57604051631d2c125760e31b815260040160405180910390fd5b600954604051635d53f40760e11b815260048101859052602481018490526000916001600160a01b03169063baa7e80e906044016000604051808303816000875af11580156114e2573d6000803e3d6000fd5b505050506040513d6000823e601f3d908101601f1916820160405261150a9190810190614f32565b6009546040516304db994760e21b8152306004820152602481018790529192506000916001600160a01b039091169063136e651c90604401602060405180830381865afa15801561155f573d6000803e3d6000fd5b505050506040513d601f19601f820116820180604052508101906115839190614cdd565b90506000805b85811015611601578381815181106115a3576115a3614a8f565b602002602001015191506115b783836125b0565b6040513381526001600160a01b03841690889084907f031e1988c95a91ec4d655ff63a8f87a80bc9daf28d95ae10ee08c0022cfb5c8b9060200160405180910390a4600101611589565b50505050505050565b61118a338383612939565b61161f3383612319565b61163c5760405163e5fa0e3560e01b815260040160405180910390fd5b610b8f848484846129b8565b6008546001600160a01b0316300361165f57600080fd5b6009546001600160a01b03161561167557600080fd5b6116818b8b8b8b6129ec565b600a80546001600160a01b03808a166001600160a01b031992831617909255600980548584169083161790556020850151600c556040850151600d556060850151600b8054919093169116179055855115611735576040516331315e5960e11b81526001600160a01b03831690636262bcb290611702908990600401613e88565b600060405180830381600087803b15801561171c57600080fd5b505af1158015611730573d6000803e3d6000fd5b505050505b83511561179b5760405163d67b78fd60e01b81526001600160a01b0383169063d67b78fd90611768908790600401613e88565b600060405180830381600087803b15801561178257600080fd5b505af1158015611796573d6000803e3d6000fd5b505050505b6001600160a01b038516156118065760405163036129cb60e61b81526001600160a01b03868116600483015283169063d84a72c090602401600060405180830381600087803b1580156117ed57600080fd5b505af1158015611801573d6000803e3d6000fd5b505050505b8251511561188457825160405163eadd8b3760e01b81526001600160a01b0384169163eadd8b379161183b9190600401614f66565b6000604051808303816000875af115801561185a573d6000803e3d6000fd5b505050506040513d6000823e601f3d908101601f191682016040526118829190810190614f32565b505b805180611892575080602001515b8061189e575080604001515b15611918576040805163cdb0af6d60e01b815282511515600482015260208301511515602482015290820151151560448201526001600160a01b0383169063cdb0af6d90606401600060405180830381600087803b1580156118ff57600080fd5b505af1158015611913573d6000803e3d6000fd5b505050505b6119213361267a565b5050505050505050505050565b8051604080518082019091526000808252602082015260005b82811015610b8f5783818151811061196157611961614a8f565b602090810291909101015180519092506001600160a01b0316611997576040516314f4c13d60e21b815260040160405180910390fd5b6119aa3383600001518460200151612939565b600101611947565b6000818152600260205260409020546060906001600160a01b03166119e557505060408051602081019091526000815290565b600954604051630fab094760e01b81523060048201526000916001600160a01b031690630fab094790602401602060405180830381865afa158015611a2e573d6000803e3d6000fd5b505050506040513d601f19601f82011682018060405250810190611a529190614cdd565b90506001600160a01b03811615611ad757604051636d02a25560e11b8152600481018490526001600160a01b0382169063da0544aa90602401600060405180830381865afa158015611aa8573d6000803e3d6000fd5b505050506040513d6000823e601f3d908101601f19168201604052611ad0919081019061503f565b9392505050565b60095460405163f682eeaf60e01b8152306004820152611ad0916001600160a01b03169063f682eeaf90602401600060405180830381865afa158015611b21573d6000803e3d6000fd5b505050506040513d6000823e601f3d908101601f19168201604052611b49919081019061503f565b600954604051630c8df17160e41b8152306004820152602481018790526001600160a01b039091169063c8df171090604401602060405180830381865afa158015611b98573d6000803e3d6000fd5b505050506040513d601f19601f82011682018060405250810190611bbc9190614e1e565b612a1f565b6001600160a01b03821660009081526010602090815260408083208484529091528120611ad0906126cc565b611bf5612470565b60095460405163d67b78fd60e01b81526001600160a01b039091169063d67b78fd90611c279085908590600401614e37565b600060405180830381600087803b158015611c4157600080fd5b505af1158015611c55573d6000803e3d6000fd5b505050508181604051611c69929190614e66565b604051908190038120338252907fd36dc0c1a06103fdcaf15f3f6fb797d1a97997514c78de073640c8b5005454b890602001611173565b6000828152601160205260408120611ad09083612a86565b6001600160a01b03831660009081526010602090815260408083208584529091528120611ce59083612a86565b949350505050565b610120810135606080611d04610160850185614b1b565b8080601f01602080910402602001604051908101604052809392919081815260200183838082843760009201919091525092945060019250611d44915050565b604051908082528060200260200182016040528015611d8957816020015b6040805180820190915260008082526020820152815260200190600190039081611d625790505b5090506040518060400160405280306001600160a01b03168152602001600081525081600081518110611dbe57611dbe614a8f565b60200260200101819052509193909250565b60055434151580611e515750600654604051636e49181f60e01b8152600481018390523360248201526001600160a01b0390911690636e49181f90604401602060405180830381865afa158015611e2b573d6000803e3d6000fd5b505050506040513d601f19601f82011682018060405250810190611e4f9190614afe565b155b80611e60575080826020013514155b15611e7e576040516331c57b1b60e21b815260040160405180910390fd5b61118a82612b95565b611e8f612470565b6009546040516317161f7d60e01b81526001600160a01b038381166004830152909116906317161f7d90602401600060405180830381600087803b158015611ed657600080fd5b505af1158015611eea573d6000803e3d6000fd5b50506040513381526001600160a01b03841692507fab0014d4c7a642a02a31b303a318908c22b0fb2001f107278fc6076b4c671b659150602001610b31565b600954604051630155619b60e71b81523060048201526060916001600160a01b03169063aab0cd8090602401600060405180830381865afa158015611f72573d6000803e3d6000fd5b505050506040513d6000823e601f3d908101601f19168201604052611f9a919081019061503f565b905090565b611fa7612470565b6001600160a01b0381166120115760405162461bcd60e51b815260206004820152602660248201527f4f776e61626c653a206e6577206f776e657220697320746865207a65726f206160448201526564647265737360d01b60648201526084015b60405180910390fd5b61201a8161267a565b50565b612025612470565b828180156120f5576009546040516320512ba160e01b81526001600160a01b03909116906320512ba19061205f90879087906004016150ac565b600060405180830381600087803b15801561207957600080fd5b505af115801561208d573d6000803e3d6000fd5b5050505060005b818110156120f3578484828181106120ae576120ae614a8f565b60405133815260209182029390930135927f832d89d991be5351d793c20faf4b7dd44f8aa9ce39e3cb160c6317de6fbba72992500160405180910390a2600101612094565b505b81156121f85760095460405163eadd8b3760e01b81526000916001600160a01b03169063eadd8b379061212e908a908a906004016151c2565b6000604051808303816000875af115801561214d573d6000803e3d6000fd5b505050506040513d6000823e601f3d908101601f191682016040526121759190810190614f32565b905060005b838110156121f55781818151811061219457612194614a8f565b60200260200101517f85b5b4c4e44e342c8dac3c3a5364494d455043decb9f4bb8e7e0a3020d22fed48989848181106121cf576121cf614a8f565b90506101400201336040516121e5929190615205565b60405180910390a260010161217a565b50505b505050505050565b60006001600160e01b0319821663b3bcbb7960e01b148061223157506001600160e01b031982166371700c6960e01b145b8061224c57506001600160e01b0319821663da9ee8b760e01b145b8061226757506001600160e01b03198216632b13c58f60e01b145b80610916575061091682612ebb565b6000818152600260205260409020546001600160a01b031661201a5760405163b49aa3b560e01b815260040160405180910390fd5b600081815260036020526040902080546001600160a01b0319166001600160a01b03841690811790915581906122e082610e98565b6001600160a01b03167f8c5be1e5ebec7d5bd14f71427d1e84f3dd0314c0f7b2291e5b200ac8c7c3b92560405160405180910390a45050565b60008061232583610e98565b9050806001600160a01b0316846001600160a01b0316148061236c57506001600160a01b0380821660009081526004602090815260408083209388168352929052205460ff165b80611ce55750836001600160a01b0316612385846109ae565b6001600160a01b031614949350505050565b826001600160a01b03166123aa82610e98565b6001600160a01b0316146123d15760405163a195bc5360e01b815260040160405180910390fd5b6001600160a01b0382166123f857604051632c95542760e01b815260040160405180910390fd5b612403838383612f0b565b61240e6000826122ab565b60008181526002602052604080822080546001600160a01b0319166001600160a01b0386811691821790925591518493918716917fddf252ad1be2c89b69c2b068fc378daa952ba7f163c4a11628f55a4df523b3ef91a4610a5c838383613138565b6007546001600160a01b0316331461109c5760405162461bcd60e51b815260206004820181905260248201527f4f776e61626c653a2063616c6c6572206973206e6f7420746865206f776e65726044820152606401612008565b60006124d582610e98565b90506124e381600084612f0b565b6124ee6000836122ab565b60008281526002602052604080822080546001600160a01b0319169055518391906001600160a01b038416907fddf252ad1be2c89b69c2b068fc378daa952ba7f163c4a11628f55a4df523b3ef908390a461118a81600084613138565b6009546040516386bc2be360e01b81526001600160a01b03909116906386bc2be39061257b90849060040161413a565b600060405180830381600087803b15801561259557600080fd5b505af11580156125a9573d6000803e3d6000fd5b5050505050565b6001600160a01b0382166125d757604051633904578f60e11b815260040160405180910390fd5b6000818152600260205260409020546001600160a01b03161561260d57604051632eb5f0c360e21b815260040160405180910390fd5b61261960008383612f0b565b60008181526002602052604080822080546001600160a01b0319166001600160a01b03861690811790915590518392907fddf252ad1be2c89b69c2b068fc378daa952ba7f163c4a11628f55a4df523b3ef908290a461118a60008383613138565b600780546001600160a01b038381166001600160a01b0319831681179093556040519116919082907f8be0079c531659141344cd1fd0a4f28419497f9722a3daafe3b4186f6b6457e090600090a35050565b8054600090801561271557826126e3600183614e8c565b815481106126f3576126f3614a8f565b60009182526020909120015464010000000090046001600160e01b0316612718565b60005b6001600160e01b03169392505050565b816001600160a01b0316836001600160a01b03160361275a576040516306f8139d60e11b815260040160405180910390fd5b6001600160a01b03838116600081815260046020908152604080832094871680845294825291829020805460ff191686151590811790915591519182527f17307eab39ab6107e8899845ad3d59bd9653f200f220920489ca2b5937696c31910160405180910390a3505050565b60095460405163051330b560e21b81526000916001600160a01b03169063144cc2d4906127fa903090879060040161522d565b602060405180830381865afa158015612817573d6000803e3d6000fd5b505050506040513d601f19601f82011682018060405250810190611ad09190614e1e565b600954604051631572f24960e11b81523060048201526000916001600160a01b031690632ae5e49290602401611049565b60008080600019858709858702925082811083820303915050806000036128a65783828161289c5761289c615251565b0492505050611ad0565b8381106128d057604051631dcf306360e21b81526004810182905260248101859052604401612008565b60008486880960026001871981018816978890046003810283188082028403028082028403028082028403028082028403028082028403029081029092039091026000889003889004909101858311909403939093029303949094049190911702949350505050565b6001600160a01b038381166000818152600f6020908152604080832086845290915280822080548786166001600160a01b0319821681179092559151919094169392849290917f3134e8a2e6d97e929a7e54011ea5485d7d196dd5f0ba4d4ef95803e8e3fc257f9190a4610b8f8184846129b38887613231565b613271565b6129c3848484612397565b6129cf848484846133c6565b610b8f576040516336f57c1b60e11b815260040160405180910390fd5b6129f682826134c8565b5050600591909155600680546001600160a01b0319166001600160a01b03909216919091179055565b604051609160f51b60208201526022810182905260609060009060420160405160208183030381529060405290506000612a58826134e1565b90508481604051602001612a6d929190615267565b6040516020818303038152906040529250505092915050565b6000438210612ad75760405162461bcd60e51b815260206004820181905260248201527f436865636b706f696e74733a20626c6f636b206e6f7420796574206d696e65646044820152606401612008565b825460005b81811015612b3c576000612af08284613679565b905084866000018281548110612b0857612b08614a8f565b60009182526020909120015463ffffffff161115612b2857809250612b36565b612b33816001614e9f565b91505b50612adc565b8115612b805784612b4e600184614e8c565b81548110612b5e57612b5e614a8f565b60009182526020909120015464010000000090046001600160e01b0316612b83565b60005b6001600160e01b031695945050505050565b600c5460009060c083013503612bb057506080810135612c66565b600b546001600160a01b03161561118a57600d54612c6390608084013590612bd990600a61537a565b600b54600c54604051635268657960e11b815260c08801356004820152602481019190915260a087013560448201526001600160a01b039091169063a4d0caf290606401602060405180830381865afa158015612c3a573d6000803e3d6000fd5b505050506040513d601f19601f82011682018060405250810190612c5e9190614e1e565b61286c565b90505b6000600e81612c7d6101a086016101808701613f46565b6001600160a01b03168152602081019190915260400160009081205491508290612caf6101a086016101808701613f46565b6001600160a01b0316612cc56020870187613f46565b6001600160a01b031603612cdc5790820190612cdf565b50815b6000806044612cf26101e0890189614b1b565b9050118015612d36575063b3bcbb7960e01b612d126101e0890189614b1b565b612d2191604491604091614b61565b612d2a91614b8b565b6001600160e01b031916145b15612dd65760006060612d4d6101e08a018a614b1b565b810190612d5a9190615386565b919950975090955093505083159150612dad905057858501600e6000612d886101a08d016101808e01613f46565b6001600160a01b03168152602081019190915260400160002055505050505050505050565b805115612dd357612dd08682612dcb6101a08d016101808e01613f46565b613694565b95505b50505b8315612e7a57612df884612df26101a08a016101808b01613f46565b846137d6565b93508315612e57578015612e1f57604051631b57826960e21b815260040160405180910390fd5b838301600e6000612e386101a08b016101808c01613f46565b6001600160a01b03168152602081019190915260400160002055611601565b828514612e755782600e6000612e386101a08b016101808c01613f46565b611601565b8285146116015782600e6000612e986101a08b016101808c01613f46565b6001600160a01b0316815260208101919091526040016000205550505050505050565b60006001600160e01b031982166380ac58cd60e01b1480612eec57506001600160e01b03198216635b5e139f60e01b145b8061091657506301ffc9a760e01b6001600160e01b0319831614610916565b6001600160a01b03831615610a5c5760095460405163b67cb04760e01b8152306004820152602481018390526000916001600160a01b03169063b67cb0479060440161016060405180830381865afa158015612f6b573d6000803e3d6000fd5b505050506040513d601f19601f82011682018060405250810190612f8f919061547d565b90508061014001511561305457600a546005546040516321d1336160e11b815260048101919091526000916001600160a01b0316906343a266c29060240161012060405180830381865afa158015612feb573d6000803e3d6000fd5b505050506040513d601f19601f8201168201806040525081019061300f9190614eb2565b90506001600160a01b03841615801590613034575061010081015160f41c6001908116145b15613052576040516318cdaf9760e01b815260040160405180910390fd5b505b6009546040516308ed6c0160e41b8152306004820152602481018490526000916001600160a01b031690638ed6c01090604401602060405180830381865afa1580156130a4573d6000803e3d6000fd5b505050506040513d601f19601f820116820180604052508101906130c89190614cdd565b6001600160a01b031603610b8f57600954604051638cec7d3960e01b8152600481018490526001600160a01b03868116602483015290911690638cec7d3990604401600060405180830381600087803b15801561312457600080fd5b505af11580156121f5573d6000803e3d6000fd5b60095460405163b67cb04760e01b8152306004820152602481018390526000916001600160a01b03169063b67cb0479060440161016060405180830381865afa158015613189573d6000803e3d6000fd5b505050506040513d601f19601f820116820180604052508101906131ad919061547d565b60095481516040516330b157e560e21b815260048101919091526001600160a01b038781166024830152868116604483015292935091169063c2c55f9490606401600060405180830381600087803b15801561320857600080fd5b505af115801561321c573d6000803e3d6000fd5b5050505061322c848484846138e0565b610b8f565b6009546040516305c9a1d560e31b81523060048201526001600160a01b038481166024830152604482018490526000921690632e4d0ea8906064016127fa565b826001600160a01b0316846001600160a01b0316148061328f575080155b610b8f576001600160a01b0384161561332a576001600160a01b0384166000908152601060209081526040808320858452909152812081906132d4906138fe8561390a565b60408051838152602081018390523381830152905192945090925085916001600160a01b038916917fed0c1e94c302bdbbd8bbd6a4fb7c3ed335c2292407cd816eadd075d019d0ce04919081900360600190a350505b6001600160a01b03831615610b8f576001600160a01b03831660009081526010602090815260408083208584529091528120819061336b906139388561390a565b60408051838152602081018390523381830152905192945090925085916001600160a01b038816917fed0c1e94c302bdbbd8bbd6a4fb7c3ed335c2292407cd816eadd075d019d0ce04919081900360600190a3505050505050565b60006001600160a01b0384163b156134bd57604051630a85bd0160e11b81526001600160a01b0385169063150b7a029061340a90339089908890889060040161551f565b6020604051808303816000875af1925050508015613445575060408051601f3d908101601f191682019092526134429181019061555c565b60015b6134a3573d808015613473576040519150601f19603f3d011682016040523d82523d6000602084013e613478565b606091505b50805160000361349b576040516336f57c1b60e11b815260040160405180910390fd5b805181602001fd5b6001600160e01b031916630a85bd0160e11b149050611ce5565b506001949350505050565b60006134d483826155bf565b506001610a5c82826155bf565b6060815160000361350057505060408051600081526020810190915290565b60408051602e8082526105e08201909252600091602082016105c08036833701905050905060008160008151811061353a5761353a614a8f565b60ff90921660209283029190910190910152825160019060005b8181101561365557600086828151811061357057613570614a8f565b016020015160f81c905060005b8460ff168110156135fa57600886828151811061359c5761359c614a8f565b602002602001015160ff16901b826135b49190614e9f565b91506135c1603a8361567e565b8682815181106135d3576135d3614a8f565b60ff909216602092830291909101909101526135f0603a83615692565b915060010161357d565b505b801561364c5761360d603a8261567e565b858560ff168151811061362257613622614a8f565b60ff90921660209283029190910190910152600190930192613645603a82615692565b90506135fc565b50600101613554565b5061367061366b6136668585613944565b6139eb565b613a8d565b95945050505050565b60006136886002848418615692565b611ad090848416614e9f565b60095460405163eaa19ab360e01b81526000916060916001600160a01b039091169063eaa19ab3906136ce908890889087906004016156a6565b6000604051808303816000875af11580156136ed573d6000803e3d6000fd5b505050506040513d6000823e601f3d908101601f191682016040526137159190810190614dbd565b81519093509091506000805b828110156137cb5783818151811061373b5761373b614a8f565b6020026020010151915061374f86836125b0565b856001600160a01b031687828151811061376b5761376b614a8f565b602002602001015161ffff16837f598baf7bf150ca2f42be9e9f8f55e81d45f5715c3ff22bf46d697fabec7f31d68b336040516137bb9291909182526001600160a01b0316602082015260400190565b60405180910390a4600101613721565b505050509392505050565b60095460405163879791f360e01b815260048101859052600091829182916001600160a01b03169063879791f3906024016060604051808303816000875af1158015613826573d6000803e3d6000fd5b505050506040513d601f19601f8201168201806040525081019061384a9190615703565b94509092509050600082900361388057831561387957604051630e5313df60e41b815260040160405180910390fd5b5050611ad0565b61388a85836125b0565b6001600160a01b03851681837f598baf7bf150ca2f42be9e9f8f55e81d45f5715c3ff22bf46d697fabec7f31d66138c1878b614e8c565b604080519182523360208301520160405180910390a450509392505050565b60a081015115610b8f57610b8f848483600001518460a00151613b66565b6000611ad08284614e8c565b60008061392c8561392761391d886126cc565b868863ffffffff16565b613c08565b91509150935093915050565b6000611ad08284614e9f565b606060008260ff166001600160401b0381111561396357613963614292565b60405190808252806020026020018201604052801561398c578160200160208202803683370190505b50905060005b8360ff168110156139e3578481815181106139af576139af614a8f565b60200260200101518282815181106139c9576139c9614a8f565b60ff90921660209283029190910190910152600101613992565b509392505050565b80516060906000816001600160401b03811115613a0a57613a0a614292565b604051908082528060200260200182016040528015613a33578160200160208202803683370190505b50905060005b828110156139e357848160018751030381518110613a5957613a59614a8f565b6020026020010151828281518110613a7357613a73614a8f565b60ff90921660209283029190910190910152600101613a39565b80516060906000816001600160401b03811115613aac57613aac614292565b6040519080825280601f01601f191660200182016040528015613ad6576020820181803683370190505b50905060005b828110156139e3576040518060600160405280603a8152602001615732603a9139858281518110613b0f57613b0f614a8f565b602002602001015160ff1681518110613b2a57613b2a614a8f565b602001015160f81c60f81b828281518110613b4757613b47614a8f565b60200101906001600160f81b031916908160001a905350600101613adc565b6001600160a01b038416613b92576000828152601160205260409020613b8f906139388361390a565b50505b6001600160a01b038316613bbe576000828152601160205260409020613bbb906138fe8361390a565b50505b6001600160a01b038085166000908152600f60208181526040808420878552825280842054888616855292825280842087855290915290912054610b8f9291821691168484613271565b8154600090819081613c19866126cc565b9050600082118015613c5757504386613c33600185614e8c565b81548110613c4357613c43614a8f565b60009182526020909120015463ffffffff16145b15613cb757613c6585613d33565b86613c71600185614e8c565b81548110613c8157613c81614a8f565b9060005260206000200160000160046101000a8154816001600160e01b0302191690836001600160e01b03160217905550613d25565b856000016040518060400160405280613ccf43613da0565b63ffffffff168152602001613ce388613d33565b6001600160e01b0390811690915282546001810184556000938452602093849020835194909301519091166401000000000263ffffffff909316929092179101555b9250839150505b9250929050565b60006001600160e01b03821115613d9c5760405162461bcd60e51b815260206004820152602760248201527f53616665436173743a2076616c756520646f65736e27742066697420696e20326044820152663234206269747360c81b6064820152608401612008565b5090565b600063ffffffff821115613d9c5760405162461bcd60e51b815260206004820152602660248201527f53616665436173743a2076616c756520646f65736e27742066697420696e203360448201526532206269747360d01b6064820152608401612008565b6001600160e01b03198116811461201a57600080fd5b600060208284031215613e2d57600080fd5b8135611ad081613e05565b60005b83811015613e53578181015183820152602001613e3b565b50506000910152565b60008151808452613e74816020860160208601613e38565b601f01601f19169290920160200192915050565b602081526000611ad06020830184613e5c565b600060208284031215613ead57600080fd5b5035919050565b6001600160a01b038116811461201a57600080fd5b8035613ed481613eb4565b919050565b60008060408385031215613eec57600080fd5b8235613ef781613eb4565b946020939093013593505050565b600080600060608486031215613f1a57600080fd5b8335613f2581613eb4565b92506020840135613f3581613eb4565b929592945050506040919091013590565b600060208284031215613f5857600080fd5b8135611ad081613eb4565b60008060208385031215613f7657600080fd5b82356001600160401b0380821115613f8d57600080fd5b818501915085601f830112613fa157600080fd5b813581811115613fb057600080fd5b8660208260061b8501011115613fc557600080fd5b60209290920196919550909350505050565b60006101e08284031215613fea57600080fd5b50919050565b60006020828403121561400257600080fd5b81356001600160401b0381111561401857600080fd5b611ce584828501613fd7565b60008083601f84011261403657600080fd5b5081356001600160401b0381111561404d57600080fd5b6020830191508360208260051b8501011115613d2c57600080fd5b6000806020838503121561407b57600080fd5b82356001600160401b0381111561409157600080fd5b61409d85828601614024565b90969095509350505050565b6000806000604084860312156140be57600080fd5b83356001600160401b038111156140d457600080fd5b6140e086828701614024565b90945092505060208401356140f481613eb4565b809150509250925092565b600081518084526020808501945080840160005b8381101561412f57815187529582019590820190600101614113565b509495945050505050565b602081526000611ad060208301846140ff565b6000806020838503121561416057600080fd5b82356001600160401b038082111561417757600080fd5b818501915085601f83011261418b57600080fd5b81358181111561419a57600080fd5b866020828501011115613fc557600080fd5b801515811461201a57600080fd5b8035613ed4816141ac565b600080604083850312156141d857600080fd5b82356141e381613eb4565b915060208301356141f3816141ac565b809150509250929050565b838152600060206060818401526142186060840186613e5c565b83810360408581019190915285518083528387019284019060005b8181101561426157845180516001600160a01b03168452860151868401529385019391830191600101614233565b50909998505050505050505050565b6000806040838503121561428357600080fd5b50508035926020909101359150565b634e487b7160e01b600052604160045260246000fd5b604051608081016001600160401b03811182821017156142ca576142ca614292565b60405290565b60405161014081016001600160401b03811182821017156142ca576142ca614292565b604080519081016001600160401b03811182821017156142ca576142ca614292565b60405161012081016001600160401b03811182821017156142ca576142ca614292565b60405161016081016001600160401b03811182821017156142ca576142ca614292565b604051601f8201601f191681016001600160401b038111828210171561438357614383614292565b604052919050565b60006001600160401b038211156143a4576143a4614292565b50601f01601f191660200190565b60006143c56143c08461438b565b61435b565b90508281528383830111156143d957600080fd5b828260208301376000602084830101529392505050565b6000806000806080858703121561440657600080fd5b843561441181613eb4565b9350602085013561442181613eb4565b92506040850135915060608501356001600160401b0381111561444357600080fd5b8501601f8101871361445457600080fd5b614463878235602084016143b2565b91505092959194509250565b600082601f83011261448057600080fd5b611ad0838335602085016143b2565b60006001600160401b038211156144a8576144a8614292565b5060051b60200190565b803569ffffffffffffffffffff81168114613ed457600080fd5b803565ffffffffffff81168114613ed457600080fd5b803564ffffffffff81168114613ed457600080fd5b803561ffff81168114613ed457600080fd5b6000608080838503121561451c57600080fd5b6145246142a8565b915082356001600160401b0381111561453c57600080fd5b8301601f8101851361454d57600080fd5b8035602061455d6143c08361448f565b828152610140928302840182019282820191908985111561457d57600080fd5b948301945b8486101561464c5780868b03121561459a5760008081fd5b6145a26142d0565b6145ab876144b2565b81526145b88588016144cc565b8582015260406145c98189016144e2565b9082015260606145da8882016144f7565b908201526145e98789016144f7565b8882015260a06145fa818901613ec9565b9082015260c0878101359082015260e06146158189016141ba565b908201526101006146278882016141ba565b908201526101206146398882016141ba565b9082015283529485019491830191614582565b5086525085810135908501525050506040808301359082015261467160608301613ec9565b606082015292915050565b60006060828403121561468e57600080fd5b604051606081018181106001600160401b03821117156146b0576146b0614292565b60405290508082356146c1816141ac565b815260208301356146d1816141ac565b602082015260408301356146e4816141ac565b6040919091015292915050565b60008060008060008060008060008060006101a08c8e03121561471357600080fd5b8b359a5061472360208d01613ec9565b99506001600160401b038060408e0135111561473e57600080fd5b61474e8e60408f01358f0161446f565b99508060608e0135111561476157600080fd5b6147718e60608f01358f0161446f565b985061477f60808e01613ec9565b97508060a08e0135111561479257600080fd5b6147a28e60a08f01358f0161446f565b96506147b060c08e01613ec9565b95508060e08e013511156147c357600080fd5b6147d38e60e08f01358f0161446f565b9450806101008e013511156147e757600080fd5b506147f98d6101008e01358e01614509565b92506148086101208d01613ec9565b91506148188d6101408e0161467c565b90509295989b509295989b9093969950565b6000602080838503121561483d57600080fd5b82356001600160401b0381111561485357600080fd5b8301601f8101851361486457600080fd5b80356148726143c08261448f565b81815260069190911b8201830190838101908783111561489157600080fd5b928401925b828410156148dd57604084890312156148af5760008081fd5b6148b76142f3565b84356148c281613eb4565b81528486013586820152825260409093019290840190614896565b979650505050505050565b6000806000606084860312156148fd57600080fd5b833561490881613eb4565b95602085013595506040909401359392505050565b60006020828403121561492f57600080fd5b81356001600160401b0381111561494557600080fd5b82016101a08185031215611ad057600080fd5b60006020828403121561496a57600080fd5b81356001600160401b0381111561498057600080fd5b82016102008185031215611ad057600080fd5b600080604083850312156149a657600080fd5b82356149b181613eb4565b915060208301356141f381613eb4565b600080600080604085870312156149d757600080fd5b84356001600160401b03808211156149ee57600080fd5b818701915087601f830112614a0257600080fd5b813581811115614a1157600080fd5b88602061014083028501011115614a2757600080fd5b602092830196509450908601359080821115614a4257600080fd5b50614a4f87828801614024565b95989497509550505050565b600181811c90821680614a6f57607f821691505b602082108103613fea57634e487b7160e01b600052602260045260246000fd5b634e487b7160e01b600052603260045260246000fd5b600060408284031215614ab757600080fd5b604051604081018181106001600160401b0382111715614ad957614ad9614292565b604052823581526020928301359281019290925250919050565b8051613ed4816141ac565b600060208284031215614b1057600080fd5b8151611ad0816141ac565b6000808335601e19843603018112614b3257600080fd5b8301803591506001600160401b03821115614b4c57600080fd5b602001915036819003821315613d2c57600080fd5b60008085851115614b7157600080fd5b83861115614b7e57600080fd5b5050820193919092039150565b6001600160e01b03198135818116916004851015614bb35780818660040360031b1b83161692505b505092915050565b600080600060608486031215614bd057600080fd5b83359250602080850135614be381613e05565b925060408501356001600160401b03811115614bfe57600080fd5b8501601f81018713614c0f57600080fd5b8035614c1d6143c08261448f565b81815260059190911b82018301908381019089831115614c3c57600080fd5b928401925b82841015614c5a57833582529284019290840190614c41565b80955050505050509250925092565b60008235603e19833603018112614c7f57600080fd5b9190910192915050565b6000808335601e19843603018112614ca057600080fd5b8301803591506001600160401b03821115614cba57600080fd5b6020019150600581901b3603821315613d2c57600080fd5b8051613ed481613eb4565b600060208284031215614cef57600080fd5b8151611ad081613eb4565b84815260606020808301829052908201849052600090859060808401835b87811015614d3f5761ffff614d2c856144f7565b1682529282019290820190600101614d18565b50809350505050821515604083015295945050505050565b600082601f830112614d6857600080fd5b81516020614d786143c08361448f565b82815260059290921b84018101918181019086841115614d9757600080fd5b8286015b84811015614db25780518352918301918301614d9b565b509695505050505050565b60008060408385031215614dd057600080fd5b82516001600160401b03811115614de657600080fd5b614df285828601614d57565b925050602083015190509250929050565b600060208284031215614e1557600080fd5b611ad0826144f7565b600060208284031215614e3057600080fd5b5051919050565b60208152816020820152818360408301376000818301604090810191909152601f909201601f19160101919050565b8183823760009101908152919050565b634e487b7160e01b600052601160045260246000fd5b8181038181111561091657610916614e76565b8082018082111561091657610916614e76565b60006101208284031215614ec557600080fd5b614ecd614315565b825181526020830151602082015260408301516040820152606083015160608201526080830151608082015260a083015160a082015260c083015160c0820152614f1960e08401614cd2565b60e0820152610100928301519281019290925250919050565b600060208284031215614f4457600080fd5b81516001600160401b03811115614f5a57600080fd5b611ce584828501614d57565b602080825282518282018190526000919060409081850190868401855b82811015615032578151805169ffffffffffffffffffff1685528681015165ffffffffffff16878601528581015164ffffffffff168686015260608082015161ffff908116918701919091526080808301519091169086015260a0808201516001600160a01b03169086015260c0808201519086015260e08082015115159086015261010080820151151590860152610120908101511515908501526101409093019290850190600101614f83565b5091979650505050505050565b60006020828403121561505157600080fd5b81516001600160401b0381111561506757600080fd5b8201601f8101841361507857600080fd5b80516150866143c08261438b565b81815285602083850101111561509b57600080fd5b613670826020830160208601613e38565b6020808252810182905260006001600160fb1b038311156150cc57600080fd5b8260051b80856040850137919091016040019392505050565b615102826150f2836144b2565b69ffffffffffffffffffff169052565b61510e602082016144cc565b65ffffffffffff166020830152615127604082016144e2565b64ffffffffff16604083015261513f606082016144f7565b61ffff166060830152615154608082016144f7565b61ffff16608083015261516960a08201613ec9565b6001600160a01b031660a083015260c0818101359083015261518d60e082016141ba565b151560e08301526101006151a28282016141ba565b1515908301526101206151b68282016141ba565b80151584830152610b8f565b6020808252810182905260008360408301825b858110156151fb576151e782846150e5565b6101409283019291909101906001016151d5565b5095945050505050565b610160810161521482856150e5565b6001600160a01b03929092166101409190910152919050565b6001600160a01b0383168152604060208201819052600090611ce5908301846140ff565b634e487b7160e01b600052601260045260246000fd5b60008351615279818460208801613e38565b83519083019061528d818360208801613e38565b01949350505050565b600181815b808511156152d15781600019048211156152b7576152b7614e76565b808516156152c457918102915b93841c939080029061529b565b509250929050565b6000826152e857506001610916565b816152f557506000610916565b816001811461530b576002811461531557615331565b6001915050610916565b60ff84111561532657615326614e76565b50506001821b610916565b5060208310610133831016604e8410600b8410161715615354575081810a610916565b61535e8383615296565b806000190482111561537257615372614e76565b029392505050565b6000611ad083836152d9565b600080600080600080600060e0888a0312156153a157600080fd5b87359650602080890135965060408901356153bb81613e05565b955060608901356153cb816141ac565b945060808901356153db816141ac565b935060a08901356153eb816141ac565b925060c08901356001600160401b0381111561540657600080fd5b8901601f81018b1361541757600080fd5b80356154256143c08261448f565b81815260059190911b8201830190838101908d83111561544457600080fd5b928401925b828410156154695761545a846144f7565b82529284019290840190615449565b809550505050505092959891949750929550565b6000610160828403121561549057600080fd5b615498614338565b825181526020830151602082015260408301516040820152606083015160608201526080830151608082015260a083015160a082015260c083015160c08201526154e460e08401614cd2565b60e08201526101008381015190820152610120615502818501614af3565b90820152610140615514848201614af3565b908201529392505050565b6001600160a01b038581168252841660208201526040810183905260806060820181905260009061555290830184613e5c565b9695505050505050565b60006020828403121561556e57600080fd5b8151611ad081613e05565b601f821115610a5c57600081815260208120601f850160051c810160208610156155a05750805b601f850160051c820191505b818110156121f8578281556001016155ac565b81516001600160401b038111156155d8576155d8614292565b6155ec816155e68454614a5b565b84615579565b602080601f83116001811461562157600084156156095750858301515b600019600386901b1c1916600185901b1785556121f8565b600085815260208120601f198616915b8281101561565057888601518255948401946001909101908401615631565b508582101561566e5787850151600019600388901b60f8161c191681555b5050505050600190811b01905550565b60008261568d5761568d615251565b500690565b6000826156a1576156a1615251565b500490565b6000606082018583526020606081850152818651808452608086019150828801935060005b818110156156eb57845161ffff16835293830193918301916001016156cb565b50508093505050508215156040830152949350505050565b60008060006060848603121561571857600080fd5b835192506020840151915060408401519050925092509256fe31323334353637383941424344454647484a4b4c4d4e505152535455565758595a6162636465666768696a6b6d6e6f707172737475767778797aa2646970667358221220819fa9cd58311d6ef54448fcdcbff7bb3640930abfce720a72ed21c362de34b664736f6c63430008110033",
    "linkReferences": {}
  },
  "methodIdentifiers": {
    "adjustTiers((uint80,uint48,uint40,uint16,uint16,address,bytes32,bool,bool,bool)[],uint256[])": "f5a38e63",
    "approve(address,uint256)": "095ea7b3",
    "balanceOf(address)": "70a08231",
    "codeOrigin()": "1d153ca4",
    "contractURI()": "e8a3d485",
    "creditsOf(address)": "245a45b5",
    "didPay((address,uint256,uint256,(address,uint256,uint256,uint256),(address,uint256,uint256,uint256),uint256,address,bool,string,bytes))": "da9ee8b7",
    "didRedeem((address,uint256,uint256,uint256,(address,uint256,uint256,uint256),(address,uint256,uint256,uint256),address,string,bytes))": "2b13c58f",
    "directory()": "c41c2f24",
    "firstOwnerOf(uint256)": "54c6d1f5",
    "fundingCycleStore()": "557e7155",
    "getApproved(uint256)": "081812fc",
    "getPastTierTotalVotes(uint256,uint256)": "d31cc52c",
    "getPastTierVotes(address,uint256,uint256)": "d40e7146",
    "getTierDelegate(address,uint256)": "82732b6d",
    "getTierTotalVotes(uint256)": "94c5c5ca",
    "getTierVotes(address,uint256)": "ca323efe",
    "initialize(uint256,address,string,string,address,string,address,string,((uint80,uint48,uint40,uint16,uint16,address,bytes32,bool,bool,bool)[],uint256,uint256,address),address,(bool,bool,bool))": "bb52b6e4",
    "isApprovedForAll(address,address)": "e985e9c5",
    "mintFor((uint16[],address)[])": "36c1a93b",
    "mintFor(uint16[],address)": "6ac6d941",
    "mintReservesFor((uint256,uint256)[])": "2a596e53",
    "mintReservesFor(uint256,uint256)": "aa4fb15b",
    "name()": "06fdde03",
    "owner()": "8da5cb5b",
    "ownerOf(uint256)": "6352211e",
    "payParams((address,address,(address,uint256,uint256,uint256),uint256,uint256,address,uint256,uint256,string,bytes))": "d46cf171",
    "prices()": "d3419bf3",
    "pricingCurrency()": "64640c1e",
    "pricingDecimals()": "4ecba625",
    "projectId()": "3fafa127",
    "redeemParams((address,address,uint256,uint256,uint256,uint256,uint256,(address,uint256,uint256,uint256),bool,uint256,string,bytes))": "a51cfd18",
    "renounceOwnership()": "715018a6",
    "safeTransferFrom(address,address,uint256)": "42842e0e",
    "safeTransferFrom(address,address,uint256,bytes)": "b88d4fde",
    "setApprovalForAll(address,bool)": "a22cb465",
    "setBaseUri(string)": "a0bcfc7f",
    "setContractUri(string)": "ccb4807b",
    "setDefaultReservedTokenBeneficiary(address)": "df487e26",
    "setTierDelegate(address,uint256)": "ab951e39",
    "setTierDelegates((address,uint256)[])": "c74b13d9",
    "setTokenUriResolver(address)": "2407497e",
    "store()": "975057e7",
    "supportsInterface(bytes4)": "01ffc9a7",
    "symbol()": "95d89b41",
    "tokenURI(uint256)": "c87b56dd",
    "transferFrom(address,address,uint256)": "23b872dd",
    "transferOwnership(address)": "f2fde38b"
  },
  "id": 28
}