{
  "abi": [
    {
      "inputs": [],
      "name": "ALEADY_MINTED",
      "type": "error"
    },
    {
      "inputs": [],
      "name": "APPROVAL_TO_CURRENT_OWNER",
      "type": "error"
    },
    {
      "inputs": [],
      "name": "APPROVE_TO_CALLER",
      "type": "error"
    },
    {
      "inputs": [],
      "name": "BLOCK_NOT_YET_MINED",
      "type": "error"
    },
    {
      "inputs": [],
      "name": "CALLER_NOT_OWNER_OR_APPROVED",
      "type": "error"
    },
    {
      "inputs": [],
      "name": "DELEGATE_ADDRESS_ZERO",
      "type": "error"
    },
    {
      "inputs": [],
      "name": "INCORRECT_OWNER",
      "type": "error"
    },
    {
      "inputs": [],
      "name": "INVALID_PAYMENT_EVENT",
      "type": "error"
    },
    {
      "inputs": [],
      "name": "INVALID_REDEMPTION_EVENT",
      "type": "error"
    },
    {
      "inputs": [],
      "name": "INVALID_REDEMPTION_METADATA",
      "type": "error"
    },
    {
      "inputs": [],
      "name": "INVALID_TOKEN_ID",
      "type": "error"
    },
    {
      "inputs": [],
      "name": "MINT_TO_ZERO",
      "type": "error"
    },
    {
      "inputs": [],
      "name": "NOT_AVAILABLE",
      "type": "error"
    },
    {
      "inputs": [],
      "name": "OVERSPENDING",
      "type": "error"
    },
    {
      "inputs": [
        {
          "internalType": "uint256",
          "name": "prod1",
          "type": "uint256"
        },
        {
          "internalType": "uint256",
          "name": "denominator",
          "type": "uint256"
        }
      ],
      "name": "PRBMath__MulDivOverflow",
      "type": "error"
    },
    {
      "inputs": [],
      "name": "PRICING_RESOLVER_CHANGES_PAUSED",
      "type": "error"
    },
    {
      "inputs": [],
      "name": "RESERVED_TOKEN_MINTING_PAUSED",
      "type": "error"
    },
    {
      "inputs": [],
      "name": "TRANSFERS_PAUSED",
      "type": "error"
    },
    {
      "inputs": [],
      "name": "TRANSFER_TO_NON_IMPLEMENTER",
      "type": "error"
    },
    {
      "inputs": [],
      "name": "TRANSFER_TO_ZERO_ADDRESS",
      "type": "error"
    },
    {
      "inputs": [],
      "name": "UNAUTHORIZED",
      "type": "error"
    },
    {
      "inputs": [],
      "name": "UNEXPECTED_TOKEN_REDEEMED",
      "type": "error"
    },
    {
      "anonymous": false,
      "inputs": [
        {
          "indexed": true,
          "internalType": "uint256",
          "name": "tierId",
          "type": "uint256"
        },
        {
          "components": [
            {
              "internalType": "uint80",
              "name": "contributionFloor",
              "type": "uint80"
            },
            {
              "internalType": "uint48",
              "name": "lockedUntil",
              "type": "uint48"
            },
            {
              "internalType": "uint40",
              "name": "initialQuantity",
              "type": "uint40"
            },
            {
              "internalType": "uint16",
              "name": "votingUnits",
              "type": "uint16"
            },
            {
              "internalType": "uint16",
              "name": "reservedRate",
              "type": "uint16"
            },
            {
              "internalType": "address",
              "name": "reservedTokenBeneficiary",
              "type": "address"
            },
            {
              "internalType": "bytes32",
              "name": "encodedIPFSUri",
              "type": "bytes32"
            },
            {
              "internalType": "bool",
              "name": "allowManualMint",
              "type": "bool"
            },
            {
              "internalType": "bool",
              "name": "shouldUseBeneficiaryAsDefault",
              "type": "bool"
            },
            {
              "internalType": "bool",
              "name": "transfersPausable",
              "type": "bool"
            }
          ],
          "indexed": false,
          "internalType": "struct JB721TierParams",
          "name": "data",
          "type": "tuple"
        },
        {
          "indexed": false,
          "internalType": "address",
          "name": "caller",
          "type": "address"
        }
      ],
      "name": "AddTier",
      "type": "event"
    },
    {
      "anonymous": false,
      "inputs": [
        {
          "indexed": true,
          "internalType": "address",
          "name": "owner",
          "type": "address"
        },
        {
          "indexed": true,
          "internalType": "address",
          "name": "approved",
          "type": "address"
        },
        {
          "indexed": true,
          "internalType": "uint256",
          "name": "tokenId",
          "type": "uint256"
        }
      ],
      "name": "Approval",
      "type": "event"
    },
    {
      "anonymous": false,
      "inputs": [
        {
          "indexed": true,
          "internalType": "address",
          "name": "owner",
          "type": "address"
        },
        {
          "indexed": true,
          "internalType": "address",
          "name": "operator",
          "type": "address"
        },
        {
          "indexed": false,
          "internalType": "bool",
          "name": "approved",
          "type": "bool"
        }
      ],
      "name": "ApprovalForAll",
      "type": "event"
    },
    {
      "anonymous": false,
      "inputs": [
        {
          "indexed": true,
          "internalType": "address",
          "name": "delegator",
          "type": "address"
        },
        {
          "indexed": true,
          "internalType": "address",
          "name": "fromDelegate",
          "type": "address"
        },
        {
          "indexed": true,
          "internalType": "address",
          "name": "toDelegate",
          "type": "address"
        }
      ],
      "name": "DelegateChanged",
      "type": "event"
    },
    {
      "anonymous": false,
      "inputs": [
        {
          "indexed": true,
          "internalType": "uint256",
          "name": "tokenId",
          "type": "uint256"
        },
        {
          "indexed": true,
          "internalType": "uint256",
          "name": "tierId",
          "type": "uint256"
        },
        {
          "indexed": true,
          "internalType": "address",
          "name": "beneficiary",
          "type": "address"
        },
        {
          "indexed": false,
          "internalType": "uint256",
          "name": "totalAmountContributed",
          "type": "uint256"
        },
        {
          "indexed": false,
          "internalType": "address",
          "name": "caller",
          "type": "address"
        }
      ],
      "name": "Mint",
      "type": "event"
    },
    {
      "anonymous": false,
      "inputs": [
        {
          "indexed": true,
          "internalType": "uint256",
          "name": "tokenId",
          "type": "uint256"
        },
        {
          "indexed": true,
          "internalType": "uint256",
          "name": "tierId",
          "type": "uint256"
        },
        {
          "indexed": true,
          "internalType": "address",
          "name": "beneficiary",
          "type": "address"
        },
        {
          "indexed": false,
          "internalType": "address",
          "name": "caller",
          "type": "address"
        }
      ],
      "name": "MintReservedToken",
      "type": "event"
    },
    {
      "anonymous": false,
      "inputs": [
        {
          "indexed": true,
          "internalType": "address",
          "name": "previousOwner",
          "type": "address"
        },
        {
          "indexed": true,
          "internalType": "address",
          "name": "newOwner",
          "type": "address"
        }
      ],
      "name": "OwnershipTransferred",
      "type": "event"
    },
    {
      "anonymous": false,
      "inputs": [
        {
          "indexed": true,
          "internalType": "uint256",
          "name": "tierId",
          "type": "uint256"
        },
        {
          "indexed": false,
          "internalType": "address",
          "name": "caller",
          "type": "address"
        }
      ],
      "name": "RemoveTier",
      "type": "event"
    },
    {
      "anonymous": false,
      "inputs": [
        {
          "indexed": true,
          "internalType": "string",
          "name": "baseUri",
          "type": "string"
        },
        {
          "indexed": false,
          "internalType": "address",
          "name": "caller",
          "type": "address"
        }
      ],
      "name": "SetBaseUri",
      "type": "event"
    },
    {
      "anonymous": false,
      "inputs": [
        {
          "indexed": true,
          "internalType": "string",
          "name": "contractUri",
          "type": "string"
        },
        {
          "indexed": false,
          "internalType": "address",
          "name": "caller",
          "type": "address"
        }
      ],
      "name": "SetContractUri",
      "type": "event"
    },
    {
      "anonymous": false,
      "inputs": [
        {
          "indexed": true,
          "internalType": "address",
          "name": "beneficiary",
          "type": "address"
        },
        {
          "indexed": false,
          "internalType": "address",
          "name": "caller",
          "type": "address"
        }
      ],
      "name": "SetDefaultReservedTokenBeneficiary",
      "type": "event"
    },
    {
      "anonymous": false,
      "inputs": [
        {
          "indexed": true,
          "internalType": "contract IJBTokenUriResolver",
          "name": "newResolver",
          "type": "address"
        },
        {
          "indexed": false,
          "internalType": "address",
          "name": "caller",
          "type": "address"
        }
      ],
      "name": "SetTokenUriResolver",
      "type": "event"
    },
    {
      "anonymous": false,
      "inputs": [
        {
          "indexed": true,
          "internalType": "address",
          "name": "delegator",
          "type": "address"
        },
        {
          "indexed": true,
          "internalType": "address",
          "name": "fromDelegate",
          "type": "address"
        },
        {
          "indexed": true,
          "internalType": "address",
          "name": "toDelegate",
          "type": "address"
        },
        {
          "indexed": false,
          "internalType": "uint256",
          "name": "tierId",
          "type": "uint256"
        },
        {
          "indexed": false,
          "internalType": "address",
          "name": "caller",
          "type": "address"
        }
      ],
      "name": "TierDelegateChanged",
      "type": "event"
    },
    {
      "anonymous": false,
      "inputs": [
        {
          "indexed": true,
          "internalType": "address",
          "name": "delegate",
          "type": "address"
        },
        {
          "indexed": true,
          "internalType": "uint256",
          "name": "tierId",
          "type": "uint256"
        },
        {
          "indexed": false,
          "internalType": "uint256",
          "name": "previousBalance",
          "type": "uint256"
        },
        {
          "indexed": false,
          "internalType": "uint256",
          "name": "newBalance",
          "type": "uint256"
        },
        {
          "indexed": false,
          "internalType": "address",
          "name": "callre",
          "type": "address"
        }
      ],
      "name": "TierDelegateVotesChanged",
      "type": "event"
    },
    {
      "anonymous": false,
      "inputs": [
        {
          "indexed": true,
          "internalType": "address",
          "name": "from",
          "type": "address"
        },
        {
          "indexed": true,
          "internalType": "address",
          "name": "to",
          "type": "address"
        },
        {
          "indexed": true,
          "internalType": "uint256",
          "name": "tokenId",
          "type": "uint256"
        }
      ],
      "name": "Transfer",
      "type": "event"
    },
    {
      "inputs": [
        {
          "components": [
            {
              "internalType": "uint80",
              "name": "contributionFloor",
              "type": "uint80"
            },
            {
              "internalType": "uint48",
              "name": "lockedUntil",
              "type": "uint48"
            },
            {
              "internalType": "uint40",
              "name": "initialQuantity",
              "type": "uint40"
            },
            {
              "internalType": "uint16",
              "name": "votingUnits",
              "type": "uint16"
            },
            {
              "internalType": "uint16",
              "name": "reservedRate",
              "type": "uint16"
            },
            {
              "internalType": "address",
              "name": "reservedTokenBeneficiary",
              "type": "address"
            },
            {
              "internalType": "bytes32",
              "name": "encodedIPFSUri",
              "type": "bytes32"
            },
            {
              "internalType": "bool",
              "name": "allowManualMint",
              "type": "bool"
            },
            {
              "internalType": "bool",
              "name": "shouldUseBeneficiaryAsDefault",
              "type": "bool"
            },
            {
              "internalType": "bool",
              "name": "transfersPausable",
              "type": "bool"
            }
          ],
          "internalType": "struct JB721TierParams[]",
          "name": "_tiersToAdd",
          "type": "tuple[]"
        },
        {
          "internalType": "uint256[]",
          "name": "_tierIdsToRemove",
          "type": "uint256[]"
        }
      ],
      "name": "adjustTiers",
      "outputs": [],
      "stateMutability": "nonpayable",
      "type": "function"
    },
    {
      "inputs": [
        {
          "internalType": "address",
          "name": "to",
          "type": "address"
        },
        {
          "internalType": "uint256",
          "name": "tokenId",
          "type": "uint256"
        }
      ],
      "name": "approve",
      "outputs": [],
      "stateMutability": "nonpayable",
      "type": "function"
    },
    {
      "inputs": [
        {
          "internalType": "address",
          "name": "_owner",
          "type": "address"
        }
      ],
      "name": "balanceOf",
      "outputs": [
        {
          "internalType": "uint256",
          "name": "balance",
          "type": "uint256"
        }
      ],
      "stateMutability": "view",
      "type": "function"
    },
    {
      "inputs": [],
      "name": "codeOrigin",
      "outputs": [
        {
          "internalType": "address",
          "name": "",
          "type": "address"
        }
      ],
      "stateMutability": "view",
      "type": "function"
    },
    {
      "inputs": [],
      "name": "contractURI",
      "outputs": [
        {
          "internalType": "string",
          "name": "",
          "type": "string"
        }
      ],
      "stateMutability": "view",
      "type": "function"
    },
    {
      "inputs": [
        {
          "internalType": "address",
          "name": "",
          "type": "address"
        }
      ],
      "name": "creditsOf",
      "outputs": [
        {
          "internalType": "uint256",
          "name": "",
          "type": "uint256"
        }
      ],
      "stateMutability": "view",
      "type": "function"
    },
    {
      "inputs": [
        {
          "components": [
            {
              "internalType": "address",
              "name": "payer",
              "type": "address"
            },
            {
              "internalType": "uint256",
              "name": "projectId",
              "type": "uint256"
            },
            {
              "internalType": "uint256",
              "name": "currentFundingCycleConfiguration",
              "type": "uint256"
            },
            {
              "components": [
                {
                  "internalType": "address",
                  "name": "token",
                  "type": "address"
                },
                {
                  "internalType": "uint256",
                  "name": "value",
                  "type": "uint256"
                },
                {
                  "internalType": "uint256",
                  "name": "decimals",
                  "type": "uint256"
                },
                {
                  "internalType": "uint256",
                  "name": "currency",
                  "type": "uint256"
                }
              ],
              "internalType": "struct JBTokenAmount",
              "name": "amount",
              "type": "tuple"
            },
            {
              "components": [
                {
                  "internalType": "address",
                  "name": "token",
                  "type": "address"
                },
                {
                  "internalType": "uint256",
                  "name": "value",
                  "type": "uint256"
                },
                {
                  "internalType": "uint256",
                  "name": "decimals",
                  "type": "uint256"
                },
                {
                  "internalType": "uint256",
                  "name": "currency",
                  "type": "uint256"
                }
              ],
              "internalType": "struct JBTokenAmount",
              "name": "forwardedAmount",
              "type": "tuple"
            },
            {
              "internalType": "uint256",
              "name": "projectTokenCount",
              "type": "uint256"
            },
            {
              "internalType": "address",
              "name": "beneficiary",
              "type": "address"
            },
            {
              "internalType": "bool",
              "name": "preferClaimedTokens",
              "type": "bool"
            },
            {
              "internalType": "string",
              "name": "memo",
              "type": "string"
            },
            {
              "internalType": "bytes",
              "name": "metadata",
              "type": "bytes"
            }
          ],
          "internalType": "struct JBDidPayData",
          "name": "_data",
          "type": "tuple"
        }
      ],
      "name": "didPay",
      "outputs": [],
      "stateMutability": "payable",
      "type": "function"
    },
    {
      "inputs": [
        {
          "components": [
            {
              "internalType": "address",
              "name": "holder",
              "type": "address"
            },
            {
              "internalType": "uint256",
              "name": "projectId",
              "type": "uint256"
            },
            {
              "internalType": "uint256",
              "name": "currentFundingCycleConfiguration",
              "type": "uint256"
            },
            {
              "internalType": "uint256",
              "name": "projectTokenCount",
              "type": "uint256"
            },
            {
              "components": [
                {
                  "internalType": "address",
                  "name": "token",
                  "type": "address"
                },
                {
                  "internalType": "uint256",
                  "name": "value",
                  "type": "uint256"
                },
                {
                  "internalType": "uint256",
                  "name": "decimals",
                  "type": "uint256"
                },
                {
                  "internalType": "uint256",
                  "name": "currency",
                  "type": "uint256"
                }
              ],
              "internalType": "struct JBTokenAmount",
              "name": "reclaimedAmount",
              "type": "tuple"
            },
            {
              "components": [
                {
                  "internalType": "address",
                  "name": "token",
                  "type": "address"
                },
                {
                  "internalType": "uint256",
                  "name": "value",
                  "type": "uint256"
                },
                {
                  "internalType": "uint256",
                  "name": "decimals",
                  "type": "uint256"
                },
                {
                  "internalType": "uint256",
                  "name": "currency",
                  "type": "uint256"
                }
              ],
              "internalType": "struct JBTokenAmount",
              "name": "forwardedAmount",
              "type": "tuple"
            },
            {
              "internalType": "address payable",
              "name": "beneficiary",
              "type": "address"
            },
            {
              "internalType": "string",
              "name": "memo",
              "type": "string"
            },
            {
              "internalType": "bytes",
              "name": "metadata",
              "type": "bytes"
            }
          ],
          "internalType": "struct JBDidRedeemData",
          "name": "_data",
          "type": "tuple"
        }
      ],
      "name": "didRedeem",
      "outputs": [],
      "stateMutability": "payable",
      "type": "function"
    },
    {
      "inputs": [],
      "name": "directory",
      "outputs": [
        {
          "internalType": "contract IJBDirectory",
          "name": "",
          "type": "address"
        }
      ],
      "stateMutability": "view",
      "type": "function"
    },
    {
      "inputs": [
        {
          "internalType": "uint256",
          "name": "_tokenId",
          "type": "uint256"
        }
      ],
      "name": "firstOwnerOf",
      "outputs": [
        {
          "internalType": "address",
          "name": "",
          "type": "address"
        }
      ],
      "stateMutability": "view",
      "type": "function"
    },
    {
      "inputs": [],
      "name": "fundingCycleStore",
      "outputs": [
        {
          "internalType": "contract IJBFundingCycleStore",
          "name": "",
          "type": "address"
        }
      ],
      "stateMutability": "view",
      "type": "function"
    },
    {
      "inputs": [
        {
          "internalType": "uint256",
          "name": "tokenId",
          "type": "uint256"
        }
      ],
      "name": "getApproved",
      "outputs": [
        {
          "internalType": "address",
          "name": "",
          "type": "address"
        }
      ],
      "stateMutability": "view",
      "type": "function"
    },
    {
      "inputs": [
        {
          "internalType": "uint256",
          "name": "_tier",
          "type": "uint256"
        },
        {
          "internalType": "uint256",
          "name": "_blockNumber",
          "type": "uint256"
        }
      ],
      "name": "getPastTierTotalVotes",
      "outputs": [
        {
          "internalType": "uint256",
          "name": "",
          "type": "uint256"
        }
      ],
      "stateMutability": "view",
      "type": "function"
    },
    {
      "inputs": [
        {
          "internalType": "address",
          "name": "_account",
          "type": "address"
        },
        {
          "internalType": "uint256",
          "name": "_tier",
          "type": "uint256"
        },
        {
          "internalType": "uint256",
          "name": "_blockNumber",
          "type": "uint256"
        }
      ],
      "name": "getPastTierVotes",
      "outputs": [
        {
          "internalType": "uint256",
          "name": "",
          "type": "uint256"
        }
      ],
      "stateMutability": "view",
      "type": "function"
    },
    {
      "inputs": [
        {
          "internalType": "address",
          "name": "_account",
          "type": "address"
        },
        {
          "internalType": "uint256",
          "name": "_tier",
          "type": "uint256"
        }
      ],
      "name": "getTierDelegate",
      "outputs": [
        {
          "internalType": "address",
          "name": "",
          "type": "address"
        }
      ],
      "stateMutability": "view",
      "type": "function"
    },
    {
      "inputs": [
        {
          "internalType": "uint256",
          "name": "_tier",
          "type": "uint256"
        }
      ],
      "name": "getTierTotalVotes",
      "outputs": [
        {
          "internalType": "uint256",
          "name": "",
          "type": "uint256"
        }
      ],
      "stateMutability": "view",
      "type": "function"
    },
    {
      "inputs": [
        {
          "internalType": "address",
          "name": "_account",
          "type": "address"
        },
        {
          "internalType": "uint256",
          "name": "_tier",
          "type": "uint256"
        }
      ],
      "name": "getTierVotes",
      "outputs": [
        {
          "internalType": "uint256",
          "name": "",
          "type": "uint256"
        }
      ],
      "stateMutability": "view",
      "type": "function"
    },
    {
      "inputs": [
        {
          "internalType": "uint256",
          "name": "_projectId",
          "type": "uint256"
        },
        {
          "internalType": "contract IJBDirectory",
          "name": "_directory",
          "type": "address"
        },
        {
          "internalType": "string",
          "name": "_name",
          "type": "string"
        },
        {
          "internalType": "string",
          "name": "_symbol",
          "type": "string"
        },
        {
          "internalType": "contract IJBFundingCycleStore",
          "name": "_fundingCycleStore",
          "type": "address"
        },
        {
          "internalType": "string",
          "name": "_baseUri",
          "type": "string"
        },
        {
          "internalType": "contract IJBTokenUriResolver",
          "name": "_tokenUriResolver",
          "type": "address"
        },
        {
          "internalType": "string",
          "name": "_contractUri",
          "type": "string"
        },
        {
          "components": [
            {
              "components": [
                {
                  "internalType": "uint80",
                  "name": "contributionFloor",
                  "type": "uint80"
                },
                {
                  "internalType": "uint48",
                  "name": "lockedUntil",
                  "type": "uint48"
                },
                {
                  "internalType": "uint40",
                  "name": "initialQuantity",
                  "type": "uint40"
                },
                {
                  "internalType": "uint16",
                  "name": "votingUnits",
                  "type": "uint16"
                },
                {
                  "internalType": "uint16",
                  "name": "reservedRate",
                  "type": "uint16"
                },
                {
                  "internalType": "address",
                  "name": "reservedTokenBeneficiary",
                  "type": "address"
                },
                {
                  "internalType": "bytes32",
                  "name": "encodedIPFSUri",
                  "type": "bytes32"
                },
                {
                  "internalType": "bool",
                  "name": "allowManualMint",
                  "type": "bool"
                },
                {
                  "internalType": "bool",
                  "name": "shouldUseBeneficiaryAsDefault",
                  "type": "bool"
                },
                {
                  "internalType": "bool",
                  "name": "transfersPausable",
                  "type": "bool"
                }
              ],
              "internalType": "struct JB721TierParams[]",
              "name": "tiers",
              "type": "tuple[]"
            },
            {
              "internalType": "uint256",
              "name": "currency",
              "type": "uint256"
            },
            {
              "internalType": "uint256",
              "name": "decimals",
              "type": "uint256"
            },
            {
              "internalType": "contract IJBPrices",
              "name": "prices",
              "type": "address"
            }
          ],
          "internalType": "struct JB721PricingParams",
          "name": "_pricing",
          "type": "tuple"
        },
        {
          "internalType": "contract IJBTiered721DelegateStore",
          "name": "_store",
          "type": "address"
        },
        {
          "components": [
            {
              "internalType": "bool",
              "name": "lockReservedTokenChanges",
              "type": "bool"
            },
            {
              "internalType": "bool",
              "name": "lockVotingUnitChanges",
              "type": "bool"
            },
            {
              "internalType": "bool",
              "name": "lockManualMintingChanges",
              "type": "bool"
            }
          ],
          "internalType": "struct JBTiered721Flags",
          "name": "_flags",
          "type": "tuple"
        }
      ],
      "name": "initialize",
      "outputs": [],
      "stateMutability": "nonpayable",
      "type": "function"
    },
    {
      "inputs": [
        {
          "internalType": "address",
          "name": "owner",
          "type": "address"
        },
        {
          "internalType": "address",
          "name": "operator",
          "type": "address"
        }
      ],
      "name": "isApprovedForAll",
      "outputs": [
        {
          "internalType": "bool",
          "name": "",
          "type": "bool"
        }
      ],
      "stateMutability": "view",
      "type": "function"
    },
    {
      "inputs": [
        {
          "components": [
            {
              "internalType": "uint16[]",
              "name": "tierIds",
              "type": "uint16[]"
            },
            {
              "internalType": "address",
              "name": "beneficiary",
              "type": "address"
            }
          ],
          "internalType": "struct JBTiered721MintForTiersData[]",
          "name": "_mintForTiersData",
          "type": "tuple[]"
        }
      ],
      "name": "mintFor",
      "outputs": [],
      "stateMutability": "nonpayable",
      "type": "function"
    },
    {
      "inputs": [
        {
          "internalType": "uint16[]",
          "name": "_tierIds",
          "type": "uint16[]"
        },
        {
          "internalType": "address",
          "name": "_beneficiary",
          "type": "address"
        }
      ],
      "name": "mintFor",
      "outputs": [
        {
          "internalType": "uint256[]",
          "name": "tokenIds",
          "type": "uint256[]"
        }
      ],
      "stateMutability": "nonpayable",
      "type": "function"
    },
    {
      "inputs": [
        {
          "components": [
            {
              "internalType": "uint256",
              "name": "tierId",
              "type": "uint256"
            },
            {
              "internalType": "uint256",
              "name": "count",
              "type": "uint256"
            }
          ],
          "internalType": "struct JBTiered721MintReservesForTiersData[]",
          "name": "_mintReservesForTiersData",
          "type": "tuple[]"
        }
      ],
      "name": "mintReservesFor",
      "outputs": [],
      "stateMutability": "nonpayable",
      "type": "function"
    },
    {
      "inputs": [
        {
          "internalType": "uint256",
          "name": "_tierId",
          "type": "uint256"
        },
        {
          "internalType": "uint256",
          "name": "_count",
          "type": "uint256"
        }
      ],
      "name": "mintReservesFor",
      "outputs": [],
      "stateMutability": "nonpayable",
      "type": "function"
    },
    {
      "inputs": [],
      "name": "name",
      "outputs": [
        {
          "internalType": "string",
          "name": "",
          "type": "string"
        }
      ],
      "stateMutability": "view",
      "type": "function"
    },
    {
      "inputs": [],
      "name": "owner",
      "outputs": [
        {
          "internalType": "address",
          "name": "",
          "type": "address"
        }
      ],
      "stateMutability": "view",
      "type": "function"
    },
    {
      "inputs": [
        {
          "internalType": "uint256",
          "name": "tokenId",
          "type": "uint256"
        }
      ],
      "name": "ownerOf",
      "outputs": [
        {
          "internalType": "address",
          "name": "",
          "type": "address"
        }
      ],
      "stateMutability": "view",
      "type": "function"
    },
    {
      "inputs": [
        {
          "components": [
            {
              "internalType": "contract IJBPaymentTerminal",
              "name": "terminal",
              "type": "address"
            },
            {
              "internalType": "address",
              "name": "payer",
              "type": "address"
            },
            {
              "components": [
                {
                  "internalType": "address",
                  "name": "token",
                  "type": "address"
                },
                {
                  "internalType": "uint256",
                  "name": "value",
                  "type": "uint256"
                },
                {
                  "internalType": "uint256",
                  "name": "decimals",
                  "type": "uint256"
                },
                {
                  "internalType": "uint256",
                  "name": "currency",
                  "type": "uint256"
                }
              ],
              "internalType": "struct JBTokenAmount",
              "name": "amount",
              "type": "tuple"
            },
            {
              "internalType": "uint256",
              "name": "projectId",
              "type": "uint256"
            },
            {
              "internalType": "uint256",
              "name": "currentFundingCycleConfiguration",
              "type": "uint256"
            },
            {
              "internalType": "address",
              "name": "beneficiary",
              "type": "address"
            },
            {
              "internalType": "uint256",
              "name": "weight",
              "type": "uint256"
            },
            {
              "internalType": "uint256",
              "name": "reservedRate",
              "type": "uint256"
            },
            {
              "internalType": "string",
              "name": "memo",
              "type": "string"
            },
            {
              "internalType": "bytes",
              "name": "metadata",
              "type": "bytes"
            }
          ],
          "internalType": "struct JBPayParamsData",
          "name": "_data",
          "type": "tuple"
        }
      ],
      "name": "payParams",
      "outputs": [
        {
          "internalType": "uint256",
          "name": "weight",
          "type": "uint256"
        },
        {
          "internalType": "string",
          "name": "memo",
          "type": "string"
        },
        {
          "components": [
            {
              "internalType": "contract IJBPayDelegate",
              "name": "delegate",
              "type": "address"
            },
            {
              "internalType": "uint256",
              "name": "amount",
              "type": "uint256"
            }
          ],
          "internalType": "struct JBPayDelegateAllocation[]",
          "name": "delegateAllocations",
          "type": "tuple[]"
        }
      ],
      "stateMutability": "view",
      "type": "function"
    },
    {
      "inputs": [],
      "name": "prices",
      "outputs": [
        {
          "internalType": "contract IJBPrices",
          "name": "",
          "type": "address"
        }
      ],
      "stateMutability": "view",
      "type": "function"
    },
    {
      "inputs": [],
      "name": "pricingCurrency",
      "outputs": [
        {
          "internalType": "uint256",
          "name": "",
          "type": "uint256"
        }
      ],
      "stateMutability": "view",
      "type": "function"
    },
    {
      "inputs": [],
      "name": "pricingDecimals",
      "outputs": [
        {
          "internalType": "uint256",
          "name": "",
          "type": "uint256"
        }
      ],
      "stateMutability": "view",
      "type": "function"
    },
    {
      "inputs": [],
      "name": "projectId",
      "outputs": [
        {
          "internalType": "uint256",
          "name": "",
          "type": "uint256"
        }
      ],
      "stateMutability": "view",
      "type": "function"
    },
    {
      "inputs": [
        {
          "components": [
            {
              "internalType": "contract IJBPaymentTerminal",
              "name": "terminal",
              "type": "address"
            },
            {
              "internalType": "address",
              "name": "holder",
              "type": "address"
            },
            {
              "internalType": "uint256",
              "name": "projectId",
              "type": "uint256"
            },
            {
              "internalType": "uint256",
              "name": "currentFundingCycleConfiguration",
              "type": "uint256"
            },
            {
              "internalType": "uint256",
              "name": "tokenCount",
              "type": "uint256"
            },
            {
              "internalType": "uint256",
              "name": "totalSupply",
              "type": "uint256"
            },
            {
              "internalType": "uint256",
              "name": "overflow",
              "type": "uint256"
            },
            {
              "components": [
                {
                  "internalType": "address",
                  "name": "token",
                  "type": "address"
                },
                {
                  "internalType": "uint256",
                  "name": "value",
                  "type": "uint256"
                },
                {
                  "internalType": "uint256",
                  "name": "decimals",
                  "type": "uint256"
                },
                {
                  "internalType": "uint256",
                  "name": "currency",
                  "type": "uint256"
                }
              ],
              "internalType": "struct JBTokenAmount",
              "name": "reclaimAmount",
              "type": "tuple"
            },
            {
              "internalType": "bool",
              "name": "useTotalOverflow",
              "type": "bool"
            },
            {
              "internalType": "uint256",
              "name": "redemptionRate",
              "type": "uint256"
            },
            {
              "internalType": "string",
              "name": "memo",
              "type": "string"
            },
            {
              "internalType": "bytes",
              "name": "metadata",
              "type": "bytes"
            }
          ],
          "internalType": "struct JBRedeemParamsData",
          "name": "_data",
          "type": "tuple"
        }
      ],
      "name": "redeemParams",
      "outputs": [
        {
          "internalType": "uint256",
          "name": "reclaimAmount",
          "type": "uint256"
        },
        {
          "internalType": "string",
          "name": "memo",
          "type": "string"
        },
        {
          "components": [
            {
              "internalType": "contract IJBRedemptionDelegate",
              "name": "delegate",
              "type": "address"
            },
            {
              "internalType": "uint256",
              "name": "amount",
              "type": "uint256"
            }
          ],
          "internalType": "struct JBRedemptionDelegateAllocation[]",
          "name": "delegateAllocations",
          "type": "tuple[]"
        }
      ],
      "stateMutability": "view",
      "type": "function"
    },
    {
      "inputs": [],
      "name": "renounceOwnership",
      "outputs": [],
      "stateMutability": "nonpayable",
      "type": "function"
    },
    {
      "inputs": [
        {
          "internalType": "address",
          "name": "from",
          "type": "address"
        },
        {
          "internalType": "address",
          "name": "to",
          "type": "address"
        },
        {
          "internalType": "uint256",
          "name": "tokenId",
          "type": "uint256"
        }
      ],
      "name": "safeTransferFrom",
      "outputs": [],
      "stateMutability": "nonpayable",
      "type": "function"
    },
    {
      "inputs": [
        {
          "internalType": "address",
          "name": "from",
          "type": "address"
        },
        {
          "internalType": "address",
          "name": "to",
          "type": "address"
        },
        {
          "internalType": "uint256",
          "name": "tokenId",
          "type": "uint256"
        },
        {
          "internalType": "bytes",
          "name": "data",
          "type": "bytes"
        }
      ],
      "name": "safeTransferFrom",
      "outputs": [],
      "stateMutability": "nonpayable",
      "type": "function"
    },
    {
      "inputs": [
        {
          "internalType": "address",
          "name": "operator",
          "type": "address"
        },
        {
          "internalType": "bool",
          "name": "approved",
          "type": "bool"
        }
      ],
      "name": "setApprovalForAll",
      "outputs": [],
      "stateMutability": "nonpayable",
      "type": "function"
    },
    {
      "inputs": [
        {
          "internalType": "string",
          "name": "_baseUri",
          "type": "string"
        }
      ],
      "name": "setBaseUri",
      "outputs": [],
      "stateMutability": "nonpayable",
      "type": "function"
    },
    {
      "inputs": [
        {
          "internalType": "string",
          "name": "_contractUri",
          "type": "string"
        }
      ],
      "name": "setContractUri",
      "outputs": [],
      "stateMutability": "nonpayable",
      "type": "function"
    },
    {
      "inputs": [
        {
          "internalType": "address",
          "name": "_beneficiary",
          "type": "address"
        }
      ],
      "name": "setDefaultReservedTokenBeneficiary",
      "outputs": [],
      "stateMutability": "nonpayable",
      "type": "function"
    },
    {
      "inputs": [
        {
          "internalType": "address",
          "name": "_delegatee",
          "type": "address"
        },
        {
          "internalType": "uint256",
          "name": "_tierId",
          "type": "uint256"
        }
      ],
      "name": "setTierDelegate",
      "outputs": [],
      "stateMutability": "nonpayable",
      "type": "function"
    },
    {
      "inputs": [
        {
          "components": [
            {
              "internalType": "address",
              "name": "delegatee",
              "type": "address"
            },
            {
              "internalType": "uint256",
              "name": "tierId",
              "type": "uint256"
            }
          ],
          "internalType": "struct JBTiered721SetTierDelegatesData[]",
          "name": "_setTierDelegatesData",
          "type": "tuple[]"
        }
      ],
      "name": "setTierDelegates",
      "outputs": [],
      "stateMutability": "nonpayable",
      "type": "function"
    },
    {
      "inputs": [
        {
          "internalType": "contract IJBTokenUriResolver",
          "name": "_tokenUriResolver",
          "type": "address"
        }
      ],
      "name": "setTokenUriResolver",
      "outputs": [],
      "stateMutability": "nonpayable",
      "type": "function"
    },
    {
      "inputs": [],
      "name": "store",
      "outputs": [
        {
          "internalType": "contract IJBTiered721DelegateStore",
          "name": "",
          "type": "address"
        }
      ],
      "stateMutability": "view",
      "type": "function"
    },
    {
      "inputs": [
        {
          "internalType": "bytes4",
          "name": "_interfaceId",
          "type": "bytes4"
        }
      ],
      "name": "supportsInterface",
      "outputs": [
        {
          "internalType": "bool",
          "name": "",
          "type": "bool"
        }
      ],
      "stateMutability": "view",
      "type": "function"
    },
    {
      "inputs": [],
      "name": "symbol",
      "outputs": [
        {
          "internalType": "string",
          "name": "",
          "type": "string"
        }
      ],
      "stateMutability": "view",
      "type": "function"
    },
    {
      "inputs": [
        {
          "internalType": "uint256",
          "name": "_tokenId",
          "type": "uint256"
        }
      ],
      "name": "tokenURI",
      "outputs": [
        {
          "internalType": "string",
          "name": "",
          "type": "string"
        }
      ],
      "stateMutability": "view",
      "type": "function"
    },
    {
      "inputs": [
        {
          "internalType": "address",
          "name": "from",
          "type": "address"
        },
        {
          "internalType": "address",
          "name": "to",
          "type": "address"
        },
        {
          "internalType": "uint256",
          "name": "tokenId",
          "type": "uint256"
        }
      ],
      "name": "transferFrom",
      "outputs": [],
      "stateMutability": "nonpayable",
      "type": "function"
    },
    {
      "inputs": [
        {
          "internalType": "address",
          "name": "newOwner",
          "type": "address"
        }
      ],
      "name": "transferOwnership",
      "outputs": [],
      "stateMutability": "nonpayable",
      "type": "function"
    }
  ],
  "bytecode": {
    "object": "0x60806040523480156200001157600080fd5b506200001d3362000035565b600880546001600160a01b0319163017905562000087565b600780546001600160a01b038381166001600160a01b0319831681179093556040519116919082907f8be0079c531659141344cd1fd0a4f28419497f9722a3daafe3b4186f6b6457e090600090a35050565b61534b80620000976000396000f3fe6080604052600436106102935760003560e01c806395d89b411161015a578063ca323efe116100c1578063da9ee8b71161007a578063da9ee8b714610820578063df487e2614610833578063e8a3d48514610853578063e985e9c514610868578063f2fde38b146108b1578063f5a38e63146108d157600080fd5b8063ca323efe14610760578063ccb4807b14610780578063d31cc52c146107a0578063d3419bf3146107c0578063d40e7146146107e0578063d46cf1711461080057600080fd5b8063ab951e3911610113578063ab951e39146106a0578063b88d4fde146106c0578063bb52b6e4146106e0578063c41c2f2414610700578063c74b13d914610720578063c87b56dd1461074057600080fd5b806395d89b41146105dc578063975057e7146105f1578063a0bcfc7f14610611578063a22cb46514610631578063a51cfd1814610651578063aa4fb15b1461068057600080fd5b806342842e0e116101fe5780636ac6d941116101b75780636ac6d941146104f957806370a0823114610526578063715018a61461054657806382732b6d1461055b5780638da5cb5b1461059e57806394c5c5ca146105bc57600080fd5b806342842e0e1461044d5780634ecba6251461046d57806354c6d1f514610483578063557e7155146104a35780636352211e146104c357806364640c1e146104e357600080fd5b80632407497e116102505780632407497e14610389578063245a45b5146103a95780632a596e53146103e45780632b13c58f1461040457806336c1a93b146104175780633fafa1271461043757600080fd5b806301ffc9a71461029857806306fdde03146102cd578063081812fc146102ef578063095ea7b3146103275780631d153ca41461034957806323b872dd14610369575b600080fd5b3480156102a457600080fd5b506102b86102b3366004613a09565b6108f1565b60405190151581526020015b60405180910390f35b3480156102d957600080fd5b506102e261091c565b6040516102c49190613a76565b3480156102fb57600080fd5b5061030f61030a366004613a89565b6109ae565b6040516001600160a01b0390911681526020016102c4565b34801561033357600080fd5b50610347610342366004613ac7565b6109d5565b005b34801561035557600080fd5b5060085461030f906001600160a01b031681565b34801561037557600080fd5b50610347610384366004613af3565b610a61565b34801561039557600080fd5b506103476103a4366004613b34565b610a93565b3480156103b557600080fd5b506103d66103c4366004613b34565b600e6020526000908152604090205481565b6040519081526020016102c4565b3480156103f057600080fd5b506103476103ff366004613b51565b610b3c565b610347610412366004613bde565b610b95565b34801561042357600080fd5b50610347610432366004613c56565b610d6f565b34801561044357600080fd5b506103d660055481565b34801561045957600080fd5b50610347610468366004613af3565b610dd1565b34801561047957600080fd5b506103d6600d5481565b34801561048f57600080fd5b5061030f61049e366004613a89565b610dec565b3480156104af57600080fd5b50600a5461030f906001600160a01b031681565b3480156104cf57600080fd5b5061030f6104de366004613a89565b610e98565b3480156104ef57600080fd5b506103d6600c5481565b34801561050557600080fd5b50610519610514366004613c97565b610ece565b6040516102c49190613d28565b34801561053257600080fd5b506103d6610541366004613b34565b611014565b34801561055257600080fd5b5061034761108a565b34801561056757600080fd5b5061030f610576366004613ac7565b6001600160a01b039182166000908152600f6020908152604080832093835292905220541690565b3480156105aa57600080fd5b506007546001600160a01b031661030f565b3480156105c857600080fd5b506103d66105d7366004613a89565b61109e565b3480156105e857600080fd5b506102e26110b5565b3480156105fd57600080fd5b5060095461030f906001600160a01b031681565b34801561061d57600080fd5b5061034761062c366004613d3b565b6110c4565b34801561063d57600080fd5b5061034761064c366004613db3565b61117f565b34801561065d57600080fd5b5061067161066c366004613bde565b61118e565b6040516102c493929190613dec565b34801561068c57600080fd5b5061034761069b366004613e5e565b6113ed565b3480156106ac57600080fd5b506103476106bb366004613ac7565b61160a565b3480156106cc57600080fd5b506103476106db366004613fde565b611615565b3480156106ec57600080fd5b506103476106fb3660046142df565b611648565b34801561070c57600080fd5b5060065461030f906001600160a01b031681565b34801561072c57600080fd5b5061034761073b366004614418565b61192e565b34801561074c57600080fd5b506102e261075b366004613a89565b6119b2565b34801561076c57600080fd5b506103d661077b366004613ac7565b611c10565b34801561078c57600080fd5b5061034761079b366004613d3b565b611c3c565b3480156107ac57600080fd5b506103d66107bb366004613e5e565b611cef565b3480156107cc57600080fd5b50600b5461030f906001600160a01b031681565b3480156107ec57600080fd5b506103d66107fb3660046144d6565b611d07565b34801561080c57600080fd5b5061067161081b36600461450b565b611d3c565b61034761082e366004614546565b611e1f565b34801561083f57600080fd5b5061034761084e366004613b34565b611ed6565b34801561085f57600080fd5b506102e2611f78565b34801561087457600080fd5b506102b8610883366004614581565b6001600160a01b03918216600090815260046020908152604080832093909416825291909152205460ff1690565b3480156108bd57600080fd5b506103476108cc366004613b34565b611fee565b3480156108dd57600080fd5b506103476108ec3660046145af565b61206c565b60006001600160e01b03198216631e68505960e31b148061091657506109168261224f565b92915050565b60606000805461092b90614649565b80601f016020809104026020016040519081016040528092919081815260200182805461095790614649565b80156109a45780601f10610979576101008083540402835291602001916109a4565b820191906000526020600020905b81548152906001019060200180831161098757829003601f168201915b5050505050905090565b60006109b9826122c5565b506000908152600360205260409020546001600160a01b031690565b60006109e082610e98565b9050806001600160a01b0316836001600160a01b031603610a145760405163133f8be960e01b815260040160405180910390fd5b336001600160a01b03821614801590610a345750610a328133610883565b155b15610a525760405163e5fa0e3560e01b815260040160405180910390fd5b610a5c83836122fa565b505050565b610a6b3382612368565b610a885760405163e5fa0e3560e01b815260040160405180910390fd5b610a5c8383836123e6565b610a9b6124bf565b60095460405163036129cb60e61b81526001600160a01b0383811660048301529091169063d84a72c090602401600060405180830381600087803b158015610ae257600080fd5b505af1158015610af6573d6000803e3d6000fd5b50506040513381526001600160a01b03841692507fe7784d93cfbfa4408e19577e6cc0436f4dbb51214b70e100905dfce9def88c1691506020015b60405180910390a250565b8060005b81811015610b8f576000848483818110610b5c57610b5c61467d565b905060400201803603810190610b729190614693565b9050610b86816000015182602001516113ed565b50600101610b40565b50505050565b34151580610c175750600654600554604051636e49181f60e01b815260048101919091523360248201526001600160a01b0390911690636e49181f90604401602060405180830381865afa158015610bf1573d6000803e3d6000fd5b505050506040513d601f19601f82011682018060405250810190610c1591906146ec565b155b80610c285750600554816020013514155b15610c4657604051633efca5c360e11b815260040160405180910390fd5b6024610c566101c0830183614709565b90501080610c9a575063b3bcbb7960e01b610c756101c0830183614709565b610c849160249160209161474f565b610c8d91614779565b6001600160e01b03191614155b15610cb857604051632a84050f60e01b815260040160405180910390fd5b6000610cc86101c0830183614709565b810190610cd591906147a9565b925050506000815190506000805b82811015610d6557838181518110610cfd57610cfd61467d565b60200260200101519150846000016020810190610d1a9190613b34565b6000838152600260205260409020546001600160a01b03908116911614610d545760405163075fd2b160e01b815260040160405180910390fd5b610d5d82612519565b600101610ce3565b50610b8f8361259a565b610d776124bf565b8060005b81811015610b8f5736848483818110610d9657610d9661467d565b9050602002810190610da89190614857565b9050610dc7610db78280614877565b6105146040850160208601613b34565b5050600101610d7b565b610a5c83838360405180602001604052806000815250611615565b6009546040516308ed6c0160e41b81523060048201526024810183905260009182916001600160a01b0390911690638ed6c01090604401602060405180830381865afa158015610e40573d6000803e3d6000fd5b505050506040513d601f19601f82011682018060405250810190610e6491906148cb565b90506001600160a01b03811615610e7b5792915050565b50506000908152600260205260409020546001600160a01b031690565b6000818152600260205260408120546001600160a01b0316806109165760405163b49aa3b560e01b815260040160405180910390fd5b6060610ed86124bf565b60095460405163eaa19ab360e01b81526001600160a01b039091169063eaa19ab390610f119060001990889088906001906004016148e8565b6000604051808303816000875af1158015610f30573d6000803e3d6000fd5b505050506040513d6000823e601f3d908101601f19168201604052610f5891908101906149ab565b509050826000805b8281101561100a57838181518110610f7a57610f7a61467d565b60200260200101519150610f8e85836125ff565b846001600160a01b0316878783818110610faa57610faa61467d565b9050602002016020810190610fbf91906149f1565b604080516000815233602082015261ffff929092169185917f598baf7bf150ca2f42be9e9f8f55e81d45f5715c3ff22bf46d697fabec7f31d6910160405180910390a4600101610f60565b5050509392505050565b600954604051633de222bb60e21b81523060048201526001600160a01b038381166024830152600092169063f7888aec906044015b602060405180830381865afa158015611066573d6000803e3d6000fd5b505050506040513d601f19601f820116820180604052508101906109169190614a0c565b6110926124bf565b61109c60006126c9565b565b60008181526011602052604081206109169061271b565b60606001805461092b90614649565b6110cc6124bf565b6009546040516331315e5960e11b81526001600160a01b0390911690636262bcb2906110fe9085908590600401614a25565b600060405180830381600087803b15801561111857600080fd5b505af115801561112c573d6000803e3d6000fd5b505050508181604051611140929190614a54565b604051908190038120338252907f7bc9110d5de090dd59e07912d2b93a5a27ac70a60c8d8e324db4f9ee8b8b5c13906020015b60405180910390a25050565b61118a338383612777565b5050565b60006060806080840135156111b6576040516309f82f1b60e31b815260040160405180910390fd5b60246111c66101c0860186614709565b9050108061120a575063b3bcbb7960e01b6111e56101c0860186614709565b6111f49160249160209161474f565b6111fd91614779565b6001600160e01b03191614155b1561122857604051632a84050f60e01b815260040160405180910390fd5b60408051600180825281830190925290816020015b604080518082019091526000808252602082015281526020019060019003908161123d5790505090506040518060400160405280306001600160a01b031681526020016000815250816000815181106112985761129861467d565b602090810291909101015260006112b36101c0860186614709565b8101906112c091906147a9565b9250505060006112d08287612816565b905060006112dd8761288a565b905060006112f08860c0013584846128bb565b90506127108861018001350361135b578061130f6101a08a018a614709565b8782828080601f016020809104026020016040519081016040528093929190818152602001838380828437600092019190915250969d50919b509199506113e698505050505050505050565b6113918161137a856113746101808d0135612710614a7a565b866128bb565b611389906101808c0135614a8d565b6127106128bb565b61139f6101a08a018a614709565b8782828080601f016020809104026020016040519081016040528093929190818152602001838380828437600092019190915250969d50919b509199505050505050505050505b9193909250565b600a546005546040516321d1336160e11b815260048101919091526000916001600160a01b0316906343a266c29060240161012060405180830381865afa15801561143c573d6000803e3d6000fd5b505050506040513d601f19601f820116820180604052508101906114609190614aa0565b61010081015190915060f51c60019081160361148f57604051631d2c125760e31b815260040160405180910390fd5b600954604051635d53f40760e11b815260048101859052602481018490526000916001600160a01b03169063baa7e80e906044016000604051808303816000875af11580156114e2573d6000803e3d6000fd5b505050506040513d6000823e601f3d908101601f1916820160405261150a9190810190614b20565b6009546040516304db994760e21b8152306004820152602481018790529192506000916001600160a01b039091169063136e651c90604401602060405180830381865afa15801561155f573d6000803e3d6000fd5b505050506040513d601f19601f8201168201806040525081019061158391906148cb565b90506000805b85811015611601578381815181106115a3576115a361467d565b602002602001015191506115b783836125ff565b6040513381526001600160a01b03841690889084907f031e1988c95a91ec4d655ff63a8f87a80bc9daf28d95ae10ee08c0022cfb5c8b9060200160405180910390a4600101611589565b50505050505050565b61118a338383612988565b61161f3383612368565b61163c5760405163e5fa0e3560e01b815260040160405180910390fd5b610b8f84848484612a07565b6008546001600160a01b0316300361165f57600080fd5b6009546001600160a01b03161561167557600080fd5b6116818b8b8b8b612a3b565b600a80546001600160a01b03808a166001600160a01b031992831617909255600980548584169083161790556020850151600c556040850151600d556060850151600b8054919093169116179055855115611735576040516331315e5960e11b81526001600160a01b03831690636262bcb290611702908990600401613a76565b600060405180830381600087803b15801561171c57600080fd5b505af1158015611730573d6000803e3d6000fd5b505050505b83511561179b5760405163d67b78fd60e01b81526001600160a01b0383169063d67b78fd90611768908790600401613a76565b600060405180830381600087803b15801561178257600080fd5b505af1158015611796573d6000803e3d6000fd5b505050505b6001600160a01b038516156118065760405163036129cb60e61b81526001600160a01b03868116600483015283169063d84a72c090602401600060405180830381600087803b1580156117ed57600080fd5b505af1158015611801573d6000803e3d6000fd5b505050505b8251511561188457825160405163eadd8b3760e01b81526001600160a01b0384169163eadd8b379161183b9190600401614b54565b6000604051808303816000875af115801561185a573d6000803e3d6000fd5b505050506040513d6000823e601f3d908101601f191682016040526118829190810190614b20565b505b805180611892575080602001515b8061189e575080604001515b15611918576040805163cdb0af6d60e01b815282511515600482015260208301511515602482015290820151151560448201526001600160a01b0383169063cdb0af6d90606401600060405180830381600087803b1580156118ff57600080fd5b505af1158015611913573d6000803e3d6000fd5b505050505b611921336126c9565b5050505050505050505050565b8051604080518082019091526000808252602082015260005b82811015610b8f578381815181106119615761196161467d565b602090810291909101015180519092506001600160a01b0316611997576040516314f4c13d60e21b815260040160405180910390fd5b6119aa3383600001518460200151612988565b600101611947565b6000818152600260205260409020546060906001600160a01b03166119e557505060408051602081019091526000815290565b600954604051630fab094760e01b81523060048201526000916001600160a01b031690630fab094790602401602060405180830381865afa158015611a2e573d6000803e3d6000fd5b505050506040513d601f19601f82011682018060405250810190611a5291906148cb565b90506001600160a01b03811615611ad757604051636d02a25560e11b8152600481018490526001600160a01b0382169063da0544aa90602401600060405180830381865afa158015611aa8573d6000803e3d6000fd5b505050506040513d6000823e601f3d908101601f19168201604052611ad09190810190614c2d565b9392505050565b60095460405163f682eeaf60e01b815230600482015273__$c3160b4fb988d8ee08a6a6b6ca14c57269$__9163030cecc7916001600160a01b039091169063f682eeaf90602401600060405180830381865afa158015611b3b573d6000803e3d6000fd5b505050506040513d6000823e601f3d908101601f19168201604052611b639190810190614c2d565b600954604051630c8df17160e41b8152306004820152602481018890526001600160a01b039091169063c8df171090604401602060405180830381865afa158015611bb2573d6000803e3d6000fd5b505050506040513d601f19601f82011682018060405250810190611bd69190614a0c565b6040518363ffffffff1660e01b8152600401611bf3929190614ca3565b600060405180830381865af4158015611aa8573d6000803e3d6000fd5b6001600160a01b03821660009081526010602090815260408083208484529091528120611ad09061271b565b611c446124bf565b60095460405163d67b78fd60e01b81526001600160a01b039091169063d67b78fd90611c769085908590600401614a25565b600060405180830381600087803b158015611c9057600080fd5b505af1158015611ca4573d6000803e3d6000fd5b505050508181604051611cb8929190614a54565b604051908190038120338252907fd36dc0c1a06103fdcaf15f3f6fb797d1a97997514c78de073640c8b5005454b890602001611173565b6000828152601160205260408120611ad09083612a6e565b6001600160a01b03831660009081526010602090815260408083208584529091528120611d349083612a6e565b949350505050565b610120810135606080611d53610160850185614709565b8080601f01602080910402602001604051908101604052809392919081815260200183838082843760009201919091525092945060019250611d93915050565b604051908082528060200260200182016040528015611dd857816020015b6040805180820190915260008082526020820152815260200190600190039081611db15790505b5090506040518060400160405280306001600160a01b03168152602001600081525081600081518110611e0d57611e0d61467d565b60200260200101819052509193909250565b60055434151580611ea05750600654604051636e49181f60e01b8152600481018390523360248201526001600160a01b0390911690636e49181f90604401602060405180830381865afa158015611e7a573d6000803e3d6000fd5b505050506040513d601f19601f82011682018060405250810190611e9e91906146ec565b155b80611eaf575080826020013514155b15611ecd576040516331c57b1b60e21b815260040160405180910390fd5b61118a82612b7d565b611ede6124bf565b6009546040516317161f7d60e01b81526001600160a01b038381166004830152909116906317161f7d90602401600060405180830381600087803b158015611f2557600080fd5b505af1158015611f39573d6000803e3d6000fd5b50506040513381526001600160a01b03841692507fab0014d4c7a642a02a31b303a318908c22b0fb2001f107278fc6076b4c671b659150602001610b31565b600954604051630155619b60e71b81523060048201526060916001600160a01b03169063aab0cd8090602401600060405180830381865afa158015611fc1573d6000803e3d6000fd5b505050506040513d6000823e601f3d908101601f19168201604052611fe99190810190614c2d565b905090565b611ff66124bf565b6001600160a01b0381166120605760405162461bcd60e51b815260206004820152602660248201527f4f776e61626c653a206e6577206f776e657220697320746865207a65726f206160448201526564647265737360d01b60648201526084015b60405180910390fd5b612069816126c9565b50565b6120746124bf565b82818015612144576009546040516320512ba160e01b81526001600160a01b03909116906320512ba1906120ae9087908790600401614cc5565b600060405180830381600087803b1580156120c857600080fd5b505af11580156120dc573d6000803e3d6000fd5b5050505060005b81811015612142578484828181106120fd576120fd61467d565b60405133815260209182029390930135927f832d89d991be5351d793c20faf4b7dd44f8aa9ce39e3cb160c6317de6fbba72992500160405180910390a26001016120e3565b505b81156122475760095460405163eadd8b3760e01b81526000916001600160a01b03169063eadd8b379061217d908a908a90600401614ddb565b6000604051808303816000875af115801561219c573d6000803e3d6000fd5b505050506040513d6000823e601f3d908101601f191682016040526121c49190810190614b20565b905060005b83811015612244578181815181106121e3576121e361467d565b60200260200101517f85b5b4c4e44e342c8dac3c3a5364494d455043decb9f4bb8e7e0a3020d22fed489898481811061221e5761221e61467d565b9050610140020133604051612234929190614e1e565b60405180910390a26001016121c9565b50505b505050505050565b60006001600160e01b0319821663b3bcbb7960e01b148061228057506001600160e01b031982166371700c6960e01b145b8061229b57506001600160e01b0319821663da9ee8b760e01b145b806122b657506001600160e01b03198216632b13c58f60e01b145b80610916575061091682612e63565b6000818152600260205260409020546001600160a01b03166120695760405163b49aa3b560e01b815260040160405180910390fd5b600081815260036020526040902080546001600160a01b0319166001600160a01b038416908117909155819061232f82610e98565b6001600160a01b03167f8c5be1e5ebec7d5bd14f71427d1e84f3dd0314c0f7b2291e5b200ac8c7c3b92560405160405180910390a45050565b60008061237483610e98565b9050806001600160a01b0316846001600160a01b031614806123bb57506001600160a01b0380821660009081526004602090815260408083209388168352929052205460ff165b80611d345750836001600160a01b03166123d4846109ae565b6001600160a01b031614949350505050565b826001600160a01b03166123f982610e98565b6001600160a01b0316146124205760405163a195bc5360e01b815260040160405180910390fd5b6001600160a01b03821661244757604051632c95542760e01b815260040160405180910390fd5b612452838383612eb3565b61245d6000826122fa565b60008181526002602052604080822080546001600160a01b0319166001600160a01b0386811691821790925591518493918716917fddf252ad1be2c89b69c2b068fc378daa952ba7f163c4a11628f55a4df523b3ef91a4610a5c8383836130e0565b6007546001600160a01b0316331461109c5760405162461bcd60e51b815260206004820181905260248201527f4f776e61626c653a2063616c6c6572206973206e6f7420746865206f776e65726044820152606401612057565b600061252482610e98565b905061253281600084612eb3565b61253d6000836122fa565b60008281526002602052604080822080546001600160a01b0319169055518391906001600160a01b038416907fddf252ad1be2c89b69c2b068fc378daa952ba7f163c4a11628f55a4df523b3ef908390a461118a816000846130e0565b6009546040516386bc2be360e01b81526001600160a01b03909116906386bc2be3906125ca908490600401613d28565b600060405180830381600087803b1580156125e457600080fd5b505af11580156125f8573d6000803e3d6000fd5b5050505050565b6001600160a01b03821661262657604051633904578f60e11b815260040160405180910390fd5b6000818152600260205260409020546001600160a01b03161561265c57604051632eb5f0c360e21b815260040160405180910390fd5b61266860008383612eb3565b60008181526002602052604080822080546001600160a01b0319166001600160a01b03861690811790915590518392907fddf252ad1be2c89b69c2b068fc378daa952ba7f163c4a11628f55a4df523b3ef908290a461118a600083836130e0565b600780546001600160a01b038381166001600160a01b0319831681179093556040519116919082907f8be0079c531659141344cd1fd0a4f28419497f9722a3daafe3b4186f6b6457e090600090a35050565b805460009080156127645782612732600183614a7a565b815481106127425761274261467d565b60009182526020909120015464010000000090046001600160e01b0316612767565b60005b6001600160e01b03169392505050565b816001600160a01b0316836001600160a01b0316036127a9576040516306f8139d60e11b815260040160405180910390fd5b6001600160a01b03838116600081815260046020908152604080832094871680845294825291829020805460ff191686151590811790915591519182527f17307eab39ab6107e8899845ad3d59bd9653f200f220920489ca2b5937696c31910160405180910390a3505050565b60095460405163051330b560e21b81526000916001600160a01b03169063144cc2d4906128499030908790600401614e46565b602060405180830381865afa158015612866573d6000803e3d6000fd5b505050506040513d601f19601f82011682018060405250810190611ad09190614a0c565b600954604051631572f24960e11b81523060048201526000916001600160a01b031690632ae5e49290602401611049565b60008080600019858709858702925082811083820303915050806000036128f5578382816128eb576128eb614e6a565b0492505050611ad0565b83811061291f57604051631dcf306360e21b81526004810182905260248101859052604401612057565b60008486880960026001871981018816978890046003810283188082028403028082028403028082028403028082028403028082028403029081029092039091026000889003889004909101858311909403939093029303949094049190911702949350505050565b6001600160a01b038381166000818152600f6020908152604080832086845290915280822080548786166001600160a01b0319821681179092559151919094169392849290917f3134e8a2e6d97e929a7e54011ea5485d7d196dd5f0ba4d4ef95803e8e3fc257f9190a4610b8f818484612a0288876131d9565b613219565b612a128484846123e6565b612a1e8484848461336e565b610b8f576040516336f57c1b60e11b815260040160405180910390fd5b612a458282613470565b5050600591909155600680546001600160a01b0319166001600160a01b03909216919091179055565b6000438210612abf5760405162461bcd60e51b815260206004820181905260248201527f436865636b706f696e74733a20626c6f636b206e6f7420796574206d696e65646044820152606401612057565b825460005b81811015612b24576000612ad88284613489565b905084866000018281548110612af057612af061467d565b60009182526020909120015463ffffffff161115612b1057809250612b1e565b612b1b816001614a8d565b91505b50612ac4565b8115612b685784612b36600184614a7a565b81548110612b4657612b4661467d565b60009182526020909120015464010000000090046001600160e01b0316612b6b565b60005b6001600160e01b031695945050505050565b600c5460009060c083013503612b9857506080810135612c4e565b600b546001600160a01b03161561118a57600d54612c4b90608084013590612bc190600a614f64565b600b54600c54604051635268657960e11b815260c08801356004820152602481019190915260a087013560448201526001600160a01b039091169063a4d0caf290606401602060405180830381865afa158015612c22573d6000803e3d6000fd5b505050506040513d601f19601f82011682018060405250810190612c469190614a0c565b6128bb565b90505b6000600e81612c656101a086016101808701613b34565b6001600160a01b0316815260208101919091526040016000908120549150612c8d8284614a8d565b90506000806044612ca26101e0880188614709565b9050118015612ce6575063b3bcbb7960e01b612cc26101e0880188614709565b612cd19160449160409161474f565b612cda91614779565b6001600160e01b031916145b15612d835760006060612cfd6101e0890189614709565b810190612d0a9190614f70565b919950975090955093505083159150612d5a90505784600e6000612d366101a08c016101808d01613b34565b6001600160a01b031681526020810191909152604001600020555050505050505050565b805115612d8057612d7d8582612d786101a08c016101808d01613b34565b6134a4565b94505b50505b8215612e2457612da583612d9f6101a089016101808a01613b34565b846135e6565b92508215612e02578015612dcc57604051631b57826960e21b815260040160405180910390fd5b82600e6000612de36101a08a016101808b01613b34565b6001600160a01b03168152602081019190915260400160002055612247565b8315612e1f576000600e81612de36101a08a016101808b01613b34565b612247565b8315612247576000600e81612e416101a08a016101808b01613b34565b6001600160a01b03168152602081019190915260400160002055505050505050565b60006001600160e01b031982166380ac58cd60e01b1480612e9457506001600160e01b03198216635b5e139f60e01b145b8061091657506301ffc9a760e01b6001600160e01b0319831614610916565b6001600160a01b03831615610a5c5760095460405163b67cb04760e01b8152306004820152602481018390526000916001600160a01b03169063b67cb0479060440161016060405180830381865afa158015612f13573d6000803e3d6000fd5b505050506040513d601f19601f82011682018060405250810190612f379190615067565b905080610140015115612ffc57600a546005546040516321d1336160e11b815260048101919091526000916001600160a01b0316906343a266c29060240161012060405180830381865afa158015612f93573d6000803e3d6000fd5b505050506040513d601f19601f82011682018060405250810190612fb79190614aa0565b90506001600160a01b03841615801590612fdc575061010081015160f41c6001908116145b15612ffa576040516318cdaf9760e01b815260040160405180910390fd5b505b6009546040516308ed6c0160e41b8152306004820152602481018490526000916001600160a01b031690638ed6c01090604401602060405180830381865afa15801561304c573d6000803e3d6000fd5b505050506040513d601f19601f8201168201806040525081019061307091906148cb565b6001600160a01b031603610b8f57600954604051638cec7d3960e01b8152600481018490526001600160a01b03868116602483015290911690638cec7d3990604401600060405180830381600087803b1580156130cc57600080fd5b505af1158015612244573d6000803e3d6000fd5b60095460405163b67cb04760e01b8152306004820152602481018390526000916001600160a01b03169063b67cb0479060440161016060405180830381865afa158015613131573d6000803e3d6000fd5b505050506040513d601f19601f820116820180604052508101906131559190615067565b60095481516040516330b157e560e21b815260048101919091526001600160a01b038781166024830152868116604483015292935091169063c2c55f9490606401600060405180830381600087803b1580156131b057600080fd5b505af11580156131c4573d6000803e3d6000fd5b505050506131d4848484846136f0565b610b8f565b6009546040516305c9a1d560e31b81523060048201526001600160a01b038481166024830152604482018490526000921690632e4d0ea890606401612849565b826001600160a01b0316846001600160a01b03161480613237575080155b610b8f576001600160a01b038416156132d2576001600160a01b03841660009081526010602090815260408083208584529091528120819061327c9061370e8561371a565b60408051838152602081018390523381830152905192945090925085916001600160a01b038916917fed0c1e94c302bdbbd8bbd6a4fb7c3ed335c2292407cd816eadd075d019d0ce04919081900360600190a350505b6001600160a01b03831615610b8f576001600160a01b038316600090815260106020908152604080832085845290915281208190613313906137488561371a565b60408051838152602081018390523381830152905192945090925085916001600160a01b038816917fed0c1e94c302bdbbd8bbd6a4fb7c3ed335c2292407cd816eadd075d019d0ce04919081900360600190a3505050505050565b60006001600160a01b0384163b1561346557604051630a85bd0160e11b81526001600160a01b0385169063150b7a02906133b2903390899088908890600401615109565b6020604051808303816000875af19250505080156133ed575060408051601f3d908101601f191682019092526133ea91810190615146565b60015b61344b573d80801561341b576040519150601f19603f3d011682016040523d82523d6000602084013e613420565b606091505b508051600003613443576040516336f57c1b60e11b815260040160405180910390fd5b805181602001fd5b6001600160e01b031916630a85bd0160e11b149050611d34565b506001949350505050565b600061347c83826151a9565b506001610a5c82826151a9565b60006134986002848418615268565b611ad090848416614a8d565b60095460405163eaa19ab360e01b81526000916060916001600160a01b039091169063eaa19ab3906134de9088908890879060040161528a565b6000604051808303816000875af11580156134fd573d6000803e3d6000fd5b505050506040513d6000823e601f3d908101601f1916820160405261352591908101906149ab565b81519093509091506000805b828110156135db5783818151811061354b5761354b61467d565b6020026020010151915061355f86836125ff565b856001600160a01b031687828151811061357b5761357b61467d565b602002602001015161ffff16837f598baf7bf150ca2f42be9e9f8f55e81d45f5715c3ff22bf46d697fabec7f31d68b336040516135cb9291909182526001600160a01b0316602082015260400190565b60405180910390a4600101613531565b505050509392505050565b60095460405163879791f360e01b815260048101859052600091829182916001600160a01b03169063879791f3906024016060604051808303816000875af1158015613636573d6000803e3d6000fd5b505050506040513d601f19601f8201168201806040525081019061365a91906152e7565b94509092509050600082900361369057831561368957604051630e5313df60e41b815260040160405180910390fd5b5050611ad0565b61369a85836125ff565b6001600160a01b03851681837f598baf7bf150ca2f42be9e9f8f55e81d45f5715c3ff22bf46d697fabec7f31d66136d1878b614a7a565b604080519182523360208301520160405180910390a450509392505050565b60a081015115610b8f57610b8f848483600001518460a00151613754565b6000611ad08284614a7a565b60008061373c8561373761372d8861271b565b868863ffffffff16565b6137f6565b91509150935093915050565b6000611ad08284614a8d565b6001600160a01b03841661378057600082815260116020526040902061377d906137488361371a565b50505b6001600160a01b0383166137ac5760008281526011602052604090206137a99061370e8361371a565b50505b6001600160a01b038085166000908152600f60208181526040808420878552825280842054888616855292825280842087855290915290912054610b8f9291821691168484613219565b81546000908190816138078661271b565b905060008211801561384557504386613821600185614a7a565b815481106138315761383161467d565b60009182526020909120015463ffffffff16145b156138a55761385385613921565b8661385f600185614a7a565b8154811061386f5761386f61467d565b9060005260206000200160000160046101000a8154816001600160e01b0302191690836001600160e01b03160217905550613913565b8560000160405180604001604052806138bd4361398e565b63ffffffff1681526020016138d188613921565b6001600160e01b0390811690915282546001810184556000938452602093849020835194909301519091166401000000000263ffffffff909316929092179101555b9250839150505b9250929050565b60006001600160e01b0382111561398a5760405162461bcd60e51b815260206004820152602760248201527f53616665436173743a2076616c756520646f65736e27742066697420696e20326044820152663234206269747360c81b6064820152608401612057565b5090565b600063ffffffff82111561398a5760405162461bcd60e51b815260206004820152602660248201527f53616665436173743a2076616c756520646f65736e27742066697420696e203360448201526532206269747360d01b6064820152608401612057565b6001600160e01b03198116811461206957600080fd5b600060208284031215613a1b57600080fd5b8135611ad0816139f3565b60005b83811015613a41578181015183820152602001613a29565b50506000910152565b60008151808452613a62816020860160208601613a26565b601f01601f19169290920160200192915050565b602081526000611ad06020830184613a4a565b600060208284031215613a9b57600080fd5b5035919050565b6001600160a01b038116811461206957600080fd5b8035613ac281613aa2565b919050565b60008060408385031215613ada57600080fd5b8235613ae581613aa2565b946020939093013593505050565b600080600060608486031215613b0857600080fd5b8335613b1381613aa2565b92506020840135613b2381613aa2565b929592945050506040919091013590565b600060208284031215613b4657600080fd5b8135611ad081613aa2565b60008060208385031215613b6457600080fd5b82356001600160401b0380821115613b7b57600080fd5b818501915085601f830112613b8f57600080fd5b813581811115613b9e57600080fd5b8660208260061b8501011115613bb357600080fd5b60209290920196919550909350505050565b60006101e08284031215613bd857600080fd5b50919050565b600060208284031215613bf057600080fd5b81356001600160401b03811115613c0657600080fd5b611d3484828501613bc5565b60008083601f840112613c2457600080fd5b5081356001600160401b03811115613c3b57600080fd5b6020830191508360208260051b850101111561391a57600080fd5b60008060208385031215613c6957600080fd5b82356001600160401b03811115613c7f57600080fd5b613c8b85828601613c12565b90969095509350505050565b600080600060408486031215613cac57600080fd5b83356001600160401b03811115613cc257600080fd5b613cce86828701613c12565b9094509250506020840135613ce281613aa2565b809150509250925092565b600081518084526020808501945080840160005b83811015613d1d57815187529582019590820190600101613d01565b509495945050505050565b602081526000611ad06020830184613ced565b60008060208385031215613d4e57600080fd5b82356001600160401b0380821115613d6557600080fd5b818501915085601f830112613d7957600080fd5b813581811115613d8857600080fd5b866020828501011115613bb357600080fd5b801515811461206957600080fd5b8035613ac281613d9a565b60008060408385031215613dc657600080fd5b8235613dd181613aa2565b91506020830135613de181613d9a565b809150509250929050565b83815260006020606081840152613e066060840186613a4a565b83810360408581019190915285518083528387019284019060005b81811015613e4f57845180516001600160a01b03168452860151868401529385019391830191600101613e21565b50909998505050505050505050565b60008060408385031215613e7157600080fd5b50508035926020909101359150565b634e487b7160e01b600052604160045260246000fd5b604051608081016001600160401b0381118282101715613eb857613eb8613e80565b60405290565b60405161014081016001600160401b0381118282101715613eb857613eb8613e80565b604080519081016001600160401b0381118282101715613eb857613eb8613e80565b60405161012081016001600160401b0381118282101715613eb857613eb8613e80565b60405161016081016001600160401b0381118282101715613eb857613eb8613e80565b604051601f8201601f191681016001600160401b0381118282101715613f7157613f71613e80565b604052919050565b60006001600160401b03821115613f9257613f92613e80565b50601f01601f191660200190565b6000613fb3613fae84613f79565b613f49565b9050828152838383011115613fc757600080fd5b828260208301376000602084830101529392505050565b60008060008060808587031215613ff457600080fd5b8435613fff81613aa2565b9350602085013561400f81613aa2565b92506040850135915060608501356001600160401b0381111561403157600080fd5b8501601f8101871361404257600080fd5b61405187823560208401613fa0565b91505092959194509250565b600082601f83011261406e57600080fd5b611ad083833560208501613fa0565b60006001600160401b0382111561409657614096613e80565b5060051b60200190565b803569ffffffffffffffffffff81168114613ac257600080fd5b803565ffffffffffff81168114613ac257600080fd5b803564ffffffffff81168114613ac257600080fd5b803561ffff81168114613ac257600080fd5b6000608080838503121561410a57600080fd5b614112613e96565b915082356001600160401b0381111561412a57600080fd5b8301601f8101851361413b57600080fd5b8035602061414b613fae8361407d565b828152610140928302840182019282820191908985111561416b57600080fd5b948301945b8486101561423a5780868b0312156141885760008081fd5b614190613ebe565b614199876140a0565b81526141a68588016140ba565b8582015260406141b78189016140d0565b9082015260606141c88882016140e5565b908201526141d78789016140e5565b8882015260a06141e8818901613ab7565b9082015260c0878101359082015260e0614203818901613da8565b90820152610100614215888201613da8565b90820152610120614227888201613da8565b9082015283529485019491830191614170565b5086525085810135908501525050506040808301359082015261425f60608301613ab7565b606082015292915050565b60006060828403121561427c57600080fd5b604051606081018181106001600160401b038211171561429e5761429e613e80565b60405290508082356142af81613d9a565b815260208301356142bf81613d9a565b602082015260408301356142d281613d9a565b6040919091015292915050565b60008060008060008060008060008060006101a08c8e03121561430157600080fd5b8b359a5061431160208d01613ab7565b99506001600160401b038060408e0135111561432c57600080fd5b61433c8e60408f01358f0161405d565b99508060608e0135111561434f57600080fd5b61435f8e60608f01358f0161405d565b985061436d60808e01613ab7565b97508060a08e0135111561438057600080fd5b6143908e60a08f01358f0161405d565b965061439e60c08e01613ab7565b95508060e08e013511156143b157600080fd5b6143c18e60e08f01358f0161405d565b9450806101008e013511156143d557600080fd5b506143e78d6101008e01358e016140f7565b92506143f66101208d01613ab7565b91506144068d6101408e0161426a565b90509295989b509295989b9093969950565b6000602080838503121561442b57600080fd5b82356001600160401b0381111561444157600080fd5b8301601f8101851361445257600080fd5b8035614460613fae8261407d565b81815260069190911b8201830190838101908783111561447f57600080fd5b928401925b828410156144cb576040848903121561449d5760008081fd5b6144a5613ee1565b84356144b081613aa2565b81528486013586820152825260409093019290840190614484565b979650505050505050565b6000806000606084860312156144eb57600080fd5b83356144f681613aa2565b95602085013595506040909401359392505050565b60006020828403121561451d57600080fd5b81356001600160401b0381111561453357600080fd5b82016101a08185031215611ad057600080fd5b60006020828403121561455857600080fd5b81356001600160401b0381111561456e57600080fd5b82016102008185031215611ad057600080fd5b6000806040838503121561459457600080fd5b823561459f81613aa2565b91506020830135613de181613aa2565b600080600080604085870312156145c557600080fd5b84356001600160401b03808211156145dc57600080fd5b818701915087601f8301126145f057600080fd5b8135818111156145ff57600080fd5b8860206101408302850101111561461557600080fd5b60209283019650945090860135908082111561463057600080fd5b5061463d87828801613c12565b95989497509550505050565b600181811c9082168061465d57607f821691505b602082108103613bd857634e487b7160e01b600052602260045260246000fd5b634e487b7160e01b600052603260045260246000fd5b6000604082840312156146a557600080fd5b604051604081018181106001600160401b03821117156146c7576146c7613e80565b604052823581526020928301359281019290925250919050565b8051613ac281613d9a565b6000602082840312156146fe57600080fd5b8151611ad081613d9a565b6000808335601e1984360301811261472057600080fd5b8301803591506001600160401b0382111561473a57600080fd5b60200191503681900382131561391a57600080fd5b6000808585111561475f57600080fd5b8386111561476c57600080fd5b5050820193919092039150565b6001600160e01b031981358181169160048510156147a15780818660040360031b1b83161692505b505092915050565b6000806000606084860312156147be57600080fd5b833592506020808501356147d1816139f3565b925060408501356001600160401b038111156147ec57600080fd5b8501601f810187136147fd57600080fd5b803561480b613fae8261407d565b81815260059190911b8201830190838101908983111561482a57600080fd5b928401925b828410156148485783358252928401929084019061482f565b80955050505050509250925092565b60008235603e1983360301811261486d57600080fd5b9190910192915050565b6000808335601e1984360301811261488e57600080fd5b8301803591506001600160401b038211156148a857600080fd5b6020019150600581901b360382131561391a57600080fd5b8051613ac281613aa2565b6000602082840312156148dd57600080fd5b8151611ad081613aa2565b84815260606020808301829052908201849052600090859060808401835b8781101561492d5761ffff61491a856140e5565b1682529282019290820190600101614906565b50809350505050821515604083015295945050505050565b600082601f83011261495657600080fd5b81516020614966613fae8361407d565b82815260059290921b8401810191818101908684111561498557600080fd5b8286015b848110156149a05780518352918301918301614989565b509695505050505050565b600080604083850312156149be57600080fd5b82516001600160401b038111156149d457600080fd5b6149e085828601614945565b925050602083015190509250929050565b600060208284031215614a0357600080fd5b611ad0826140e5565b600060208284031215614a1e57600080fd5b5051919050565b60208152816020820152818360408301376000818301604090810191909152601f909201601f19160101919050565b8183823760009101908152919050565b634e487b7160e01b600052601160045260246000fd5b8181038181111561091657610916614a64565b8082018082111561091657610916614a64565b60006101208284031215614ab357600080fd5b614abb613f03565b825181526020830151602082015260408301516040820152606083015160608201526080830151608082015260a083015160a082015260c083015160c0820152614b0760e084016148c0565b60e0820152610100928301519281019290925250919050565b600060208284031215614b3257600080fd5b81516001600160401b03811115614b4857600080fd5b611d3484828501614945565b602080825282518282018190526000919060409081850190868401855b82811015614c20578151805169ffffffffffffffffffff1685528681015165ffffffffffff16878601528581015164ffffffffff168686015260608082015161ffff908116918701919091526080808301519091169086015260a0808201516001600160a01b03169086015260c0808201519086015260e08082015115159086015261010080820151151590860152610120908101511515908501526101409093019290850190600101614b71565b5091979650505050505050565b600060208284031215614c3f57600080fd5b81516001600160401b03811115614c5557600080fd5b8201601f81018413614c6657600080fd5b8051614c74613fae82613f79565b818152856020838501011115614c8957600080fd5b614c9a826020830160208601613a26565b95945050505050565b604081526000614cb66040830185613a4a565b90508260208301529392505050565b6020808252810182905260006001600160fb1b03831115614ce557600080fd5b8260051b80856040850137919091016040019392505050565b614d1b82614d0b836140a0565b69ffffffffffffffffffff169052565b614d27602082016140ba565b65ffffffffffff166020830152614d40604082016140d0565b64ffffffffff166040830152614d58606082016140e5565b61ffff166060830152614d6d608082016140e5565b61ffff166080830152614d8260a08201613ab7565b6001600160a01b031660a083015260c08181013590830152614da660e08201613da8565b151560e0830152610100614dbb828201613da8565b151590830152610120614dcf828201613da8565b80151584830152610b8f565b6020808252810182905260008360408301825b85811015614e1457614e008284614cfe565b610140928301929190910190600101614dee565b5095945050505050565b6101608101614e2d8285614cfe565b6001600160a01b03929092166101409190910152919050565b6001600160a01b0383168152604060208201819052600090611d3490830184613ced565b634e487b7160e01b600052601260045260246000fd5b600181815b80851115614ebb578160001904821115614ea157614ea1614a64565b80851615614eae57918102915b93841c9390800290614e85565b509250929050565b600082614ed257506001610916565b81614edf57506000610916565b8160018114614ef55760028114614eff57614f1b565b6001915050610916565b60ff841115614f1057614f10614a64565b50506001821b610916565b5060208310610133831016604e8410600b8410161715614f3e575081810a610916565b614f488383614e80565b8060001904821115614f5c57614f5c614a64565b029392505050565b6000611ad08383614ec3565b600080600080600080600060e0888a031215614f8b57600080fd5b8735965060208089013596506040890135614fa5816139f3565b95506060890135614fb581613d9a565b94506080890135614fc581613d9a565b935060a0890135614fd581613d9a565b925060c08901356001600160401b03811115614ff057600080fd5b8901601f81018b1361500157600080fd5b803561500f613fae8261407d565b81815260059190911b8201830190838101908d83111561502e57600080fd5b928401925b8284101561505357615044846140e5565b82529284019290840190615033565b809550505050505092959891949750929550565b6000610160828403121561507a57600080fd5b615082613f26565b825181526020830151602082015260408301516040820152606083015160608201526080830151608082015260a083015160a082015260c083015160c08201526150ce60e084016148c0565b60e082015261010083810151908201526101206150ec8185016146e1565b908201526101406150fe8482016146e1565b908201529392505050565b6001600160a01b038581168252841660208201526040810183905260806060820181905260009061513c90830184613a4a565b9695505050505050565b60006020828403121561515857600080fd5b8151611ad0816139f3565b601f821115610a5c57600081815260208120601f850160051c8101602086101561518a5750805b601f850160051c820191505b8181101561224757828155600101615196565b81516001600160401b038111156151c2576151c2613e80565b6151d6816151d08454614649565b84615163565b602080601f83116001811461520b57600084156151f35750858301515b600019600386901b1c1916600185901b178555612247565b600085815260208120601f198616915b8281101561523a5788860151825594840194600190910190840161521b565b50858210156152585787850151600019600388901b60f8161c191681555b5050505050600190811b01905550565b60008261528557634e487b7160e01b600052601260045260246000fd5b500490565b6000606082018583526020606081850152818651808452608086019150828801935060005b818110156152cf57845161ffff16835293830193918301916001016152af565b50508093505050508215156040830152949350505050565b6000806000606084860312156152fc57600080fd5b835192506020840151915060408401519050925092509256fea2646970667358221220b2e047687bcc38ebb0f9d85b312311c08a5fc967b159a3de9092e8bf468b3ec364736f6c63430008100033",
    "linkReferences": {
      "node_modules/@jbx-protocol/juice-721-delegate/contracts/libraries/JBIpfsDecoder.sol": {
        "JBIpfsDecoder": [
          {
            "start": 7046,
            "length": 20
          }
        ]
      }
    }
  },
  "methodIdentifiers": {
    "adjustTiers((uint80,uint48,uint40,uint16,uint16,address,bytes32,bool,bool,bool)[],uint256[])": "f5a38e63",
    "approve(address,uint256)": "095ea7b3",
    "balanceOf(address)": "70a08231",
    "codeOrigin()": "1d153ca4",
    "contractURI()": "e8a3d485",
    "creditsOf(address)": "245a45b5",
    "didPay((address,uint256,uint256,(address,uint256,uint256,uint256),(address,uint256,uint256,uint256),uint256,address,bool,string,bytes))": "da9ee8b7",
    "didRedeem((address,uint256,uint256,uint256,(address,uint256,uint256,uint256),(address,uint256,uint256,uint256),address,string,bytes))": "2b13c58f",
    "directory()": "c41c2f24",
    "firstOwnerOf(uint256)": "54c6d1f5",
    "fundingCycleStore()": "557e7155",
    "getApproved(uint256)": "081812fc",
    "getPastTierTotalVotes(uint256,uint256)": "d31cc52c",
    "getPastTierVotes(address,uint256,uint256)": "d40e7146",
    "getTierDelegate(address,uint256)": "82732b6d",
    "getTierTotalVotes(uint256)": "94c5c5ca",
    "getTierVotes(address,uint256)": "ca323efe",
    "initialize(uint256,address,string,string,address,string,address,string,((uint80,uint48,uint40,uint16,uint16,address,bytes32,bool,bool,bool)[],uint256,uint256,address),address,(bool,bool,bool))": "bb52b6e4",
    "isApprovedForAll(address,address)": "e985e9c5",
    "mintFor((uint16[],address)[])": "36c1a93b",
    "mintFor(uint16[],address)": "6ac6d941",
    "mintReservesFor((uint256,uint256)[])": "2a596e53",
    "mintReservesFor(uint256,uint256)": "aa4fb15b",
    "name()": "06fdde03",
    "owner()": "8da5cb5b",
    "ownerOf(uint256)": "6352211e",
    "payParams((address,address,(address,uint256,uint256,uint256),uint256,uint256,address,uint256,uint256,string,bytes))": "d46cf171",
    "prices()": "d3419bf3",
    "pricingCurrency()": "64640c1e",
    "pricingDecimals()": "4ecba625",
    "projectId()": "3fafa127",
    "redeemParams((address,address,uint256,uint256,uint256,uint256,uint256,(address,uint256,uint256,uint256),bool,uint256,string,bytes))": "a51cfd18",
    "renounceOwnership()": "715018a6",
    "safeTransferFrom(address,address,uint256)": "42842e0e",
    "safeTransferFrom(address,address,uint256,bytes)": "b88d4fde",
    "setApprovalForAll(address,bool)": "a22cb465",
    "setBaseUri(string)": "a0bcfc7f",
    "setContractUri(string)": "ccb4807b",
    "setDefaultReservedTokenBeneficiary(address)": "df487e26",
    "setTierDelegate(address,uint256)": "ab951e39",
    "setTierDelegates((address,uint256)[])": "c74b13d9",
    "setTokenUriResolver(address)": "2407497e",
    "store()": "975057e7",
    "supportsInterface(bytes4)": "01ffc9a7",
    "symbol()": "95d89b41",
    "tokenURI(uint256)": "c87b56dd",
    "transferFrom(address,address,uint256)": "23b872dd",
    "transferOwnership(address)": "f2fde38b"
  },
  "id": 28
}