{
  "abi": [
    {
      "inputs": [
        {
          "internalType": "address",
          "name": "_defifaCodeOrigin",
          "type": "address"
        },
        {
          "internalType": "contract IJBController",
          "name": "_controller",
          "type": "address"
        },
        {
          "internalType": "address",
          "name": "_token",
          "type": "address"
        },
        {
          "internalType": "address",
          "name": "_protocolFeeProjectTokenAccount",
          "type": "address"
        }
      ],
      "stateMutability": "nonpayable",
      "type": "constructor"
    },
    {
      "inputs": [],
      "name": "GAME_OVER",
      "type": "error"
    },
    {
      "inputs": [],
      "name": "INVALID_GAME_CONFIGURATION",
      "type": "error"
    },
    {
      "inputs": [],
      "name": "PHASE_ALREADY_QUEUED",
      "type": "error"
    },
    {
      "inputs": [],
      "name": "UNEXPECTED_TERMINAL_CURRENCY",
      "type": "error"
    },
    {
      "inputs": [],
      "name": "SPLIT_DOMAIN",
      "outputs": [
        {
          "internalType": "uint256",
          "name": "",
          "type": "uint256"
        }
      ],
      "stateMutability": "view",
      "type": "function"
    },
    {
      "inputs": [],
      "name": "SPLIT_PROJECT_ID",
      "outputs": [
        {
          "internalType": "uint256",
          "name": "",
          "type": "uint256"
        }
      ],
      "stateMutability": "view",
      "type": "function"
    },
    {
      "inputs": [],
      "name": "claimProtocolProjectToken",
      "outputs": [],
      "stateMutability": "nonpayable",
      "type": "function"
    },
    {
      "inputs": [],
      "name": "controller",
      "outputs": [
        {
          "internalType": "contract IJBController",
          "name": "",
          "type": "address"
        }
      ],
      "stateMutability": "view",
      "type": "function"
    },
    {
      "inputs": [
        {
          "internalType": "uint256",
          "name": "_gameId",
          "type": "uint256"
        }
      ],
      "name": "currentGamePhaseOf",
      "outputs": [
        {
          "internalType": "uint256",
          "name": "",
          "type": "uint256"
        }
      ],
      "stateMutability": "view",
      "type": "function"
    },
    {
      "inputs": [],
      "name": "defifaCodeOrigin",
      "outputs": [
        {
          "internalType": "address",
          "name": "",
          "type": "address"
        }
      ],
      "stateMutability": "view",
      "type": "function"
    },
    {
      "inputs": [
        {
          "internalType": "uint256",
          "name": "_gameId",
          "type": "uint256"
        }
      ],
      "name": "distributionLimit",
      "outputs": [
        {
          "internalType": "uint256",
          "name": "",
          "type": "uint256"
        }
      ],
      "stateMutability": "view",
      "type": "function"
    },
    {
      "inputs": [
        {
          "internalType": "uint256",
          "name": "_gameId",
          "type": "uint256"
        }
      ],
      "name": "endOf",
      "outputs": [
        {
          "internalType": "uint256",
          "name": "",
          "type": "uint256"
        }
      ],
      "stateMutability": "view",
      "type": "function"
    },
    {
      "inputs": [
        {
          "internalType": "uint256",
          "name": "_gameId",
          "type": "uint256"
        }
      ],
      "name": "holdFeesDuring",
      "outputs": [
        {
          "internalType": "bool",
          "name": "",
          "type": "bool"
        }
      ],
      "stateMutability": "view",
      "type": "function"
    },
    {
      "inputs": [
        {
          "components": [
            {
              "internalType": "string",
              "name": "name",
              "type": "string"
            },
            {
              "internalType": "string",
              "name": "symbol",
              "type": "string"
            },
            {
              "internalType": "string",
              "name": "baseUri",
              "type": "string"
            },
            {
              "internalType": "string",
              "name": "contractUri",
              "type": "string"
            },
            {
              "components": [
                {
                  "internalType": "uint80",
                  "name": "contributionFloor",
                  "type": "uint80"
                },
                {
                  "internalType": "uint48",
                  "name": "lockedUntil",
                  "type": "uint48"
                },
                {
                  "internalType": "uint40",
                  "name": "initialQuantity",
                  "type": "uint40"
                },
                {
                  "internalType": "uint16",
                  "name": "votingUnits",
                  "type": "uint16"
                },
                {
                  "internalType": "uint16",
                  "name": "reservedRate",
                  "type": "uint16"
                },
                {
                  "internalType": "address",
                  "name": "reservedTokenBeneficiary",
                  "type": "address"
                },
                {
                  "internalType": "bytes32",
                  "name": "encodedIPFSUri",
                  "type": "bytes32"
                },
                {
                  "internalType": "bool",
                  "name": "allowManualMint",
                  "type": "bool"
                },
                {
                  "internalType": "bool",
                  "name": "shouldUseBeneficiaryAsDefault",
                  "type": "bool"
                },
                {
                  "internalType": "bool",
                  "name": "transfersPausable",
                  "type": "bool"
                }
              ],
              "internalType": "struct JB721TierParams[]",
              "name": "tiers",
              "type": "tuple[]"
            },
            {
              "internalType": "contract IJBTiered721DelegateStore",
              "name": "store",
              "type": "address"
            },
            {
              "internalType": "address",
              "name": "owner",
              "type": "address"
            }
          ],
          "internalType": "struct DefifaDelegateData",
          "name": "_delegateData",
          "type": "tuple"
        },
        {
          "components": [
            {
              "components": [
                {
                  "internalType": "string",
                  "name": "content",
                  "type": "string"
                },
                {
                  "internalType": "uint256",
                  "name": "domain",
                  "type": "uint256"
                }
              ],
              "internalType": "struct JBProjectMetadata",
              "name": "projectMetadata",
              "type": "tuple"
            },
            {
              "internalType": "uint48",
              "name": "mintDuration",
              "type": "uint48"
            },
            {
              "internalType": "uint48",
              "name": "start",
              "type": "uint48"
            },
            {
              "internalType": "uint48",
              "name": "tradeDeadline",
              "type": "uint48"
            },
            {
              "internalType": "uint48",
              "name": "end",
              "type": "uint48"
            },
            {
              "internalType": "bool",
              "name": "holdFees",
              "type": "bool"
            },
            {
              "components": [
                {
                  "internalType": "bool",
                  "name": "preferClaimed",
                  "type": "bool"
                },
                {
                  "internalType": "bool",
                  "name": "preferAddToBalance",
                  "type": "bool"
                },
                {
                  "internalType": "uint256",
                  "name": "percent",
                  "type": "uint256"
                },
                {
                  "internalType": "uint256",
                  "name": "projectId",
                  "type": "uint256"
                },
                {
                  "internalType": "address payable",
                  "name": "beneficiary",
                  "type": "address"
                },
                {
                  "internalType": "uint256",
                  "name": "lockedUntil",
                  "type": "uint256"
                },
                {
                  "internalType": "contract IJBSplitAllocator",
                  "name": "allocator",
                  "type": "address"
                }
              ],
              "internalType": "struct JBSplit[]",
              "name": "splits",
              "type": "tuple[]"
            },
            {
              "internalType": "uint88",
              "name": "distributionLimit",
              "type": "uint88"
            },
            {
              "internalType": "contract IJBPaymentTerminal",
              "name": "terminal",
              "type": "address"
            }
          ],
          "internalType": "struct DefifaLaunchProjectData",
          "name": "_launchProjectData",
          "type": "tuple"
        }
      ],
      "name": "launchGameWith",
      "outputs": [
        {
          "internalType": "uint256",
          "name": "gameId",
          "type": "uint256"
        }
      ],
      "stateMutability": "nonpayable",
      "type": "function"
    },
    {
      "inputs": [
        {
          "internalType": "uint256",
          "name": "_gameId",
          "type": "uint256"
        }
      ],
      "name": "mintDurationOf",
      "outputs": [
        {
          "internalType": "uint256",
          "name": "",
          "type": "uint256"
        }
      ],
      "stateMutability": "view",
      "type": "function"
    },
    {
      "inputs": [
        {
          "internalType": "uint256",
          "name": "_gameId",
          "type": "uint256"
        }
      ],
      "name": "nextPhaseNeedsQueueing",
      "outputs": [
        {
          "internalType": "bool",
          "name": "",
          "type": "bool"
        }
      ],
      "stateMutability": "view",
      "type": "function"
    },
    {
      "inputs": [
        {
          "internalType": "address",
          "name": "",
          "type": "address"
        },
        {
          "internalType": "address",
          "name": "",
          "type": "address"
        },
        {
          "internalType": "uint256",
          "name": "",
          "type": "uint256"
        },
        {
          "internalType": "bytes",
          "name": "",
          "type": "bytes"
        }
      ],
      "name": "onERC721Received",
      "outputs": [
        {
          "internalType": "bytes4",
          "name": "",
          "type": "bytes4"
        }
      ],
      "stateMutability": "pure",
      "type": "function"
    },
    {
      "inputs": [],
      "name": "protocolFeeProjectTokenAccount",
      "outputs": [
        {
          "internalType": "address",
          "name": "",
          "type": "address"
        }
      ],
      "stateMutability": "view",
      "type": "function"
    },
    {
      "inputs": [
        {
          "internalType": "uint256",
          "name": "_gameId",
          "type": "uint256"
        }
      ],
      "name": "queueNextPhaseOf",
      "outputs": [
        {
          "internalType": "uint256",
          "name": "configuration",
          "type": "uint256"
        }
      ],
      "stateMutability": "nonpayable",
      "type": "function"
    },
    {
      "inputs": [
        {
          "internalType": "uint256",
          "name": "_gameId",
          "type": "uint256"
        }
      ],
      "name": "startOf",
      "outputs": [
        {
          "internalType": "uint256",
          "name": "",
          "type": "uint256"
        }
      ],
      "stateMutability": "view",
      "type": "function"
    },
    {
      "inputs": [
        {
          "internalType": "uint256",
          "name": "_gameId",
          "type": "uint256"
        }
      ],
      "name": "terminalOf",
      "outputs": [
        {
          "internalType": "contract IJBPaymentTerminal",
          "name": "",
          "type": "address"
        }
      ],
      "stateMutability": "view",
      "type": "function"
    },
    {
      "inputs": [
        {
          "internalType": "uint256",
          "name": "_gameId",
          "type": "uint256"
        }
      ],
      "name": "timesFor",
      "outputs": [
        {
          "components": [
            {
              "internalType": "uint48",
              "name": "mintDuration",
              "type": "uint48"
            },
            {
              "internalType": "uint48",
              "name": "start",
              "type": "uint48"
            },
            {
              "internalType": "uint48",
              "name": "tradeDeadline",
              "type": "uint48"
            },
            {
              "internalType": "uint48",
              "name": "end",
              "type": "uint48"
            }
          ],
          "internalType": "struct DefifaTimeData",
          "name": "",
          "type": "tuple"
        }
      ],
      "stateMutability": "view",
      "type": "function"
    },
    {
      "inputs": [],
      "name": "token",
      "outputs": [
        {
          "internalType": "address",
          "name": "",
          "type": "address"
        }
      ],
      "stateMutability": "view",
      "type": "function"
    },
    {
      "inputs": [
        {
          "internalType": "uint256",
          "name": "_gameId",
          "type": "uint256"
        }
      ],
      "name": "tradeDeadlineOf",
      "outputs": [
        {
          "internalType": "uint256",
          "name": "",
          "type": "uint256"
        }
      ],
      "stateMutability": "view",
      "type": "function"
    }
  ],
  "bytecode": {
    "object": "0x6101006040523480156200001257600080fd5b506040516200365838038062003658833981016040819052620000359162000071565b6001600160a01b0393841660805291831660c052821660a0521660e052620000d9565b6001600160a01b03811681146200006e57600080fd5b50565b600080600080608085870312156200008857600080fd5b8451620000958162000058565b6020860151909450620000a88162000058565b6040860151909350620000bb8162000058565b6060860151909250620000ce8162000058565b939692955090935050565b60805160a05160c05160e0516134ab620001ad6000396000818161022e0152610a06015260008181610459015281816104af015281816105ad0152818161067d015281816107690152818161085e0152818161097301528181610a2701528181610c3001528181610f9b01528181611214015281816112a00152818161158d015281816117bc015281816119c201528181611c9a0152611f2f01526000818161048001528181610d39015281816110ac0152818161114601526114b30152600081816102eb01526111dc01526134ab6000f3fe608060405234801561001057600080fd5b506004361061012c5760003560e01c8063a372c2a9116100ad578063ca449a2511610071578063ca449a2514610437578063ebcfaa6514610441578063f77c479114610454578063fc0c546a1461047b578063ff16a2f2146104a257600080fd5b8063a372c2a9146102de578063a71e9716146102e6578063b07925d31461030d578063b41e7f47146103d9578063b965933e1461040857600080fd5b8063380bde20116100f4578063380bde20146101fa5780633f3090d9146102295780634fe0eced14610268578063786326331461029157806381312a14146102cb57600080fd5b80630589d292146101315780630715610a1461016c578063150b7a021461017f5780631c069dbb146101b757806327655cfd146101ca575b600080fd5b61015961013f3660046120c1565b60009081526020819052604090205465ffffffffffff1690565b6040519081526020015b60405180910390f35b61015961017a3660046120c1565b6104aa565b61019e61018d3660046120fd565b630a85bd0160e11b95945050505050565b6040516001600160e01b03199091168152602001610163565b6101596101c53660046120c1565b6105a6565b6101596101d83660046120c1565b600090815260016020526040902054600160a01b90046001600160581b031690565b6101596102083660046120c1565b600090815260208190526040902054600160601b900465ffffffffffff1690565b6102507f000000000000000000000000000000000000000000000000000000000000000081565b6040516001600160a01b039091168152602001610163565b6102506102763660046120c1565b6000908152600160205260409020546001600160a01b031690565b6102bb61029f3660046120c1565b600090815260016020526040902054600160f81b900460ff1690565b6040519015158152602001610163565b6102bb6102d93660046120c1565b610764565b610159600181565b6102507f000000000000000000000000000000000000000000000000000000000000000081565b61039761031b3660046120c1565b60408051608081018252600080825260208201819052918101829052606081019190915250600090815260208181526040918290208251608081018452905465ffffffffffff8082168352600160301b8204811693830193909352600160601b8104831693820193909352600160901b90920416606082015290565b6040516101639190815165ffffffffffff9081168252602080840151821690830152604080840151821690830152606092830151169181019190915260800190565b6101596103e73660046120c1565b600090815260208190526040902054600160301b900465ffffffffffff1690565b6101596104163660046120c1565b600090815260208190526040902054600160901b900465ffffffffffff1690565b61043f610971565b005b61015961044f3660046126d4565b610b8a565b6102507f000000000000000000000000000000000000000000000000000000000000000081565b6102507f000000000000000000000000000000000000000000000000000000000000000081565b610159600081565b6000807f00000000000000000000000000000000000000000000000000000000000000006001600160a01b031663557e71556040518163ffffffff1660e01b8152600401602060405180830381865afa15801561050b573d6000803e3d6000fd5b505050506040513d601f19601f8201168201806040525081019061052f9190612817565b6001600160a01b03166343a266c2846040518263ffffffff1660e01b815260040161055c91815260200190565b61012060405180830381865afa15801561057a573d6000803e3d6000fd5b505050506040513d601f19601f8201168201806040525081019061059e91906128bf565b519392505050565b60008060007f00000000000000000000000000000000000000000000000000000000000000006001600160a01b0316638776c499856040518263ffffffff1660e01b81526004016105f991815260200190565b6103a060405180830381865afa158015610617573d6000803e3d6000fd5b505050506040513d601f19601f8201168201806040525081019061063b919061295e565b9150915060048260000151106106645760405163dc7a251560e01b815260040160405180910390fd5b6040516304acdec560e21b8152600481018590526000907f00000000000000000000000000000000000000000000000000000000000000006001600160a01b0316906312b37b14906024016103a060405180830381865afa1580156106cd573d6000803e3d6000fd5b505050506040513d601f19601f820116820180604052508101906106f1919061295e565b509050806020015183602001511461071c576040516311f4338560e01b815260040160405180910390fd5b825160010361073d5761073485836102000151611421565b95945050505050565b82516002036107555761073485836102000151611955565b61073485836102000151611bb7565b6000807f00000000000000000000000000000000000000000000000000000000000000006001600160a01b031663557e71556040518163ffffffff1660e01b8152600401602060405180830381865afa1580156107c5573d6000803e3d6000fd5b505050506040513d601f19601f820116820180604052508101906107e99190612817565b6001600160a01b03166343a266c2846040518263ffffffff1660e01b815260040161081691815260200190565b61012060405180830381865afa158015610834573d6000803e3d6000fd5b505050506040513d601f19601f8201168201806040525081019061085891906128bf565b905060007f00000000000000000000000000000000000000000000000000000000000000006001600160a01b031663557e71556040518163ffffffff1660e01b8152600401602060405180830381865afa1580156108ba573d6000803e3d6000fd5b505050506040513d601f19601f820116820180604052508101906108de9190612817565b6001600160a01b0316635c550078856040518263ffffffff1660e01b815260040161090b91815260200190565b61012060405180830381865afa158015610929573d6000803e3d6000fd5b505050506040513d601f19601f8201168201806040525081019061094d91906128bf565b8251909150600414801590610969575080602001518260200151145b949350505050565b7f00000000000000000000000000000000000000000000000000000000000000006001600160a01b031663619306306040518163ffffffff1660e01b8152600401602060405180830381865afa1580156109cf573d6000803e3d6000fd5b505050506040513d601f19601f820116820180604052508101906109f39190612817565b6001600160a01b031663ac689bcd3060017f00000000000000000000000000000000000000000000000000000000000000007f00000000000000000000000000000000000000000000000000000000000000006001600160a01b031663619306306040518163ffffffff1660e01b8152600401602060405180830381865afa158015610a83573d6000803e3d6000fd5b505050506040513d601f19601f82011682018060405250810190610aa79190612817565b604051635287af3760e01b8152306004820152600160248201526001600160a01b039190911690635287af3790604401602060405180830381865afa158015610af4573d6000803e3d6000fd5b505050506040513d601f19601f82011682018060405250810190610b189190612ad8565b6040516001600160e01b031960e087901b1681526001600160a01b0394851660048201526024810193909352921660448201526064810191909152608401600060405180830381600087803b158015610b7057600080fd5b505af1158015610b84573d6000803e3d6000fd5b50505050565b60004282602001518360400151610ba19190612b07565b65ffffffffffff161080610bcc5750816040015165ffffffffffff16826060015165ffffffffffff16105b80610bee5750816040015165ffffffffffff16826080015165ffffffffffff16105b80610c105750816060015165ffffffffffff16826080015165ffffffffffff16105b15610c2e57604051633a7c40a160e11b815260040160405180910390fd5b7f00000000000000000000000000000000000000000000000000000000000000006001600160a01b0316638b79543c6040518163ffffffff1660e01b8152600401602060405180830381865afa158015610c8c573d6000803e3d6000fd5b505050506040513d601f19601f82011682018060405250810190610cb09190612817565b6001600160a01b03166306661abd6040518163ffffffff1660e01b8152600401602060405180830381865afa158015610ced573d6000803e3d6000fd5b505050506040513d601f19601f82011682018060405250810190610d119190612ad8565b610d1c906001612b2d565b61010083015160405163df21a7dd60e01b81526001600160a01b037f0000000000000000000000000000000000000000000000000000000000000000811660048301526024820184905292935091169063df21a7dd90604401602060405180830381865afa158015610d92573d6000803e3d6000fd5b505050506040513d601f19601f82011682018060405250810190610db69190612b40565b610dd357604051631b93d9cb60e11b815260040160405180910390fd5b604080516080808201835260208086015165ffffffffffff908116845286850151811682850190815260608089015183168688019081529489015183168187019081526000898152808652888120975188549451975192518616600160901b0265ffffffffffff60901b19938716600160601b02939093166bffffffffffffffffffffffff60601b19988716600160301b026bffffffffffffffffffffffff19909616919096161793909317959095169290921793909317909355835192830184526101008601516001600160a01b03908116845260e08701516001600160581b0390811685840190815260a0890151151586880190815288865260019094529590932093518454955192511515600160f81b026001600160f81b0393909416600160a01b026001600160f81b0319909616911617939093179290921691909117905560c0820151511561108057604080516001808252818301909252600091816020015b604080518082019091526000815260606020820152815260200190600190039081610f3857905050905060405180604001604052808381526020018460c0015181525081600081518110610f8e57610f8e612b5d565b60200260200101819052507f00000000000000000000000000000000000000000000000000000000000000006001600160a01b0316632bdfe0046040518163ffffffff1660e01b8152600401602060405180830381865afa158015610ff7573d6000803e3d6000fd5b505050506040513d601f19601f8201168201806040525081019061101b9190612817565b6001600160a01b031663f2da44b660016000846040518463ffffffff1660e01b815260040161104c93929190612c53565b600060405180830381600087803b15801561106657600080fd5b505af115801561107a573d6000803e3d6000fd5b50505050505b604080516080808201835285015181526101008401519151631982d67960e01b81526001600160a01b037f0000000000000000000000000000000000000000000000000000000000000000811660048301526000936020840192911690631982d67990602401602060405180830381865afa158015611103573d6000803e3d6000fd5b505050506040513d601f19601f820116820180604052508101906111279190612ad8565b815261010085015160405163b7bad1b160e01b81526001600160a01b037f0000000000000000000000000000000000000000000000000000000000000000811660048301526020909301929091169063b7bad1b190602401602060405180830381865afa15801561119c573d6000803e3d6000fd5b505050506040513d601f19601f820116820180604052508101906111c09190612ad8565b815260200160006001600160a01b0316815250905060006112007f0000000000000000000000000000000000000000000000000000000000000000611db2565b9050806001600160a01b031663bb52b6e4847f00000000000000000000000000000000000000000000000000000000000000006001600160a01b031663c41c2f246040518163ffffffff1660e01b8152600401602060405180830381865afa158015611270573d6000803e3d6000fd5b505050506040513d601f19601f820116820180604052508101906112949190612817565b886000015189602001517f00000000000000000000000000000000000000000000000000000000000000006001600160a01b031663557e71556040518163ffffffff1660e01b8152600401602060405180830381865afa1580156112fc573d6000803e3d6000fd5b505050506040513d601f19601f820116820180604052508101906113209190612817565b8b6040015160008d606001518b8f60a001516040518060600160405280600015158152602001600015158152602001600015158152506040518c63ffffffff1660e01b815260040161137c9b9a99989796959493929190612dc0565b600060405180830381600087803b15801561139657600080fd5b505af11580156113aa573d6000803e3d6000fd5b5050505060c085015160405163f2fde38b60e01b81526001600160a01b0391821660048201529082169063f2fde38b90602401600060405180830381600087803b1580156113f757600080fd5b505af115801561140b573d6000803e3d6000fd5b505050506114198482611df2565b505092915050565b6000828152600160208181526040808420815160608101835290546001600160a01b0381168252600160a01b81046001600160581b031682850152600160f81b900460ff16151581830152815184815280830190925292849282015b611485612079565b81526020019060019003908161147d579050506040805160c08101825284516001600160a01b0390811682527f0000000000000000000000000000000000000000000000000000000000000000811660208084018290528701516001600160581b03168385015286519351631982d67960e01b815260048101919091529394509092606084019290911690631982d67990602401602060405180830381865afa158015611536573d6000803e3d6000fd5b505050506040513d601f19601f8201168201806040525081019061155a9190612ad8565b81526020016000815260200160008152508160008151811061157e5761157e612b5d565b602002602001018190525060007f00000000000000000000000000000000000000000000000000000000000000006001600160a01b0316632bdfe0046040518163ffffffff1660e01b8152600401602060405180830381865afa1580156115e9573d6000803e3d6000fd5b505050506040513d601f19601f8201168201806040525081019061160d9190612817565b6040516369e11cc560e01b81526001600482015260006024820152604481018890526001600160a01b0391909116906369e11cc590606401600060405180830381865afa158015611662573d6000803e3d6000fd5b505050506040513d6000823e601f3d908101601f1916820160405261168a9190810190612e9a565b90506060815160001461170f5760408051600180825281830190925290816020015b6040805180820190915260008152606060208201528152602001906001900390816116ac57905050905060405180604001604052806001815260200183815250816000815181106116ff576116ff612b5d565b6020026020010181905250611751565b604080516000808252602082019092529061174d565b6040805180820190915260008152606060208201528152602001906001900390816117255790505b5090505b60008781526020818152604091829020825160808082018552915465ffffffffffff8082168352600160301b82048116948301948552600160601b82048116838701908152600160901b90920416606083015284519283019094529151925191926001600160a01b037f0000000000000000000000000000000000000000000000000000000000000000169263badbdf28928c92909182916117f291612b07565b65ffffffffffff168152600060208083018290526040808401839052606093840183905280516102a081018252610240810184815261026082018590526102808201859052815280830184905280820184905293840183905260016080850181905260a0850184905260c0850181905260e085018490526101008501849052610120850184905261014085018490528d820151151561016086015261018085018490526101a085018490526101c085018190526101e08501526001600160a01b038f166102008501528051808201909152828152908101919091526102208201906118dc90612058565b8152506000878a6040518763ffffffff1660e01b8152600401611904969594939291906131af565b6020604051808303816000875af1158015611923573d6000803e3d6000fd5b505050506040513d601f19601f820116820180604052508101906119479190612ad8565b955050505050505b92915050565b600082815260208181526040808320815160808082018452915465ffffffffffff8082168352600160301b8204811695830195909552600160601b81048516828501908152600160901b909104909416606082019081528351928301909352925191516001600160a01b037f0000000000000000000000000000000000000000000000000000000000000000169263badbdf28928892909182916119f99190612b07565b65ffffffffffff168152600060208083018290526040808401839052606093840183905280516102a081018252610240810184815261026082018590526102808201859052815280830184905280820184905293840183905260016080850181905260a0850184905260c0850181905260e08501849052610100850184905261012085018490526101408501849052610160850184905261018085018490526101a085018490526101c085018190526101e085018190526001600160a01b038c166102008601528151808301909252815290810191909152610220820190611ae090612058565b90526040805160008082526020820190925281611b20565b604080518082019091526000815260606020820152815260200190600190039081611af85790505b506040805160008082526020820190925290611b52565b611b3f612079565b815260200190600190039081611b375790505b506040518763ffffffff1660e01b8152600401611b749695949392919061323d565b6020604051808303816000875af1158015611b93573d6000803e3d6000fd5b505050506040513d601f19601f820116820180604052508101906109699190612ad8565b604080516080808201835260008083526020808401829052838501829052606080850183905285516102a081018752610240810184815261026082018590526102808201859052815280830184905261271081880181905291810191909152600193810184905260a0810183905260c0810183905260e08101839052610100810183905261012081018390526101408101839052610160810183905261018081018390526101a081018390526101c081018490526101e08101939093526001600160a01b03868116610200850152855180870190965282865290850182905290937f00000000000000000000000000000000000000000000000000000000000000009091169263badbdf28928792610220820190611cd490612058565b90526040805160008082526020820190925281611d14565b604080518082019091526000815260606020820152815260200190600190039081611cec5790505b506040805160008082526020820190925290611d46565b611d33612079565b815260200190600190039081611d2b5790505b506040518763ffffffff1660e01b8152600401611d68969594939291906132cb565b6020604051808303816000875af1158015611d87573d6000803e3d6000fd5b505050506040513d601f19601f82011682018060405250810190611dab9190612ad8565b9392505050565b6000813b604051600160e01b82026c31000000300040b006c11cf9ff60991b8117905080825250816000600d8301863c600d8201816000f0949350505050565b6040805160018082528183019092526000916020808301908036833701905050905082610100015181600081518110611e2d57611e2d612b5d565b6001600160a01b03928316602091820292909201810191909152845160408051608080820183528885015165ffffffffffff1682526000828601819052828401819052606080840182905284516102a08101865261024081018381526102608201849052610280820184905281528088018390526127108187018190529181019190915291820181905260a080830182905260c0830182905260e083018290526101008301829052610120830182905261014083018290528a0151151561016083015261018082018190526101a0820181905260016101c083018190526101e083018190528988166102008401528451808601909552908452948301949094527f00000000000000000000000000000000000000000000000000000000000000009094169363b3c5267393309392610220820190611f6a90612058565b9052602089015160408a0151611f809190612b07565b6040805160008082526020820190925290611fbe565b604080518082019091526000815260606020820152815260200190600190039081611f965790505b506040805160008082526020820190925290611ff0565b611fdd612079565b815260200190600190039081611fd55790505b50896040518963ffffffff1660e01b8152600401612015989796959493929190613392565b6020604051808303816000875af1158015612034573d6000803e3d6000fd5b505050506040513d601f19601f82011682018060405250810190610b849190612ad8565b805160009015612066576001175b816020015115612074576002175b919050565b6040518060c0016040528060006001600160a01b0316815260200160006001600160a01b03168152602001600081526020016000815260200160008152602001600081525090565b6000602082840312156120d357600080fd5b5035919050565b6001600160a01b03811681146120ef57600080fd5b50565b8035612074816120da565b60008060008060006080868803121561211557600080fd5b8535612120816120da565b94506020860135612130816120da565b93506040860135925060608601356001600160401b038082111561215357600080fd5b818801915088601f83011261216757600080fd5b81358181111561217657600080fd5b89602082850101111561218857600080fd5b9699959850939650602001949392505050565b634e487b7160e01b600052604160045260246000fd5b60405161014081016001600160401b03811182821017156121d4576121d461219b565b60405290565b60405160e081016001600160401b03811182821017156121d4576121d461219b565b60405161012081016001600160401b03811182821017156121d4576121d461219b565b60405161024081016001600160401b03811182821017156121d4576121d461219b565b604051601f8201601f191681016001600160401b038111828210171561226a5761226a61219b565b604052919050565b600082601f83011261228357600080fd5b81356001600160401b0381111561229c5761229c61219b565b6122af601f8201601f1916602001612242565b8181528460208386010111156122c457600080fd5b816020850160208301376000918101602001919091529392505050565b60006001600160401b038211156122fa576122fa61219b565b5060051b60200190565b803569ffffffffffffffffffff8116811461207457600080fd5b803565ffffffffffff8116811461207457600080fd5b803564ffffffffff8116811461207457600080fd5b803561ffff8116811461207457600080fd5b80151581146120ef57600080fd5b80356120748161235b565b600082601f83011261238557600080fd5b8135602061239a612395836122e1565b612242565b82815261014092830285018201928282019190878511156123ba57600080fd5b8387015b858110156124885781818a0312156123d65760008081fd5b6123de6121b1565b6123e782612304565b81526123f486830161231e565b868201526040612405818401612334565b908201526060612416838201612349565b908201526080612427838201612349565b9082015260a06124388382016120f2565b9082015260c0828101359082015260e0612453818401612369565b90820152610100612465838201612369565b90820152610120612477838201612369565b9082015284529284019281016123be565b5090979650505050505050565b6000604082840312156124a757600080fd5b604051604081016001600160401b0382821081831117156124ca576124ca61219b565b8160405282935084359150808211156124e257600080fd5b506124ef85828601612272565b825250602083013560208201525092915050565b600082601f83011261251457600080fd5b81356020612524612395836122e1565b82815260e0928302850182019282820191908785111561254357600080fd5b8387015b858110156124885781818a03121561255f5760008081fd5b6125676121da565b81356125728161235b565b8152818601356125818161235b565b8187015260408281013590820152606080830135908201526080808301356125a8816120da565b9082015260a0828101359082015260c0808301356125c5816120da565b908201528452928401928101612547565b80356001600160581b038116811461207457600080fd5b6000610120828403121561260057600080fd5b6126086121fc565b905081356001600160401b038082111561262157600080fd5b61262d85838601612495565b835261263b6020850161231e565b602084015261264c6040850161231e565b604084015261265d6060850161231e565b606084015261266e6080850161231e565b608084015261267f60a08501612369565b60a084015260c084013591508082111561269857600080fd5b506126a584828501612503565b60c0830152506126b760e083016125d6565b60e08201526101006126ca8184016120f2565b9082015292915050565b600080604083850312156126e757600080fd5b82356001600160401b03808211156126fe57600080fd5b9084019060e0828703121561271257600080fd5b61271a6121da565b82358281111561272957600080fd5b61273588828601612272565b82525060208301358281111561274a57600080fd5b61275688828601612272565b60208301525060408301358281111561276e57600080fd5b61277a88828601612272565b60408301525060608301358281111561279257600080fd5b61279e88828601612272565b6060830152506080830135828111156127b657600080fd5b6127c288828601612374565b6080830152506127d460a084016120f2565b60a08201526127e560c084016120f2565b60c08201529350602085013591508082111561280057600080fd5b5061280d858286016125ed565b9150509250929050565b60006020828403121561282957600080fd5b8151611dab816120da565b8051612074816120da565b6000610120828403121561285257600080fd5b61285a6121fc565b9050815181526020820151602082015260408201516040820152606082015160608201526080820151608082015260a082015160a082015260c082015160c08201526128a860e08301612834565b60e082015261010080830151818301525092915050565b600061012082840312156128d257600080fd5b611dab838361283f565b80516120748161235b565b6000606082840312156128f957600080fd5b604051606081018181106001600160401b038211171561291b5761291b61219b565b8060405250809150825161292e8161235b565b8152602083015161293e8161235b565b602082015260408301516129518161235b565b6040919091015292915050565b6000808284036103a081121561297357600080fd5b61297d858561283f565b92506101206102808061011f198401121561299757600080fd5b61299f61221f565b92506129ad878388016128e7565b83526101808087015160208501526101a08088015160408601526101c08089015160608701526101e06129e1818b016128dc565b60808801526102006129f4818c016128dc565b60a0890152610220612a07818d016128dc565b60c08a0152612a196102408d016128dc565b60e08a0152612a2b6102608d016128dc565b6101008a0152612a3c878d016128dc565b888a0152612a4d6102a08d016128dc565b6101408a0152612a606102c08d016128dc565b6101608a0152612a736102e08d016128dc565b868a0152612a846103008d016128dc565b858a0152612a956103208d016128dc565b848a0152612aa66103408d016128dc565b838a0152612ab76103608d01612834565b828a01526103808c0151818a01525050505050505050809150509250929050565b600060208284031215612aea57600080fd5b5051919050565b634e487b7160e01b600052601160045260246000fd5b65ffffffffffff828116828216039080821115612b2657612b26612af1565b5092915050565b8082018082111561194f5761194f612af1565b600060208284031215612b5257600080fd5b8151611dab8161235b565b634e487b7160e01b600052603260045260246000fd5b600081518084526020808501808196508360051b810191508286016000805b86811015612c45578385038a52825180518652860151604087870181905281518188018190529188019160609081890190865b81811015612c2e5785518051151584528c81015115158d850152858101518685015284810151858501526080808201516001600160a01b039081169186019190915260a0808301519086015260c0918201511690840152948b019460e090920191600101612bc5565b50509c89019c975050509286019250600101612b92565b509298975050505050505050565b8381528260208201526060604082015260006107346060830184612b73565b6000815180845260005b81811015612c9857602081850181015186830182015201612c7c565b506000602082860101526020601f19601f83011685010191505092915050565b80516080808452815184820181905260009260a0916020918201918388019190865b82811015612d85578451805169ffffffffffffffffffff1685528281015165ffffffffffff168386015260408082015164ffffffffff169086015260608082015161ffff90811691870191909152888201511688860152868101516001600160a01b03168786015260c0808201519086015260e08082015115159086015261010080820151151590860152610120908101511515908501529381019361014090930192600101612cda565b5080880151818a015250506040860151604088015260608601519350612db660608801856001600160a01b03169052565b9695505050505050565b8b81526001600160a01b038b811660208301526101a060408301819052600091612dec8483018e612c72565b91508382036060850152612e00828d612c72565b9150808b16608085015283820360a0850152612e1c828b612c72565b90891660c085015283810360e08501529050612e388188612c72565b9050828103610100840152612e4d8187612cb8565b915050612e666101208301856001600160a01b03169052565b8251151561014083015260208301511515610160830152604083015115156101808301529c9b505050505050505050505050565b60006020808385031215612ead57600080fd5b82516001600160401b03811115612ec357600080fd5b8301601f81018513612ed457600080fd5b8051612ee2612395826122e1565b81815260e09182028301840191848201919088841115612f0157600080fd5b938501935b83851015612f975780858a031215612f1e5760008081fd5b612f266121da565b8551612f318161235b565b815285870151612f408161235b565b818801526040868101519082015260608087015190820152608080870151612f67816120da565b9082015260a0868101519082015260c080870151612f84816120da565b9082015283529384019391850191612f06565b50979650505050505050565b8051825260208082015190830152604080820151908301526060908101516001600160a01b0316910152565b612ff48282518051151582526020808201511515908301526040908101511515910152565b6020810151606083015260408101516080830152606081015160a0830152608081015161302560c084018215159052565b5060a081015180151560e08401525060c08101516101006130498185018315159052565b60e083015191506101206130608186018415159052565b908301519150610140906130778583018415159052565b830151915061016061308c8582018415159052565b908301519150610180906130a38583018415159052565b83015191506101a06130b88582018415159052565b9083015191506101c0906130cf8583018415159052565b83015191506101e06130e48582018415159052565b908301519150610200906130fb8583018415159052565b83015191506102206131108582018415159052565b908301516001600160a01b0316610240850152909101516102609092019190915250565b600081518084526020808501945080840160005b838110156131a457815180516001600160a01b03908116895284820151168489015260408082015190890152606080820151908901526080808201519089015260a0908101519088015260c09096019590820190600101613148565b509495945050505050565b60006103a08883526131c46020840189612fa3565b6131d160a0840188612fcf565b85610320840152806103408401526131eb81840186612b73565b90508281036103608401526132008185613134565b83810361038090940193909352505060148152732232b334b3309033b0b6b290383430b9b290191760611b60208201526040019695505050505050565b60006103a08883526132526020840189612fa3565b61325f60a0840188612fcf565b856103208401528061034084015261327981840186612b73565b905082810361036084015261328e8185613134565b83810361038090940193909352505060148152732232b334b3309033b0b6b290383430b9b290199760611b60208201526040019695505050505050565b60006103a08883526132e06020840189612fa3565b6132ed60a0840188612fcf565b856103208401528061034084015261330781840186612b73565b905082810361036084015261331c8185613134565b83810361038090940193909352505060148152732232b334b3309033b0b6b290383430b9b2901a1760611b60208201526040019695505050505050565b600081518084526020808501945080840160005b838110156131a45781516001600160a01b03168752958201959082019060010161336d565b6001600160a01b03891681526103e0602082018190528851604083830152600091906133c2610420850182612c72565b91505060208a01516104008401526133dd604084018a612fa3565b6133ea60c0840189612fcf565b65ffffffffffff871661034084015282810361036084015261340c8187612b73565b90508281036103808401526134218186613134565b90508281036103a08401526134368185613359565b8381036103c085015260148152732232b334b3309033b0b6b290383430b9b290189760611b60208201529050604081019b9a505050505050505050505056fea2646970667358221220e41514f6360ce02344530fcc2a8e68f9ff97eac810cc606e9fc742cf0e485a7a64736f6c63430008100033",
    "linkReferences": {}
  },
  "methodIdentifiers": {
    "SPLIT_DOMAIN()": "ff16a2f2",
    "SPLIT_PROJECT_ID()": "a372c2a9",
    "claimProtocolProjectToken()": "ca449a25",
    "controller()": "f77c4791",
    "currentGamePhaseOf(uint256)": "0715610a",
    "defifaCodeOrigin()": "a71e9716",
    "distributionLimit(uint256)": "27655cfd",
    "endOf(uint256)": "b965933e",
    "holdFeesDuring(uint256)": "78632633",
    "launchGameWith((string,string,string,string,(uint80,uint48,uint40,uint16,uint16,address,bytes32,bool,bool,bool)[],address,address),((string,uint256),uint48,uint48,uint48,uint48,bool,(bool,bool,uint256,uint256,address,uint256,address)[],uint88,address))": "ebcfaa65",
    "mintDurationOf(uint256)": "0589d292",
    "nextPhaseNeedsQueueing(uint256)": "81312a14",
    "onERC721Received(address,address,uint256,bytes)": "150b7a02",
    "protocolFeeProjectTokenAccount()": "3f3090d9",
    "queueNextPhaseOf(uint256)": "1c069dbb",
    "startOf(uint256)": "b41e7f47",
    "terminalOf(uint256)": "4fe0eced",
    "timesFor(uint256)": "b07925d3",
    "token()": "fc0c546a",
    "tradeDeadlineOf(uint256)": "380bde20"
  },
  "id": 1
}