{
  "abi": [
    {
      "inputs": [
        {
          "internalType": "address",
          "name": "_defifaCodeOrigin",
          "type": "address"
        },
        {
          "internalType": "contract IJBController",
          "name": "_controller",
          "type": "address"
        },
        {
          "internalType": "address",
          "name": "_token",
          "type": "address"
        },
        {
          "internalType": "address",
          "name": "_protocolFeeProjectTokenAccount",
          "type": "address"
        }
      ],
      "stateMutability": "nonpayable",
      "type": "constructor"
    },
    {
      "inputs": [],
      "name": "GAME_OVER",
      "type": "error"
    },
    {
      "inputs": [],
      "name": "INVALID_GAME_CONFIGURATION",
      "type": "error"
    },
    {
      "inputs": [],
      "name": "PHASE_ALREADY_QUEUED",
      "type": "error"
    },
    {
      "inputs": [],
      "name": "UNEXPECTED_TERMINAL_CURRENCY",
      "type": "error"
    },
    {
      "inputs": [],
      "name": "SPLIT_DOMAIN",
      "outputs": [
        {
          "internalType": "uint256",
          "name": "",
          "type": "uint256"
        }
      ],
      "stateMutability": "view",
      "type": "function"
    },
    {
      "inputs": [],
      "name": "SPLIT_PROJECT_ID",
      "outputs": [
        {
          "internalType": "uint256",
          "name": "",
          "type": "uint256"
        }
      ],
      "stateMutability": "view",
      "type": "function"
    },
    {
      "inputs": [],
      "name": "claimProtocolProjectToken",
      "outputs": [],
      "stateMutability": "nonpayable",
      "type": "function"
    },
    {
      "inputs": [],
      "name": "controller",
      "outputs": [
        {
          "internalType": "contract IJBController",
          "name": "",
          "type": "address"
        }
      ],
      "stateMutability": "view",
      "type": "function"
    },
    {
      "inputs": [
        {
          "internalType": "uint256",
          "name": "_gameId",
          "type": "uint256"
        }
      ],
      "name": "currentGamePhaseOf",
      "outputs": [
        {
          "internalType": "uint256",
          "name": "",
          "type": "uint256"
        }
      ],
      "stateMutability": "view",
      "type": "function"
    },
    {
      "inputs": [],
      "name": "defifaCodeOrigin",
      "outputs": [
        {
          "internalType": "address",
          "name": "",
          "type": "address"
        }
      ],
      "stateMutability": "view",
      "type": "function"
    },
    {
      "inputs": [
        {
          "internalType": "uint256",
          "name": "_gameId",
          "type": "uint256"
        }
      ],
      "name": "distributionLimit",
      "outputs": [
        {
          "internalType": "uint256",
          "name": "",
          "type": "uint256"
        }
      ],
      "stateMutability": "view",
      "type": "function"
    },
    {
      "inputs": [
        {
          "internalType": "uint256",
          "name": "_gameId",
          "type": "uint256"
        }
      ],
      "name": "endOf",
      "outputs": [
        {
          "internalType": "uint256",
          "name": "",
          "type": "uint256"
        }
      ],
      "stateMutability": "view",
      "type": "function"
    },
    {
      "inputs": [
        {
          "internalType": "uint256",
          "name": "_gameId",
          "type": "uint256"
        }
      ],
      "name": "holdFeesDuring",
      "outputs": [
        {
          "internalType": "bool",
          "name": "",
          "type": "bool"
        }
      ],
      "stateMutability": "view",
      "type": "function"
    },
    {
      "inputs": [
        {
          "components": [
            {
              "internalType": "string",
              "name": "name",
              "type": "string"
            },
            {
              "internalType": "string",
              "name": "symbol",
              "type": "string"
            },
            {
              "internalType": "string",
              "name": "baseUri",
              "type": "string"
            },
            {
              "internalType": "string",
              "name": "contractUri",
              "type": "string"
            },
            {
              "components": [
                {
                  "internalType": "uint80",
                  "name": "contributionFloor",
                  "type": "uint80"
                },
                {
                  "internalType": "uint48",
                  "name": "lockedUntil",
                  "type": "uint48"
                },
                {
                  "internalType": "uint40",
                  "name": "initialQuantity",
                  "type": "uint40"
                },
                {
                  "internalType": "uint16",
                  "name": "votingUnits",
                  "type": "uint16"
                },
                {
                  "internalType": "uint16",
                  "name": "reservedRate",
                  "type": "uint16"
                },
                {
                  "internalType": "address",
                  "name": "reservedTokenBeneficiary",
                  "type": "address"
                },
                {
                  "internalType": "bytes32",
                  "name": "encodedIPFSUri",
                  "type": "bytes32"
                },
                {
                  "internalType": "bool",
                  "name": "allowManualMint",
                  "type": "bool"
                },
                {
                  "internalType": "bool",
                  "name": "shouldUseBeneficiaryAsDefault",
                  "type": "bool"
                },
                {
                  "internalType": "bool",
                  "name": "transfersPausable",
                  "type": "bool"
                }
              ],
              "internalType": "struct JB721TierParams[]",
              "name": "tiers",
              "type": "tuple[]"
            },
            {
              "internalType": "contract IJBTiered721DelegateStore",
              "name": "store",
              "type": "address"
            },
            {
              "internalType": "address",
              "name": "owner",
              "type": "address"
            }
          ],
          "internalType": "struct DefifaDelegateData",
          "name": "_delegateData",
          "type": "tuple"
        },
        {
          "components": [
            {
              "components": [
                {
                  "internalType": "string",
                  "name": "content",
                  "type": "string"
                },
                {
                  "internalType": "uint256",
                  "name": "domain",
                  "type": "uint256"
                }
              ],
              "internalType": "struct JBProjectMetadata",
              "name": "projectMetadata",
              "type": "tuple"
            },
            {
              "internalType": "uint48",
              "name": "mintDuration",
              "type": "uint48"
            },
            {
              "internalType": "uint48",
              "name": "start",
              "type": "uint48"
            },
            {
              "internalType": "uint48",
              "name": "tradeDeadline",
              "type": "uint48"
            },
            {
              "internalType": "uint48",
              "name": "end",
              "type": "uint48"
            },
            {
              "internalType": "bool",
              "name": "holdFees",
              "type": "bool"
            },
            {
              "components": [
                {
                  "internalType": "bool",
                  "name": "preferClaimed",
                  "type": "bool"
                },
                {
                  "internalType": "bool",
                  "name": "preferAddToBalance",
                  "type": "bool"
                },
                {
                  "internalType": "uint256",
                  "name": "percent",
                  "type": "uint256"
                },
                {
                  "internalType": "uint256",
                  "name": "projectId",
                  "type": "uint256"
                },
                {
                  "internalType": "address payable",
                  "name": "beneficiary",
                  "type": "address"
                },
                {
                  "internalType": "uint256",
                  "name": "lockedUntil",
                  "type": "uint256"
                },
                {
                  "internalType": "contract IJBSplitAllocator",
                  "name": "allocator",
                  "type": "address"
                }
              ],
              "internalType": "struct JBSplit[]",
              "name": "splits",
              "type": "tuple[]"
            },
            {
              "internalType": "uint88",
              "name": "distributionLimit",
              "type": "uint88"
            },
            {
              "internalType": "contract IJBPaymentTerminal",
              "name": "terminal",
              "type": "address"
            }
          ],
          "internalType": "struct DefifaLaunchProjectData",
          "name": "_launchProjectData",
          "type": "tuple"
        }
      ],
      "name": "launchGameWith",
      "outputs": [
        {
          "internalType": "uint256",
          "name": "gameId",
          "type": "uint256"
        }
      ],
      "stateMutability": "nonpayable",
      "type": "function"
    },
    {
      "inputs": [
        {
          "internalType": "uint256",
          "name": "_gameId",
          "type": "uint256"
        }
      ],
      "name": "mintDurationOf",
      "outputs": [
        {
          "internalType": "uint256",
          "name": "",
          "type": "uint256"
        }
      ],
      "stateMutability": "view",
      "type": "function"
    },
    {
      "inputs": [
        {
          "internalType": "uint256",
          "name": "_gameId",
          "type": "uint256"
        }
      ],
      "name": "nextPhaseNeedsQueueing",
      "outputs": [
        {
          "internalType": "bool",
          "name": "",
          "type": "bool"
        }
      ],
      "stateMutability": "view",
      "type": "function"
    },
    {
      "inputs": [
        {
          "internalType": "address",
          "name": "",
          "type": "address"
        },
        {
          "internalType": "address",
          "name": "",
          "type": "address"
        },
        {
          "internalType": "uint256",
          "name": "",
          "type": "uint256"
        },
        {
          "internalType": "bytes",
          "name": "",
          "type": "bytes"
        }
      ],
      "name": "onERC721Received",
      "outputs": [
        {
          "internalType": "bytes4",
          "name": "",
          "type": "bytes4"
        }
      ],
      "stateMutability": "pure",
      "type": "function"
    },
    {
      "inputs": [],
      "name": "protocolFeeProjectTokenAccount",
      "outputs": [
        {
          "internalType": "address",
          "name": "",
          "type": "address"
        }
      ],
      "stateMutability": "view",
      "type": "function"
    },
    {
      "inputs": [
        {
          "internalType": "uint256",
          "name": "_gameId",
          "type": "uint256"
        }
      ],
      "name": "queueNextPhaseOf",
      "outputs": [
        {
          "internalType": "uint256",
          "name": "configuration",
          "type": "uint256"
        }
      ],
      "stateMutability": "nonpayable",
      "type": "function"
    },
    {
      "inputs": [
        {
          "internalType": "uint256",
          "name": "_gameId",
          "type": "uint256"
        }
      ],
      "name": "startOf",
      "outputs": [
        {
          "internalType": "uint256",
          "name": "",
          "type": "uint256"
        }
      ],
      "stateMutability": "view",
      "type": "function"
    },
    {
      "inputs": [
        {
          "internalType": "uint256",
          "name": "_gameId",
          "type": "uint256"
        }
      ],
      "name": "terminalOf",
      "outputs": [
        {
          "internalType": "contract IJBPaymentTerminal",
          "name": "",
          "type": "address"
        }
      ],
      "stateMutability": "view",
      "type": "function"
    },
    {
      "inputs": [
        {
          "internalType": "uint256",
          "name": "_gameId",
          "type": "uint256"
        }
      ],
      "name": "timesFor",
      "outputs": [
        {
          "components": [
            {
              "internalType": "uint48",
              "name": "mintDuration",
              "type": "uint48"
            },
            {
              "internalType": "uint48",
              "name": "start",
              "type": "uint48"
            },
            {
              "internalType": "uint48",
              "name": "tradeDeadline",
              "type": "uint48"
            },
            {
              "internalType": "uint48",
              "name": "end",
              "type": "uint48"
            }
          ],
          "internalType": "struct DefifaTimeData",
          "name": "",
          "type": "tuple"
        }
      ],
      "stateMutability": "view",
      "type": "function"
    },
    {
      "inputs": [],
      "name": "token",
      "outputs": [
        {
          "internalType": "address",
          "name": "",
          "type": "address"
        }
      ],
      "stateMutability": "view",
      "type": "function"
    },
    {
      "inputs": [
        {
          "internalType": "uint256",
          "name": "_gameId",
          "type": "uint256"
        }
      ],
      "name": "tradeDeadlineOf",
      "outputs": [
        {
          "internalType": "uint256",
          "name": "",
          "type": "uint256"
        }
      ],
      "stateMutability": "view",
      "type": "function"
    }
  ],
  "bytecode": {
    "object": "0x60e06040523480156200001157600080fd5b506040516200363838038062003638833981016040819052620000349162000081565b6001600160a01b0393841660805291831660c052821660a052600280546001600160a01b03191691909216179055620000e9565b6001600160a01b03811681146200007e57600080fd5b50565b600080600080608085870312156200009857600080fd5b8451620000a58162000068565b6020860151909450620000b88162000068565b6040860151909350620000cb8162000068565b6060860151909250620000de8162000068565b939692955090935050565b60805160a05160c05161348c620001ac600039600081816104450152818161049b0152818161059901528181610669015281816107550152818161084a0152818161095f01528181610a0801528181610c1101528181610f7c015281816111f5015281816112810152818161156e0152818161179d015281816119a301528181611c7b0152611f1001526000818161046c01528181610d1a0152818161108d0152818161112701526114940152600081816102d701526111bd015261348c6000f3fe608060405234801561001057600080fd5b506004361061012c5760003560e01c8063a372c2a9116100ad578063ca449a2511610071578063ca449a2514610423578063ebcfaa651461042d578063f77c479114610440578063fc0c546a14610467578063ff16a2f21461048e57600080fd5b8063a372c2a9146102ca578063a71e9716146102d2578063b07925d3146102f9578063b41e7f47146103c5578063b965933e146103f457600080fd5b8063380bde20116100f4578063380bde20146101fa5780633f3090d9146102295780634fe0eced14610254578063786326331461027d57806381312a14146102b757600080fd5b80630589d292146101315780630715610a1461016c578063150b7a021461017f5780631c069dbb146101b757806327655cfd146101ca575b600080fd5b61015961013f3660046120a2565b60009081526020819052604090205465ffffffffffff1690565b6040519081526020015b60405180910390f35b61015961017a3660046120a2565b610496565b61019e61018d3660046120de565b630a85bd0160e11b95945050505050565b6040516001600160e01b03199091168152602001610163565b6101596101c53660046120a2565b610592565b6101596101d83660046120a2565b600090815260016020526040902054600160a01b90046001600160581b031690565b6101596102083660046120a2565b600090815260208190526040902054600160601b900465ffffffffffff1690565b60025461023c906001600160a01b031681565b6040516001600160a01b039091168152602001610163565b61023c6102623660046120a2565b6000908152600160205260409020546001600160a01b031690565b6102a761028b3660046120a2565b600090815260016020526040902054600160f81b900460ff1690565b6040519015158152602001610163565b6102a76102c53660046120a2565b610750565b610159600181565b61023c7f000000000000000000000000000000000000000000000000000000000000000081565b6103836103073660046120a2565b60408051608081018252600080825260208201819052918101829052606081019190915250600090815260208181526040918290208251608081018452905465ffffffffffff8082168352600160301b8204811693830193909352600160601b8104831693820193909352600160901b90920416606082015290565b6040516101639190815165ffffffffffff9081168252602080840151821690830152604080840151821690830152606092830151169181019190915260800190565b6101596103d33660046120a2565b600090815260208190526040902054600160301b900465ffffffffffff1690565b6101596104023660046120a2565b600090815260208190526040902054600160901b900465ffffffffffff1690565b61042b61095d565b005b61015961043b3660046126b5565b610b6b565b61023c7f000000000000000000000000000000000000000000000000000000000000000081565b61023c7f000000000000000000000000000000000000000000000000000000000000000081565b610159600081565b6000807f00000000000000000000000000000000000000000000000000000000000000006001600160a01b031663557e71556040518163ffffffff1660e01b8152600401602060405180830381865afa1580156104f7573d6000803e3d6000fd5b505050506040513d601f19601f8201168201806040525081019061051b91906127f8565b6001600160a01b03166343a266c2846040518263ffffffff1660e01b815260040161054891815260200190565b61012060405180830381865afa158015610566573d6000803e3d6000fd5b505050506040513d601f19601f8201168201806040525081019061058a91906128a0565b519392505050565b60008060007f00000000000000000000000000000000000000000000000000000000000000006001600160a01b0316638776c499856040518263ffffffff1660e01b81526004016105e591815260200190565b6103a060405180830381865afa158015610603573d6000803e3d6000fd5b505050506040513d601f19601f82011682018060405250810190610627919061293f565b9150915060048260000151106106505760405163dc7a251560e01b815260040160405180910390fd5b6040516304acdec560e21b8152600481018590526000907f00000000000000000000000000000000000000000000000000000000000000006001600160a01b0316906312b37b14906024016103a060405180830381865afa1580156106b9573d6000803e3d6000fd5b505050506040513d601f19601f820116820180604052508101906106dd919061293f565b5090508060200151836020015114610708576040516311f4338560e01b815260040160405180910390fd5b82516001036107295761072085836102000151611402565b95945050505050565b82516002036107415761072085836102000151611936565b61072085836102000151611b98565b6000807f00000000000000000000000000000000000000000000000000000000000000006001600160a01b031663557e71556040518163ffffffff1660e01b8152600401602060405180830381865afa1580156107b1573d6000803e3d6000fd5b505050506040513d601f19601f820116820180604052508101906107d591906127f8565b6001600160a01b03166343a266c2846040518263ffffffff1660e01b815260040161080291815260200190565b61012060405180830381865afa158015610820573d6000803e3d6000fd5b505050506040513d601f19601f8201168201806040525081019061084491906128a0565b905060007f00000000000000000000000000000000000000000000000000000000000000006001600160a01b031663557e71556040518163ffffffff1660e01b8152600401602060405180830381865afa1580156108a6573d6000803e3d6000fd5b505050506040513d601f19601f820116820180604052508101906108ca91906127f8565b6001600160a01b0316635c550078856040518263ffffffff1660e01b81526004016108f791815260200190565b61012060405180830381865afa158015610915573d6000803e3d6000fd5b505050506040513d601f19601f8201168201806040525081019061093991906128a0565b8251909150600414801590610955575080602001518260200151145b949350505050565b7f00000000000000000000000000000000000000000000000000000000000000006001600160a01b031663619306306040518163ffffffff1660e01b8152600401602060405180830381865afa1580156109bb573d6000803e3d6000fd5b505050506040513d601f19601f820116820180604052508101906109df91906127f8565b6001600160a01b031663ac689bcd306001600260009054906101000a90046001600160a01b03167f00000000000000000000000000000000000000000000000000000000000000006001600160a01b031663619306306040518163ffffffff1660e01b8152600401602060405180830381865afa158015610a64573d6000803e3d6000fd5b505050506040513d601f19601f82011682018060405250810190610a8891906127f8565b604051635287af3760e01b8152306004820152600160248201526001600160a01b039190911690635287af3790604401602060405180830381865afa158015610ad5573d6000803e3d6000fd5b505050506040513d601f19601f82011682018060405250810190610af99190612ab9565b6040516001600160e01b031960e087901b1681526001600160a01b0394851660048201526024810193909352921660448201526064810191909152608401600060405180830381600087803b158015610b5157600080fd5b505af1158015610b65573d6000803e3d6000fd5b50505050565b60004282602001518360400151610b829190612ae8565b65ffffffffffff161080610bad5750816040015165ffffffffffff16826060015165ffffffffffff16105b80610bcf5750816040015165ffffffffffff16826080015165ffffffffffff16105b80610bf15750816060015165ffffffffffff16826080015165ffffffffffff16105b15610c0f57604051633a7c40a160e11b815260040160405180910390fd5b7f00000000000000000000000000000000000000000000000000000000000000006001600160a01b0316638b79543c6040518163ffffffff1660e01b8152600401602060405180830381865afa158015610c6d573d6000803e3d6000fd5b505050506040513d601f19601f82011682018060405250810190610c9191906127f8565b6001600160a01b03166306661abd6040518163ffffffff1660e01b8152600401602060405180830381865afa158015610cce573d6000803e3d6000fd5b505050506040513d601f19601f82011682018060405250810190610cf29190612ab9565b610cfd906001612b0e565b61010083015160405163df21a7dd60e01b81526001600160a01b037f0000000000000000000000000000000000000000000000000000000000000000811660048301526024820184905292935091169063df21a7dd90604401602060405180830381865afa158015610d73573d6000803e3d6000fd5b505050506040513d601f19601f82011682018060405250810190610d979190612b21565b610db457604051631b93d9cb60e11b815260040160405180910390fd5b604080516080808201835260208086015165ffffffffffff908116845286850151811682850190815260608089015183168688019081529489015183168187019081526000898152808652888120975188549451975192518616600160901b0265ffffffffffff60901b19938716600160601b02939093166bffffffffffffffffffffffff60601b19988716600160301b026bffffffffffffffffffffffff19909616919096161793909317959095169290921793909317909355835192830184526101008601516001600160a01b03908116845260e08701516001600160581b0390811685840190815260a0890151151586880190815288865260019094529590932093518454955192511515600160f81b026001600160f81b0393909416600160a01b026001600160f81b0319909616911617939093179290921691909117905560c0820151511561106157604080516001808252818301909252600091816020015b604080518082019091526000815260606020820152815260200190600190039081610f1957905050905060405180604001604052808381526020018460c0015181525081600081518110610f6f57610f6f612b3e565b60200260200101819052507f00000000000000000000000000000000000000000000000000000000000000006001600160a01b0316632bdfe0046040518163ffffffff1660e01b8152600401602060405180830381865afa158015610fd8573d6000803e3d6000fd5b505050506040513d601f19601f82011682018060405250810190610ffc91906127f8565b6001600160a01b031663f2da44b660016000846040518463ffffffff1660e01b815260040161102d93929190612c34565b600060405180830381600087803b15801561104757600080fd5b505af115801561105b573d6000803e3d6000fd5b50505050505b604080516080808201835285015181526101008401519151631982d67960e01b81526001600160a01b037f0000000000000000000000000000000000000000000000000000000000000000811660048301526000936020840192911690631982d67990602401602060405180830381865afa1580156110e4573d6000803e3d6000fd5b505050506040513d601f19601f820116820180604052508101906111089190612ab9565b815261010085015160405163b7bad1b160e01b81526001600160a01b037f0000000000000000000000000000000000000000000000000000000000000000811660048301526020909301929091169063b7bad1b190602401602060405180830381865afa15801561117d573d6000803e3d6000fd5b505050506040513d601f19601f820116820180604052508101906111a19190612ab9565b815260200160006001600160a01b0316815250905060006111e17f0000000000000000000000000000000000000000000000000000000000000000611d93565b9050806001600160a01b031663bb52b6e4847f00000000000000000000000000000000000000000000000000000000000000006001600160a01b031663c41c2f246040518163ffffffff1660e01b8152600401602060405180830381865afa158015611251573d6000803e3d6000fd5b505050506040513d601f19601f8201168201806040525081019061127591906127f8565b886000015189602001517f00000000000000000000000000000000000000000000000000000000000000006001600160a01b031663557e71556040518163ffffffff1660e01b8152600401602060405180830381865afa1580156112dd573d6000803e3d6000fd5b505050506040513d601f19601f8201168201806040525081019061130191906127f8565b8b6040015160008d606001518b8f60a001516040518060600160405280600015158152602001600015158152602001600015158152506040518c63ffffffff1660e01b815260040161135d9b9a99989796959493929190612da1565b600060405180830381600087803b15801561137757600080fd5b505af115801561138b573d6000803e3d6000fd5b5050505060c085015160405163f2fde38b60e01b81526001600160a01b0391821660048201529082169063f2fde38b90602401600060405180830381600087803b1580156113d857600080fd5b505af11580156113ec573d6000803e3d6000fd5b505050506113fa8482611dd3565b505092915050565b6000828152600160208181526040808420815160608101835290546001600160a01b0381168252600160a01b81046001600160581b031682850152600160f81b900460ff16151581830152815184815280830190925292849282015b61146661205a565b81526020019060019003908161145e579050506040805160c08101825284516001600160a01b0390811682527f0000000000000000000000000000000000000000000000000000000000000000811660208084018290528701516001600160581b03168385015286519351631982d67960e01b815260048101919091529394509092606084019290911690631982d67990602401602060405180830381865afa158015611517573d6000803e3d6000fd5b505050506040513d601f19601f8201168201806040525081019061153b9190612ab9565b81526020016000815260200160008152508160008151811061155f5761155f612b3e565b602002602001018190525060007f00000000000000000000000000000000000000000000000000000000000000006001600160a01b0316632bdfe0046040518163ffffffff1660e01b8152600401602060405180830381865afa1580156115ca573d6000803e3d6000fd5b505050506040513d601f19601f820116820180604052508101906115ee91906127f8565b6040516369e11cc560e01b81526001600482015260006024820152604481018890526001600160a01b0391909116906369e11cc590606401600060405180830381865afa158015611643573d6000803e3d6000fd5b505050506040513d6000823e601f3d908101601f1916820160405261166b9190810190612e7b565b9050606081516000146116f05760408051600180825281830190925290816020015b60408051808201909152600081526060602082015281526020019060019003908161168d57905050905060405180604001604052806001815260200183815250816000815181106116e0576116e0612b3e565b6020026020010181905250611732565b604080516000808252602082019092529061172e565b6040805180820190915260008152606060208201528152602001906001900390816117065790505b5090505b60008781526020818152604091829020825160808082018552915465ffffffffffff8082168352600160301b82048116948301948552600160601b82048116838701908152600160901b90920416606083015284519283019094529151925191926001600160a01b037f0000000000000000000000000000000000000000000000000000000000000000169263badbdf28928c92909182916117d391612ae8565b65ffffffffffff168152600060208083018290526040808401839052606093840183905280516102a081018252610240810184815261026082018590526102808201859052815280830184905280820184905293840183905260016080850181905260a0850184905260c0850181905260e085018490526101008501849052610120850184905261014085018490528d820151151561016086015261018085018490526101a085018490526101c085018190526101e08501526001600160a01b038f166102008501528051808201909152828152908101919091526102208201906118bd90612039565b8152506000878a6040518763ffffffff1660e01b81526004016118e596959493929190613190565b6020604051808303816000875af1158015611904573d6000803e3d6000fd5b505050506040513d601f19601f820116820180604052508101906119289190612ab9565b955050505050505b92915050565b600082815260208181526040808320815160808082018452915465ffffffffffff8082168352600160301b8204811695830195909552600160601b81048516828501908152600160901b909104909416606082019081528351928301909352925191516001600160a01b037f0000000000000000000000000000000000000000000000000000000000000000169263badbdf28928892909182916119da9190612ae8565b65ffffffffffff168152600060208083018290526040808401839052606093840183905280516102a081018252610240810184815261026082018590526102808201859052815280830184905280820184905293840183905260016080850181905260a0850184905260c0850181905260e08501849052610100850184905261012085018490526101408501849052610160850184905261018085018490526101a085018490526101c085018190526101e085018190526001600160a01b038c166102008601528151808301909252815290810191909152610220820190611ac190612039565b90526040805160008082526020820190925281611b01565b604080518082019091526000815260606020820152815260200190600190039081611ad95790505b506040805160008082526020820190925290611b33565b611b2061205a565b815260200190600190039081611b185790505b506040518763ffffffff1660e01b8152600401611b559695949392919061321e565b6020604051808303816000875af1158015611b74573d6000803e3d6000fd5b505050506040513d601f19601f820116820180604052508101906109559190612ab9565b604080516080808201835260008083526020808401829052838501829052606080850183905285516102a081018752610240810184815261026082018590526102808201859052815280830184905261271081880181905291810191909152600193810184905260a0810183905260c0810183905260e08101839052610100810183905261012081018390526101408101839052610160810183905261018081018390526101a081018390526101c081018490526101e08101939093526001600160a01b03868116610200850152855180870190965282865290850182905290937f00000000000000000000000000000000000000000000000000000000000000009091169263badbdf28928792610220820190611cb590612039565b90526040805160008082526020820190925281611cf5565b604080518082019091526000815260606020820152815260200190600190039081611ccd5790505b506040805160008082526020820190925290611d27565b611d1461205a565b815260200190600190039081611d0c5790505b506040518763ffffffff1660e01b8152600401611d49969594939291906132ac565b6020604051808303816000875af1158015611d68573d6000803e3d6000fd5b505050506040513d601f19601f82011682018060405250810190611d8c9190612ab9565b9392505050565b6000813b604051600160e01b82026c31000000300040b006c11cf9ff60991b8117905080825250816000600d8301863c600d8201816000f0949350505050565b6040805160018082528183019092526000916020808301908036833701905050905082610100015181600081518110611e0e57611e0e612b3e565b6001600160a01b03928316602091820292909201810191909152845160408051608080820183528885015165ffffffffffff1682526000828601819052828401819052606080840182905284516102a08101865261024081018381526102608201849052610280820184905281528088018390526127108187018190529181019190915291820181905260a080830182905260c0830182905260e083018290526101008301829052610120830182905261014083018290528a0151151561016083015261018082018190526101a0820181905260016101c083018190526101e083018190528988166102008401528451808601909552908452948301949094527f00000000000000000000000000000000000000000000000000000000000000009094169363b3c5267393309392610220820190611f4b90612039565b9052602089015160408a0151611f619190612ae8565b6040805160008082526020820190925290611f9f565b604080518082019091526000815260606020820152815260200190600190039081611f775790505b506040805160008082526020820190925290611fd1565b611fbe61205a565b815260200190600190039081611fb65790505b50896040518963ffffffff1660e01b8152600401611ff6989796959493929190613373565b6020604051808303816000875af1158015612015573d6000803e3d6000fd5b505050506040513d601f19601f82011682018060405250810190610b659190612ab9565b805160009015612047576001175b816020015115612055576002175b919050565b6040518060c0016040528060006001600160a01b0316815260200160006001600160a01b03168152602001600081526020016000815260200160008152602001600081525090565b6000602082840312156120b457600080fd5b5035919050565b6001600160a01b03811681146120d057600080fd5b50565b8035612055816120bb565b6000806000806000608086880312156120f657600080fd5b8535612101816120bb565b94506020860135612111816120bb565b93506040860135925060608601356001600160401b038082111561213457600080fd5b818801915088601f83011261214857600080fd5b81358181111561215757600080fd5b89602082850101111561216957600080fd5b9699959850939650602001949392505050565b634e487b7160e01b600052604160045260246000fd5b60405161014081016001600160401b03811182821017156121b5576121b561217c565b60405290565b60405160e081016001600160401b03811182821017156121b5576121b561217c565b60405161012081016001600160401b03811182821017156121b5576121b561217c565b60405161024081016001600160401b03811182821017156121b5576121b561217c565b604051601f8201601f191681016001600160401b038111828210171561224b5761224b61217c565b604052919050565b600082601f83011261226457600080fd5b81356001600160401b0381111561227d5761227d61217c565b612290601f8201601f1916602001612223565b8181528460208386010111156122a557600080fd5b816020850160208301376000918101602001919091529392505050565b60006001600160401b038211156122db576122db61217c565b5060051b60200190565b803569ffffffffffffffffffff8116811461205557600080fd5b803565ffffffffffff8116811461205557600080fd5b803564ffffffffff8116811461205557600080fd5b803561ffff8116811461205557600080fd5b80151581146120d057600080fd5b80356120558161233c565b600082601f83011261236657600080fd5b8135602061237b612376836122c2565b612223565b828152610140928302850182019282820191908785111561239b57600080fd5b8387015b858110156124695781818a0312156123b75760008081fd5b6123bf612192565b6123c8826122e5565b81526123d58683016122ff565b8682015260406123e6818401612315565b9082015260606123f783820161232a565b90820152608061240883820161232a565b9082015260a06124198382016120d3565b9082015260c0828101359082015260e061243481840161234a565b9082015261010061244683820161234a565b9082015261012061245883820161234a565b90820152845292840192810161239f565b5090979650505050505050565b60006040828403121561248857600080fd5b604051604081016001600160401b0382821081831117156124ab576124ab61217c565b8160405282935084359150808211156124c357600080fd5b506124d085828601612253565b825250602083013560208201525092915050565b600082601f8301126124f557600080fd5b81356020612505612376836122c2565b82815260e0928302850182019282820191908785111561252457600080fd5b8387015b858110156124695781818a0312156125405760008081fd5b6125486121bb565b81356125538161233c565b8152818601356125628161233c565b818701526040828101359082015260608083013590820152608080830135612589816120bb565b9082015260a0828101359082015260c0808301356125a6816120bb565b908201528452928401928101612528565b80356001600160581b038116811461205557600080fd5b600061012082840312156125e157600080fd5b6125e96121dd565b905081356001600160401b038082111561260257600080fd5b61260e85838601612476565b835261261c602085016122ff565b602084015261262d604085016122ff565b604084015261263e606085016122ff565b606084015261264f608085016122ff565b608084015261266060a0850161234a565b60a084015260c084013591508082111561267957600080fd5b50612686848285016124e4565b60c08301525061269860e083016125b7565b60e08201526101006126ab8184016120d3565b9082015292915050565b600080604083850312156126c857600080fd5b82356001600160401b03808211156126df57600080fd5b9084019060e082870312156126f357600080fd5b6126fb6121bb565b82358281111561270a57600080fd5b61271688828601612253565b82525060208301358281111561272b57600080fd5b61273788828601612253565b60208301525060408301358281111561274f57600080fd5b61275b88828601612253565b60408301525060608301358281111561277357600080fd5b61277f88828601612253565b60608301525060808301358281111561279757600080fd5b6127a388828601612355565b6080830152506127b560a084016120d3565b60a08201526127c660c084016120d3565b60c0820152935060208501359150808211156127e157600080fd5b506127ee858286016125ce565b9150509250929050565b60006020828403121561280a57600080fd5b8151611d8c816120bb565b8051612055816120bb565b6000610120828403121561283357600080fd5b61283b6121dd565b9050815181526020820151602082015260408201516040820152606082015160608201526080820151608082015260a082015160a082015260c082015160c082015261288960e08301612815565b60e082015261010080830151818301525092915050565b600061012082840312156128b357600080fd5b611d8c8383612820565b80516120558161233c565b6000606082840312156128da57600080fd5b604051606081018181106001600160401b03821117156128fc576128fc61217c565b8060405250809150825161290f8161233c565b8152602083015161291f8161233c565b602082015260408301516129328161233c565b6040919091015292915050565b6000808284036103a081121561295457600080fd5b61295e8585612820565b92506101206102808061011f198401121561297857600080fd5b612980612200565b925061298e878388016128c8565b83526101808087015160208501526101a08088015160408601526101c08089015160608701526101e06129c2818b016128bd565b60808801526102006129d5818c016128bd565b60a08901526102206129e8818d016128bd565b60c08a01526129fa6102408d016128bd565b60e08a0152612a0c6102608d016128bd565b6101008a0152612a1d878d016128bd565b888a0152612a2e6102a08d016128bd565b6101408a0152612a416102c08d016128bd565b6101608a0152612a546102e08d016128bd565b868a0152612a656103008d016128bd565b858a0152612a766103208d016128bd565b848a0152612a876103408d016128bd565b838a0152612a986103608d01612815565b828a01526103808c0151818a01525050505050505050809150509250929050565b600060208284031215612acb57600080fd5b5051919050565b634e487b7160e01b600052601160045260246000fd5b65ffffffffffff828116828216039080821115612b0757612b07612ad2565b5092915050565b8082018082111561193057611930612ad2565b600060208284031215612b3357600080fd5b8151611d8c8161233c565b634e487b7160e01b600052603260045260246000fd5b600081518084526020808501808196508360051b810191508286016000805b86811015612c26578385038a52825180518652860151604087870181905281518188018190529188019160609081890190865b81811015612c0f5785518051151584528c81015115158d850152858101518685015284810151858501526080808201516001600160a01b039081169186019190915260a0808301519086015260c0918201511690840152948b019460e090920191600101612ba6565b50509c89019c975050509286019250600101612b73565b509298975050505050505050565b8381528260208201526060604082015260006107206060830184612b54565b6000815180845260005b81811015612c7957602081850181015186830182015201612c5d565b506000602082860101526020601f19601f83011685010191505092915050565b80516080808452815184820181905260009260a0916020918201918388019190865b82811015612d66578451805169ffffffffffffffffffff1685528281015165ffffffffffff168386015260408082015164ffffffffff169086015260608082015161ffff90811691870191909152888201511688860152868101516001600160a01b03168786015260c0808201519086015260e08082015115159086015261010080820151151590860152610120908101511515908501529381019361014090930192600101612cbb565b5080880151818a015250506040860151604088015260608601519350612d9760608801856001600160a01b03169052565b9695505050505050565b8b81526001600160a01b038b811660208301526101a060408301819052600091612dcd8483018e612c53565b91508382036060850152612de1828d612c53565b9150808b16608085015283820360a0850152612dfd828b612c53565b90891660c085015283810360e08501529050612e198188612c53565b9050828103610100840152612e2e8187612c99565b915050612e476101208301856001600160a01b03169052565b8251151561014083015260208301511515610160830152604083015115156101808301529c9b505050505050505050505050565b60006020808385031215612e8e57600080fd5b82516001600160401b03811115612ea457600080fd5b8301601f81018513612eb557600080fd5b8051612ec3612376826122c2565b81815260e09182028301840191848201919088841115612ee257600080fd5b938501935b83851015612f785780858a031215612eff5760008081fd5b612f076121bb565b8551612f128161233c565b815285870151612f218161233c565b818801526040868101519082015260608087015190820152608080870151612f48816120bb565b9082015260a0868101519082015260c080870151612f65816120bb565b9082015283529384019391850191612ee7565b50979650505050505050565b8051825260208082015190830152604080820151908301526060908101516001600160a01b0316910152565b612fd58282518051151582526020808201511515908301526040908101511515910152565b6020810151606083015260408101516080830152606081015160a0830152608081015161300660c084018215159052565b5060a081015180151560e08401525060c081015161010061302a8185018315159052565b60e083015191506101206130418186018415159052565b908301519150610140906130588583018415159052565b830151915061016061306d8582018415159052565b908301519150610180906130848583018415159052565b83015191506101a06130998582018415159052565b9083015191506101c0906130b08583018415159052565b83015191506101e06130c58582018415159052565b908301519150610200906130dc8583018415159052565b83015191506102206130f18582018415159052565b908301516001600160a01b0316610240850152909101516102609092019190915250565b600081518084526020808501945080840160005b8381101561318557815180516001600160a01b03908116895284820151168489015260408082015190890152606080820151908901526080808201519089015260a0908101519088015260c09096019590820190600101613129565b509495945050505050565b60006103a08883526131a56020840189612f84565b6131b260a0840188612fb0565b85610320840152806103408401526131cc81840186612b54565b90508281036103608401526131e18185613115565b83810361038090940193909352505060148152732232b334b3309033b0b6b290383430b9b290191760611b60208201526040019695505050505050565b60006103a08883526132336020840189612f84565b61324060a0840188612fb0565b856103208401528061034084015261325a81840186612b54565b905082810361036084015261326f8185613115565b83810361038090940193909352505060148152732232b334b3309033b0b6b290383430b9b290199760611b60208201526040019695505050505050565b60006103a08883526132c16020840189612f84565b6132ce60a0840188612fb0565b85610320840152806103408401526132e881840186612b54565b90508281036103608401526132fd8185613115565b83810361038090940193909352505060148152732232b334b3309033b0b6b290383430b9b2901a1760611b60208201526040019695505050505050565b600081518084526020808501945080840160005b838110156131855781516001600160a01b03168752958201959082019060010161334e565b6001600160a01b03891681526103e0602082018190528851604083830152600091906133a3610420850182612c53565b91505060208a01516104008401526133be604084018a612f84565b6133cb60c0840189612fb0565b65ffffffffffff87166103408401528281036103608401526133ed8187612b54565b90508281036103808401526134028186613115565b90508281036103a0840152613417818561333a565b8381036103c085015260148152732232b334b3309033b0b6b290383430b9b290189760611b60208201529050604081019b9a505050505050505050505056fea26469706673582212201ab0c85e97aa3376550904944cf601816c8bf410946c98f2e1e9c4d4404c800864736f6c63430008100033",
    "linkReferences": {}
  },
  "methodIdentifiers": {
    "SPLIT_DOMAIN()": "ff16a2f2",
    "SPLIT_PROJECT_ID()": "a372c2a9",
    "claimProtocolProjectToken()": "ca449a25",
    "controller()": "f77c4791",
    "currentGamePhaseOf(uint256)": "0715610a",
    "defifaCodeOrigin()": "a71e9716",
    "distributionLimit(uint256)": "27655cfd",
    "endOf(uint256)": "b965933e",
    "holdFeesDuring(uint256)": "78632633",
    "launchGameWith((string,string,string,string,(uint80,uint48,uint40,uint16,uint16,address,bytes32,bool,bool,bool)[],address,address),((string,uint256),uint48,uint48,uint48,uint48,bool,(bool,bool,uint256,uint256,address,uint256,address)[],uint88,address))": "ebcfaa65",
    "mintDurationOf(uint256)": "0589d292",
    "nextPhaseNeedsQueueing(uint256)": "81312a14",
    "onERC721Received(address,address,uint256,bytes)": "150b7a02",
    "protocolFeeProjectTokenAccount()": "3f3090d9",
    "queueNextPhaseOf(uint256)": "1c069dbb",
    "startOf(uint256)": "b41e7f47",
    "terminalOf(uint256)": "4fe0eced",
    "timesFor(uint256)": "b07925d3",
    "token()": "fc0c546a",
    "tradeDeadlineOf(uint256)": "380bde20"
  },
  "id": 1
}