{
  "abi": [
    {
      "inputs": [
        {
          "internalType": "address",
          "name": "_defifaCodeOrigin",
          "type": "address"
        },
        {
          "internalType": "contract IJBController",
          "name": "_controller",
          "type": "address"
        },
        {
          "internalType": "address",
          "name": "_token",
          "type": "address"
        },
        {
          "internalType": "address",
          "name": "_protocolFeeProjectTokenAccount",
          "type": "address"
        }
      ],
      "stateMutability": "nonpayable",
      "type": "constructor"
    },
    {
      "inputs": [],
      "name": "GAME_OVER",
      "type": "error"
    },
    {
      "inputs": [],
      "name": "INVALID_GAME_CONFIGURATION",
      "type": "error"
    },
    {
      "inputs": [],
      "name": "PHASE_ALREADY_QUEUED",
      "type": "error"
    },
    {
      "inputs": [],
      "name": "UNEXPECTED_TERMINAL_CURRENCY",
      "type": "error"
    },
    {
      "inputs": [],
      "name": "SPLIT_DOMAIN",
      "outputs": [
        {
          "internalType": "uint256",
          "name": "",
          "type": "uint256"
        }
      ],
      "stateMutability": "view",
      "type": "function"
    },
    {
      "inputs": [],
      "name": "SPLIT_PROJECT_ID",
      "outputs": [
        {
          "internalType": "uint256",
          "name": "",
          "type": "uint256"
        }
      ],
      "stateMutability": "view",
      "type": "function"
    },
    {
      "inputs": [],
      "name": "claimProtocolProjectToken",
      "outputs": [],
      "stateMutability": "nonpayable",
      "type": "function"
    },
    {
      "inputs": [],
      "name": "controller",
      "outputs": [
        {
          "internalType": "contract IJBController",
          "name": "",
          "type": "address"
        }
      ],
      "stateMutability": "view",
      "type": "function"
    },
    {
      "inputs": [
        {
          "internalType": "uint256",
          "name": "_gameId",
          "type": "uint256"
        }
      ],
      "name": "currentGamePhaseOf",
      "outputs": [
        {
          "internalType": "uint256",
          "name": "",
          "type": "uint256"
        }
      ],
      "stateMutability": "view",
      "type": "function"
    },
    {
      "inputs": [],
      "name": "defifaCodeOrigin",
      "outputs": [
        {
          "internalType": "address",
          "name": "",
          "type": "address"
        }
      ],
      "stateMutability": "view",
      "type": "function"
    },
    {
      "inputs": [
        {
          "internalType": "uint256",
          "name": "_gameId",
          "type": "uint256"
        }
      ],
      "name": "distributionLimit",
      "outputs": [
        {
          "internalType": "uint256",
          "name": "",
          "type": "uint256"
        }
      ],
      "stateMutability": "view",
      "type": "function"
    },
    {
      "inputs": [
        {
          "internalType": "uint256",
          "name": "_gameId",
          "type": "uint256"
        }
      ],
      "name": "endOf",
      "outputs": [
        {
          "internalType": "uint256",
          "name": "",
          "type": "uint256"
        }
      ],
      "stateMutability": "view",
      "type": "function"
    },
    {
      "inputs": [
        {
          "internalType": "uint256",
          "name": "_gameId",
          "type": "uint256"
        }
      ],
      "name": "holdFeesDuring",
      "outputs": [
        {
          "internalType": "bool",
          "name": "",
          "type": "bool"
        }
      ],
      "stateMutability": "view",
      "type": "function"
    },
    {
      "inputs": [
        {
          "components": [
            {
              "internalType": "string",
              "name": "name",
              "type": "string"
            },
            {
              "internalType": "string",
              "name": "symbol",
              "type": "string"
            },
            {
              "internalType": "string",
              "name": "baseUri",
              "type": "string"
            },
            {
              "internalType": "string",
              "name": "contractUri",
              "type": "string"
            },
            {
              "components": [
                {
                  "internalType": "uint80",
                  "name": "contributionFloor",
                  "type": "uint80"
                },
                {
                  "internalType": "uint48",
                  "name": "lockedUntil",
                  "type": "uint48"
                },
                {
                  "internalType": "uint40",
                  "name": "initialQuantity",
                  "type": "uint40"
                },
                {
                  "internalType": "uint16",
                  "name": "votingUnits",
                  "type": "uint16"
                },
                {
                  "internalType": "uint16",
                  "name": "reservedRate",
                  "type": "uint16"
                },
                {
                  "internalType": "address",
                  "name": "reservedTokenBeneficiary",
                  "type": "address"
                },
                {
                  "internalType": "bytes32",
                  "name": "encodedIPFSUri",
                  "type": "bytes32"
                },
                {
                  "internalType": "bool",
                  "name": "allowManualMint",
                  "type": "bool"
                },
                {
                  "internalType": "bool",
                  "name": "shouldUseBeneficiaryAsDefault",
                  "type": "bool"
                },
                {
                  "internalType": "bool",
                  "name": "transfersPausable",
                  "type": "bool"
                }
              ],
              "internalType": "struct JB721TierParams[]",
              "name": "tiers",
              "type": "tuple[]"
            },
            {
              "internalType": "contract IJBTiered721DelegateStore",
              "name": "store",
              "type": "address"
            },
            {
              "internalType": "address",
              "name": "owner",
              "type": "address"
            }
          ],
          "internalType": "struct DefifaDelegateData",
          "name": "_delegateData",
          "type": "tuple"
        },
        {
          "components": [
            {
              "components": [
                {
                  "internalType": "string",
                  "name": "content",
                  "type": "string"
                },
                {
                  "internalType": "uint256",
                  "name": "domain",
                  "type": "uint256"
                }
              ],
              "internalType": "struct JBProjectMetadata",
              "name": "projectMetadata",
              "type": "tuple"
            },
            {
              "internalType": "uint48",
              "name": "mintDuration",
              "type": "uint48"
            },
            {
              "internalType": "uint48",
              "name": "start",
              "type": "uint48"
            },
            {
              "internalType": "uint48",
              "name": "tradeDeadline",
              "type": "uint48"
            },
            {
              "internalType": "uint48",
              "name": "end",
              "type": "uint48"
            },
            {
              "internalType": "bool",
              "name": "holdFees",
              "type": "bool"
            },
            {
              "components": [
                {
                  "internalType": "bool",
                  "name": "preferClaimed",
                  "type": "bool"
                },
                {
                  "internalType": "bool",
                  "name": "preferAddToBalance",
                  "type": "bool"
                },
                {
                  "internalType": "uint256",
                  "name": "percent",
                  "type": "uint256"
                },
                {
                  "internalType": "uint256",
                  "name": "projectId",
                  "type": "uint256"
                },
                {
                  "internalType": "address payable",
                  "name": "beneficiary",
                  "type": "address"
                },
                {
                  "internalType": "uint256",
                  "name": "lockedUntil",
                  "type": "uint256"
                },
                {
                  "internalType": "contract IJBSplitAllocator",
                  "name": "allocator",
                  "type": "address"
                }
              ],
              "internalType": "struct JBSplit[]",
              "name": "splits",
              "type": "tuple[]"
            },
            {
              "internalType": "uint88",
              "name": "distributionLimit",
              "type": "uint88"
            },
            {
              "internalType": "contract IJBPaymentTerminal",
              "name": "terminal",
              "type": "address"
            }
          ],
          "internalType": "struct DefifaLaunchProjectData",
          "name": "_launchProjectData",
          "type": "tuple"
        }
      ],
      "name": "launchGameWith",
      "outputs": [
        {
          "internalType": "uint256",
          "name": "gameId",
          "type": "uint256"
        }
      ],
      "stateMutability": "nonpayable",
      "type": "function"
    },
    {
      "inputs": [
        {
          "internalType": "uint256",
          "name": "_gameId",
          "type": "uint256"
        }
      ],
      "name": "mintDurationOf",
      "outputs": [
        {
          "internalType": "uint256",
          "name": "",
          "type": "uint256"
        }
      ],
      "stateMutability": "view",
      "type": "function"
    },
    {
      "inputs": [
        {
          "internalType": "address",
          "name": "",
          "type": "address"
        },
        {
          "internalType": "address",
          "name": "",
          "type": "address"
        },
        {
          "internalType": "uint256",
          "name": "",
          "type": "uint256"
        },
        {
          "internalType": "bytes",
          "name": "",
          "type": "bytes"
        }
      ],
      "name": "onERC721Received",
      "outputs": [
        {
          "internalType": "bytes4",
          "name": "",
          "type": "bytes4"
        }
      ],
      "stateMutability": "pure",
      "type": "function"
    },
    {
      "inputs": [],
      "name": "protocolFeeProjectTokenAccount",
      "outputs": [
        {
          "internalType": "address",
          "name": "",
          "type": "address"
        }
      ],
      "stateMutability": "view",
      "type": "function"
    },
    {
      "inputs": [
        {
          "internalType": "uint256",
          "name": "_gameId",
          "type": "uint256"
        }
      ],
      "name": "queueNextPhaseOf",
      "outputs": [
        {
          "internalType": "uint256",
          "name": "configuration",
          "type": "uint256"
        }
      ],
      "stateMutability": "nonpayable",
      "type": "function"
    },
    {
      "inputs": [
        {
          "internalType": "uint256",
          "name": "_gameId",
          "type": "uint256"
        }
      ],
      "name": "startOf",
      "outputs": [
        {
          "internalType": "uint256",
          "name": "",
          "type": "uint256"
        }
      ],
      "stateMutability": "view",
      "type": "function"
    },
    {
      "inputs": [
        {
          "internalType": "uint256",
          "name": "_gameId",
          "type": "uint256"
        }
      ],
      "name": "terminalOf",
      "outputs": [
        {
          "internalType": "contract IJBPaymentTerminal",
          "name": "",
          "type": "address"
        }
      ],
      "stateMutability": "view",
      "type": "function"
    },
    {
      "inputs": [
        {
          "internalType": "uint256",
          "name": "_gameId",
          "type": "uint256"
        }
      ],
      "name": "timesFor",
      "outputs": [
        {
          "components": [
            {
              "internalType": "uint48",
              "name": "mintDuration",
              "type": "uint48"
            },
            {
              "internalType": "uint48",
              "name": "start",
              "type": "uint48"
            },
            {
              "internalType": "uint48",
              "name": "tradeDeadline",
              "type": "uint48"
            },
            {
              "internalType": "uint48",
              "name": "end",
              "type": "uint48"
            }
          ],
          "internalType": "struct DefifaTimeData",
          "name": "",
          "type": "tuple"
        }
      ],
      "stateMutability": "view",
      "type": "function"
    },
    {
      "inputs": [],
      "name": "token",
      "outputs": [
        {
          "internalType": "address",
          "name": "",
          "type": "address"
        }
      ],
      "stateMutability": "view",
      "type": "function"
    },
    {
      "inputs": [
        {
          "internalType": "uint256",
          "name": "_gameId",
          "type": "uint256"
        }
      ],
      "name": "tradeDeadlineOf",
      "outputs": [
        {
          "internalType": "uint256",
          "name": "",
          "type": "uint256"
        }
      ],
      "stateMutability": "view",
      "type": "function"
    }
  ],
  "bytecode": {
    "object": "0x60e06040523480156200001157600080fd5b506040516200340738038062003407833981016040819052620000349162000081565b6001600160a01b0393841660805291831660c052821660a052600280546001600160a01b03191691909216179055620000e9565b6001600160a01b03811681146200007e57600080fd5b50565b600080600080608085870312156200009857600080fd5b8451620000a58162000068565b6020860151909450620000b88162000068565b6040860151909350620000cb8162000068565b6060860151909250620000de8162000068565b939692955090935050565b60805160a05160c0516132696200019e600039600081816104270152818161047d0152818161057b0152818161064b01528181610734015281816107dd015281816109e601528181610d5101528181610fca0152818161105601528181611343015281816115720152818161177801528181611a580152611ced01526000818161044e01528181610aef01528181610e6201528181610efc01526112690152600081816102b90152610f9201526132696000f3fe608060405234801561001057600080fd5b50600436106101215760003560e01c8063a372c2a9116100ad578063ca449a2511610071578063ca449a2514610405578063ebcfaa651461040f578063f77c479114610422578063fc0c546a14610449578063ff16a2f21461047057600080fd5b8063a372c2a9146102ac578063a71e9716146102b4578063b07925d3146102db578063b41e7f47146103a7578063b965933e146103d657600080fd5b806327655cfd116100f457806327655cfd146101bf578063380bde20146101ef5780633f3090d91461021e5780634fe0eced14610249578063786326331461027257600080fd5b80630589d292146101265780630715610a14610161578063150b7a02146101745780631c069dbb146101ac575b600080fd5b61014e610134366004611e7f565b60009081526020819052604090205465ffffffffffff1690565b6040519081526020015b60405180910390f35b61014e61016f366004611e7f565b610478565b610193610182366004611ebb565b630a85bd0160e11b95945050505050565b6040516001600160e01b03199091168152602001610158565b61014e6101ba366004611e7f565b610574565b61014e6101cd366004611e7f565b600090815260016020526040902054600160a01b90046001600160581b031690565b61014e6101fd366004611e7f565b600090815260208190526040902054600160601b900465ffffffffffff1690565b600254610231906001600160a01b031681565b6040516001600160a01b039091168152602001610158565b610231610257366004611e7f565b6000908152600160205260409020546001600160a01b031690565b61029c610280366004611e7f565b600090815260016020526040902054600160f81b900460ff1690565b6040519015158152602001610158565b61014e600181565b6102317f000000000000000000000000000000000000000000000000000000000000000081565b6103656102e9366004611e7f565b60408051608081018252600080825260208201819052918101829052606081019190915250600090815260208181526040918290208251608081018452905465ffffffffffff8082168352600160301b8204811693830193909352600160601b8104831693820193909352600160901b90920416606082015290565b6040516101589190815165ffffffffffff9081168252602080840151821690830152604080840151821690830152606092830151169181019190915260800190565b61014e6103b5366004611e7f565b600090815260208190526040902054600160301b900465ffffffffffff1690565b61014e6103e4366004611e7f565b600090815260208190526040902054600160901b900465ffffffffffff1690565b61040d610732565b005b61014e61041d366004612492565b610940565b6102317f000000000000000000000000000000000000000000000000000000000000000081565b6102317f000000000000000000000000000000000000000000000000000000000000000081565b61014e600081565b6000807f00000000000000000000000000000000000000000000000000000000000000006001600160a01b031663557e71556040518163ffffffff1660e01b8152600401602060405180830381865afa1580156104d9573d6000803e3d6000fd5b505050506040513d601f19601f820116820180604052508101906104fd91906125d5565b6001600160a01b03166343a266c2846040518263ffffffff1660e01b815260040161052a91815260200190565b61012060405180830381865afa158015610548573d6000803e3d6000fd5b505050506040513d601f19601f8201168201806040525081019061056c919061267d565b519392505050565b60008060007f00000000000000000000000000000000000000000000000000000000000000006001600160a01b0316638776c499856040518263ffffffff1660e01b81526004016105c791815260200190565b6103a060405180830381865afa1580156105e5573d6000803e3d6000fd5b505050506040513d601f19601f82011682018060405250810190610609919061271c565b9150915060048260000151106106325760405163dc7a251560e01b815260040160405180910390fd5b6040516304acdec560e21b8152600481018590526000907f00000000000000000000000000000000000000000000000000000000000000006001600160a01b0316906312b37b14906024016103a060405180830381865afa15801561069b573d6000803e3d6000fd5b505050506040513d601f19601f820116820180604052508101906106bf919061271c565b50905080602001518360200151146106ea576040516311f4338560e01b815260040160405180910390fd5b825160010361070b57610702858361020001516111d7565b95945050505050565b8251600203610723576107028583610200015161170b565b61070285836102000151611975565b7f00000000000000000000000000000000000000000000000000000000000000006001600160a01b031663619306306040518163ffffffff1660e01b8152600401602060405180830381865afa158015610790573d6000803e3d6000fd5b505050506040513d601f19601f820116820180604052508101906107b491906125d5565b6001600160a01b031663ac689bcd306001600260009054906101000a90046001600160a01b03167f00000000000000000000000000000000000000000000000000000000000000006001600160a01b031663619306306040518163ffffffff1660e01b8152600401602060405180830381865afa158015610839573d6000803e3d6000fd5b505050506040513d601f19601f8201168201806040525081019061085d91906125d5565b604051635287af3760e01b8152306004820152600160248201526001600160a01b039190911690635287af3790604401602060405180830381865afa1580156108aa573d6000803e3d6000fd5b505050506040513d601f19601f820116820180604052508101906108ce9190612896565b6040516001600160e01b031960e087901b1681526001600160a01b0394851660048201526024810193909352921660448201526064810191909152608401600060405180830381600087803b15801561092657600080fd5b505af115801561093a573d6000803e3d6000fd5b50505050565b6000428260200151836040015161095791906128c5565b65ffffffffffff1610806109825750816040015165ffffffffffff16826060015165ffffffffffff16105b806109a45750816040015165ffffffffffff16826080015165ffffffffffff16105b806109c65750816060015165ffffffffffff16826080015165ffffffffffff16105b156109e457604051633a7c40a160e11b815260040160405180910390fd5b7f00000000000000000000000000000000000000000000000000000000000000006001600160a01b0316638b79543c6040518163ffffffff1660e01b8152600401602060405180830381865afa158015610a42573d6000803e3d6000fd5b505050506040513d601f19601f82011682018060405250810190610a6691906125d5565b6001600160a01b03166306661abd6040518163ffffffff1660e01b8152600401602060405180830381865afa158015610aa3573d6000803e3d6000fd5b505050506040513d601f19601f82011682018060405250810190610ac79190612896565b610ad29060016128eb565b61010083015160405163df21a7dd60e01b81526001600160a01b037f0000000000000000000000000000000000000000000000000000000000000000811660048301526024820184905292935091169063df21a7dd90604401602060405180830381865afa158015610b48573d6000803e3d6000fd5b505050506040513d601f19601f82011682018060405250810190610b6c91906128fe565b610b8957604051631b93d9cb60e11b815260040160405180910390fd5b604080516080808201835260208086015165ffffffffffff908116845286850151811682850190815260608089015183168688019081529489015183168187019081526000898152808652888120975188549451975192518616600160901b0265ffffffffffff60901b19938716600160601b02939093166bffffffffffffffffffffffff60601b19988716600160301b026bffffffffffffffffffffffff19909616919096161793909317959095169290921793909317909355835192830184526101008601516001600160a01b03908116845260e08701516001600160581b0390811685840190815260a0890151151586880190815288865260019094529590932093518454955192511515600160f81b026001600160f81b0393909416600160a01b026001600160f81b0319909616911617939093179290921691909117905560c08201515115610e3657604080516001808252818301909252600091816020015b604080518082019091526000815260606020820152815260200190600190039081610cee57905050905060405180604001604052808381526020018460c0015181525081600081518110610d4457610d4461291b565b60200260200101819052507f00000000000000000000000000000000000000000000000000000000000000006001600160a01b0316632bdfe0046040518163ffffffff1660e01b8152600401602060405180830381865afa158015610dad573d6000803e3d6000fd5b505050506040513d601f19601f82011682018060405250810190610dd191906125d5565b6001600160a01b031663f2da44b660016000846040518463ffffffff1660e01b8152600401610e0293929190612a11565b600060405180830381600087803b158015610e1c57600080fd5b505af1158015610e30573d6000803e3d6000fd5b50505050505b604080516080808201835285015181526101008401519151631982d67960e01b81526001600160a01b037f0000000000000000000000000000000000000000000000000000000000000000811660048301526000936020840192911690631982d67990602401602060405180830381865afa158015610eb9573d6000803e3d6000fd5b505050506040513d601f19601f82011682018060405250810190610edd9190612896565b815261010085015160405163b7bad1b160e01b81526001600160a01b037f0000000000000000000000000000000000000000000000000000000000000000811660048301526020909301929091169063b7bad1b190602401602060405180830381865afa158015610f52573d6000803e3d6000fd5b505050506040513d601f19601f82011682018060405250810190610f769190612896565b815260200160006001600160a01b031681525090506000610fb67f0000000000000000000000000000000000000000000000000000000000000000611b70565b9050806001600160a01b031663bb52b6e4847f00000000000000000000000000000000000000000000000000000000000000006001600160a01b031663c41c2f246040518163ffffffff1660e01b8152600401602060405180830381865afa158015611026573d6000803e3d6000fd5b505050506040513d601f19601f8201168201806040525081019061104a91906125d5565b886000015189602001517f00000000000000000000000000000000000000000000000000000000000000006001600160a01b031663557e71556040518163ffffffff1660e01b8152600401602060405180830381865afa1580156110b2573d6000803e3d6000fd5b505050506040513d601f19601f820116820180604052508101906110d691906125d5565b8b6040015160008d606001518b8f60a001516040518060600160405280600015158152602001600015158152602001600015158152506040518c63ffffffff1660e01b81526004016111329b9a99989796959493929190612b7e565b600060405180830381600087803b15801561114c57600080fd5b505af1158015611160573d6000803e3d6000fd5b5050505060c085015160405163f2fde38b60e01b81526001600160a01b0391821660048201529082169063f2fde38b90602401600060405180830381600087803b1580156111ad57600080fd5b505af11580156111c1573d6000803e3d6000fd5b505050506111cf8482611bb0565b505092915050565b6000828152600160208181526040808420815160608101835290546001600160a01b0381168252600160a01b81046001600160581b031682850152600160f81b900460ff16151581830152815184815280830190925292849282015b61123b611e37565b815260200190600190039081611233579050506040805160c08101825284516001600160a01b0390811682527f0000000000000000000000000000000000000000000000000000000000000000811660208084018290528701516001600160581b03168385015286519351631982d67960e01b815260048101919091529394509092606084019290911690631982d67990602401602060405180830381865afa1580156112ec573d6000803e3d6000fd5b505050506040513d601f19601f820116820180604052508101906113109190612896565b8152602001600081526020016000815250816000815181106113345761133461291b565b602002602001018190525060007f00000000000000000000000000000000000000000000000000000000000000006001600160a01b0316632bdfe0046040518163ffffffff1660e01b8152600401602060405180830381865afa15801561139f573d6000803e3d6000fd5b505050506040513d601f19601f820116820180604052508101906113c391906125d5565b6040516369e11cc560e01b81526001600482015260006024820152604481018890526001600160a01b0391909116906369e11cc590606401600060405180830381865afa158015611418573d6000803e3d6000fd5b505050506040513d6000823e601f3d908101601f191682016040526114409190810190612c58565b9050606081516000146114c55760408051600180825281830190925290816020015b60408051808201909152600081526060602082015281526020019060019003908161146257905050905060405180604001604052806001815260200183815250816000815181106114b5576114b561291b565b6020026020010181905250611507565b6040805160008082526020820190925290611503565b6040805180820190915260008152606060208201528152602001906001900390816114db5790505b5090505b60008781526020818152604091829020825160808082018552915465ffffffffffff8082168352600160301b82048116948301948552600160601b82048116838701908152600160901b90920416606083015284519283019094529151925191926001600160a01b037f0000000000000000000000000000000000000000000000000000000000000000169263badbdf28928c92909182916115a8916128c5565b65ffffffffffff168152600060208083018290526040808401839052606093840183905280516102a081018252610240810184815261026082018590526102808201859052815280830184905280820184905293840183905260016080850181905260a0850184905260c0850181905260e085018490526101008501849052610120850184905261014085018490528d820151151561016086015261018085018490526101a085018490526101c085018190526101e08501526001600160a01b038f1661020085015280518082019091528281529081019190915261022082019061169290611e16565b8152506000878a6040518763ffffffff1660e01b81526004016116ba96959493929190612f6d565b6020604051808303816000875af11580156116d9573d6000803e3d6000fd5b505050506040513d601f19601f820116820180604052508101906116fd9190612896565b955050505050505b92915050565b600082815260208181526040808320815160808082018452915465ffffffffffff8082168352600160301b8204811695830195909552600160601b81048516828501908152600160901b909104909416606082019081528351928301909352925191516001600160a01b037f0000000000000000000000000000000000000000000000000000000000000000169263badbdf28928892909182916117af91906128c5565b65ffffffffffff168152600060208083018290526040808401839052606093840183905280516102a081018252610240810184815261026082018590526102808201859052815280830184905280820184905293840183905260016080850181905260a0850184905260c0850181905260e08501849052610100850184905261012085018490526101408501849052610160850184905261018085018490526101a085018490526101c085018190526101e085018190526001600160a01b038c16610200860152815180830190925281529081019190915261022082019061189690611e16565b905260408051600080825260208201909252816118d6565b6040805180820190915260008152606060208201528152602001906001900390816118ae5790505b506040805160008082526020820190925290611908565b6118f5611e37565b8152602001906001900390816118ed5790505b506040518763ffffffff1660e01b815260040161192a96959493929190612ffb565b6020604051808303816000875af1158015611949573d6000803e3d6000fd5b505050506040513d601f19601f8201168201806040525081019061196d9190612896565b949350505050565b604080516080808201835260008083526020808401829052838501829052606080850183905285516102a081018752610240810184815261026082018590526102808201859052815280830184905261271081880181905291810191909152600193810184905260a0810183905260c0810183905260e08101839052610100810183905261012081018390526101408101839052610160810183905261018081018390526101a081018390526101c081018490526101e08101939093526001600160a01b03868116610200850152855180870190965282865290850182905290937f00000000000000000000000000000000000000000000000000000000000000009091169263badbdf28928792610220820190611a9290611e16565b90526040805160008082526020820190925281611ad2565b604080518082019091526000815260606020820152815260200190600190039081611aaa5790505b506040805160008082526020820190925290611b04565b611af1611e37565b815260200190600190039081611ae95790505b506040518763ffffffff1660e01b8152600401611b2696959493929190613089565b6020604051808303816000875af1158015611b45573d6000803e3d6000fd5b505050506040513d601f19601f82011682018060405250810190611b699190612896565b9392505050565b6000813b604051600160e01b82026c31000000300040b006c11cf9ff60991b8117905080825250816000600d8301863c600d8201816000f0949350505050565b6040805160018082528183019092526000916020808301908036833701905050905082610100015181600081518110611beb57611beb61291b565b6001600160a01b03928316602091820292909201810191909152845160408051608080820183528885015165ffffffffffff1682526000828601819052828401819052606080840182905284516102a08101865261024081018381526102608201849052610280820184905281528088018390526127108187018190529181019190915291820181905260a080830182905260c0830182905260e083018290526101008301829052610120830182905261014083018290528a0151151561016083015261018082018190526101a0820181905260016101c083018190526101e083018190528988166102008401528451808601909552908452948301949094527f00000000000000000000000000000000000000000000000000000000000000009094169363b3c5267393309392610220820190611d2890611e16565b9052602089015160408a0151611d3e91906128c5565b6040805160008082526020820190925290611d7c565b604080518082019091526000815260606020820152815260200190600190039081611d545790505b506040805160008082526020820190925290611dae565b611d9b611e37565b815260200190600190039081611d935790505b50896040518963ffffffff1660e01b8152600401611dd3989796959493929190613150565b6020604051808303816000875af1158015611df2573d6000803e3d6000fd5b505050506040513d601f19601f8201168201806040525081019061093a9190612896565b805160009015611e24576001175b816020015115611e32576002175b919050565b6040518060c0016040528060006001600160a01b0316815260200160006001600160a01b03168152602001600081526020016000815260200160008152602001600081525090565b600060208284031215611e9157600080fd5b5035919050565b6001600160a01b0381168114611ead57600080fd5b50565b8035611e3281611e98565b600080600080600060808688031215611ed357600080fd5b8535611ede81611e98565b94506020860135611eee81611e98565b93506040860135925060608601356001600160401b0380821115611f1157600080fd5b818801915088601f830112611f2557600080fd5b813581811115611f3457600080fd5b896020828501011115611f4657600080fd5b9699959850939650602001949392505050565b634e487b7160e01b600052604160045260246000fd5b60405161014081016001600160401b0381118282101715611f9257611f92611f59565b60405290565b60405160e081016001600160401b0381118282101715611f9257611f92611f59565b60405161012081016001600160401b0381118282101715611f9257611f92611f59565b60405161024081016001600160401b0381118282101715611f9257611f92611f59565b604051601f8201601f191681016001600160401b038111828210171561202857612028611f59565b604052919050565b600082601f83011261204157600080fd5b81356001600160401b0381111561205a5761205a611f59565b61206d601f8201601f1916602001612000565b81815284602083860101111561208257600080fd5b816020850160208301376000918101602001919091529392505050565b60006001600160401b038211156120b8576120b8611f59565b5060051b60200190565b803569ffffffffffffffffffff81168114611e3257600080fd5b803565ffffffffffff81168114611e3257600080fd5b803564ffffffffff81168114611e3257600080fd5b803561ffff81168114611e3257600080fd5b8015158114611ead57600080fd5b8035611e3281612119565b600082601f83011261214357600080fd5b813560206121586121538361209f565b612000565b828152610140928302850182019282820191908785111561217857600080fd5b8387015b858110156122465781818a0312156121945760008081fd5b61219c611f6f565b6121a5826120c2565b81526121b28683016120dc565b8682015260406121c38184016120f2565b9082015260606121d4838201612107565b9082015260806121e5838201612107565b9082015260a06121f6838201611eb0565b9082015260c0828101359082015260e0612211818401612127565b90820152610100612223838201612127565b90820152610120612235838201612127565b90820152845292840192810161217c565b5090979650505050505050565b60006040828403121561226557600080fd5b604051604081016001600160401b03828210818311171561228857612288611f59565b8160405282935084359150808211156122a057600080fd5b506122ad85828601612030565b825250602083013560208201525092915050565b600082601f8301126122d257600080fd5b813560206122e26121538361209f565b82815260e0928302850182019282820191908785111561230157600080fd5b8387015b858110156122465781818a03121561231d5760008081fd5b612325611f98565b813561233081612119565b81528186013561233f81612119565b81870152604082810135908201526060808301359082015260808083013561236681611e98565b9082015260a0828101359082015260c08083013561238381611e98565b908201528452928401928101612305565b80356001600160581b0381168114611e3257600080fd5b600061012082840312156123be57600080fd5b6123c6611fba565b905081356001600160401b03808211156123df57600080fd5b6123eb85838601612253565b83526123f9602085016120dc565b602084015261240a604085016120dc565b604084015261241b606085016120dc565b606084015261242c608085016120dc565b608084015261243d60a08501612127565b60a084015260c084013591508082111561245657600080fd5b50612463848285016122c1565b60c08301525061247560e08301612394565b60e0820152610100612488818401611eb0565b9082015292915050565b600080604083850312156124a557600080fd5b82356001600160401b03808211156124bc57600080fd5b9084019060e082870312156124d057600080fd5b6124d8611f98565b8235828111156124e757600080fd5b6124f388828601612030565b82525060208301358281111561250857600080fd5b61251488828601612030565b60208301525060408301358281111561252c57600080fd5b61253888828601612030565b60408301525060608301358281111561255057600080fd5b61255c88828601612030565b60608301525060808301358281111561257457600080fd5b61258088828601612132565b60808301525061259260a08401611eb0565b60a08201526125a360c08401611eb0565b60c0820152935060208501359150808211156125be57600080fd5b506125cb858286016123ab565b9150509250929050565b6000602082840312156125e757600080fd5b8151611b6981611e98565b8051611e3281611e98565b6000610120828403121561261057600080fd5b612618611fba565b9050815181526020820151602082015260408201516040820152606082015160608201526080820151608082015260a082015160a082015260c082015160c082015261266660e083016125f2565b60e082015261010080830151818301525092915050565b6000610120828403121561269057600080fd5b611b6983836125fd565b8051611e3281612119565b6000606082840312156126b757600080fd5b604051606081018181106001600160401b03821117156126d9576126d9611f59565b806040525080915082516126ec81612119565b815260208301516126fc81612119565b6020820152604083015161270f81612119565b6040919091015292915050565b6000808284036103a081121561273157600080fd5b61273b85856125fd565b92506101206102808061011f198401121561275557600080fd5b61275d611fdd565b925061276b878388016126a5565b83526101808087015160208501526101a08088015160408601526101c08089015160608701526101e061279f818b0161269a565b60808801526102006127b2818c0161269a565b60a08901526102206127c5818d0161269a565b60c08a01526127d76102408d0161269a565b60e08a01526127e96102608d0161269a565b6101008a01526127fa878d0161269a565b888a015261280b6102a08d0161269a565b6101408a015261281e6102c08d0161269a565b6101608a01526128316102e08d0161269a565b868a01526128426103008d0161269a565b858a01526128536103208d0161269a565b848a01526128646103408d0161269a565b838a01526128756103608d016125f2565b828a01526103808c0151818a01525050505050505050809150509250929050565b6000602082840312156128a857600080fd5b5051919050565b634e487b7160e01b600052601160045260246000fd5b65ffffffffffff8281168282160390808211156128e4576128e46128af565b5092915050565b80820180821115611705576117056128af565b60006020828403121561291057600080fd5b8151611b6981612119565b634e487b7160e01b600052603260045260246000fd5b600081518084526020808501808196508360051b810191508286016000805b86811015612a03578385038a52825180518652860151604087870181905281518188018190529188019160609081890190865b818110156129ec5785518051151584528c81015115158d850152858101518685015284810151858501526080808201516001600160a01b039081169186019190915260a0808301519086015260c0918201511690840152948b019460e090920191600101612983565b50509c89019c975050509286019250600101612950565b509298975050505050505050565b8381528260208201526060604082015260006107026060830184612931565b6000815180845260005b81811015612a5657602081850181015186830182015201612a3a565b506000602082860101526020601f19601f83011685010191505092915050565b80516080808452815184820181905260009260a0916020918201918388019190865b82811015612b43578451805169ffffffffffffffffffff1685528281015165ffffffffffff168386015260408082015164ffffffffff169086015260608082015161ffff90811691870191909152888201511688860152868101516001600160a01b03168786015260c0808201519086015260e08082015115159086015261010080820151151590860152610120908101511515908501529381019361014090930192600101612a98565b5080880151818a015250506040860151604088015260608601519350612b7460608801856001600160a01b03169052565b9695505050505050565b8b81526001600160a01b038b811660208301526101a060408301819052600091612baa8483018e612a30565b91508382036060850152612bbe828d612a30565b9150808b16608085015283820360a0850152612bda828b612a30565b90891660c085015283810360e08501529050612bf68188612a30565b9050828103610100840152612c0b8187612a76565b915050612c246101208301856001600160a01b03169052565b8251151561014083015260208301511515610160830152604083015115156101808301529c9b505050505050505050505050565b60006020808385031215612c6b57600080fd5b82516001600160401b03811115612c8157600080fd5b8301601f81018513612c9257600080fd5b8051612ca06121538261209f565b81815260e09182028301840191848201919088841115612cbf57600080fd5b938501935b83851015612d555780858a031215612cdc5760008081fd5b612ce4611f98565b8551612cef81612119565b815285870151612cfe81612119565b818801526040868101519082015260608087015190820152608080870151612d2581611e98565b9082015260a0868101519082015260c080870151612d4281611e98565b9082015283529384019391850191612cc4565b50979650505050505050565b8051825260208082015190830152604080820151908301526060908101516001600160a01b0316910152565b612db28282518051151582526020808201511515908301526040908101511515910152565b6020810151606083015260408101516080830152606081015160a08301526080810151612de360c084018215159052565b5060a081015180151560e08401525060c0810151610100612e078185018315159052565b60e08301519150610120612e1e8186018415159052565b90830151915061014090612e358583018415159052565b8301519150610160612e4a8582018415159052565b90830151915061018090612e618583018415159052565b83015191506101a0612e768582018415159052565b9083015191506101c090612e8d8583018415159052565b83015191506101e0612ea28582018415159052565b90830151915061020090612eb98583018415159052565b8301519150610220612ece8582018415159052565b908301516001600160a01b0316610240850152909101516102609092019190915250565b600081518084526020808501945080840160005b83811015612f6257815180516001600160a01b03908116895284820151168489015260408082015190890152606080820151908901526080808201519089015260a0908101519088015260c09096019590820190600101612f06565b509495945050505050565b60006103a0888352612f826020840189612d61565b612f8f60a0840188612d8d565b8561032084015280610340840152612fa981840186612931565b9050828103610360840152612fbe8185612ef2565b83810361038090940193909352505060148152732232b334b3309033b0b6b290383430b9b290191760611b60208201526040019695505050505050565b60006103a08883526130106020840189612d61565b61301d60a0840188612d8d565b856103208401528061034084015261303781840186612931565b905082810361036084015261304c8185612ef2565b83810361038090940193909352505060148152732232b334b3309033b0b6b290383430b9b290199760611b60208201526040019695505050505050565b60006103a088835261309e6020840189612d61565b6130ab60a0840188612d8d565b85610320840152806103408401526130c581840186612931565b90508281036103608401526130da8185612ef2565b83810361038090940193909352505060148152732232b334b3309033b0b6b290383430b9b2901a1760611b60208201526040019695505050505050565b600081518084526020808501945080840160005b83811015612f625781516001600160a01b03168752958201959082019060010161312b565b6001600160a01b03891681526103e060208201819052885160408383015260009190613180610420850182612a30565b91505060208a015161040084015261319b604084018a612d61565b6131a860c0840189612d8d565b65ffffffffffff87166103408401528281036103608401526131ca8187612931565b90508281036103808401526131df8186612ef2565b90508281036103a08401526131f48185613117565b8381036103c085015260148152732232b334b3309033b0b6b290383430b9b290189760611b60208201529050604081019b9a505050505050505050505056fea2646970667358221220d3b3e060a9a0b60f70d482941aeb0f6b1eec90c3a0973e91645e96d04283064d64736f6c63430008100033",
    "linkReferences": {}
  },
  "methodIdentifiers": {
    "SPLIT_DOMAIN()": "ff16a2f2",
    "SPLIT_PROJECT_ID()": "a372c2a9",
    "claimProtocolProjectToken()": "ca449a25",
    "controller()": "f77c4791",
    "currentGamePhaseOf(uint256)": "0715610a",
    "defifaCodeOrigin()": "a71e9716",
    "distributionLimit(uint256)": "27655cfd",
    "endOf(uint256)": "b965933e",
    "holdFeesDuring(uint256)": "78632633",
    "launchGameWith((string,string,string,string,(uint80,uint48,uint40,uint16,uint16,address,bytes32,bool,bool,bool)[],address,address),((string,uint256),uint48,uint48,uint48,uint48,bool,(bool,bool,uint256,uint256,address,uint256,address)[],uint88,address))": "ebcfaa65",
    "mintDurationOf(uint256)": "0589d292",
    "onERC721Received(address,address,uint256,bytes)": "150b7a02",
    "protocolFeeProjectTokenAccount()": "3f3090d9",
    "queueNextPhaseOf(uint256)": "1c069dbb",
    "startOf(uint256)": "b41e7f47",
    "terminalOf(uint256)": "4fe0eced",
    "timesFor(uint256)": "b07925d3",
    "token()": "fc0c546a",
    "tradeDeadlineOf(uint256)": "380bde20"
  },
  "id": 1
}